{
  "address": "0x6Bda23132D1B1320d4605C63a5924e1EA3E0caAc",
  "abi": [
    {
      "inputs": [],
      "name": "InternalMethod",
      "type": "error"
    },
    {
      "anonymous": false,
      "inputs": [
        {
          "indexed": true,
          "internalType": "address",
          "name": "owner",
          "type": "address"
        },
        {
          "indexed": true,
          "internalType": "address",
          "name": "spender",
          "type": "address"
        },
        {
          "indexed": false,
          "internalType": "uint256",
          "name": "value",
          "type": "uint256"
        }
      ],
      "name": "Approval",
      "type": "event"
    },
    {
      "anonymous": false,
      "inputs": [
        {
          "indexed": true,
          "internalType": "uint256",
          "name": "amount",
          "type": "uint256"
        },
        {
          "indexed": false,
          "internalType": "string",
          "name": "ref",
          "type": "string"
        },
        {
          "indexed": true,
          "internalType": "address",
          "name": "who",
          "type": "address"
        }
      ],
      "name": "Burnt",
      "type": "event"
    },
    {
      "anonymous": false,
      "inputs": [
        {
          "indexed": true,
          "internalType": "contract Crowdfund",
          "name": "crowdfund",
          "type": "address"
        }
      ],
      "name": "CrowdfundDeployed",
      "type": "event"
    },
    {
      "anonymous": false,
      "inputs": [
        {
          "indexed": true,
          "internalType": "contract Crowdfund",
          "name": "crowdfund",
          "type": "address"
        }
      ],
      "name": "CrowdfundRemoved",
      "type": "event"
    },
    {
      "anonymous": false,
      "inputs": [
        {
          "indexed": false,
          "internalType": "bool",
          "name": "transfersDisabled",
          "type": "bool"
        },
        {
          "indexed": false,
          "internalType": "uint256",
          "name": "memberCount",
          "type": "uint256"
        },
        {
          "indexed": false,
          "internalType": "uint256",
          "name": "governorCount",
          "type": "uint256"
        },
        {
          "indexed": false,
          "internalType": "uint256",
          "name": "totalSupply",
          "type": "uint256"
        },
        {
          "indexed": false,
          "internalType": "uint256",
          "name": "reserveBalance",
          "type": "uint256"
        }
      ],
      "name": "DetailsChanged",
      "type": "event"
    },
    {
      "anonymous": false,
      "inputs": [
        {
          "indexed": true,
          "internalType": "address",
          "name": "owner",
          "type": "address"
        },
        {
          "indexed": true,
          "internalType": "address",
          "name": "spender",
          "type": "address"
        },
        {
          "indexed": false,
          "internalType": "uint256",
          "name": "value",
          "type": "uint256"
        }
      ],
      "name": "Disapproval",
      "type": "event"
    },
    {
      "anonymous": false,
      "inputs": [
        {
          "indexed": true,
          "internalType": "contract Distribution",
          "name": "distribution",
          "type": "address"
        }
      ],
      "name": "DistributionDeployed",
      "type": "event"
    },
    {
      "anonymous": false,
      "inputs": [
        {
          "indexed": true,
          "internalType": "contract Distribution",
          "name": "distribution",
          "type": "address"
        }
      ],
      "name": "DistributionRemoved",
      "type": "event"
    },
    {
      "anonymous": false,
      "inputs": [
        {
          "indexed": true,
          "internalType": "address",
          "name": "spender",
          "type": "address"
        },
        {
          "indexed": true,
          "internalType": "address",
          "name": "from",
          "type": "address"
        },
        {
          "indexed": true,
          "internalType": "address",
          "name": "to",
          "type": "address"
        },
        {
          "indexed": false,
          "internalType": "uint256",
          "name": "value",
          "type": "uint256"
        },
        {
          "indexed": false,
          "internalType": "string",
          "name": "ref",
          "type": "string"
        }
      ],
      "name": "FastTransfer",
      "type": "event"
    },
    {
      "anonymous": false,
      "inputs": [
        {
          "indexed": true,
          "internalType": "uint256",
          "name": "amount",
          "type": "uint256"
        },
        {
          "indexed": false,
          "internalType": "string",
          "name": "ref",
          "type": "string"
        },
        {
          "indexed": true,
          "internalType": "address",
          "name": "who",
          "type": "address"
        }
      ],
      "name": "Minted",
      "type": "event"
    },
    {
      "anonymous": false,
      "inputs": [
        {
          "indexed": true,
          "internalType": "address",
          "name": "from",
          "type": "address"
        },
        {
          "indexed": true,
          "internalType": "address",
          "name": "to",
          "type": "address"
        },
        {
          "indexed": false,
          "internalType": "uint256",
          "name": "value",
          "type": "uint256"
        }
      ],
      "name": "Transfer",
      "type": "event"
    },
    {
      "inputs": [
        {
          "internalType": "address",
          "name": "governor",
          "type": "address"
        }
      ],
      "name": "detailedGovernor",
      "outputs": [
        {
          "components": [
            {
              "internalType": "address",
              "name": "addr",
              "type": "address"
            },
            {
              "internalType": "uint256",
              "name": "ethBalance",
              "type": "uint256"
            },
            {
              "internalType": "bool",
              "name": "isMember",
              "type": "bool"
            }
          ],
          "internalType": "struct FastFrontendFacet.GovernorDetails",
          "name": "",
          "type": "tuple"
        }
      ],
      "stateMutability": "view",
      "type": "function"
    },
    {
      "inputs": [
        {
          "internalType": "address",
          "name": "member",
          "type": "address"
        }
      ],
      "name": "detailedMember",
      "outputs": [
        {
          "components": [
            {
              "internalType": "address",
              "name": "addr",
              "type": "address"
            },
            {
              "internalType": "uint256",
              "name": "balance",
              "type": "uint256"
            },
            {
              "internalType": "uint256",
              "name": "ethBalance",
              "type": "uint256"
            },
            {
              "internalType": "bool",
              "name": "isGovernor",
              "type": "bool"
            }
          ],
          "internalType": "struct FastFrontendFacet.MemberDetails",
          "name": "",
          "type": "tuple"
        }
      ],
      "stateMutability": "view",
      "type": "function"
    },
    {
      "inputs": [],
      "name": "details",
      "outputs": [
        {
          "components": [
            {
              "internalType": "address",
              "name": "addr",
              "type": "address"
            },
            {
              "internalType": "string",
              "name": "name",
              "type": "string"
            },
            {
              "internalType": "string",
              "name": "symbol",
              "type": "string"
            },
            {
              "internalType": "uint8",
              "name": "decimals",
              "type": "uint8"
            },
            {
              "internalType": "uint256",
              "name": "totalSupply",
              "type": "uint256"
            },
            {
              "internalType": "bool",
              "name": "isSemiPublic",
              "type": "bool"
            },
            {
              "internalType": "bool",
              "name": "hasFixedSupply",
              "type": "bool"
            },
            {
              "internalType": "bool",
              "name": "transfersDisabled",
              "type": "bool"
            },
            {
              "internalType": "uint256",
              "name": "reserveBalance",
              "type": "uint256"
            },
            {
              "internalType": "uint256",
              "name": "memberCount",
              "type": "uint256"
            },
            {
              "internalType": "uint256",
              "name": "governorCount",
              "type": "uint256"
            }
          ],
          "internalType": "struct FastFrontendFacet.Details",
          "name": "",
          "type": "tuple"
        }
      ],
      "stateMutability": "view",
      "type": "function"
    },
    {
      "inputs": [],
      "name": "emitDetailsChanged",
      "outputs": [],
      "stateMutability": "nonpayable",
      "type": "function"
    },
    {
      "inputs": [
        {
          "internalType": "uint256",
          "name": "index",
          "type": "uint256"
        },
        {
          "internalType": "uint256",
          "name": "perPage",
          "type": "uint256"
        }
      ],
      "name": "paginateDetailedGovernors",
      "outputs": [
        {
          "components": [
            {
              "internalType": "address",
              "name": "addr",
              "type": "address"
            },
            {
              "internalType": "uint256",
              "name": "ethBalance",
              "type": "uint256"
            },
            {
              "internalType": "bool",
              "name": "isMember",
              "type": "bool"
            }
          ],
          "internalType": "struct FastFrontendFacet.GovernorDetails[]",
          "name": "",
          "type": "tuple[]"
        },
        {
          "internalType": "uint256",
          "name": "",
          "type": "uint256"
        }
      ],
      "stateMutability": "view",
      "type": "function"
    },
    {
      "inputs": [
        {
          "internalType": "uint256",
          "name": "index",
          "type": "uint256"
        },
        {
          "internalType": "uint256",
          "name": "perPage",
          "type": "uint256"
        }
      ],
      "name": "paginateDetailedMembers",
      "outputs": [
        {
          "components": [
            {
              "internalType": "address",
              "name": "addr",
              "type": "address"
            },
            {
              "internalType": "uint256",
              "name": "balance",
              "type": "uint256"
            },
            {
              "internalType": "uint256",
              "name": "ethBalance",
              "type": "uint256"
            },
            {
              "internalType": "bool",
              "name": "isGovernor",
              "type": "bool"
            }
          ],
          "internalType": "struct FastFrontendFacet.MemberDetails[]",
          "name": "",
          "type": "tuple[]"
        },
        {
          "internalType": "uint256",
          "name": "",
          "type": "uint256"
        }
      ],
      "stateMutability": "view",
      "type": "function"
    }
  ],
  "transactionHash": "0x70990006b104836fadaa9c538b2be2d708aebf12430f40b6f1f4b116b7f3c05b",
  "args": [],
  "numDeployments": 7,
  "solcInputHash": "879a38957a9ba125fbbc93c20460814f",
  "bytecode": "0x608060405234801561001057600080fd5b506110a7806100206000396000f3fe608060405234801561001057600080fd5b50600436106100725760003560e01c806388a915241161005057806388a91524146100bf57806398d55d68146100df5780639f4c440b1461010057600080fd5b80634f2274c014610077578063565974d314610081578063677d9a681461009f575b600080fd5b61007f610121565b005b6100896102c3565b6040516100969190610c3d565b60405180910390f35b6100b26100ad366004610d40565b610625565b6040516100969190610d7d565b6100d26100cd366004610d40565b6106f5565b6040516100969190610db6565b6100f26100ed366004610df9565b6107c8565b604051610096929190610e1b565b61011361010e366004610df9565b6108e9565b604051610096929190610e9b565b30331461015a576040517f12e9ad3300000000000000000000000000000000000000000000000000000000815260040160405180910390fd5b7f80c187ea6f955fd624c41fb7a18011cc87d98c6f4c06d897b59142f65707e706547fd56529bfa3ed57257eed4751494e1d0c0f212cfe38768380e006e3bee06ffb93547fdac4df64cf6992e5f0fa766abc48a6698b638db4d8eeee68133c41fdd4862977547fb098747b87c5c0e2a32eb9b06725e9bad4263809bcda628ceadc1a686bcb826554600080527fb098747b87c5c0e2a32eb9b06725e9bad4263809bcda628ceadc1a686bcb826760209081527f46c1c84a085e09f9e9a4265c25fbada4be722ba2683afd74e0ddd9e11b58aaa9546040805160ff7601000000000000000000000000000000000000000000009098049790971615158752918601949094528481019290925260608401526080830191909152517fb098747b87c5c0e2a32eb9b06725e9bad4263809bcda628ceadc1a686bcb8261917fe00ddc3a7af6d0136209e77fe4d1383f9ccc3689d0a53ffbd2972b36119ef008919081900360a00190a150565b61033f604051806101600160405280600073ffffffffffffffffffffffffffffffffffffffff1681526020016060815260200160608152602001600060ff168152602001600081526020016000151581526020016000151581526020016000151581526020016000815260200160008152602001600081525090565b6040805161016081019091523081527fb098747b87c5c0e2a32eb9b06725e9bad4263809bcda628ceadc1a686bcb826280547f80c187ea6f955fd624c41fb7a18011cc87d98c6f4c06d897b59142f65707e705927fb098747b87c5c0e2a32eb9b06725e9bad4263809bcda628ceadc1a686bcb82619290916020830191906103c690610f26565b80601f01602080910402602001604051908101604052809291908181526020018280546103f290610f26565b801561043f5780601f106104145761010080835404028352916020019161043f565b820191906000526020600020905b81548152906001019060200180831161042257829003601f168201915b5050505050815260200182600201805461045890610f26565b80601f016020809104026020016040519081016040528092919081815260200182805461048490610f26565b80156104d15780601f106104a6576101008083540402835291602001916104d1565b820191906000526020600020905b8154815290600101906020018083116104b457829003601f168201915b5050509183525050600383015460ff9081166020808401919091526004808601546040808601919091526001880154750100000000000000000000000000000000000000000081048516151560608701527401000000000000000000000000000000000000000081048516151560808701527601000000000000000000000000000000000000000000009004909316151560a085015260008080526006870183528390205460c085015282517f11aee380000000000000000000000000000000000000000000000000000000008152925160e09094019330936311aee38093818401939092918290030181865afa1580156105d0573d6000803e3d6000fd5b505050506040513d601f19601f820116820180604052508101906105f49190610f7a565b81527fdac4df64cf6992e5f0fa766abc48a6698b638db4d8eeee68133c41fdd4862977546020909101529392505050565b60408051606081018252600080825260208201819052918101919091526040805160608101825273ffffffffffffffffffffffffffffffffffffffff84168082528031602083015282517fa230c52400000000000000000000000000000000000000000000000000000000815260048101919091529091820190309063a230c52490602401602060405180830381865afa1580156106c7573d6000803e3d6000fd5b505050506040513d601f19601f820116820180604052508101906106eb9190610f93565b1515905292915050565b60408051608081018252600080825260208201819052918101829052606081019190915260405180608001604052808373ffffffffffffffffffffffffffffffffffffffff1681526020016107677fb098747b87c5c0e2a32eb9b06725e9bad4263809bcda628ceadc1a686bcb826190565b73ffffffffffffffffffffffffffffffffffffffff851660008181526006929092016020908152604092839020548452903190830152016106eb7fdac4df64cf6992e5f0fa766abc48a6698b638db4d8eeee68133c41fdd486297685610a33565b6060600080806107f97fdac4df64cf6992e5f0fa766abc48a6698b638db4d8eeee68133c41fdd48629778787610ab1565b915091506000825167ffffffffffffffff81111561081957610819610fb5565b60405190808252806020026020018201604052801561088257816020015b60408051606081018252600080825260208083018290529282015282527fffffffffffffffffffffffffffffffffffffffffffffffffffffffffffffffff9092019101816108375790505b50835190915060005b818110156108da576108b58582815181106108a8576108a8610fe4565b6020026020010151610625565b8382815181106108c7576108c7610fe4565b602090810291909101015260010161088b565b50909791965090945050505050565b606060007fd56529bfa3ed57257eed4751494e1d0c0f212cfe38768380e006e3bee06ffb91818061093b7fd56529bfa3ed57257eed4751494e1d0c0f212cfe38768380e006e3bee06ffb938888610ab1565b915091506000825167ffffffffffffffff81111561095b5761095b610fb5565b6040519080825280602002602001820160405280156109cb57816020015b6040805160808101825260008082526020808301829052928201819052606082015282527fffffffffffffffffffffffffffffffffffffffffffffffffffffffffffffffff9092019101816109795790505b50835190915060005b81811015610a23576109fe8582815181106109f1576109f1610fe4565b60200260200101516106f5565b838281518110610a1057610a10610fe4565b60209081029190910101526001016109d4565b5090989197509095505050505050565b600182015460009015610aa55773ffffffffffffffffffffffffffffffffffffffff82166000818152602085905260409020546001850180549091908110610a7d57610a7d610fe4565b60009182526020909120015473ffffffffffffffffffffffffffffffffffffffff1614610aa8565b60005b90505b92915050565b6060600080848680549050610ac69190611042565b8411610ad25783610adf565b8554610adf908690611042565b905060008167ffffffffffffffff811115610afc57610afc610fb5565b604051908082528060200260200182016040528015610b25578160200160208202803683370190505b50905060005b82811015610bb85787610b3e8289611059565b81548110610b4e57610b4e610fe4565b9060005260206000200160009054906101000a900473ffffffffffffffffffffffffffffffffffffffff16828281518110610b8b57610b8b610fe4565b73ffffffffffffffffffffffffffffffffffffffff90921660209283029190910190910152600101610b2b565b5080610bc48388611059565b935093505050935093915050565b6000815180845260005b81811015610bf857602081850181015186830182015201610bdc565b81811115610c0a576000602083870101525b50601f017fffffffffffffffffffffffffffffffffffffffffffffffffffffffffffffffe0169290920160200192915050565b60208152610c6460208201835173ffffffffffffffffffffffffffffffffffffffff169052565b60006020830151610160806040850152610c82610180850183610bd2565b915060408501517fffffffffffffffffffffffffffffffffffffffffffffffffffffffffffffffe0858403016060860152610cbd8382610bd2565b9250506060850151610cd4608086018260ff169052565b50608085015160a085015260a0850151610cf260c086018215159052565b5060c085015180151560e08601525060e0850151610100610d168187018315159052565b86015161012086810191909152860151610140808701919091529095015193019290925250919050565b600060208284031215610d5257600080fd5b813573ffffffffffffffffffffffffffffffffffffffff81168114610d7657600080fd5b9392505050565b815173ffffffffffffffffffffffffffffffffffffffff1681526020808301519082015260408083015115159082015260608101610aab565b815173ffffffffffffffffffffffffffffffffffffffff168152602080830151908201526040808301519082015260608083015115159082015260808101610aab565b60008060408385031215610e0c57600080fd5b50508035926020909101359150565b60408082528351908201819052600090606090818401906020808801855b83811015610e8857610e78858351805173ffffffffffffffffffffffffffffffffffffffff168252602080820151908301526040908101511515910152565b9385019390820190600101610e39565b5050949094019490945250919392505050565b604080825283519082018190526000906020906060840190828701845b82811015610f1757610f0484835173ffffffffffffffffffffffffffffffffffffffff815116825260208101516020830152604081015160408301526060810151151560608301525050565b6080939093019290840190600101610eb8565b50505092019290925292915050565b600181811c90821680610f3a57607f821691505b60208210811415610f74577f4e487b7100000000000000000000000000000000000000000000000000000000600052602260045260246000fd5b50919050565b600060208284031215610f8c57600080fd5b5051919050565b600060208284031215610fa557600080fd5b81518015158114610d7657600080fd5b7f4e487b7100000000000000000000000000000000000000000000000000000000600052604160045260246000fd5b7f4e487b7100000000000000000000000000000000000000000000000000000000600052603260045260246000fd5b7f4e487b7100000000000000000000000000000000000000000000000000000000600052601160045260246000fd5b60008282101561105457611054611013565b500390565b6000821982111561106c5761106c611013565b50019056fea26469706673582212208a3634b8e26ce69c2d2fcc762f28dc4a4859a0310cda972c407b06163689e7b464736f6c634300080a0033",
  "devdoc": {
    "kind": "dev",
    "methods": {
      "detailedGovernor(address)": {
        "returns": {
          "_0": "GovernorDetails See: `GovernorDetails`."
        }
      },
      "detailedMember(address)": {
        "returns": {
          "_0": "A FAST member's details, see `MemberDetails`."
        }
      },
      "details()": {
        "returns": {
          "_0": "The details for the current FAST, see `Details`."
        }
      }
    },
    "version": 1
  },
  "userdoc": {
    "events": {
      "Approval(address,address,uint256)": {
        "notice": "See `ERC20.Approval`."
      },
      "Burnt(uint256,string,address)": {
        "notice": "Emited whenever an burning happens in a FAST."
      },
      "CrowdfundDeployed(address)": {
        "notice": "Crowdfund related events."
      },
      "DetailsChanged(bool,uint256,uint256,uint256,uint256)": {
        "notice": "This is an event that is fired whenever any of some of the FAST parameters change, so that the frontend can react to it and refresh the general header for that fast as well as the baseball cards in the FASTs list."
      },
      "Disapproval(address,address,uint256)": {
        "notice": "See `ERC20.Disapproval`."
      },
      "DistributionDeployed(address)": {
        "notice": "Distribution related events."
      },
      "FastTransfer(address,address,address,uint256,string)": {
        "notice": "As we augmented the ERC20 standard with a few concepts, we emit our custom events in addition to the ERC20 ones."
      },
      "Minted(uint256,string,address)": {
        "notice": "Emited whenever an issuance happens in a FAST."
      },
      "Transfer(address,address,uint256)": {
        "notice": "See `ERC20.Transfer`."
      }
    },
    "kind": "user",
    "methods": {
      "detailedGovernor(address)": {
        "notice": "Gets detailed governor details."
      },
      "detailedMember(address)": {
        "notice": "Gets detailed member details."
      },
      "details()": {
        "notice": "Gets the details of a FAST."
      },
      "emitDetailsChanged()": {
        "notice": "Called by diamond facets, signals that FAST details may have changed.  Business logic: - Modifiers:   - Requires the caller to be another facet of the diamond. Emits `DetailsChanged`, see `IFastEvents.DetailsChanged`"
      }
    },
    "notice": "A facet dedicated to view / UI only methods. This facet should never hold any method that is not either `pure` or `view`, except to emit events.",
    "version": 1
  },
  "storageLayout": {
    "storage": [],
    "types": null
  }
}