{
  "address": "0x0FE0814C5294B4Ac7CE819c954F51b1e7B632992",
  "abi": [
    {
      "inputs": [
        {
          "internalType": "address",
          "name": "who",
          "type": "address"
        }
      ],
      "name": "RequiresIssuerMembership",
      "type": "error"
    },
    {
      "inputs": [
        {
          "internalType": "address",
          "name": "who",
          "type": "address"
        },
        {
          "internalType": "uint32",
          "name": "privilege",
          "type": "uint32"
        }
      ],
      "name": "RequiresPrivilege",
      "type": "error"
    },
    {
      "anonymous": false,
      "inputs": [
        {
          "indexed": true,
          "internalType": "address",
          "name": "owner",
          "type": "address"
        },
        {
          "indexed": true,
          "internalType": "address",
          "name": "spender",
          "type": "address"
        },
        {
          "indexed": false,
          "internalType": "uint256",
          "name": "value",
          "type": "uint256"
        }
      ],
      "name": "Approval",
      "type": "event"
    },
    {
      "anonymous": false,
      "inputs": [
        {
          "indexed": true,
          "internalType": "uint256",
          "name": "amount",
          "type": "uint256"
        },
        {
          "indexed": false,
          "internalType": "string",
          "name": "ref",
          "type": "string"
        },
        {
          "indexed": true,
          "internalType": "address",
          "name": "who",
          "type": "address"
        }
      ],
      "name": "Burnt",
      "type": "event"
    },
    {
      "anonymous": false,
      "inputs": [
        {
          "indexed": true,
          "internalType": "contract Crowdfund",
          "name": "crowdfund",
          "type": "address"
        }
      ],
      "name": "CrowdfundDeployed",
      "type": "event"
    },
    {
      "anonymous": false,
      "inputs": [
        {
          "indexed": true,
          "internalType": "contract Crowdfund",
          "name": "crowdfund",
          "type": "address"
        }
      ],
      "name": "CrowdfundRemoved",
      "type": "event"
    },
    {
      "anonymous": false,
      "inputs": [
        {
          "indexed": false,
          "internalType": "bool",
          "name": "transfersDisabled",
          "type": "bool"
        },
        {
          "indexed": false,
          "internalType": "uint256",
          "name": "memberCount",
          "type": "uint256"
        },
        {
          "indexed": false,
          "internalType": "uint256",
          "name": "governorCount",
          "type": "uint256"
        },
        {
          "indexed": false,
          "internalType": "uint256",
          "name": "totalSupply",
          "type": "uint256"
        },
        {
          "indexed": false,
          "internalType": "uint256",
          "name": "reserveBalance",
          "type": "uint256"
        }
      ],
      "name": "DetailsChanged",
      "type": "event"
    },
    {
      "anonymous": false,
      "inputs": [
        {
          "indexed": true,
          "internalType": "address",
          "name": "owner",
          "type": "address"
        },
        {
          "indexed": true,
          "internalType": "address",
          "name": "spender",
          "type": "address"
        },
        {
          "indexed": false,
          "internalType": "uint256",
          "name": "value",
          "type": "uint256"
        }
      ],
      "name": "Disapproval",
      "type": "event"
    },
    {
      "anonymous": false,
      "inputs": [
        {
          "indexed": true,
          "internalType": "contract Distribution",
          "name": "distribution",
          "type": "address"
        }
      ],
      "name": "DistributionDeployed",
      "type": "event"
    },
    {
      "anonymous": false,
      "inputs": [
        {
          "indexed": true,
          "internalType": "contract Distribution",
          "name": "distribution",
          "type": "address"
        }
      ],
      "name": "DistributionRemoved",
      "type": "event"
    },
    {
      "anonymous": false,
      "inputs": [
        {
          "indexed": true,
          "internalType": "address",
          "name": "spender",
          "type": "address"
        },
        {
          "indexed": true,
          "internalType": "address",
          "name": "from",
          "type": "address"
        },
        {
          "indexed": true,
          "internalType": "address",
          "name": "to",
          "type": "address"
        },
        {
          "indexed": false,
          "internalType": "uint256",
          "name": "value",
          "type": "uint256"
        },
        {
          "indexed": false,
          "internalType": "string",
          "name": "ref",
          "type": "string"
        }
      ],
      "name": "FastTransfer",
      "type": "event"
    },
    {
      "anonymous": false,
      "inputs": [
        {
          "indexed": true,
          "internalType": "uint256",
          "name": "amount",
          "type": "uint256"
        },
        {
          "indexed": false,
          "internalType": "string",
          "name": "ref",
          "type": "string"
        },
        {
          "indexed": true,
          "internalType": "address",
          "name": "who",
          "type": "address"
        }
      ],
      "name": "Minted",
      "type": "event"
    },
    {
      "anonymous": false,
      "inputs": [
        {
          "indexed": true,
          "internalType": "address",
          "name": "from",
          "type": "address"
        },
        {
          "indexed": true,
          "internalType": "address",
          "name": "to",
          "type": "address"
        },
        {
          "indexed": false,
          "internalType": "uint256",
          "name": "value",
          "type": "uint256"
        }
      ],
      "name": "Transfer",
      "type": "event"
    },
    {
      "inputs": [
        {
          "internalType": "contract IERC20",
          "name": "token",
          "type": "address"
        },
        {
          "internalType": "address",
          "name": "beneficiary",
          "type": "address"
        },
        {
          "internalType": "uint32",
          "name": "basisPointsFee",
          "type": "uint32"
        },
        {
          "internalType": "string",
          "name": "ref",
          "type": "string"
        }
      ],
      "name": "createCrowdfund",
      "outputs": [],
      "stateMutability": "nonpayable",
      "type": "function"
    },
    {
      "inputs": [],
      "name": "crowdfundCount",
      "outputs": [
        {
          "internalType": "uint256",
          "name": "",
          "type": "uint256"
        }
      ],
      "stateMutability": "view",
      "type": "function"
    },
    {
      "inputs": [
        {
          "internalType": "uint256",
          "name": "index",
          "type": "uint256"
        },
        {
          "internalType": "uint256",
          "name": "perPage",
          "type": "uint256"
        }
      ],
      "name": "paginateCrowdfunds",
      "outputs": [
        {
          "internalType": "address[]",
          "name": "",
          "type": "address[]"
        },
        {
          "internalType": "uint256",
          "name": "",
          "type": "uint256"
        }
      ],
      "stateMutability": "view",
      "type": "function"
    },
    {
      "inputs": [
        {
          "internalType": "contract Crowdfund",
          "name": "crowdfund",
          "type": "address"
        }
      ],
      "name": "removeCrowdfund",
      "outputs": [],
      "stateMutability": "nonpayable",
      "type": "function"
    }
  ],
  "transactionHash": "0x8f914df4c210a3460c87f2bba8838334b3c9d9994a3877d986c3c4789a6320f9",
  "args": [],
  "numDeployments": 9,
  "solcInputHash": "e006bd86e19a356980236f884b24a3c1",
  "bytecode": "0x608060405234801561001057600080fd5b50612d41806100206000396000f3fe60806040523480156200001157600080fd5b5060043610620000525760003560e01c80630d98162514620000575780636951c9f414620000875780639ec7d63f14620000a0578063fb29eac814620000b7575b600080fd5b6200006e62000068366004620009a2565b620000e8565b6040516200007e929190620009c5565b60405180910390f35b6200009e6200009836600462000a4b565b62000124565b005b6200009e620000b136600462000a9a565b620001df565b7fc843fbb8f0f5694376d391c1687b800112a6eed97820d8e7a2b82618dd1b69ef546040519081526020016200007e565b60606000620001197fc843fbb8f0f5694376d391c1687b800112a6eed97820d8e7a2b82618dd1b69ef858562000434565b915091509250929050565b6200012f336200056b565b6200016d576040517f1dd41c4d0000000000000000000000000000000000000000000000000000000081523360048201526024015b60405180910390fd5b6200019b7fc843fbb8f0f5694376d391c1687b800112a6eed97820d8e7a2b82618dd1b69ee82600062000630565b60405173ffffffffffffffffffffffffffffffffffffffff8216907fe7831dfc6b3e8bf0d5445cb91d4da033f359d15662fd791d096728a39f4cfc3490600090a250565b60003073ffffffffffffffffffffffffffffffffffffffff1663a63234e06040518163ffffffff1660e01b8152600401602060405180830381865afa1580156200022d573d6000803e3d6000fd5b505050506040513d601f19601f8201168201806040525081019062000253919062000bb9565b6040517f617b0b9d0000000000000000000000000000000000000000000000000000000081523360048201526001602482015290915073ffffffffffffffffffffffffffffffffffffffff82169063617b0b9d90604401602060405180830381865afa158015620002c8573d6000803e3d6000fd5b505050506040513d601f19601f82011682018060405250810190620002ee919062000bd9565b6200032f576040517f1b5ecc940000000000000000000000000000000000000000000000000000000081523360048201526001602482015260440162000164565b6040805160e08101825233815273ffffffffffffffffffffffffffffffffffffffff83811660208301523082840152868116606083015263ffffffff86166080830152871660a082015260c08101849052905160009190620003919062000994565b6200039d919062000c6b565b604051809103906000f080158015620003ba573d6000803e3d6000fd5b509050620003eb7fc843fbb8f0f5694376d391c1687b800112a6eed97820d8e7a2b82618dd1b69ee82600062000819565b60405173ffffffffffffffffffffffffffffffffffffffff8216907faf771b446004a47fb6dd19309b3cd213acf99ed0cb64bdb5011d00e8234c6a5a90600090a2505050505050565b60606000808486805490506200044b919062000d22565b841162000459578362000468565b85546200046890869062000d22565b905060008167ffffffffffffffff81111562000488576200048862000a6b565b604051908082528060200260200182016040528015620004b2578160200160208202803683370190505b50905060005b828110156200054f5787620004ce828962000d3c565b81548110620004e157620004e162000d57565b9060005260206000200160009054906101000a900473ffffffffffffffffffffffffffffffffffffffff1682828151811062000521576200052162000d57565b73ffffffffffffffffffffffffffffffffffffffff90921660209283029190910190910152600101620004b8565b50806200055d838862000d3c565b935093505050935093915050565b60007f80c187ea6f955fd624c41fb7a18011cc87d98c6f4c06d897b59142f65707e705546040517fa230c52400000000000000000000000000000000000000000000000000000000815273ffffffffffffffffffffffffffffffffffffffff8481166004830152620100009092049091169063a230c52490602401602060405180830381865afa15801562000604573d6000803e3d6000fd5b505050506040513d601f19601f820116820180604052508101906200062a919062000bd9565b92915050565b60006200063e848462000913565b90508180156200064c575080155b15620006585750505050565b80620006c1576040517f08c379a000000000000000000000000000000000000000000000000000000000815260206004820152601d60248201527f4164647265737320646f6573206e6f7420657869737420696e20736574000000604482015260640162000164565b60018085018054600092620006d69162000d22565b81548110620006e957620006e962000d57565b600091825260208083209091015473ffffffffffffffffffffffffffffffffffffffff87811684529188905260408084205492909116808452922081905560018701805492935090918391908390811062000748576200074862000d57565b600091825260208083209190910180547fffffffffffffffffffffffff00000000000000000000000000000000000000001673ffffffffffffffffffffffffffffffffffffffff948516179055918716815290879052604081205560018601805480620007b957620007b962000d86565b60008281526020902081017fffffffffffffffffffffffffffffffffffffffffffffffffffffffffffffffff90810180547fffffffffffffffffffffffff0000000000000000000000000000000000000000169055019055505050505050565b600062000827848462000913565b9050818015620008345750805b15620008405750505050565b8015620008aa576040517f08c379a000000000000000000000000000000000000000000000000000000000815260206004820152601660248201527f4164647265737320616c726561647920696e2073657400000000000000000000604482015260640162000164565b50506001808301805473ffffffffffffffffffffffffffffffffffffffff909316600081815260209586526040812085905592840182559082529290200180547fffffffffffffffffffffffff0000000000000000000000000000000000000000169091179055565b6001820154600090156200098a5773ffffffffffffffffffffffffffffffffffffffff8216600081815260208590526040902054600185018054909190811062000961576200096162000d57565b60009182526020909120015473ffffffffffffffffffffffffffffffffffffffff16146200098d565b60005b9392505050565b611f568062000db683390190565b60008060408385031215620009b657600080fd5b50508035926020909101359150565b604080825283519082018190526000906020906060840190828701845b8281101562000a1657815173ffffffffffffffffffffffffffffffffffffffff1684529284019290840190600101620009e2565b50505092019290925292915050565b73ffffffffffffffffffffffffffffffffffffffff8116811462000a4857600080fd5b50565b60006020828403121562000a5e57600080fd5b81356200098d8162000a25565b7f4e487b7100000000000000000000000000000000000000000000000000000000600052604160045260246000fd5b6000806000806080858703121562000ab157600080fd5b843562000abe8162000a25565b9350602085013562000ad08162000a25565b9250604085013563ffffffff8116811462000aea57600080fd5b9150606085013567ffffffffffffffff8082111562000b0857600080fd5b818701915087601f83011262000b1d57600080fd5b81358181111562000b325762000b3262000a6b565b604051601f82017fffffffffffffffffffffffffffffffffffffffffffffffffffffffffffffffe0908116603f0116810190838211818310171562000b7b5762000b7b62000a6b565b816040528281528a602084870101111562000b9557600080fd5b82602086016020830137600060208483010152809550505050505092959194509250565b60006020828403121562000bcc57600080fd5b81516200098d8162000a25565b60006020828403121562000bec57600080fd5b815180151581146200098d57600080fd5b6000815180845260005b8181101562000c255760208185018101518683018201520162000c07565b8181111562000c38576000602083870101525b50601f017fffffffffffffffffffffffffffffffffffffffffffffffffffffffffffffffe0169290920160200192915050565b60208152600073ffffffffffffffffffffffffffffffffffffffff80845116602084015280602085015116604084015280604085015116606084015280606085015116608084015263ffffffff60808501511660a08401528060a08501511660c08401525060c083015160e08084015262000ceb61010084018262000bfd565b949350505050565b7f4e487b7100000000000000000000000000000000000000000000000000000000600052601160045260246000fd5b60008282101562000d375762000d3762000cf3565b500390565b6000821982111562000d525762000d5262000cf3565b500190565b7f4e487b7100000000000000000000000000000000000000000000000000000000600052603260045260246000fd5b7f4e487b7100000000000000000000000000000000000000000000000000000000600052603160045260246000fdfe60806040523480156200001157600080fd5b5060405162001f5638038062001f5683398101604081905262000034916200041b565b8051600080546001600160a01b03199081166001600160a01b03938416178255602080850151600180548416918616919091179055604085015160028054841691861691909117905560608501516003805460808801519287166001600160c01b031990911617600160a01b63ffffffff9093169290920291909117905560a085015160048054909316941693909317905560c083015180518493620000e0926005929101906200023a565b50508151620000f09150620001c2565b62000121578051604051635c6338cf60e11b81526001600160a01b0390911660048201526024015b60405180910390fd5b60608101516200013190620001c2565b62000161576060810151604051635c6338cf60e11b81526001600160a01b03909116600482015260240162000118565b600354612710600160a01b90910463ffffffff161115620001b7576040516319cbe44b60e01b815260206004820152600e60248201526d6261736973506f696e747346656560901b604482015260640162000118565b504360075562000569565b60025460405163288c314960e21b81526001600160a01b038381166004830152600092169063a230c52490602401602060405180830381865afa1580156200020e573d6000803e3d6000fd5b505050506040513d601f19601f8201168201806040525081019062000234919062000501565b92915050565b82805462000248906200052c565b90600052602060002090601f0160209004810192826200026c5760008555620002b7565b82601f106200028757805160ff1916838001178555620002b7565b82800160010185558215620002b7579182015b82811115620002b75782518255916020019190600101906200029a565b50620002c5929150620002c9565b5090565b5b80821115620002c55760008155600101620002ca565b634e487b7160e01b600052604160045260246000fd5b60405160e081016001600160401b03811182821017156200031b576200031b620002e0565b60405290565b604051601f8201601f191681016001600160401b03811182821017156200034c576200034c620002e0565b604052919050565b80516001600160a01b03811681146200036c57600080fd5b919050565b805163ffffffff811681146200036c57600080fd5b600082601f8301126200039857600080fd5b81516001600160401b03811115620003b457620003b4620002e0565b6020620003ca601f8301601f1916820162000321565b8281528582848701011115620003df57600080fd5b60005b83811015620003ff578581018301518282018401528201620003e2565b83811115620004115760008385840101525b5095945050505050565b6000602082840312156200042e57600080fd5b81516001600160401b03808211156200044657600080fd5b9083019060e082860312156200045b57600080fd5b62000465620002f6565b620004708362000354565b8152620004806020840162000354565b6020820152620004936040840162000354565b6040820152620004a66060840162000354565b6060820152620004b96080840162000371565b6080820152620004cc60a0840162000354565b60a082015260c083015182811115620004e457600080fd5b620004f28782860162000386565b60c08301525095945050505050565b6000602082840312156200051457600080fd5b815180151581146200052557600080fd5b9392505050565b600181811c908216806200054157607f821691505b602082108114156200056357634e487b7160e01b600052602260045260246000fd5b50919050565b6119dd80620005796000396000f3fe608060405234801561001057600080fd5b50600436106100f55760003560e01c806384bcefd411610097578063c033a49011610066578063c033a490146101cf578063cbfb745814610202578063fa89401a14610217578063ffa1ad741461022a57600080fd5b806384bcefd4146101785780638af42bd21461018157806392d61fe314610194578063b1c9fe6e146101b557600080fd5b8063565974d3116100d3578063565974d31461013e57806363ebeac61461015357806369e154041461015d5780637326c9c01461016557600080fd5b806317634514146100fa57806320fe99fe14610116578063343576f51461011e575b600080fd5b61010360075481565b6040519081526020015b60405180910390f35b600a54610103565b61010361012c36600461153a565b600b6020526000908152604090205481565b610146610245565b60405161010d91906116b6565b61015b61043e565b005b6101036105d3565b61015b61017336600461174a565b61060d565b61010360085481565b61015b61018f366004611774565b61095e565b6101a76101a2366004611791565b610ce5565b60405161010d9291906117b3565b6006546101c29060ff1681565b60405161010d9190611811565b6101f26101dd36600461153a565b600c6020526000908152604090205460ff1681565b604051901515815260200161010d565b61020a610d00565b60405161010d919061181f565b61015b61022536600461153a565b610e4f565b610232600281565b60405161ffff909116815260200161010d565b6102c4604080516101008101825260008082526020808301829052835160e08101855282815290810182905280840182905260608082018390526080820183905260a082019290925260c08101919091529091820190815260200160008152602001600081526020016000815260200160008152602001600081525090565b604080516101008101825230815260026020808301829052835160e0810185526000805473ffffffffffffffffffffffffffffffffffffffff90811683526001548116938301939093529254821681860152600354808316606083015274010000000000000000000000000000000000000000900463ffffffff16608082015260045490911660a082015260058054939485019391929160c08401919061036a90611832565b80601f016020809104026020016040519081016040528092919081815260200182805461039690611832565b80156103e35780601f106103b8576101008083540402835291602001916103e3565b820191906000526020600020905b8154815290600101906020018083116103c657829003601f168201915b50505091909252505050815260065460209091019060ff16600381111561040c5761040c61164c565b8152602001600754815260200160085481526020016104296105d3565b8152602001610437600a5490565b9052919050565b60065460009060ff1660038111156104585761045861164c565b81600381111561046a5761046a61164c565b146104a1576040517f9a36fd9c00000000000000000000000000000000000000000000000000000000815260040160405180910390fd5b6001546040517fa230c52400000000000000000000000000000000000000000000000000000000815233600482015273ffffffffffffffffffffffffffffffffffffffff9091169063a230c52490602401602060405180830381865afa15801561050f573d6000803e3d6000fd5b505050506040513d601f19601f820116820180604052508101906105339190611886565b610569576040517f5353280000000000000000000000000000000000000000000000000000000000815260040160405180910390fd5b600680547f55bc76655fa95a7bc9068ab071cd51430123d180c791be8584b21c98e33c8aa5916001917fffffffffffffffffffffffffffffffffffffffffffffffffffffffffffffff001682805b021790556040516105c89190611811565b60405180910390a150565b6008546003546000916106089174010000000000000000000000000000000000000000900463ffffffff166127106001611087565b905090565b60065460019060ff1660038111156106275761062761164c565b8160038111156106395761063961164c565b14610670576040517f9a36fd9c00000000000000000000000000000000000000000000000000000000815260040160405180910390fd5b610679336110e4565b6106af576040517f46b83e9600000000000000000000000000000000000000000000000000000000815260040160405180910390fd5b8161071b576040517f19cbe44b00000000000000000000000000000000000000000000000000000000815260206004820152600660248201527f616d6f756e74000000000000000000000000000000000000000000000000000060448201526064015b60405180910390fd5b600480546040517fdd62ed3e000000000000000000000000000000000000000000000000000000008152339281019290925230602483015260009173ffffffffffffffffffffffffffffffffffffffff9091169063dd62ed3e90604401602060405180830381865afa158015610795573d6000803e3d6000fd5b505050506040513d601f19601f820116820180604052508101906107b991906118a3565b905082811015610802576107cd81846118eb565b6040517fcb78cce200000000000000000000000000000000000000000000000000000000815260040161071291815260200190565b61080f600933600161117f565b336000908152600b60205260408120805485929061082e908490611902565b9250508190555082600860008282546108479190611902565b9091555050600480546040517f23b872dd00000000000000000000000000000000000000000000000000000000815233928101929092523060248301526044820185905273ffffffffffffffffffffffffffffffffffffffff16906323b872dd906064016020604051808303816000875af11580156108ca573d6000803e3d6000fd5b505050506040513d601f19601f820116820180604052508101906108ee9190611886565b610924576040517f65edbc9100000000000000000000000000000000000000000000000000000000815260040160405180910390fd5b60405183815233907f5e91ea8ea1c46300eb761859be01d7b16d44389ef91e03a163a87413cbf55b959060200160405180910390a2505050565b6001546040517fa230c52400000000000000000000000000000000000000000000000000000000815233600482015273ffffffffffffffffffffffffffffffffffffffff9091169063a230c52490602401602060405180830381865afa1580156109cc573d6000803e3d6000fd5b505050506040513d601f19601f820116820180604052508101906109f09190611886565b610a26576040517f5353280000000000000000000000000000000000000000000000000000000000815260040160405180910390fd5b8015610c7b576000610a366105d3565b90508015610b1557600480546001546040517fa9059cbb00000000000000000000000000000000000000000000000000000000815273ffffffffffffffffffffffffffffffffffffffff9182169381019390935260248301849052169063a9059cbb906044016020604051808303816000875af1158015610abb573d6000803e3d6000fd5b505050506040513d601f19601f82011682018060405250810190610adf9190611886565b610b15576040517f65edbc9100000000000000000000000000000000000000000000000000000000815260040160405180910390fd5b600081600854610b2591906118eb565b90508015610c7857600354610b4f9073ffffffffffffffffffffffffffffffffffffffff166110e4565b610ba1576003546040517fb8c6719e00000000000000000000000000000000000000000000000000000000815273ffffffffffffffffffffffffffffffffffffffff9091166004820152602401610712565b600480546003546040517fa9059cbb00000000000000000000000000000000000000000000000000000000815273ffffffffffffffffffffffffffffffffffffffff9182169381019390935260248301849052169063a9059cbb906044016020604051808303816000875af1158015610c1e573d6000803e3d6000fd5b505050506040513d601f19601f82011682018060405250810190610c429190611886565b610c78576040517f65edbc9100000000000000000000000000000000000000000000000000000000815260040160405180910390fd5b50505b7f55bc76655fa95a7bc9068ab071cd51430123d180c791be8584b21c98e33c8aa581610ca8576003610cab565b60025b600680547fffffffffffffffffffffffffffffffffffffffffffffffffffffffffffffff001660018360038111156105b7576105b761164c565b60606000610cf5600a8585611273565b915091509250929050565b6040805160e08101825260008082526020820181905291810182905260608082018390526080820183905260a082019290925260c08101919091526040805160e0810182526000805473ffffffffffffffffffffffffffffffffffffffff908116835260015481166020840152600254811693830193909352600354808416606084015274010000000000000000000000000000000000000000900463ffffffff16608083015260045490921660a08201526005805491929160c084019190610dc890611832565b80601f0160208091040260200160405190810160405280929190818152602001828054610df490611832565b8015610e415780601f10610e1657610100808354040283529160200191610e41565b820191906000526020600020905b815481529060010190602001808311610e2457829003601f168201915b505050505081525050905090565b60065460039060ff1681811115610e6857610e6861164c565b816003811115610e7a57610e7a61164c565b14610eb1576040517f9a36fd9c00000000000000000000000000000000000000000000000000000000815260040160405180910390fd5b610ebc600983611394565b610f0a576040517f7dfd2ced00000000000000000000000000000000000000000000000000000000815273ffffffffffffffffffffffffffffffffffffffff83166004820152602401610712565b73ffffffffffffffffffffffffffffffffffffffff82166000908152600c602052604090205460ff1615610f6a576040517f357d0cc400000000000000000000000000000000000000000000000000000000815260040160405180910390fd5b73ffffffffffffffffffffffffffffffffffffffff8281166000818152600c6020908152604080832080547fffffffffffffffffffffffffffffffffffffffffffffffffffffffffffffff0016600117905560048054600b909352928190205490517fa9059cbb00000000000000000000000000000000000000000000000000000000815292830193909352602482019290925291169063a9059cbb906044016020604051808303816000875af1158015611029573d6000803e3d6000fd5b505050506040513d601f19601f8201168201806040525081019061104d9190611886565b611083576040517f65edbc9100000000000000000000000000000000000000000000000000000000815260040160405180910390fd5b5050565b600080611095868686611410565b905060018360028111156110ab576110ab61164c565b1480156110c85750600084806110c3576110c361191a565b868809115b156110db576110d8600182611902565b90505b95945050505050565b6002546040517fa230c52400000000000000000000000000000000000000000000000000000000815273ffffffffffffffffffffffffffffffffffffffff8381166004830152600092169063a230c52490602401602060405180830381865afa158015611155573d6000803e3d6000fd5b505050506040513d601f19601f820116820180604052508101906111799190611886565b92915050565b600061118b8484611394565b90508180156111975750805b156111a25750505050565b801561120a576040517f08c379a000000000000000000000000000000000000000000000000000000000815260206004820152601660248201527f4164647265737320616c726561647920696e20736574000000000000000000006044820152606401610712565b50506001808301805473ffffffffffffffffffffffffffffffffffffffff909316600081815260209586526040812085905592840182559082529290200180547fffffffffffffffffffffffff0000000000000000000000000000000000000000169091179055565b606060008084868054905061128891906118eb565b841161129457836112a1565b85546112a19086906118eb565b905060008167ffffffffffffffff8111156112be576112be611949565b6040519080825280602002602001820160405280156112e7578160200160208202803683370190505b50905060005b8281101561137a57876113008289611902565b8154811061131057611310611978565b9060005260206000200160009054906101000a900473ffffffffffffffffffffffffffffffffffffffff1682828151811061134d5761134d611978565b73ffffffffffffffffffffffffffffffffffffffff909216602092830291909101909101526001016112ed565b50806113868388611902565b935093505050935093915050565b6001820154600090156114065773ffffffffffffffffffffffffffffffffffffffff821660008181526020859052604090205460018501805490919081106113de576113de611978565b60009182526020909120015473ffffffffffffffffffffffffffffffffffffffff1614611409565b60005b9392505050565b600080807fffffffffffffffffffffffffffffffffffffffffffffffffffffffffffffffff85870985870292508281108382030391505080600014156114695783828161145f5761145f61191a565b0492505050611409565b8084116114d2576040517f08c379a000000000000000000000000000000000000000000000000000000000815260206004820152601560248201527f4d6174683a206d756c446976206f766572666c6f7700000000000000000000006044820152606401610712565b600084868809600260036001881981018916988990049182028318808302840302808302840302808302840302808302840302808302840302918202909203026000889003889004909101858311909403939093029303949094049190911702949350505050565b60006020828403121561154c57600080fd5b813573ffffffffffffffffffffffffffffffffffffffff8116811461140957600080fd5b600073ffffffffffffffffffffffffffffffffffffffff80835116845260208181850151168186015281604085015116604086015281606085015116606086015263ffffffff60808501511660808601528160a08501511660a086015260c0840151915060e060c086015281518060e087015260005b8181101561160357838101830151878201610100015282016115e6565b8181111561161657600061010083890101525b50601f017fffffffffffffffffffffffffffffffffffffffffffffffffffffffffffffffe0169490940161010001949350505050565b7f4e487b7100000000000000000000000000000000000000000000000000000000600052602160045260246000fd5b600481106116b2577f4e487b7100000000000000000000000000000000000000000000000000000000600052602160045260246000fd5b9052565b6020815273ffffffffffffffffffffffffffffffffffffffff825116602082015261ffff602083015116604082015260006040830151610100806060850152611703610120850183611570565b91506060850151611717608086018261167b565b50608085015160a085015260a085015160c085015260c085015160e085015260e085015181850152508091505092915050565b60006020828403121561175c57600080fd5b5035919050565b801515811461177157600080fd5b50565b60006020828403121561178657600080fd5b813561140981611763565b600080604083850312156117a457600080fd5b50508035926020909101359150565b604080825283519082018190526000906020906060840190828701845b8281101561180257815173ffffffffffffffffffffffffffffffffffffffff16845292840192908401906001016117d0565b50505092019290925292915050565b60208101611179828461167b565b6020815260006114096020830184611570565b600181811c9082168061184657607f821691505b60208210811415611880577f4e487b7100000000000000000000000000000000000000000000000000000000600052602260045260246000fd5b50919050565b60006020828403121561189857600080fd5b815161140981611763565b6000602082840312156118b557600080fd5b5051919050565b7f4e487b7100000000000000000000000000000000000000000000000000000000600052601160045260246000fd5b6000828210156118fd576118fd6118bc565b500390565b60008219821115611915576119156118bc565b500190565b7f4e487b7100000000000000000000000000000000000000000000000000000000600052601260045260246000fd5b7f4e487b7100000000000000000000000000000000000000000000000000000000600052604160045260246000fd5b7f4e487b7100000000000000000000000000000000000000000000000000000000600052603260045260246000fdfea2646970667358221220cfcecf199852db4e39bb39dd0df99f475c5abdf958dd4be6b767f805e1c908b664736f6c634300080a0033a2646970667358221220e88056bd40abe40ccb4e11876575aed513802a76ae85c5a99dc804fd0774c57b64736f6c634300080a0033",
  "devdoc": {
    "kind": "dev",
    "methods": {
      "createCrowdfund(address,address,uint32,string)": {
        "params": {
          "token": "is the address of the ERC20 token that should be collected."
        }
      },
      "crowdfundCount()": {
        "returns": {
          "_0": "An `uint256` for the count."
        }
      },
      "paginateCrowdfunds(uint256,uint256)": {
        "params": {
          "index": "is the offset at which the pagination operation should start.",
          "perPage": "is how many items should be returned."
        },
        "returns": {
          "_0": "An `(address[], uint256)` tuple, which first item is the list of addresses and the second item a cursor to the next page."
        }
      },
      "removeCrowdfund(address)": {
        "params": {
          "crowdfund": "the address of the CrowdFund contract to remove."
        }
      }
    },
    "title": "The Fast Smart Contract.",
    "version": 1
  },
  "userdoc": {
    "errors": {
      "RequiresPrivilege(address,uint32)": [
        {
          "notice": "Happens when there are insufficient funds somewhere."
        }
      ]
    },
    "events": {
      "Approval(address,address,uint256)": {
        "notice": "See `ERC20.Approval`."
      },
      "Burnt(uint256,string,address)": {
        "notice": "Emited whenever an burning happens in a FAST."
      },
      "CrowdfundDeployed(address)": {
        "notice": "Crowdfund related events."
      },
      "DetailsChanged(bool,uint256,uint256,uint256,uint256)": {
        "notice": "This is an event that is fired whenever any of some of the FAST parameters change, so that the frontend can react to it and refresh the general header for that fast as well as the baseball cards in the FASTs list."
      },
      "Disapproval(address,address,uint256)": {
        "notice": "See `ERC20.Disapproval`."
      },
      "DistributionDeployed(address)": {
        "notice": "Distribution related events."
      },
      "FastTransfer(address,address,address,uint256,string)": {
        "notice": "As we augmented the ERC20 standard with a few concepts, we emit our custom events in addition to the ERC20 ones."
      },
      "Minted(uint256,string,address)": {
        "notice": "Emited whenever an issuance happens in a FAST."
      },
      "Transfer(address,address,uint256)": {
        "notice": "See `ERC20.Transfer`."
      }
    },
    "kind": "user",
    "methods": {
      "createCrowdfund(address,address,uint32,string)": {
        "notice": "Creates a crowdfund contract."
      },
      "crowdfundCount()": {
        "notice": "Retrieves the number of crowdfunds ever deployed for this FAST."
      },
      "paginateCrowdfunds(uint256,uint256)": {
        "notice": "Queries pages of crowdfunds based on a start index and a page size."
      },
      "removeCrowdfund(address)": {
        "notice": "Removes a CrowdFund contract from this FAST."
      }
    },
    "notice": "The Fast Crowdfunds facet is in charge of deploying and keeping track of crowdfunds.",
    "version": 1
  },
  "storageLayout": {
    "storage": [],
    "types": null
  }
}