{
  "address": "0xBe15ce5c27E389de201dB78238859Bd0286e6781",
  "abi": [
    {
      "inputs": [],
      "name": "RequiresFastContractCaller",
      "type": "error"
    },
    {
      "anonymous": false,
      "inputs": [
        {
          "indexed": true,
          "internalType": "address",
          "name": "member",
          "type": "address"
        }
      ],
      "name": "MemberActivated",
      "type": "event"
    },
    {
      "anonymous": false,
      "inputs": [
        {
          "indexed": true,
          "internalType": "address",
          "name": "member",
          "type": "address"
        }
      ],
      "name": "MemberDeactivated",
      "type": "event"
    },
    {
      "inputs": [
        {
          "internalType": "address",
          "name": "account",
          "type": "address"
        },
        {
          "internalType": "uint256",
          "name": "balance",
          "type": "uint256"
        }
      ],
      "name": "fastBalanceChanged",
      "outputs": [],
      "stateMutability": "nonpayable",
      "type": "function"
    },
    {
      "inputs": [
        {
          "internalType": "address",
          "name": "account",
          "type": "address"
        }
      ],
      "name": "holdings",
      "outputs": [
        {
          "internalType": "address[]",
          "name": "",
          "type": "address[]"
        }
      ],
      "stateMutability": "view",
      "type": "function"
    }
  ],
  "transactionHash": "0x1e3c19064a9f0a454f70d33fc389605bcdc56483d983e3803aebd4830de4b25b",
  "args": [],
  "numDeployments": 6,
  "solcInputHash": "37313457d76a7557719572694508609d",
  "bytecode": "0x608060405234801561001057600080fd5b50610870806100206000396000f3fe608060405234801561001057600080fd5b50600436106100365760003560e01c8063c2a11fb31461003b578063dd3ced6314610050575b600080fd5b61004e6100493660046106dd565b610079565b005b61006361005e366004610707565b61028f565b6040516100709190610722565b60405180910390f35b73ffffffffffffffffffffffffffffffffffffffff8216610098575050565b7fb59ec141376cee83f618e10e881bbb4789cdeee27e0d441a8c37ead3cb8b93c1546040517f41d7c02d0000000000000000000000000000000000000000000000000000000081523360048201526201000090910473ffffffffffffffffffffffffffffffffffffffff16906341d7c02d90602401602060405180830381865afa15801561012a573d6000803e3d6000fd5b505050506040513d601f19601f8201168201806040525081019061014e919061077c565b610184576040517f05d0349500000000000000000000000000000000000000000000000000000000815260040160405180910390fd5b7fecf50453542504034bd40d376fb1408ada3025f2fe86ca1b9b4b1440b8d4a2f481158015906101e2575073ffffffffffffffffffffffffffffffffffffffff8316600090815260018201602052604090206101e09033610367565b155b1561021e5773ffffffffffffffffffffffffffffffffffffffff8316600090815260018201602052604081206102199133906103e3565b505050565b81158015610258575073ffffffffffffffffffffffffffffffffffffffff8316600090815260018201602052604090206102589033610367565b156102195773ffffffffffffffffffffffffffffffffffffffff8316600090815260018201602052604081206102199133906104dc565b73ffffffffffffffffffffffffffffffffffffffff811660009081527fecf50453542504034bd40d376fb1408ada3025f2fe86ca1b9b4b1440b8d4a2f5602090815260409182902060010180548351818402810184019094528084526060937fecf50453542504034bd40d376fb1408ada3025f2fe86ca1b9b4b1440b8d4a2f4939092919083018282801561035a57602002820191906000526020600020905b815473ffffffffffffffffffffffffffffffffffffffff16815260019091019060200180831161032f575b5050505050915050919050565b6001820154600090156103d95773ffffffffffffffffffffffffffffffffffffffff821660008181526020859052604090205460018501805490919081106103b1576103b161079e565b60009182526020909120015473ffffffffffffffffffffffffffffffffffffffff16146103dc565b60005b9392505050565b60006103ef8484610367565b90508180156103fb5750805b156104065750505050565b8015610473576040517f08c379a000000000000000000000000000000000000000000000000000000000815260206004820152601660248201527f4164647265737320616c726561647920696e207365740000000000000000000060448201526064015b60405180910390fd5b50506001808301805473ffffffffffffffffffffffffffffffffffffffff909316600081815260209586526040812085905592840182559082529290200180547fffffffffffffffffffffffff0000000000000000000000000000000000000000169091179055565b60006104e88484610367565b90508180156104f5575080155b156105005750505050565b80610567576040517f08c379a000000000000000000000000000000000000000000000000000000000815260206004820152601d60248201527f4164647265737320646f6573206e6f7420657869737420696e20736574000000604482015260640161046a565b6001808501805460009261057a916107cd565b8154811061058a5761058a61079e565b600091825260208083209091015473ffffffffffffffffffffffffffffffffffffffff8781168452918890526040808420549290911680845292208190556001870180549293509091839190839081106105e6576105e661079e565b600091825260208083209190910180547fffffffffffffffffffffffff00000000000000000000000000000000000000001673ffffffffffffffffffffffffffffffffffffffff9485161790559187168152908790526040812055600186018054806106545761065461080b565b60008281526020902081017fffffffffffffffffffffffffffffffffffffffffffffffffffffffffffffffff90810180547fffffffffffffffffffffffff0000000000000000000000000000000000000000169055019055505050505050565b803573ffffffffffffffffffffffffffffffffffffffff811681146106d857600080fd5b919050565b600080604083850312156106f057600080fd5b6106f9836106b4565b946020939093013593505050565b60006020828403121561071957600080fd5b6103dc826106b4565b6020808252825182820181905260009190848201906040850190845b8181101561077057835173ffffffffffffffffffffffffffffffffffffffff168352928401929184019160010161073e565b50909695505050505050565b60006020828403121561078e57600080fd5b815180151581146103dc57600080fd5b7f4e487b7100000000000000000000000000000000000000000000000000000000600052603260045260246000fd5b600082821015610806577f4e487b7100000000000000000000000000000000000000000000000000000000600052601160045260246000fd5b500390565b7f4e487b7100000000000000000000000000000000000000000000000000000000600052603160045260246000fdfea26469706673582212203f139ccbc4df8513d63db36c60994e70678d25311a8c11fd65df0ab1853f80e264736f6c634300080a0033",
  "devdoc": {
    "details": "The Marketplace FAST balances facet.",
    "kind": "dev",
    "methods": {
      "fastBalanceChanged(address,uint256)": {
        "details": "The callback used when a balance changes on a FAST."
      },
      "holdings(address)": {
        "details": "A way to get a list of FASTs for an account.",
        "returns": {
          "_0": "list of FAST addresses."
        }
      }
    },
    "version": 1
  },
  "userdoc": {
    "kind": "user",
    "methods": {},
    "version": 1
  },
  "storageLayout": {
    "storage": [],
    "types": null
  }
}