{
  "address": "0xED5e562aa5fEB2823250571DD0A97891E2b8c6Ee",
  "abi": [
    {
      "anonymous": false,
      "inputs": [
        {
          "indexed": true,
          "internalType": "address",
          "name": "member",
          "type": "address"
        }
      ],
      "name": "MemberActivated",
      "type": "event"
    },
    {
      "anonymous": false,
      "inputs": [
        {
          "indexed": true,
          "internalType": "address",
          "name": "member",
          "type": "address"
        }
      ],
      "name": "MemberAdded",
      "type": "event"
    },
    {
      "anonymous": false,
      "inputs": [
        {
          "indexed": true,
          "internalType": "address",
          "name": "member",
          "type": "address"
        }
      ],
      "name": "MemberDeactivated",
      "type": "event"
    },
    {
      "anonymous": false,
      "inputs": [
        {
          "indexed": true,
          "internalType": "address",
          "name": "member",
          "type": "address"
        }
      ],
      "name": "MemberRemoved",
      "type": "event"
    },
    {
      "inputs": [
        {
          "internalType": "address",
          "name": "member",
          "type": "address"
        }
      ],
      "name": "activateMember",
      "outputs": [],
      "stateMutability": "nonpayable",
      "type": "function"
    },
    {
      "inputs": [
        {
          "internalType": "address payable",
          "name": "member",
          "type": "address"
        }
      ],
      "name": "addMember",
      "outputs": [],
      "stateMutability": "nonpayable",
      "type": "function"
    },
    {
      "inputs": [
        {
          "internalType": "address payable",
          "name": "member",
          "type": "address"
        }
      ],
      "name": "deactivateMember",
      "outputs": [],
      "stateMutability": "nonpayable",
      "type": "function"
    },
    {
      "inputs": [
        {
          "internalType": "address",
          "name": "member",
          "type": "address"
        },
        {
          "internalType": "uint256",
          "name": "cursor",
          "type": "uint256"
        },
        {
          "internalType": "uint256",
          "name": "perPage",
          "type": "uint256"
        }
      ],
      "name": "fastMemberships",
      "outputs": [
        {
          "internalType": "address[]",
          "name": "",
          "type": "address[]"
        },
        {
          "internalType": "uint256",
          "name": "",
          "type": "uint256"
        }
      ],
      "stateMutability": "view",
      "type": "function"
    },
    {
      "inputs": [
        {
          "internalType": "address",
          "name": "candidate",
          "type": "address"
        }
      ],
      "name": "isMember",
      "outputs": [
        {
          "internalType": "bool",
          "name": "",
          "type": "bool"
        }
      ],
      "stateMutability": "view",
      "type": "function"
    },
    {
      "inputs": [
        {
          "internalType": "address",
          "name": "member",
          "type": "address"
        }
      ],
      "name": "isMemberActive",
      "outputs": [
        {
          "internalType": "bool",
          "name": "",
          "type": "bool"
        }
      ],
      "stateMutability": "view",
      "type": "function"
    },
    {
      "inputs": [
        {
          "internalType": "address",
          "name": "member",
          "type": "address"
        }
      ],
      "name": "memberAddedToFast",
      "outputs": [],
      "stateMutability": "nonpayable",
      "type": "function"
    },
    {
      "inputs": [],
      "name": "memberCount",
      "outputs": [
        {
          "internalType": "uint256",
          "name": "",
          "type": "uint256"
        }
      ],
      "stateMutability": "view",
      "type": "function"
    },
    {
      "inputs": [
        {
          "internalType": "address",
          "name": "member",
          "type": "address"
        }
      ],
      "name": "memberRemovedFromFast",
      "outputs": [],
      "stateMutability": "nonpayable",
      "type": "function"
    },
    {
      "inputs": [
        {
          "internalType": "uint256",
          "name": "cursor",
          "type": "uint256"
        },
        {
          "internalType": "uint256",
          "name": "perPage",
          "type": "uint256"
        }
      ],
      "name": "paginateMembers",
      "outputs": [
        {
          "internalType": "address[]",
          "name": "",
          "type": "address[]"
        },
        {
          "internalType": "uint256",
          "name": "",
          "type": "uint256"
        }
      ],
      "stateMutability": "view",
      "type": "function"
    },
    {
      "inputs": [
        {
          "internalType": "address",
          "name": "member",
          "type": "address"
        }
      ],
      "name": "removeMember",
      "outputs": [],
      "stateMutability": "nonpayable",
      "type": "function"
    }
  ],
  "transactionHash": "0xfd4a6600d73f26e7e5b5f874877b6077777b44ad6342d50c17d6384f53a97c99",
  "args": [],
  "numDeployments": 3,
  "solcInputHash": "317f6c89c95482d958ebb47efbbf9a77",
  "bytecode": "0x608060405234801561001057600080fd5b50611e23806100206000396000f3fe608060405234801561001057600080fd5b50600436106100a95760003560e01c80638f7fba5b116100715780638f7fba5b14610150578063a230c52414610181578063af827ff7146101b1578063c6549ba4146101cd578063ca6d56dc146101fe578063d4f3476d1461021a576100a9565b80630b1ca49a146100ae57806311aee380146100ca5780631b09a281146100e8578063673176471461010457806378ab262e14610134575b600080fd5b6100c860048036038101906100c39190611784565b610236565b005b6100d2610474565b6040516100df9190611aad565b60405180910390f35b61010260048036038101906100fd9190611784565b61048d565b005b61011e60048036038101906101199190611784565b61061f565b60405161012b9190611a30565b60405180910390f35b61014e60048036038101906101499190611784565b610646565b005b61016a600480360381019061016591906117d6565b610954565b604051610178929190611a00565b60405180910390f35b61019b60048036038101906101969190611784565b6109b9565b6040516101a89190611a30565b60405180910390f35b6101cb60048036038101906101c69190611784565b6109df565b005b6101e760048036038101906101e2919061184e565b610b71565b6040516101f5929190611a00565b60405180910390f35b610218600480360381019061021391906117ad565b610b98565b005b610234600480360381019061022f91906117ad565b610d2a565b005b61023e611054565b60000160029054906101000a900473ffffffffffffffffffffffffffffffffffffffff1673ffffffffffffffffffffffffffffffffffffffff1663a230c524336040518263ffffffff1660e01b815260040161029a91906119ca565b60206040518083038186803b1580156102b257600080fd5b505afa1580156102c6573d6000803e3d6000fd5b505050506040513d601f19601f820116820180604052508101906102ea9190611825565b6040518060400160405280601781526020017f526571756972657320535043206d656d6265727368697000000000000000000081525090610361576040517f08c379a00000000000000000000000000000000000000000000000000000000081526004016103589190611a4b565b60405180910390fd5b50600061036c61107c565b905060008160030160008473ffffffffffffffffffffffffffffffffffffffff1673ffffffffffffffffffffffffffffffffffffffff1681526020019081526020016000206001018054905014604051806060016040528060268152602001611dc86026913990610413576040517f08c379a000000000000000000000000000000000000000000000000000000000815260040161040a9190611a4b565b60405180910390fd5b5061042d826000836001016110a49092919063ffffffff16565b8173ffffffffffffffffffffffffffffffffffffffff167f6e76fb4c77256006d9c38ec7d82b45a8c8f3c27b1d6766fffc42dfb8de68449260405160405180910390a25050565b600061047e61107c565b60010160010180549050905090565b610495611054565b60000160029054906101000a900473ffffffffffffffffffffffffffffffffffffffff1673ffffffffffffffffffffffffffffffffffffffff166341d7c02d336040518263ffffffff1660e01b81526004016104f191906119ca565b60206040518083038186803b15801561050957600080fd5b505afa15801561051d573d6000803e3d6000fd5b505050506040513d601f19601f820116820180604052508101906105419190611825565b6040518060400160405280601e81526020017f43616c6c6572206d7573742062652061204641535420636f6e74726163740000815250906105b8576040517f08c379a00000000000000000000000000000000000000000000000000000000081526004016105af9190611a4b565b60405180910390fd5b5060006105c361107c565b60030160008373ffffffffffffffffffffffffffffffffffffffff1673ffffffffffffffffffffffffffffffffffffffff168152602001908152602001600020905061061b336000836110a49092919063ffffffff16565b5050565b600061063e8261062d61107c565b60040161135a90919063ffffffff16565b159050919050565b61064e611054565b60000160029054906101000a900473ffffffffffffffffffffffffffffffffffffffff1673ffffffffffffffffffffffffffffffffffffffff1663a230c524336040518263ffffffff1660e01b81526004016106aa91906119ca565b60206040518083038186803b1580156106c257600080fd5b505afa1580156106d6573d6000803e3d6000fd5b505050506040513d601f19601f820116820180604052508101906106fa9190611825565b6040518060400160405280601781526020017f526571756972657320535043206d656d6265727368697000000000000000000081525090610771576040517f08c379a00000000000000000000000000000000000000000000000000000000081526004016107689190611a4b565b60405180910390fd5b50806107908161077f61107c565b60010161135a90919063ffffffff16565b6040518060400160405280601c81526020017f52657175697265732045786368616e6765206d656d626572736869700000000081525090610807576040517f08c379a00000000000000000000000000000000000000000000000000000000081526004016107fe9190611a4b565b60405180910390fd5b503073ffffffffffffffffffffffffffffffffffffffff166367317647836040518263ffffffff1660e01b815260040161084191906119ca565b60206040518083038186803b15801561085957600080fd5b505afa15801561086d573d6000803e3d6000fd5b505050506040513d601f19601f820116820180604052508101906108919190611825565b15604051806060016040528060268152602001611da260269139906108ec576040517f08c379a00000000000000000000000000000000000000000000000000000000081526004016108e39190611a4b565b60405180910390fd5b5061090d8260006108fb61107c565b6004016110a49092919063ffffffff16565b8173ffffffffffffffffffffffffffffffffffffffff167f9b0dfddc7b811f70aa2c63314554f36c3be80f3a490db1ee566c6ae5b9e0497060405160405180910390a25050565b606060006109ad61096361107c565b60030160008773ffffffffffffffffffffffffffffffffffffffff1673ffffffffffffffffffffffffffffffffffffffff1681526020019081526020016000206001018585611450565b91509150935093915050565b60006109d8826109c761107c565b60010161135a90919063ffffffff16565b9050919050565b6109e7611054565b60000160029054906101000a900473ffffffffffffffffffffffffffffffffffffffff1673ffffffffffffffffffffffffffffffffffffffff166341d7c02d336040518263ffffffff1660e01b8152600401610a4391906119ca565b60206040518083038186803b158015610a5b57600080fd5b505afa158015610a6f573d6000803e3d6000fd5b505050506040513d601f19601f82011682018060405250810190610a939190611825565b6040518060400160405280601e81526020017f43616c6c6572206d7573742062652061204641535420636f6e7472616374000081525090610b0a576040517f08c379a0000000000000000000000000000000000000000000000000000000008152600401610b019190611a4b565b60405180910390fd5b506000610b1561107c565b60030160008373ffffffffffffffffffffffffffffffffffffffff1673ffffffffffffffffffffffffffffffffffffffff1681526020019081526020016000209050610b6d336000836116139092919063ffffffff16565b5050565b60606000610b8d610b8061107c565b6001016001018585611450565b915091509250929050565b610ba0611054565b60000160029054906101000a900473ffffffffffffffffffffffffffffffffffffffff1673ffffffffffffffffffffffffffffffffffffffff1663a230c524336040518263ffffffff1660e01b8152600401610bfc91906119ca565b60206040518083038186803b158015610c1457600080fd5b505afa158015610c28573d6000803e3d6000fd5b505050506040513d601f19601f82011682018060405250810190610c4c9190611825565b6040518060400160405280601781526020017f526571756972657320535043206d656d6265727368697000000000000000000081525090610cc3576040517f08c379a0000000000000000000000000000000000000000000000000000000008152600401610cba9190611a4b565b60405180910390fd5b50610ce4816000610cd261107c565b6001016116139092919063ffffffff16565b8073ffffffffffffffffffffffffffffffffffffffff167fb251eb052afc73ffd02ffe85ad79990a8b3fed60d76dbc2fa2fdd7123dffd91460405160405180910390a250565b610d32611054565b60000160029054906101000a900473ffffffffffffffffffffffffffffffffffffffff1673ffffffffffffffffffffffffffffffffffffffff1663a230c524336040518263ffffffff1660e01b8152600401610d8e91906119ca565b60206040518083038186803b158015610da657600080fd5b505afa158015610dba573d6000803e3d6000fd5b505050506040513d601f19601f82011682018060405250810190610dde9190611825565b6040518060400160405280601781526020017f526571756972657320535043206d656d6265727368697000000000000000000081525090610e55576040517f08c379a0000000000000000000000000000000000000000000000000000000008152600401610e4c9190611a4b565b60405180910390fd5b5080610e7481610e6361107c565b60010161135a90919063ffffffff16565b6040518060400160405280601c81526020017f52657175697265732045786368616e6765206d656d626572736869700000000081525090610eeb576040517f08c379a0000000000000000000000000000000000000000000000000000000008152600401610ee29190611a4b565b60405180910390fd5b503073ffffffffffffffffffffffffffffffffffffffff166367317647836040518263ffffffff1660e01b8152600401610f2591906119e5565b60206040518083038186803b158015610f3d57600080fd5b505afa158015610f51573d6000803e3d6000fd5b505050506040513d601f19601f82011682018060405250810190610f759190611825565b6040518060400160405280601f81526020017f5265717569726573206163746976652045786368616e6765206d656d6265720081525090610fec576040517f08c379a0000000000000000000000000000000000000000000000000000000008152600401610fe39190611a4b565b60405180910390fd5b5061100d826000610ffb61107c565b6004016116139092919063ffffffff16565b8173ffffffffffffffffffffffffffffffffffffffff167fd09c98686577f18c498d909faf17eff8fa165d9f4e25dce055e78cf7fb95cc1d60405160405180910390a25050565b60007f58cca9481e011ced58c1d520ef5aad456e5805265d66de8df7c52f680c417394905090565b60007f238f5ead2481aef1ec60acdfe5b3de34c076d0a86bb41e30c913f5f3885d7c47905090565b60006110b0848461135a565b90508180156110bd575080155b156110c85750611355565b80611108576040517f08c379a00000000000000000000000000000000000000000000000000000000081526004016110ff90611a8d565b60405180910390fd5b60006001856001018054905061111e9190611b73565b9050600085600101828154811061115e577f4e487b7100000000000000000000000000000000000000000000000000000000600052603260045260246000fd5b9060005260206000200160009054906101000a900473ffffffffffffffffffffffffffffffffffffffff16905060008660000160008773ffffffffffffffffffffffffffffffffffffffff1673ffffffffffffffffffffffffffffffffffffffff168152602001908152602001600020549050808760000160008473ffffffffffffffffffffffffffffffffffffffff1673ffffffffffffffffffffffffffffffffffffffff1681526020019081526020016000208190555081876001018281548110611254577f4e487b7100000000000000000000000000000000000000000000000000000000600052603260045260246000fd5b9060005260206000200160006101000a81548173ffffffffffffffffffffffffffffffffffffffff021916908373ffffffffffffffffffffffffffffffffffffffff1602179055508660000160008773ffffffffffffffffffffffffffffffffffffffff1673ffffffffffffffffffffffffffffffffffffffff168152602001908152602001600020600090558660010180548061131b577f4e487b7100000000000000000000000000000000000000000000000000000000600052603160045260246000fd5b6001900381819060005260206000200160006101000a81549073ffffffffffffffffffffffffffffffffffffffff02191690559055505050505b505050565b600080836001018054905014611445578173ffffffffffffffffffffffffffffffffffffffff16836001018460000160008573ffffffffffffffffffffffffffffffffffffffff1673ffffffffffffffffffffffffffffffffffffffff16815260200190815260200160002054815481106113fe577f4e487b7100000000000000000000000000000000000000000000000000000000600052603260045260246000fd5b9060005260206000200160009054906101000a900473ffffffffffffffffffffffffffffffffffffffff1673ffffffffffffffffffffffffffffffffffffffff1614611448565b60005b905092915050565b60606000808486805490506114659190611b73565b84116114715783611482565b8486805490506114819190611b73565b5b905060008167ffffffffffffffff8111156114c6577f4e487b7100000000000000000000000000000000000000000000000000000000600052604160045260246000fd5b6040519080825280602002602001820160405280156114f45781602001602082028036833780820191505090505b50905060005b828110156115f75787818861150f9190611b1d565b81548110611546577f4e487b7100000000000000000000000000000000000000000000000000000000600052603260045260246000fd5b9060005260206000200160009054906101000a900473ffffffffffffffffffffffffffffffffffffffff168282815181106115aa577f4e487b7100000000000000000000000000000000000000000000000000000000600052603260045260246000fd5b602002602001019073ffffffffffffffffffffffffffffffffffffffff16908173ffffffffffffffffffffffffffffffffffffffff168152505080806115ef90611c6a565b9150506114fa565b508082876116059190611b1d565b935093505050935093915050565b600061161f848461135a565b905081801561162b5750805b15611636575061172b565b8015611677576040517f08c379a000000000000000000000000000000000000000000000000000000000815260040161166e90611a6d565b60405180910390fd5b83600101805490508460000160008573ffffffffffffffffffffffffffffffffffffffff1673ffffffffffffffffffffffffffffffffffffffff1681526020019081526020016000208190555083600101839080600181540180825580915050600190039060005260206000200160009091909190916101000a81548173ffffffffffffffffffffffffffffffffffffffff021916908373ffffffffffffffffffffffffffffffffffffffff160217905550505b505050565b60008135905061173f81611d45565b92915050565b60008135905061175481611d5c565b92915050565b60008151905061176981611d73565b92915050565b60008135905061177e81611d8a565b92915050565b60006020828403121561179657600080fd5b60006117a484828501611730565b91505092915050565b6000602082840312156117bf57600080fd5b60006117cd84828501611745565b91505092915050565b6000806000606084860312156117eb57600080fd5b60006117f986828701611730565b935050602061180a8682870161176f565b925050604061181b8682870161176f565b9150509250925092565b60006020828403121561183757600080fd5b60006118458482850161175a565b91505092915050565b6000806040838503121561186157600080fd5b600061186f8582860161176f565b92505060206118808582860161176f565b9150509250929050565b600061189683836118b1565b60208301905092915050565b6118ab81611c01565b82525050565b6118ba81611ba7565b82525050565b6118c981611ba7565b82525050565b60006118da82611ad8565b6118e48185611afb565b93506118ef83611ac8565b8060005b83811015611920578151611907888261188a565b975061191283611aee565b9250506001810190506118f3565b5085935050505092915050565b61193681611bcb565b82525050565b600061194782611ae3565b6119518185611b0c565b9350611961818560208601611c37565b61196a81611ce2565b840191505092915050565b6000611982601683611b0c565b915061198d82611cf3565b602082019050919050565b60006119a5601d83611b0c565b91506119b082611d1c565b602082019050919050565b6119c481611bf7565b82525050565b60006020820190506119df60008301846118c0565b92915050565b60006020820190506119fa60008301846118a2565b92915050565b60006040820190508181036000830152611a1a81856118cf565b9050611a2960208301846119bb565b9392505050565b6000602082019050611a45600083018461192d565b92915050565b60006020820190508181036000830152611a65818461193c565b905092915050565b60006020820190508181036000830152611a8681611975565b9050919050565b60006020820190508181036000830152611aa681611998565b9050919050565b6000602082019050611ac260008301846119bb565b92915050565b6000819050602082019050919050565b600081519050919050565b600081519050919050565b6000602082019050919050565b600082825260208201905092915050565b600082825260208201905092915050565b6000611b2882611bf7565b9150611b3383611bf7565b9250827fffffffffffffffffffffffffffffffffffffffffffffffffffffffffffffffff03821115611b6857611b67611cb3565b5b828201905092915050565b6000611b7e82611bf7565b9150611b8983611bf7565b925082821015611b9c57611b9b611cb3565b5b828203905092915050565b6000611bb282611bd7565b9050919050565b6000611bc482611bd7565b9050919050565b60008115159050919050565b600073ffffffffffffffffffffffffffffffffffffffff82169050919050565b6000819050919050565b6000611c0c82611c13565b9050919050565b6000611c1e82611c25565b9050919050565b6000611c3082611bd7565b9050919050565b60005b83811015611c55578082015181840152602081019050611c3a565b83811115611c64576000848401525b50505050565b6000611c7582611bf7565b91507fffffffffffffffffffffffffffffffffffffffffffffffffffffffffffffffff821415611ca857611ca7611cb3565b5b600182019050919050565b7f4e487b7100000000000000000000000000000000000000000000000000000000600052601160045260246000fd5b6000601f19601f8301169050919050565b7f4164647265737320616c726561647920696e2073657400000000000000000000600082015250565b7f4164647265737320646f6573206e6f7420657869737420696e20736574000000600082015250565b611d4e81611ba7565b8114611d5957600080fd5b50565b611d6581611bb9565b8114611d7057600080fd5b50565b611d7c81611bcb565b8114611d8757600080fd5b50565b611d9381611bf7565b8114611d9e57600080fd5b5056fe526571756972657320612064656163746976617465642045786368616e6765206d656d6265724d656d626572207374696c6c2070617274206f66206174206c65617374206f6e652046415354a26469706673582212209829f0d2c5f33122fa15674a581f79708d42122d329946d9b2cd206f483e4af864736f6c63430008040033",
  "devdoc": {
    "details": "The Exchange Access facet is in charge of keeping track of exchange members.",
    "kind": "dev",
    "methods": {
      "activateMember(address)": {
        "details": "Activates a member at the Exchange level.",
        "params": {
          "member": "The member to remove from the deactivation member set."
        }
      },
      "addMember(address)": {
        "details": "Adds a member to this Exchange member list.",
        "params": {
          "member": "is the address of the member to be added."
        }
      },
      "deactivateMember(address)": {
        "details": "Deactivates a member at the Exchange level.",
        "params": {
          "member": "The member to add to the deactivation member set."
        }
      },
      "fastMemberships(address,uint256,uint256)": {
        "details": "Allows to query FAST memberships for a given member address.",
        "params": {
          "cursor": "The index at which to start.",
          "member": "Is the address to check.",
          "perPage": "How many records should be returned at most."
        }
      },
      "isMember(address)": {
        "details": "Queries whether a given address is a member of this Exchange or not.",
        "params": {
          "candidate": "is the address to test."
        },
        "returns": {
          "_0": "A `boolean` flag."
        }
      },
      "isMemberActive(address)": {
        "details": "Given a member returns it's activation status.",
        "params": {
          "member": "The member to check activation status on."
        }
      },
      "memberAddedToFast(address)": {
        "details": "Callback from FAST contracts allowing the Exchange contract to keep track of FAST memberships.",
        "params": {
          "member": "The member for which a new FAST membership has been added."
        }
      },
      "memberCount()": {
        "details": "Counts the numbers of members present in this Exchange.",
        "returns": {
          "_0": "The number of members in this exchange."
        }
      },
      "memberRemovedFromFast(address)": {
        "details": "Callback from FAST contracts allowing the Exchange contract to keep track of FAST memberships.",
        "params": {
          "member": "The member for which a FAST membership has been removed."
        }
      },
      "paginateMembers(uint256,uint256)": {
        "details": "Paginates the members of this Exchange based on a starting cursor and a number of records per page.",
        "params": {
          "cursor": "is the index at which to start.",
          "perPage": "is how many records should be returned at most."
        },
        "returns": {
          "_0": "A `address[]` list of values at most `perPage` big.",
          "_1": "A `uint256` index to the next page."
        }
      },
      "removeMember(address)": {
        "details": "Removes a member from this Exchange.",
        "params": {
          "member": "is the address of the member to be removed."
        }
      }
    },
    "title": "The Exchange Smart Contract.",
    "version": 1
  },
  "userdoc": {
    "kind": "user",
    "methods": {
      "addMember(address)": {
        "notice": "Requires that the caller is a member of the linked SPC.Emits a `IHasMembers.MemberAdded` event."
      },
      "removeMember(address)": {
        "notice": "Requires that the caller is a member of the linked SPC.Emits a `IHasMembers.MemberRemoved` event."
      }
    },
    "version": 1
  },
  "storageLayout": {
    "storage": [],
    "types": null
  }
}