{
  "address": "0x967947501CB20639cF5C56a633c6973b4566C100",
  "abi": [
    {
      "anonymous": false,
      "inputs": [
        {
          "indexed": true,
          "internalType": "address",
          "name": "owner",
          "type": "address"
        },
        {
          "indexed": true,
          "internalType": "address",
          "name": "spender",
          "type": "address"
        },
        {
          "indexed": false,
          "internalType": "uint256",
          "name": "value",
          "type": "uint256"
        }
      ],
      "name": "Approval",
      "type": "event"
    },
    {
      "anonymous": false,
      "inputs": [
        {
          "indexed": true,
          "internalType": "uint256",
          "name": "amount",
          "type": "uint256"
        },
        {
          "indexed": true,
          "internalType": "string",
          "name": "ref",
          "type": "string"
        }
      ],
      "name": "Burnt",
      "type": "event"
    },
    {
      "anonymous": false,
      "inputs": [
        {
          "indexed": false,
          "internalType": "uint256",
          "name": "memberCount",
          "type": "uint256"
        },
        {
          "indexed": false,
          "internalType": "uint256",
          "name": "governorCount",
          "type": "uint256"
        },
        {
          "indexed": false,
          "internalType": "uint256",
          "name": "totalSupply",
          "type": "uint256"
        },
        {
          "indexed": false,
          "internalType": "uint256",
          "name": "transferCredits",
          "type": "uint256"
        },
        {
          "indexed": false,
          "internalType": "uint256",
          "name": "reserveBalance",
          "type": "uint256"
        },
        {
          "indexed": false,
          "internalType": "uint256",
          "name": "ethBalance",
          "type": "uint256"
        }
      ],
      "name": "DetailsChanged",
      "type": "event"
    },
    {
      "anonymous": false,
      "inputs": [
        {
          "indexed": true,
          "internalType": "address",
          "name": "owner",
          "type": "address"
        },
        {
          "indexed": true,
          "internalType": "address",
          "name": "spender",
          "type": "address"
        }
      ],
      "name": "Disapproval",
      "type": "event"
    },
    {
      "anonymous": false,
      "inputs": [
        {
          "indexed": true,
          "internalType": "address",
          "name": "to",
          "type": "address"
        },
        {
          "indexed": false,
          "internalType": "uint256",
          "name": "amount",
          "type": "uint256"
        }
      ],
      "name": "EthDrained",
      "type": "event"
    },
    {
      "anonymous": false,
      "inputs": [
        {
          "indexed": true,
          "internalType": "address",
          "name": "from",
          "type": "address"
        },
        {
          "indexed": false,
          "internalType": "uint256",
          "name": "amount",
          "type": "uint256"
        }
      ],
      "name": "EthReceived",
      "type": "event"
    },
    {
      "anonymous": false,
      "inputs": [
        {
          "indexed": true,
          "internalType": "address",
          "name": "governor",
          "type": "address"
        }
      ],
      "name": "GovernorAdded",
      "type": "event"
    },
    {
      "anonymous": false,
      "inputs": [
        {
          "indexed": true,
          "internalType": "address",
          "name": "governor",
          "type": "address"
        }
      ],
      "name": "GovernorRemoved",
      "type": "event"
    },
    {
      "anonymous": false,
      "inputs": [
        {
          "indexed": true,
          "internalType": "address",
          "name": "member",
          "type": "address"
        }
      ],
      "name": "MemberAdded",
      "type": "event"
    },
    {
      "anonymous": false,
      "inputs": [
        {
          "indexed": true,
          "internalType": "address",
          "name": "member",
          "type": "address"
        }
      ],
      "name": "MemberRemoved",
      "type": "event"
    },
    {
      "anonymous": false,
      "inputs": [
        {
          "indexed": true,
          "internalType": "uint256",
          "name": "amount",
          "type": "uint256"
        },
        {
          "indexed": true,
          "internalType": "string",
          "name": "ref",
          "type": "string"
        }
      ],
      "name": "Minted",
      "type": "event"
    },
    {
      "anonymous": false,
      "inputs": [
        {
          "indexed": true,
          "internalType": "address",
          "name": "from",
          "type": "address"
        },
        {
          "indexed": true,
          "internalType": "address",
          "name": "to",
          "type": "address"
        },
        {
          "indexed": false,
          "internalType": "uint256",
          "name": "value",
          "type": "uint256"
        }
      ],
      "name": "Transfer",
      "type": "event"
    },
    {
      "anonymous": false,
      "inputs": [
        {
          "indexed": true,
          "internalType": "address",
          "name": "issuerMember",
          "type": "address"
        },
        {
          "indexed": false,
          "internalType": "uint256",
          "name": "amount",
          "type": "uint256"
        }
      ],
      "name": "TransferCreditsAdded",
      "type": "event"
    },
    {
      "anonymous": false,
      "inputs": [
        {
          "indexed": true,
          "internalType": "address",
          "name": "issuerMember",
          "type": "address"
        },
        {
          "indexed": false,
          "internalType": "uint256",
          "name": "amount",
          "type": "uint256"
        }
      ],
      "name": "TransferCreditsDrained",
      "type": "event"
    },
    {
      "inputs": [
        {
          "internalType": "address payable",
          "name": "governor",
          "type": "address"
        }
      ],
      "name": "addGovernor",
      "outputs": [],
      "stateMutability": "nonpayable",
      "type": "function"
    },
    {
      "inputs": [
        {
          "internalType": "address payable",
          "name": "member",
          "type": "address"
        }
      ],
      "name": "addMember",
      "outputs": [],
      "stateMutability": "nonpayable",
      "type": "function"
    },
    {
      "inputs": [
        {
          "internalType": "address",
          "name": "a",
          "type": "address"
        }
      ],
      "name": "flags",
      "outputs": [
        {
          "components": [
            {
              "internalType": "bool",
              "name": "isGovernor",
              "type": "bool"
            },
            {
              "internalType": "bool",
              "name": "isMember",
              "type": "bool"
            }
          ],
          "internalType": "struct FastAccessFacet.Flags",
          "name": "",
          "type": "tuple"
        }
      ],
      "stateMutability": "view",
      "type": "function"
    },
    {
      "inputs": [],
      "name": "governorCount",
      "outputs": [
        {
          "internalType": "uint256",
          "name": "",
          "type": "uint256"
        }
      ],
      "stateMutability": "view",
      "type": "function"
    },
    {
      "inputs": [
        {
          "internalType": "address",
          "name": "candidate",
          "type": "address"
        }
      ],
      "name": "isGovernor",
      "outputs": [
        {
          "internalType": "bool",
          "name": "",
          "type": "bool"
        }
      ],
      "stateMutability": "view",
      "type": "function"
    },
    {
      "inputs": [
        {
          "internalType": "address",
          "name": "candidate",
          "type": "address"
        }
      ],
      "name": "isMember",
      "outputs": [
        {
          "internalType": "bool",
          "name": "",
          "type": "bool"
        }
      ],
      "stateMutability": "view",
      "type": "function"
    },
    {
      "inputs": [],
      "name": "memberCount",
      "outputs": [
        {
          "internalType": "uint256",
          "name": "",
          "type": "uint256"
        }
      ],
      "stateMutability": "view",
      "type": "function"
    },
    {
      "inputs": [
        {
          "internalType": "uint256",
          "name": "index",
          "type": "uint256"
        },
        {
          "internalType": "uint256",
          "name": "perPage",
          "type": "uint256"
        }
      ],
      "name": "paginateGovernors",
      "outputs": [
        {
          "internalType": "address[]",
          "name": "",
          "type": "address[]"
        },
        {
          "internalType": "uint256",
          "name": "",
          "type": "uint256"
        }
      ],
      "stateMutability": "view",
      "type": "function"
    },
    {
      "inputs": [
        {
          "internalType": "uint256",
          "name": "index",
          "type": "uint256"
        },
        {
          "internalType": "uint256",
          "name": "perPage",
          "type": "uint256"
        }
      ],
      "name": "paginateMembers",
      "outputs": [
        {
          "internalType": "address[]",
          "name": "",
          "type": "address[]"
        },
        {
          "internalType": "uint256",
          "name": "",
          "type": "uint256"
        }
      ],
      "stateMutability": "view",
      "type": "function"
    },
    {
      "inputs": [
        {
          "internalType": "address",
          "name": "governor",
          "type": "address"
        }
      ],
      "name": "removeGovernor",
      "outputs": [],
      "stateMutability": "nonpayable",
      "type": "function"
    },
    {
      "inputs": [
        {
          "internalType": "address",
          "name": "member",
          "type": "address"
        }
      ],
      "name": "removeMember",
      "outputs": [],
      "stateMutability": "nonpayable",
      "type": "function"
    }
  ],
  "transactionHash": "0x512418ebc505cfdf67eb1353058c3f37b1e0fbbfa94201d17d50dce016001e38",
  "args": [],
  "numDeployments": 1,
  "solcInputHash": "e9d57edbd84228ebf559b52428a576bf",
  "bytecode": "0x608060405234801561001057600080fd5b50611c8b806100206000396000f3fe608060405234801561001057600080fd5b50600436106100a95760003560e01c8063a230c52411610071578063a230c52414610165578063c6549ba414610195578063ca6d56dc146101c6578063e43581b8146101e2578063e8c9fd4514610212578063eecdac8814610230576100a9565b80630b1ca49a146100ae57806311aee380146100ca5780633c4a25d0146100e85780635a4c75d5146101045780639fef0c0114610135575b600080fd5b6100c860048036038101906100c3919061162e565b61024c565b005b6100d2610516565b6040516100df9190611961565b60405180910390f35b61010260048036038101906100fd9190611657565b61052f565b005b61011e600480360381019061011991906116a9565b61084f565b60405161012c929190611899565b60405180910390f35b61014f600480360381019061014a919061162e565b610876565b60405161015c9190611946565b60405180910390f35b61017f600480360381019061017a919061162e565b6108d5565b60405161018c91906118c9565b60405180910390f35b6101af60048036038101906101aa91906116a9565b6108fb565b6040516101bd929190611899565b60405180910390f35b6101e060048036038101906101db9190611657565b610922565b005b6101fc60048036038101906101f7919061162e565b610caf565b60405161020991906118c9565b60405180910390f35b61021a610cd5565b6040516102279190611961565b60405180910390f35b61024a6004803603810190610245919061162e565b610cee565b005b333073ffffffffffffffffffffffffffffffffffffffff1663e43581b8826040518263ffffffff1660e01b81526004016102869190611863565b60206040518083038186803b15801561029e57600080fd5b505afa1580156102b2573d6000803e3d6000fd5b505050506040513d601f19601f820116820180604052508101906102d69190611680565b6040518060400160405280601a81526020017f5265717569726573204641535420676f7665726e6f72736869700000000000008152509061034d576040517f08c379a000000000000000000000000000000000000000000000000000000000815260040161034491906118e4565b60405180910390fd5b5061036e82600061035c610ee0565b600301610f089092919063ffffffff16565b3073ffffffffffffffffffffffffffffffffffffffff16635d7b590f836040518263ffffffff1660e01b81526004016103a79190611863565b600060405180830381600087803b1580156103c157600080fd5b505af11580156103d5573d6000803e3d6000fd5b505050506103e16111be565b60010160009054906101000a900473ffffffffffffffffffffffffffffffffffffffff1673ffffffffffffffffffffffffffffffffffffffff16631b09a281836040518263ffffffff1660e01b815260040161043d9190611863565b600060405180830381600087803b15801561045757600080fd5b505af115801561046b573d6000803e3d6000fd5b505050503073ffffffffffffffffffffffffffffffffffffffff16634f2274c06040518163ffffffff1660e01b8152600401600060405180830381600087803b1580156104b757600080fd5b505af11580156104cb573d6000803e3d6000fd5b505050508173ffffffffffffffffffffffffffffffffffffffff167f6e76fb4c77256006d9c38ec7d82b45a8c8f3c27b1d6766fffc42dfb8de68449260405160405180910390a25050565b6000610520610ee0565b60030160010180549050905090565b6105376111be565b60000160029054906101000a900473ffffffffffffffffffffffffffffffffffffffff1673ffffffffffffffffffffffffffffffffffffffff1663a230c524336040518263ffffffff1660e01b81526004016105939190611863565b60206040518083038186803b1580156105ab57600080fd5b505afa1580156105bf573d6000803e3d6000fd5b505050506040513d601f19601f820116820180604052508101906105e39190611680565b6040518060400160405280601a81526020017f526571756972657320497373756572206d656d626572736869700000000000008152509061065a576040517f08c379a000000000000000000000000000000000000000000000000000000000815260040161065191906118e4565b60405180910390fd5b50806106646111be565b60010160009054906101000a900473ffffffffffffffffffffffffffffffffffffffff1673ffffffffffffffffffffffffffffffffffffffff1663a230c524826040518263ffffffff1660e01b81526004016106c09190611863565b60206040518083038186803b1580156106d857600080fd5b505afa1580156106ec573d6000803e3d6000fd5b505050506040513d601f19601f820116820180604052508101906107109190611680565b6040518060400160405280601f81526020017f5265717569726573204d61726b6574706c616365206d656d626572736869700081525090610787576040517f08c379a000000000000000000000000000000000000000000000000000000000815260040161077e91906118e4565b60405180910390fd5b506107a8826000610796610ee0565b6001016111e69092919063ffffffff16565b3073ffffffffffffffffffffffffffffffffffffffff16634f2274c06040518163ffffffff1660e01b8152600401600060405180830381600087803b1580156107f057600080fd5b505af1158015610804573d6000803e3d6000fd5b505050508173ffffffffffffffffffffffffffffffffffffffff167fdc5a48d79e2e147530ff63ecdbed5a5a66adb9d5cf339384d5d076da197c40b560405160405180910390a25050565b6060600061086b61085e610ee0565b6001016001018585611303565b915091509250929050565b61087e6115bc565b6000610888610ee0565b905060405180604001604052806108ab85846001016114c690919063ffffffff16565b151581526020016108c885846003016114c690919063ffffffff16565b1515815250915050919050565b60006108f4826108e3610ee0565b6003016114c690919063ffffffff16565b9050919050565b6060600061091761090a610ee0565b6003016001018585611303565b915091509250929050565b333073ffffffffffffffffffffffffffffffffffffffff1663e43581b8826040518263ffffffff1660e01b815260040161095c9190611863565b60206040518083038186803b15801561097457600080fd5b505afa158015610988573d6000803e3d6000fd5b505050506040513d601f19601f820116820180604052508101906109ac9190611680565b6040518060400160405280601a81526020017f5265717569726573204641535420676f7665726e6f727368697000000000000081525090610a23576040517f08c379a0000000000000000000000000000000000000000000000000000000008152600401610a1a91906118e4565b60405180910390fd5b5081610a2d6111be565b60010160009054906101000a900473ffffffffffffffffffffffffffffffffffffffff1673ffffffffffffffffffffffffffffffffffffffff1663a230c524826040518263ffffffff1660e01b8152600401610a899190611863565b60206040518083038186803b158015610aa157600080fd5b505afa158015610ab5573d6000803e3d6000fd5b505050506040513d601f19601f82011682018060405250810190610ad99190611680565b6040518060400160405280601f81526020017f5265717569726573204d61726b6574706c616365206d656d626572736869700081525090610b50576040517f08c379a0000000000000000000000000000000000000000000000000000000008152600401610b4791906118e4565b60405180910390fd5b50610b71836000610b5f610ee0565b6003016111e69092919063ffffffff16565b610b796111be565b60010160009054906101000a900473ffffffffffffffffffffffffffffffffffffffff1673ffffffffffffffffffffffffffffffffffffffff1663af827ff7846040518263ffffffff1660e01b8152600401610bd5919061187e565b600060405180830381600087803b158015610bef57600080fd5b505af1158015610c03573d6000803e3d6000fd5b505050503073ffffffffffffffffffffffffffffffffffffffff16634f2274c06040518163ffffffff1660e01b8152600401600060405180830381600087803b158015610c4f57600080fd5b505af1158015610c63573d6000803e3d6000fd5b505050508273ffffffffffffffffffffffffffffffffffffffff167fb251eb052afc73ffd02ffe85ad79990a8b3fed60d76dbc2fa2fdd7123dffd91460405160405180910390a2505050565b6000610cce82610cbd610ee0565b6001016114c690919063ffffffff16565b9050919050565b6000610cdf610ee0565b60010160010180549050905090565b610cf66111be565b60000160029054906101000a900473ffffffffffffffffffffffffffffffffffffffff1673ffffffffffffffffffffffffffffffffffffffff1663a230c524336040518263ffffffff1660e01b8152600401610d529190611863565b60206040518083038186803b158015610d6a57600080fd5b505afa158015610d7e573d6000803e3d6000fd5b505050506040513d601f19601f82011682018060405250810190610da29190611680565b6040518060400160405280601a81526020017f526571756972657320497373756572206d656d6265727368697000000000000081525090610e19576040517f08c379a0000000000000000000000000000000000000000000000000000000008152600401610e1091906118e4565b60405180910390fd5b50610e3a816000610e28610ee0565b600101610f089092919063ffffffff16565b3073ffffffffffffffffffffffffffffffffffffffff16634f2274c06040518163ffffffff1660e01b8152600401600060405180830381600087803b158015610e8257600080fd5b505af1158015610e96573d6000803e3d6000fd5b505050508073ffffffffffffffffffffffffffffffffffffffff167f1ebe834e73d60a5fec822c1e1727d34bc79f2ad977ed504581cc1822fe20fb5b60405160405180910390a250565b60007f87ed8063ac9ead3b2eb7551ed3d89b29fcbf44d6733084b5c82e95d5120ece9a905090565b6000610f1484846114c6565b9050818015610f21575080155b15610f2c57506111b9565b80610f6c576040517f08c379a0000000000000000000000000000000000000000000000000000000008152600401610f6390611926565b60405180910390fd5b600060018560010180549050610f829190611a27565b90506000856001018281548110610fc2577f4e487b7100000000000000000000000000000000000000000000000000000000600052603260045260246000fd5b9060005260206000200160009054906101000a900473ffffffffffffffffffffffffffffffffffffffff16905060008660000160008773ffffffffffffffffffffffffffffffffffffffff1673ffffffffffffffffffffffffffffffffffffffff168152602001908152602001600020549050808760000160008473ffffffffffffffffffffffffffffffffffffffff1673ffffffffffffffffffffffffffffffffffffffff16815260200190815260200160002081905550818760010182815481106110b8577f4e487b7100000000000000000000000000000000000000000000000000000000600052603260045260246000fd5b9060005260206000200160006101000a81548173ffffffffffffffffffffffffffffffffffffffff021916908373ffffffffffffffffffffffffffffffffffffffff1602179055508660000160008773ffffffffffffffffffffffffffffffffffffffff1673ffffffffffffffffffffffffffffffffffffffff168152602001908152602001600020600090558660010180548061117f577f4e487b7100000000000000000000000000000000000000000000000000000000600052603160045260246000fd5b6001900381819060005260206000200160006101000a81549073ffffffffffffffffffffffffffffffffffffffff02191690559055505050505b505050565b60007f80c187ea6f955fd624c41fb7a18011cc87d98c6f4c06d897b59142f65707e705905090565b60006111f284846114c6565b90508180156111fe5750805b1561120957506112fe565b801561124a576040517f08c379a000000000000000000000000000000000000000000000000000000000815260040161124190611906565b60405180910390fd5b83600101805490508460000160008573ffffffffffffffffffffffffffffffffffffffff1673ffffffffffffffffffffffffffffffffffffffff1681526020019081526020016000208190555083600101839080600181540180825580915050600190039060005260206000200160009091909190916101000a81548173ffffffffffffffffffffffffffffffffffffffff021916908373ffffffffffffffffffffffffffffffffffffffff160217905550505b505050565b60606000808486805490506113189190611a27565b84116113245783611335565b8486805490506113349190611a27565b5b905060008167ffffffffffffffff811115611379577f4e487b7100000000000000000000000000000000000000000000000000000000600052604160045260246000fd5b6040519080825280602002602001820160405280156113a75781602001602082028036833780820191505090505b50905060005b828110156114aa578781886113c291906119d1565b815481106113f9577f4e487b7100000000000000000000000000000000000000000000000000000000600052603260045260246000fd5b9060005260206000200160009054906101000a900473ffffffffffffffffffffffffffffffffffffffff1682828151811061145d577f4e487b7100000000000000000000000000000000000000000000000000000000600052603260045260246000fd5b602002602001019073ffffffffffffffffffffffffffffffffffffffff16908173ffffffffffffffffffffffffffffffffffffffff168152505080806114a290611b1e565b9150506113ad565b508082876114b891906119d1565b935093505050935093915050565b6000808360010180549050146115b1578173ffffffffffffffffffffffffffffffffffffffff16836001018460000160008573ffffffffffffffffffffffffffffffffffffffff1673ffffffffffffffffffffffffffffffffffffffff168152602001908152602001600020548154811061156a577f4e487b7100000000000000000000000000000000000000000000000000000000600052603260045260246000fd5b9060005260206000200160009054906101000a900473ffffffffffffffffffffffffffffffffffffffff1673ffffffffffffffffffffffffffffffffffffffff16146115b4565b60005b905092915050565b60405180604001604052806000151581526020016000151581525090565b6000813590506115e981611bf9565b92915050565b6000813590506115fe81611c10565b92915050565b60008151905061161381611c27565b92915050565b60008135905061162881611c3e565b92915050565b60006020828403121561164057600080fd5b600061164e848285016115da565b91505092915050565b60006020828403121561166957600080fd5b6000611677848285016115ef565b91505092915050565b60006020828403121561169257600080fd5b60006116a084828501611604565b91505092915050565b600080604083850312156116bc57600080fd5b60006116ca85828601611619565b92505060206116db85828601611619565b9150509250929050565b60006116f1838361170c565b60208301905092915050565b61170681611ab5565b82525050565b61171581611a5b565b82525050565b61172481611a5b565b82525050565b60006117358261198c565b61173f81856119af565b935061174a8361197c565b8060005b8381101561177b57815161176288826116e5565b975061176d836119a2565b92505060018101905061174e565b5085935050505092915050565b61179181611a7f565b82525050565b6117a081611a7f565b82525050565b60006117b182611997565b6117bb81856119c0565b93506117cb818560208601611aeb565b6117d481611b96565b840191505092915050565b60006117ec6016836119c0565b91506117f782611ba7565b602082019050919050565b600061180f601d836119c0565b915061181a82611bd0565b602082019050919050565b60408201600082015161183b6000850182611788565b50602082015161184e6020850182611788565b50505050565b61185d81611aab565b82525050565b6000602082019050611878600083018461171b565b92915050565b600060208201905061189360008301846116fd565b92915050565b600060408201905081810360008301526118b3818561172a565b90506118c26020830184611854565b9392505050565b60006020820190506118de6000830184611797565b92915050565b600060208201905081810360008301526118fe81846117a6565b905092915050565b6000602082019050818103600083015261191f816117df565b9050919050565b6000602082019050818103600083015261193f81611802565b9050919050565b600060408201905061195b6000830184611825565b92915050565b60006020820190506119766000830184611854565b92915050565b6000819050602082019050919050565b600081519050919050565b600081519050919050565b6000602082019050919050565b600082825260208201905092915050565b600082825260208201905092915050565b60006119dc82611aab565b91506119e783611aab565b9250827fffffffffffffffffffffffffffffffffffffffffffffffffffffffffffffffff03821115611a1c57611a1b611b67565b5b828201905092915050565b6000611a3282611aab565b9150611a3d83611aab565b925082821015611a5057611a4f611b67565b5b828203905092915050565b6000611a6682611a8b565b9050919050565b6000611a7882611a8b565b9050919050565b60008115159050919050565b600073ffffffffffffffffffffffffffffffffffffffff82169050919050565b6000819050919050565b6000611ac082611ac7565b9050919050565b6000611ad282611ad9565b9050919050565b6000611ae482611a8b565b9050919050565b60005b83811015611b09578082015181840152602081019050611aee565b83811115611b18576000848401525b50505050565b6000611b2982611aab565b91507fffffffffffffffffffffffffffffffffffffffffffffffffffffffffffffffff821415611b5c57611b5b611b67565b5b600182019050919050565b7f4e487b7100000000000000000000000000000000000000000000000000000000600052601160045260246000fd5b6000601f19601f8301169050919050565b7f4164647265737320616c726561647920696e2073657400000000000000000000600082015250565b7f4164647265737320646f6573206e6f7420657869737420696e20736574000000600082015250565b611c0281611a5b565b8114611c0d57600080fd5b50565b611c1981611a6d565b8114611c2457600080fd5b50565b611c3081611a7f565b8114611c3b57600080fd5b50565b611c4781611aab565b8114611c5257600080fd5b5056fea26469706673582212203643094d0e8160bc0733f188664a50f6517ceb8b086ea72b8bb8bea86bcae04a64736f6c63430008040033",
  "devdoc": {
    "details": "The FAST Access Smart Contract is the source of truth when it comes to permissioning and ACLs within a given FAST network.",
    "kind": "dev",
    "methods": {
      "addGovernor(address)": {
        "details": "Adds a governor to the governor list."
      },
      "addMember(address)": {
        "details": "Adds a member to the membership list."
      },
      "flags(address)": {
        "details": "Retrieves flags for a given address."
      },
      "governorCount()": {
        "details": "Queries the number of governors in the governor list."
      },
      "isGovernor(address)": {
        "details": "Queries whether a given address is a governor or not."
      },
      "isMember(address)": {
        "details": "Queries whether a given address is a member or not."
      },
      "memberCount()": {
        "details": "Queries the number of members in the membership list."
      },
      "paginateGovernors(uint256,uint256)": {
        "details": "Returns a page of governors."
      },
      "paginateMembers(uint256,uint256)": {
        "details": "Returns a page of members."
      },
      "removeGovernor(address)": {
        "details": "Removes a governor from the governor list."
      },
      "removeMember(address)": {
        "details": "Removes a member from the membership list."
      }
    },
    "version": 1
  },
  "userdoc": {
    "kind": "user",
    "methods": {},
    "version": 1
  },
  "storageLayout": {
    "storage": [],
    "types": null
  }
}