{
  "address": "0x376731468cB2C0c8FCf7fE58eB7697694ddAdb99",
  "abi": [
    {
      "anonymous": false,
      "inputs": [
        {
          "indexed": true,
          "internalType": "address",
          "name": "owner",
          "type": "address"
        },
        {
          "indexed": true,
          "internalType": "address",
          "name": "spender",
          "type": "address"
        },
        {
          "indexed": false,
          "internalType": "uint256",
          "name": "value",
          "type": "uint256"
        }
      ],
      "name": "Approval",
      "type": "event"
    },
    {
      "anonymous": false,
      "inputs": [
        {
          "indexed": true,
          "internalType": "uint256",
          "name": "amount",
          "type": "uint256"
        },
        {
          "indexed": true,
          "internalType": "string",
          "name": "ref",
          "type": "string"
        }
      ],
      "name": "Burnt",
      "type": "event"
    },
    {
      "anonymous": false,
      "inputs": [
        {
          "indexed": true,
          "internalType": "address",
          "name": "owner",
          "type": "address"
        },
        {
          "indexed": true,
          "internalType": "address",
          "name": "spender",
          "type": "address"
        }
      ],
      "name": "Disapproval",
      "type": "event"
    },
    {
      "anonymous": false,
      "inputs": [
        {
          "indexed": true,
          "internalType": "uint256",
          "name": "amount",
          "type": "uint256"
        },
        {
          "indexed": true,
          "internalType": "string",
          "name": "ref",
          "type": "string"
        }
      ],
      "name": "Minted",
      "type": "event"
    },
    {
      "anonymous": false,
      "inputs": [
        {
          "indexed": true,
          "internalType": "address",
          "name": "from",
          "type": "address"
        },
        {
          "indexed": true,
          "internalType": "address",
          "name": "to",
          "type": "address"
        },
        {
          "indexed": false,
          "internalType": "uint256",
          "name": "value",
          "type": "uint256"
        }
      ],
      "name": "Transfer",
      "type": "event"
    },
    {
      "anonymous": false,
      "inputs": [
        {
          "indexed": true,
          "internalType": "address",
          "name": "spcMember",
          "type": "address"
        },
        {
          "indexed": false,
          "internalType": "uint256",
          "name": "amount",
          "type": "uint256"
        }
      ],
      "name": "TransferCreditsAdded",
      "type": "event"
    },
    {
      "anonymous": false,
      "inputs": [
        {
          "indexed": true,
          "internalType": "address",
          "name": "spcMember",
          "type": "address"
        },
        {
          "indexed": false,
          "internalType": "uint256",
          "name": "amount",
          "type": "uint256"
        }
      ],
      "name": "TransferCreditsDrained",
      "type": "event"
    },
    {
      "inputs": [
        {
          "internalType": "uint256",
          "name": "amount",
          "type": "uint256"
        }
      ],
      "name": "addTransferCredits",
      "outputs": [],
      "stateMutability": "nonpayable",
      "type": "function"
    },
    {
      "inputs": [
        {
          "internalType": "address",
          "name": "owner",
          "type": "address"
        },
        {
          "internalType": "address",
          "name": "spender",
          "type": "address"
        }
      ],
      "name": "allowance",
      "outputs": [
        {
          "internalType": "uint256",
          "name": "",
          "type": "uint256"
        }
      ],
      "stateMutability": "view",
      "type": "function"
    },
    {
      "inputs": [
        {
          "internalType": "address",
          "name": "spender",
          "type": "address"
        },
        {
          "internalType": "uint256",
          "name": "amount",
          "type": "uint256"
        }
      ],
      "name": "approve",
      "outputs": [
        {
          "internalType": "bool",
          "name": "",
          "type": "bool"
        }
      ],
      "stateMutability": "nonpayable",
      "type": "function"
    },
    {
      "inputs": [
        {
          "internalType": "address",
          "name": "owner",
          "type": "address"
        }
      ],
      "name": "balanceOf",
      "outputs": [
        {
          "internalType": "uint256",
          "name": "",
          "type": "uint256"
        }
      ],
      "stateMutability": "view",
      "type": "function"
    },
    {
      "inputs": [
        {
          "internalType": "address",
          "name": "member",
          "type": "address"
        }
      ],
      "name": "beforeRemovingMember",
      "outputs": [],
      "stateMutability": "nonpayable",
      "type": "function"
    },
    {
      "inputs": [
        {
          "internalType": "uint256",
          "name": "amount",
          "type": "uint256"
        },
        {
          "internalType": "string",
          "name": "ref",
          "type": "string"
        }
      ],
      "name": "burn",
      "outputs": [],
      "stateMutability": "nonpayable",
      "type": "function"
    },
    {
      "inputs": [],
      "name": "decimals",
      "outputs": [
        {
          "internalType": "uint256",
          "name": "",
          "type": "uint256"
        }
      ],
      "stateMutability": "view",
      "type": "function"
    },
    {
      "inputs": [
        {
          "internalType": "address",
          "name": "from",
          "type": "address"
        },
        {
          "internalType": "address",
          "name": "to",
          "type": "address"
        },
        {
          "internalType": "uint256",
          "name": "amount",
          "type": "uint256"
        }
      ],
      "name": "detectTransferRestriction",
      "outputs": [
        {
          "internalType": "uint8",
          "name": "",
          "type": "uint8"
        }
      ],
      "stateMutability": "view",
      "type": "function"
    },
    {
      "inputs": [
        {
          "internalType": "address",
          "name": "spender",
          "type": "address"
        }
      ],
      "name": "disapprove",
      "outputs": [],
      "stateMutability": "nonpayable",
      "type": "function"
    },
    {
      "inputs": [],
      "name": "drainTransferCredits",
      "outputs": [],
      "stateMutability": "nonpayable",
      "type": "function"
    },
    {
      "inputs": [
        {
          "internalType": "address",
          "name": "owner",
          "type": "address"
        }
      ],
      "name": "givenAllowanceCount",
      "outputs": [
        {
          "internalType": "uint256",
          "name": "",
          "type": "uint256"
        }
      ],
      "stateMutability": "view",
      "type": "function"
    },
    {
      "inputs": [
        {
          "internalType": "uint8",
          "name": "restrictionCode",
          "type": "uint8"
        }
      ],
      "name": "messageForTransferRestriction",
      "outputs": [
        {
          "internalType": "string",
          "name": "",
          "type": "string"
        }
      ],
      "stateMutability": "pure",
      "type": "function"
    },
    {
      "inputs": [
        {
          "internalType": "uint256",
          "name": "amount",
          "type": "uint256"
        },
        {
          "internalType": "string",
          "name": "ref",
          "type": "string"
        }
      ],
      "name": "mint",
      "outputs": [],
      "stateMutability": "nonpayable",
      "type": "function"
    },
    {
      "inputs": [],
      "name": "name",
      "outputs": [
        {
          "internalType": "string",
          "name": "",
          "type": "string"
        }
      ],
      "stateMutability": "view",
      "type": "function"
    },
    {
      "inputs": [
        {
          "internalType": "address",
          "name": "owner",
          "type": "address"
        },
        {
          "internalType": "uint256",
          "name": "index",
          "type": "uint256"
        },
        {
          "internalType": "uint256",
          "name": "perPage",
          "type": "uint256"
        }
      ],
      "name": "paginateAllowancesByOwner",
      "outputs": [
        {
          "internalType": "address[]",
          "name": "",
          "type": "address[]"
        },
        {
          "internalType": "uint256",
          "name": "",
          "type": "uint256"
        }
      ],
      "stateMutability": "view",
      "type": "function"
    },
    {
      "inputs": [
        {
          "internalType": "address",
          "name": "spender",
          "type": "address"
        },
        {
          "internalType": "uint256",
          "name": "index",
          "type": "uint256"
        },
        {
          "internalType": "uint256",
          "name": "perPage",
          "type": "uint256"
        }
      ],
      "name": "paginateAllowancesBySpender",
      "outputs": [
        {
          "internalType": "address[]",
          "name": "",
          "type": "address[]"
        },
        {
          "internalType": "uint256",
          "name": "",
          "type": "uint256"
        }
      ],
      "stateMutability": "view",
      "type": "function"
    },
    {
      "inputs": [
        {
          "internalType": "address",
          "name": "from",
          "type": "address"
        },
        {
          "internalType": "address",
          "name": "spender",
          "type": "address"
        },
        {
          "internalType": "uint256",
          "name": "amount",
          "type": "uint256"
        }
      ],
      "name": "performApproval",
      "outputs": [],
      "stateMutability": "nonpayable",
      "type": "function"
    },
    {
      "inputs": [
        {
          "internalType": "address",
          "name": "from",
          "type": "address"
        },
        {
          "internalType": "address",
          "name": "spender",
          "type": "address"
        }
      ],
      "name": "performDisapproval",
      "outputs": [],
      "stateMutability": "nonpayable",
      "type": "function"
    },
    {
      "inputs": [
        {
          "components": [
            {
              "internalType": "address",
              "name": "spender",
              "type": "address"
            },
            {
              "internalType": "address",
              "name": "from",
              "type": "address"
            },
            {
              "internalType": "address",
              "name": "to",
              "type": "address"
            },
            {
              "internalType": "uint256",
              "name": "amount",
              "type": "uint256"
            },
            {
              "internalType": "string",
              "name": "ref",
              "type": "string"
            }
          ],
          "internalType": "struct FastTokenFacet.TransferArgs",
          "name": "p",
          "type": "tuple"
        }
      ],
      "name": "performTransfer",
      "outputs": [],
      "stateMutability": "nonpayable",
      "type": "function"
    },
    {
      "inputs": [
        {
          "internalType": "address",
          "name": "spender",
          "type": "address"
        }
      ],
      "name": "receivedAllowanceCount",
      "outputs": [
        {
          "internalType": "uint256",
          "name": "",
          "type": "uint256"
        }
      ],
      "stateMutability": "view",
      "type": "function"
    },
    {
      "inputs": [],
      "name": "symbol",
      "outputs": [
        {
          "internalType": "string",
          "name": "",
          "type": "string"
        }
      ],
      "stateMutability": "view",
      "type": "function"
    },
    {
      "inputs": [],
      "name": "totalSupply",
      "outputs": [
        {
          "internalType": "uint256",
          "name": "",
          "type": "uint256"
        }
      ],
      "stateMutability": "view",
      "type": "function"
    },
    {
      "inputs": [
        {
          "internalType": "address",
          "name": "to",
          "type": "address"
        },
        {
          "internalType": "uint256",
          "name": "amount",
          "type": "uint256"
        }
      ],
      "name": "transfer",
      "outputs": [
        {
          "internalType": "bool",
          "name": "",
          "type": "bool"
        }
      ],
      "stateMutability": "nonpayable",
      "type": "function"
    },
    {
      "inputs": [],
      "name": "transferCredits",
      "outputs": [
        {
          "internalType": "uint256",
          "name": "",
          "type": "uint256"
        }
      ],
      "stateMutability": "view",
      "type": "function"
    },
    {
      "inputs": [
        {
          "internalType": "address",
          "name": "from",
          "type": "address"
        },
        {
          "internalType": "address",
          "name": "to",
          "type": "address"
        },
        {
          "internalType": "uint256",
          "name": "amount",
          "type": "uint256"
        }
      ],
      "name": "transferFrom",
      "outputs": [
        {
          "internalType": "bool",
          "name": "",
          "type": "bool"
        }
      ],
      "stateMutability": "nonpayable",
      "type": "function"
    },
    {
      "inputs": [
        {
          "internalType": "address",
          "name": "from",
          "type": "address"
        },
        {
          "internalType": "address",
          "name": "to",
          "type": "address"
        },
        {
          "internalType": "uint256",
          "name": "amount",
          "type": "uint256"
        },
        {
          "internalType": "string",
          "name": "ref",
          "type": "string"
        }
      ],
      "name": "transferFromWithRef",
      "outputs": [],
      "stateMutability": "nonpayable",
      "type": "function"
    },
    {
      "inputs": [
        {
          "internalType": "address",
          "name": "to",
          "type": "address"
        },
        {
          "internalType": "uint256",
          "name": "amount",
          "type": "uint256"
        },
        {
          "internalType": "string",
          "name": "ref",
          "type": "string"
        }
      ],
      "name": "transferWithRef",
      "outputs": [],
      "stateMutability": "nonpayable",
      "type": "function"
    }
  ],
  "transactionHash": "0xd11f34cb382b84e4951a786f11e294966c31423de97c7c6560937052ac7520f3",
  "args": [],
  "numDeployments": 1,
  "solcInputHash": "fd2c1b70eb30f59fcde03d0960e64f71",
  "bytecode": "0x608060405234801561001057600080fd5b5061505e806100206000396000f3fe608060405234801561001057600080fd5b50600436106101a95760003560e01c80636ba09c5c116100f95780639c999d9011610097578063d4ce141511610071578063d4ce1415146104f2578063dd62ed3e14610522578063ddee550c14610552578063e8edd0e31461055c576101a9565b80639c999d9014610475578063a9059cbb146104a6578063c485bb96146104d6576101a9565b806377097fc8116100d357806377097fc8146103db5780637f4ab1dd146103f757806381a8f2431461042757806395d89b4114610457576101a9565b80636ba09c5c1461037157806370a082311461038f5780637641e6f3146103bf576101a9565b80631fe02e5311610166578063313ce56711610140578063313ce567146102ff57806344890ae01461031d5780635480699a146103395780635d7b590f14610355576101a9565b80631fe02e531461028257806323b872dd146102b357806330005916146102e3576101a9565b806302ff1049146101ae57806306675ba7146101ca57806306fdde03146101fa578063095ea7b31461021857806315770d991461024857806318160ddd14610264575b600080fd5b6101c860048036038101906101c391906143ad565b610578565b005b6101e460048036038101906101df9190614384565b6107ba565b6040516101f19190614b39565b60405180910390f35b610202610812565b60405161020f9190614a95565b60405180910390f35b610232600480360381019061022d91906144b3565b6108ad565b60405161023f9190614a7a565b60405180910390f35b610262600480360381019061025d9190614384565b610928565b005b61026c610a9b565b6040516102799190614b39565b60405180910390f35b61029c6004803603810190610297919061455b565b610aae565b6040516102aa929190614a4a565b60405180910390f35b6102cd60048036038101906102c891906143e9565b610b13565b6040516102da9190614a7a565b60405180910390f35b6102fd60048036038101906102f89190614614565b610b61565b005b610307610d60565b6040516103149190614b39565b60405180910390f35b610337600480360381019061033291906145d3565b610d73565b005b610353600480360381019061034e91906143e9565b611ddd565b005b61036f600480360381019061036a9190614384565b612329565b005b610379612685565b6040516103869190614b39565b60405180910390f35b6103a960048036038101906103a49190614384565b612698565b6040516103b69190614b39565b60405180910390f35b6103d960048036038101906103d49190614666565b6126ea565b005b6103f560048036038101906103f09190614666565b612b10565b005b610411600480360381019061040c91906146be565b612f55565b60405161041e9190614a95565b60405180910390f35b610441600480360381019061043c9190614384565b6130e1565b60405161044e9190614b39565b60405180910390f35b61045f613139565b60405161046c9190614a95565b60405180910390f35b61048f600480360381019061048a919061455b565b6131d4565b60405161049d929190614a4a565b60405180910390f35b6104c060048036038101906104bb91906144b3565b613239565b6040516104cd9190614a7a565b60405180910390f35b6104f060048036038101906104eb9190614438565b61334d565b005b61050c600480360381019061050791906143e9565b613426565b6040516105199190614b86565b60405180910390f35b61053c600480360381019061053791906143ad565b613648565b6040516105499190614b39565b60405180910390f35b61055a61385e565b005b610576600480360381019061057191906144ef565b613a55565b005b3073ffffffffffffffffffffffffffffffffffffffff163373ffffffffffffffffffffffffffffffffffffffff16146040518060400160405280600f81526020017f496e7465726e616c206d6574686f6400000000000000000000000000000000008152509061061e576040517f08c379a00000000000000000000000000000000000000000000000000000000081526004016106159190614a95565b60405180910390fd5b506000610629613b72565b905060008160070160008573ffffffffffffffffffffffffffffffffffffffff1673ffffffffffffffffffffffffffffffffffffffff16815260200190815260200160002060008473ffffffffffffffffffffffffffffffffffffffff1673ffffffffffffffffffffffffffffffffffffffff168152602001908152602001600020819055506107058260008360080160008773ffffffffffffffffffffffffffffffffffffffff1673ffffffffffffffffffffffffffffffffffffffff168152602001908152602001600020613b9a9092919063ffffffff16565b61075b8360008360090160008673ffffffffffffffffffffffffffffffffffffffff1673ffffffffffffffffffffffffffffffffffffffff168152602001908152602001600020613b9a9092919063ffffffff16565b8173ffffffffffffffffffffffffffffffffffffffff168373ffffffffffffffffffffffffffffffffffffffff167f26b05c87141e7af7338d66d51fdd307c37ba1ddc85c6fb74ce01042ebcc17a7c60405160405180910390a3505050565b60006107c4613b72565b60080160008373ffffffffffffffffffffffffffffffffffffffff1673ffffffffffffffffffffffffffffffffffffffff168152602001908152602001600020600101805490509050919050565b606061081c613b72565b600101805461082a90614de0565b80601f016020809104026020016040519081016040528092919081815260200182805461085690614de0565b80156108a35780601f10610878576101008083540402835291602001916108a3565b820191906000526020600020905b81548152906001019060200180831161088657829003601f168201915b5050505050905090565b60003073ffffffffffffffffffffffffffffffffffffffff16635480699a3385856040518463ffffffff1660e01b81526004016108ec93929190614a13565b600060405180830381600087803b15801561090657600080fd5b505af115801561091a573d6000803e3d6000fd5b505050506001905092915050565b333073ffffffffffffffffffffffffffffffffffffffff1663a230c524826040518263ffffffff1660e01b81526004016109629190614973565b60206040518083038186803b15801561097a57600080fd5b505afa15801561098e573d6000803e3d6000fd5b505050506040513d601f19601f820116820180604052508101906109b291906145aa565b6040518060400160405280601881526020017f52657175697265732046415354206d656d62657273686970000000000000000081525090610a29576040517f08c379a0000000000000000000000000000000000000000000000000000000008152600401610a209190614a95565b60405180910390fd5b503073ffffffffffffffffffffffffffffffffffffffff166302ff104933846040518363ffffffff1660e01b8152600401610a6592919061498e565b600060405180830381600087803b158015610a7f57600080fd5b505af1158015610a93573d6000803e3d6000fd5b505050505050565b6000610aa5613b72565b60040154905090565b60606000610b07610abd613b72565b60080160008773ffffffffffffffffffffffffffffffffffffffff1673ffffffffffffffffffffffffffffffffffffffff1681526020019081526020016000206001018585613e50565b91509150935093915050565b6000610b568484846040518060400160405280601781526020017f556e737065636966696564202d2076696120455243323000000000000000000081525061334d565b600190509392505050565b610b69614013565b60000160029054906101000a900473ffffffffffffffffffffffffffffffffffffffff1673ffffffffffffffffffffffffffffffffffffffff1663a230c524336040518263ffffffff1660e01b8152600401610bc59190614973565b60206040518083038186803b158015610bdd57600080fd5b505afa158015610bf1573d6000803e3d6000fd5b505050506040513d601f19601f82011682018060405250810190610c1591906145aa565b6040518060400160405280601781526020017f526571756972657320535043206d656d6265727368697000000000000000000081525090610c8c576040517f08c379a0000000000000000000000000000000000000000000000000000000008152600401610c839190614a95565b60405180910390fd5b5080610c96613b72565b6005016000828254610ca89190614cbf565b925050819055503073ffffffffffffffffffffffffffffffffffffffff16634f2274c06040518163ffffffff1660e01b8152600401600060405180830381600087803b158015610cf757600080fd5b505af1158015610d0b573d6000803e3d6000fd5b505050503373ffffffffffffffffffffffffffffffffffffffff167f7cc75678011427765ae1f965e47e04223c08302df0151ddbf2df44f9e8572c3782604051610d559190614b39565b60405180910390a250565b6000610d6a613b72565b60030154905090565b3073ffffffffffffffffffffffffffffffffffffffff163373ffffffffffffffffffffffffffffffffffffffff16146040518060400160405280600f81526020017f496e7465726e616c206d6574686f64000000000000000000000000000000000081525090610e19576040517f08c379a0000000000000000000000000000000000000000000000000000000008152600401610e109190614a95565b60405180910390fd5b50806020016020810190610e2d9190614384565b600073ffffffffffffffffffffffffffffffffffffffff168173ffffffffffffffffffffffffffffffffffffffff1614611118573073ffffffffffffffffffffffffffffffffffffffff166311e549336040518163ffffffff1660e01b815260040160206040518083038186803b158015610ea757600080fd5b505afa158015610ebb573d6000803e3d6000fd5b505050506040513d601f19601f82011682018060405250810190610edf91906145aa565b1561101557610eec614013565b60010160009054906101000a900473ffffffffffffffffffffffffffffffffffffffff1673ffffffffffffffffffffffffffffffffffffffff1663a230c524826040518263ffffffff1660e01b8152600401610f489190614973565b60206040518083038186803b158015610f6057600080fd5b505afa158015610f74573d6000803e3d6000fd5b505050506040513d601f19601f82011682018060405250810190610f9891906145aa565b6040518060400160405280601c81526020017f52657175697265732045786368616e6765206d656d62657273686970000000008152509061100f576040517f08c379a00000000000000000000000000000000000000000000000000000000081526004016110069190614a95565b60405180910390fd5b50611117565b3073ffffffffffffffffffffffffffffffffffffffff1663a230c524826040518263ffffffff1660e01b815260040161104e9190614973565b60206040518083038186803b15801561106657600080fd5b505afa15801561107a573d6000803e3d6000fd5b505050506040513d601f19601f8201168201806040525081019061109e91906145aa565b6040518060400160405280601881526020017f52657175697265732046415354206d656d62657273686970000000000000000081525090611115576040517f08c379a000000000000000000000000000000000000000000000000000000000815260040161110c9190614a95565b60405180910390fd5b505b5b81604001602081019061112b9190614384565b600073ffffffffffffffffffffffffffffffffffffffff168173ffffffffffffffffffffffffffffffffffffffff1614611416573073ffffffffffffffffffffffffffffffffffffffff166311e549336040518163ffffffff1660e01b815260040160206040518083038186803b1580156111a557600080fd5b505afa1580156111b9573d6000803e3d6000fd5b505050506040513d601f19601f820116820180604052508101906111dd91906145aa565b15611313576111ea614013565b60010160009054906101000a900473ffffffffffffffffffffffffffffffffffffffff1673ffffffffffffffffffffffffffffffffffffffff1663a230c524826040518263ffffffff1660e01b81526004016112469190614973565b60206040518083038186803b15801561125e57600080fd5b505afa158015611272573d6000803e3d6000fd5b505050506040513d601f19601f8201168201806040525081019061129691906145aa565b6040518060400160405280601c81526020017f52657175697265732045786368616e6765206d656d62657273686970000000008152509061130d576040517f08c379a00000000000000000000000000000000000000000000000000000000081526004016113049190614a95565b60405180910390fd5b50611415565b3073ffffffffffffffffffffffffffffffffffffffff1663a230c524826040518263ffffffff1660e01b815260040161134c9190614973565b60206040518083038186803b15801561136457600080fd5b505afa158015611378573d6000803e3d6000fd5b505050506040513d601f19601f8201168201806040525081019061139c91906145aa565b6040518060400160405280601881526020017f52657175697265732046415354206d656d62657273686970000000000000000081525090611413576040517f08c379a000000000000000000000000000000000000000000000000000000000815260040161140a9190614a95565b60405180910390fd5b505b5b8260200160208101906114299190614384565b83604001602081019061143c9190614384565b8073ffffffffffffffffffffffffffffffffffffffff168273ffffffffffffffffffffffffffffffffffffffff16141560405180606001604052806027815260200161500260279139906114c6576040517f08c379a00000000000000000000000000000000000000000000000000000000081526004016114bd9190614a95565b60405180910390fd5b5060006114d1613b72565b905085606001358160060160008860200160208101906114f19190614384565b73ffffffffffffffffffffffffffffffffffffffff1673ffffffffffffffffffffffffffffffffffffffff1681526020019081526020016000205410156040518060400160405280601a81526020017f496e73756666696369656e7420746f6b656e2062616c616e6365000000000000815250906115a5576040517f08c379a000000000000000000000000000000000000000000000000000000000815260040161159c9190614a95565b60405180910390fd5b508560200160208101906115b99190614384565b73ffffffffffffffffffffffffffffffffffffffff168660000160208101906115e29190614384565b73ffffffffffffffffffffffffffffffffffffffff16146119b65785606001353073ffffffffffffffffffffffffffffffffffffffff1663dd62ed3e8860200160208101906116319190614384565b8960000160208101906116449190614384565b6040518363ffffffff1660e01b815260040161166192919061498e565b60206040518083038186803b15801561167957600080fd5b505afa15801561168d573d6000803e3d6000fd5b505050506040513d601f19601f820116820180604052508101906116b1919061463d565b10156040518060400160405280601681526020017f496e73756666696369656e7420616c6c6f77616e6365000000000000000000008152509061172a576040517f08c379a00000000000000000000000000000000000000000000000000000000081526004016117219190614a95565b60405180910390fd5b50600073ffffffffffffffffffffffffffffffffffffffff168660200160208101906117569190614384565b73ffffffffffffffffffffffffffffffffffffffff16146119b5578560600135816005015410156040518060400160405280601d81526020017f496e73756666696369656e74207472616e736665722063726564697473000000815250906117f4576040517f08c379a00000000000000000000000000000000000000000000000000000000081526004016117eb9190614a95565b60405180910390fd5b50600086606001358260070160008960200160208101906118159190614384565b73ffffffffffffffffffffffffffffffffffffffff1673ffffffffffffffffffffffffffffffffffffffff16815260200190815260200160002060008960000160208101906118649190614384565b73ffffffffffffffffffffffffffffffffffffffff1673ffffffffffffffffffffffffffffffffffffffff16815260200190815260200160002060008282546118ad9190614d15565b925050819055905060008114156119b3576119388760000160208101906118d49190614384565b60018460080160008b60200160208101906118ef9190614384565b73ffffffffffffffffffffffffffffffffffffffff1673ffffffffffffffffffffffffffffffffffffffff168152602001908152602001600020613b9a9092919063ffffffff16565b6119b287602001602081019061194e9190614384565b60018460090160008b60000160208101906119699190614384565b73ffffffffffffffffffffffffffffffffffffffff1673ffffffffffffffffffffffffffffffffffffffff168152602001908152602001600020613b9a9092919063ffffffff16565b5b505b5b85606001358160060160008860200160208101906119d49190614384565b73ffffffffffffffffffffffffffffffffffffffff1673ffffffffffffffffffffffffffffffffffffffff1681526020019081526020016000206000828254611a1d9190614d15565b925050819055508560600135816006016000886040016020810190611a429190614384565b73ffffffffffffffffffffffffffffffffffffffff1673ffffffffffffffffffffffffffffffffffffffff1681526020019081526020016000206000828254611a8b9190614cbf565b92505081905550600073ffffffffffffffffffffffffffffffffffffffff16866020016020810190611abd9190614384565b73ffffffffffffffffffffffffffffffffffffffff1614611af8578560600135816005016000828254611af09190614d15565b925050819055505b600073ffffffffffffffffffffffffffffffffffffffff16866040016020810190611b239190614384565b73ffffffffffffffffffffffffffffffffffffffff161415611bc3578560600135816004016000828254611b579190614d15565b925050819055503073ffffffffffffffffffffffffffffffffffffffff16634f2274c06040518163ffffffff1660e01b8152600401600060405180830381600087803b158015611ba657600080fd5b505af1158015611bba573d6000803e3d6000fd5b50505050611c8b565b600073ffffffffffffffffffffffffffffffffffffffff16866020016020810190611bee9190614384565b73ffffffffffffffffffffffffffffffffffffffff161415611c8a578560600135816004016000828254611c229190614cbf565b925050819055503073ffffffffffffffffffffffffffffffffffffffff16634f2274c06040518163ffffffff1660e01b8152600401600060405180830381600087803b158015611c7157600080fd5b505af1158015611c85573d6000803e3d6000fd5b505050505b5b3073ffffffffffffffffffffffffffffffffffffffff1663eee2dcc3876000016020810190611cba9190614384565b886020016020810190611ccd9190614384565b896040016020810190611ce09190614384565b8a606001358b8060800190611cf59190614ba1565b6040518763ffffffff1660e01b8152600401611d16969594939291906149b7565b600060405180830381600087803b158015611d3057600080fd5b505af1158015611d44573d6000803e3d6000fd5b50505050856040016020810190611d5b9190614384565b73ffffffffffffffffffffffffffffffffffffffff16866020016020810190611d849190614384565b73ffffffffffffffffffffffffffffffffffffffff167fddf252ad1be2c89b69c2b068fc378daa952ba7f163c4a11628f55a4df523b3ef8860600135604051611dcd9190614b39565b60405180910390a3505050505050565b3073ffffffffffffffffffffffffffffffffffffffff163373ffffffffffffffffffffffffffffffffffffffff16146040518060400160405280600f81526020017f496e7465726e616c206d6574686f64000000000000000000000000000000000081525090611e83576040517f08c379a0000000000000000000000000000000000000000000000000000000008152600401611e7a9190614a95565b60405180910390fd5b5082600073ffffffffffffffffffffffffffffffffffffffff168173ffffffffffffffffffffffffffffffffffffffff1614612170573073ffffffffffffffffffffffffffffffffffffffff166311e549336040518163ffffffff1660e01b815260040160206040518083038186803b158015611eff57600080fd5b505afa158015611f13573d6000803e3d6000fd5b505050506040513d601f19601f82011682018060405250810190611f3791906145aa565b1561206d57611f44614013565b60010160009054906101000a900473ffffffffffffffffffffffffffffffffffffffff1673ffffffffffffffffffffffffffffffffffffffff1663a230c524826040518263ffffffff1660e01b8152600401611fa09190614973565b60206040518083038186803b158015611fb857600080fd5b505afa158015611fcc573d6000803e3d6000fd5b505050506040513d601f19601f82011682018060405250810190611ff091906145aa565b6040518060400160405280601c81526020017f52657175697265732045786368616e6765206d656d626572736869700000000081525090612067576040517f08c379a000000000000000000000000000000000000000000000000000000000815260040161205e9190614a95565b60405180910390fd5b5061216f565b3073ffffffffffffffffffffffffffffffffffffffff1663a230c524826040518263ffffffff1660e01b81526004016120a69190614973565b60206040518083038186803b1580156120be57600080fd5b505afa1580156120d2573d6000803e3d6000fd5b505050506040513d601f19601f820116820180604052508101906120f691906145aa565b6040518060400160405280601881526020017f52657175697265732046415354206d656d6265727368697000000000000000008152509061216d576040517f08c379a00000000000000000000000000000000000000000000000000000000081526004016121649190614a95565b60405180910390fd5b505b5b600061217a613b72565b9050828160070160008773ffffffffffffffffffffffffffffffffffffffff1673ffffffffffffffffffffffffffffffffffffffff16815260200190815260200160002060008673ffffffffffffffffffffffffffffffffffffffff1673ffffffffffffffffffffffffffffffffffffffff168152602001908152602001600020600082825461220a9190614cbf565b925050819055506122678460018360080160008973ffffffffffffffffffffffffffffffffffffffff1673ffffffffffffffffffffffffffffffffffffffff16815260200190815260200160002061403b9092919063ffffffff16565b6122bd8560018360090160008873ffffffffffffffffffffffffffffffffffffffff1673ffffffffffffffffffffffffffffffffffffffff16815260200190815260200160002061403b9092919063ffffffff16565b8373ffffffffffffffffffffffffffffffffffffffff168573ffffffffffffffffffffffffffffffffffffffff167f8c5be1e5ebec7d5bd14f71427d1e84f3dd0314c0f7b2291e5b200ac8c7c3b9258560405161231a9190614b39565b60405180910390a35050505050565b3073ffffffffffffffffffffffffffffffffffffffff163373ffffffffffffffffffffffffffffffffffffffff16146040518060400160405280600f81526020017f496e7465726e616c206d6574686f640000000000000000000000000000000000815250906123cf576040517f08c379a00000000000000000000000000000000000000000000000000000000081526004016123c69190614a95565b60405180910390fd5b5060006123db82612698565b1461241b576040517f08c379a000000000000000000000000000000000000000000000000000000000815260040161241290614ab7565b60405180910390fd5b6000612425613b72565b905060008160080160008473ffffffffffffffffffffffffffffffffffffffff1673ffffffffffffffffffffffffffffffffffffffff16815260200190815260200160002060010190505b600081805490501115612553573073ffffffffffffffffffffffffffffffffffffffff166302ff104984836000815481106124d4577f4e487b7100000000000000000000000000000000000000000000000000000000600052603260045260246000fd5b9060005260206000200160009054906101000a900473ffffffffffffffffffffffffffffffffffffffff166040518363ffffffff1660e01b815260040161251c92919061498e565b600060405180830381600087803b15801561253657600080fd5b505af115801561254a573d6000803e3d6000fd5b50505050612470565b60008260090160008573ffffffffffffffffffffffffffffffffffffffff1673ffffffffffffffffffffffffffffffffffffffff16815260200190815260200160002060010190505b60008180549050111561267f573073ffffffffffffffffffffffffffffffffffffffff166302ff1049826000815481106125ff577f4e487b7100000000000000000000000000000000000000000000000000000000600052603260045260246000fd5b9060005260206000200160009054906101000a900473ffffffffffffffffffffffffffffffffffffffff16866040518363ffffffff1660e01b815260040161264892919061498e565b600060405180830381600087803b15801561266257600080fd5b505af1158015612676573d6000803e3d6000fd5b5050505061259c565b50505050565b600061268f613b72565b60050154905090565b60006126a2613b72565b60060160008373ffffffffffffffffffffffffffffffffffffffff1673ffffffffffffffffffffffffffffffffffffffff168152602001908152602001600020549050919050565b6126f2614013565b60000160029054906101000a900473ffffffffffffffffffffffffffffffffffffffff1673ffffffffffffffffffffffffffffffffffffffff1663a230c524336040518263ffffffff1660e01b815260040161274e9190614973565b60206040518083038186803b15801561276657600080fd5b505afa15801561277a573d6000803e3d6000fd5b505050506040513d601f19601f8201168201806040525081019061279e91906145aa565b6040518060400160405280601781526020017f526571756972657320535043206d656d6265727368697000000000000000000081525090612815576040517f08c379a000000000000000000000000000000000000000000000000000000000815260040161280c9190614a95565b60405180910390fd5b506000612820613b72565b90503073ffffffffffffffffffffffffffffffffffffffff1663ddb2d22b6040518163ffffffff1660e01b815260040160206040518083038186803b15801561286857600080fd5b505afa15801561287c573d6000803e3d6000fd5b505050506040513d601f19601f820116820180604052508101906128a091906145aa565b156040518060400160405280601a81526020017f526571756972657320636f6e74696e756f757320737570706c7900000000000081525090612918576040517f08c379a000000000000000000000000000000000000000000000000000000000815260040161290f9190614a95565b60405180910390fd5b50836129246000612698565b10156040518060400160405280601a81526020017f496e73756666696369656e7420746f6b656e2062616c616e63650000000000008152509061299d576040517f08c379a00000000000000000000000000000000000000000000000000000000081526004016129949190614a95565b60405180910390fd5b50838160060160008073ffffffffffffffffffffffffffffffffffffffff1673ffffffffffffffffffffffffffffffffffffffff16815260200190815260200160002060008282546129ef9190614d15565b925050819055503073ffffffffffffffffffffffffffffffffffffffff1663f4c1210c8585856040518463ffffffff1660e01b8152600401612a3393929190614b54565b600060405180830381600087803b158015612a4d57600080fd5b505af1158015612a61573d6000803e3d6000fd5b505050503073ffffffffffffffffffffffffffffffffffffffff16634f2274c06040518163ffffffff1660e01b8152600401600060405180830381600087803b158015612aad57600080fd5b505af1158015612ac1573d6000803e3d6000fd5b505050508282604051612ad592919061495a565b6040518091039020847f57307d0a4121422158dae7be68e769aa82d8631467b971e4fdfdf3ce9b4c8b7b60405160405180910390a350505050565b612b18614013565b60000160029054906101000a900473ffffffffffffffffffffffffffffffffffffffff1673ffffffffffffffffffffffffffffffffffffffff1663a230c524336040518263ffffffff1660e01b8152600401612b749190614973565b60206040518083038186803b158015612b8c57600080fd5b505afa158015612ba0573d6000803e3d6000fd5b505050506040513d601f19601f82011682018060405250810190612bc491906145aa565b6040518060400160405280601781526020017f526571756972657320535043206d656d6265727368697000000000000000000081525090612c3b576040517f08c379a0000000000000000000000000000000000000000000000000000000008152600401612c329190614a95565b60405180910390fd5b506000612c46613b72565b90503073ffffffffffffffffffffffffffffffffffffffff1663ddb2d22b6040518163ffffffff1660e01b815260040160206040518083038186803b158015612c8e57600080fd5b505afa158015612ca2573d6000803e3d6000fd5b505050506040513d601f19601f82011682018060405250810190612cc691906145aa565b1580612d6b575060008160040154148015612d6a575060003073ffffffffffffffffffffffffffffffffffffffff166370a0823160006040518263ffffffff1660e01b8152600401612d189190614973565b60206040518083038186803b158015612d3057600080fd5b505afa158015612d44573d6000803e3d6000fd5b505050506040513d601f19601f82011682018060405250810190612d68919061463d565b145b5b6040518060400160405280601a81526020017f526571756972657320636f6e74696e756f757320737570706c7900000000000081525090612de2576040517f08c379a0000000000000000000000000000000000000000000000000000000008152600401612dd99190614a95565b60405180910390fd5b50838160060160008073ffffffffffffffffffffffffffffffffffffffff1673ffffffffffffffffffffffffffffffffffffffff1681526020019081526020016000206000828254612e349190614cbf565b925050819055503073ffffffffffffffffffffffffffffffffffffffff1663af2e757b8585856040518463ffffffff1660e01b8152600401612e7893929190614b54565b600060405180830381600087803b158015612e9257600080fd5b505af1158015612ea6573d6000803e3d6000fd5b505050503073ffffffffffffffffffffffffffffffffffffffff16634f2274c06040518163ffffffff1660e01b8152600401600060405180830381600087803b158015612ef257600080fd5b505af1158015612f06573d6000803e3d6000fd5b505050508282604051612f1a92919061495a565b6040518091039020847fadef11a3979b8ceb0573eb6ef0678134a09c23a0d94e5ea47cd18ac3a9fc019460405160405180910390a350505050565b6060600160ff168260ff161415612fa3576040518060400160405280601d81526020017f496e73756666696369656e74207472616e73666572206372656469747300000081525090506130dc565b600360ff168260ff161415612fef576040518060400160405280601c81526020017f52657175697265732045786368616e6765206d656d626572736869700000000081525090506130dc565b600260ff168260ff16141561303b576040518060400160405280601881526020017f52657175697265732046415354206d656d62657273686970000000000000000081525090506130dc565b600460ff168260ff16141561306a576040518060600160405280602781526020016150026027913990506130dc565b6040518060400160405280601881526020017f556e6b6e6f776e207265737472696374696f6e20636f646500000000000000008152506040517f08c379a00000000000000000000000000000000000000000000000000000000081526004016130d39190614a95565b60405180910390fd5b919050565b60006130eb613b72565b60090160008373ffffffffffffffffffffffffffffffffffffffff1673ffffffffffffffffffffffffffffffffffffffff168152602001908152602001600020600101805490509050919050565b6060613143613b72565b600201805461315190614de0565b80601f016020809104026020016040519081016040528092919081815260200182805461317d90614de0565b80156131ca5780601f1061319f576101008083540402835291602001916131ca565b820191906000526020600020905b8154815290600101906020018083116131ad57829003601f168201915b5050505050905090565b6060600061322d6131e3613b72565b60090160008773ffffffffffffffffffffffffffffffffffffffff1673ffffffffffffffffffffffffffffffffffffffff1681526020019081526020016000206001018585613e50565b91509150935093915050565b60003073ffffffffffffffffffffffffffffffffffffffff166344890ae06040518060a001604052803373ffffffffffffffffffffffffffffffffffffffff1681526020013373ffffffffffffffffffffffffffffffffffffffff1681526020018673ffffffffffffffffffffffffffffffffffffffff1681526020018581526020016040518060400160405280601781526020017f556e737065636966696564202d207669612045524332300000000000000000008152508152506040518263ffffffff1660e01b81526004016133119190614b17565b600060405180830381600087803b15801561332b57600080fd5b505af115801561333f573d6000803e3d6000fd5b505050506001905092915050565b3073ffffffffffffffffffffffffffffffffffffffff166344890ae06040518060a001604052803373ffffffffffffffffffffffffffffffffffffffff1681526020018773ffffffffffffffffffffffffffffffffffffffff1681526020018673ffffffffffffffffffffffffffffffffffffffff168152602001858152602001848152506040518263ffffffff1660e01b81526004016133ee9190614b17565b600060405180830381600087803b15801561340857600080fd5b505af115801561341c573d6000803e3d6000fd5b5050505050505050565b600080613431613b72565b90508281600501541015613449576001915050613641565b3073ffffffffffffffffffffffffffffffffffffffff1663a230c524866040518263ffffffff1660e01b81526004016134829190614973565b60206040518083038186803b15801561349a57600080fd5b505afa1580156134ae573d6000803e3d6000fd5b505050506040513d601f19601f820116820180604052508101906134d291906145aa565b158061356457503073ffffffffffffffffffffffffffffffffffffffff1663a230c524856040518263ffffffff1660e01b81526004016135129190614973565b60206040518083038186803b15801561352a57600080fd5b505afa15801561353e573d6000803e3d6000fd5b505050506040513d601f19601f8201168201806040525081019061356291906145aa565b155b156135fd573073ffffffffffffffffffffffffffffffffffffffff166311e549336040518163ffffffff1660e01b815260040160206040518083038186803b1580156135af57600080fd5b505afa1580156135c3573d6000803e3d6000fd5b505050506040513d601f19601f820116820180604052508101906135e791906145aa565b6135f25760026135f5565b60035b915050613641565b8373ffffffffffffffffffffffffffffffffffffffff168573ffffffffffffffffffffffffffffffffffffffff16141561363b576004915050613641565b60009150505b9392505050565b600080613653613b72565b9050600073ffffffffffffffffffffffffffffffffffffffff168473ffffffffffffffffffffffffffffffffffffffff1614156137d5573073ffffffffffffffffffffffffffffffffffffffff1663e43581b8846040518263ffffffff1660e01b81526004016136c39190614973565b60206040518083038186803b1580156136db57600080fd5b505afa1580156136ef573d6000803e3d6000fd5b505050506040513d601f19601f8201168201806040525081019061371391906145aa565b6040518060400160405280601a81526020017f5265717569726573204641535420676f7665726e6f72736869700000000000008152509061378a576040517f08c379a00000000000000000000000000000000000000000000000000000000081526004016137819190614a95565b60405180910390fd5b508060060160008573ffffffffffffffffffffffffffffffffffffffff1673ffffffffffffffffffffffffffffffffffffffff16815260200190815260200160002054915050613858565b8060070160008573ffffffffffffffffffffffffffffffffffffffff1673ffffffffffffffffffffffffffffffffffffffff16815260200190815260200160002060008473ffffffffffffffffffffffffffffffffffffffff1673ffffffffffffffffffffffffffffffffffffffff168152602001908152602001600020549150505b92915050565b613866614013565b60000160029054906101000a900473ffffffffffffffffffffffffffffffffffffffff1673ffffffffffffffffffffffffffffffffffffffff1663a230c524336040518263ffffffff1660e01b81526004016138c29190614973565b60206040518083038186803b1580156138da57600080fd5b505afa1580156138ee573d6000803e3d6000fd5b505050506040513d601f19601f8201168201806040525081019061391291906145aa565b6040518060400160405280601781526020017f526571756972657320535043206d656d6265727368697000000000000000000081525090613989576040517f08c379a00000000000000000000000000000000000000000000000000000000081526004016139809190614a95565b60405180910390fd5b506000613994613b72565b90503373ffffffffffffffffffffffffffffffffffffffff167fb5ffee8da10703700415cbf7e501408eb3da0c5dff8eae740afca33b2a2db96882600501546040516139e09190614b39565b60405180910390a2600081600501819055503073ffffffffffffffffffffffffffffffffffffffff16634f2274c06040518163ffffffff1660e01b8152600401600060405180830381600087803b158015613a3a57600080fd5b505af1158015613a4e573d6000803e3d6000fd5b5050505050565b3073ffffffffffffffffffffffffffffffffffffffff166344890ae06040518060a001604052803373ffffffffffffffffffffffffffffffffffffffff1681526020013373ffffffffffffffffffffffffffffffffffffffff1681526020018773ffffffffffffffffffffffffffffffffffffffff16815260200186815260200185858080601f016020809104026020016040519081016040528093929190818152602001838380828437600081840152601f19601f820116905080830192505050505050508152506040518263ffffffff1660e01b8152600401613b3a9190614b17565b600060405180830381600087803b158015613b5457600080fd5b505af1158015613b68573d6000803e3d6000fd5b5050505050505050565b60007fb098747b87c5c0e2a32eb9b06725e9bad4263809bcda628ceadc1a686bcb8261905090565b6000613ba68484614158565b9050818015613bb3575080155b15613bbe5750613e4b565b80613bfe576040517f08c379a0000000000000000000000000000000000000000000000000000000008152600401613bf590614af7565b60405180910390fd5b600060018560010180549050613c149190614d15565b90506000856001018281548110613c54577f4e487b7100000000000000000000000000000000000000000000000000000000600052603260045260246000fd5b9060005260206000200160009054906101000a900473ffffffffffffffffffffffffffffffffffffffff16905060008660000160008773ffffffffffffffffffffffffffffffffffffffff1673ffffffffffffffffffffffffffffffffffffffff168152602001908152602001600020549050808760000160008473ffffffffffffffffffffffffffffffffffffffff1673ffffffffffffffffffffffffffffffffffffffff1681526020019081526020016000208190555081876001018281548110613d4a577f4e487b7100000000000000000000000000000000000000000000000000000000600052603260045260246000fd5b9060005260206000200160006101000a81548173ffffffffffffffffffffffffffffffffffffffff021916908373ffffffffffffffffffffffffffffffffffffffff1602179055508660000160008773ffffffffffffffffffffffffffffffffffffffff1673ffffffffffffffffffffffffffffffffffffffff1681526020019081526020016000206000905586600101805480613e11577f4e487b7100000000000000000000000000000000000000000000000000000000600052603160045260246000fd5b6001900381819060005260206000200160006101000a81549073ffffffffffffffffffffffffffffffffffffffff02191690559055505050505b505050565b6060600080848680549050613e659190614d15565b8411613e715783613e82565b848680549050613e819190614d15565b5b905060008167ffffffffffffffff811115613ec6577f4e487b7100000000000000000000000000000000000000000000000000000000600052604160045260246000fd5b604051908082528060200260200182016040528015613ef45781602001602082028036833780820191505090505b50905060005b82811015613ff757878188613f0f9190614cbf565b81548110613f46577f4e487b7100000000000000000000000000000000000000000000000000000000600052603260045260246000fd5b9060005260206000200160009054906101000a900473ffffffffffffffffffffffffffffffffffffffff16828281518110613faa577f4e487b7100000000000000000000000000000000000000000000000000000000600052603260045260246000fd5b602002602001019073ffffffffffffffffffffffffffffffffffffffff16908173ffffffffffffffffffffffffffffffffffffffff16815250508080613fef90614e43565b915050613efa565b508082876140059190614cbf565b935093505050935093915050565b60007f80c187ea6f955fd624c41fb7a18011cc87d98c6f4c06d897b59142f65707e705905090565b60006140478484614158565b90508180156140535750805b1561405e5750614153565b801561409f576040517f08c379a000000000000000000000000000000000000000000000000000000000815260040161409690614ad7565b60405180910390fd5b83600101805490508460000160008573ffffffffffffffffffffffffffffffffffffffff1673ffffffffffffffffffffffffffffffffffffffff1681526020019081526020016000208190555083600101839080600181540180825580915050600190039060005260206000200160009091909190916101000a81548173ffffffffffffffffffffffffffffffffffffffff021916908373ffffffffffffffffffffffffffffffffffffffff160217905550505b505050565b600080836001018054905014614243578173ffffffffffffffffffffffffffffffffffffffff16836001018460000160008573ffffffffffffffffffffffffffffffffffffffff1673ffffffffffffffffffffffffffffffffffffffff16815260200190815260200160002054815481106141fc577f4e487b7100000000000000000000000000000000000000000000000000000000600052603260045260246000fd5b9060005260206000200160009054906101000a900473ffffffffffffffffffffffffffffffffffffffff1673ffffffffffffffffffffffffffffffffffffffff1614614246565b60005b905092915050565b600061426161425c84614c1d565b614bf8565b90508281526020810184848401111561427957600080fd5b614284848285614d9e565b509392505050565b60008135905061429b81614fa5565b92915050565b6000815190506142b081614fbc565b92915050565b60008083601f8401126142c857600080fd5b8235905067ffffffffffffffff8111156142e157600080fd5b6020830191508360018202830111156142f957600080fd5b9250929050565b600082601f83011261431157600080fd5b813561432184826020860161424e565b91505092915050565b600060a0828403121561433c57600080fd5b81905092915050565b60008135905061435481614fd3565b92915050565b60008151905061436981614fd3565b92915050565b60008135905061437e81614fea565b92915050565b60006020828403121561439657600080fd5b60006143a48482850161428c565b91505092915050565b600080604083850312156143c057600080fd5b60006143ce8582860161428c565b92505060206143df8582860161428c565b9150509250929050565b6000806000606084860312156143fe57600080fd5b600061440c8682870161428c565b935050602061441d8682870161428c565b925050604061442e86828701614345565b9150509250925092565b6000806000806080858703121561444e57600080fd5b600061445c8782880161428c565b945050602061446d8782880161428c565b935050604061447e87828801614345565b925050606085013567ffffffffffffffff81111561449b57600080fd5b6144a787828801614300565b91505092959194509250565b600080604083850312156144c657600080fd5b60006144d48582860161428c565b92505060206144e585828601614345565b9150509250929050565b6000806000806060858703121561450557600080fd5b60006145138782880161428c565b945050602061452487828801614345565b935050604085013567ffffffffffffffff81111561454157600080fd5b61454d878288016142b6565b925092505092959194509250565b60008060006060848603121561457057600080fd5b600061457e8682870161428c565b935050602061458f86828701614345565b92505060406145a086828701614345565b9150509250925092565b6000602082840312156145bc57600080fd5b60006145ca848285016142a1565b91505092915050565b6000602082840312156145e557600080fd5b600082013567ffffffffffffffff8111156145ff57600080fd5b61460b8482850161432a565b91505092915050565b60006020828403121561462657600080fd5b600061463484828501614345565b91505092915050565b60006020828403121561464f57600080fd5b600061465d8482850161435a565b91505092915050565b60008060006040848603121561467b57600080fd5b600061468986828701614345565b935050602084013567ffffffffffffffff8111156146a657600080fd5b6146b2868287016142b6565b92509250509250925092565b6000602082840312156146d057600080fd5b60006146de8482850161436f565b91505092915050565b60006146f383836146ff565b60208301905092915050565b61470881614d49565b82525050565b61471781614d49565b82525050565b600061472882614c5e565b6147328185614c81565b935061473d83614c4e565b8060005b8381101561476e57815161475588826146e7565b975061476083614c74565b925050600181019050614741565b5085935050505092915050565b61478481614d5b565b82525050565b60006147968385614ca3565b93506147a3838584614d9e565b6147ac83614f19565b840190509392505050565b60006147c38385614cb4565b93506147d0838584614d9e565b82840190509392505050565b60006147e782614c69565b6147f18185614c92565b9350614801818560208601614dad565b61480a81614f19565b840191505092915050565b600061482082614c69565b61482a8185614ca3565b935061483a818560208601614dad565b61484381614f19565b840191505092915050565b600061485b601383614ca3565b915061486682614f2a565b602082019050919050565b600061487e601683614ca3565b915061488982614f53565b602082019050919050565b60006148a1601d83614ca3565b91506148ac82614f7c565b602082019050919050565b600060a0830160008301516148cf60008601826146ff565b5060208301516148e260208601826146ff565b5060408301516148f560408601826146ff565b506060830151614908606086018261492d565b506080830151848203608086015261492082826147dc565b9150508091505092915050565b61493681614d87565b82525050565b61494581614d87565b82525050565b61495481614d91565b82525050565b60006149678284866147b7565b91508190509392505050565b6000602082019050614988600083018461470e565b92915050565b60006040820190506149a3600083018561470e565b6149b0602083018461470e565b9392505050565b600060a0820190506149cc600083018961470e565b6149d9602083018861470e565b6149e6604083018761470e565b6149f3606083018661493c565b8181036080830152614a0681848661478a565b9050979650505050505050565b6000606082019050614a28600083018661470e565b614a35602083018561470e565b614a42604083018461493c565b949350505050565b60006040820190508181036000830152614a64818561471d565b9050614a73602083018461493c565b9392505050565b6000602082019050614a8f600083018461477b565b92915050565b60006020820190508181036000830152614aaf8184614815565b905092915050565b60006020820190508181036000830152614ad08161484e565b9050919050565b60006020820190508181036000830152614af081614871565b9050919050565b60006020820190508181036000830152614b1081614894565b9050919050565b60006020820190508181036000830152614b3181846148b7565b905092915050565b6000602082019050614b4e600083018461493c565b92915050565b6000604082019050614b69600083018661493c565b8181036020830152614b7c81848661478a565b9050949350505050565b6000602082019050614b9b600083018461494b565b92915050565b60008083356001602003843603038112614bba57600080fd5b80840192508235915067ffffffffffffffff821115614bd857600080fd5b602083019250600182023603831315614bf057600080fd5b509250929050565b6000614c02614c13565b9050614c0e8282614e12565b919050565b6000604051905090565b600067ffffffffffffffff821115614c3857614c37614eea565b5b614c4182614f19565b9050602081019050919050565b6000819050602082019050919050565b600081519050919050565b600081519050919050565b6000602082019050919050565b600082825260208201905092915050565b600082825260208201905092915050565b600082825260208201905092915050565b600081905092915050565b6000614cca82614d87565b9150614cd583614d87565b9250827fffffffffffffffffffffffffffffffffffffffffffffffffffffffffffffffff03821115614d0a57614d09614e8c565b5b828201905092915050565b6000614d2082614d87565b9150614d2b83614d87565b925082821015614d3e57614d3d614e8c565b5b828203905092915050565b6000614d5482614d67565b9050919050565b60008115159050919050565b600073ffffffffffffffffffffffffffffffffffffffff82169050919050565b6000819050919050565b600060ff82169050919050565b82818337600083830152505050565b60005b83811015614dcb578082015181840152602081019050614db0565b83811115614dda576000848401525b50505050565b60006002820490506001821680614df857607f821691505b60208210811415614e0c57614e0b614ebb565b5b50919050565b614e1b82614f19565b810181811067ffffffffffffffff82111715614e3a57614e39614eea565b5b80604052505050565b6000614e4e82614d87565b91507fffffffffffffffffffffffffffffffffffffffffffffffffffffffffffffffff821415614e8157614e80614e8c565b5b600182019050919050565b7f4e487b7100000000000000000000000000000000000000000000000000000000600052601160045260246000fd5b7f4e487b7100000000000000000000000000000000000000000000000000000000600052602260045260246000fd5b7f4e487b7100000000000000000000000000000000000000000000000000000000600052604160045260246000fd5b6000601f19601f8301169050919050565b7f42616c616e636520697320706f73697469766500000000000000000000000000600082015250565b7f4164647265737320616c726561647920696e2073657400000000000000000000600082015250565b7f4164647265737320646f6573206e6f7420657869737420696e20736574000000600082015250565b614fae81614d49565b8114614fb957600080fd5b50565b614fc581614d5b565b8114614fd057600080fd5b50565b614fdc81614d87565b8114614fe757600080fd5b50565b614ff381614d91565b8114614ffe57600080fd5b5056fe526571756972657320646966666572656e742073656e64657220616e6420726563697069656e74a26469706673582212205562f87d47585c940b6386c6156bed6fc8d397413015a03cfb5de8a74e92c6c864736f6c63430008040033",
  "devdoc": {
    "kind": "dev",
    "methods": {
      "allowance(address,address)": {
        "details": "Returns the remaining number of tokens that `spender` will be allowed to spend on behalf of `owner` through {transferFrom}. This is zero by default. This value changes when {approve} or {transferFrom} are called."
      },
      "approve(address,uint256)": {
        "details": "Sets `amount` as the allowance of `spender` over the caller's tokens. Returns a boolean value indicating whether the operation succeeded. IMPORTANT: Beware that changing an allowance with this method brings the risk that someone may use both the old and the new allowance by unfortunate transaction ordering. One possible solution to mitigate this race condition is to first reduce the spender's allowance to 0 and set the desired value afterwards: https://github.com/ethereum/EIPs/issues/20#issuecomment-263524729 Emits an {Approval} event."
      },
      "totalSupply()": {
        "details": "Returns the amount of tokens in existence."
      }
    },
    "version": 1
  },
  "userdoc": {
    "kind": "user",
    "methods": {
      "detectTransferRestriction(address,address,uint256)": {
        "notice": "ERC1404 implementation."
      },
      "givenAllowanceCount(address)": {
        "notice": "Allowances query operations."
      },
      "mint(uint256,string)": {
        "notice": "Minting methods."
      },
      "name()": {
        "notice": "ERC20 implementation and transfer related methods."
      },
      "transferCredits()": {
        "notice": "Tranfer Credit management."
      }
    },
    "version": 1
  },
  "storageLayout": {
    "storage": [],
    "types": null
  }
}