{
  "address": "0xc55257182e050Bc25dbAC439C6E4570E9d4605f8",
  "abi": [
    {
      "anonymous": false,
      "inputs": [
        {
          "indexed": true,
          "internalType": "address",
          "name": "owner",
          "type": "address"
        },
        {
          "indexed": true,
          "internalType": "address",
          "name": "spender",
          "type": "address"
        },
        {
          "indexed": false,
          "internalType": "uint256",
          "name": "value",
          "type": "uint256"
        }
      ],
      "name": "Approval",
      "type": "event"
    },
    {
      "anonymous": false,
      "inputs": [
        {
          "indexed": true,
          "internalType": "uint256",
          "name": "amount",
          "type": "uint256"
        },
        {
          "indexed": true,
          "internalType": "string",
          "name": "ref",
          "type": "string"
        }
      ],
      "name": "Burnt",
      "type": "event"
    },
    {
      "anonymous": false,
      "inputs": [
        {
          "indexed": false,
          "internalType": "uint256",
          "name": "memberCount",
          "type": "uint256"
        },
        {
          "indexed": false,
          "internalType": "uint256",
          "name": "governorCount",
          "type": "uint256"
        },
        {
          "indexed": false,
          "internalType": "uint256",
          "name": "totalSupply",
          "type": "uint256"
        },
        {
          "indexed": false,
          "internalType": "uint256",
          "name": "transferCredits",
          "type": "uint256"
        },
        {
          "indexed": false,
          "internalType": "uint256",
          "name": "reserveBalance",
          "type": "uint256"
        },
        {
          "indexed": false,
          "internalType": "uint256",
          "name": "ethBalance",
          "type": "uint256"
        }
      ],
      "name": "DetailsChanged",
      "type": "event"
    },
    {
      "anonymous": false,
      "inputs": [
        {
          "indexed": true,
          "internalType": "address",
          "name": "owner",
          "type": "address"
        },
        {
          "indexed": true,
          "internalType": "address",
          "name": "spender",
          "type": "address"
        }
      ],
      "name": "Disapproval",
      "type": "event"
    },
    {
      "anonymous": false,
      "inputs": [
        {
          "indexed": true,
          "internalType": "address",
          "name": "to",
          "type": "address"
        },
        {
          "indexed": false,
          "internalType": "uint256",
          "name": "amount",
          "type": "uint256"
        }
      ],
      "name": "EthDrained",
      "type": "event"
    },
    {
      "anonymous": false,
      "inputs": [
        {
          "indexed": true,
          "internalType": "address",
          "name": "from",
          "type": "address"
        },
        {
          "indexed": false,
          "internalType": "uint256",
          "name": "amount",
          "type": "uint256"
        }
      ],
      "name": "EthReceived",
      "type": "event"
    },
    {
      "anonymous": false,
      "inputs": [
        {
          "indexed": true,
          "internalType": "address",
          "name": "governor",
          "type": "address"
        }
      ],
      "name": "GovernorAdded",
      "type": "event"
    },
    {
      "anonymous": false,
      "inputs": [
        {
          "indexed": true,
          "internalType": "address",
          "name": "governor",
          "type": "address"
        }
      ],
      "name": "GovernorRemoved",
      "type": "event"
    },
    {
      "anonymous": false,
      "inputs": [
        {
          "indexed": true,
          "internalType": "address",
          "name": "governor",
          "type": "address"
        }
      ],
      "name": "MemberAdded",
      "type": "event"
    },
    {
      "anonymous": false,
      "inputs": [
        {
          "indexed": true,
          "internalType": "address",
          "name": "governor",
          "type": "address"
        }
      ],
      "name": "MemberRemoved",
      "type": "event"
    },
    {
      "anonymous": false,
      "inputs": [
        {
          "indexed": true,
          "internalType": "uint256",
          "name": "amount",
          "type": "uint256"
        },
        {
          "indexed": true,
          "internalType": "string",
          "name": "ref",
          "type": "string"
        }
      ],
      "name": "Minted",
      "type": "event"
    },
    {
      "anonymous": false,
      "inputs": [
        {
          "indexed": true,
          "internalType": "address",
          "name": "from",
          "type": "address"
        },
        {
          "indexed": true,
          "internalType": "address",
          "name": "to",
          "type": "address"
        },
        {
          "indexed": false,
          "internalType": "uint256",
          "name": "value",
          "type": "uint256"
        }
      ],
      "name": "Transfer",
      "type": "event"
    },
    {
      "anonymous": false,
      "inputs": [
        {
          "indexed": true,
          "internalType": "address",
          "name": "spcMember",
          "type": "address"
        },
        {
          "indexed": false,
          "internalType": "uint256",
          "name": "amount",
          "type": "uint256"
        }
      ],
      "name": "TransferCreditsAdded",
      "type": "event"
    },
    {
      "anonymous": false,
      "inputs": [
        {
          "indexed": true,
          "internalType": "address",
          "name": "spcMember",
          "type": "address"
        },
        {
          "indexed": false,
          "internalType": "uint256",
          "name": "amount",
          "type": "uint256"
        }
      ],
      "name": "TransferCreditsDrained",
      "type": "event"
    },
    {
      "inputs": [],
      "name": "drainEth",
      "outputs": [],
      "stateMutability": "nonpayable",
      "type": "function"
    },
    {
      "inputs": [],
      "name": "exchangeAddress",
      "outputs": [
        {
          "internalType": "address",
          "name": "",
          "type": "address"
        }
      ],
      "stateMutability": "view",
      "type": "function"
    },
    {
      "inputs": [],
      "name": "hasFixedSupply",
      "outputs": [
        {
          "internalType": "bool",
          "name": "",
          "type": "bool"
        }
      ],
      "stateMutability": "view",
      "type": "function"
    },
    {
      "inputs": [],
      "name": "isSemiPublic",
      "outputs": [
        {
          "internalType": "bool",
          "name": "",
          "type": "bool"
        }
      ],
      "stateMutability": "view",
      "type": "function"
    },
    {
      "inputs": [
        {
          "internalType": "address payable",
          "name": "recipient",
          "type": "address"
        },
        {
          "internalType": "uint256",
          "name": "amount",
          "type": "uint256"
        }
      ],
      "name": "payUpTo",
      "outputs": [],
      "stateMutability": "nonpayable",
      "type": "function"
    },
    {
      "inputs": [],
      "name": "provisionWithEth",
      "outputs": [],
      "stateMutability": "payable",
      "type": "function"
    },
    {
      "inputs": [
        {
          "internalType": "bool",
          "name": "flag",
          "type": "bool"
        }
      ],
      "name": "setIsSemiPublic",
      "outputs": [],
      "stateMutability": "nonpayable",
      "type": "function"
    },
    {
      "inputs": [],
      "name": "spcAddress",
      "outputs": [
        {
          "internalType": "address",
          "name": "",
          "type": "address"
        }
      ],
      "stateMutability": "view",
      "type": "function"
    }
  ],
  "transactionHash": "0xeba7728191b3c1bd2198571b9191d8be9ae8be0e18deefcb62752d703569b589",
  "args": [],
  "numDeployments": 2,
  "solcInputHash": "67bb5c867831a56d763137128047fd14",
  "bytecode": "0x608060405234801561001057600080fd5b50611007806100206000396000f3fe60806040526004361061007b5760003560e01c80638a80e9551161004e5780638a80e955146100f75780639cd0160514610120578063d65cd0101461014b578063ddb2d22b146101745761007b565b80630baac66f1461008057806311e54933146100975780633eca424b146100c2578063582d2b37146100cc575b600080fd5b34801561008c57600080fd5b5061009561019f565b005b3480156100a357600080fd5b506100ac610463565b6040516100b99190610e17565b60405180910390f35b6100ca610483565b005b3480156100d857600080fd5b506100e16105af565b6040516100ee9190610dfc565b60405180910390f35b34801561010357600080fd5b5061011e60048036038101906101199190610d08565b6105e2565b005b34801561012c57600080fd5b50610135610876565b6040516101429190610dfc565b60405180910390f35b34801561015757600080fd5b50610172600480360381019061016d9190610d44565b6108a9565b005b34801561018057600080fd5b50610189610be3565b6040516101969190610e17565b60405180910390f35b6101a7610c03565b60000160029054906101000a900473ffffffffffffffffffffffffffffffffffffffff1673ffffffffffffffffffffffffffffffffffffffff1663a230c524336040518263ffffffff1660e01b81526004016102039190610dfc565b60206040518083038186803b15801561021b57600080fd5b505afa15801561022f573d6000803e3d6000fd5b505050506040513d601f19601f820116820180604052508101906102539190610d6d565b6040518060400160405280601781526020017f526571756972657320535043206d656d62657273686970000000000000000000815250906102ca576040517f08c379a00000000000000000000000000000000000000000000000000000000081526004016102c19190610e32565b60405180910390fd5b50336102d581610c2b565b156040518060400160405280601c81526020017f416464726573732063616e6e6f74206265206120636f6e7472616374000000008152509061034d576040517f08c379a00000000000000000000000000000000000000000000000000000000081526004016103449190610e32565b60405180910390fd5b5060003073ffffffffffffffffffffffffffffffffffffffff163190503373ffffffffffffffffffffffffffffffffffffffff166108fc829081150290604051600060405180830381858888f193505050501580156103b0573d6000803e3d6000fd5b503373ffffffffffffffffffffffffffffffffffffffff167fd5a7a0257eadbfea7ac4432ca8fe62ac277d64736ab6ef67f11abf238a1e0f1a826040516103f79190610e54565b60405180910390a23073ffffffffffffffffffffffffffffffffffffffff16634f2274c06040518163ffffffff1660e01b8152600401600060405180830381600087803b15801561044757600080fd5b505af115801561045b573d6000803e3d6000fd5b505050505050565b600061046d610c03565b60010160159054906101000a900460ff16905090565b600034116040518060400160405280601481526020017f4d697373696e6720617474616368656420455448000000000000000000000000815250906104fe576040517f08c379a00000000000000000000000000000000000000000000000000000000081526004016104f59190610e32565b60405180910390fd5b503373ffffffffffffffffffffffffffffffffffffffff167f85177f287940f2f05425a4029951af0e047a7f9c4eaa9a6e6917bcd869f86695346040516105459190610e54565b60405180910390a23073ffffffffffffffffffffffffffffffffffffffff16634f2274c06040518163ffffffff1660e01b8152600401600060405180830381600087803b15801561059557600080fd5b505af11580156105a9573d6000803e3d6000fd5b50505050565b60006105b9610c03565b60000160029054906101000a900473ffffffffffffffffffffffffffffffffffffffff16905090565b816105ec81610c2b565b156040518060400160405280601c81526020017f416464726573732063616e6e6f74206265206120636f6e74726163740000000081525090610664576040517f08c379a000000000000000000000000000000000000000000000000000000000815260040161065b9190610e32565b60405180910390fd5b503073ffffffffffffffffffffffffffffffffffffffff163373ffffffffffffffffffffffffffffffffffffffff16146040518060400160405280600f81526020017f496e7465726e616c206d6574686f6400000000000000000000000000000000008152509061070b576040517f08c379a00000000000000000000000000000000000000000000000000000000081526004016107029190610e32565b60405180910390fd5b50600073ffffffffffffffffffffffffffffffffffffffff168373ffffffffffffffffffffffffffffffffffffffff1614156040518060400160405280601981526020017f5265717569726573206e6f6e2d7a65726f206164647265737300000000000000815250906107b4576040517f08c379a00000000000000000000000000000000000000000000000000000000081526004016107ab9190610e32565b60405180910390fd5b506107bf8383610c44565b915060008214610811578273ffffffffffffffffffffffffffffffffffffffff166108fc839081150290604051600060405180830381858888f1935050505015801561080f573d6000803e3d6000fd5b505b3073ffffffffffffffffffffffffffffffffffffffff16634f2274c06040518163ffffffff1660e01b8152600401600060405180830381600087803b15801561085957600080fd5b505af115801561086d573d6000803e3d6000fd5b50505050505050565b6000610880610c03565b60010160009054906101000a900473ffffffffffffffffffffffffffffffffffffffff16905090565b6108b1610c03565b60000160029054906101000a900473ffffffffffffffffffffffffffffffffffffffff1673ffffffffffffffffffffffffffffffffffffffff1663a230c524336040518263ffffffff1660e01b815260040161090d9190610dfc565b60206040518083038186803b15801561092557600080fd5b505afa158015610939573d6000803e3d6000fd5b505050506040513d601f19601f8201168201806040525081019061095d9190610d6d565b6040518060400160405280601781526020017f526571756972657320535043206d656d62657273686970000000000000000000815250906109d4576040517f08c379a00000000000000000000000000000000000000000000000000000000081526004016109cb9190610e32565b60405180910390fd5b5060006109df610c03565b90503073ffffffffffffffffffffffffffffffffffffffff166311e549336040518163ffffffff1660e01b815260040160206040518083038186803b158015610a2757600080fd5b505afa158015610a3b573d6000803e3d6000fd5b505050506040513d601f19601f82011682018060405250810190610a5f9190610d6d565b1580610aeb57508115153073ffffffffffffffffffffffffffffffffffffffff166311e549336040518163ffffffff1660e01b815260040160206040518083038186803b158015610aaf57600080fd5b505afa158015610ac3573d6000803e3d6000fd5b505050506040513d601f19601f82011682018060405250810190610ae79190610d6d565b1515145b6040518060400160405280601581526020017f556e737570706f72746564206f7065726174696f6e000000000000000000000081525090610b62576040517f08c379a0000000000000000000000000000000000000000000000000000000008152600401610b599190610e32565b60405180910390fd5b50818160010160156101000a81548160ff0219169083151502179055503073ffffffffffffffffffffffffffffffffffffffff16634f2274c06040518163ffffffff1660e01b8152600401600060405180830381600087803b158015610bc757600080fd5b505af1158015610bdb573d6000803e3d6000fd5b505050505050565b6000610bed610c03565b60010160149054906101000a900460ff16905090565b60007f80c187ea6f955fd624c41fb7a18011cc87d98c6f4c06d897b59142f65707e705905090565b600080823b905060008163ffffffff1611915050919050565b6000808373ffffffffffffffffffffffffffffffffffffffff16319050828110610c72576000915050610cae565b8083610c7e9190610e8b565b925060003073ffffffffffffffffffffffffffffffffffffffff1631905083811015610ca8578093505b83925050505b92915050565b600081359050610cc381610f8c565b92915050565b600081359050610cd881610fa3565b92915050565b600081519050610ced81610fa3565b92915050565b600081359050610d0281610fba565b92915050565b60008060408385031215610d1b57600080fd5b6000610d2985828601610cb4565b9250506020610d3a85828601610cf3565b9150509250929050565b600060208284031215610d5657600080fd5b6000610d6484828501610cc9565b91505092915050565b600060208284031215610d7f57600080fd5b6000610d8d84828501610cde565b91505092915050565b610d9f81610ebf565b82525050565b610dae81610ee3565b82525050565b6000610dbf82610e6f565b610dc98185610e7a565b9350610dd9818560208601610f19565b610de281610f7b565b840191505092915050565b610df681610f0f565b82525050565b6000602082019050610e116000830184610d96565b92915050565b6000602082019050610e2c6000830184610da5565b92915050565b60006020820190508181036000830152610e4c8184610db4565b905092915050565b6000602082019050610e696000830184610ded565b92915050565b600081519050919050565b600082825260208201905092915050565b6000610e9682610f0f565b9150610ea183610f0f565b925082821015610eb457610eb3610f4c565b5b828203905092915050565b6000610eca82610eef565b9050919050565b6000610edc82610eef565b9050919050565b60008115159050919050565b600073ffffffffffffffffffffffffffffffffffffffff82169050919050565b6000819050919050565b60005b83811015610f37578082015181840152602081019050610f1c565b83811115610f46576000848401525b50505050565b7f4e487b7100000000000000000000000000000000000000000000000000000000600052601160045260246000fd5b6000601f19601f8301169050919050565b610f9581610ed1565b8114610fa057600080fd5b50565b610fac81610ee3565b8114610fb757600080fd5b50565b610fc381610f0f565b8114610fce57600080fd5b5056fea264697066735822122067d9910c12a26f6868cb2a6b1efd72ded551e3f1305ee4241833afb6a1f6a09164736f6c63430008040033",
  "devdoc": {
    "kind": "dev",
    "methods": {
      "payUpTo(address,uint256)": {
        "details": "This function allows contracts of the FAST network to request ETH provisioning to arbitrary addresses."
      },
      "setIsSemiPublic(bool)": {
        "details": "Allows to switch from a private scheme to a semi-public scheme, but not the other way around."
      }
    },
    "version": 1
  },
  "userdoc": {
    "kind": "user",
    "methods": {},
    "version": 1
  },
  "storageLayout": {
    "storage": [],
    "types": null
  }
}