{
  "address": "0xcC16E01b65863569B3feb95A1ae1A32B9e10a72B",
  "abi": [
    {
      "anonymous": false,
      "inputs": [
        {
          "indexed": true,
          "internalType": "address",
          "name": "owner",
          "type": "address"
        },
        {
          "indexed": true,
          "internalType": "address",
          "name": "spender",
          "type": "address"
        },
        {
          "indexed": false,
          "internalType": "uint256",
          "name": "value",
          "type": "uint256"
        }
      ],
      "name": "Approval",
      "type": "event"
    },
    {
      "anonymous": false,
      "inputs": [
        {
          "indexed": true,
          "internalType": "uint256",
          "name": "amount",
          "type": "uint256"
        },
        {
          "indexed": true,
          "internalType": "string",
          "name": "ref",
          "type": "string"
        }
      ],
      "name": "Burnt",
      "type": "event"
    },
    {
      "anonymous": false,
      "inputs": [
        {
          "indexed": false,
          "internalType": "uint256",
          "name": "memberCount",
          "type": "uint256"
        },
        {
          "indexed": false,
          "internalType": "uint256",
          "name": "governorCount",
          "type": "uint256"
        },
        {
          "indexed": false,
          "internalType": "uint256",
          "name": "totalSupply",
          "type": "uint256"
        },
        {
          "indexed": false,
          "internalType": "uint256",
          "name": "transferCredits",
          "type": "uint256"
        },
        {
          "indexed": false,
          "internalType": "uint256",
          "name": "reserveBalance",
          "type": "uint256"
        },
        {
          "indexed": false,
          "internalType": "uint256",
          "name": "ethBalance",
          "type": "uint256"
        }
      ],
      "name": "DetailsChanged",
      "type": "event"
    },
    {
      "anonymous": false,
      "inputs": [
        {
          "indexed": true,
          "internalType": "address",
          "name": "owner",
          "type": "address"
        },
        {
          "indexed": true,
          "internalType": "address",
          "name": "spender",
          "type": "address"
        }
      ],
      "name": "Disapproval",
      "type": "event"
    },
    {
      "anonymous": false,
      "inputs": [
        {
          "indexed": true,
          "internalType": "address",
          "name": "to",
          "type": "address"
        },
        {
          "indexed": false,
          "internalType": "uint256",
          "name": "amount",
          "type": "uint256"
        }
      ],
      "name": "EthDrained",
      "type": "event"
    },
    {
      "anonymous": false,
      "inputs": [
        {
          "indexed": true,
          "internalType": "address",
          "name": "from",
          "type": "address"
        },
        {
          "indexed": false,
          "internalType": "uint256",
          "name": "amount",
          "type": "uint256"
        }
      ],
      "name": "EthReceived",
      "type": "event"
    },
    {
      "anonymous": false,
      "inputs": [
        {
          "indexed": true,
          "internalType": "address",
          "name": "governor",
          "type": "address"
        }
      ],
      "name": "GovernorAdded",
      "type": "event"
    },
    {
      "anonymous": false,
      "inputs": [
        {
          "indexed": true,
          "internalType": "address",
          "name": "governor",
          "type": "address"
        }
      ],
      "name": "GovernorRemoved",
      "type": "event"
    },
    {
      "anonymous": false,
      "inputs": [
        {
          "indexed": true,
          "internalType": "address",
          "name": "member",
          "type": "address"
        }
      ],
      "name": "MemberAdded",
      "type": "event"
    },
    {
      "anonymous": false,
      "inputs": [
        {
          "indexed": true,
          "internalType": "address",
          "name": "member",
          "type": "address"
        }
      ],
      "name": "MemberRemoved",
      "type": "event"
    },
    {
      "anonymous": false,
      "inputs": [
        {
          "indexed": true,
          "internalType": "uint256",
          "name": "amount",
          "type": "uint256"
        },
        {
          "indexed": true,
          "internalType": "string",
          "name": "ref",
          "type": "string"
        }
      ],
      "name": "Minted",
      "type": "event"
    },
    {
      "anonymous": false,
      "inputs": [
        {
          "indexed": true,
          "internalType": "address",
          "name": "from",
          "type": "address"
        },
        {
          "indexed": true,
          "internalType": "address",
          "name": "to",
          "type": "address"
        },
        {
          "indexed": false,
          "internalType": "uint256",
          "name": "value",
          "type": "uint256"
        }
      ],
      "name": "Transfer",
      "type": "event"
    },
    {
      "anonymous": false,
      "inputs": [
        {
          "indexed": true,
          "internalType": "address",
          "name": "issuerMember",
          "type": "address"
        },
        {
          "indexed": false,
          "internalType": "uint256",
          "name": "amount",
          "type": "uint256"
        }
      ],
      "name": "TransferCreditsAdded",
      "type": "event"
    },
    {
      "anonymous": false,
      "inputs": [
        {
          "indexed": true,
          "internalType": "address",
          "name": "issuerMember",
          "type": "address"
        },
        {
          "indexed": false,
          "internalType": "uint256",
          "name": "amount",
          "type": "uint256"
        }
      ],
      "name": "TransferCreditsDrained",
      "type": "event"
    },
    {
      "inputs": [],
      "name": "hasFixedSupply",
      "outputs": [
        {
          "internalType": "bool",
          "name": "",
          "type": "bool"
        }
      ],
      "stateMutability": "view",
      "type": "function"
    },
    {
      "inputs": [],
      "name": "isSemiPublic",
      "outputs": [
        {
          "internalType": "bool",
          "name": "",
          "type": "bool"
        }
      ],
      "stateMutability": "view",
      "type": "function"
    },
    {
      "inputs": [],
      "name": "issuerAddress",
      "outputs": [
        {
          "internalType": "address",
          "name": "",
          "type": "address"
        }
      ],
      "stateMutability": "view",
      "type": "function"
    },
    {
      "inputs": [],
      "name": "marketplaceAddress",
      "outputs": [
        {
          "internalType": "address",
          "name": "",
          "type": "address"
        }
      ],
      "stateMutability": "view",
      "type": "function"
    },
    {
      "inputs": [
        {
          "internalType": "bool",
          "name": "flag",
          "type": "bool"
        }
      ],
      "name": "setIsSemiPublic",
      "outputs": [],
      "stateMutability": "nonpayable",
      "type": "function"
    }
  ],
  "transactionHash": "0xc3a0fcf666310c77a7d69337eb701479732ec1166cab0a8e6f287a05a20a3c13",
  "args": [],
  "numDeployments": 1,
  "solcInputHash": "e9d57edbd84228ebf559b52428a576bf",
  "bytecode": "0x608060405234801561001057600080fd5b5061070e806100206000396000f3fe608060405234801561001057600080fd5b50600436106100575760003560e01c806311e549331461005c578063a63234e01461007a578063d65cd01014610098578063daa17f49146100b4578063ddb2d22b146100d2575b600080fd5b6100646100f0565b60405161007191906105e6565b60405180910390f35b610082610110565b60405161008f91906105cb565b60405180910390f35b6100b260048036038101906100ad9190610522565b610143565b005b6100bc61047d565b6040516100c991906105cb565b60405180910390f35b6100da6104b0565b6040516100e791906105e6565b60405180910390f35b60006100fa6104d0565b60010160159054906101000a900460ff16905090565b600061011a6104d0565b60000160029054906101000a900473ffffffffffffffffffffffffffffffffffffffff16905090565b61014b6104d0565b60000160029054906101000a900473ffffffffffffffffffffffffffffffffffffffff1673ffffffffffffffffffffffffffffffffffffffff1663a230c524336040518263ffffffff1660e01b81526004016101a791906105cb565b60206040518083038186803b1580156101bf57600080fd5b505afa1580156101d3573d6000803e3d6000fd5b505050506040513d601f19601f820116820180604052508101906101f7919061054b565b6040518060400160405280601a81526020017f526571756972657320497373756572206d656d626572736869700000000000008152509061026e576040517f08c379a00000000000000000000000000000000000000000000000000000000081526004016102659190610601565b60405180910390fd5b5060006102796104d0565b90503073ffffffffffffffffffffffffffffffffffffffff166311e549336040518163ffffffff1660e01b815260040160206040518083038186803b1580156102c157600080fd5b505afa1580156102d5573d6000803e3d6000fd5b505050506040513d601f19601f820116820180604052508101906102f9919061054b565b158061038557508115153073ffffffffffffffffffffffffffffffffffffffff166311e549336040518163ffffffff1660e01b815260040160206040518083038186803b15801561034957600080fd5b505afa15801561035d573d6000803e3d6000fd5b505050506040513d601f19601f82011682018060405250810190610381919061054b565b1515145b6040518060400160405280601581526020017f556e737570706f72746564206f7065726174696f6e0000000000000000000000815250906103fc576040517f08c379a00000000000000000000000000000000000000000000000000000000081526004016103f39190610601565b60405180910390fd5b50818160010160156101000a81548160ff0219169083151502179055503073ffffffffffffffffffffffffffffffffffffffff16634f2274c06040518163ffffffff1660e01b8152600401600060405180830381600087803b15801561046157600080fd5b505af1158015610475573d6000803e3d6000fd5b505050505050565b60006104876104d0565b60010160009054906101000a900473ffffffffffffffffffffffffffffffffffffffff16905090565b60006104ba6104d0565b60010160149054906101000a900460ff16905090565b60007f80c187ea6f955fd624c41fb7a18011cc87d98c6f4c06d897b59142f65707e705905090565b600081359050610507816106c1565b92915050565b60008151905061051c816106c1565b92915050565b60006020828403121561053457600080fd5b6000610542848285016104f8565b91505092915050565b60006020828403121561055d57600080fd5b600061056b8482850161050d565b91505092915050565b61057d8161063f565b82525050565b61058c81610651565b82525050565b600061059d82610623565b6105a7818561062e565b93506105b781856020860161067d565b6105c0816106b0565b840191505092915050565b60006020820190506105e06000830184610574565b92915050565b60006020820190506105fb6000830184610583565b92915050565b6000602082019050818103600083015261061b8184610592565b905092915050565b600081519050919050565b600082825260208201905092915050565b600061064a8261065d565b9050919050565b60008115159050919050565b600073ffffffffffffffffffffffffffffffffffffffff82169050919050565b60005b8381101561069b578082015181840152602081019050610680565b838111156106aa576000848401525b50505050565b6000601f19601f8301169050919050565b6106ca81610651565b81146106d557600080fd5b5056fea26469706673582212201b6760331d8a4678a05dc78adfb07cb7bdd7d7e7b85c07421439b1b25c0ff23864736f6c63430008040033",
  "devdoc": {
    "kind": "dev",
    "methods": {
      "setIsSemiPublic(bool)": {
        "details": "Allows to switch from a private scheme to a semi-public scheme, but not the other way around."
      }
    },
    "version": 1
  },
  "userdoc": {
    "kind": "user",
    "methods": {},
    "version": 1
  },
  "storageLayout": {
    "storage": [],
    "types": null
  }
}