{
  "address": "0xaafa101509802F92A742f9b969904692d94afa8E",
  "abi": [
    {
      "anonymous": false,
      "inputs": [
        {
          "indexed": true,
          "internalType": "address",
          "name": "to",
          "type": "address"
        },
        {
          "indexed": false,
          "internalType": "uint256",
          "name": "amount",
          "type": "uint256"
        }
      ],
      "name": "EthDrained",
      "type": "event"
    },
    {
      "anonymous": false,
      "inputs": [
        {
          "indexed": true,
          "internalType": "address",
          "name": "from",
          "type": "address"
        },
        {
          "indexed": false,
          "internalType": "uint256",
          "name": "amount",
          "type": "uint256"
        }
      ],
      "name": "EthReceived",
      "type": "event"
    },
    {
      "inputs": [],
      "name": "drainEth",
      "outputs": [],
      "stateMutability": "nonpayable",
      "type": "function"
    },
    {
      "inputs": [],
      "name": "exchangeAddress",
      "outputs": [
        {
          "internalType": "address",
          "name": "",
          "type": "address"
        }
      ],
      "stateMutability": "view",
      "type": "function"
    },
    {
      "inputs": [
        {
          "internalType": "address payable",
          "name": "recipient",
          "type": "address"
        },
        {
          "internalType": "uint256",
          "name": "amount",
          "type": "uint256"
        }
      ],
      "name": "payUpTo",
      "outputs": [],
      "stateMutability": "nonpayable",
      "type": "function"
    },
    {
      "inputs": [],
      "name": "provisionWithEth",
      "outputs": [],
      "stateMutability": "payable",
      "type": "function"
    },
    {
      "inputs": [],
      "name": "spcAddress",
      "outputs": [
        {
          "internalType": "address",
          "name": "",
          "type": "address"
        }
      ],
      "stateMutability": "view",
      "type": "function"
    }
  ],
  "transactionHash": "0x1acd3ad041ba05ee43969e2bf6c76104029dc25fef9849e33cada40752e6fdab",
  "args": [],
  "numDeployments": 1,
  "solcInputHash": "ff01faa9007aa585a44363003101a726",
  "bytecode": "0x608060405234801561001057600080fd5b50610936806100206000396000f3fe60806040526004361061004a5760003560e01c80630baac66f1461004f5780633eca424b14610066578063582d2b37146100705780638a80e9551461009b5780639cd01605146100c4575b600080fd5b34801561005b57600080fd5b506100646100ef565b005b61006e6102d1565b005b34801561007c57600080fd5b5061008561039d565b6040516100929190610746565b60405180910390f35b3480156100a757600080fd5b506100c260048036038101906100bd919061068a565b6103d0565b005b3480156100d057600080fd5b506100d9610580565b6040516100e69190610746565b60405180910390f35b336100f86105b3565b60000160029054906101000a900473ffffffffffffffffffffffffffffffffffffffff1673ffffffffffffffffffffffffffffffffffffffff1663a230c524826040518263ffffffff1660e01b81526004016101549190610746565b60206040518083038186803b15801561016c57600080fd5b505afa158015610180573d6000803e3d6000fd5b505050506040513d601f19601f820116820180604052508101906101a491906106c6565b6040518060400160405280601781526020017f526571756972657320535043206d656d626572736869700000000000000000008152509061021b576040517f08c379a00000000000000000000000000000000000000000000000000000000081526004016102129190610761565b60405180910390fd5b5060003073ffffffffffffffffffffffffffffffffffffffff163190503373ffffffffffffffffffffffffffffffffffffffff166108fc829081150290604051600060405180830381858888f1935050505015801561027e573d6000803e3d6000fd5b503373ffffffffffffffffffffffffffffffffffffffff167fd5a7a0257eadbfea7ac4432ca8fe62ac277d64736ab6ef67f11abf238a1e0f1a826040516102c59190610783565b60405180910390a25050565b600034116040518060400160405280601481526020017f4d697373696e67206174746163686564204554480000000000000000000000008152509061034c576040517f08c379a00000000000000000000000000000000000000000000000000000000081526004016103439190610761565b60405180910390fd5b503373ffffffffffffffffffffffffffffffffffffffff167f85177f287940f2f05425a4029951af0e047a7f9c4eaa9a6e6917bcd869f86695346040516103939190610783565b60405180910390a2565b60006103a76105b3565b60000160029054906101000a900473ffffffffffffffffffffffffffffffffffffffff16905090565b3073ffffffffffffffffffffffffffffffffffffffff163373ffffffffffffffffffffffffffffffffffffffff16146040518060400160405280600f81526020017f496e7465726e616c206d6574686f64000000000000000000000000000000000081525090610476576040517f08c379a000000000000000000000000000000000000000000000000000000000815260040161046d9190610761565b60405180910390fd5b50600073ffffffffffffffffffffffffffffffffffffffff168273ffffffffffffffffffffffffffffffffffffffff1614156040518060400160405280601981526020017f5265717569726573206e6f6e2d7a65726f2061646472657373000000000000008152509061051f576040517f08c379a00000000000000000000000000000000000000000000000000000000081526004016105169190610761565b60405180910390fd5b5061052a82826105db565b90506000811461057c578173ffffffffffffffffffffffffffffffffffffffff166108fc829081150290604051600060405180830381858888f1935050505015801561057a573d6000803e3d6000fd5b505b5050565b600061058a6105b3565b60010160009054906101000a900473ffffffffffffffffffffffffffffffffffffffff16905090565b60007f80c187ea6f955fd624c41fb7a18011cc87d98c6f4c06d897b59142f65707e705905090565b6000808373ffffffffffffffffffffffffffffffffffffffff16319050828110610609576000915050610645565b808361061591906107ba565b925060003073ffffffffffffffffffffffffffffffffffffffff163190508381101561063f578093505b83925050505b92915050565b60008135905061065a816108bb565b92915050565b60008151905061066f816108d2565b92915050565b600081359050610684816108e9565b92915050565b6000806040838503121561069d57600080fd5b60006106ab8582860161064b565b92505060206106bc85828601610675565b9150509250929050565b6000602082840312156106d857600080fd5b60006106e684828501610660565b91505092915050565b6106f8816107ee565b82525050565b60006107098261079e565b61071381856107a9565b9350610723818560208601610848565b61072c816108aa565b840191505092915050565b6107408161083e565b82525050565b600060208201905061075b60008301846106ef565b92915050565b6000602082019050818103600083015261077b81846106fe565b905092915050565b60006020820190506107986000830184610737565b92915050565b600081519050919050565b600082825260208201905092915050565b60006107c58261083e565b91506107d08361083e565b9250828210156107e3576107e261087b565b5b828203905092915050565b60006107f98261081e565b9050919050565b600061080b8261081e565b9050919050565b60008115159050919050565b600073ffffffffffffffffffffffffffffffffffffffff82169050919050565b6000819050919050565b60005b8381101561086657808201518184015260208101905061084b565b83811115610875576000848401525b50505050565b7f4e487b7100000000000000000000000000000000000000000000000000000000600052601160045260246000fd5b6000601f19601f8301169050919050565b6108c481610800565b81146108cf57600080fd5b50565b6108db81610812565b81146108e657600080fd5b50565b6108f28161083e565b81146108fd57600080fd5b5056fea26469706673582212201bd12b415e32a4a3de3fc0c28e134f2fc4ff7d3cad7ff72603aa5838d3d8f6d364736f6c63430008040033",
  "devdoc": {
    "kind": "dev",
    "methods": {
      "payUpTo(address,uint256)": {
        "details": "This function allows contracts of the FAST network to request ETH provisioning to arbitrary addresses."
      }
    },
    "version": 1
  },
  "userdoc": {
    "kind": "user",
    "methods": {},
    "version": 1
  },
  "storageLayout": {
    "storage": [],
    "types": null
  }
}