{
  "address": "0x5669a5d27cAc9Fa24037568909512C5D74223768",
  "abi": [
    {
      "inputs": [
        {
          "internalType": "address",
          "name": "who",
          "type": "address"
        }
      ],
      "name": "RequiresIssuerMembership",
      "type": "error"
    },
    {
      "inputs": [],
      "name": "UnsupportedOperation",
      "type": "error"
    },
    {
      "anonymous": false,
      "inputs": [
        {
          "indexed": true,
          "internalType": "address",
          "name": "owner",
          "type": "address"
        },
        {
          "indexed": true,
          "internalType": "address",
          "name": "spender",
          "type": "address"
        },
        {
          "indexed": false,
          "internalType": "uint256",
          "name": "value",
          "type": "uint256"
        }
      ],
      "name": "Approval",
      "type": "event"
    },
    {
      "anonymous": false,
      "inputs": [
        {
          "indexed": true,
          "internalType": "uint256",
          "name": "amount",
          "type": "uint256"
        },
        {
          "indexed": true,
          "internalType": "string",
          "name": "ref",
          "type": "string"
        }
      ],
      "name": "Burnt",
      "type": "event"
    },
    {
      "anonymous": false,
      "inputs": [
        {
          "indexed": false,
          "internalType": "bool",
          "name": "transfersDisabled",
          "type": "bool"
        },
        {
          "indexed": false,
          "internalType": "uint256",
          "name": "memberCount",
          "type": "uint256"
        },
        {
          "indexed": false,
          "internalType": "uint256",
          "name": "governorCount",
          "type": "uint256"
        },
        {
          "indexed": false,
          "internalType": "uint256",
          "name": "totalSupply",
          "type": "uint256"
        },
        {
          "indexed": false,
          "internalType": "uint256",
          "name": "reserveBalance",
          "type": "uint256"
        },
        {
          "indexed": false,
          "internalType": "uint256",
          "name": "ethBalance",
          "type": "uint256"
        }
      ],
      "name": "DetailsChanged",
      "type": "event"
    },
    {
      "anonymous": false,
      "inputs": [
        {
          "indexed": true,
          "internalType": "address",
          "name": "owner",
          "type": "address"
        },
        {
          "indexed": true,
          "internalType": "address",
          "name": "spender",
          "type": "address"
        },
        {
          "indexed": false,
          "internalType": "uint256",
          "name": "value",
          "type": "uint256"
        }
      ],
      "name": "Disapproval",
      "type": "event"
    },
    {
      "anonymous": false,
      "inputs": [
        {
          "indexed": true,
          "internalType": "address",
          "name": "governor",
          "type": "address"
        }
      ],
      "name": "GovernorAdded",
      "type": "event"
    },
    {
      "anonymous": false,
      "inputs": [
        {
          "indexed": true,
          "internalType": "address",
          "name": "governor",
          "type": "address"
        }
      ],
      "name": "GovernorRemoved",
      "type": "event"
    },
    {
      "anonymous": false,
      "inputs": [
        {
          "indexed": true,
          "internalType": "address",
          "name": "member",
          "type": "address"
        }
      ],
      "name": "MemberAdded",
      "type": "event"
    },
    {
      "anonymous": false,
      "inputs": [
        {
          "indexed": true,
          "internalType": "address",
          "name": "member",
          "type": "address"
        }
      ],
      "name": "MemberRemoved",
      "type": "event"
    },
    {
      "anonymous": false,
      "inputs": [
        {
          "indexed": true,
          "internalType": "uint256",
          "name": "amount",
          "type": "uint256"
        },
        {
          "indexed": true,
          "internalType": "string",
          "name": "ref",
          "type": "string"
        }
      ],
      "name": "Minted",
      "type": "event"
    },
    {
      "anonymous": false,
      "inputs": [
        {
          "indexed": true,
          "internalType": "address",
          "name": "from",
          "type": "address"
        },
        {
          "indexed": true,
          "internalType": "address",
          "name": "to",
          "type": "address"
        },
        {
          "indexed": false,
          "internalType": "uint256",
          "name": "value",
          "type": "uint256"
        }
      ],
      "name": "Transfer",
      "type": "event"
    },
    {
      "inputs": [],
      "name": "hasFixedSupply",
      "outputs": [
        {
          "internalType": "bool",
          "name": "",
          "type": "bool"
        }
      ],
      "stateMutability": "view",
      "type": "function"
    },
    {
      "inputs": [],
      "name": "isSemiPublic",
      "outputs": [
        {
          "internalType": "bool",
          "name": "",
          "type": "bool"
        }
      ],
      "stateMutability": "view",
      "type": "function"
    },
    {
      "inputs": [],
      "name": "issuerAddress",
      "outputs": [
        {
          "internalType": "address",
          "name": "",
          "type": "address"
        }
      ],
      "stateMutability": "view",
      "type": "function"
    },
    {
      "inputs": [],
      "name": "marketplaceAddress",
      "outputs": [
        {
          "internalType": "address",
          "name": "",
          "type": "address"
        }
      ],
      "stateMutability": "view",
      "type": "function"
    },
    {
      "inputs": [
        {
          "internalType": "bool",
          "name": "flag",
          "type": "bool"
        }
      ],
      "name": "setIsSemiPublic",
      "outputs": [],
      "stateMutability": "nonpayable",
      "type": "function"
    },
    {
      "inputs": [
        {
          "internalType": "bool",
          "name": "flag",
          "type": "bool"
        }
      ],
      "name": "setTransfersDisabled",
      "outputs": [],
      "stateMutability": "nonpayable",
      "type": "function"
    },
    {
      "inputs": [],
      "name": "transfersDisabled",
      "outputs": [
        {
          "internalType": "bool",
          "name": "",
          "type": "bool"
        }
      ],
      "stateMutability": "view",
      "type": "function"
    }
  ],
  "transactionHash": "0x2ff17f8116aaf558846f9ddfe58ec61e9ab9eb48cd90d64292384da7967d2b77",
  "args": [],
  "numDeployments": 4,
  "solcInputHash": "292b7eac96196980281a78dbb1bca62d",
  "bytecode": "0x608060405234801561001057600080fd5b50610724806100206000396000f3fe608060405234801561001057600080fd5b506004361061007d5760003560e01c8063a63234e01161005b578063a63234e01461012f578063d65cd01014610193578063daa17f49146101a6578063ddb2d22b146101e357600080fd5b8063034cd7251461008257806311e54933146100d75780638762d38e1461011a575b600080fd5b7f80c187ea6f955fd624c41fb7a18011cc87d98c6f4c06d897b59142f65707e70654760100000000000000000000000000000000000000000000900460ff165b60405190151581526020015b60405180910390f35b7f80c187ea6f955fd624c41fb7a18011cc87d98c6f4c06d897b59142f65707e706547501000000000000000000000000000000000000000000900460ff166100c2565b61012d6101283660046106ad565b610225565b005b7f80c187ea6f955fd624c41fb7a18011cc87d98c6f4c06d897b59142f65707e7055462010000900473ffffffffffffffffffffffffffffffffffffffff165b60405173ffffffffffffffffffffffffffffffffffffffff90911681526020016100ce565b61012d6101a13660046106ad565b610439565b7f80c187ea6f955fd624c41fb7a18011cc87d98c6f4c06d897b59142f65707e7065473ffffffffffffffffffffffffffffffffffffffff1661016e565b7f80c187ea6f955fd624c41fb7a18011cc87d98c6f4c06d897b59142f65707e7065474010000000000000000000000000000000000000000900460ff166100c2565b7f80c187ea6f955fd624c41fb7a18011cc87d98c6f4c06d897b59142f65707e705546040517fa230c5240000000000000000000000000000000000000000000000000000000081523360048201526201000090910473ffffffffffffffffffffffffffffffffffffffff169063a230c52490602401602060405180830381865afa1580156102b7573d6000803e3d6000fd5b505050506040513d601f19601f820116820180604052508101906102db91906106d1565b610318576040517f1dd41c4d0000000000000000000000000000000000000000000000000000000081523360048201526024015b60405180910390fd5b7f80c187ea6f955fd624c41fb7a18011cc87d98c6f4c06d897b59142f65707e706547f80c187ea6f955fd624c41fb7a18011cc87d98c6f4c06d897b59142f65707e7059082151576010000000000000000000000000000000000000000000090910460ff16151514610435576001810180547fffffffffffffffffff00ffffffffffffffffffffffffffffffffffffffffffff1676010000000000000000000000000000000000000000000084151502179055604080517f4f2274c000000000000000000000000000000000000000000000000000000000815290513091634f2274c091600480830192600092919082900301818387803b15801561041c57600080fd5b505af1158015610430573d6000803e3d6000fd5b505050505b5050565b7f80c187ea6f955fd624c41fb7a18011cc87d98c6f4c06d897b59142f65707e705546040517fa230c5240000000000000000000000000000000000000000000000000000000081523360048201526201000090910473ffffffffffffffffffffffffffffffffffffffff169063a230c52490602401602060405180830381865afa1580156104cb573d6000803e3d6000fd5b505050506040513d601f19601f820116820180604052508101906104ef91906106d1565b610527576040517f1dd41c4d00000000000000000000000000000000000000000000000000000000815233600482015260240161030f565b3073ffffffffffffffffffffffffffffffffffffffff166311e549336040518163ffffffff1660e01b8152600401602060405180830381865afa158015610572573d6000803e3d6000fd5b505050506040513d601f19601f8201168201806040525081019061059691906106d1565b156105cd576040517f9ba6061b00000000000000000000000000000000000000000000000000000000815260040160405180910390fd5b7f80c187ea6f955fd624c41fb7a18011cc87d98c6f4c06d897b59142f65707e70680547fffffffffffffffffffff00ffffffffffffffffffffffffffffffffffffffffff16750100000000000000000000000000000000000000000083151502179055604080517f4f2274c000000000000000000000000000000000000000000000000000000000815290513091634f2274c091600480830192600092919082900301818387803b15801561068157600080fd5b505af1158015610695573d6000803e3d6000fd5b5050505050565b80151581146106aa57600080fd5b50565b6000602082840312156106bf57600080fd5b81356106ca8161069c565b9392505050565b6000602082840312156106e357600080fd5b81516106ca8161069c56fea26469706673582212205fa2ad7d95331547924a43816a0f6565ff14a1e70627ef4a60412192f7d6050264736f6c634300080a0033",
  "devdoc": {
    "kind": "dev",
    "methods": {
      "hasFixedSupply()": {
        "returns": {
          "_0": "bool Yes/no fixed supply."
        }
      },
      "isSemiPublic()": {
        "returns": {
          "_0": "bool Yes/no semi public."
        }
      },
      "issuerAddress()": {
        "returns": {
          "_0": "Address of Issuer."
        }
      },
      "marketplaceAddress()": {
        "returns": {
          "_0": "address Address of Marketplace."
        }
      },
      "setIsSemiPublic(bool)": {
        "params": {
          "flag": "Set the semi public flag to true/false."
        }
      },
      "setTransfersDisabled(bool)": {
        "params": {
          "flag": "Set the transfer capability to active or not."
        }
      },
      "transfersDisabled()": {
        "returns": {
          "_0": "`true` if transfers are disabled, `false` if transfers are enabled."
        }
      }
    },
    "version": 1
  },
  "userdoc": {
    "events": {
      "Approval(address,address,uint256)": {
        "notice": "See `ERC20.Approval`."
      },
      "Burnt(uint256,string)": {
        "notice": "Emited whenever an burning happens in a FAST."
      },
      "DetailsChanged(bool,uint256,uint256,uint256,uint256,uint256)": {
        "notice": "This is an event that is fired whenever any of some of the FAST parameters change, so that the frontend can react to it and refresh the general header for that fast as well as the baseball cards in the FASTs list."
      },
      "Disapproval(address,address,uint256)": {
        "notice": "See `ERC20.Disapproval`."
      },
      "GovernorAdded(address)": {
        "notice": "Emited when a governor is added to the implementing contract."
      },
      "GovernorRemoved(address)": {
        "notice": "Emited when a governor is removed to the implementing contract."
      },
      "MemberAdded(address)": {
        "notice": "Emited when a member is added to the implementing contract."
      },
      "MemberRemoved(address)": {
        "notice": "Emited when a member is removed to the implementing contract."
      },
      "Minted(uint256,string)": {
        "notice": "Emited whenever an issuance happens in a FAST."
      },
      "Transfer(address,address,uint256)": {
        "notice": "See `ERC20.Transfer`."
      }
    },
    "kind": "user",
    "methods": {
      "hasFixedSupply()": {
        "notice": "Is this FAST a fixed supply FAST?"
      },
      "isSemiPublic()": {
        "notice": "Is this FAST a semi public FAST?"
      },
      "issuerAddress()": {
        "notice": "Get the Issuer address."
      },
      "marketplaceAddress()": {
        "notice": "Get the Marketplace address."
      },
      "setIsSemiPublic(bool)": {
        "notice": "Allows to switch from a private scheme to a semi-public scheme,  but not the other way around."
      },
      "setTransfersDisabled(bool)": {
        "notice": "Allows an issuer member to enable or disable all transfers within this FAST."
      },
      "transfersDisabled()": {
        "notice": "Are transfers enabled across this FAST?"
      }
    },
    "version": 1
  },
  "storageLayout": {
    "storage": [],
    "types": null
  }
}