{
  "address": "0x296D7f812F419d3Cd7266A201eB976b97D0fF217",
  "abi": [
    {
      "anonymous": false,
      "inputs": [
        {
          "indexed": true,
          "internalType": "address",
          "name": "owner",
          "type": "address"
        },
        {
          "indexed": true,
          "internalType": "address",
          "name": "spender",
          "type": "address"
        },
        {
          "indexed": false,
          "internalType": "uint256",
          "name": "value",
          "type": "uint256"
        }
      ],
      "name": "Approval",
      "type": "event"
    },
    {
      "anonymous": false,
      "inputs": [
        {
          "indexed": true,
          "internalType": "uint256",
          "name": "amount",
          "type": "uint256"
        },
        {
          "indexed": true,
          "internalType": "string",
          "name": "ref",
          "type": "string"
        }
      ],
      "name": "Burnt",
      "type": "event"
    },
    {
      "anonymous": false,
      "inputs": [
        {
          "indexed": false,
          "internalType": "uint256",
          "name": "memberCount",
          "type": "uint256"
        },
        {
          "indexed": false,
          "internalType": "uint256",
          "name": "governorCount",
          "type": "uint256"
        },
        {
          "indexed": false,
          "internalType": "uint256",
          "name": "totalSupply",
          "type": "uint256"
        },
        {
          "indexed": false,
          "internalType": "uint256",
          "name": "transferCredits",
          "type": "uint256"
        },
        {
          "indexed": false,
          "internalType": "uint256",
          "name": "reserveBalance",
          "type": "uint256"
        },
        {
          "indexed": false,
          "internalType": "uint256",
          "name": "ethBalance",
          "type": "uint256"
        }
      ],
      "name": "DetailsChanged",
      "type": "event"
    },
    {
      "anonymous": false,
      "inputs": [
        {
          "indexed": true,
          "internalType": "address",
          "name": "owner",
          "type": "address"
        },
        {
          "indexed": true,
          "internalType": "address",
          "name": "spender",
          "type": "address"
        }
      ],
      "name": "Disapproval",
      "type": "event"
    },
    {
      "anonymous": false,
      "inputs": [
        {
          "indexed": true,
          "internalType": "address",
          "name": "to",
          "type": "address"
        },
        {
          "indexed": false,
          "internalType": "uint256",
          "name": "amount",
          "type": "uint256"
        }
      ],
      "name": "EthDrained",
      "type": "event"
    },
    {
      "anonymous": false,
      "inputs": [
        {
          "indexed": true,
          "internalType": "address",
          "name": "from",
          "type": "address"
        },
        {
          "indexed": false,
          "internalType": "uint256",
          "name": "amount",
          "type": "uint256"
        }
      ],
      "name": "EthReceived",
      "type": "event"
    },
    {
      "anonymous": false,
      "inputs": [
        {
          "indexed": true,
          "internalType": "address",
          "name": "governor",
          "type": "address"
        }
      ],
      "name": "GovernorAdded",
      "type": "event"
    },
    {
      "anonymous": false,
      "inputs": [
        {
          "indexed": true,
          "internalType": "address",
          "name": "governor",
          "type": "address"
        }
      ],
      "name": "GovernorRemoved",
      "type": "event"
    },
    {
      "anonymous": false,
      "inputs": [
        {
          "indexed": true,
          "internalType": "address",
          "name": "governor",
          "type": "address"
        }
      ],
      "name": "MemberAdded",
      "type": "event"
    },
    {
      "anonymous": false,
      "inputs": [
        {
          "indexed": true,
          "internalType": "address",
          "name": "governor",
          "type": "address"
        }
      ],
      "name": "MemberRemoved",
      "type": "event"
    },
    {
      "anonymous": false,
      "inputs": [
        {
          "indexed": true,
          "internalType": "uint256",
          "name": "amount",
          "type": "uint256"
        },
        {
          "indexed": true,
          "internalType": "string",
          "name": "ref",
          "type": "string"
        }
      ],
      "name": "Minted",
      "type": "event"
    },
    {
      "anonymous": false,
      "inputs": [
        {
          "indexed": true,
          "internalType": "address",
          "name": "from",
          "type": "address"
        },
        {
          "indexed": true,
          "internalType": "address",
          "name": "to",
          "type": "address"
        },
        {
          "indexed": false,
          "internalType": "uint256",
          "name": "value",
          "type": "uint256"
        }
      ],
      "name": "Transfer",
      "type": "event"
    },
    {
      "anonymous": false,
      "inputs": [
        {
          "indexed": true,
          "internalType": "address",
          "name": "spcMember",
          "type": "address"
        },
        {
          "indexed": false,
          "internalType": "uint256",
          "name": "amount",
          "type": "uint256"
        }
      ],
      "name": "TransferCreditsAdded",
      "type": "event"
    },
    {
      "anonymous": false,
      "inputs": [
        {
          "indexed": true,
          "internalType": "address",
          "name": "spcMember",
          "type": "address"
        },
        {
          "indexed": false,
          "internalType": "uint256",
          "name": "amount",
          "type": "uint256"
        }
      ],
      "name": "TransferCreditsDrained",
      "type": "event"
    },
    {
      "inputs": [
        {
          "internalType": "uint256",
          "name": "amount",
          "type": "uint256"
        },
        {
          "internalType": "string",
          "name": "ref",
          "type": "string"
        }
      ],
      "name": "burnt",
      "outputs": [],
      "stateMutability": "nonpayable",
      "type": "function"
    },
    {
      "inputs": [
        {
          "internalType": "uint256",
          "name": "amount",
          "type": "uint256"
        },
        {
          "internalType": "string",
          "name": "ref",
          "type": "string"
        }
      ],
      "name": "minted",
      "outputs": [],
      "stateMutability": "nonpayable",
      "type": "function"
    },
    {
      "inputs": [
        {
          "internalType": "uint256",
          "name": "cursor",
          "type": "uint256"
        },
        {
          "internalType": "uint256",
          "name": "perPage",
          "type": "uint256"
        }
      ],
      "name": "paginateSupplyProofs",
      "outputs": [
        {
          "components": [
            {
              "internalType": "enum LibFastHistory.SupplyOp",
              "name": "op",
              "type": "uint8"
            },
            {
              "internalType": "uint256",
              "name": "amount",
              "type": "uint256"
            },
            {
              "internalType": "uint256",
              "name": "blockNumber",
              "type": "uint256"
            },
            {
              "internalType": "string",
              "name": "ref",
              "type": "string"
            }
          ],
          "internalType": "struct LibFastHistory.SupplyProof[]",
          "name": "",
          "type": "tuple[]"
        },
        {
          "internalType": "uint256",
          "name": "",
          "type": "uint256"
        }
      ],
      "stateMutability": "view",
      "type": "function"
    },
    {
      "inputs": [
        {
          "internalType": "address",
          "name": "involvee",
          "type": "address"
        },
        {
          "internalType": "uint256",
          "name": "cursor",
          "type": "uint256"
        },
        {
          "internalType": "uint256",
          "name": "perPage",
          "type": "uint256"
        }
      ],
      "name": "paginateTransferProofIndicesByInvolvee",
      "outputs": [
        {
          "internalType": "uint256[]",
          "name": "",
          "type": "uint256[]"
        },
        {
          "internalType": "uint256",
          "name": "",
          "type": "uint256"
        }
      ],
      "stateMutability": "view",
      "type": "function"
    },
    {
      "inputs": [
        {
          "internalType": "uint256",
          "name": "cursor",
          "type": "uint256"
        },
        {
          "internalType": "uint256",
          "name": "perPage",
          "type": "uint256"
        }
      ],
      "name": "paginateTransferProofs",
      "outputs": [
        {
          "components": [
            {
              "internalType": "address",
              "name": "spender",
              "type": "address"
            },
            {
              "internalType": "address",
              "name": "from",
              "type": "address"
            },
            {
              "internalType": "address",
              "name": "to",
              "type": "address"
            },
            {
              "internalType": "uint256",
              "name": "amount",
              "type": "uint256"
            },
            {
              "internalType": "uint256",
              "name": "blockNumber",
              "type": "uint256"
            },
            {
              "internalType": "string",
              "name": "ref",
              "type": "string"
            }
          ],
          "internalType": "struct LibFastHistory.TransferProof[]",
          "name": "",
          "type": "tuple[]"
        },
        {
          "internalType": "uint256",
          "name": "",
          "type": "uint256"
        }
      ],
      "stateMutability": "view",
      "type": "function"
    },
    {
      "inputs": [
        {
          "internalType": "address",
          "name": "involvee",
          "type": "address"
        },
        {
          "internalType": "uint256",
          "name": "cursor",
          "type": "uint256"
        },
        {
          "internalType": "uint256",
          "name": "perPage",
          "type": "uint256"
        }
      ],
      "name": "paginateTransferProofsByInvolvee",
      "outputs": [
        {
          "components": [
            {
              "internalType": "address",
              "name": "spender",
              "type": "address"
            },
            {
              "internalType": "address",
              "name": "from",
              "type": "address"
            },
            {
              "internalType": "address",
              "name": "to",
              "type": "address"
            },
            {
              "internalType": "uint256",
              "name": "amount",
              "type": "uint256"
            },
            {
              "internalType": "uint256",
              "name": "blockNumber",
              "type": "uint256"
            },
            {
              "internalType": "string",
              "name": "ref",
              "type": "string"
            }
          ],
          "internalType": "struct LibFastHistory.TransferProof[]",
          "name": "",
          "type": "tuple[]"
        },
        {
          "internalType": "uint256",
          "name": "",
          "type": "uint256"
        }
      ],
      "stateMutability": "view",
      "type": "function"
    },
    {
      "inputs": [],
      "name": "supplyProofCount",
      "outputs": [
        {
          "internalType": "uint256",
          "name": "",
          "type": "uint256"
        }
      ],
      "stateMutability": "view",
      "type": "function"
    },
    {
      "inputs": [
        {
          "internalType": "address",
          "name": "involvee",
          "type": "address"
        }
      ],
      "name": "transferProofByInvolveeCount",
      "outputs": [
        {
          "internalType": "uint256",
          "name": "",
          "type": "uint256"
        }
      ],
      "stateMutability": "view",
      "type": "function"
    },
    {
      "inputs": [],
      "name": "transferProofCount",
      "outputs": [
        {
          "internalType": "uint256",
          "name": "",
          "type": "uint256"
        }
      ],
      "stateMutability": "view",
      "type": "function"
    },
    {
      "inputs": [
        {
          "internalType": "address",
          "name": "spender",
          "type": "address"
        },
        {
          "internalType": "address",
          "name": "from",
          "type": "address"
        },
        {
          "internalType": "address",
          "name": "to",
          "type": "address"
        },
        {
          "internalType": "uint256",
          "name": "amount",
          "type": "uint256"
        },
        {
          "internalType": "string",
          "name": "ref",
          "type": "string"
        }
      ],
      "name": "transfered",
      "outputs": [],
      "stateMutability": "nonpayable",
      "type": "function"
    }
  ],
  "transactionHash": "0x127ac1bc5b4cdb9c62bb1665d02f7eec05741afad790e7531e3681d5c8dc13bf",
  "args": [],
  "numDeployments": 2,
  "solcInputHash": "67bb5c867831a56d763137128047fd14",
  "bytecode": "0x608060405234801561001057600080fd5b5061213e806100206000396000f3fe608060405234801561001057600080fd5b506004361061009e5760003560e01c8063b74977bb11610066578063b74977bb1461015c578063eee2dcc31461018d578063f30014d9146101a9578063f4b54f33146101da578063f4c1210c1461020b5761009e565b8063538be4ac146100a35780635537a67a146100d4578063663f898e146100f2578063a2d14f7014610122578063af2e757b14610140575b600080fd5b6100bd60048036038101906100b891906118e5565b610227565b6040516100cb929190611d4a565b60405180910390f35b6100dc610289565b6040516100e99190611d9c565b60405180910390f35b61010c6004803603810190610107919061182a565b61029f565b6040516101199190611d9c565b60405180910390f35b61012a6102f4565b6040516101379190611d9c565b60405180910390f35b61015a60048036038101906101559190611934565b61030a565b005b6101766004803603810190610171919061198c565b610511565b604051610184929190611cea565b60405180910390f35b6101a760048036038101906101a29190611853565b610535565b005b6101c360048036038101906101be91906118e5565b6108b7565b6040516101d1929190611d1a565b60405180910390f35b6101f460048036038101906101ef919061198c565b610c85565b604051610202929190611d1a565b60405180910390f35b61022560048036038101906102209190611934565b610ca9565b005b6060600061027d610236610eaf565b60030160008773ffffffffffffffffffffffffffffffffffffffff1673ffffffffffffffffffffffffffffffffffffffff1681526020019081526020016000208585610ed7565b91509150935093915050565b6000610293610eaf565b60020180549050905090565b60006102a9610eaf565b60030160008373ffffffffffffffffffffffffffffffffffffffff1673ffffffffffffffffffffffffffffffffffffffff168152602001908152602001600020805490509050919050565b60006102fe610eaf565b60010180549050905090565b3073ffffffffffffffffffffffffffffffffffffffff163373ffffffffffffffffffffffffffffffffffffffff16146040518060400160405280600f81526020017f496e7465726e616c206d6574686f640000000000000000000000000000000000815250906103b0576040517f08c379a00000000000000000000000000000000000000000000000000000000081526004016103a79190611d7a565b60405180910390fd5b506103b9610eaf565b600101604051806080016040528060006001811115610401577f4e487b7100000000000000000000000000000000000000000000000000000000600052602160045260246000fd5b815260200185815260200143815260200184848080601f016020809104026020016040519081016040528093929190818152602001838380828437600081840152601f19601f82011690508083019250505050505050815250908060018154018082558091505060019003906000526020600020906004020160009091909190915060008201518160000160006101000a81548160ff021916908360018111156104d4577f4e487b7100000000000000000000000000000000000000000000000000000000600052602160045260246000fd5b02179055506020820151816001015560408201518160020155606082015181600301908051906020019061050992919061163b565b505050505050565b6060600061052a610520610eaf565b600101858561104c565b915091509250929050565b3073ffffffffffffffffffffffffffffffffffffffff163373ffffffffffffffffffffffffffffffffffffffff16146040518060400160405280600f81526020017f496e7465726e616c206d6574686f640000000000000000000000000000000000815250906105db576040517f08c379a00000000000000000000000000000000000000000000000000000000081526004016105d29190611d7a565b60405180910390fd5b5060006105e6610eaf565b90508060030160008773ffffffffffffffffffffffffffffffffffffffff1673ffffffffffffffffffffffffffffffffffffffff168152602001908152602001600020816002018054905090806001815401808255809150506001900390600052602060002001600090919091909150558060030160008673ffffffffffffffffffffffffffffffffffffffff1673ffffffffffffffffffffffffffffffffffffffff16815260200190815260200160002081600201805490509080600181540180825580915050600190039060005260206000200160009091909190915055806002016040518060c001604052808973ffffffffffffffffffffffffffffffffffffffff1681526020018873ffffffffffffffffffffffffffffffffffffffff1681526020018773ffffffffffffffffffffffffffffffffffffffff16815260200186815260200143815260200185858080601f016020809104026020016040519081016040528093929190818152602001838380828437600081840152601f19601f82011690508083019250505050505050815250908060018154018082558091505060019003906000526020600020906006020160009091909190915060008201518160000160006101000a81548173ffffffffffffffffffffffffffffffffffffffff021916908373ffffffffffffffffffffffffffffffffffffffff16021790555060208201518160010160006101000a81548173ffffffffffffffffffffffffffffffffffffffff021916908373ffffffffffffffffffffffffffffffffffffffff16021790555060408201518160020160006101000a81548173ffffffffffffffffffffffffffffffffffffffff021916908373ffffffffffffffffffffffffffffffffffffffff160217905550606082015181600301556080820151816004015560a08201518160050190805190602001906108ab92919061163b565b50505050505050505050565b60606000806108c4610eaf565b905060008160030160008873ffffffffffffffffffffffffffffffffffffffff1673ffffffffffffffffffffffffffffffffffffffff1681526020019081526020016000209050600086828054905061091d9190611ee5565b8611610929578561093a565b8682805490506109399190611ee5565b5b905060008167ffffffffffffffff81111561097e577f4e487b7100000000000000000000000000000000000000000000000000000000600052604160045260246000fd5b6040519080825280602002602001820160405280156109b757816020015b6109a46116c1565b81526020019060019003908161099c5790505b50905060005b82811015610c67578460020184828b6109d69190611e8f565b81548110610a0d577f4e487b7100000000000000000000000000000000000000000000000000000000600052603260045260246000fd5b906000526020600020015481548110610a4f577f4e487b7100000000000000000000000000000000000000000000000000000000600052603260045260246000fd5b90600052602060002090600602016040518060c00160405290816000820160009054906101000a900473ffffffffffffffffffffffffffffffffffffffff1673ffffffffffffffffffffffffffffffffffffffff1673ffffffffffffffffffffffffffffffffffffffff1681526020016001820160009054906101000a900473ffffffffffffffffffffffffffffffffffffffff1673ffffffffffffffffffffffffffffffffffffffff1673ffffffffffffffffffffffffffffffffffffffff1681526020016002820160009054906101000a900473ffffffffffffffffffffffffffffffffffffffff1673ffffffffffffffffffffffffffffffffffffffff1673ffffffffffffffffffffffffffffffffffffffff1681526020016003820154815260200160048201548152602001600582018054610b8e90611fad565b80601f0160208091040260200160405190810160405280929190818152602001828054610bba90611fad565b8015610c075780601f10610bdc57610100808354040283529160200191610c07565b820191906000526020600020905b815481529060010190602001808311610bea57829003601f168201915b505050505081525050828281518110610c49577f4e487b7100000000000000000000000000000000000000000000000000000000600052603260045260246000fd5b60200260200101819052508080610c5f90611fdf565b9150506109bd565b50808289610c759190611e8f565b9550955050505050935093915050565b60606000610c9e610c94610eaf565b6002018585611306565b915091509250929050565b3073ffffffffffffffffffffffffffffffffffffffff163373ffffffffffffffffffffffffffffffffffffffff16146040518060400160405280600f81526020017f496e7465726e616c206d6574686f64000000000000000000000000000000000081525090610d4f576040517f08c379a0000000000000000000000000000000000000000000000000000000008152600401610d469190611d7a565b60405180910390fd5b50610d58610eaf565b6001016040518060800160405280600180811115610d9f577f4e487b7100000000000000000000000000000000000000000000000000000000600052602160045260246000fd5b815260200185815260200143815260200184848080601f016020809104026020016040519081016040528093929190818152602001838380828437600081840152601f19601f82011690508083019250505050505050815250908060018154018082558091505060019003906000526020600020906004020160009091909190915060008201518160000160006101000a81548160ff02191690836001811115610e72577f4e487b7100000000000000000000000000000000000000000000000000000000600052602160045260246000fd5b021790555060208201518160010155604082015181600201556060820151816003019080519060200190610ea792919061163b565b505050505050565b60007f6bc8b61a9dd5fc049ea98027492a801d74e35fdf4d80d7fecd551a16e88fdbb4905090565b6060600080848680549050610eec9190611ee5565b8411610ef85783610f09565b848680549050610f089190611ee5565b5b905060008167ffffffffffffffff811115610f4d577f4e487b7100000000000000000000000000000000000000000000000000000000600052604160045260246000fd5b604051908082528060200260200182016040528015610f7b5781602001602082028036833780820191505090505b50905060005b8281101561103057878188610f969190611e8f565b81548110610fcd577f4e487b7100000000000000000000000000000000000000000000000000000000600052603260045260246000fd5b9060005260206000200154828281518110611011577f4e487b7100000000000000000000000000000000000000000000000000000000600052603260045260246000fd5b602002602001018181525050808061102890611fdf565b915050610f81565b5080828761103e9190611e8f565b935093505050935093915050565b60606000808486805490506110619190611ee5565b841161106d578361107e565b84868054905061107d9190611ee5565b5b905060008167ffffffffffffffff8111156110c2577f4e487b7100000000000000000000000000000000000000000000000000000000600052604160045260246000fd5b6040519080825280602002602001820160405280156110fb57816020015b6110e8611739565b8152602001906001900390816110e05790505b50905060005b828110156112ea578781886111169190611e8f565b8154811061114d577f4e487b7100000000000000000000000000000000000000000000000000000000600052603260045260246000fd5b90600052602060002090600402016040518060800160405290816000820160009054906101000a900460ff1660018111156111b1577f4e487b7100000000000000000000000000000000000000000000000000000000600052602160045260246000fd5b60018111156111e9577f4e487b7100000000000000000000000000000000000000000000000000000000600052602160045260246000fd5b8152602001600182015481526020016002820154815260200160038201805461121190611fad565b80601f016020809104026020016040519081016040528092919081815260200182805461123d90611fad565b801561128a5780601f1061125f5761010080835404028352916020019161128a565b820191906000526020600020905b81548152906001019060200180831161126d57829003601f168201915b5050505050815250508282815181106112cc577f4e487b7100000000000000000000000000000000000000000000000000000000600052603260045260246000fd5b602002602001018190525080806112e290611fdf565b915050611101565b508082876112f89190611e8f565b935093505050935093915050565b606060008084868054905061131b9190611ee5565b84116113275783611338565b8486805490506113379190611ee5565b5b905060008167ffffffffffffffff81111561137c577f4e487b7100000000000000000000000000000000000000000000000000000000600052604160045260246000fd5b6040519080825280602002602001820160405280156113b557816020015b6113a26116c1565b81526020019060019003908161139a5790505b50905060005b8281101561161f578781886113d09190611e8f565b81548110611407577f4e487b7100000000000000000000000000000000000000000000000000000000600052603260045260246000fd5b90600052602060002090600602016040518060c00160405290816000820160009054906101000a900473ffffffffffffffffffffffffffffffffffffffff1673ffffffffffffffffffffffffffffffffffffffff1673ffffffffffffffffffffffffffffffffffffffff1681526020016001820160009054906101000a900473ffffffffffffffffffffffffffffffffffffffff1673ffffffffffffffffffffffffffffffffffffffff1673ffffffffffffffffffffffffffffffffffffffff1681526020016002820160009054906101000a900473ffffffffffffffffffffffffffffffffffffffff1673ffffffffffffffffffffffffffffffffffffffff1673ffffffffffffffffffffffffffffffffffffffff168152602001600382015481526020016004820154815260200160058201805461154690611fad565b80601f016020809104026020016040519081016040528092919081815260200182805461157290611fad565b80156115bf5780601f10611594576101008083540402835291602001916115bf565b820191906000526020600020905b8154815290600101906020018083116115a257829003601f168201915b505050505081525050828281518110611601577f4e487b7100000000000000000000000000000000000000000000000000000000600052603260045260246000fd5b6020026020010181905250808061161790611fdf565b9150506113bb565b5080828761162d9190611e8f565b935093505050935093915050565b82805461164790611fad565b90600052602060002090601f01602090048101928261166957600085556116b0565b82601f1061168257805160ff19168380011785556116b0565b828001600101855582156116b0579182015b828111156116af578251825591602001919060010190611694565b5b5090506116bd9190611799565b5090565b6040518060c00160405280600073ffffffffffffffffffffffffffffffffffffffff168152602001600073ffffffffffffffffffffffffffffffffffffffff168152602001600073ffffffffffffffffffffffffffffffffffffffff1681526020016000815260200160008152602001606081525090565b60405180608001604052806000600181111561177e577f4e487b7100000000000000000000000000000000000000000000000000000000600052602160045260246000fd5b81526020016000815260200160008152602001606081525090565b5b808211156117b257600081600090555060010161179a565b5090565b6000813590506117c5816120da565b92915050565b60008083601f8401126117dd57600080fd5b8235905067ffffffffffffffff8111156117f657600080fd5b60208301915083600182028301111561180e57600080fd5b9250929050565b600081359050611824816120f1565b92915050565b60006020828403121561183c57600080fd5b600061184a848285016117b6565b91505092915050565b60008060008060008060a0878903121561186c57600080fd5b600061187a89828a016117b6565b965050602061188b89828a016117b6565b955050604061189c89828a016117b6565b94505060606118ad89828a01611815565b935050608087013567ffffffffffffffff8111156118ca57600080fd5b6118d689828a016117cb565b92509250509295509295509295565b6000806000606084860312156118fa57600080fd5b6000611908868287016117b6565b935050602061191986828701611815565b925050604061192a86828701611815565b9150509250925092565b60008060006040848603121561194957600080fd5b600061195786828701611815565b935050602084013567ffffffffffffffff81111561197457600080fd5b611980868287016117cb565b92509250509250925092565b6000806040838503121561199f57600080fd5b60006119ad85828601611815565b92505060206119be85828601611815565b9150509250929050565b60006119d48383611be0565b905092915050565b60006119e88383611c43565b905092915050565b60006119fc8383611ccc565b60208301905092915050565b611a1181611f19565b82525050565b6000611a2282611de7565b611a2c8185611e3a565b935083602082028501611a3e85611db7565b8060005b85811015611a7a5784840389528151611a5b85826119c8565b9450611a6683611e13565b925060208a01995050600181019050611a42565b50829750879550505050505092915050565b6000611a9782611df2565b611aa18185611e4b565b935083602082028501611ab385611dc7565b8060005b85811015611aef5784840389528151611ad085826119dc565b9450611adb83611e20565b925060208a01995050600181019050611ab7565b50829750879550505050505092915050565b6000611b0c82611dfd565b611b168185611e5c565b9350611b2183611dd7565b8060005b83811015611b52578151611b3988826119f0565b9750611b4483611e2d565b925050600181019050611b25565b5085935050505092915050565b611b6881611f68565b82525050565b6000611b7982611e08565b611b838185611e6d565b9350611b93818560208601611f7a565b611b9c816120b5565b840191505092915050565b6000611bb282611e08565b611bbc8185611e7e565b9350611bcc818560208601611f7a565b611bd5816120b5565b840191505092915050565b6000608083016000830151611bf86000860182611b5f565b506020830151611c0b6020860182611ccc565b506040830151611c1e6040860182611ccc565b5060608301518482036060860152611c368282611b6e565b9150508091505092915050565b600060c083016000830151611c5b6000860182611a08565b506020830151611c6e6020860182611a08565b506040830151611c816040860182611a08565b506060830151611c946060860182611ccc565b506080830151611ca76080860182611ccc565b5060a083015184820360a0860152611cbf8282611b6e565b9150508091505092915050565b611cd581611f5e565b82525050565b611ce481611f5e565b82525050565b60006040820190508181036000830152611d048185611a17565b9050611d136020830184611cdb565b9392505050565b60006040820190508181036000830152611d348185611a8c565b9050611d436020830184611cdb565b9392505050565b60006040820190508181036000830152611d648185611b01565b9050611d736020830184611cdb565b9392505050565b60006020820190508181036000830152611d948184611ba7565b905092915050565b6000602082019050611db16000830184611cdb565b92915050565b6000819050602082019050919050565b6000819050602082019050919050565b6000819050602082019050919050565b600081519050919050565b600081519050919050565b600081519050919050565b600081519050919050565b6000602082019050919050565b6000602082019050919050565b6000602082019050919050565b600082825260208201905092915050565b600082825260208201905092915050565b600082825260208201905092915050565b600082825260208201905092915050565b600082825260208201905092915050565b6000611e9a82611f5e565b9150611ea583611f5e565b9250827fffffffffffffffffffffffffffffffffffffffffffffffffffffffffffffffff03821115611eda57611ed9612028565b5b828201905092915050565b6000611ef082611f5e565b9150611efb83611f5e565b925082821015611f0e57611f0d612028565b5b828203905092915050565b6000611f2482611f3e565b9050919050565b6000819050611f39826120c6565b919050565b600073ffffffffffffffffffffffffffffffffffffffff82169050919050565b6000819050919050565b6000611f7382611f2b565b9050919050565b60005b83811015611f98578082015181840152602081019050611f7d565b83811115611fa7576000848401525b50505050565b60006002820490506001821680611fc557607f821691505b60208210811415611fd957611fd8612086565b5b50919050565b6000611fea82611f5e565b91507fffffffffffffffffffffffffffffffffffffffffffffffffffffffffffffffff82141561201d5761201c612028565b5b600182019050919050565b7f4e487b7100000000000000000000000000000000000000000000000000000000600052601160045260246000fd5b7f4e487b7100000000000000000000000000000000000000000000000000000000600052602160045260246000fd5b7f4e487b7100000000000000000000000000000000000000000000000000000000600052602260045260246000fd5b6000601f19601f8301169050919050565b600281106120d7576120d6612057565b5b50565b6120e381611f19565b81146120ee57600080fd5b50565b6120fa81611f5e565b811461210557600080fd5b5056fea2646970667358221220dd8c13daedd2528bd29b9415071551fd8be4b3c93d21f5a8d5320b11cd5fd5ee64736f6c63430008040033",
  "devdoc": {
    "kind": "dev",
    "methods": {},
    "version": 1
  },
  "userdoc": {
    "kind": "user",
    "methods": {
      "minted(uint256,string)": {
        "notice": "Minting history-keeping methods."
      },
      "transfered(address,address,address,uint256,string)": {
        "notice": "Transfer history-keeping methods."
      }
    },
    "version": 1
  },
  "storageLayout": {
    "storage": [],
    "types": null
  }
}