{
  "address": "0x7877B41489589c082F3b5aa980753EdAb42E28F3",
  "abi": [
    {
      "anonymous": false,
      "inputs": [
        {
          "indexed": true,
          "internalType": "address",
          "name": "to",
          "type": "address"
        },
        {
          "indexed": false,
          "internalType": "uint256",
          "name": "amount",
          "type": "uint256"
        }
      ],
      "name": "EthDrained",
      "type": "event"
    },
    {
      "anonymous": false,
      "inputs": [
        {
          "indexed": true,
          "internalType": "address",
          "name": "from",
          "type": "address"
        },
        {
          "indexed": false,
          "internalType": "uint256",
          "name": "amount",
          "type": "uint256"
        }
      ],
      "name": "EthReceived",
      "type": "event"
    },
    {
      "inputs": [],
      "name": "drainEth",
      "outputs": [],
      "stateMutability": "nonpayable",
      "type": "function"
    },
    {
      "inputs": [],
      "name": "exchangeAddress",
      "outputs": [
        {
          "internalType": "address",
          "name": "",
          "type": "address"
        }
      ],
      "stateMutability": "view",
      "type": "function"
    },
    {
      "inputs": [],
      "name": "hasFixedSupply",
      "outputs": [
        {
          "internalType": "bool",
          "name": "",
          "type": "bool"
        }
      ],
      "stateMutability": "view",
      "type": "function"
    },
    {
      "inputs": [],
      "name": "isSemiPublic",
      "outputs": [
        {
          "internalType": "bool",
          "name": "",
          "type": "bool"
        }
      ],
      "stateMutability": "view",
      "type": "function"
    },
    {
      "inputs": [
        {
          "internalType": "address payable",
          "name": "recipient",
          "type": "address"
        },
        {
          "internalType": "uint256",
          "name": "amount",
          "type": "uint256"
        }
      ],
      "name": "payUpTo",
      "outputs": [],
      "stateMutability": "nonpayable",
      "type": "function"
    },
    {
      "inputs": [],
      "name": "provisionWithEth",
      "outputs": [],
      "stateMutability": "payable",
      "type": "function"
    },
    {
      "inputs": [
        {
          "internalType": "bool",
          "name": "flag",
          "type": "bool"
        }
      ],
      "name": "setIsSemiPublic",
      "outputs": [],
      "stateMutability": "nonpayable",
      "type": "function"
    },
    {
      "inputs": [],
      "name": "spcAddress",
      "outputs": [
        {
          "internalType": "address",
          "name": "",
          "type": "address"
        }
      ],
      "stateMutability": "view",
      "type": "function"
    }
  ],
  "transactionHash": "0x349d0045b8b77ab2fc1ba034d14a19a05f83938c8a154c7a6c172892f1ffdfb9",
  "args": [],
  "numDeployments": 1,
  "solcInputHash": "fd2c1b70eb30f59fcde03d0960e64f71",
  "bytecode": "0x608060405234801561001057600080fd5b50610e86806100206000396000f3fe60806040526004361061007b5760003560e01c80638a80e9551161004e5780638a80e955146100f75780639cd0160514610120578063d65cd0101461014b578063ddb2d22b146101745761007b565b80630baac66f1461008057806311e54933146100975780633eca424b146100c2578063582d2b37146100cc575b600080fd5b34801561008c57600080fd5b5061009561019f565b005b3480156100a357600080fd5b506100ac6103df565b6040516100b99190610c96565b60405180910390f35b6100ca6103ff565b005b3480156100d857600080fd5b506100e161052b565b6040516100ee9190610c7b565b60405180910390f35b34801561010357600080fd5b5061011e60048036038101906101199190610b87565b61055e565b005b34801561012c57600080fd5b5061013561076e565b6040516101429190610c7b565b60405180910390f35b34801561015757600080fd5b50610172600480360381019061016d9190610bc3565b6107a1565b005b34801561018057600080fd5b50610189610a7b565b6040516101969190610c96565b60405180910390f35b6101a7610a9b565b60000160029054906101000a900473ffffffffffffffffffffffffffffffffffffffff1673ffffffffffffffffffffffffffffffffffffffff1663a230c524336040518263ffffffff1660e01b81526004016102039190610c7b565b60206040518083038186803b15801561021b57600080fd5b505afa15801561022f573d6000803e3d6000fd5b505050506040513d601f19601f820116820180604052508101906102539190610bec565b6040518060400160405280601781526020017f526571756972657320535043206d656d62657273686970000000000000000000815250906102ca576040517f08c379a00000000000000000000000000000000000000000000000000000000081526004016102c19190610cb1565b60405180910390fd5b5060003073ffffffffffffffffffffffffffffffffffffffff163190503373ffffffffffffffffffffffffffffffffffffffff166108fc829081150290604051600060405180830381858888f1935050505015801561032d573d6000803e3d6000fd5b503373ffffffffffffffffffffffffffffffffffffffff167fd5a7a0257eadbfea7ac4432ca8fe62ac277d64736ab6ef67f11abf238a1e0f1a826040516103749190610cd3565b60405180910390a23073ffffffffffffffffffffffffffffffffffffffff16634f2274c06040518163ffffffff1660e01b8152600401600060405180830381600087803b1580156103c457600080fd5b505af11580156103d8573d6000803e3d6000fd5b5050505050565b60006103e9610a9b565b60010160159054906101000a900460ff16905090565b600034116040518060400160405280601481526020017f4d697373696e67206174746163686564204554480000000000000000000000008152509061047a576040517f08c379a00000000000000000000000000000000000000000000000000000000081526004016104719190610cb1565b60405180910390fd5b503373ffffffffffffffffffffffffffffffffffffffff167f85177f287940f2f05425a4029951af0e047a7f9c4eaa9a6e6917bcd869f86695346040516104c19190610cd3565b60405180910390a23073ffffffffffffffffffffffffffffffffffffffff16634f2274c06040518163ffffffff1660e01b8152600401600060405180830381600087803b15801561051157600080fd5b505af1158015610525573d6000803e3d6000fd5b50505050565b6000610535610a9b565b60000160029054906101000a900473ffffffffffffffffffffffffffffffffffffffff16905090565b3073ffffffffffffffffffffffffffffffffffffffff163373ffffffffffffffffffffffffffffffffffffffff16146040518060400160405280600f81526020017f496e7465726e616c206d6574686f64000000000000000000000000000000000081525090610604576040517f08c379a00000000000000000000000000000000000000000000000000000000081526004016105fb9190610cb1565b60405180910390fd5b50600073ffffffffffffffffffffffffffffffffffffffff168273ffffffffffffffffffffffffffffffffffffffff1614156040518060400160405280601981526020017f5265717569726573206e6f6e2d7a65726f206164647265737300000000000000815250906106ad576040517f08c379a00000000000000000000000000000000000000000000000000000000081526004016106a49190610cb1565b60405180910390fd5b506106b88282610ac3565b90506000811461070a578173ffffffffffffffffffffffffffffffffffffffff166108fc829081150290604051600060405180830381858888f19350505050158015610708573d6000803e3d6000fd5b505b3073ffffffffffffffffffffffffffffffffffffffff16634f2274c06040518163ffffffff1660e01b8152600401600060405180830381600087803b15801561075257600080fd5b505af1158015610766573d6000803e3d6000fd5b505050505050565b6000610778610a9b565b60010160009054906101000a900473ffffffffffffffffffffffffffffffffffffffff16905090565b6107a9610a9b565b60000160029054906101000a900473ffffffffffffffffffffffffffffffffffffffff1673ffffffffffffffffffffffffffffffffffffffff1663a230c524336040518263ffffffff1660e01b81526004016108059190610c7b565b60206040518083038186803b15801561081d57600080fd5b505afa158015610831573d6000803e3d6000fd5b505050506040513d601f19601f820116820180604052508101906108559190610bec565b6040518060400160405280601781526020017f526571756972657320535043206d656d62657273686970000000000000000000815250906108cc576040517f08c379a00000000000000000000000000000000000000000000000000000000081526004016108c39190610cb1565b60405180910390fd5b5060006108d7610a9b565b90503073ffffffffffffffffffffffffffffffffffffffff166311e549336040518163ffffffff1660e01b815260040160206040518083038186803b15801561091f57600080fd5b505afa158015610933573d6000803e3d6000fd5b505050506040513d601f19601f820116820180604052508101906109579190610bec565b15806109e357508115153073ffffffffffffffffffffffffffffffffffffffff166311e549336040518163ffffffff1660e01b815260040160206040518083038186803b1580156109a757600080fd5b505afa1580156109bb573d6000803e3d6000fd5b505050506040513d601f19601f820116820180604052508101906109df9190610bec565b1515145b6040518060400160405280601581526020017f556e737570706f72746564206f7065726174696f6e000000000000000000000081525090610a5a576040517f08c379a0000000000000000000000000000000000000000000000000000000008152600401610a519190610cb1565b60405180910390fd5b50818160010160156101000a81548160ff0219169083151502179055505050565b6000610a85610a9b565b60010160149054906101000a900460ff16905090565b60007f80c187ea6f955fd624c41fb7a18011cc87d98c6f4c06d897b59142f65707e705905090565b6000808373ffffffffffffffffffffffffffffffffffffffff16319050828110610af1576000915050610b2d565b8083610afd9190610d0a565b925060003073ffffffffffffffffffffffffffffffffffffffff1631905083811015610b27578093505b83925050505b92915050565b600081359050610b4281610e0b565b92915050565b600081359050610b5781610e22565b92915050565b600081519050610b6c81610e22565b92915050565b600081359050610b8181610e39565b92915050565b60008060408385031215610b9a57600080fd5b6000610ba885828601610b33565b9250506020610bb985828601610b72565b9150509250929050565b600060208284031215610bd557600080fd5b6000610be384828501610b48565b91505092915050565b600060208284031215610bfe57600080fd5b6000610c0c84828501610b5d565b91505092915050565b610c1e81610d3e565b82525050565b610c2d81610d62565b82525050565b6000610c3e82610cee565b610c488185610cf9565b9350610c58818560208601610d98565b610c6181610dfa565b840191505092915050565b610c7581610d8e565b82525050565b6000602082019050610c906000830184610c15565b92915050565b6000602082019050610cab6000830184610c24565b92915050565b60006020820190508181036000830152610ccb8184610c33565b905092915050565b6000602082019050610ce86000830184610c6c565b92915050565b600081519050919050565b600082825260208201905092915050565b6000610d1582610d8e565b9150610d2083610d8e565b925082821015610d3357610d32610dcb565b5b828203905092915050565b6000610d4982610d6e565b9050919050565b6000610d5b82610d6e565b9050919050565b60008115159050919050565b600073ffffffffffffffffffffffffffffffffffffffff82169050919050565b6000819050919050565b60005b83811015610db6578082015181840152602081019050610d9b565b83811115610dc5576000848401525b50505050565b7f4e487b7100000000000000000000000000000000000000000000000000000000600052601160045260246000fd5b6000601f19601f8301169050919050565b610e1481610d50565b8114610e1f57600080fd5b50565b610e2b81610d62565b8114610e3657600080fd5b50565b610e4281610d8e565b8114610e4d57600080fd5b5056fea2646970667358221220d8ebdd4f5d68c465ca7cc17e3d16f8f778d641b1cd159588577d8309c14a3df364736f6c63430008040033",
  "devdoc": {
    "kind": "dev",
    "methods": {
      "payUpTo(address,uint256)": {
        "details": "This function allows contracts of the FAST network to request ETH provisioning to arbitrary addresses."
      },
      "setIsSemiPublic(bool)": {
        "details": "Allows to switch from a private scheme to a semi-public scheme, but not the other way around."
      }
    },
    "version": 1
  },
  "userdoc": {
    "kind": "user",
    "methods": {},
    "version": 1
  },
  "storageLayout": {
    "storage": [],
    "types": null
  }
}