{
  "address": "0x9B52fFAE016B0e6BafA4609992AC1b5758052f44",
  "abi": [
    {
      "anonymous": false,
      "inputs": [
        {
          "indexed": true,
          "internalType": "address",
          "name": "owner",
          "type": "address"
        },
        {
          "indexed": true,
          "internalType": "address",
          "name": "spender",
          "type": "address"
        },
        {
          "indexed": false,
          "internalType": "uint256",
          "name": "value",
          "type": "uint256"
        }
      ],
      "name": "Approval",
      "type": "event"
    },
    {
      "anonymous": false,
      "inputs": [
        {
          "indexed": true,
          "internalType": "uint256",
          "name": "amount",
          "type": "uint256"
        },
        {
          "indexed": true,
          "internalType": "string",
          "name": "ref",
          "type": "string"
        }
      ],
      "name": "Burnt",
      "type": "event"
    },
    {
      "anonymous": false,
      "inputs": [
        {
          "indexed": true,
          "internalType": "address",
          "name": "owner",
          "type": "address"
        },
        {
          "indexed": true,
          "internalType": "address",
          "name": "spender",
          "type": "address"
        }
      ],
      "name": "Disapproval",
      "type": "event"
    },
    {
      "anonymous": false,
      "inputs": [
        {
          "indexed": true,
          "internalType": "uint256",
          "name": "amount",
          "type": "uint256"
        },
        {
          "indexed": true,
          "internalType": "string",
          "name": "ref",
          "type": "string"
        }
      ],
      "name": "Minted",
      "type": "event"
    },
    {
      "anonymous": false,
      "inputs": [
        {
          "indexed": true,
          "internalType": "address",
          "name": "from",
          "type": "address"
        },
        {
          "indexed": true,
          "internalType": "address",
          "name": "to",
          "type": "address"
        },
        {
          "indexed": false,
          "internalType": "uint256",
          "name": "value",
          "type": "uint256"
        }
      ],
      "name": "Transfer",
      "type": "event"
    },
    {
      "anonymous": false,
      "inputs": [
        {
          "indexed": true,
          "internalType": "address",
          "name": "spcMember",
          "type": "address"
        },
        {
          "indexed": false,
          "internalType": "uint256",
          "name": "amount",
          "type": "uint256"
        }
      ],
      "name": "TransferCreditsAdded",
      "type": "event"
    },
    {
      "anonymous": false,
      "inputs": [
        {
          "indexed": true,
          "internalType": "address",
          "name": "spcMember",
          "type": "address"
        },
        {
          "indexed": false,
          "internalType": "uint256",
          "name": "amount",
          "type": "uint256"
        }
      ],
      "name": "TransferCreditsDrained",
      "type": "event"
    },
    {
      "inputs": [
        {
          "internalType": "uint256",
          "name": "amount",
          "type": "uint256"
        }
      ],
      "name": "addTransferCredits",
      "outputs": [],
      "stateMutability": "nonpayable",
      "type": "function"
    },
    {
      "inputs": [
        {
          "internalType": "address",
          "name": "owner",
          "type": "address"
        },
        {
          "internalType": "address",
          "name": "spender",
          "type": "address"
        }
      ],
      "name": "allowance",
      "outputs": [
        {
          "internalType": "uint256",
          "name": "",
          "type": "uint256"
        }
      ],
      "stateMutability": "view",
      "type": "function"
    },
    {
      "inputs": [
        {
          "internalType": "address",
          "name": "spender",
          "type": "address"
        },
        {
          "internalType": "uint256",
          "name": "amount",
          "type": "uint256"
        }
      ],
      "name": "approve",
      "outputs": [
        {
          "internalType": "bool",
          "name": "",
          "type": "bool"
        }
      ],
      "stateMutability": "nonpayable",
      "type": "function"
    },
    {
      "inputs": [
        {
          "internalType": "address",
          "name": "owner",
          "type": "address"
        }
      ],
      "name": "balanceOf",
      "outputs": [
        {
          "internalType": "uint256",
          "name": "",
          "type": "uint256"
        }
      ],
      "stateMutability": "view",
      "type": "function"
    },
    {
      "inputs": [
        {
          "internalType": "address",
          "name": "member",
          "type": "address"
        }
      ],
      "name": "beforeRemovingMember",
      "outputs": [],
      "stateMutability": "nonpayable",
      "type": "function"
    },
    {
      "inputs": [
        {
          "internalType": "uint256",
          "name": "amount",
          "type": "uint256"
        },
        {
          "internalType": "string",
          "name": "ref",
          "type": "string"
        }
      ],
      "name": "burn",
      "outputs": [],
      "stateMutability": "nonpayable",
      "type": "function"
    },
    {
      "inputs": [],
      "name": "decimals",
      "outputs": [
        {
          "internalType": "uint256",
          "name": "",
          "type": "uint256"
        }
      ],
      "stateMutability": "view",
      "type": "function"
    },
    {
      "inputs": [
        {
          "internalType": "address",
          "name": "from",
          "type": "address"
        },
        {
          "internalType": "address",
          "name": "to",
          "type": "address"
        },
        {
          "internalType": "uint256",
          "name": "amount",
          "type": "uint256"
        }
      ],
      "name": "detectTransferRestriction",
      "outputs": [
        {
          "internalType": "uint8",
          "name": "",
          "type": "uint8"
        }
      ],
      "stateMutability": "view",
      "type": "function"
    },
    {
      "inputs": [
        {
          "internalType": "address",
          "name": "spender",
          "type": "address"
        }
      ],
      "name": "disapprove",
      "outputs": [],
      "stateMutability": "nonpayable",
      "type": "function"
    },
    {
      "inputs": [],
      "name": "drainTransferCredits",
      "outputs": [],
      "stateMutability": "nonpayable",
      "type": "function"
    },
    {
      "inputs": [
        {
          "internalType": "address",
          "name": "owner",
          "type": "address"
        }
      ],
      "name": "givenAllowanceCount",
      "outputs": [
        {
          "internalType": "uint256",
          "name": "",
          "type": "uint256"
        }
      ],
      "stateMutability": "view",
      "type": "function"
    },
    {
      "inputs": [],
      "name": "hasFixedSupply",
      "outputs": [
        {
          "internalType": "bool",
          "name": "",
          "type": "bool"
        }
      ],
      "stateMutability": "view",
      "type": "function"
    },
    {
      "inputs": [],
      "name": "isSemiPublic",
      "outputs": [
        {
          "internalType": "bool",
          "name": "",
          "type": "bool"
        }
      ],
      "stateMutability": "view",
      "type": "function"
    },
    {
      "inputs": [
        {
          "internalType": "uint8",
          "name": "restrictionCode",
          "type": "uint8"
        }
      ],
      "name": "messageForTransferRestriction",
      "outputs": [
        {
          "internalType": "string",
          "name": "",
          "type": "string"
        }
      ],
      "stateMutability": "pure",
      "type": "function"
    },
    {
      "inputs": [
        {
          "internalType": "uint256",
          "name": "amount",
          "type": "uint256"
        },
        {
          "internalType": "string",
          "name": "ref",
          "type": "string"
        }
      ],
      "name": "mint",
      "outputs": [],
      "stateMutability": "nonpayable",
      "type": "function"
    },
    {
      "inputs": [],
      "name": "name",
      "outputs": [
        {
          "internalType": "string",
          "name": "",
          "type": "string"
        }
      ],
      "stateMutability": "view",
      "type": "function"
    },
    {
      "inputs": [
        {
          "internalType": "address",
          "name": "owner",
          "type": "address"
        },
        {
          "internalType": "uint256",
          "name": "index",
          "type": "uint256"
        },
        {
          "internalType": "uint256",
          "name": "perPage",
          "type": "uint256"
        }
      ],
      "name": "paginateAllowancesByOwner",
      "outputs": [
        {
          "internalType": "address[]",
          "name": "",
          "type": "address[]"
        },
        {
          "internalType": "uint256",
          "name": "",
          "type": "uint256"
        }
      ],
      "stateMutability": "view",
      "type": "function"
    },
    {
      "inputs": [
        {
          "internalType": "address",
          "name": "spender",
          "type": "address"
        },
        {
          "internalType": "uint256",
          "name": "index",
          "type": "uint256"
        },
        {
          "internalType": "uint256",
          "name": "perPage",
          "type": "uint256"
        }
      ],
      "name": "paginateAllowancesBySpender",
      "outputs": [
        {
          "internalType": "address[]",
          "name": "",
          "type": "address[]"
        },
        {
          "internalType": "uint256",
          "name": "",
          "type": "uint256"
        }
      ],
      "stateMutability": "view",
      "type": "function"
    },
    {
      "inputs": [
        {
          "internalType": "address",
          "name": "spender",
          "type": "address"
        }
      ],
      "name": "receivedAllowanceCount",
      "outputs": [
        {
          "internalType": "uint256",
          "name": "",
          "type": "uint256"
        }
      ],
      "stateMutability": "view",
      "type": "function"
    },
    {
      "inputs": [
        {
          "internalType": "bool",
          "name": "flag",
          "type": "bool"
        }
      ],
      "name": "setHasFixedSupply",
      "outputs": [],
      "stateMutability": "nonpayable",
      "type": "function"
    },
    {
      "inputs": [
        {
          "internalType": "bool",
          "name": "flag",
          "type": "bool"
        }
      ],
      "name": "setIsSemiPublic",
      "outputs": [],
      "stateMutability": "nonpayable",
      "type": "function"
    },
    {
      "inputs": [],
      "name": "symbol",
      "outputs": [
        {
          "internalType": "string",
          "name": "",
          "type": "string"
        }
      ],
      "stateMutability": "view",
      "type": "function"
    },
    {
      "inputs": [],
      "name": "totalSupply",
      "outputs": [
        {
          "internalType": "uint256",
          "name": "",
          "type": "uint256"
        }
      ],
      "stateMutability": "view",
      "type": "function"
    },
    {
      "inputs": [
        {
          "internalType": "address",
          "name": "to",
          "type": "address"
        },
        {
          "internalType": "uint256",
          "name": "amount",
          "type": "uint256"
        }
      ],
      "name": "transfer",
      "outputs": [
        {
          "internalType": "bool",
          "name": "",
          "type": "bool"
        }
      ],
      "stateMutability": "nonpayable",
      "type": "function"
    },
    {
      "inputs": [],
      "name": "transferCredits",
      "outputs": [
        {
          "internalType": "uint256",
          "name": "",
          "type": "uint256"
        }
      ],
      "stateMutability": "view",
      "type": "function"
    },
    {
      "inputs": [
        {
          "internalType": "address",
          "name": "from",
          "type": "address"
        },
        {
          "internalType": "address",
          "name": "to",
          "type": "address"
        },
        {
          "internalType": "uint256",
          "name": "amount",
          "type": "uint256"
        }
      ],
      "name": "transferFrom",
      "outputs": [
        {
          "internalType": "bool",
          "name": "",
          "type": "bool"
        }
      ],
      "stateMutability": "nonpayable",
      "type": "function"
    },
    {
      "inputs": [
        {
          "internalType": "address",
          "name": "from",
          "type": "address"
        },
        {
          "internalType": "address",
          "name": "to",
          "type": "address"
        },
        {
          "internalType": "uint256",
          "name": "amount",
          "type": "uint256"
        },
        {
          "internalType": "string",
          "name": "ref",
          "type": "string"
        }
      ],
      "name": "transferFromWithRef",
      "outputs": [],
      "stateMutability": "nonpayable",
      "type": "function"
    },
    {
      "inputs": [
        {
          "internalType": "address",
          "name": "to",
          "type": "address"
        },
        {
          "internalType": "uint256",
          "name": "amount",
          "type": "uint256"
        },
        {
          "internalType": "string",
          "name": "ref",
          "type": "string"
        }
      ],
      "name": "transferWithRef",
      "outputs": [],
      "stateMutability": "nonpayable",
      "type": "function"
    }
  ],
  "args": [],
  "numDeployments": 1,
  "solcInputHash": "ff01faa9007aa585a44363003101a726",
  "bytecode": "0x608060405234801561001057600080fd5b50614060806100206000396000f3fe608060405234801561001057600080fd5b50600436106101c45760003560e01c80637641e6f3116100f9578063c485bb9611610097578063dd62ed3e11610071578063dd62ed3e1461053f578063ddb2d22b1461056f578063ddee550c1461058d578063e8edd0e314610597576101c4565b8063c485bb96146104d7578063d4ce1415146104f3578063d65cd01014610523576101c4565b806381a8f243116100d357806381a8f2431461042857806395d89b41146104585780639c999d9014610476578063a9059cbb146104a7576101c4565b80637641e6f3146103c057806377097fc8146103dc5780637f4ab1dd146103f8576101c4565b806323b872dd1161016657806344ce66da1161014057806344ce66da1461033a5780635d7b590f146103565780636ba09c5c1461037257806370a0823114610390576101c4565b806323b872dd146102d05780633000591614610300578063313ce5671461031c576101c4565b806311e54933116101a257806311e549331461024757806315770d991461026557806318160ddd146102815780631fe02e531461029f576101c4565b806306675ba7146101c957806306fdde03146101f9578063095ea7b314610217575b600080fd5b6101e360048036038101906101de91906135e2565b6105b3565b6040516101f09190613bcc565b60405180910390f35b61020161060b565b60405161020e9190613b6a565b60405180910390f35b610231600480360381019061022c9190613711565b6106a6565b60405161023e9190613b4f565b60405180910390f35b61024f610754565b60405161025c9190613b4f565b60405180910390f35b61027f600480360381019061027a91906135e2565b610774565b005b610289610818565b6040516102969190613bcc565b60405180910390f35b6102b960048036038101906102b491906137b4565b61082b565b6040516102c7929190613b1f565b60405180910390f35b6102ea60048036038101906102e59190613647565b610890565b6040516102f79190613b4f565b60405180910390f35b61031a60048036038101906103159190613855565b6108de565b005b610324610a7f565b6040516103319190613bcc565b60405180910390f35b610354600480360381019061034f9190613803565b610a92565b005b610370600480360381019061036b91906135e2565b610be6565b005b61037a610e8d565b6040516103879190613bcc565b60405180910390f35b6103aa60048036038101906103a591906135e2565b610ea0565b6040516103b79190613bcc565b60405180910390f35b6103da60048036038101906103d5919061387e565b610ef2565b005b6103f660048036038101906103f1919061387e565b61124e565b005b610412600480360381019061040d91906138d6565b611549565b60405161041f9190613b6a565b60405180910390f35b610442600480360381019061043d91906135e2565b6116d5565b60405161044f9190613bcc565b60405180910390f35b61046061172d565b60405161046d9190613b6a565b60405180910390f35b610490600480360381019061048b91906137b4565b6117c8565b60405161049e929190613b1f565b60405180910390f35b6104c160048036038101906104bc9190613711565b61182d565b6040516104ce9190613b4f565b60405180910390f35b6104f160048036038101906104ec9190613696565b61187b565b005b61050d60048036038101906105089190613647565b611bab565b60405161051a9190613c19565b60405180910390f35b61053d60048036038101906105389190613803565b611d61565b005b6105596004803603810190610554919061360b565b611f65565b6040516105669190613bcc565b60405180910390f35b61057761210b565b6040516105849190613b4f565b60405180910390f35b61059561212b565b005b6105b160048036038101906105ac919061374d565b6122c4565b005b60006105bd6122d6565b60090160008373ffffffffffffffffffffffffffffffffffffffff1673ffffffffffffffffffffffffffffffffffffffff168152602001908152602001600020600101805490509050919050565b60606106156122d6565b600101805461062390613e0b565b80601f016020809104026020016040519081016040528092919081815260200182805461064f90613e0b565b801561069c5780601f106106715761010080835404028352916020019161069c565b820191906000526020600020905b81548152906001019060200180831161067f57829003601f168201915b5050505050905090565b6000336106c6816106b56122fe565b60030161232690919063ffffffff16565b6040518060400160405280601881526020017f52657175697265732046415354206d656d6265727368697000000000000000008152509061073d576040517f08c379a00000000000000000000000000000000000000000000000000000000081526004016107349190613b6a565b60405180910390fd5b5061074933858561241c565b600191505092915050565b600061075e6122d6565b60060160009054906101000a900460ff16905090565b33610792816107816122fe565b60030161232690919063ffffffff16565b6040518060400160405280601881526020017f52657175697265732046415354206d656d62657273686970000000000000000081525090610809576040517f08c379a00000000000000000000000000000000000000000000000000000000081526004016108009190613b6a565b60405180910390fd5b5061081433836125d4565b5050565b60006108226122d6565b60040154905090565b6060600061088461083a6122d6565b60090160008773ffffffffffffffffffffffffffffffffffffffff1673ffffffffffffffffffffffffffffffffffffffff168152602001908152602001600020600101858561276f565b91509150935093915050565b60006108d38484846040518060400160405280601781526020017f556e737065636966696564202d2076696120455243323000000000000000000081525061187b565b600190509392505050565b336108e7612932565b60000160029054906101000a900473ffffffffffffffffffffffffffffffffffffffff1673ffffffffffffffffffffffffffffffffffffffff1663a230c524826040518263ffffffff1660e01b81526004016109439190613aaa565b60206040518083038186803b15801561095b57600080fd5b505afa15801561096f573d6000803e3d6000fd5b505050506040513d601f19601f82011682018060405250810190610993919061382c565b6040518060400160405280601781526020017f526571756972657320535043206d656d6265727368697000000000000000000081525090610a0a576040517f08c379a0000000000000000000000000000000000000000000000000000000008152600401610a019190613b6a565b60405180910390fd5b5081610a146122d6565b6005016000828254610a269190613cea565b925050819055503373ffffffffffffffffffffffffffffffffffffffff167f7cc75678011427765ae1f965e47e04223c08302df0151ddbf2df44f9e8572c3783604051610a739190613bcc565b60405180910390a25050565b6000610a896122d6565b60030154905090565b33610a9b612932565b60000160029054906101000a900473ffffffffffffffffffffffffffffffffffffffff1673ffffffffffffffffffffffffffffffffffffffff1663a230c524826040518263ffffffff1660e01b8152600401610af79190613aaa565b60206040518083038186803b158015610b0f57600080fd5b505afa158015610b23573d6000803e3d6000fd5b505050506040513d601f19601f82011682018060405250810190610b47919061382c565b6040518060400160405280601781526020017f526571756972657320535043206d656d6265727368697000000000000000000081525090610bbe576040517f08c379a0000000000000000000000000000000000000000000000000000000008152600401610bb59190613b6a565b60405180910390fd5b5081610bc86122d6565b60060160016101000a81548160ff0219169083151502179055505050565b3073ffffffffffffffffffffffffffffffffffffffff163373ffffffffffffffffffffffffffffffffffffffff16146040518060400160405280600f81526020017f496e7465726e616c206d6574686f64000000000000000000000000000000000081525090610c8c576040517f08c379a0000000000000000000000000000000000000000000000000000000008152600401610c839190613b6a565b60405180910390fd5b506000610c976122d6565b90506000610ca483610ea0565b90506000811115610cf457610cf36000846000846040518060400160405280600e81526020017f4d656d6265722072656d6f76616c00000000000000000000000000000000000081525061295a565b5b5060008160090160008473ffffffffffffffffffffffffffffffffffffffff1673ffffffffffffffffffffffffffffffffffffffff16815260200190815260200160002060010190505b600081805490501115610dbe57610db98382600081548110610d89577f4e487b7100000000000000000000000000000000000000000000000000000000600052603260045260246000fd5b9060005260206000200160009054906101000a900473ffffffffffffffffffffffffffffffffffffffff166125d4565b610d3e565b50600081600a0160008473ffffffffffffffffffffffffffffffffffffffff1673ffffffffffffffffffffffffffffffffffffffff16815260200190815260200160002060010190505b600081805490501115610e8857610e8381600081548110610e52577f4e487b7100000000000000000000000000000000000000000000000000000000600052603260045260246000fd5b9060005260206000200160009054906101000a900473ffffffffffffffffffffffffffffffffffffffff16846125d4565b610e08565b505050565b6000610e976122d6565b60050154905090565b6000610eaa6122d6565b60070160008373ffffffffffffffffffffffffffffffffffffffff1673ffffffffffffffffffffffffffffffffffffffff168152602001908152602001600020549050919050565b33610efb612932565b60000160029054906101000a900473ffffffffffffffffffffffffffffffffffffffff1673ffffffffffffffffffffffffffffffffffffffff1663a230c524826040518263ffffffff1660e01b8152600401610f579190613aaa565b60206040518083038186803b158015610f6f57600080fd5b505afa158015610f83573d6000803e3d6000fd5b505050506040513d601f19601f82011682018060405250810190610fa7919061382c565b6040518060400160405280601781526020017f526571756972657320535043206d656d626572736869700000000000000000008152509061101e576040517f08c379a00000000000000000000000000000000000000000000000000000000081526004016110159190613b6a565b60405180910390fd5b5060006110296122d6565b90508060060160019054906101000a900460ff16156040518060400160405280601a81526020017f526571756972657320636f6e74696e756f757320737570706c79000000000000815250906110b5576040517f08c379a00000000000000000000000000000000000000000000000000000000081526004016110ac9190613b6a565b60405180910390fd5b50846110c16000610ea0565b10156040518060400160405280601a81526020017f496e73756666696369656e7420746f6b656e2062616c616e63650000000000008152509061113a576040517f08c379a00000000000000000000000000000000000000000000000000000000081526004016111319190613b6a565b60405180910390fd5b50848160070160008073ffffffffffffffffffffffffffffffffffffffff1673ffffffffffffffffffffffffffffffffffffffff168152602001908152602001600020600082825461118c9190613d40565b925050819055503073ffffffffffffffffffffffffffffffffffffffff1663f4c1210c8686866040518463ffffffff1660e01b81526004016111d093929190613be7565b600060405180830381600087803b1580156111ea57600080fd5b505af11580156111fe573d6000803e3d6000fd5b505050508383604051611212929190613a91565b6040518091039020857f57307d0a4121422158dae7be68e769aa82d8631467b971e4fdfdf3ce9b4c8b7b60405160405180910390a35050505050565b33611257612932565b60000160029054906101000a900473ffffffffffffffffffffffffffffffffffffffff1673ffffffffffffffffffffffffffffffffffffffff1663a230c524826040518263ffffffff1660e01b81526004016112b39190613aaa565b60206040518083038186803b1580156112cb57600080fd5b505afa1580156112df573d6000803e3d6000fd5b505050506040513d601f19601f82011682018060405250810190611303919061382c565b6040518060400160405280601781526020017f526571756972657320535043206d656d626572736869700000000000000000008152509061137a576040517f08c379a00000000000000000000000000000000000000000000000000000000081526004016113719190613b6a565b60405180910390fd5b5060006113856122d6565b90508060060160019054906101000a900460ff1615806113be5750600081600401541480156113bd575060006113bb6000610ea0565b145b5b6040518060400160405280601a81526020017f526571756972657320636f6e74696e756f757320737570706c7900000000000081525090611435576040517f08c379a000000000000000000000000000000000000000000000000000000000815260040161142c9190613b6a565b60405180910390fd5b50848160070160008073ffffffffffffffffffffffffffffffffffffffff1673ffffffffffffffffffffffffffffffffffffffff16815260200190815260200160002060008282546114879190613cea565b925050819055503073ffffffffffffffffffffffffffffffffffffffff1663af2e757b8686866040518463ffffffff1660e01b81526004016114cb93929190613be7565b600060405180830381600087803b1580156114e557600080fd5b505af11580156114f9573d6000803e3d6000fd5b50505050838360405161150d929190613a91565b6040518091039020857fadef11a3979b8ceb0573eb6ef0678134a09c23a0d94e5ea47cd18ac3a9fc019460405160405180910390a35050505050565b6060600160ff168260ff161415611597576040518060400160405280601d81526020017f496e73756666696369656e74207472616e73666572206372656469747300000081525090506116d0565b600360ff168260ff1614156115e3576040518060400160405280601c81526020017f52657175697265732045786368616e6765206d656d626572736869700000000081525090506116d0565b600260ff168260ff16141561162f576040518060400160405280601881526020017f52657175697265732046415354206d656d62657273686970000000000000000081525090506116d0565b600460ff168260ff16141561165e576040518060600160405280602781526020016140046027913990506116d0565b6040518060400160405280601881526020017f556e6b6e6f776e207265737472696374696f6e20636f646500000000000000008152506040517f08c379a00000000000000000000000000000000000000000000000000000000081526004016116c79190613b6a565b60405180910390fd5b919050565b60006116df6122d6565b600a0160008373ffffffffffffffffffffffffffffffffffffffff1673ffffffffffffffffffffffffffffffffffffffff168152602001908152602001600020600101805490509050919050565b60606117376122d6565b600201805461174590613e0b565b80601f016020809104026020016040519081016040528092919081815260200182805461177190613e0b565b80156117be5780601f10611793576101008083540402835291602001916117be565b820191906000526020600020905b8154815290600101906020018083116117a157829003601f168201915b5050505050905090565b606060006118216117d76122d6565b600a0160008773ffffffffffffffffffffffffffffffffffffffff1673ffffffffffffffffffffffffffffffffffffffff168152602001908152602001600020600101858561276f565b91509150935093915050565b6000611871333385856040518060400160405280601781526020017f556e737065636966696564202d2076696120455243323000000000000000000081525061295a565b6001905092915050565b60006118856122d6565b9050600073ffffffffffffffffffffffffffffffffffffffff168573ffffffffffffffffffffffffffffffffffffffff1614156119c2573073ffffffffffffffffffffffffffffffffffffffff1663e43581b8336040518263ffffffff1660e01b81526004016118f59190613aaa565b60206040518083038186803b15801561190d57600080fd5b505afa158015611921573d6000803e3d6000fd5b505050506040513d601f19601f82011682018060405250810190611945919061382c565b6040518060400160405280601a81526020017f5265717569726573204641535420676f7665726e6f7273686970000000000000815250906119bc576040517f08c379a00000000000000000000000000000000000000000000000000000000081526004016119b39190613b6a565b60405180910390fd5b50611b97565b826119cd8633611f65565b10156040518060400160405280601681526020017f496e73756666696369656e7420616c6c6f77616e63650000000000000000000081525090611a46576040517f08c379a0000000000000000000000000000000000000000000000000000000008152600401611a3d9190613b6a565b60405180910390fd5b506000838260080160008873ffffffffffffffffffffffffffffffffffffffff1673ffffffffffffffffffffffffffffffffffffffff16815260200190815260200160002060003373ffffffffffffffffffffffffffffffffffffffff1673ffffffffffffffffffffffffffffffffffffffff1681526020019081526020016000206000828254611ad79190613d40565b92505081905590506000811415611b9557611b3e3360018460090160008a73ffffffffffffffffffffffffffffffffffffffff1673ffffffffffffffffffffffffffffffffffffffff1681526020019081526020016000206130f49092919063ffffffff16565b611b9486600184600a0160003373ffffffffffffffffffffffffffffffffffffffff1673ffffffffffffffffffffffffffffffffffffffff1681526020019081526020016000206130f49092919063ffffffff16565b5b505b611ba4338686868661295a565b5050505050565b600080611bb66122d6565b90508281600501541015611bce576001915050611d5a565b3073ffffffffffffffffffffffffffffffffffffffff1663a230c524866040518263ffffffff1660e01b8152600401611c079190613aaa565b60206040518083038186803b158015611c1f57600080fd5b505afa158015611c33573d6000803e3d6000fd5b505050506040513d601f19601f82011682018060405250810190611c57919061382c565b1580611ce957503073ffffffffffffffffffffffffffffffffffffffff1663a230c524856040518263ffffffff1660e01b8152600401611c979190613aaa565b60206040518083038186803b158015611caf57600080fd5b505afa158015611cc3573d6000803e3d6000fd5b505050506040513d601f19601f82011682018060405250810190611ce7919061382c565b155b15611d16578060060160009054906101000a900460ff16611d0b576002611d0e565b60035b915050611d5a565b8373ffffffffffffffffffffffffffffffffffffffff168573ffffffffffffffffffffffffffffffffffffffff161415611d54576004915050611d5a565b60009150505b9392505050565b33611d6a612932565b60000160029054906101000a900473ffffffffffffffffffffffffffffffffffffffff1673ffffffffffffffffffffffffffffffffffffffff1663a230c524826040518263ffffffff1660e01b8152600401611dc69190613aaa565b60206040518083038186803b158015611dde57600080fd5b505afa158015611df2573d6000803e3d6000fd5b505050506040513d601f19601f82011682018060405250810190611e16919061382c565b6040518060400160405280601781526020017f526571756972657320535043206d656d6265727368697000000000000000000081525090611e8d576040517f08c379a0000000000000000000000000000000000000000000000000000000008152600401611e849190613b6a565b60405180910390fd5b506000611e986122d6565b90508060060160009054906101000a900460ff161580611ecc57508215158160060160009054906101000a900460ff161515145b6040518060400160405280601581526020017f556e737570706f72746564206f7065726174696f6e000000000000000000000081525090611f43576040517f08c379a0000000000000000000000000000000000000000000000000000000008152600401611f3a9190613b6a565b60405180910390fd5b50828160060160006101000a81548160ff021916908315150217905550505050565b600080611f706122d6565b9050600073ffffffffffffffffffffffffffffffffffffffff168473ffffffffffffffffffffffffffffffffffffffff1614801561203357503073ffffffffffffffffffffffffffffffffffffffff1663e43581b8846040518263ffffffff1660e01b8152600401611fe29190613aaa565b60206040518083038186803b158015611ffa57600080fd5b505afa15801561200e573d6000803e3d6000fd5b505050506040513d601f19601f82011682018060405250810190612032919061382c565b5b15612082578060070160008073ffffffffffffffffffffffffffffffffffffffff1673ffffffffffffffffffffffffffffffffffffffff16815260200190815260200160002054915050612105565b8060080160008573ffffffffffffffffffffffffffffffffffffffff1673ffffffffffffffffffffffffffffffffffffffff16815260200190815260200160002060008473ffffffffffffffffffffffffffffffffffffffff1673ffffffffffffffffffffffffffffffffffffffff168152602001908152602001600020549150505b92915050565b60006121156122d6565b60060160019054906101000a900460ff16905090565b33612134612932565b60000160029054906101000a900473ffffffffffffffffffffffffffffffffffffffff1673ffffffffffffffffffffffffffffffffffffffff1663a230c524826040518263ffffffff1660e01b81526004016121909190613aaa565b60206040518083038186803b1580156121a857600080fd5b505afa1580156121bc573d6000803e3d6000fd5b505050506040513d601f19601f820116820180604052508101906121e0919061382c565b6040518060400160405280601781526020017f526571756972657320535043206d656d6265727368697000000000000000000081525090612257576040517f08c379a000000000000000000000000000000000000000000000000000000000815260040161224e9190613b6a565b60405180910390fd5b5060006122626122d6565b90503373ffffffffffffffffffffffffffffffffffffffff167fb5ffee8da10703700415cbf7e501408eb3da0c5dff8eae740afca33b2a2db96882600501546040516122ae9190613bcc565b60405180910390a2600081600501819055505050565b6122d1333385858561295a565b505050565b60007fb098747b87c5c0e2a32eb9b06725e9bad4263809bcda628ceadc1a686bcb8261905090565b60007f87ed8063ac9ead3b2eb7551ed3d89b29fcbf44d6733084b5c82e95d5120ece9a905090565b600080836001018054905014612411578173ffffffffffffffffffffffffffffffffffffffff16836001018460000160008573ffffffffffffffffffffffffffffffffffffffff1673ffffffffffffffffffffffffffffffffffffffff16815260200190815260200160002054815481106123ca577f4e487b7100000000000000000000000000000000000000000000000000000000600052603260045260246000fd5b9060005260206000200160009054906101000a900473ffffffffffffffffffffffffffffffffffffffff1673ffffffffffffffffffffffffffffffffffffffff1614612414565b60005b905092915050565b60006124266122d6565b9050818160080160008673ffffffffffffffffffffffffffffffffffffffff1673ffffffffffffffffffffffffffffffffffffffff16815260200190815260200160002060008573ffffffffffffffffffffffffffffffffffffffff1673ffffffffffffffffffffffffffffffffffffffff16815260200190815260200160002060008282546124b69190613cea565b925050819055506125138360018360090160008873ffffffffffffffffffffffffffffffffffffffff1673ffffffffffffffffffffffffffffffffffffffff1681526020019081526020016000206133aa9092919063ffffffff16565b61256984600183600a0160008773ffffffffffffffffffffffffffffffffffffffff1673ffffffffffffffffffffffffffffffffffffffff1681526020019081526020016000206133aa9092919063ffffffff16565b8273ffffffffffffffffffffffffffffffffffffffff168473ffffffffffffffffffffffffffffffffffffffff167f8c5be1e5ebec7d5bd14f71427d1e84f3dd0314c0f7b2291e5b200ac8c7c3b925846040516125c69190613bcc565b60405180910390a350505050565b60006125de6122d6565b905060008160080160008573ffffffffffffffffffffffffffffffffffffffff1673ffffffffffffffffffffffffffffffffffffffff16815260200190815260200160002060008473ffffffffffffffffffffffffffffffffffffffff1673ffffffffffffffffffffffffffffffffffffffff168152602001908152602001600020819055506126ba8260008360090160008773ffffffffffffffffffffffffffffffffffffffff1673ffffffffffffffffffffffffffffffffffffffff1681526020019081526020016000206130f49092919063ffffffff16565b61271083600083600a0160008673ffffffffffffffffffffffffffffffffffffffff1673ffffffffffffffffffffffffffffffffffffffff1681526020019081526020016000206130f49092919063ffffffff16565b8173ffffffffffffffffffffffffffffffffffffffff168373ffffffffffffffffffffffffffffffffffffffff167f26b05c87141e7af7338d66d51fdd307c37ba1ddc85c6fb74ce01042ebcc17a7c60405160405180910390a3505050565b60606000808486805490506127849190613d40565b841161279057836127a1565b8486805490506127a09190613d40565b5b905060008167ffffffffffffffff8111156127e5577f4e487b7100000000000000000000000000000000000000000000000000000000600052604160045260246000fd5b6040519080825280602002602001820160405280156128135781602001602082028036833780820191505090505b50905060005b828110156129165787818861282e9190613cea565b81548110612865577f4e487b7100000000000000000000000000000000000000000000000000000000600052603260045260246000fd5b9060005260206000200160009054906101000a900473ffffffffffffffffffffffffffffffffffffffff168282815181106128c9577f4e487b7100000000000000000000000000000000000000000000000000000000600052603260045260246000fd5b602002602001019073ffffffffffffffffffffffffffffffffffffffff16908173ffffffffffffffffffffffffffffffffffffffff1681525050808061290e90613e6e565b915050612819565b508082876129249190613cea565b935093505050935093915050565b60007f80c187ea6f955fd624c41fb7a18011cc87d98c6f4c06d897b59142f65707e705905090565b83612978816129676122fe565b60030161232690919063ffffffff16565b80612a5457506129866122d6565b60060160009054906101000a900460ff168015612a5357506129a6612932565b60010160009054906101000a900473ffffffffffffffffffffffffffffffffffffffff1673ffffffffffffffffffffffffffffffffffffffff1663a230c524826040518263ffffffff1660e01b8152600401612a029190613aaa565b60206040518083038186803b158015612a1a57600080fd5b505afa158015612a2e573d6000803e3d6000fd5b505050506040513d601f19601f82011682018060405250810190612a52919061382c565b5b5b80612a8b5750600073ffffffffffffffffffffffffffffffffffffffff168173ffffffffffffffffffffffffffffffffffffffff16145b6040518060400160405280601881526020017f52657175697265732046415354206d656d62657273686970000000000000000081525090612b02576040517f08c379a0000000000000000000000000000000000000000000000000000000008152600401612af99190613b6a565b60405180910390fd5b5083612b2181612b106122fe565b60030161232690919063ffffffff16565b80612bfd5750612b2f6122d6565b60060160009054906101000a900460ff168015612bfc5750612b4f612932565b60010160009054906101000a900473ffffffffffffffffffffffffffffffffffffffff1673ffffffffffffffffffffffffffffffffffffffff1663a230c524826040518263ffffffff1660e01b8152600401612bab9190613aaa565b60206040518083038186803b158015612bc357600080fd5b505afa158015612bd7573d6000803e3d6000fd5b505050506040513d601f19601f82011682018060405250810190612bfb919061382c565b5b5b80612c345750600073ffffffffffffffffffffffffffffffffffffffff168173ffffffffffffffffffffffffffffffffffffffff16145b6040518060400160405280601881526020017f52657175697265732046415354206d656d62657273686970000000000000000081525090612cab576040517f08c379a0000000000000000000000000000000000000000000000000000000008152600401612ca29190613b6a565b60405180910390fd5b5085858073ffffffffffffffffffffffffffffffffffffffff168273ffffffffffffffffffffffffffffffffffffffff1614156040518060600160405280602781526020016140046027913990612d38576040517f08c379a0000000000000000000000000000000000000000000000000000000008152600401612d2f9190613b6a565b60405180910390fd5b506000612d436122d6565b9050868160070160008b73ffffffffffffffffffffffffffffffffffffffff1673ffffffffffffffffffffffffffffffffffffffff1681526020019081526020016000205410156040518060400160405280601a81526020017f496e73756666696369656e7420746f6b656e2062616c616e636500000000000081525090612e01576040517f08c379a0000000000000000000000000000000000000000000000000000000008152600401612df89190613b6a565b60405180910390fd5b50600073ffffffffffffffffffffffffffffffffffffffff168973ffffffffffffffffffffffffffffffffffffffff161480612e41575086816005015410155b6040518060400160405280601d81526020017f496e73756666696369656e74207472616e73666572206372656469747300000081525090612eb8576040517f08c379a0000000000000000000000000000000000000000000000000000000008152600401612eaf9190613b6a565b60405180910390fd5b50868160070160008b73ffffffffffffffffffffffffffffffffffffffff1673ffffffffffffffffffffffffffffffffffffffff1681526020019081526020016000206000828254612f0a9190613d40565b92505081905550868160070160008a73ffffffffffffffffffffffffffffffffffffffff1673ffffffffffffffffffffffffffffffffffffffff1681526020019081526020016000206000828254612f629190613cea565b92505081905550600073ffffffffffffffffffffffffffffffffffffffff168873ffffffffffffffffffffffffffffffffffffffff161415612fbe5786816004016000828254612fb29190613d40565b92505081905550613010565b600073ffffffffffffffffffffffffffffffffffffffff168973ffffffffffffffffffffffffffffffffffffffff16141561300f57868160040160008282546130079190613cea565b925050819055505b5b3073ffffffffffffffffffffffffffffffffffffffff1663eee2dcc38b8b8b8b8b6040518663ffffffff1660e01b8152600401613051959493929190613ac5565b600060405180830381600087803b15801561306b57600080fd5b505af115801561307f573d6000803e3d6000fd5b505050508773ffffffffffffffffffffffffffffffffffffffff168973ffffffffffffffffffffffffffffffffffffffff167fddf252ad1be2c89b69c2b068fc378daa952ba7f163c4a11628f55a4df523b3ef896040516130e09190613bcc565b60405180910390a350505050505050505050565b60006131008484612326565b905081801561310d575080155b1561311857506133a5565b80613158576040517f08c379a000000000000000000000000000000000000000000000000000000000815260040161314f90613bac565b60405180910390fd5b60006001856001018054905061316e9190613d40565b905060008560010182815481106131ae577f4e487b7100000000000000000000000000000000000000000000000000000000600052603260045260246000fd5b9060005260206000200160009054906101000a900473ffffffffffffffffffffffffffffffffffffffff16905060008660000160008773ffffffffffffffffffffffffffffffffffffffff1673ffffffffffffffffffffffffffffffffffffffff168152602001908152602001600020549050808760000160008473ffffffffffffffffffffffffffffffffffffffff1673ffffffffffffffffffffffffffffffffffffffff16815260200190815260200160002081905550818760010182815481106132a4577f4e487b7100000000000000000000000000000000000000000000000000000000600052603260045260246000fd5b9060005260206000200160006101000a81548173ffffffffffffffffffffffffffffffffffffffff021916908373ffffffffffffffffffffffffffffffffffffffff1602179055508660000160008773ffffffffffffffffffffffffffffffffffffffff1673ffffffffffffffffffffffffffffffffffffffff168152602001908152602001600020600090558660010180548061336b577f4e487b7100000000000000000000000000000000000000000000000000000000600052603160045260246000fd5b6001900381819060005260206000200160006101000a81549073ffffffffffffffffffffffffffffffffffffffff02191690559055505050505b505050565b60006133b68484612326565b90508180156133c25750805b156133cd57506134c2565b801561340e576040517f08c379a000000000000000000000000000000000000000000000000000000000815260040161340590613b8c565b60405180910390fd5b83600101805490508460000160008573ffffffffffffffffffffffffffffffffffffffff1673ffffffffffffffffffffffffffffffffffffffff1681526020019081526020016000208190555083600101839080600181540180825580915050600190039060005260206000200160009091909190916101000a81548173ffffffffffffffffffffffffffffffffffffffff021916908373ffffffffffffffffffffffffffffffffffffffff160217905550505b505050565b60006134da6134d584613c59565b613c34565b9050828152602081018484840111156134f257600080fd5b6134fd848285613dc9565b509392505050565b60008135905061351481613fa7565b92915050565b60008135905061352981613fbe565b92915050565b60008151905061353e81613fbe565b92915050565b60008083601f84011261355657600080fd5b8235905067ffffffffffffffff81111561356f57600080fd5b60208301915083600182028301111561358757600080fd5b9250929050565b600082601f83011261359f57600080fd5b81356135af8482602086016134c7565b91505092915050565b6000813590506135c781613fd5565b92915050565b6000813590506135dc81613fec565b92915050565b6000602082840312156135f457600080fd5b600061360284828501613505565b91505092915050565b6000806040838503121561361e57600080fd5b600061362c85828601613505565b925050602061363d85828601613505565b9150509250929050565b60008060006060848603121561365c57600080fd5b600061366a86828701613505565b935050602061367b86828701613505565b925050604061368c868287016135b8565b9150509250925092565b600080600080608085870312156136ac57600080fd5b60006136ba87828801613505565b94505060206136cb87828801613505565b93505060406136dc878288016135b8565b925050606085013567ffffffffffffffff8111156136f957600080fd5b6137058782880161358e565b91505092959194509250565b6000806040838503121561372457600080fd5b600061373285828601613505565b9250506020613743858286016135b8565b9150509250929050565b60008060006060848603121561376257600080fd5b600061377086828701613505565b9350506020613781868287016135b8565b925050604084013567ffffffffffffffff81111561379e57600080fd5b6137aa8682870161358e565b9150509250925092565b6000806000606084860312156137c957600080fd5b60006137d786828701613505565b93505060206137e8868287016135b8565b92505060406137f9868287016135b8565b9150509250925092565b60006020828403121561381557600080fd5b60006138238482850161351a565b91505092915050565b60006020828403121561383e57600080fd5b600061384c8482850161352f565b91505092915050565b60006020828403121561386757600080fd5b6000613875848285016135b8565b91505092915050565b60008060006040848603121561389357600080fd5b60006138a1868287016135b8565b935050602084013567ffffffffffffffff8111156138be57600080fd5b6138ca86828701613544565b92509250509250925092565b6000602082840312156138e857600080fd5b60006138f6848285016135cd565b91505092915050565b600061390b8383613917565b60208301905092915050565b61392081613d74565b82525050565b61392f81613d74565b82525050565b600061394082613c9a565b61394a8185613cbd565b935061395583613c8a565b8060005b8381101561398657815161396d88826138ff565b975061397883613cb0565b925050600181019050613959565b5085935050505092915050565b61399c81613d86565b82525050565b60006139ae8385613cce565b93506139bb838584613dc9565b6139c483613f44565b840190509392505050565b60006139db8385613cdf565b93506139e8838584613dc9565b82840190509392505050565b60006139ff82613ca5565b613a098185613cce565b9350613a19818560208601613dd8565b613a2281613f44565b840191505092915050565b6000613a3a601683613cce565b9150613a4582613f55565b602082019050919050565b6000613a5d601d83613cce565b9150613a6882613f7e565b602082019050919050565b613a7c81613db2565b82525050565b613a8b81613dbc565b82525050565b6000613a9e8284866139cf565b91508190509392505050565b6000602082019050613abf6000830184613926565b92915050565b600060a082019050613ada6000830188613926565b613ae76020830187613926565b613af46040830186613926565b613b016060830185613a73565b8181036080830152613b1381846139f4565b90509695505050505050565b60006040820190508181036000830152613b398185613935565b9050613b486020830184613a73565b9392505050565b6000602082019050613b646000830184613993565b92915050565b60006020820190508181036000830152613b8481846139f4565b905092915050565b60006020820190508181036000830152613ba581613a2d565b9050919050565b60006020820190508181036000830152613bc581613a50565b9050919050565b6000602082019050613be16000830184613a73565b92915050565b6000604082019050613bfc6000830186613a73565b8181036020830152613c0f8184866139a2565b9050949350505050565b6000602082019050613c2e6000830184613a82565b92915050565b6000613c3e613c4f565b9050613c4a8282613e3d565b919050565b6000604051905090565b600067ffffffffffffffff821115613c7457613c73613f15565b5b613c7d82613f44565b9050602081019050919050565b6000819050602082019050919050565b600081519050919050565b600081519050919050565b6000602082019050919050565b600082825260208201905092915050565b600082825260208201905092915050565b600081905092915050565b6000613cf582613db2565b9150613d0083613db2565b9250827fffffffffffffffffffffffffffffffffffffffffffffffffffffffffffffffff03821115613d3557613d34613eb7565b5b828201905092915050565b6000613d4b82613db2565b9150613d5683613db2565b925082821015613d6957613d68613eb7565b5b828203905092915050565b6000613d7f82613d92565b9050919050565b60008115159050919050565b600073ffffffffffffffffffffffffffffffffffffffff82169050919050565b6000819050919050565b600060ff82169050919050565b82818337600083830152505050565b60005b83811015613df6578082015181840152602081019050613ddb565b83811115613e05576000848401525b50505050565b60006002820490506001821680613e2357607f821691505b60208210811415613e3757613e36613ee6565b5b50919050565b613e4682613f44565b810181811067ffffffffffffffff82111715613e6557613e64613f15565b5b80604052505050565b6000613e7982613db2565b91507fffffffffffffffffffffffffffffffffffffffffffffffffffffffffffffffff821415613eac57613eab613eb7565b5b600182019050919050565b7f4e487b7100000000000000000000000000000000000000000000000000000000600052601160045260246000fd5b7f4e487b7100000000000000000000000000000000000000000000000000000000600052602260045260246000fd5b7f4e487b7100000000000000000000000000000000000000000000000000000000600052604160045260246000fd5b6000601f19601f8301169050919050565b7f4164647265737320616c726561647920696e2073657400000000000000000000600082015250565b7f4164647265737320646f6573206e6f7420657869737420696e20736574000000600082015250565b613fb081613d74565b8114613fbb57600080fd5b50565b613fc781613d86565b8114613fd257600080fd5b50565b613fde81613db2565b8114613fe957600080fd5b50565b613ff581613dbc565b811461400057600080fd5b5056fe526571756972657320646966666572656e742073656e64657220616e6420726563697069656e74a26469706673582212202584eba177d1364b126eb8c0cdb65db7a9439604d00b9d3064a53d3e9802a9db64736f6c63430008040033",
  "devdoc": {
    "kind": "dev",
    "methods": {
      "allowance(address,address)": {
        "details": "Returns the remaining number of tokens that `spender` will be allowed to spend on behalf of `owner` through {transferFrom}. This is zero by default. This value changes when {approve} or {transferFrom} are called."
      },
      "approve(address,uint256)": {
        "details": "Sets `amount` as the allowance of `spender` over the caller's tokens. Returns a boolean value indicating whether the operation succeeded. IMPORTANT: Beware that changing an allowance with this method brings the risk that someone may use both the old and the new allowance by unfortunate transaction ordering. One possible solution to mitigate this race condition is to first reduce the spender's allowance to 0 and set the desired value afterwards: https://github.com/ethereum/EIPs/issues/20#issuecomment-263524729 Emits an {Approval} event."
      },
      "totalSupply()": {
        "details": "Returns the amount of tokens in existence."
      }
    },
    "version": 1
  },
  "userdoc": {
    "kind": "user",
    "methods": {
      "beforeRemovingMember(address)": {
        "notice": "Callbacks from other contracts."
      },
      "detectTransferRestriction(address,address,uint256)": {
        "notice": "ERC1404 implementation."
      },
      "givenAllowanceCount(address)": {
        "notice": "Allowances query operations."
      },
      "mint(uint256,string)": {
        "notice": "Minting methods."
      },
      "name()": {
        "notice": "ERC20 implementation and transfer related methods."
      },
      "transferCredits()": {
        "notice": "Tranfer Credit management."
      }
    },
    "version": 1
  },
  "storageLayout": {
    "storage": [],
    "types": null
  }
}