{
  "address": "0xC88c454F9814213b83E889b07F5790f897f0e90C",
  "abi": [
    {
      "inputs": [
        {
          "internalType": "uint256",
          "name": "cursor",
          "type": "uint256"
        },
        {
          "internalType": "uint256",
          "name": "perPage",
          "type": "uint256"
        }
      ],
      "name": "paginateDetailedFasts",
      "outputs": [
        {
          "components": [
            {
              "internalType": "address",
              "name": "addr",
              "type": "address"
            },
            {
              "internalType": "string",
              "name": "name",
              "type": "string"
            },
            {
              "internalType": "string",
              "name": "symbol",
              "type": "string"
            },
            {
              "internalType": "uint256",
              "name": "decimals",
              "type": "uint256"
            },
            {
              "internalType": "uint256",
              "name": "totalSupply",
              "type": "uint256"
            },
            {
              "internalType": "uint256",
              "name": "transferCredits",
              "type": "uint256"
            },
            {
              "internalType": "bool",
              "name": "isSemiPublic",
              "type": "bool"
            },
            {
              "internalType": "bool",
              "name": "hasFixedSupply",
              "type": "bool"
            },
            {
              "internalType": "uint256",
              "name": "reserveBalance",
              "type": "uint256"
            },
            {
              "internalType": "uint256",
              "name": "memberCount",
              "type": "uint256"
            },
            {
              "internalType": "uint256",
              "name": "governorCount",
              "type": "uint256"
            }
          ],
          "internalType": "struct FastFrontendFacet.Details[]",
          "name": "",
          "type": "tuple[]"
        },
        {
          "internalType": "uint256",
          "name": "",
          "type": "uint256"
        }
      ],
      "stateMutability": "view",
      "type": "function"
    }
  ],
  "args": [],
  "numDeployments": 1,
  "solcInputHash": "ff01faa9007aa585a44363003101a726",
  "bytecode": "0x608060405234801561001057600080fd5b50610c46806100206000396000f3fe608060405234801561001057600080fd5b506004361061002b5760003560e01c8063c631108b14610030575b600080fd5b61004a600480360381019061004591906106d2565b610061565b604051610058929190610902565b60405180910390f35b6060600080600061008061007361023e565b6003016001018787610266565b915091506000825167ffffffffffffffff8111156100c7577f4e487b7100000000000000000000000000000000000000000000000000000000600052604160045260246000fd5b60405190808252806020026020018201604052801561010057816020015b6100ed610429565b8152602001906001900390816100e55790505b50905060005b835181101561022d57600084828151811061014a577f4e487b7100000000000000000000000000000000000000000000000000000000600052603260045260246000fd5b602002602001015190508073ffffffffffffffffffffffffffffffffffffffff1663565974d36040518163ffffffff1660e01b815260040160006040518083038186803b15801561019a57600080fd5b505afa1580156101ae573d6000803e3d6000fd5b505050506040513d6000823e3d601f19601f820116820180604052508101906101d79190610691565b838381518110610210577f4e487b7100000000000000000000000000000000000000000000000000000000600052603260045260246000fd5b6020026020010181905250508061022690610b13565b9050610106565b508082945094505050509250929050565b60007f89a652f66ca129ef71cab44916bb070742a08af428e08a99df145c8006c94285905090565b606060008084868054905061027b9190610a33565b84116102875783610298565b8486805490506102979190610a33565b5b905060008167ffffffffffffffff8111156102dc577f4e487b7100000000000000000000000000000000000000000000000000000000600052604160045260246000fd5b60405190808252806020026020018201604052801561030a5781602001602082028036833780820191505090505b50905060005b8281101561040d5787818861032591906109dd565b8154811061035c577f4e487b7100000000000000000000000000000000000000000000000000000000600052603260045260246000fd5b9060005260206000200160009054906101000a900473ffffffffffffffffffffffffffffffffffffffff168282815181106103c0577f4e487b7100000000000000000000000000000000000000000000000000000000600052603260045260246000fd5b602002602001019073ffffffffffffffffffffffffffffffffffffffff16908173ffffffffffffffffffffffffffffffffffffffff1681525050808061040590610b13565b915050610310565b5080828761041b91906109dd565b935093505050935093915050565b604051806101600160405280600073ffffffffffffffffffffffffffffffffffffffff16815260200160608152602001606081526020016000815260200160008152602001600081526020016000151581526020016000151581526020016000815260200160008152602001600081525090565b60006104b06104ab84610957565b610932565b9050828152602081018484840111156104c857600080fd5b6104d3848285610aaf565b509392505050565b6000815190506104ea81610bcb565b92915050565b6000815190506104ff81610be2565b92915050565b600082601f83011261051657600080fd5b815161052684826020860161049d565b91505092915050565b6000610160828403121561054257600080fd5b61054d610160610932565b9050600061055d848285016104db565b600083015250602082015167ffffffffffffffff81111561057d57600080fd5b61058984828501610505565b602083015250604082015167ffffffffffffffff8111156105a957600080fd5b6105b584828501610505565b60408301525060606105c98482850161067c565b60608301525060806105dd8482850161067c565b60808301525060a06105f18482850161067c565b60a08301525060c0610605848285016104f0565b60c08301525060e0610619848285016104f0565b60e08301525061010061062e8482850161067c565b610100830152506101206106448482850161067c565b6101208301525061014061065a8482850161067c565b6101408301525092915050565b60008135905061067681610bf9565b92915050565b60008151905061068b81610bf9565b92915050565b6000602082840312156106a357600080fd5b600082015167ffffffffffffffff8111156106bd57600080fd5b6106c98482850161052f565b91505092915050565b600080604083850312156106e557600080fd5b60006106f385828601610667565b925050602061070485828601610667565b9150509250929050565b600061071a83836107ee565b905092915050565b61072b81610a67565b82525050565b600061073c82610998565b61074681856109bb565b93508360208202850161075885610988565b8060005b858110156107945784840389528151610775858261070e565b9450610780836109ae565b925060208a0199505060018101905061075c565b50829750879550505050505092915050565b6107af81610a79565b82525050565b60006107c0826109a3565b6107ca81856109cc565b93506107da818560208601610aaf565b6107e381610bba565b840191505092915050565b6000610160830160008301516108076000860182610722565b506020830151848203602086015261081f82826107b5565b9150506040830151848203604086015261083982826107b5565b915050606083015161084e60608601826108e4565b50608083015161086160808601826108e4565b5060a083015161087460a08601826108e4565b5060c083015161088760c08601826107a6565b5060e083015161089a60e08601826107a6565b506101008301516108af6101008601826108e4565b506101208301516108c46101208601826108e4565b506101408301516108d96101408601826108e4565b508091505092915050565b6108ed81610aa5565b82525050565b6108fc81610aa5565b82525050565b6000604082019050818103600083015261091c8185610731565b905061092b60208301846108f3565b9392505050565b600061093c61094d565b90506109488282610ae2565b919050565b6000604051905090565b600067ffffffffffffffff82111561097257610971610b8b565b5b61097b82610bba565b9050602081019050919050565b6000819050602082019050919050565b600081519050919050565b600081519050919050565b6000602082019050919050565b600082825260208201905092915050565b600082825260208201905092915050565b60006109e882610aa5565b91506109f383610aa5565b9250827fffffffffffffffffffffffffffffffffffffffffffffffffffffffffffffffff03821115610a2857610a27610b5c565b5b828201905092915050565b6000610a3e82610aa5565b9150610a4983610aa5565b925082821015610a5c57610a5b610b5c565b5b828203905092915050565b6000610a7282610a85565b9050919050565b60008115159050919050565b600073ffffffffffffffffffffffffffffffffffffffff82169050919050565b6000819050919050565b60005b83811015610acd578082015181840152602081019050610ab2565b83811115610adc576000848401525b50505050565b610aeb82610bba565b810181811067ffffffffffffffff82111715610b0a57610b09610b8b565b5b80604052505050565b6000610b1e82610aa5565b91507fffffffffffffffffffffffffffffffffffffffffffffffffffffffffffffffff821415610b5157610b50610b5c565b5b600182019050919050565b7f4e487b7100000000000000000000000000000000000000000000000000000000600052601160045260246000fd5b7f4e487b7100000000000000000000000000000000000000000000000000000000600052604160045260246000fd5b6000601f19601f8301169050919050565b610bd481610a67565b8114610bdf57600080fd5b50565b610beb81610a79565b8114610bf657600080fd5b50565b610c0281610aa5565b8114610c0d57600080fd5b5056fea2646970667358221220dfa32a2b0f34fbb8635c388b3456086a09955d221c93067cb38de5cc5e8c0bb564736f6c63430008040033",
  "devdoc": {
    "details": "The SPC contract is the central place for top-level governorship. It requires that a        first member address is passed at construction time.",
    "kind": "dev",
    "methods": {
      "paginateDetailedFasts(uint256,uint256)": {
        "details": "Paginates the FAST diamonds registered with this SPC based on a starting cursor and a number of records per page.        It returns rich details for each FAST diamond.",
        "params": {
          "cursor": "The index at which to start.",
          "perPage": "How many records should be returned at most."
        },
        "returns": {
          "_0": "A `address[]` list of values at most `perPage` big.",
          "_1": "A `uint256` index to the next page."
        }
      }
    },
    "title": "The SPC Smart Contract.",
    "version": 1
  },
  "userdoc": {
    "kind": "user",
    "methods": {},
    "version": 1
  },
  "storageLayout": {
    "storage": [],
    "types": null
  }
}