{
  "address": "0x789A9BdA84A4aE86aCC8797971197729C3bfc42a",
  "abi": [
    {
      "inputs": [
        {
          "internalType": "uint256",
          "name": "_relayRegistrationMaxAge",
          "type": "uint256"
        }
      ],
      "stateMutability": "nonpayable",
      "type": "constructor"
    },
    {
      "anonymous": false,
      "inputs": [
        {
          "indexed": true,
          "internalType": "address",
          "name": "previousOwner",
          "type": "address"
        },
        {
          "indexed": true,
          "internalType": "address",
          "name": "newOwner",
          "type": "address"
        }
      ],
      "name": "OwnershipTransferred",
      "type": "event"
    },
    {
      "anonymous": false,
      "inputs": [
        {
          "indexed": true,
          "internalType": "address",
          "name": "relayManager",
          "type": "address"
        },
        {
          "indexed": true,
          "internalType": "address",
          "name": "relayHub",
          "type": "address"
        },
        {
          "indexed": false,
          "internalType": "bytes32[3]",
          "name": "relayUrl",
          "type": "bytes32[3]"
        }
      ],
      "name": "RelayServerRegistered",
      "type": "event"
    },
    {
      "inputs": [],
      "name": "getCreationBlock",
      "outputs": [
        {
          "internalType": "uint256",
          "name": "",
          "type": "uint256"
        }
      ],
      "stateMutability": "view",
      "type": "function"
    },
    {
      "inputs": [
        {
          "internalType": "address",
          "name": "relayHub",
          "type": "address"
        },
        {
          "internalType": "address",
          "name": "relayManager",
          "type": "address"
        }
      ],
      "name": "getRelayInfo",
      "outputs": [
        {
          "components": [
            {
              "internalType": "uint32",
              "name": "lastSeenBlockNumber",
              "type": "uint32"
            },
            {
              "internalType": "uint40",
              "name": "lastSeenTimestamp",
              "type": "uint40"
            },
            {
              "internalType": "uint32",
              "name": "firstSeenBlockNumber",
              "type": "uint32"
            },
            {
              "internalType": "uint40",
              "name": "firstSeenTimestamp",
              "type": "uint40"
            },
            {
              "internalType": "bytes32[3]",
              "name": "urlParts",
              "type": "bytes32[3]"
            },
            {
              "internalType": "address",
              "name": "relayManager",
              "type": "address"
            }
          ],
          "internalType": "struct IRelayRegistrar.RelayInfo",
          "name": "",
          "type": "tuple"
        }
      ],
      "stateMutability": "view",
      "type": "function"
    },
    {
      "inputs": [],
      "name": "getRelayRegistrationMaxAge",
      "outputs": [
        {
          "internalType": "uint256",
          "name": "",
          "type": "uint256"
        }
      ],
      "stateMutability": "view",
      "type": "function"
    },
    {
      "inputs": [],
      "name": "owner",
      "outputs": [
        {
          "internalType": "address",
          "name": "",
          "type": "address"
        }
      ],
      "stateMutability": "view",
      "type": "function"
    },
    {
      "inputs": [
        {
          "internalType": "address",
          "name": "relayHub",
          "type": "address"
        }
      ],
      "name": "readRelayInfos",
      "outputs": [
        {
          "components": [
            {
              "internalType": "uint32",
              "name": "lastSeenBlockNumber",
              "type": "uint32"
            },
            {
              "internalType": "uint40",
              "name": "lastSeenTimestamp",
              "type": "uint40"
            },
            {
              "internalType": "uint32",
              "name": "firstSeenBlockNumber",
              "type": "uint32"
            },
            {
              "internalType": "uint40",
              "name": "firstSeenTimestamp",
              "type": "uint40"
            },
            {
              "internalType": "bytes32[3]",
              "name": "urlParts",
              "type": "bytes32[3]"
            },
            {
              "internalType": "address",
              "name": "relayManager",
              "type": "address"
            }
          ],
          "internalType": "struct IRelayRegistrar.RelayInfo[]",
          "name": "info",
          "type": "tuple[]"
        }
      ],
      "stateMutability": "view",
      "type": "function"
    },
    {
      "inputs": [
        {
          "internalType": "address",
          "name": "relayHub",
          "type": "address"
        },
        {
          "internalType": "uint256",
          "name": "oldestBlockNumber",
          "type": "uint256"
        },
        {
          "internalType": "uint256",
          "name": "oldestBlockTimestamp",
          "type": "uint256"
        },
        {
          "internalType": "uint256",
          "name": "maxCount",
          "type": "uint256"
        }
      ],
      "name": "readRelayInfosInRange",
      "outputs": [
        {
          "components": [
            {
              "internalType": "uint32",
              "name": "lastSeenBlockNumber",
              "type": "uint32"
            },
            {
              "internalType": "uint40",
              "name": "lastSeenTimestamp",
              "type": "uint40"
            },
            {
              "internalType": "uint32",
              "name": "firstSeenBlockNumber",
              "type": "uint32"
            },
            {
              "internalType": "uint40",
              "name": "firstSeenTimestamp",
              "type": "uint40"
            },
            {
              "internalType": "bytes32[3]",
              "name": "urlParts",
              "type": "bytes32[3]"
            },
            {
              "internalType": "address",
              "name": "relayManager",
              "type": "address"
            }
          ],
          "internalType": "struct IRelayRegistrar.RelayInfo[]",
          "name": "info",
          "type": "tuple[]"
        }
      ],
      "stateMutability": "view",
      "type": "function"
    },
    {
      "inputs": [
        {
          "internalType": "address",
          "name": "relayHub",
          "type": "address"
        },
        {
          "internalType": "bytes32[3]",
          "name": "url",
          "type": "bytes32[3]"
        }
      ],
      "name": "registerRelayServer",
      "outputs": [],
      "stateMutability": "nonpayable",
      "type": "function"
    },
    {
      "inputs": [],
      "name": "renounceOwnership",
      "outputs": [],
      "stateMutability": "nonpayable",
      "type": "function"
    },
    {
      "inputs": [
        {
          "internalType": "uint256",
          "name": "_relayRegistrationMaxAge",
          "type": "uint256"
        }
      ],
      "name": "setRelayRegistrationMaxAge",
      "outputs": [],
      "stateMutability": "nonpayable",
      "type": "function"
    },
    {
      "inputs": [
        {
          "internalType": "bytes4",
          "name": "interfaceId",
          "type": "bytes4"
        }
      ],
      "name": "supportsInterface",
      "outputs": [
        {
          "internalType": "bool",
          "name": "",
          "type": "bool"
        }
      ],
      "stateMutability": "view",
      "type": "function"
    },
    {
      "inputs": [
        {
          "internalType": "address",
          "name": "newOwner",
          "type": "address"
        }
      ],
      "name": "transferOwnership",
      "outputs": [],
      "stateMutability": "nonpayable",
      "type": "function"
    }
  ],
  "transactionHash": "0x16313c7c49a963e70ccba4bcdfc415dbece6f9a24c2e78972c96531e7ac15228",
  "args": [
    15552000
  ],
  "numDeployments": 1,
  "solcInputHash": "766eaa539015b343a6f8732a84d5a9ae",
  "bytecode": "0x60a060405234801561001057600080fd5b50604051610d06380380610d0683398101604081905261002f91610108565b6100383361004b565b6100418161009b565b5043608052610121565b600080546001600160a01b038381166001600160a01b0319831681178455604051919092169283917f8be0079c531659141344cd1fd0a4f28419497f9722a3daafe3b4186f6b6457e09190a35050565b6100a36100a8565b600355565b6000546001600160a01b031633146101065760405162461bcd60e51b815260206004820181905260248201527f4f776e61626c653a2063616c6c6572206973206e6f7420746865206f776e6572604482015260640160405180910390fd5b565b60006020828403121561011a57600080fd5b5051919050565b608051610bcb61013b600039600060d80152610bcb6000f3fe608060405234801561001057600080fd5b50600436106100a95760003560e01c80638da5cb5b116100715780638da5cb5b14610150578063953f17681461016b578063c240c4561461017e578063e04e5b4f14610191578063f2fde38b14610199578063f999ea82146101ac57600080fd5b806301ffc9a7146100ae57806320ffd56d146100d657806355fb8d6014610106578063715018a61461012657806378ae6b8714610130575b600080fd5b6100c16100bc3660046109f0565b6101bf565b60405190151581526020015b60405180910390f35b7f00000000000000000000000000000000000000000000000000000000000000005b6040519081526020016100cd565b6101196101143660046109b7565b6101f6565b6040516100cd9190610ac3565b61012e6103cd565b005b61014361013e36600461094a565b6103e1565b6040516100cd9190610b12565b6000546040516001600160a01b0390911681526020016100cd565b61012e61017936600461097d565b610505565b61012e61018c366004610a1a565b6105bc565b6003546100f8565b61012e6101a736600461092f565b6105c9565b6101196101ba36600461092f565b610642565b60006001600160e01b03198216634302517960e01b14806101f057506301ffc9a760e01b6001600160e01b03198316145b92915050565b6001600160a01b038416600090815260026020526040812080546060929084116102205783610223565b81545b67ffffffffffffffff81111561023b5761023b610b7f565b60405190808252806020026020018201604052801561027457816020015b610261610865565b8152602001906001900390816102595790505b50925060005b82548110156103c157600083828154811061029757610297610b69565b60009182526020822001546001600160a01b031691506102b78a836103e1565b905088816000015163ffffffff1610806102db575087816020015164ffffffffff16105b156102e75750506103af565b604051637371170960e11b81526001600160a01b0383811660048301528b169063e6e22e129060240160006040518083038186803b15801561032857600080fd5b505afa925050508015610339575060015b610375573d808015610367576040519150601f19603f3d011682016040523d82523d6000602084013e61036c565b606091505b505050506103af565b80868561038181610b38565b96508151811061039357610393610b69565b60200260200101819052508684106103ac5750506103c1565b50505b806103b981610b38565b91505061027a565b50825250949350505050565b6103d5610682565b6103df60006106dc565b565b6103e9610865565b6001600160a01b0383811660009081526001602081815260408084209487168452938152838320845160c081018652815463ffffffff808216835264ffffffffff6401000000008304811695840195909552600160481b82041682880152600160681b900490921660608084019190915285519081019586905293949193909260808501929084019060039082845b815481526020019060010190808311610478575050509183525050600491909101546001600160a01b0316602090910152805190915063ffffffff166104fe5760405162461bcd60e51b81526020600482015260166024820152751c995b185e53585b9859d95c881b9bdd08199bdd5b9960521b60448201526064015b60405180910390fd5b9392505050565b604051634f7de03160e01b81523360048201819052906001600160a01b03841690634f7de03190602401600060405180830381600087803b15801561054957600080fd5b505af115801561055d573d6000803e3d6000fd5b50505050826001600160a01b0316816001600160a01b03167f46962bfc4fa4f2605ce5867e8135e19bf313555ba5936b9adc4a687ceb3a92ba846040516105a49190610ab0565b60405180910390a36105b781848461072c565b505050565b6105c4610682565b600355565b6105d1610682565b6001600160a01b0381166106365760405162461bcd60e51b815260206004820152602660248201527f4f776e61626c653a206e6577206f776e657220697320746865207a65726f206160448201526564647265737360d01b60648201526084016104f5565b61063f816106dc565b50565b60606000429050600060035482101561065c576000610669565b6003546106699083610b21565b905061067a846000836103e86101f6565b949350505050565b6000546001600160a01b031633146103df5760405162461bcd60e51b815260206004820181905260248201527f4f776e61626c653a2063616c6c6572206973206e6f7420746865206f776e657260448201526064016104f5565b600080546001600160a01b038381166001600160a01b0319831681178455604051919092169283917f8be0079c531659141344cd1fd0a4f28419497f9722a3daafe3b4186f6b6457e09190a35050565b600061073883856107ed565b8054909150600160481b900463ffffffff1661079057805471ffffffffffffffffff0000000000000000001916600160481b4363ffffffff160264ffffffffff60681b191617600160681b4264ffffffffff16021781555b80544363ffffffff1668ffffffffffffffffff19909116176401000000004264ffffffffff16021781556004810180546001600160a01b0319166001600160a01b0386161790556107e6600182018360036108a2565b5050505050565b6001600160a01b0380831660009081526001602090815260408083209385168352929052908120805463ffffffff166104fe576001600160a01b0393841660009081526002602090815260408220805460018101825590835291200180546001600160a01b0319169390941692909217909255919050565b6040805160c0810182526000808252602082018190529181018290526060810191909152608081016108956108e0565b8152600060209091015290565b82600381019282156108d0579160200282015b828111156108d05782358255916020019190600101906108b5565b506108dc9291506108fe565b5090565b60405180606001604052806003906020820280368337509192915050565b5b808211156108dc57600081556001016108ff565b80356001600160a01b038116811461092a57600080fd5b919050565b60006020828403121561094157600080fd5b6104fe82610913565b6000806040838503121561095d57600080fd5b61096683610913565b915061097460208401610913565b90509250929050565b6000806080838503121561099057600080fd5b61099983610913565b9150836080840111156109ab57600080fd5b50926020919091019150565b600080600080608085870312156109cd57600080fd5b6109d685610913565b966020860135965060408601359560600135945092505050565b600060208284031215610a0257600080fd5b81356001600160e01b0319811681146104fe57600080fd5b600060208284031215610a2c57600080fd5b5035919050565b63ffffffff80825116835260208083015164ffffffffff808216838701528360408601511660408701528060608601511660608701525050608083015191506080840160005b6003811015610a9657835182529282019290820190600101610a79565b5050505060a001516001600160a01b031660e09190910152565b6060818101908383376000815292915050565b6020808252825182820181905260009190848201906040850190845b81811015610b0657610af2838551610a33565b928401926101009290920191600101610adf565b50909695505050505050565b61010081016101f08284610a33565b600082821015610b3357610b33610b53565b500390565b6000600019821415610b4c57610b4c610b53565b5060010190565b634e487b7160e01b600052601160045260246000fd5b634e487b7160e01b600052603260045260246000fd5b634e487b7160e01b600052604160045260246000fdfea26469706673582212208d9d89b15fca62ff62224e4c3d913c57b2fc45975bbbd1259b9ea9b0d8ad67ed64736f6c63430008070033",
  "devdoc": {
    "kind": "dev",
    "methods": {
      "getCreationBlock()": {
        "returns": {
          "_0": "The block number in which the contract has been deployed."
        }
      },
      "getRelayInfo(address,address)": {
        "params": {
          "relayHub": "The address of the `RelayHub` contract for which this action is performed.",
          "relayManager": "An address of a Relay Manager."
        },
        "returns": {
          "_0": "All the details of the given Relay Manager's registration. Throws if relay not found for `RelayHub`."
        }
      },
      "getRelayRegistrationMaxAge()": {
        "returns": {
          "_0": "The maximum age the relay is considered registered by default by this `RelayRegistrar`, in seconds."
        }
      },
      "owner()": {
        "details": "Returns the address of the current owner."
      },
      "readRelayInfos(address)": {
        "params": {
          "relayHub": "The address of the `RelayHub` contract for which this action is performed."
        },
        "returns": {
          "info": "The list of `RelayInfo`s of registered Relay Servers"
        }
      },
      "readRelayInfosInRange(address,uint256,uint256,uint256)": {
        "params": {
          "maxCount": "The maximum amount of relays to be returned by this function.",
          "oldestBlockNumber": "The latest block number in which a Relay Server may be registered.",
          "oldestBlockTimestamp": "The latest block timestamp in which a Relay Server may be registered.",
          "relayHub": "The address of the `RelayHub` contract for which this action is performed."
        },
        "returns": {
          "info": "The list of `RelayInfo`s of registered Relay Servers"
        }
      },
      "registerRelayServer(address,bytes32[3])": {
        "params": {
          "relayHub": "The address of the `RelayHub` contract for which this action is performed.",
          "url": "The URL of the Relay Server that is listening to the clients' requests."
        }
      },
      "renounceOwnership()": {
        "details": "Leaves the contract without owner. It will not be possible to call `onlyOwner` functions. Can only be called by the current owner. NOTE: Renouncing ownership will leave the contract without an owner, thereby disabling any functionality that is only available to the owner."
      },
      "supportsInterface(bytes4)": {
        "details": "Returns true if this contract implements the interface defined by `interfaceId`. See the corresponding https://eips.ethereum.org/EIPS/eip-165#how-interfaces-are-identified[EIP section] to learn more about how these ids are created. This function call must use less than 30 000 gas."
      },
      "transferOwnership(address)": {
        "details": "Transfers ownership of the contract to a new account (`newOwner`). Can only be called by the current owner."
      }
    },
    "title": "The RelayRegistrar Implementation",
    "version": 1
  },
  "userdoc": {
    "events": {
      "RelayServerRegistered(address,address,bytes32[3])": {
        "notice": "Emitted when a relay server registers or updates its details. Looking up these events allows a client to discover registered Relay Servers."
      }
    },
    "kind": "user",
    "methods": {
      "readRelayInfos(address)": {
        "notice": "Read relay info of registered Relay Server from an on-chain storage."
      },
      "readRelayInfosInRange(address,uint256,uint256,uint256)": {
        "notice": "Read relay info of registered Relay Server from an on-chain storage."
      },
      "registerRelayServer(address,bytes32[3])": {
        "notice": "This function is called by Relay Servers in order to register or to update their registration."
      },
      "setRelayRegistrationMaxAge(uint256)": {
        "notice": "Change the maximum relay registration age."
      }
    },
    "notice": "Keeps a list of registered relayers.Provides view functions to read the list of registered relayers and filters out invalid ones.Protects the list from spamming entries: only staked relayers are added.",
    "version": 1
  },
  "storageLayout": {
    "storage": [
      {
        "astId": 8589,
        "contract": "@opengsn/contracts/src/utils/RelayRegistrar.sol:RelayRegistrar",
        "label": "_owner",
        "offset": 0,
        "slot": "0",
        "type": "t_address"
      },
      {
        "astId": 8167,
        "contract": "@opengsn/contracts/src/utils/RelayRegistrar.sol:RelayRegistrar",
        "label": "values",
        "offset": 0,
        "slot": "1",
        "type": "t_mapping(t_address,t_mapping(t_address,t_struct(RelayInfo)5527_storage))"
      },
      {
        "astId": 8173,
        "contract": "@opengsn/contracts/src/utils/RelayRegistrar.sol:RelayRegistrar",
        "label": "indexedValues",
        "offset": 0,
        "slot": "2",
        "type": "t_mapping(t_address,t_array(t_address)dyn_storage)"
      },
      {
        "astId": 8177,
        "contract": "@opengsn/contracts/src/utils/RelayRegistrar.sol:RelayRegistrar",
        "label": "relayRegistrationMaxAge",
        "offset": 0,
        "slot": "3",
        "type": "t_uint256"
      }
    ],
    "types": {
      "t_address": {
        "encoding": "inplace",
        "label": "address",
        "numberOfBytes": "20"
      },
      "t_array(t_address)dyn_storage": {
        "base": "t_address",
        "encoding": "dynamic_array",
        "label": "address[]",
        "numberOfBytes": "32"
      },
      "t_array(t_bytes32)3_storage": {
        "base": "t_bytes32",
        "encoding": "inplace",
        "label": "bytes32[3]",
        "numberOfBytes": "96"
      },
      "t_bytes32": {
        "encoding": "inplace",
        "label": "bytes32",
        "numberOfBytes": "32"
      },
      "t_mapping(t_address,t_array(t_address)dyn_storage)": {
        "encoding": "mapping",
        "key": "t_address",
        "label": "mapping(address => address[])",
        "numberOfBytes": "32",
        "value": "t_array(t_address)dyn_storage"
      },
      "t_mapping(t_address,t_mapping(t_address,t_struct(RelayInfo)5527_storage))": {
        "encoding": "mapping",
        "key": "t_address",
        "label": "mapping(address => mapping(address => struct IRelayRegistrar.RelayInfo))",
        "numberOfBytes": "32",
        "value": "t_mapping(t_address,t_struct(RelayInfo)5527_storage)"
      },
      "t_mapping(t_address,t_struct(RelayInfo)5527_storage)": {
        "encoding": "mapping",
        "key": "t_address",
        "label": "mapping(address => struct IRelayRegistrar.RelayInfo)",
        "numberOfBytes": "32",
        "value": "t_struct(RelayInfo)5527_storage"
      },
      "t_struct(RelayInfo)5527_storage": {
        "encoding": "inplace",
        "label": "struct IRelayRegistrar.RelayInfo",
        "members": [
          {
            "astId": 5514,
            "contract": "@opengsn/contracts/src/utils/RelayRegistrar.sol:RelayRegistrar",
            "label": "lastSeenBlockNumber",
            "offset": 0,
            "slot": "0",
            "type": "t_uint32"
          },
          {
            "astId": 5516,
            "contract": "@opengsn/contracts/src/utils/RelayRegistrar.sol:RelayRegistrar",
            "label": "lastSeenTimestamp",
            "offset": 4,
            "slot": "0",
            "type": "t_uint40"
          },
          {
            "astId": 5518,
            "contract": "@opengsn/contracts/src/utils/RelayRegistrar.sol:RelayRegistrar",
            "label": "firstSeenBlockNumber",
            "offset": 9,
            "slot": "0",
            "type": "t_uint32"
          },
          {
            "astId": 5520,
            "contract": "@opengsn/contracts/src/utils/RelayRegistrar.sol:RelayRegistrar",
            "label": "firstSeenTimestamp",
            "offset": 13,
            "slot": "0",
            "type": "t_uint40"
          },
          {
            "astId": 5524,
            "contract": "@opengsn/contracts/src/utils/RelayRegistrar.sol:RelayRegistrar",
            "label": "urlParts",
            "offset": 0,
            "slot": "1",
            "type": "t_array(t_bytes32)3_storage"
          },
          {
            "astId": 5526,
            "contract": "@opengsn/contracts/src/utils/RelayRegistrar.sol:RelayRegistrar",
            "label": "relayManager",
            "offset": 0,
            "slot": "4",
            "type": "t_address"
          }
        ],
        "numberOfBytes": "160"
      },
      "t_uint256": {
        "encoding": "inplace",
        "label": "uint256",
        "numberOfBytes": "32"
      },
      "t_uint32": {
        "encoding": "inplace",
        "label": "uint32",
        "numberOfBytes": "4"
      },
      "t_uint40": {
        "encoding": "inplace",
        "label": "uint40",
        "numberOfBytes": "5"
      }
    }
  }
}