{
  "address": "0x1fF8D9c74FC2D9a9FD18E6B3Acf6D5A5846B6A00",
  "abi": [
    {
      "inputs": [
        {
          "internalType": "contract IStakeManager",
          "name": "_stakeManager",
          "type": "address"
        },
        {
          "internalType": "address",
          "name": "_penalizer",
          "type": "address"
        },
        {
          "internalType": "address",
          "name": "_batchGateway",
          "type": "address"
        },
        {
          "internalType": "address",
          "name": "_relayRegistrar",
          "type": "address"
        },
        {
          "components": [
            {
              "internalType": "uint256",
              "name": "maxWorkerCount",
              "type": "uint256"
            },
            {
              "internalType": "uint256",
              "name": "gasReserve",
              "type": "uint256"
            },
            {
              "internalType": "uint256",
              "name": "postOverhead",
              "type": "uint256"
            },
            {
              "internalType": "uint256",
              "name": "gasOverhead",
              "type": "uint256"
            },
            {
              "internalType": "uint256",
              "name": "minimumUnstakeDelay",
              "type": "uint256"
            },
            {
              "internalType": "address",
              "name": "devAddress",
              "type": "address"
            },
            {
              "internalType": "uint8",
              "name": "devFee",
              "type": "uint8"
            },
            {
              "internalType": "uint80",
              "name": "baseRelayFee",
              "type": "uint80"
            },
            {
              "internalType": "uint16",
              "name": "pctRelayFee",
              "type": "uint16"
            }
          ],
          "internalType": "struct IRelayHub.RelayHubConfig",
          "name": "_config",
          "type": "tuple"
        }
      ],
      "stateMutability": "nonpayable",
      "type": "constructor"
    },
    {
      "anonymous": false,
      "inputs": [
        {
          "indexed": true,
          "internalType": "address",
          "name": "relayManager",
          "type": "address"
        },
        {
          "indexed": false,
          "internalType": "uint256",
          "name": "balance",
          "type": "uint256"
        }
      ],
      "name": "AbandonedRelayManagerBalanceEscheated",
      "type": "event"
    },
    {
      "anonymous": false,
      "inputs": [
        {
          "indexed": true,
          "internalType": "address",
          "name": "paymaster",
          "type": "address"
        },
        {
          "indexed": true,
          "internalType": "address",
          "name": "from",
          "type": "address"
        },
        {
          "indexed": false,
          "internalType": "uint256",
          "name": "amount",
          "type": "uint256"
        }
      ],
      "name": "Deposited",
      "type": "event"
    },
    {
      "anonymous": false,
      "inputs": [
        {
          "indexed": false,
          "internalType": "uint256",
          "name": "deprecationTime",
          "type": "uint256"
        }
      ],
      "name": "HubDeprecated",
      "type": "event"
    },
    {
      "anonymous": false,
      "inputs": [
        {
          "indexed": true,
          "internalType": "address",
          "name": "previousOwner",
          "type": "address"
        },
        {
          "indexed": true,
          "internalType": "address",
          "name": "newOwner",
          "type": "address"
        }
      ],
      "name": "OwnershipTransferred",
      "type": "event"
    },
    {
      "anonymous": false,
      "inputs": [
        {
          "components": [
            {
              "internalType": "uint256",
              "name": "maxWorkerCount",
              "type": "uint256"
            },
            {
              "internalType": "uint256",
              "name": "gasReserve",
              "type": "uint256"
            },
            {
              "internalType": "uint256",
              "name": "postOverhead",
              "type": "uint256"
            },
            {
              "internalType": "uint256",
              "name": "gasOverhead",
              "type": "uint256"
            },
            {
              "internalType": "uint256",
              "name": "minimumUnstakeDelay",
              "type": "uint256"
            },
            {
              "internalType": "address",
              "name": "devAddress",
              "type": "address"
            },
            {
              "internalType": "uint8",
              "name": "devFee",
              "type": "uint8"
            },
            {
              "internalType": "uint80",
              "name": "baseRelayFee",
              "type": "uint80"
            },
            {
              "internalType": "uint16",
              "name": "pctRelayFee",
              "type": "uint16"
            }
          ],
          "indexed": false,
          "internalType": "struct IRelayHub.RelayHubConfig",
          "name": "config",
          "type": "tuple"
        }
      ],
      "name": "RelayHubConfigured",
      "type": "event"
    },
    {
      "anonymous": false,
      "inputs": [
        {
          "indexed": true,
          "internalType": "address",
          "name": "relayManager",
          "type": "address"
        },
        {
          "indexed": false,
          "internalType": "address[]",
          "name": "newRelayWorkers",
          "type": "address[]"
        },
        {
          "indexed": false,
          "internalType": "uint256",
          "name": "workersCount",
          "type": "uint256"
        }
      ],
      "name": "RelayWorkersAdded",
      "type": "event"
    },
    {
      "anonymous": false,
      "inputs": [
        {
          "indexed": false,
          "internalType": "address",
          "name": "token",
          "type": "address"
        },
        {
          "indexed": false,
          "internalType": "uint256",
          "name": "minimumStake",
          "type": "uint256"
        }
      ],
      "name": "StakingTokenDataChanged",
      "type": "event"
    },
    {
      "anonymous": false,
      "inputs": [
        {
          "indexed": true,
          "internalType": "address",
          "name": "relayManager",
          "type": "address"
        },
        {
          "indexed": true,
          "internalType": "address",
          "name": "paymaster",
          "type": "address"
        },
        {
          "indexed": true,
          "internalType": "bytes32",
          "name": "relayRequestID",
          "type": "bytes32"
        },
        {
          "indexed": false,
          "internalType": "address",
          "name": "from",
          "type": "address"
        },
        {
          "indexed": false,
          "internalType": "address",
          "name": "to",
          "type": "address"
        },
        {
          "indexed": false,
          "internalType": "address",
          "name": "relayWorker",
          "type": "address"
        },
        {
          "indexed": false,
          "internalType": "bytes4",
          "name": "selector",
          "type": "bytes4"
        },
        {
          "indexed": false,
          "internalType": "uint256",
          "name": "innerGasUsed",
          "type": "uint256"
        },
        {
          "indexed": false,
          "internalType": "bytes",
          "name": "reason",
          "type": "bytes"
        }
      ],
      "name": "TransactionRejectedByPaymaster",
      "type": "event"
    },
    {
      "anonymous": false,
      "inputs": [
        {
          "indexed": true,
          "internalType": "address",
          "name": "relayManager",
          "type": "address"
        },
        {
          "indexed": true,
          "internalType": "address",
          "name": "relayWorker",
          "type": "address"
        },
        {
          "indexed": true,
          "internalType": "bytes32",
          "name": "relayRequestID",
          "type": "bytes32"
        },
        {
          "indexed": false,
          "internalType": "address",
          "name": "from",
          "type": "address"
        },
        {
          "indexed": false,
          "internalType": "address",
          "name": "to",
          "type": "address"
        },
        {
          "indexed": false,
          "internalType": "address",
          "name": "paymaster",
          "type": "address"
        },
        {
          "indexed": false,
          "internalType": "bytes4",
          "name": "selector",
          "type": "bytes4"
        },
        {
          "indexed": false,
          "internalType": "enum IRelayHub.RelayCallStatus",
          "name": "status",
          "type": "uint8"
        },
        {
          "indexed": false,
          "internalType": "uint256",
          "name": "charge",
          "type": "uint256"
        }
      ],
      "name": "TransactionRelayed",
      "type": "event"
    },
    {
      "anonymous": false,
      "inputs": [
        {
          "indexed": false,
          "internalType": "enum IRelayHub.RelayCallStatus",
          "name": "status",
          "type": "uint8"
        },
        {
          "indexed": false,
          "internalType": "bytes",
          "name": "returnValue",
          "type": "bytes"
        }
      ],
      "name": "TransactionResult",
      "type": "event"
    },
    {
      "anonymous": false,
      "inputs": [
        {
          "indexed": true,
          "internalType": "address",
          "name": "account",
          "type": "address"
        },
        {
          "indexed": true,
          "internalType": "address",
          "name": "dest",
          "type": "address"
        },
        {
          "indexed": false,
          "internalType": "uint256",
          "name": "amount",
          "type": "uint256"
        }
      ],
      "name": "Withdrawn",
      "type": "event"
    },
    {
      "inputs": [
        {
          "internalType": "address[]",
          "name": "newRelayWorkers",
          "type": "address[]"
        }
      ],
      "name": "addRelayWorkers",
      "outputs": [],
      "stateMutability": "nonpayable",
      "type": "function"
    },
    {
      "inputs": [],
      "name": "aggregateGasleft",
      "outputs": [
        {
          "internalType": "uint256",
          "name": "",
          "type": "uint256"
        }
      ],
      "stateMutability": "view",
      "type": "function"
    },
    {
      "inputs": [
        {
          "internalType": "address",
          "name": "target",
          "type": "address"
        }
      ],
      "name": "balanceOf",
      "outputs": [
        {
          "internalType": "uint256",
          "name": "",
          "type": "uint256"
        }
      ],
      "stateMutability": "view",
      "type": "function"
    },
    {
      "inputs": [
        {
          "internalType": "uint256",
          "name": "gasUsed",
          "type": "uint256"
        },
        {
          "components": [
            {
              "internalType": "uint256",
              "name": "maxFeePerGas",
              "type": "uint256"
            },
            {
              "internalType": "uint256",
              "name": "maxPriorityFeePerGas",
              "type": "uint256"
            },
            {
              "internalType": "uint256",
              "name": "transactionCalldataGasUsed",
              "type": "uint256"
            },
            {
              "internalType": "address",
              "name": "relayWorker",
              "type": "address"
            },
            {
              "internalType": "address",
              "name": "paymaster",
              "type": "address"
            },
            {
              "internalType": "address",
              "name": "forwarder",
              "type": "address"
            },
            {
              "internalType": "bytes",
              "name": "paymasterData",
              "type": "bytes"
            },
            {
              "internalType": "uint256",
              "name": "clientId",
              "type": "uint256"
            }
          ],
          "internalType": "struct GsnTypes.RelayData",
          "name": "relayData",
          "type": "tuple"
        }
      ],
      "name": "calculateCharge",
      "outputs": [
        {
          "internalType": "uint256",
          "name": "",
          "type": "uint256"
        }
      ],
      "stateMutability": "view",
      "type": "function"
    },
    {
      "inputs": [
        {
          "internalType": "uint256",
          "name": "charge",
          "type": "uint256"
        }
      ],
      "name": "calculateDevCharge",
      "outputs": [
        {
          "internalType": "uint256",
          "name": "",
          "type": "uint256"
        }
      ],
      "stateMutability": "view",
      "type": "function"
    },
    {
      "inputs": [
        {
          "internalType": "address",
          "name": "target",
          "type": "address"
        }
      ],
      "name": "depositFor",
      "outputs": [],
      "stateMutability": "payable",
      "type": "function"
    },
    {
      "inputs": [
        {
          "internalType": "uint256",
          "name": "_deprecationTime",
          "type": "uint256"
        }
      ],
      "name": "deprecateHub",
      "outputs": [],
      "stateMutability": "nonpayable",
      "type": "function"
    },
    {
      "inputs": [
        {
          "internalType": "address",
          "name": "relayManager",
          "type": "address"
        }
      ],
      "name": "escheatAbandonedRelayBalance",
      "outputs": [],
      "stateMutability": "nonpayable",
      "type": "function"
    },
    {
      "inputs": [],
      "name": "getBatchGateway",
      "outputs": [
        {
          "internalType": "address",
          "name": "",
          "type": "address"
        }
      ],
      "stateMutability": "view",
      "type": "function"
    },
    {
      "inputs": [],
      "name": "getConfiguration",
      "outputs": [
        {
          "components": [
            {
              "internalType": "uint256",
              "name": "maxWorkerCount",
              "type": "uint256"
            },
            {
              "internalType": "uint256",
              "name": "gasReserve",
              "type": "uint256"
            },
            {
              "internalType": "uint256",
              "name": "postOverhead",
              "type": "uint256"
            },
            {
              "internalType": "uint256",
              "name": "gasOverhead",
              "type": "uint256"
            },
            {
              "internalType": "uint256",
              "name": "minimumUnstakeDelay",
              "type": "uint256"
            },
            {
              "internalType": "address",
              "name": "devAddress",
              "type": "address"
            },
            {
              "internalType": "uint8",
              "name": "devFee",
              "type": "uint8"
            },
            {
              "internalType": "uint80",
              "name": "baseRelayFee",
              "type": "uint80"
            },
            {
              "internalType": "uint16",
              "name": "pctRelayFee",
              "type": "uint16"
            }
          ],
          "internalType": "struct IRelayHub.RelayHubConfig",
          "name": "",
          "type": "tuple"
        }
      ],
      "stateMutability": "view",
      "type": "function"
    },
    {
      "inputs": [],
      "name": "getCreationBlock",
      "outputs": [
        {
          "internalType": "uint256",
          "name": "",
          "type": "uint256"
        }
      ],
      "stateMutability": "view",
      "type": "function"
    },
    {
      "inputs": [],
      "name": "getDeprecationTime",
      "outputs": [
        {
          "internalType": "uint256",
          "name": "",
          "type": "uint256"
        }
      ],
      "stateMutability": "view",
      "type": "function"
    },
    {
      "inputs": [
        {
          "internalType": "contract IERC20",
          "name": "token",
          "type": "address"
        }
      ],
      "name": "getMinimumStakePerToken",
      "outputs": [
        {
          "internalType": "uint256",
          "name": "",
          "type": "uint256"
        }
      ],
      "stateMutability": "view",
      "type": "function"
    },
    {
      "inputs": [],
      "name": "getPenalizer",
      "outputs": [
        {
          "internalType": "address",
          "name": "",
          "type": "address"
        }
      ],
      "stateMutability": "view",
      "type": "function"
    },
    {
      "inputs": [],
      "name": "getRelayRegistrar",
      "outputs": [
        {
          "internalType": "address",
          "name": "",
          "type": "address"
        }
      ],
      "stateMutability": "view",
      "type": "function"
    },
    {
      "inputs": [],
      "name": "getStakeManager",
      "outputs": [
        {
          "internalType": "contract IStakeManager",
          "name": "",
          "type": "address"
        }
      ],
      "stateMutability": "view",
      "type": "function"
    },
    {
      "inputs": [
        {
          "internalType": "address",
          "name": "manager",
          "type": "address"
        }
      ],
      "name": "getWorkerCount",
      "outputs": [
        {
          "internalType": "uint256",
          "name": "",
          "type": "uint256"
        }
      ],
      "stateMutability": "view",
      "type": "function"
    },
    {
      "inputs": [
        {
          "internalType": "address",
          "name": "worker",
          "type": "address"
        }
      ],
      "name": "getWorkerManager",
      "outputs": [
        {
          "internalType": "address",
          "name": "",
          "type": "address"
        }
      ],
      "stateMutability": "view",
      "type": "function"
    },
    {
      "inputs": [
        {
          "internalType": "string",
          "name": "domainSeparatorName",
          "type": "string"
        },
        {
          "components": [
            {
              "components": [
                {
                  "internalType": "address",
                  "name": "from",
                  "type": "address"
                },
                {
                  "internalType": "address",
                  "name": "to",
                  "type": "address"
                },
                {
                  "internalType": "uint256",
                  "name": "value",
                  "type": "uint256"
                },
                {
                  "internalType": "uint256",
                  "name": "gas",
                  "type": "uint256"
                },
                {
                  "internalType": "uint256",
                  "name": "nonce",
                  "type": "uint256"
                },
                {
                  "internalType": "bytes",
                  "name": "data",
                  "type": "bytes"
                },
                {
                  "internalType": "uint256",
                  "name": "validUntilTime",
                  "type": "uint256"
                }
              ],
              "internalType": "struct IForwarder.ForwardRequest",
              "name": "request",
              "type": "tuple"
            },
            {
              "components": [
                {
                  "internalType": "uint256",
                  "name": "maxFeePerGas",
                  "type": "uint256"
                },
                {
                  "internalType": "uint256",
                  "name": "maxPriorityFeePerGas",
                  "type": "uint256"
                },
                {
                  "internalType": "uint256",
                  "name": "transactionCalldataGasUsed",
                  "type": "uint256"
                },
                {
                  "internalType": "address",
                  "name": "relayWorker",
                  "type": "address"
                },
                {
                  "internalType": "address",
                  "name": "paymaster",
                  "type": "address"
                },
                {
                  "internalType": "address",
                  "name": "forwarder",
                  "type": "address"
                },
                {
                  "internalType": "bytes",
                  "name": "paymasterData",
                  "type": "bytes"
                },
                {
                  "internalType": "uint256",
                  "name": "clientId",
                  "type": "uint256"
                }
              ],
              "internalType": "struct GsnTypes.RelayData",
              "name": "relayData",
              "type": "tuple"
            }
          ],
          "internalType": "struct GsnTypes.RelayRequest",
          "name": "relayRequest",
          "type": "tuple"
        },
        {
          "internalType": "bytes",
          "name": "signature",
          "type": "bytes"
        },
        {
          "internalType": "bytes",
          "name": "approvalData",
          "type": "bytes"
        },
        {
          "components": [
            {
              "internalType": "uint256",
              "name": "acceptanceBudget",
              "type": "uint256"
            },
            {
              "internalType": "uint256",
              "name": "preRelayedCallGasLimit",
              "type": "uint256"
            },
            {
              "internalType": "uint256",
              "name": "postRelayedCallGasLimit",
              "type": "uint256"
            },
            {
              "internalType": "uint256",
              "name": "calldataSizeLimit",
              "type": "uint256"
            }
          ],
          "internalType": "struct IPaymaster.GasAndDataLimits",
          "name": "gasAndDataLimits",
          "type": "tuple"
        },
        {
          "internalType": "uint256",
          "name": "totalInitialGas",
          "type": "uint256"
        },
        {
          "internalType": "uint256",
          "name": "maxPossibleGas",
          "type": "uint256"
        }
      ],
      "name": "innerRelayCall",
      "outputs": [
        {
          "internalType": "enum IRelayHub.RelayCallStatus",
          "name": "",
          "type": "uint8"
        },
        {
          "internalType": "bytes",
          "name": "",
          "type": "bytes"
        }
      ],
      "stateMutability": "nonpayable",
      "type": "function"
    },
    {
      "inputs": [],
      "name": "isDeprecated",
      "outputs": [
        {
          "internalType": "bool",
          "name": "",
          "type": "bool"
        }
      ],
      "stateMutability": "view",
      "type": "function"
    },
    {
      "inputs": [
        {
          "internalType": "address",
          "name": "relayManager",
          "type": "address"
        }
      ],
      "name": "isRelayEscheatable",
      "outputs": [
        {
          "internalType": "bool",
          "name": "",
          "type": "bool"
        }
      ],
      "stateMutability": "view",
      "type": "function"
    },
    {
      "inputs": [
        {
          "internalType": "address",
          "name": "relayManager",
          "type": "address"
        }
      ],
      "name": "onRelayServerRegistered",
      "outputs": [],
      "stateMutability": "nonpayable",
      "type": "function"
    },
    {
      "inputs": [],
      "name": "owner",
      "outputs": [
        {
          "internalType": "address",
          "name": "",
          "type": "address"
        }
      ],
      "stateMutability": "view",
      "type": "function"
    },
    {
      "inputs": [
        {
          "internalType": "address",
          "name": "relayWorker",
          "type": "address"
        },
        {
          "internalType": "address payable",
          "name": "beneficiary",
          "type": "address"
        }
      ],
      "name": "penalize",
      "outputs": [],
      "stateMutability": "nonpayable",
      "type": "function"
    },
    {
      "inputs": [
        {
          "internalType": "string",
          "name": "domainSeparatorName",
          "type": "string"
        },
        {
          "internalType": "uint256",
          "name": "maxAcceptanceBudget",
          "type": "uint256"
        },
        {
          "components": [
            {
              "components": [
                {
                  "internalType": "address",
                  "name": "from",
                  "type": "address"
                },
                {
                  "internalType": "address",
                  "name": "to",
                  "type": "address"
                },
                {
                  "internalType": "uint256",
                  "name": "value",
                  "type": "uint256"
                },
                {
                  "internalType": "uint256",
                  "name": "gas",
                  "type": "uint256"
                },
                {
                  "internalType": "uint256",
                  "name": "nonce",
                  "type": "uint256"
                },
                {
                  "internalType": "bytes",
                  "name": "data",
                  "type": "bytes"
                },
                {
                  "internalType": "uint256",
                  "name": "validUntilTime",
                  "type": "uint256"
                }
              ],
              "internalType": "struct IForwarder.ForwardRequest",
              "name": "request",
              "type": "tuple"
            },
            {
              "components": [
                {
                  "internalType": "uint256",
                  "name": "maxFeePerGas",
                  "type": "uint256"
                },
                {
                  "internalType": "uint256",
                  "name": "maxPriorityFeePerGas",
                  "type": "uint256"
                },
                {
                  "internalType": "uint256",
                  "name": "transactionCalldataGasUsed",
                  "type": "uint256"
                },
                {
                  "internalType": "address",
                  "name": "relayWorker",
                  "type": "address"
                },
                {
                  "internalType": "address",
                  "name": "paymaster",
                  "type": "address"
                },
                {
                  "internalType": "address",
                  "name": "forwarder",
                  "type": "address"
                },
                {
                  "internalType": "bytes",
                  "name": "paymasterData",
                  "type": "bytes"
                },
                {
                  "internalType": "uint256",
                  "name": "clientId",
                  "type": "uint256"
                }
              ],
              "internalType": "struct GsnTypes.RelayData",
              "name": "relayData",
              "type": "tuple"
            }
          ],
          "internalType": "struct GsnTypes.RelayRequest",
          "name": "relayRequest",
          "type": "tuple"
        },
        {
          "internalType": "bytes",
          "name": "signature",
          "type": "bytes"
        },
        {
          "internalType": "bytes",
          "name": "approvalData",
          "type": "bytes"
        }
      ],
      "name": "relayCall",
      "outputs": [
        {
          "internalType": "bool",
          "name": "paymasterAccepted",
          "type": "bool"
        },
        {
          "internalType": "uint256",
          "name": "charge",
          "type": "uint256"
        },
        {
          "internalType": "enum IRelayHub.RelayCallStatus",
          "name": "status",
          "type": "uint8"
        },
        {
          "internalType": "bytes",
          "name": "returnValue",
          "type": "bytes"
        }
      ],
      "stateMutability": "nonpayable",
      "type": "function"
    },
    {
      "inputs": [],
      "name": "renounceOwnership",
      "outputs": [],
      "stateMutability": "nonpayable",
      "type": "function"
    },
    {
      "inputs": [
        {
          "components": [
            {
              "internalType": "uint256",
              "name": "maxWorkerCount",
              "type": "uint256"
            },
            {
              "internalType": "uint256",
              "name": "gasReserve",
              "type": "uint256"
            },
            {
              "internalType": "uint256",
              "name": "postOverhead",
              "type": "uint256"
            },
            {
              "internalType": "uint256",
              "name": "gasOverhead",
              "type": "uint256"
            },
            {
              "internalType": "uint256",
              "name": "minimumUnstakeDelay",
              "type": "uint256"
            },
            {
              "internalType": "address",
              "name": "devAddress",
              "type": "address"
            },
            {
              "internalType": "uint8",
              "name": "devFee",
              "type": "uint8"
            },
            {
              "internalType": "uint80",
              "name": "baseRelayFee",
              "type": "uint80"
            },
            {
              "internalType": "uint16",
              "name": "pctRelayFee",
              "type": "uint16"
            }
          ],
          "internalType": "struct IRelayHub.RelayHubConfig",
          "name": "_config",
          "type": "tuple"
        }
      ],
      "name": "setConfiguration",
      "outputs": [],
      "stateMutability": "nonpayable",
      "type": "function"
    },
    {
      "inputs": [
        {
          "internalType": "contract IERC20[]",
          "name": "token",
          "type": "address[]"
        },
        {
          "internalType": "uint256[]",
          "name": "minimumStake",
          "type": "uint256[]"
        }
      ],
      "name": "setMinimumStakes",
      "outputs": [],
      "stateMutability": "nonpayable",
      "type": "function"
    },
    {
      "inputs": [
        {
          "internalType": "bytes4",
          "name": "interfaceId",
          "type": "bytes4"
        }
      ],
      "name": "supportsInterface",
      "outputs": [
        {
          "internalType": "bool",
          "name": "",
          "type": "bool"
        }
      ],
      "stateMutability": "view",
      "type": "function"
    },
    {
      "inputs": [
        {
          "internalType": "address",
          "name": "newOwner",
          "type": "address"
        }
      ],
      "name": "transferOwnership",
      "outputs": [],
      "stateMutability": "nonpayable",
      "type": "function"
    },
    {
      "inputs": [
        {
          "internalType": "address",
          "name": "relayManager",
          "type": "address"
        }
      ],
      "name": "verifyRelayManagerStaked",
      "outputs": [],
      "stateMutability": "view",
      "type": "function"
    },
    {
      "inputs": [],
      "name": "versionHub",
      "outputs": [
        {
          "internalType": "string",
          "name": "",
          "type": "string"
        }
      ],
      "stateMutability": "pure",
      "type": "function"
    },
    {
      "inputs": [
        {
          "internalType": "address payable",
          "name": "dest",
          "type": "address"
        },
        {
          "internalType": "uint256",
          "name": "amount",
          "type": "uint256"
        }
      ],
      "name": "withdraw",
      "outputs": [],
      "stateMutability": "nonpayable",
      "type": "function"
    },
    {
      "inputs": [
        {
          "internalType": "address payable[]",
          "name": "dest",
          "type": "address[]"
        },
        {
          "internalType": "uint256[]",
          "name": "amount",
          "type": "uint256[]"
        }
      ],
      "name": "withdrawMultiple",
      "outputs": [],
      "stateMutability": "nonpayable",
      "type": "function"
    }
  ],
  "transactionHash": "0x23f37ebf8ead55499fe23b780ce548a0f6903dd4e549fa0cdf73fad464506a05",
  "args": [
    "0x542B24678Ee3c319EBE006aD677cf8Ce4C6F97b0",
    "0x6d57Dff87ED83c85Bcd79560AFc95004F398D6E2",
    "0x0000000000000000000000000000000000000000",
    "0x789A9BdA84A4aE86aCC8797971197729C3bfc42a",
    {
      "gasOverhead": 34909,
      "postOverhead": 38516,
      "gasReserve": 100000,
      "maxWorkerCount": 10,
      "minimumUnstakeDelay": 15000,
      "devAddress": "0x61B1E290d2F465d6667336d4934941aa2517AfA2",
      "devFee": 10,
      "pctRelayFee": 0,
      "baseRelayFee": 0
    }
  ],
  "numDeployments": 1,
  "solcInputHash": "766eaa539015b343a6f8732a84d5a9ae",
  "bytecode": "0x610120604052600019600c553480156200001857600080fd5b50604051620056c2380380620056c28339810160408190526200003b9162000331565b62000046336200008b565b43610100526001600160601b0319606086811b821660805285811b821660a05284811b821660c05283901b1660e0526200008081620000db565b505050505062000493565b600080546001600160a01b038381166001600160a01b0319831681178455604051919092169283917f8be0079c531659141344cd1fd0a4f28419497f9722a3daafe3b4186f6b6457e09190a35050565b620000e562000284565b60648160c0015160ff1610620001355760405162461bcd60e51b815260206004820152601060248201526f0c8caec40cccaca40e8dede40d0d2ced60831b60448201526064015b60405180910390fd5b8051600190815560208201516002556040808301516003556060830151600455608083015160055560a08301516006805460c086015160e08701516001600160501b0316600160a81b02600160a81b600160f81b031960ff909216600160a01b026001600160a81b03199093166001600160a01b039095169490941791909117169190911790556101008301516007805461ffff90921661ffff19909216919091179055517f4812ada68f7c2cdc9f4a4a09e157ea6b924e0ef40a4fa7aa074fa8f70b1e7247916200027991815481526001820154602082015260028201546040820152600382015460608201526004820154608082015260058201546001600160a01b03811660a08084019190915260ff9082901c1660c083015260a81c6001600160501b031660e082015260069091015461ffff166101008201526101200190565b60405180910390a150565b6000546001600160a01b03163314620002e05760405162461bcd60e51b815260206004820181905260248201527f4f776e61626c653a2063616c6c6572206973206e6f7420746865206f776e657260448201526064016200012c565b565b8051620002ef816200047a565b919050565b805161ffff81168114620002ef57600080fd5b80516001600160501b0381168114620002ef57600080fd5b805160ff81168114620002ef57600080fd5b60008060008060008587036101a08112156200034c57600080fd5b865162000359816200047a565b60208801519096506200036c816200047a565b60408801519095506200037f816200047a565b606088015190945062000392816200047a565b9250610120607f198201811315620003a957600080fd5b620003b362000442565b91506080880151825260a0880151602083015260c0880151604083015260e08801516060830152610100808901516080840152620003f3828a01620002e2565b60a0840152620004076101408a016200031f565b60c08401526200041b6101608a0162000307565b60e08401526200042f6101808a01620002f4565b9083015250949793965091945092919050565b60405161012081016001600160401b03811182821017156200047457634e487b7160e01b600052604160045260246000fd5b60405290565b6001600160a01b03811681146200049057600080fd5b50565b60805160601c60a05160601c60c05160601c60e05160601c6101005161519f6200052360003960006102420152600081816102eb015261081a0152600081816106f3015261108e0152600081816104250152612b8b0152600081816105c80152818161078b0152818161090c015281816127660152818161290101528181612c690152612d64015261519f6000f3fe6080604052600436106101f95760003560e01c80638e53548b1161010d578063ca64f9e7116100a0578063e6e22e121161006f578063e6e22e1214610664578063ebcd31ac14610684578063f2fde38b146106a4578063f3fef3a3146106c4578063f7908a74146106e457600080fd5b8063ca64f9e7146105b9578063d26152f9146105ec578063d904c7321461060c578063ddf737891461062e57600080fd5b8063af595dfc116100dc578063af595dfc14610528578063be7c76ad14610548578063c2da078614610581578063c7178230146105a157600080fd5b80638e53548b146104a75780639bcde3f3146104c7578063a6e61b60146104e7578063aa67c9191461051557600080fd5b80636bd50cef1161019057806372c1ab0c1161015f57806372c1ab0c146103f657806375dc7b4e146104165780638a09fb56146104495780638ac3b845146104695780638da5cb5b1461048957600080fd5b80636bd50cef146103595780636ca862e21461037b57806370a08231146103ab578063715018a6146103e157600080fd5b806345bdade7116101cc57806345bdade7146102a55780634f7de031146102ba57806351d85156146102dc57806359c4afc01461032357600080fd5b806301ffc9a7146101fe57806320ffd56d1461023357806339622167146102705780633c16e59a14610290575b600080fd5b34801561020a57600080fd5b5061021e61021936600461401c565b610717565b60405190151581526020015b60405180910390f35b34801561023f57600080fd5b507f00000000000000000000000000000000000000000000000000000000000000005b60405190815260200161022a565b34801561027c57600080fd5b5061021e61028b366004613d66565b610769565b34801561029c57600080fd5b50600c54610262565b3480156102b157600080fd5b50610262610807565b3480156102c657600080fd5b506102da6102d5366004613d66565b61080f565b005b3480156102e857600080fd5b507f00000000000000000000000000000000000000000000000000000000000000005b6040516001600160a01b03909116815260200161022a565b34801561032f57600080fd5b5061026261033e366004613d66565b6001600160a01b03166000908152600a602052604090205490565b34801561036557600080fd5b5061036e61096b565b60405161022a9190614a48565b34801561038757600080fd5b5061039b6103963660046141b6565b610a4c565b60405161022a9493929190614847565b3480156103b757600080fd5b506102626103c6366004613d66565b6001600160a01b03166000908152600b602052604090205490565b3480156103ed57600080fd5b506102da6118cf565b34801561040257600080fd5b506102da610411366004613e5c565b6118e3565b34801561042257600080fd5b507f000000000000000000000000000000000000000000000000000000000000000061030b565b34801561045557600080fd5b506102da610464366004613f24565b611ba4565b34801561047557600080fd5b50610262610484366004614401565b611cfb565b34801561049557600080fd5b506000546001600160a01b031661030b565b3480156104b357600080fd5b506102626104c236600461441a565b611d30565b3480156104d357600080fd5b506102da6104e23660046142e2565b611dc6565b3480156104f357600080fd5b506105076105023660046140d1565b611f6c565b60405161022a9291906148bb565b6102da610523366004613d66565b6123f8565b34801561053457600080fd5b506102da610543366004614401565b6124d9565b34801561055457600080fd5b5061030b610563366004613d66565b6001600160a01b039081166000908152600960205260409020541690565b34801561058d57600080fd5b506102da61059c366004613de8565b61255c565b3480156105ad57600080fd5b50600c5442101561021e565b3480156105c557600080fd5b507f000000000000000000000000000000000000000000000000000000000000000061030b565b3480156105f857600080fd5b506102da610607366004613d66565b61273f565b34801561061857600080fd5b506106216128bd565b60405161022a9190614875565b34801561063a57600080fd5b50610262610649366004613d66565b6001600160a01b031660009081526008602052604090205490565b34801561067057600080fd5b506102da61067f366004613d66565b6128dd565b34801561069057600080fd5b506102da61069f366004613daf565b612b80565b3480156106b057600080fd5b506102da6106bf366004613d66565b612dc8565b3480156106d057600080fd5b506102da6106df366004613d83565b612e41565b3480156106f057600080fd5b507f000000000000000000000000000000000000000000000000000000000000000061030b565b60006001600160e01b0319821663e9fb30f760e01b148061074857506001600160e01b03198216630704183b60e11b145b8061076357506301ffc9a760e01b6001600160e01b03198316145b92915050565b604051633962216760e01b81526001600160a01b0382811660048301526000917f00000000000000000000000000000000000000000000000000000000000000009091169063396221679060240160206040518083038186803b1580156107cf57600080fd5b505afa1580156107e3573d6000803e3d6000fd5b505050506040513d601f19601f820116820180604052508101906107639190613fbe565b60005a905090565b336001600160a01b037f0000000000000000000000000000000000000000000000000000000000000000161461088c5760405162461bcd60e51b815260206004820152601d60248201527f63616c6c6572206973206e6f742072656c61792072656769737472617200000060448201526064015b60405180910390fd5b610895816128dd565b6001600160a01b0381166000908152600a60205260409020546108ed5760405162461bcd60e51b815260206004820152601060248201526f6e6f2072656c617920776f726b65727360801b6044820152606401610883565b6040516346dcbf0b60e01b81526001600160a01b0382811660048301527f000000000000000000000000000000000000000000000000000000000000000016906346dcbf0b90602401600060405180830381600087803b15801561095057600080fd5b505af1158015610964573d6000803e3d6000fd5b5050505050565b6109d3604051806101200160405280600081526020016000815260200160008152602001600081526020016000815260200160006001600160a01b03168152602001600060ff16815260200160006001600160501b03168152602001600061ffff1681525090565b5060408051610120810182526001548152600254602082015260035491810191909152600454606082015260055460808201526006546001600160a01b03811660a0830152600160a01b810460ff1660c0830152600160a81b90046001600160501b031660e082015260075461ffff1661010082015290565b60008060006060610a5b613af1565b610a63610807565b6040820152610a738a8a8a612ee4565b6101e082015260408051808201909152601881527f72656c617943616c6c2072656c617952657175657374496400000000000000006020820152610ab690612f49565b610ac4816101e00151612f8c565b610afd60405180606001604052806023815260200161514760239139610aea8c80614b5f565b610af8906020810190613d66565b612fd1565b610b34604051806060016040528060218152602001614eb960219139610b238c80614b5f565b610af8906040810190602001613d66565b610b63604051806060016040528060248152602001614fc260249139610b5a8c80614b5f565b6040013561301a565b610b92604051806060016040528060228152602001614eda60229139610b898c80614b5f565b6060013561301a565b610bc1604051806060016040528060248152602001614e9560249139610bb88c80614b5f565b6080013561301a565b610bf06040518060600160405280602d8152602001614de5602d9139610be78c80614b5f565b60c0013561301a565b610c1f6040518060600160405280602d8152602001614f37602d9139610c1960208d018d614b75565b3561301a565b610c51604051806060016040528060358152602001614f8d60359139610c4860208d018d614b75565b6020013561301a565b610c7a6040518060600160405280603b8152602001614efc603b9139610b5a60208d018d614b75565b610cb46040518060600160405280602c8152602001614db9602c9139610ca360208d018d614b75565b610af8906080810190606001613d66565b610cee6040518060600160405280602a815260200161511d602a9139610cdd60208d018d614b75565b610af89060a0810190608001613d66565b610d286040518060600160405280602a81526020016150f3602a9139610d1760208d018d614b75565b610af89060c081019060a001613d66565b610d5a604051806060016040528060298152602001614f6460299139610d5160208d018d614b75565b60e0013561301a565b610d986040518060400160405280601d81526020017f72656c617943616c6c20646f6d61696e536570617261746f724e616d65000000815250612f49565b610dd78d8d8080601f016020809104026020016040519081016040528093929190818152602001838380828437600092019190915250612f4992505050565b610e0b6040518060400160405280601381526020017272656c617943616c6c207369676e617475726560681b815250612f49565b610e4a89898080601f01602080910402602001604051908101604052809392919081815260200183838082843760009201919091525061305f92505050565b610e816040518060400160405280601681526020017572656c617943616c6c20617070726f76616c4461746160501b815250612f49565b610ec087878080601f01602080910402602001604051908101604052809392919081815260200183838082843760009201919091525061305f92505050565b610ee16040518060600160405280602381526020016150d060239139612f49565b610f36610eee8b80614b5f565b610efc9060a0810190614b19565b8080601f01602080910402602001604051908101604052809392919081815260200183838082843760009201919091525061305f92505050565b610f576040518060600160405280602e8152602001614fe6602e9139612f49565b610f75610f6760208c018c614b75565b610efc9060c0810190614b19565b610fb46040518060400160405280601d81526020017f72656c617943616c6c206d6178416363657074616e63654275646765740000008152508c61301a565b600c544210610ff65760405162461bcd60e51b815260206004820152600e60248201526d1a1d588819195c1c9958d85d195960921b6044820152606401610883565b60046110028b80614b5f565b6110109060a0810190614b19565b9050101561101f576000611074565b61107461102c8b80614b5f565b61103a9060a0810190614b19565b8080601f016020809104026020016040519081016040528093929190818152602001838380828437600092018290525092506130a2915050565b6001600160e01b0319166020820152336001600160a01b037f000000000000000000000000000000000000000000000000000000000000000016148015906110bb57503215155b156111cf578761110d5760405162461bcd60e51b815260206004820181905260248201527f6d697373696e67207369676e6174757265206f722062616420676174657761796044820152606401610883565b33321461115c5760405162461bcd60e51b815260206004820152601860248201527f72656c617920776f726b6572206d75737420626520454f4100000000000000006044820152606401610883565b61116960208b018b614b75565b61117a906080810190606001613d66565b6001600160a01b0316336001600160a01b0316146111cf5760405162461bcd60e51b81526020600482015260126024820152712737ba1030903934b3b43a103bb7b935b2b960711b6044820152606401610883565b321561126d57600960006111e660208d018d614b75565b6111f7906080810190606001613d66565b6001600160a01b039081168252602082019290925260400160002054166101c0820181905261125f5760405162461bcd60e51b81526020600482015260146024820152732ab735b737bbb7103932b630bc903bb7b935b2b960611b6044820152606401610883565b61126d816101c001516128dd565b61127c8b8b8360400151613112565b61010083015260a08201526112968d8d8c8c8c8c8c61339c565b60025460405a6112a790603f614cce565b6112b19190614cac565b6112bb9190614ced565b6101208201526112c9610807565b61014082015260035460045461012083015160408401516112ed60208f018f614b75565b604001356112fb9190614c94565b6113059190614c94565b61130f9190614c94565b6113199190614c94565b81610200018181525050306001600160a01b031681610120015163a6e61b6060e01b8f8f8e8e8e8e8e8a60a0015161134f610807565b8c610200015161135f9190614ced565b8c610100015160405160240161137e9a999897969594939291906148db565b60408051601f198184030181529181526020820180516001600160e01b03166001600160e01b03199094169390931790925290516113bc919061466d565b60006040518083038160008787f1925050503d80600081146113fa576040519150601f19603f3d011682016040523d82523d6000602084013e6113ff565b606091505b5061022083015215158152611412610807565b8161014001516114229190614ced565b60e0820152610220810151805161144191602091810182019101614093565b8260c0018360800182905282600681111561145e5761145e614d61565b600681111561146f5761146f614d61565b90525050608081015151156114c0577fa1478a4242848419db824250a0dddc645dca0d6a9b12ab1fd79b00145a0ba98e8160c0015182608001516040516114b79291906148bb565b60405180910390a15b80516116225760028160c0015160068111156114de576114de614d61565b148061154d57506114f260208b018b614b75565b60a082015151611506916040013590614c94565b8160e001511115801561154d575060038160c00151600681111561152c5761152c614d61565b148061154d575060048160c00151600681111561154b5761154b614d61565b145b15611622576101e081015161156560208c018c614b75565b6115769060a0810190608001613d66565b6101c08301516001600160a01b0391821691167f0c47510cb900901afca7c9e926892582a36fd3bb7f908142ccf0fb4382a2b6846115b48e80614b5f565b6115c2906020810190613d66565b6115cc8f80614b5f565b6115dd906040810190602001613d66565b3387602001518860e0015189608001516040516115ff96959493929190614772565b60405180910390a46000808260c0015183608001519450945094509450506118c0565b60045461162d610807565b826040015161163c9190614ced565b61164960208d018d614b75565b604001356116579190614c94565b6116619190614c94565b610160820181905261167a906104c260208d018d614b75565b935061168584611cfb565b61018082015283600b600061169d60208e018e614b75565b6116ae9060a0810190608001613d66565b6001600160a01b03166001600160a01b03168152602001908152602001600020546116d99190614ced565b600b60006116ea60208e018e614b75565b6116fb9060a0810190608001613d66565b6001600160a01b031681526020810191909152604001600020556101808101516117259085614ced565b6101c08201516001600160a01b03166000908152600b602052604090205461174d9190614c94565b6101c08201516001600160a01b03166000908152600b6020526040902055610180810151156117bd576101808101516006546001600160a01b03166000908152600b60205260409020546117a19190614c94565b6006546001600160a01b03166000908152600b60205260409020555b60006117c98b80614b5f565b6117d7906020810190613d66565b905060006117e58c80614b5f565b6117f6906040810190602001613d66565b9050600061180760208e018e614b75565b6118189060a0810190608001613d66565b9050836101e00151336001600160a01b0316856101c001516001600160a01b03167fd51ac07012398c2059ec53c6005fa8639657917bd2dbd72bc489a3c0eaaa7f168686868a602001518b60c001518f60405161187a96959493929190614724565b60405180910390a4505050326118a35760c08101516080909101516001955090925090506118c0565b60c001516040805160208101909152600081526001955090925090505b98509850985098945050505050565b6118d7613476565b6118e160006134d0565b565b3360005b8251811015611b9e576119886040518060400160405280601981526020017f77697468647261774d756c7469706c6520257320257320257300000000000000815250600b6000856001600160a01b03166001600160a01b031681526020019081526020016000205486848151811061196157611961614d77565b602002602001015186858151811061197b5761197b614d77565b6020026020010151613520565b6001600160a01b0382166000908152600b602052604090205483518490839081106119b5576119b5614d77565b6020026020010151811015611a015760405162461bcd60e51b8152602060048201526012602482015271696e73756666696369656e742066756e647360701b6044820152606401610883565b838281518110611a1357611a13614d77565b602002602001015181611a269190614ced565b6001600160a01b0384166000908152600b60205260408120919091558551869084908110611a5657611a56614d77565b60200260200101516001600160a01b0316858481518110611a7957611a79614d77565b602002602001015160405160006040518083038185875af1925050503d8060008114611ac1576040519150601f19603f3d011682016040523d82523d6000602084013e611ac6565b606091505b5050905080611b0a5760405162461bcd60e51b815260206004820152601060248201526f2a3930b739b332b9103330b4b632b21760811b6044820152606401610883565b858381518110611b1c57611b1c614d77565b60200260200101516001600160a01b0316846001600160a01b03167fd1c19fbcd4551a5edfb66d43d2e337c04837afda3482b42bdf569a8fccdae5fb878681518110611b6a57611b6a614d77565b6020026020010151604051611b8191815260200190565b60405180910390a350508080611b9690614d30565b9150506118e7565b50505050565b611bac613476565b8051825114611bfd5760405162461bcd60e51b815260206004820152601e60248201527f7365744d696e696d756d5374616b65733a2077726f6e67206c656e67746800006044820152606401610883565b60005b8251811015611cf657818181518110611c1b57611c1b614d77565b602002602001015160086000858481518110611c3957611c39614d77565b60200260200101516001600160a01b03166001600160a01b03168152602001908152602001600020819055507ffb7510fe755f485459ee8ed619d4a0addc092c230ff47e760a62aeba78ebb9e3838281518110611c9857611c98614d77565b6020026020010151838381518110611cb257611cb2614d77565b6020026020010151604051611cdc9291906001600160a01b03929092168252602082015260400190565b60405180910390a180611cee81614d30565b915050611c00565b505050565b600654600090600160a01b900460ff16611d1757506000919050565b600654606490600160a01b900460ff1683020492915050565b600080823560208401351415611d4857506000611d4b565b50485b6000611d678435611d623a81602089013587614c94565b613569565b600754909150606490611d7e9061ffff1682614c6e565b61ffff16611d8c8388614cce565b611d969190614cce565b611da09190614cac565b600654611dbd9190600160a81b90046001600160501b0316614c94565b95945050505050565b611dce613476565b60648160c0015160ff1610611e185760405162461bcd60e51b815260206004820152601060248201526f0c8caec40cccaca40e8dede40d0d2ced60831b6044820152606401610883565b8051600190815560208201516002556040808301516003556060830151600455608083015160055560a08301516006805460c086015160e08701516001600160501b0316600160a81b0269ffffffffffffffffffff60a81b1960ff909216600160a01b026001600160a81b03199093166001600160a01b039095169490941791909117169190911790556101008301516007805461ffff90921661ffff19909216919091179055517f4812ada68f7c2cdc9f4a4a09e157ea6b924e0ef40a4fa7aa074fa8f70b1e724791611f6191815481526001820154602082015260028201546040820152600382015460608201526004820154608082015260058201546001600160a01b03811660a08084019190915260ff9082901c1660c08301526001600160501b0360a89190911c1660e082015260069091015461ffff166101008201526101200190565b60405180910390a150565b60006060611fc6604051806101200160405280600081526020016000815260200160008152602001600080191681526020016000151581526020016060815260200160608152602001606081526020016000151581525090565b611fce610807565b81525a611fdb9086614ced565b602082015233301461202f5760405162461bcd60e51b815260206004820152601a60248201527f4d7573742062652063616c6c65642062792052656c61794875620000000000006044820152606401610883565b600b600061204060208e018e614b75565b6120519060a0810190608001613d66565b6001600160a01b0316815260208101919091526040908101600020548282015251622f977560e21b90612092908d908d908d908d908d908b90602401614aca565b60408051601f19818403018152919052602080820180516001600160e01b03166001600160e01b03199094169390931790925260e08301526000906060906120dc908e018e614b75565b6120ed9060a0810190608001613d66565b6001600160a01b031688602001358460e0015160405161210d919061466d565b60006040518083038160008787f1925050503d806000811461214b576040519150601f19603f3d011682016040523d82523d6000602084013e612150565b606091505b5090925090508161216f5761216481613581565b61216f60028261358d565b808060200190518101906121839190614046565b8460c001856101000182151515158152508290525050505060006121ed8e8e8080601f016020809104026020016040519081016040528093929190818152602001838380828437600081840152601f19601f820116905080830192505050505050508d8d8d6135c6565b60a08501521515608084015290508061220f5761220f60038360a0015161358d565b816101000151801561222357508160800151155b156122375761223760048360a0015161358d565b506376fa01c360e01b8160c001518260800151612252610807565b845161225e9190614ced565b846020015161226d9190614c94565b8e806020019061227d9190614b75565b6040516024016122909493929190614888565b60408051601f19818403018152919052602080820180516001600160e01b03166001600160e01b03199094169390931790925260e083015260009081906122d9908e018e614b75565b6122ea9060a0810190608001613d66565b6001600160a01b031688604001358460e0015160405161230a919061466d565b60006040518083038160008787f1925050503d8060008114612348576040519150601f19603f3d011682016040523d82523d6000602084013e61234d565b606091505b5091509150816123625761236260058261358d565b50506040810151600b600061237a60208f018f614b75565b61238b9060a0810190608001613d66565b6001600160a01b03166001600160a01b031681526020019081526020016000205410156123cc576123cc60066040518060200160405280600081525061358d565b80608001516123dc5760016123df565b60005b8160a0015192509250509a509a98505050505050505050565b6124126001600160a01b0382166370d596f560e11b6137ac565b61245e5760405162461bcd60e51b815260206004820181905260248201527f746172676574206973206e6f7420612076616c696420495061796d61737465726044820152606401610883565b6001600160a01b0381166000908152600b60205260409020543490612484908290614c94565b6001600160a01b0383166000818152600b6020908152604091829020939093555183815233927f8752a472e571a816aea92eec8dae9baf628e840f4929fbcc2d155e6233ff68a7910160405180910390a35050565b6124e1613476565b600c5442106125275760405162461bcd60e51b8152602060048201526012602482015271105b1c9958591e4819195c1c9958d85d195960721b6044820152606401610883565b600c8190556040518181527f1c0aa0c666483fbf0cf795d9d646ea3552d1e3008162ba9ab1d6d6dfd8c6ec6b90602001611f61565b336000818152600a6020526040812054612577908490614c94565b6001600160a01b0383166000908152600a602052604090208190556001549091508111156125da5760405162461bcd60e51b815260206004820152601060248201526f746f6f206d616e7920776f726b65727360801b6044820152606401610883565b6125e3826128dd565b60005b838110156126f357600060098187878581811061260557612605614d77565b905060200201602081019061261a9190613d66565b6001600160a01b03908116825260208201929092526040016000205416146126845760405162461bcd60e51b815260206004820152601960248201527f7468697320776f726b6572206861732061206d616e61676572000000000000006044820152606401610883565b826009600087878581811061269b5761269b614d77565b90506020020160208101906126b09190613d66565b6001600160a01b039081168252602082019290925260400160002080546001600160a01b03191692909116919091179055806126eb81614d30565b9150506125e6565b50816001600160a01b03167febf4a9bffb39f7c5dbf3f65540183b9381ae226ac3d0a45b4cad484713bd4a28858584604051612731939291906147f1565b60405180910390a250505050565b612747613476565b604051633962216760e01b81526001600160a01b0382811660048301527f0000000000000000000000000000000000000000000000000000000000000000169063396221679060240160206040518083038186803b1580156127a857600080fd5b505afa1580156127bc573d6000803e3d6000fd5b505050506040513d601f19601f820116820180604052508101906127e09190613fbe565b61282c5760405162461bcd60e51b815260206004820181905260248201527f72656c617920736572766572206e6f74206573636865617461626c65207965746044820152606401610883565b6001600160a01b038082166000908152600b60205260408082208054908390556006549093168252902054612862908290614c94565b6006546001600160a01b039081166000908152600b60209081526040918290209390935551838152908416917f3fb672a061b9c3ab083062a9a8ff532d341e5fa42145b91f3922a711ae135659910160405180910390a25050565b6060604051806060016040528060228152602001614e1260229139905090565b60405163c345315360e01b81526001600160a01b03828116600483015260009182917f0000000000000000000000000000000000000000000000000000000000000000169063c3453153906024016101006040518083038186803b15801561294457600080fd5b505afa158015612958573d6000803e3d6000fd5b505050506040513d601f19601f8201168201806040525081019061297c9190614375565b60a0820180516001600160a01b03908116600090815260086020526040902054915193955091935091166129ed5760405162461bcd60e51b81526020600482015260186024820152771c995b185e481b585b9859d95c881b9bdd081cdd185ad95960421b6044820152606401610883565b8251811115612a3e5760405162461bcd60e51b815260206004820152601960248201527f7374616b6520616d6f756e7420697320746f6f20736d616c6c000000000000006044820152606401610883565b80612a8b5760405162461bcd60e51b815260206004820152601f60248201527f7374616b696e67207468697320746f6b656e20697320666f7262696464656e006044820152606401610883565b60055460208401511015612ae15760405162461bcd60e51b815260206004820152601a60248201527f756e7374616b652064656c617920697320746f6f20736d616c6c0000000000006044820152606401610883565b604083015115612b335760405162461bcd60e51b815260206004820152601860248201527f7374616b6520686173206265656e2077697468647261776e00000000000000006044820152606401610883565b81611b9e5760405162461bcd60e51b815260206004820181905260248201527f7468697320687562206973206e6f7420617574686f72697a656420627920534d6044820152606401610883565b336001600160a01b037f00000000000000000000000000000000000000000000000000000000000000001614612be85760405162461bcd60e51b815260206004820152600d60248201526c2737ba103832b730b634bd32b960991b6044820152606401610883565b6001600160a01b038083166000908152600960205260409020541680612c475760405162461bcd60e51b81526020600482015260146024820152732ab735b737bbb7103932b630bc903bb7b935b2b960611b6044820152606401610883565b60405163c345315360e01b81526001600160a01b0382811660048301526000917f00000000000000000000000000000000000000000000000000000000000000009091169063c3453153906024016101006040518083038186803b158015612cae57600080fd5b505afa158015612cc2573d6000803e3d6000fd5b505050506040513d601f19601f82011682018060405250810190612ce69190614375565b508051909150612d335760405162461bcd60e51b81526020600482015260186024820152771c995b185e481b585b9859d95c881b9bdd081cdd185ad95960421b6044820152606401610883565b805160405163026822bd60e21b81526001600160a01b038481166004830152858116602483015260448201929092527f0000000000000000000000000000000000000000000000000000000000000000909116906309a08af490606401600060405180830381600087803b158015612daa57600080fd5b505af1158015612dbe573d6000803e3d6000fd5b5050505050505050565b612dd0613476565b6001600160a01b038116612e355760405162461bcd60e51b815260206004820152602660248201527f4f776e61626c653a206e6577206f776e657220697320746865207a65726f206160448201526564647265737360d01b6064820152608401610883565b612e3e816134d0565b50565b6040805160018082528183019092526000916020808301908036833750506040805160018082528183019092529293506000929150602080830190803683370190505090508282600081518110612e9a57612e9a614d77565b6020026020010181815250508381600081518110612eba57612eba614d77565b60200260200101906001600160a01b031690816001600160a01b031681525050611b9e81836118e3565b60006001600160e01b03612ef88580614b5f565b612f06906020810190613d66565b612f108680614b5f565b608001358585604051602001612f2994939291906147c9565b604051602081830303815290604052805190602001201690509392505050565b612e3e81604051602401612f5d9190614875565b60408051601f198184030181529190526020810180516001600160e01b031663104c13eb60e21b1790526137c8565b612e3e81604051602401612fa291815260200190565b60408051601f198184030181529190526020810180516001600160e01b03166327b7cf8560e01b1790526137c8565b6130168282604051602401612fe7929190614971565b60408051601f198184030181529190526020810180516001600160e01b031663319af33360e01b1790526137c8565b5050565b613016828260405160240161303092919061499b565b60408051601f198184030181529190526020810180516001600160e01b0316632d839cb360e21b1790526137c8565b612e3e816040516024016130739190614875565b60408051601f198184030181529190526020810180516001600160e01b03166305f3bfab60e11b1790526137c8565b60006130af826004614c94565b835110156130ff5760405162461bcd60e51b815260206004820152601a60248201527f726561644279746573343a206461746120746f6f2073686f72740000000000006044820152606401610883565b5001602001516001600160e01b03191690565b61313d6040518060800160405280600081526020016000815260200160008152602001600081525090565b600061314c6020850185614b75565b61315d9060a0810190608001613d66565b6001600160a01b031663b039a88f61c3506040518263ffffffff1660e01b815260040160806040518083038187803b15801561319857600080fd5b5086fa1580156131ac573d6000803e3d6000fd5b50505050506040513d601f19601f820116820180604052508101906131d1919061427d565b60608101519092503611156132285760405162461bcd60e51b815260206004820152601760248201527f6d73672e64617461206578636565646564206c696d69740000000000000000006044820152606401610883565b81518510156132795760405162461bcd60e51b815260206004820152601a60248201527f616363657074616e63652062756467657420746f6f20686967680000000000006044820152606401610883565b6020820151825110156132ce5760405162461bcd60e51b815260206004820152601960248201527f616363657074616e63652062756467657420746f6f206c6f77000000000000006044820152606401610883565b826132dc6020860186614b75565b604001356132ea9190614c94565b905060006132ff826104c26020880188614b75565b9050600b60006133126020880188614b75565b6133239060a0810190608001613d66565b6001600160a01b03166001600160a01b03168152602001908152602001600020548111156133935760405162461bcd60e51b815260206004820152601960248201527f5061796d61737465722062616c616e636520746f6f206c6f77000000000000006044820152606401610883565b50935093915050565b60006133c16133ae6020880188614b75565b6133bc9060c0810190614b19565b6137d1565b6133dc6133ce8880614b5f565b6133bc9060a0810190614b19565b6133e685856137d1565b6133f088886137d1565b6133fa8c8c6137d1565b613406906102c4614c94565b6134109190614c94565b61341a9190614c94565b6134249190614c94565b61342e9190614c94565b9050368114612dbe5760405162461bcd60e51b81526020600482015260146024820152736578747261206d73672e6461746120627974657360601b6044820152606401610883565b6000546001600160a01b031633146118e15760405162461bcd60e51b815260206004820181905260248201527f4f776e61626c653a2063616c6c6572206973206e6f7420746865206f776e65726044820152606401610883565b600080546001600160a01b038381166001600160a01b0319831681178455604051919092169283917f8be0079c531659141344cd1fd0a4f28419497f9722a3daafe3b4186f6b6457e09190a35050565b611b9e8484848460405160240161353a94939291906149bd565b60408051601f198184030181529190526020810180516001600160e01b03166327827ee360e11b1790526137c8565b6000818310613578578161357a565b825b9392505050565b612e3e816104006137f7565b600082826040516020016135a29291906148bb565b60405160208183030381529060405290506135bc81613581565b8051602082018181fd5b600080606060006135d687613804565b90506000613601896135eb60208b018b614b75565b6135fc9060c081019060a001613d66565b613843565b90506136106020890189614b75565b6136219060c081019060a001613d66565b6001600160a01b031663e024dc7f60e01b61363c8a80614b5f565b836040518060400160405280600c81526020016b14995b185e54995c5d595cdd60a21b8152506040518060a0016040528060618152602001614e34606191396040518060e0016040528060bc815260200161501460bc91396040516020016136a491906146e8565b60408051601f19818403018152908290526136c3939291602001614689565b60405160208183030381529060405280519060200120868c8c6040516024016136f1969594939291906149f5565b60408051601f198184030181529181526020820180516001600160e01b03166001600160e01b031990941693909317909252905161372f919061466d565b6000604051808303816000865af19150503d806000811461376c576040519150601f19603f3d011682016040523d82523d6000602084013e613771565b606091505b509095509250841561379757828060200190518101906137919190613fd9565b90945092505b6137a083613581565b50509450945094915050565b60006137b783613896565b801561357a575061357a83836138c9565b612e3e81613952565b60006137e0601f600019614ced565b6137eb83601f614c94565b61357a91166020614c94565b8082511115613016579052565b606061381b6138166020840184614b75565b613973565b60405160200161382d91815260200190565b6040516020818303038152906040529050919050565b600061357a6040518060800160405280858152602001604051806040016040528060018152602001603360f81b815250815260200161387f4690565b8152602001846001600160a01b0316815250613a71565b60006138a9826301ffc9a760e01b6138c9565b801561076357506138c2826001600160e01b03196138c9565b1592915050565b604080516001600160e01b03198316602480830191909152825180830390910181526044909101909152602080820180516001600160e01b03166301ffc9a760e01b178152825160009392849283928392918391908a617530fa92503d9150600051905082801561393b575060208210155b80156139475750600081115b979650505050505050565b60006a636f6e736f6c652e6c6f679050600080835160208501845afa505050565b60006040518060e0016040528060bc815260200161501460bc913980516020918201209083359084013560408501356139b26080870160608801613d66565b6139c260a0880160808901613d66565b6139d260c0890160a08a01613d66565b6139df60c08a018a614b19565b6040516139ed92919061465d565b604051908190038120613a54989796959493929160e08c0135906020019889526020890197909752604088019590955260608701939093526001600160a01b039182166080870152811660a08601521660c084015260e08301526101008201526101200190565b604051602081830303815290604052805190602001209050919050565b60007f8b73c3c69bb8fe3d512ecc4cf759cc79239f7b179b0ffacaa9a75d522b39400f82600001518051906020012083602001518051906020012084604001518560600151604051602001613a549594939291909485526020850193909352604084019190915260608301526001600160a01b0316608082015260a00190565b60405180610240016040528060001515815260200160006001600160e01b0319168152602001600081526020016060815260200160608152602001613b576040518060800160405280600081526020016000815260200160008152602001600081525090565b8152602001600081526020016000815260200160008152602001600081526020016000815260200160008152602001600081526020016060815260200160006001600160a01b031681526020016000801916815260200160008152602001606081525090565b8035613bc881614da3565b919050565b600082601f830112613bde57600080fd5b81356020613bf3613bee83614c06565b614bd6565b80838252828201915082860187848660051b8901011115613c1357600080fd5b60005b85811015613c3257813584529284019290840190600101613c16565b5090979650505050505050565b80518015158114613bc857600080fd5b60008083601f840112613c6157600080fd5b5081356001600160401b03811115613c7857600080fd5b602083019150836020828501011115613c9057600080fd5b9250929050565b600082601f830112613ca857600080fd5b81516001600160401b03811115613cc157613cc1614d8d565b613cd4601f8201601f1916602001614bd6565b818152846020838601011115613ce957600080fd5b613cfa826020830160208701614d04565b949350505050565b600060808284031215613d1457600080fd5b50919050565b600060408284031215613d1457600080fd5b803561ffff81168114613bc857600080fd5b803560ff81168114613bc857600080fd5b80356001600160501b0381168114613bc857600080fd5b600060208284031215613d7857600080fd5b813561357a81614da3565b60008060408385031215613d9657600080fd5b8235613da181614da3565b946020939093013593505050565b60008060408385031215613dc257600080fd5b8235613dcd81614da3565b91506020830135613ddd81614da3565b809150509250929050565b60008060208385031215613dfb57600080fd5b82356001600160401b0380821115613e1257600080fd5b818501915085601f830112613e2657600080fd5b813581811115613e3557600080fd5b8660208260051b8501011115613e4a57600080fd5b60209290920196919550909350505050565b60008060408385031215613e6f57600080fd5b82356001600160401b0380821115613e8657600080fd5b818501915085601f830112613e9a57600080fd5b81356020613eaa613bee83614c06565b8083825282820191508286018a848660051b8901011115613eca57600080fd5b600096505b84871015613ef6578035613ee281614da3565b835260019690960195918301918301613ecf565b5096505086013592505080821115613f0d57600080fd5b50613f1a85828601613bcd565b9150509250929050565b60008060408385031215613f3757600080fd5b82356001600160401b0380821115613f4e57600080fd5b818501915085601f830112613f6257600080fd5b81356020613f72613bee83614c06565b8083825282820191508286018a848660051b8901011115613f9257600080fd5b600096505b84871015613ef6578035613faa81614da3565b835260019690960195918301918301613f97565b600060208284031215613fd057600080fd5b61357a82613c3f565b60008060408385031215613fec57600080fd5b613ff583613c3f565b915060208301516001600160401b0381111561401057600080fd5b613f1a85828601613c97565b60006020828403121561402e57600080fd5b81356001600160e01b03198116811461357a57600080fd5b6000806040838503121561405957600080fd5b82516001600160401b0381111561406f57600080fd5b61407b85828601613c97565b92505061408a60208401613c3f565b90509250929050565b600080604083850312156140a657600080fd5b8251600781106140b557600080fd5b60208401519092506001600160401b0381111561401057600080fd5b6000806000806000806000806000806101408b8d0312156140f157600080fd5b8a356001600160401b038082111561410857600080fd5b6141148e838f01613c4f565b909c509a5060208d013591508082111561412d57600080fd5b6141398e838f01613d1a565b995060408d013591508082111561414f57600080fd5b61415b8e838f01613c4f565b909950975060608d013591508082111561417457600080fd5b506141818d828e01613c4f565b909650945061419590508c60808d01613d02565b92506101008b013591506101208b013590509295989b9194979a5092959850565b60008060008060008060008060a0898b0312156141d257600080fd5b88356001600160401b03808211156141e957600080fd5b6141f58c838d01613c4f565b909a50985060208b0135975060408b013591508082111561421557600080fd5b6142218c838d01613d1a565b965060608b013591508082111561423757600080fd5b6142438c838d01613c4f565b909650945060808b013591508082111561425c57600080fd5b506142698b828c01613c4f565b999c989b5096995094979396929594505050565b60006080828403121561428f57600080fd5b604051608081018181106001600160401b03821117156142b1576142b1614d8d565b8060405250825181526020830151602082015260408301516040820152606083015160608201528091505092915050565b600061012082840312156142f557600080fd5b6142fd614b8b565b823581526020830135602082015260408301356040820152606083013560608201526080830135608082015261433560a08401613bbd565b60a082015261434660c08401613d3e565b60c082015261435760e08401613d4f565b60e082015261010061436a818501613d2c565b908201529392505050565b60008082840361010081121561438a57600080fd5b60e081121561439857600080fd5b506143a1614bb4565b835181526020840151602082015260408401516040820152606084015160608201526080840151608082015260a08401516143db81614da3565b60a082015260c08401516143ee81614da3565b60c0820152915061408a60e08401613c3f565b60006020828403121561441357600080fd5b5035919050565b6000806040838503121561442d57600080fd5b8235915060208301356001600160401b0381111561444a57600080fd5b83016101008186031215613ddd57600080fd5b81835281816020850137506000828201602090810191909152601f909101601f19169091010190565b6000815180845261449e816020860160208601614d04565b601f01601f19169290920160200192915050565b600781106144d057634e487b7160e01b600052602160045260246000fd5b9052565b600081356144e181614da3565b6001600160a01b0390811684526020830135906144fd82614da3565b16602084015260408281013590840152606080830135908401526080808301359084015261452e60a0830183614c29565b60e060a086015261454360e08601828461445d565b91505060c083013560c08501528091505092915050565b6000610100823584526020830135602085015260408301356040850152606083013561458581614da3565b6001600160a01b0390811660608601526080840135906145a482614da3565b16608085015260a08301356145b881614da3565b6001600160a01b031660a08501526145d360c0840184614c29565b8260c08701526145e6838701828461445d565b9250505060e083013560e08501528091505092915050565b6000813582360360de198101821261461557600080fd5b60408552614628604086018584016144d4565b9150602084013560fe198201811261463f57600080fd5b85830360208701526146538386830161455a565b9695505050505050565b8183823760009101908152919050565b6000825161467f818460208701614d04565b9190910192915050565b6000845161469b818460208901614d04565b600560fb1b90830190815284516146b9816001840160208901614d04565b600b60fa1b6001929091019182015283516146db816002840160208801614d04565b0160020195945050505050565b7352656c6179446174612072656c6179446174612960601b815260008251614717816014850160208701614d04565b9190910160140192915050565b6001600160a01b0387811682528681166020830152851660408201526001600160e01b03198416606082015260c0810161476160808301856144b2565b8260a0830152979650505050505050565b6001600160a01b0387811682528681166020830152851660408201526001600160e01b0319841660608201526080810183905260c060a082018190526000906147bd90830184614486565b98975050505050505050565b60018060a01b038516815283602082015260606040820152600061465360608301848661445d565b6040808252810183905260008460608301825b8681101561483457823561481781614da3565b6001600160a01b0316825260209283019290910190600101614804565b5060209390930193909352509392505050565b841515815283602082015261485f60408201846144b2565b6080606082015260006146536080830184614486565b60208152600061357a6020830184614486565b60808152600061489b6080830187614486565b85151560208401528460408401528281036060840152613947818561455a565b6148c581846144b2565b604060208201526000613cfa6040830184614486565b60006101408083526148f08184018d8f61445d565b90508281036020840152614904818c6145fe565b90508281036040840152614919818a8c61445d565b9050828103606084015261492e81888a61445d565b86516080850152602087015160a0850152604087015160c085015260609096015160e0840152505061010081019290925261012090910152979650505050505050565b6040815260006149846040830185614486565b905060018060a01b03831660208301529392505050565b6040815260006149ae6040830185614486565b90508260208301529392505050565b6080815260006149d06080830187614486565b6020830195909552506001600160a01b03929092166040830152606090910152919050565b60a081526000614a0860a08301896144d4565b8760208401528660408401528281036060840152614a268187614486565b90508281036080840152614a3b81858761445d565b9998505050505050505050565b600061012082019050825182526020830151602083015260408301516040830152606083015160608301526080830151608083015260018060a01b0360a08401511660a083015260ff60c08401511660c083015260e0830151614ab660e08401826001600160501b03169052565b506101009283015161ffff16919092015290565b608081526000614add60808301896145fe565b8281036020840152614af081888a61445d565b90508281036040840152614b0581868861445d565b915050826060830152979650505050505050565b6000808335601e19843603018112614b3057600080fd5b8301803591506001600160401b03821115614b4a57600080fd5b602001915036819003821315613c9057600080fd5b6000823560de1983360301811261467f57600080fd5b6000823560fe1983360301811261467f57600080fd5b60405161012081016001600160401b0381118282101715614bae57614bae614d8d565b60405290565b60405160e081016001600160401b0381118282101715614bae57614bae614d8d565b604051601f8201601f191681016001600160401b0381118282101715614bfe57614bfe614d8d565b604052919050565b60006001600160401b03821115614c1f57614c1f614d8d565b5060051b60200190565b6000808335601e19843603018112614c4057600080fd5b83016020810192503590506001600160401b03811115614c5f57600080fd5b803603831315613c9057600080fd5b600061ffff808316818516808303821115614c8b57614c8b614d4b565b01949350505050565b60008219821115614ca757614ca7614d4b565b500190565b600082614cc957634e487b7160e01b600052601260045260246000fd5b500490565b6000816000190483118215151615614ce857614ce8614d4b565b500290565b600082821015614cff57614cff614d4b565b500390565b60005b83811015614d1f578181015183820152602001614d07565b83811115611b9e5750506000910152565b6000600019821415614d4457614d44614d4b565b5060010190565b634e487b7160e01b600052601160045260246000fd5b634e487b7160e01b600052602160045260246000fd5b634e487b7160e01b600052603260045260246000fd5b634e487b7160e01b600052604160045260246000fd5b6001600160a01b0381168114612e3e57600080fdfe72656c617943616c6c2072656c6179526571756573742e72656c6179446174612e72656c6179576f726b657272656c617943616c6c2072656c6179526571756573742e726571756573742e76616c6964556e74696c54696d65332e302e302d626574612e332b6f70656e67736e2e6875622e6972656c6179687562616464726573732066726f6d2c6164647265737320746f2c75696e743235362076616c75652c75696e74323536206761732c75696e74323536206e6f6e63652c627974657320646174612c75696e743235362076616c6964556e74696c54696d6572656c617943616c6c2072656c6179526571756573742e726571756573742e6e6f6e636572656c617943616c6c2072656c6179526571756573742e726571756573742e746f72656c617943616c6c2072656c6179526571756573742e726571756573742e67617372656c617943616c6c2072656c6179526571756573742e72656c6179446174612e7472616e73616374696f6e43616c6c646174614761735573656472656c617943616c6c2072656c6179526571756573742e72656c6179446174612e6d617846656550657247617372656c617943616c6c2072656c6179526571756573742e72656c6179446174612e636c69656e74496472656c617943616c6c2072656c6179526571756573742e72656c6179446174612e6d61785072696f7269747946656550657247617372656c617943616c6c2072656c6179526571756573742e726571756573742e76616c756572656c617943616c6c2072656c6179526571756573742e72656c6179446174612e7061796d61737465724461746152656c6179446174612875696e74323536206d61784665655065724761732c75696e74323536206d61785072696f726974794665655065724761732c75696e74323536207472616e73616374696f6e43616c6c64617461476173557365642c616464726573732072656c6179576f726b65722c61646472657373207061796d61737465722c6164647265737320666f727761726465722c6279746573207061796d6173746572446174612c75696e7432353620636c69656e7449642972656c617943616c6c2072656c6179526571756573742e726571756573742e6461746172656c617943616c6c2072656c6179526571756573742e72656c6179446174612e666f7277617264657272656c617943616c6c2072656c6179526571756573742e72656c6179446174612e7061796d617374657272656c617943616c6c2072656c6179526571756573742e726571756573742e66726f6da264697066735822122041494d4eb4299a7bd8ca18ee0373fafe82727ca3ef09c3fb66070ca8d4216eba64736f6c63430008070033",
  "devdoc": {
    "kind": "dev",
    "methods": {
      "aggregateGasleft()": {
        "returns": {
          "_0": "A total measurable amount of gas left to current execution. Same as 'gasleft()' for pure EVMs."
        }
      },
      "balanceOf(address)": {
        "returns": {
          "_0": "An account's balance. It can be either a deposit of a `Paymaster`, or a revenue of a Relay Manager."
        }
      },
      "calculateCharge(uint256,(uint256,uint256,uint256,address,address,address,bytes,uint256))": {
        "params": {
          "gasUsed": "An amount of gas used by the transaction.",
          "relayData": "The details of a transaction signed by the sender."
        },
        "returns": {
          "_0": "The calculated charge, in wei."
        }
      },
      "calculateDevCharge(uint256)": {
        "params": {
          "charge": "The amount of Ether in wei the Paymaster will be charged for this transaction."
        },
        "returns": {
          "_0": "The calculated devFee, in wei."
        }
      },
      "deprecateHub(uint256)": {
        "params": {
          "_deprecationTime": "The timestamp in seconds after which the `RelayHub` stops serving transactions."
        }
      },
      "getBatchGateway()": {
        "returns": {
          "_0": "The `BatchGateway` address for this `RelayHub`."
        }
      },
      "getConfiguration()": {
        "returns": {
          "_0": "The configuration of the `RelayHub`."
        }
      },
      "getCreationBlock()": {
        "returns": {
          "_0": "The block number in which the contract has been deployed."
        }
      },
      "getDeprecationTime()": {
        "returns": {
          "_0": "The timestamp from which the hub no longer allows relaying calls."
        }
      },
      "getMinimumStakePerToken(address)": {
        "params": {
          "token": "An address of an ERC-20 compatible tokens."
        },
        "returns": {
          "_0": "The minimum amount of a given `token` that needs to be staked so that the Relay Manager is considered to be 'staked' by this `RelayHub`. Zero value means this token is not allowed for staking."
        }
      },
      "getPenalizer()": {
        "returns": {
          "_0": "The `Penalizer` address for this `RelayHub`."
        }
      },
      "getRelayRegistrar()": {
        "returns": {
          "_0": "The `RelayRegistrar` address for this `RelayHub`."
        }
      },
      "getStakeManager()": {
        "returns": {
          "_0": "The `StakeManager` address for this `RelayHub`."
        }
      },
      "getWorkerCount(address)": {
        "params": {
          "manager": "An address of the Relay Manager."
        },
        "returns": {
          "_0": "The count of Relay Workers associated with this Relay Manager."
        }
      },
      "getWorkerManager(address)": {
        "params": {
          "worker": "An address of the Relay Worker."
        },
        "returns": {
          "_0": "The address of its Relay Manager."
        }
      },
      "isDeprecated()": {
        "returns": {
          "_0": "`true` if the `RelayHub` is deprecated, `false` it it is not deprecated and can serve transactions."
        }
      },
      "owner()": {
        "details": "Returns the address of the current owner."
      },
      "penalize(address,address)": {
        "params": {
          "beneficiary": "The address that called the `Penalizer` and will receive a reward for it.",
          "relayWorker": "The address of the Relay Worker that committed a penalizable offense."
        }
      },
      "relayCall(string,uint256,((address,address,uint256,uint256,uint256,bytes,uint256),(uint256,uint256,uint256,address,address,address,bytes,uint256)),bytes,bytes)": {
        "params": {
          "approvalData": "The dapp-specific data forwarded to the `Paymaster`'s `preRelayedCall` method. This value is **not** verified by the `RelayHub` in any way. As an example, it can be used to pass some kind of a third-party signature to the `Paymaster` for verification. Emits a `TransactionRelayed` event regardless of whether the transaction succeeded or failed.",
          "domainSeparatorName": "The name of the Domain Separator used to verify the EIP-712 signature",
          "maxAcceptanceBudget": "The maximum valid value for `paymaster.getGasLimits().acceptanceBudget` to return.",
          "relayRequest": "All details of the requested relayed call.",
          "signature": "The client's EIP-712 signature over the `relayRequest` struct."
        }
      },
      "renounceOwnership()": {
        "details": "Leaves the contract without owner. It will not be possible to call `onlyOwner` functions. Can only be called by the current owner. NOTE: Renouncing ownership will leave the contract without an owner, thereby disabling any functionality that is only available to the owner."
      },
      "setConfiguration((uint256,uint256,uint256,uint256,uint256,address,uint8,uint80,uint16))": {
        "params": {
          "_config": "The new configuration."
        }
      },
      "setMinimumStakes(address[],uint256[])": {
        "params": {
          "minimumStake": "An array of minimal amounts necessary for a corresponding token, in wei.",
          "token": "An array of addresses of ERC-20 compatible tokens."
        }
      },
      "supportsInterface(bytes4)": {
        "details": "Returns true if this contract implements the interface defined by `interfaceId`. See the corresponding https://eips.ethereum.org/EIPS/eip-165#how-interfaces-are-identified[EIP section] to learn more about how these ids are created. This function call must use less than 30 000 gas."
      },
      "transferOwnership(address)": {
        "details": "Transfers ownership of the contract to a new account (`newOwner`). Can only be called by the current owner."
      },
      "versionHub()": {
        "returns": {
          "_0": "a SemVer-compliant version of the `RelayHub` contract."
        }
      }
    },
    "title": "The RelayHub Implementation",
    "version": 1
  },
  "userdoc": {
    "events": {
      "AbandonedRelayManagerBalanceEscheated(address,uint256)": {
        "notice": "This event is emitted in case a `relayManager` has been deemed \"abandoned\" for being unresponsive for a prolonged period of time.This event means the entire balance of the relay has been transferred to the `devAddress`."
      },
      "Deposited(address,address,uint256)": {
        "notice": "Emitted when `depositFor` is called, including the amount and account that was funded."
      },
      "HubDeprecated(uint256)": {
        "notice": "This event is emitted in case this `RelayHub` is deprecated and will stop serving transactions soon."
      },
      "RelayHubConfigured((uint256,uint256,uint256,uint256,uint256,address,uint8,uint80,uint16))": {
        "notice": "Emitted when a configuration of the `RelayHub` is changed"
      },
      "RelayWorkersAdded(address,address[],uint256)": {
        "notice": "Emitted when relays are added by a relayManager"
      },
      "StakingTokenDataChanged(address,uint256)": {
        "notice": "Emitted for each token configured for staking in setMinimumStakes"
      },
      "TransactionRejectedByPaymaster(address,address,bytes32,address,address,address,bytes4,uint256,bytes)": {
        "notice": "Emitted when an attempt to relay a call fails and the `Paymaster` does not accept the transaction. The actual relayed call was not executed, and the recipient not charged."
      },
      "TransactionRelayed(address,address,bytes32,address,address,address,bytes4,uint8,uint256)": {
        "notice": "Emitted when a transaction is relayed. Note that the actual internal function call might be reverted. The reason for a revert will be indicated in the `status` field of a corresponding `RelayCallStatus` value.`charge` is the Ether value deducted from the `Paymaster` balance. The amount added to the `relayManager` balance will be lower if there is an activated `devFee` in the `config`."
      },
      "TransactionResult(uint8,bytes)": {
        "notice": "This event is emitted in case the internal function returns a value or reverts with a revert string."
      },
      "Withdrawn(address,address,uint256)": {
        "notice": "Emitted when an account withdraws funds from the `RelayHub`."
      }
    },
    "kind": "user",
    "methods": {
      "addRelayWorkers(address[])": {
        "notice": "Add new worker addresses controlled by the sender who must be a staked Relay Manager address. Emits a `RelayWorkersAdded` event. This function can be called multiple times, emitting new events."
      },
      "calculateCharge(uint256,(uint256,uint256,uint256,address,address,address,bytes,uint256))": {
        "notice": "The fee is expressed as a base fee in wei plus percentage of the actual charge. For example, a value '40' stands for a 40% fee, so the recipient will be charged for 1.4 times the spent amount."
      },
      "calculateDevCharge(uint256)": {
        "notice": "The fee is expressed as a  percentage of the actual charge. For example, a value '40' stands for a 40% fee, so the Relay Manager will only get 60% of the `charge`."
      },
      "depositFor(address)": {
        "notice": "Deposits ether for a `Paymaster`, so that it can and pay for relayed transactions. :warning: **Warning** :warning: Unused balance can only be withdrawn by the holder itself, by calling `withdraw`. Emits a `Deposited` event."
      },
      "deprecateHub(uint256)": {
        "notice": "Deprecate hub by reverting all incoming `relayCall()` calls starting from a given timestamp"
      },
      "escheatAbandonedRelayBalance(address)": {
        "notice": "@param relayManager"
      },
      "innerRelayCall(string,((address,address,uint256,uint256,uint256,bytes,uint256),(uint256,uint256,uint256,address,address,address,bytes,uint256)),bytes,bytes,(uint256,uint256,uint256,uint256),uint256,uint256)": {
        "notice": "This method can only by called by this `RelayHub`. It wraps the execution of the `RelayRequest` in a revertable frame context."
      },
      "isRelayEscheatable(address)": {
        "notice": "Uses `StakeManager` to check if the Relay Manager can be considered abandoned or not. Returns true if the stake's abandonment time is in the past including the escheatment delay, false otherwise."
      },
      "onRelayServerRegistered(address)": {
        "notice": "The `RelayRegistrar` callback to notify the `RelayHub` that this `relayManager` has updated registration."
      },
      "penalize(address,address)": {
        "notice": "In case the Relay Worker has been found to be in violation of some rules by the `Penalizer` contract, the `Penalizer` will call this method to execute a penalization. The `RelayHub` will look up the Relay Manager of the given Relay Worker and will forward the call to the `StakeManager` contract. The `RelayHub` does not perform the actual penalization either."
      },
      "relayCall(string,uint256,((address,address,uint256,uint256,uint256,bytes,uint256),(uint256,uint256,uint256,address,address,address,bytes,uint256)),bytes,bytes)": {
        "notice": "Relays a transaction. For this to succeed, multiple conditions must be met:  - `Paymaster`'s `preRelayCall` method must succeed and not revert.  - the `msg.sender` must be a registered Relay Worker that the user signed to use.  - the transaction's gas fees must be equal or larger than the ones that were signed by the sender.  - the transaction must have enough gas to run all internal transactions if they use all gas available to them.  - the `Paymaster` must have enough balance to pay the Relay Worker if all gas is spent.If all conditions are met, the call will be relayed and the `Paymaster` charged."
      },
      "setConfiguration((uint256,uint256,uint256,uint256,uint256,address,uint8,uint80,uint16))": {
        "notice": "Sets or changes the configuration of this `RelayHub`."
      },
      "setMinimumStakes(address[],uint256[])": {
        "notice": "Sets or changes the minimum amount of a given `token` that needs to be staked so that the Relay Manager is considered to be 'staked' by this `RelayHub`. Zero value means this token is not allowed for staking."
      },
      "verifyRelayManagerStaked(address)": {
        "notice": "Uses `StakeManager` to decide if the Relay Manager can be considered staked or not. Returns if the stake's token, amount and delay satisfy all requirements, reverts otherwise."
      },
      "withdraw(address,uint256)": {
        "notice": "Withdraws from an account's balance, sending it back to the caller. Relay Managers call this to retrieve their revenue, and `Paymasters` can also use it to reduce their funding. Emits a `Withdrawn` event."
      },
      "withdrawMultiple(address[],uint256[])": {
        "notice": "Withdraws from an account's balance, sending funds to multiple provided addresses. Relay Managers call this to retrieve their revenue, and `Paymasters` can also use it to reduce their funding. Emits a `Withdrawn` event for each destination."
      }
    },
    "notice": "This contract implements the `IRelayHub` interface for the EVM-compatible networks.",
    "version": 1
  },
  "storageLayout": {
    "storage": [
      {
        "astId": 8589,
        "contract": "@opengsn/contracts/src/RelayHub.sol:RelayHub",
        "label": "_owner",
        "offset": 0,
        "slot": "0",
        "type": "t_address"
      },
      {
        "astId": 1178,
        "contract": "@opengsn/contracts/src/RelayHub.sol:RelayHub",
        "label": "config",
        "offset": 0,
        "slot": "1",
        "type": "t_struct(RelayHubConfig)5166_storage"
      },
      {
        "astId": 1221,
        "contract": "@opengsn/contracts/src/RelayHub.sol:RelayHub",
        "label": "minimumStakePerToken",
        "offset": 0,
        "slot": "8",
        "type": "t_mapping(t_contract(IERC20)9362,t_uint256)"
      },
      {
        "astId": 1284,
        "contract": "@opengsn/contracts/src/RelayHub.sol:RelayHub",
        "label": "workerToManager",
        "offset": 0,
        "slot": "9",
        "type": "t_mapping(t_address,t_address)"
      },
      {
        "astId": 1288,
        "contract": "@opengsn/contracts/src/RelayHub.sol:RelayHub",
        "label": "workerCount",
        "offset": 0,
        "slot": "10",
        "type": "t_mapping(t_address,t_uint256)"
      },
      {
        "astId": 1292,
        "contract": "@opengsn/contracts/src/RelayHub.sol:RelayHub",
        "label": "balances",
        "offset": 0,
        "slot": "11",
        "type": "t_mapping(t_address,t_uint256)"
      },
      {
        "astId": 1301,
        "contract": "@opengsn/contracts/src/RelayHub.sol:RelayHub",
        "label": "deprecationTime",
        "offset": 0,
        "slot": "12",
        "type": "t_uint256"
      }
    ],
    "types": {
      "t_address": {
        "encoding": "inplace",
        "label": "address",
        "numberOfBytes": "20"
      },
      "t_contract(IERC20)9362": {
        "encoding": "inplace",
        "label": "contract IERC20",
        "numberOfBytes": "20"
      },
      "t_mapping(t_address,t_address)": {
        "encoding": "mapping",
        "key": "t_address",
        "label": "mapping(address => address)",
        "numberOfBytes": "32",
        "value": "t_address"
      },
      "t_mapping(t_address,t_uint256)": {
        "encoding": "mapping",
        "key": "t_address",
        "label": "mapping(address => uint256)",
        "numberOfBytes": "32",
        "value": "t_uint256"
      },
      "t_mapping(t_contract(IERC20)9362,t_uint256)": {
        "encoding": "mapping",
        "key": "t_contract(IERC20)9362",
        "label": "mapping(contract IERC20 => uint256)",
        "numberOfBytes": "32",
        "value": "t_uint256"
      },
      "t_struct(RelayHubConfig)5166_storage": {
        "encoding": "inplace",
        "label": "struct IRelayHub.RelayHubConfig",
        "members": [
          {
            "astId": 5149,
            "contract": "@opengsn/contracts/src/RelayHub.sol:RelayHub",
            "label": "maxWorkerCount",
            "offset": 0,
            "slot": "0",
            "type": "t_uint256"
          },
          {
            "astId": 5151,
            "contract": "@opengsn/contracts/src/RelayHub.sol:RelayHub",
            "label": "gasReserve",
            "offset": 0,
            "slot": "1",
            "type": "t_uint256"
          },
          {
            "astId": 5153,
            "contract": "@opengsn/contracts/src/RelayHub.sol:RelayHub",
            "label": "postOverhead",
            "offset": 0,
            "slot": "2",
            "type": "t_uint256"
          },
          {
            "astId": 5155,
            "contract": "@opengsn/contracts/src/RelayHub.sol:RelayHub",
            "label": "gasOverhead",
            "offset": 0,
            "slot": "3",
            "type": "t_uint256"
          },
          {
            "astId": 5157,
            "contract": "@opengsn/contracts/src/RelayHub.sol:RelayHub",
            "label": "minimumUnstakeDelay",
            "offset": 0,
            "slot": "4",
            "type": "t_uint256"
          },
          {
            "astId": 5159,
            "contract": "@opengsn/contracts/src/RelayHub.sol:RelayHub",
            "label": "devAddress",
            "offset": 0,
            "slot": "5",
            "type": "t_address"
          },
          {
            "astId": 5161,
            "contract": "@opengsn/contracts/src/RelayHub.sol:RelayHub",
            "label": "devFee",
            "offset": 20,
            "slot": "5",
            "type": "t_uint8"
          },
          {
            "astId": 5163,
            "contract": "@opengsn/contracts/src/RelayHub.sol:RelayHub",
            "label": "baseRelayFee",
            "offset": 21,
            "slot": "5",
            "type": "t_uint80"
          },
          {
            "astId": 5165,
            "contract": "@opengsn/contracts/src/RelayHub.sol:RelayHub",
            "label": "pctRelayFee",
            "offset": 0,
            "slot": "6",
            "type": "t_uint16"
          }
        ],
        "numberOfBytes": "224"
      },
      "t_uint16": {
        "encoding": "inplace",
        "label": "uint16",
        "numberOfBytes": "2"
      },
      "t_uint256": {
        "encoding": "inplace",
        "label": "uint256",
        "numberOfBytes": "32"
      },
      "t_uint8": {
        "encoding": "inplace",
        "label": "uint8",
        "numberOfBytes": "1"
      },
      "t_uint80": {
        "encoding": "inplace",
        "label": "uint80",
        "numberOfBytes": "10"
      }
    }
  }
}