{
  "address": "0x27Ed3b057BbaE22FA3376c69E97994421Fab1c0D",
  "abi": [
    {
      "inputs": [
        {
          "internalType": "uint256",
          "name": "amount",
          "type": "uint256"
        }
      ],
      "name": "InsufficientFunds",
      "type": "error"
    },
    {
      "inputs": [],
      "name": "OutOfBounds",
      "type": "error"
    },
    {
      "inputs": [
        {
          "internalType": "uint256",
          "name": "amount",
          "type": "uint256"
        }
      ],
      "name": "Overfunded",
      "type": "error"
    },
    {
      "inputs": [
        {
          "internalType": "address",
          "name": "who",
          "type": "address"
        }
      ],
      "name": "RequiresIssuerMembership",
      "type": "error"
    },
    {
      "inputs": [
        {
          "internalType": "address",
          "name": "who",
          "type": "address"
        }
      ],
      "name": "RequiresMarketplaceMembership",
      "type": "error"
    },
    {
      "anonymous": false,
      "inputs": [
        {
          "indexed": true,
          "internalType": "uint256",
          "name": "index",
          "type": "uint256"
        }
      ],
      "name": "FastDeploymentRequested",
      "type": "event"
    },
    {
      "anonymous": false,
      "inputs": [
        {
          "indexed": true,
          "internalType": "address",
          "name": "member",
          "type": "address"
        }
      ],
      "name": "MemberActivated",
      "type": "event"
    },
    {
      "anonymous": false,
      "inputs": [
        {
          "indexed": true,
          "internalType": "address",
          "name": "member",
          "type": "address"
        }
      ],
      "name": "MemberDeactivated",
      "type": "event"
    },
    {
      "inputs": [
        {
          "internalType": "uint256",
          "name": "index",
          "type": "uint256"
        }
      ],
      "name": "fastDeploymentRequest",
      "outputs": [
        {
          "components": [
            {
              "internalType": "address",
              "name": "sender",
              "type": "address"
            },
            {
              "internalType": "uint256",
              "name": "paid",
              "type": "uint256"
            },
            {
              "internalType": "string",
              "name": "params",
              "type": "string"
            }
          ],
          "internalType": "struct LibRequestedFastDeployments.Request",
          "name": "",
          "type": "tuple"
        }
      ],
      "stateMutability": "view",
      "type": "function"
    },
    {
      "inputs": [],
      "name": "fastDeploymentRequestPrice",
      "outputs": [
        {
          "internalType": "uint256",
          "name": "",
          "type": "uint256"
        }
      ],
      "stateMutability": "view",
      "type": "function"
    },
    {
      "inputs": [],
      "name": "fastDeploymentRequestsCount",
      "outputs": [
        {
          "internalType": "uint256",
          "name": "",
          "type": "uint256"
        }
      ],
      "stateMutability": "view",
      "type": "function"
    },
    {
      "inputs": [
        {
          "internalType": "string",
          "name": "params",
          "type": "string"
        }
      ],
      "name": "requestDeployment",
      "outputs": [],
      "stateMutability": "payable",
      "type": "function"
    },
    {
      "inputs": [
        {
          "internalType": "uint256",
          "name": "newPrice",
          "type": "uint256"
        }
      ],
      "name": "setFastDeploymentRequestPrice",
      "outputs": [],
      "stateMutability": "nonpayable",
      "type": "function"
    }
  ],
  "transactionHash": "0x235201eaeb0441c72162b3eaf5c6bcc9a9a982132175420b184235f63676b116",
  "args": [],
  "numDeployments": 2,
  "solcInputHash": "282aebb21cccc251bc099bdf4cf81fc0",
  "bytecode": "0x608060405234801561001057600080fd5b50610ae3806100206000396000f3fe60806040526004361061005a5760003560e01c806391abd7fd1161004357806391abd7fd146100b75780639d966ac8146100e4578063b3b8280c1461010457600080fd5b80630173028f1461005f5780634362f99514610074575b600080fd5b61007261006d366004610836565b610138565b005b34801561008057600080fd5b507f76bf4334ce845be36ecb43e6a03f2ab49f02f279a30e4e516a514e2032d61233545b6040519081526020015b60405180910390f35b3480156100c357600080fd5b506100d76100d2366004610905565b6103e7565b6040516100ae919061091e565b3480156100f057600080fd5b506100726100ff366004610905565b6105a7565b34801561011057600080fd5b507f76bf4334ce845be36ecb43e6a03f2ab49f02f279a30e4e516a514e2032d61232546100a4565b61014061060c565b6040517fa230c52400000000000000000000000000000000000000000000000000000000815273ffffffffffffffffffffffffffffffffffffffff82166004820152309063a230c52490602401602060405180830381865afa1580156101aa573d6000803e3d6000fd5b505050506040513d601f19601f820116820180604052508101906101ce91906109c3565b610221576040517f9ac2720600000000000000000000000000000000000000000000000000000000815273ffffffffffffffffffffffffffffffffffffffff821660048201526024015b60405180910390fd5b7f76bf4334ce845be36ecb43e6a03f2ab49f02f279a30e4e516a514e2032d61232547f76bf4334ce845be36ecb43e6a03f2ab49f02f279a30e4e516a514e2032d61231903410156102b15734816001015461027c91906109ec565b6040517fcb78cce200000000000000000000000000000000000000000000000000000000815260040161021891815260200190565b80600101543411156103015760018101546102cc90346109ec565b6040517f7a1b34be00000000000000000000000000000000000000000000000000000000815260040161021891815260200190565b60028101546040517f091c4a7672d4dd8af4d47f061917806ca7b5357b7d3f2dd1dbd3542e69beb0ca90600090a280600201604051806060016040528061034661060c565b73ffffffffffffffffffffffffffffffffffffffff9081168252600185810154602080850191909152604093840189905285548083018755600096875295819020855160039097020180547fffffffffffffffffffffffff000000000000000000000000000000000000000016969093169590951782558385015190820155908201518051929391926103df926002850192019061076e565b505050505050565b604080516060808201835260008083526020830152918101919091527f76bf4334ce845be36ecb43e6a03f2ab49f02f279a30e4e516a514e2032d61233547f76bf4334ce845be36ecb43e6a03f2ab49f02f279a30e4e516a514e2032d6123190831061047f576040517fb4120f1400000000000000000000000000000000000000000000000000000000815260040160405180910390fd5b80600201838154811061049457610494610a2a565b90600052602060002090600302016040518060600160405290816000820160009054906101000a900473ffffffffffffffffffffffffffffffffffffffff1673ffffffffffffffffffffffffffffffffffffffff1673ffffffffffffffffffffffffffffffffffffffff1681526020016001820154815260200160028201805461051d90610a59565b80601f016020809104026020016040519081016040528092919081815260200182805461054990610a59565b80156105965780601f1061056b57610100808354040283529160200191610596565b820191906000526020600020905b81548152906001019060200180831161057957829003601f168201915b505050505081525050915050919050565b6105b033610658565b6105e8576040517f1dd41c4d000000000000000000000000000000000000000000000000000000008152336004820152602401610218565b7f76bf4334ce845be36ecb43e6a03f2ab49f02f279a30e4e516a514e2032d6123255565b600060143610801590610623575061062333610719565b1561065357507fffffffffffffffffffffffffffffffffffffffffffffffffffffffffffffffec36013560601c90565b503390565b7fb59ec141376cee83f618e10e881bbb4789cdeee27e0d441a8c37ead3cb8b93c1546040517fa230c52400000000000000000000000000000000000000000000000000000000815273ffffffffffffffffffffffffffffffffffffffff8381166004830152600092620100009004169063a230c524906024015b602060405180830381865afa1580156106ef573d6000803e3d6000fd5b505050506040513d601f19601f8201168201806040525081019061071391906109c3565b92915050565b6040517f572b6c0500000000000000000000000000000000000000000000000000000000815273ffffffffffffffffffffffffffffffffffffffff82166004820152600090309063572b6c05906024016106d2565b82805461077a90610a59565b90600052602060002090601f01602090048101928261079c57600085556107e2565b82601f106107b557805160ff19168380011785556107e2565b828001600101855582156107e2579182015b828111156107e25782518255916020019190600101906107c7565b506107ee9291506107f2565b5090565b5b808211156107ee57600081556001016107f3565b7f4e487b7100000000000000000000000000000000000000000000000000000000600052604160045260246000fd5b60006020828403121561084857600080fd5b813567ffffffffffffffff8082111561086057600080fd5b818401915084601f83011261087457600080fd5b81358181111561088657610886610807565b604051601f82017fffffffffffffffffffffffffffffffffffffffffffffffffffffffffffffffe0908116603f011681019083821181831017156108cc576108cc610807565b816040528281528760208487010111156108e557600080fd5b826020860160208301376000928101602001929092525095945050505050565b60006020828403121561091757600080fd5b5035919050565b6000602080835273ffffffffffffffffffffffffffffffffffffffff845116818401528084015160408401526040840151606080850152805180608086015260005b8181101561097c5782810184015186820160a001528301610960565b8181111561098e57600060a083880101525b50601f017fffffffffffffffffffffffffffffffffffffffffffffffffffffffffffffffe0169390930160a001949350505050565b6000602082840312156109d557600080fd5b815180151581146109e557600080fd5b9392505050565b600082821015610a25577f4e487b7100000000000000000000000000000000000000000000000000000000600052601160045260246000fd5b500390565b7f4e487b7100000000000000000000000000000000000000000000000000000000600052603260045260246000fd5b600181811c90821680610a6d57607f821691505b60208210811415610aa7577f4e487b7100000000000000000000000000000000000000000000000000000000600052602260045260246000fd5b5091905056fea264697066735822122067ad96899b59abb879055fbb62f85a3b3e604ad3bf50feb9392146dfeefe609d64736f6c634300080a0033",
  "devdoc": {
    "kind": "dev",
    "methods": {
      "fastDeploymentRequest(uint256)": {
        "params": {
          "index": "is the index at which to retrieve the request."
        }
      },
      "fastDeploymentRequestPrice()": {
        "returns": {
          "_0": "An uint256 representing the price for a FAST deployment request."
        }
      },
      "fastDeploymentRequestsCount()": {
        "returns": {
          "_0": "An uint256 representing the number of FAST deployment requests ever made."
        }
      },
      "requestDeployment(string)": {
        "params": {
          "params": "The parameters for the FAST deployment."
        }
      },
      "setFastDeploymentRequestPrice(uint256)": {
        "params": {
          "newPrice": "The new price of a FAST deployment request."
        }
      }
    },
    "title": "The Marketplace Smart Contract.",
    "version": 1
  },
  "userdoc": {
    "kind": "user",
    "methods": {
      "fastDeploymentRequest(uint256)": {
        "notice": "This function allows to get previously made FAST deployment requests."
      },
      "fastDeploymentRequestPrice()": {
        "notice": "Allows querying the current price for a FAST deployment request."
      },
      "fastDeploymentRequestsCount()": {
        "notice": "This function returns the number of FAST deployment requests ever made."
      },
      "requestDeployment(string)": {
        "notice": "This function allows users to request a FAST deployment."
      },
      "setFastDeploymentRequestPrice(uint256)": {
        "notice": "This function allows an issuer member to change the price of a FAST deployment request."
      }
    },
    "notice": "The Marketplace Fast Deployments facet is in charge of keeping track of requested Fast Deployments.",
    "version": 1
  },
  "storageLayout": {
    "storage": [],
    "types": null
  }
}