{
  "address": "0x33E83A084703D5C16b7F720d9F6D0A3020EC2d14",
  "abi": [
    {
      "inputs": [
        {
          "internalType": "uint256",
          "name": "amount",
          "type": "uint256"
        }
      ],
      "name": "InsufficientFunds",
      "type": "error"
    },
    {
      "inputs": [],
      "name": "OutOfBounds",
      "type": "error"
    },
    {
      "inputs": [
        {
          "internalType": "uint256",
          "name": "amount",
          "type": "uint256"
        }
      ],
      "name": "Overfunded",
      "type": "error"
    },
    {
      "inputs": [
        {
          "internalType": "address",
          "name": "who",
          "type": "address"
        }
      ],
      "name": "RequiresIssuerMembership",
      "type": "error"
    },
    {
      "inputs": [
        {
          "internalType": "address",
          "name": "who",
          "type": "address"
        }
      ],
      "name": "RequiresMarketplaceMembership",
      "type": "error"
    },
    {
      "anonymous": false,
      "inputs": [
        {
          "indexed": true,
          "internalType": "uint256",
          "name": "index",
          "type": "uint256"
        }
      ],
      "name": "FastDeploymentRequested",
      "type": "event"
    },
    {
      "anonymous": false,
      "inputs": [
        {
          "indexed": true,
          "internalType": "address",
          "name": "member",
          "type": "address"
        }
      ],
      "name": "MemberActivated",
      "type": "event"
    },
    {
      "anonymous": false,
      "inputs": [
        {
          "indexed": true,
          "internalType": "address",
          "name": "member",
          "type": "address"
        }
      ],
      "name": "MemberDeactivated",
      "type": "event"
    },
    {
      "inputs": [
        {
          "internalType": "uint256",
          "name": "index",
          "type": "uint256"
        }
      ],
      "name": "fastDeploymentRequest",
      "outputs": [
        {
          "components": [
            {
              "internalType": "address",
              "name": "sender",
              "type": "address"
            },
            {
              "internalType": "uint256",
              "name": "paid",
              "type": "uint256"
            },
            {
              "internalType": "string",
              "name": "params",
              "type": "string"
            }
          ],
          "internalType": "struct LibRequestedFastDeployments.Request",
          "name": "",
          "type": "tuple"
        }
      ],
      "stateMutability": "view",
      "type": "function"
    },
    {
      "inputs": [],
      "name": "fastDeploymentRequestPrice",
      "outputs": [
        {
          "internalType": "uint256",
          "name": "",
          "type": "uint256"
        }
      ],
      "stateMutability": "view",
      "type": "function"
    },
    {
      "inputs": [],
      "name": "fastDeploymentRequestsCount",
      "outputs": [
        {
          "internalType": "uint256",
          "name": "",
          "type": "uint256"
        }
      ],
      "stateMutability": "view",
      "type": "function"
    },
    {
      "inputs": [
        {
          "internalType": "string",
          "name": "params",
          "type": "string"
        }
      ],
      "name": "requestDeployment",
      "outputs": [],
      "stateMutability": "payable",
      "type": "function"
    },
    {
      "inputs": [
        {
          "internalType": "uint256",
          "name": "newPrice",
          "type": "uint256"
        }
      ],
      "name": "setFastDeploymentRequestPrice",
      "outputs": [],
      "stateMutability": "nonpayable",
      "type": "function"
    }
  ],
  "transactionHash": "0xa6cf5c35a332041a0c0b27045340dc3f3d04b0de25a6fcc0be62fa6c9887a1cc",
  "args": [],
  "numDeployments": 1,
  "solcInputHash": "c2c86c4488a50dc9c880be0e80e5f441",
  "bytecode": "0x608060405234801561001057600080fd5b50610a19806100206000396000f3fe60806040526004361061005a5760003560e01c806391abd7fd1161004357806391abd7fd146100b75780639d966ac8146100e4578063b3b8280c1461010457600080fd5b80630173028f1461005f5780634362f99514610074575b600080fd5b61007261006d36600461076c565b610138565b005b34801561008057600080fd5b507f76bf4334ce845be36ecb43e6a03f2ab49f02f279a30e4e516a514e2032d61233545b6040519081526020015b60405180910390f35b3480156100c357600080fd5b506100d76100d236600461083b565b6103bd565b6040516100ae9190610854565b3480156100f057600080fd5b506100726100ff36600461083b565b61057d565b34801561011057600080fd5b507f76bf4334ce845be36ecb43e6a03f2ab49f02f279a30e4e516a514e2032d61232546100a4565b6040517fa230c524000000000000000000000000000000000000000000000000000000008152336004820181905290309063a230c52490602401602060405180830381865afa15801561018f573d6000803e3d6000fd5b505050506040513d601f19601f820116820180604052508101906101b391906108f9565b610206576040517f9ac2720600000000000000000000000000000000000000000000000000000000815273ffffffffffffffffffffffffffffffffffffffff821660048201526024015b60405180910390fd5b7f76bf4334ce845be36ecb43e6a03f2ab49f02f279a30e4e516a514e2032d61232547f76bf4334ce845be36ecb43e6a03f2ab49f02f279a30e4e516a514e2032d6123190341015610296573481600101546102619190610922565b6040517fcb78cce20000000000000000000000000000000000000000000000000000000081526004016101fd91815260200190565b80600101543411156102e65760018101546102b19034610922565b6040517f7a1b34be0000000000000000000000000000000000000000000000000000000081526004016101fd91815260200190565b60028101546040517f091c4a7672d4dd8af4d47f061917806ca7b5357b7d3f2dd1dbd3542e69beb0ca90600090a2604080516060810182523381526001838101546020808401918252938301878152600280870180548086018255600091825290879020865160039092020180547fffffffffffffffffffffffff00000000000000000000000000000000000000001673ffffffffffffffffffffffffffffffffffffffff909216919091178155925193830193909355518051939491936103b59385019291909101906106a4565b505050505050565b604080516060808201835260008083526020830152918101919091527f76bf4334ce845be36ecb43e6a03f2ab49f02f279a30e4e516a514e2032d61233547f76bf4334ce845be36ecb43e6a03f2ab49f02f279a30e4e516a514e2032d61231908310610455576040517fb4120f1400000000000000000000000000000000000000000000000000000000815260040160405180910390fd5b80600201838154811061046a5761046a610960565b90600052602060002090600302016040518060600160405290816000820160009054906101000a900473ffffffffffffffffffffffffffffffffffffffff1673ffffffffffffffffffffffffffffffffffffffff1673ffffffffffffffffffffffffffffffffffffffff168152602001600182015481526020016002820180546104f39061098f565b80601f016020809104026020016040519081016040528092919081815260200182805461051f9061098f565b801561056c5780601f106105415761010080835404028352916020019161056c565b820191906000526020600020905b81548152906001019060200180831161054f57829003601f168201915b505050505081525050915050919050565b610586336105e2565b6105be576040517f1dd41c4d0000000000000000000000000000000000000000000000000000000081523360048201526024016101fd565b7f76bf4334ce845be36ecb43e6a03f2ab49f02f279a30e4e516a514e2032d6123255565b60007fb59ec141376cee83f618e10e881bbb4789cdeee27e0d441a8c37ead3cb8b93c1546040517fa230c52400000000000000000000000000000000000000000000000000000000815273ffffffffffffffffffffffffffffffffffffffff8481166004830152620100009092049091169063a230c52490602401602060405180830381865afa15801561067a573d6000803e3d6000fd5b505050506040513d601f19601f8201168201806040525081019061069e91906108f9565b92915050565b8280546106b09061098f565b90600052602060002090601f0160209004810192826106d25760008555610718565b82601f106106eb57805160ff1916838001178555610718565b82800160010185558215610718579182015b828111156107185782518255916020019190600101906106fd565b50610724929150610728565b5090565b5b808211156107245760008155600101610729565b7f4e487b7100000000000000000000000000000000000000000000000000000000600052604160045260246000fd5b60006020828403121561077e57600080fd5b813567ffffffffffffffff8082111561079657600080fd5b818401915084601f8301126107aa57600080fd5b8135818111156107bc576107bc61073d565b604051601f82017fffffffffffffffffffffffffffffffffffffffffffffffffffffffffffffffe0908116603f011681019083821181831017156108025761080261073d565b8160405282815287602084870101111561081b57600080fd5b826020860160208301376000928101602001929092525095945050505050565b60006020828403121561084d57600080fd5b5035919050565b6000602080835273ffffffffffffffffffffffffffffffffffffffff845116818401528084015160408401526040840151606080850152805180608086015260005b818110156108b25782810184015186820160a001528301610896565b818111156108c457600060a083880101525b50601f017fffffffffffffffffffffffffffffffffffffffffffffffffffffffffffffffe0169390930160a001949350505050565b60006020828403121561090b57600080fd5b8151801515811461091b57600080fd5b9392505050565b60008282101561095b577f4e487b7100000000000000000000000000000000000000000000000000000000600052601160045260246000fd5b500390565b7f4e487b7100000000000000000000000000000000000000000000000000000000600052603260045260246000fd5b600181811c908216806109a357607f821691505b602082108114156109dd577f4e487b7100000000000000000000000000000000000000000000000000000000600052602260045260246000fd5b5091905056fea26469706673582212205cef9de292c76708b6cba43b19b992b5ba91d1b64cd24f3d2d65528289a557ac64736f6c634300080a0033",
  "devdoc": {
    "kind": "dev",
    "methods": {
      "fastDeploymentRequest(uint256)": {
        "params": {
          "index": "is the index at which to retrieve the request."
        }
      },
      "fastDeploymentRequestPrice()": {
        "returns": {
          "_0": "An uint256 representing the price for a FAST deployment request."
        }
      },
      "fastDeploymentRequestsCount()": {
        "returns": {
          "_0": "An uint256 representing the number of FAST deployment requests ever made."
        }
      },
      "requestDeployment(string)": {
        "params": {
          "params": "The parameters for the FAST deployment."
        }
      },
      "setFastDeploymentRequestPrice(uint256)": {
        "params": {
          "newPrice": "The new price of a FAST deployment request."
        }
      }
    },
    "title": "The Marketplace Smart Contract.",
    "version": 1
  },
  "userdoc": {
    "kind": "user",
    "methods": {
      "fastDeploymentRequest(uint256)": {
        "notice": "This function allows to get previously made FAST deployment requests."
      },
      "fastDeploymentRequestPrice()": {
        "notice": "Allows querying the current price for a FAST deployment request."
      },
      "fastDeploymentRequestsCount()": {
        "notice": "This function returns the number of FAST deployment requests ever made."
      },
      "requestDeployment(string)": {
        "notice": "This function allows users to request a FAST deployment."
      },
      "setFastDeploymentRequestPrice(uint256)": {
        "notice": "This function allows an issuer member to change the price of a FAST deployment request."
      }
    },
    "notice": "The Marketplace Fast Deployments facet is in charge of keeping track of requested Fast Deployments.",
    "version": 1
  },
  "storageLayout": {
    "storage": [],
    "types": null
  }
}