{
  "address": "0x74AB0e9E6828FaE7797Cf0508009e5F89853275e",
  "abi": [
    {
      "inputs": [
        {
          "internalType": "string",
          "name": "",
          "type": "string"
        }
      ],
      "name": "InterfaceNotSupported",
      "type": "error"
    },
    {
      "inputs": [
        {
          "internalType": "address",
          "name": "who",
          "type": "address"
        }
      ],
      "name": "RequiresForwarderManager",
      "type": "error"
    },
    {
      "anonymous": false,
      "inputs": [
        {
          "indexed": true,
          "internalType": "uint256",
          "name": "index",
          "type": "uint256"
        }
      ],
      "name": "FastDeploymentRequested",
      "type": "event"
    },
    {
      "anonymous": false,
      "inputs": [
        {
          "indexed": false,
          "internalType": "address",
          "name": "forwarderAddress",
          "type": "address"
        }
      ],
      "name": "ForwarderChanged",
      "type": "event"
    },
    {
      "anonymous": false,
      "inputs": [
        {
          "indexed": true,
          "internalType": "address",
          "name": "member",
          "type": "address"
        }
      ],
      "name": "MemberActivated",
      "type": "event"
    },
    {
      "anonymous": false,
      "inputs": [
        {
          "indexed": true,
          "internalType": "address",
          "name": "member",
          "type": "address"
        }
      ],
      "name": "MemberDeactivated",
      "type": "event"
    },
    {
      "inputs": [],
      "name": "getTrustedForwarder",
      "outputs": [
        {
          "internalType": "address",
          "name": "forwarderAddress",
          "type": "address"
        }
      ],
      "stateMutability": "view",
      "type": "function"
    },
    {
      "inputs": [
        {
          "internalType": "address",
          "name": "_forwarderAddress",
          "type": "address"
        }
      ],
      "name": "isTrustedForwarder",
      "outputs": [
        {
          "internalType": "bool",
          "name": "",
          "type": "bool"
        }
      ],
      "stateMutability": "view",
      "type": "function"
    },
    {
      "inputs": [
        {
          "internalType": "address",
          "name": "_forwarderAddress",
          "type": "address"
        }
      ],
      "name": "setTrustedForwarder",
      "outputs": [],
      "stateMutability": "nonpayable",
      "type": "function"
    }
  ],
  "transactionHash": "0x3bd5051fc23ce03afa6cb33414480e134f9212e6bd0395f944feb05dacffe0aa",
  "args": [],
  "numDeployments": 1,
  "solcInputHash": "282aebb21cccc251bc099bdf4cf81fc0",
  "bytecode": "0x608060405234801561001057600080fd5b50610483806100206000396000f3fe608060405234801561001057600080fd5b50600436106100415760003560e01c8063572b6c0514610046578063ce1b815f146100af578063da74222814610112575b600080fd5b61009a6100543660046103ee565b7fa9930c2ffa1b605b0243ba36b3020146bcba5a29c05a711f5ca7c705a8e851ca5462010000900473ffffffffffffffffffffffffffffffffffffffff90811691161490565b60405190151581526020015b60405180910390f35b7fa9930c2ffa1b605b0243ba36b3020146bcba5a29c05a711f5ca7c705a8e851ca5462010000900473ffffffffffffffffffffffffffffffffffffffff1660405173ffffffffffffffffffffffffffffffffffffffff90911681526020016100a6565b6101256101203660046103ee565b610127565b005b61013033610321565b61016d576040517fe88af4e30000000000000000000000000000000000000000000000000000000081523360048201526024015b60405180910390fd5b6040517f01ffc9a70000000000000000000000000000000000000000000000000000000081527f25e23e6400000000000000000000000000000000000000000000000000000000600482015273ffffffffffffffffffffffffffffffffffffffff8216906301ffc9a790602401602060405180830381865afa1580156101f7573d6000803e3d6000fd5b505050506040513d601f19601f8201168201806040525081019061021b919061042b565b610281576040517f216bf93000000000000000000000000000000000000000000000000000000000815260206004820152600a60248201527f49466f72776172646572000000000000000000000000000000000000000000006044820152606401610164565b7fa9930c2ffa1b605b0243ba36b3020146bcba5a29c05a711f5ca7c705a8e851ca805473ffffffffffffffffffffffffffffffffffffffff83166201000081027fffffffffffffffffffff0000000000000000000000000000000000000000ffff90921691909117825560408051918252517f9ecfd97bf22760e90779a4364f3646d6cbb7e6207b75280c803ca569a34234a09181900360200190a15050565b600061032c82610332565b92915050565b60007fb59ec141376cee83f618e10e881bbb4789cdeee27e0d441a8c37ead3cb8b93c1546040517fa230c52400000000000000000000000000000000000000000000000000000000815273ffffffffffffffffffffffffffffffffffffffff8481166004830152620100009092049091169063a230c52490602401602060405180830381865afa1580156103ca573d6000803e3d6000fd5b505050506040513d601f19601f8201168201806040525081019061032c919061042b565b60006020828403121561040057600080fd5b813573ffffffffffffffffffffffffffffffffffffffff8116811461042457600080fd5b9392505050565b60006020828403121561043d57600080fd5b8151801515811461042457600080fdfea2646970667358221220d8f9a21df2b9a460819d4970a1a576964b0f8e7fe44e2e255311edd7968210a064736f6c634300080a0033",
  "devdoc": {
    "errors": {
      "RequiresForwarderManager(address)": [
        {
          "params": {
            "who": "is the address that called the function."
          }
        }
      ]
    },
    "kind": "dev",
    "methods": {
      "getTrustedForwarder()": {
        "returns": {
          "forwarderAddress": "The address of the Forwarder contract that is being used."
        }
      },
      "isTrustedForwarder(address)": {
        "params": {
          "_forwarderAddress": "the forwarder address."
        },
        "returns": {
          "_0": "bool if the forwarder is trusted."
        }
      },
      "setTrustedForwarder(address)": {
        "params": {
          "_forwarderAddress": "the forwarder address."
        }
      }
    },
    "title": "The Marketplace Smart Contract.",
    "version": 1
  },
  "userdoc": {
    "errors": {
      "RequiresForwarderManager(address)": [
        {
          "notice": "Happens when a function is called by a non forwarder manager."
        }
      ]
    },
    "events": {
      "ForwarderChanged(address)": {
        "notice": "Emited when a forwarder is set on an implementing contract."
      }
    },
    "kind": "user",
    "methods": {
      "getTrustedForwarder()": {
        "notice": "WARNING: The Forwarder can have a full control over your Recipient. Only trust verified Forwarder.Method is not a required method to allow Recipients to trust multiple Forwarders. Not recommended yet."
      },
      "isTrustedForwarder(address)": {
        "notice": "ERC2771Recipient implementation."
      },
      "setTrustedForwarder(address)": {
        "notice": "ERC2771Recipient implementation."
      }
    },
    "notice": "The Marketplace Forwardable facet is in charge of \"gasless transactions\".",
    "version": 1
  },
  "storageLayout": {
    "storage": [],
    "types": null
  }
}