{
  "address": "0xa6b9c6a2BeEcD86bE8b260b21950FC324D5e7456",
  "abi": [
    {
      "inputs": [
        {
          "internalType": "address",
          "name": "",
          "type": "address"
        }
      ],
      "name": "ForwarderNotTrusted",
      "type": "error"
    },
    {
      "inputs": [
        {
          "internalType": "string",
          "name": "",
          "type": "string"
        }
      ],
      "name": "InterfaceNotSupported",
      "type": "error"
    },
    {
      "inputs": [],
      "name": "InvalidApprovalDataLength",
      "type": "error"
    },
    {
      "inputs": [],
      "name": "InvalidPaymasterDataLength",
      "type": "error"
    },
    {
      "inputs": [],
      "name": "RelayHubAddressNotSet",
      "type": "error"
    },
    {
      "inputs": [],
      "name": "RequiresIssuerMemberCaller",
      "type": "error"
    },
    {
      "inputs": [
        {
          "internalType": "address",
          "name": "who",
          "type": "address"
        }
      ],
      "name": "RequiresMarketplaceMembership",
      "type": "error"
    },
    {
      "inputs": [],
      "name": "RequiresRelayHubCaller",
      "type": "error"
    },
    {
      "inputs": [],
      "name": "ValueTransferNotSupported",
      "type": "error"
    },
    {
      "inputs": [],
      "name": "CALLDATA_SIZE_LIMIT",
      "outputs": [
        {
          "internalType": "uint256",
          "name": "",
          "type": "uint256"
        }
      ],
      "stateMutability": "view",
      "type": "function"
    },
    {
      "inputs": [],
      "name": "FORWARDER_HUB_OVERHEAD",
      "outputs": [
        {
          "internalType": "uint256",
          "name": "",
          "type": "uint256"
        }
      ],
      "stateMutability": "view",
      "type": "function"
    },
    {
      "inputs": [],
      "name": "PAYMASTER_ACCEPTANCE_BUDGET",
      "outputs": [
        {
          "internalType": "uint256",
          "name": "",
          "type": "uint256"
        }
      ],
      "stateMutability": "view",
      "type": "function"
    },
    {
      "inputs": [],
      "name": "POST_RELAYED_CALL_GAS_LIMIT",
      "outputs": [
        {
          "internalType": "uint256",
          "name": "",
          "type": "uint256"
        }
      ],
      "stateMutability": "view",
      "type": "function"
    },
    {
      "inputs": [],
      "name": "PRE_RELAYED_CALL_GAS_LIMIT",
      "outputs": [
        {
          "internalType": "uint256",
          "name": "",
          "type": "uint256"
        }
      ],
      "stateMutability": "view",
      "type": "function"
    },
    {
      "inputs": [],
      "name": "deposit",
      "outputs": [],
      "stateMutability": "payable",
      "type": "function"
    },
    {
      "inputs": [],
      "name": "getGasAndDataLimits",
      "outputs": [
        {
          "components": [
            {
              "internalType": "uint256",
              "name": "acceptanceBudget",
              "type": "uint256"
            },
            {
              "internalType": "uint256",
              "name": "preRelayedCallGasLimit",
              "type": "uint256"
            },
            {
              "internalType": "uint256",
              "name": "postRelayedCallGasLimit",
              "type": "uint256"
            },
            {
              "internalType": "uint256",
              "name": "calldataSizeLimit",
              "type": "uint256"
            }
          ],
          "internalType": "struct IPaymaster.GasAndDataLimits",
          "name": "limits",
          "type": "tuple"
        }
      ],
      "stateMutability": "pure",
      "type": "function"
    },
    {
      "inputs": [],
      "name": "getRelayHub",
      "outputs": [
        {
          "internalType": "address",
          "name": "",
          "type": "address"
        }
      ],
      "stateMutability": "view",
      "type": "function"
    },
    {
      "inputs": [],
      "name": "getTrustedForwarder",
      "outputs": [
        {
          "internalType": "address",
          "name": "",
          "type": "address"
        }
      ],
      "stateMutability": "view",
      "type": "function"
    },
    {
      "inputs": [
        {
          "internalType": "bytes",
          "name": "context",
          "type": "bytes"
        },
        {
          "internalType": "bool",
          "name": "success",
          "type": "bool"
        },
        {
          "internalType": "uint256",
          "name": "gasUseWithoutPost",
          "type": "uint256"
        },
        {
          "components": [
            {
              "internalType": "uint256",
              "name": "maxFeePerGas",
              "type": "uint256"
            },
            {
              "internalType": "uint256",
              "name": "maxPriorityFeePerGas",
              "type": "uint256"
            },
            {
              "internalType": "uint256",
              "name": "transactionCalldataGasUsed",
              "type": "uint256"
            },
            {
              "internalType": "address",
              "name": "relayWorker",
              "type": "address"
            },
            {
              "internalType": "address",
              "name": "paymaster",
              "type": "address"
            },
            {
              "internalType": "address",
              "name": "forwarder",
              "type": "address"
            },
            {
              "internalType": "bytes",
              "name": "paymasterData",
              "type": "bytes"
            },
            {
              "internalType": "uint256",
              "name": "clientId",
              "type": "uint256"
            }
          ],
          "internalType": "struct GsnTypes.RelayData",
          "name": "relayData",
          "type": "tuple"
        }
      ],
      "name": "postRelayedCall",
      "outputs": [],
      "stateMutability": "view",
      "type": "function"
    },
    {
      "inputs": [
        {
          "components": [
            {
              "components": [
                {
                  "internalType": "address",
                  "name": "from",
                  "type": "address"
                },
                {
                  "internalType": "address",
                  "name": "to",
                  "type": "address"
                },
                {
                  "internalType": "uint256",
                  "name": "value",
                  "type": "uint256"
                },
                {
                  "internalType": "uint256",
                  "name": "gas",
                  "type": "uint256"
                },
                {
                  "internalType": "uint256",
                  "name": "nonce",
                  "type": "uint256"
                },
                {
                  "internalType": "bytes",
                  "name": "data",
                  "type": "bytes"
                },
                {
                  "internalType": "uint256",
                  "name": "validUntilTime",
                  "type": "uint256"
                }
              ],
              "internalType": "struct IForwarder.ForwardRequest",
              "name": "request",
              "type": "tuple"
            },
            {
              "components": [
                {
                  "internalType": "uint256",
                  "name": "maxFeePerGas",
                  "type": "uint256"
                },
                {
                  "internalType": "uint256",
                  "name": "maxPriorityFeePerGas",
                  "type": "uint256"
                },
                {
                  "internalType": "uint256",
                  "name": "transactionCalldataGasUsed",
                  "type": "uint256"
                },
                {
                  "internalType": "address",
                  "name": "relayWorker",
                  "type": "address"
                },
                {
                  "internalType": "address",
                  "name": "paymaster",
                  "type": "address"
                },
                {
                  "internalType": "address",
                  "name": "forwarder",
                  "type": "address"
                },
                {
                  "internalType": "bytes",
                  "name": "paymasterData",
                  "type": "bytes"
                },
                {
                  "internalType": "uint256",
                  "name": "clientId",
                  "type": "uint256"
                }
              ],
              "internalType": "struct GsnTypes.RelayData",
              "name": "relayData",
              "type": "tuple"
            }
          ],
          "internalType": "struct GsnTypes.RelayRequest",
          "name": "relayRequest",
          "type": "tuple"
        },
        {
          "internalType": "bytes",
          "name": "",
          "type": "bytes"
        },
        {
          "internalType": "bytes",
          "name": "approvalData",
          "type": "bytes"
        },
        {
          "internalType": "uint256",
          "name": "",
          "type": "uint256"
        }
      ],
      "name": "preRelayedCall",
      "outputs": [
        {
          "internalType": "bytes",
          "name": "",
          "type": "bytes"
        },
        {
          "internalType": "bool",
          "name": "",
          "type": "bool"
        }
      ],
      "stateMutability": "view",
      "type": "function"
    },
    {
      "inputs": [
        {
          "internalType": "contract IRelayHub",
          "name": "hub",
          "type": "address"
        }
      ],
      "name": "setRelayHub",
      "outputs": [],
      "stateMutability": "nonpayable",
      "type": "function"
    },
    {
      "inputs": [
        {
          "internalType": "address",
          "name": "forwarder",
          "type": "address"
        }
      ],
      "name": "setTrustedForwarder",
      "outputs": [],
      "stateMutability": "nonpayable",
      "type": "function"
    },
    {
      "inputs": [
        {
          "internalType": "bytes4",
          "name": "_interfaceId",
          "type": "bytes4"
        }
      ],
      "name": "supportsInterface",
      "outputs": [
        {
          "internalType": "bool",
          "name": "",
          "type": "bool"
        }
      ],
      "stateMutability": "view",
      "type": "function"
    },
    {
      "inputs": [],
      "name": "useRejectOnRecipientRevert",
      "outputs": [
        {
          "internalType": "bool",
          "name": "",
          "type": "bool"
        }
      ],
      "stateMutability": "view",
      "type": "function"
    },
    {
      "inputs": [],
      "name": "versionPaymaster",
      "outputs": [
        {
          "internalType": "string",
          "name": "",
          "type": "string"
        }
      ],
      "stateMutability": "pure",
      "type": "function"
    },
    {
      "inputs": [
        {
          "internalType": "uint256",
          "name": "amount",
          "type": "uint256"
        },
        {
          "internalType": "address payable",
          "name": "target",
          "type": "address"
        }
      ],
      "name": "withdrawRelayHubDepositTo",
      "outputs": [],
      "stateMutability": "nonpayable",
      "type": "function"
    }
  ],
  "transactionHash": "0x978670eb89ebe5148c5396c27dac0b1bce82e995c845b863ac95ebd1f7398719",
  "args": [],
  "numDeployments": 1,
  "solcInputHash": "282aebb21cccc251bc099bdf4cf81fc0",
  "bytecode": "0x60806040526001805460ff60a01b1916905534801561001d57600080fd5b506116d68061002d6000396000f3fe60806040526004361061010d5760003560e01c8063921276ea116100a5578063ce1b815f11610074578063da74222811610059578063da74222814610398578063df463a66146103b8578063f9c002f7146103cd57600080fd5b8063ce1b815f14610365578063d0e30db01461039057600080fd5b8063921276ea146102ce578063b039a88f146102f0578063b90b41cf14610338578063bbdaa3c91461034e57600080fd5b80635c5e3db1116100e15780635c5e3db11461021e57806376fa01c3146102425780637bb05264146102625780637bdf2ec71461028257600080fd5b8062be5dd41461011257806301ffc9a7146101495780632d14c4b7146101ca5780634f33b4dd146101ec575b600080fd5b34801561011e57600080fd5b5061013261012d366004611280565b6103e4565b60405161014092919061139f565b60405180910390f35b34801561015557600080fd5b506101ba6101643660046113c3565b7fffffffff000000000000000000000000000000000000000000000000000000001660009081527fc8fcad8db84d3cc18b4c41d551ea0ee66dd599cde068d998e57d5e09332c131f602052604090205460ff1690565b6040519015158152602001610140565b3480156101d657600080fd5b506101ea6101e5366004611431565b6107ad565b005b3480156101f857600080fd5b506001546101ba9074010000000000000000000000000000000000000000900460ff1681565b34801561022a57600080fd5b5061023461290481565b604051908152602001610140565b34801561024e57600080fd5b506101ea61025d36600461146f565b61092c565b34801561026e57600080fd5b506101ea61027d3660046114ff565b610984565b34801561028e57600080fd5b5060005473ffffffffffffffffffffffffffffffffffffffff165b60405173ffffffffffffffffffffffffffffffffffffffff9091168152602001610140565b3480156102da57600080fd5b506102e3610bce565b604051610140919061151c565b3480156102fc57600080fd5b50610305610bee565b60405161014091908151815260208083015190820152604080830151908201526060918201519181019190915260800190565b34801561034457600080fd5b5061023461c35081565b34801561035a57600080fd5b506102346201adb081565b34801561037157600080fd5b5060015473ffffffffffffffffffffffffffffffffffffffff166102a9565b6101ea610c57565b3480156103a457600080fd5b506101ea6103b33660046114ff565b610d26565b3480156103c457600080fd5b50610234610f70565b3480156103d957600080fd5b50610234620186a081565b6060600061040760005473ffffffffffffffffffffffffffffffffffffffff1690565b73ffffffffffffffffffffffffffffffffffffffff163373ffffffffffffffffffffffffffffffffffffffff161461046b576040517f1cb1a41200000000000000000000000000000000000000000000000000000000815260040160405180910390fd5b610478602089018961152f565b6104899060c081019060a0016114ff565b73ffffffffffffffffffffffffffffffffffffffff166104be60015473ffffffffffffffffffffffffffffffffffffffff1690565b73ffffffffffffffffffffffffffffffffffffffff1614610547576104e6602089018961152f565b6104f79060c081019060a0016114ff565b6040517fb445991100000000000000000000000000000000000000000000000000000000815273ffffffffffffffffffffffffffffffffffffffff90911660048201526024015b60405180910390fd5b61055088610f82565b61055a888061156d565b6040013515610595576040517f035695ba00000000000000000000000000000000000000000000000000000000815260040160405180910390fd5b6105a2602089018961152f565b6105b09060c08101906115a1565b1590506105e9576040517f131c145700000000000000000000000000000000000000000000000000000000815260040160405180910390fd5b8315610621576040517f8fca7ef400000000000000000000000000000000000000000000000000000000815260040160405180910390fd5b7f8f0e66ee30211ca069424cd4b533ee66f04c45421216c1a6601cf23359c1f7f8805462010000900473ffffffffffffffffffffffffffffffffffffffff1663a230c52461066f8b8061156d565b61067d9060208101906114ff565b6040517fffffffff0000000000000000000000000000000000000000000000000000000060e084901b16815273ffffffffffffffffffffffffffffffffffffffff9091166004820152602401602060405180830381865afa1580156106e6573d6000803e3d6000fd5b505050506040513d601f19601f8201168201806040525081019061070a9190611606565b61077157610718898061156d565b6107269060208101906114ff565b6040517f9ac2720600000000000000000000000000000000000000000000000000000000815273ffffffffffffffffffffffffffffffffffffffff909116600482015260240161053e565b5050600154604080516020810190915260008152987401000000000000000000000000000000000000000090910460ff16975095505050505050565b60007f8f0e66ee30211ca069424cd4b533ee66f04c45421216c1a6601cf23359c1f7f860018101546040517fa230c52400000000000000000000000000000000000000000000000000000000815233600482015291925073ffffffffffffffffffffffffffffffffffffffff169063a230c52490602401602060405180830381865afa158015610841573d6000803e3d6000fd5b505050506040513d601f19601f820116820180604052508101906108659190611606565b61089b576040517f5353280000000000000000000000000000000000000000000000000000000000815260040160405180910390fd5b6000546040517ff3fef3a300000000000000000000000000000000000000000000000000000000815273ffffffffffffffffffffffffffffffffffffffff8481166004830152602482018690529091169063f3fef3a390604401600060405180830381600087803b15801561090f57600080fd5b505af1158015610923573d6000803e3d6000fd5b50505050505050565b60005473ffffffffffffffffffffffffffffffffffffffff16331461097d576040517f1cb1a41200000000000000000000000000000000000000000000000000000000815260040160405180910390fd5b5050505050565b60007f8f0e66ee30211ca069424cd4b533ee66f04c45421216c1a6601cf23359c1f7f860018101546040517fa230c52400000000000000000000000000000000000000000000000000000000815233600482015291925073ffffffffffffffffffffffffffffffffffffffff169063a230c52490602401602060405180830381865afa158015610a18573d6000803e3d6000fd5b505050506040513d601f19601f82011682018060405250810190610a3c9190611606565b610a72576040517f5353280000000000000000000000000000000000000000000000000000000000815260040160405180910390fd5b6040517f01ffc9a70000000000000000000000000000000000000000000000000000000081527fe9fb30f700000000000000000000000000000000000000000000000000000000600482015273ffffffffffffffffffffffffffffffffffffffff8316906301ffc9a790602401602060405180830381865afa158015610afc573d6000803e3d6000fd5b505050506040513d601f19601f82011682018060405250810190610b209190611606565b610b86576040517f216bf93000000000000000000000000000000000000000000000000000000000815260206004820152600960248201527f4952656c61794875620000000000000000000000000000000000000000000000604482015260640161053e565b50600080547fffffffffffffffffffffffff00000000000000000000000000000000000000001673ffffffffffffffffffffffffffffffffffffffff92909216919091179055565b60606040518060600160405280602c8152602001611675602c9139905090565b610c196040518060800160405280600081526020016000815260200160008152602001600081525090565b604051806080016040528061c350620186a0610c359190611623565b8152602001620186a081526020016201adb08152602001612904815250905090565b60005473ffffffffffffffffffffffffffffffffffffffff16610ca6576040517f643f8b1f00000000000000000000000000000000000000000000000000000000815260040160405180910390fd5b6000546040517faa67c91900000000000000000000000000000000000000000000000000000000815230600482015273ffffffffffffffffffffffffffffffffffffffff9091169063aa67c9199034906024016000604051808303818588803b158015610d1257600080fd5b505af115801561097d573d6000803e3d6000fd5b60007f8f0e66ee30211ca069424cd4b533ee66f04c45421216c1a6601cf23359c1f7f860018101546040517fa230c52400000000000000000000000000000000000000000000000000000000815233600482015291925073ffffffffffffffffffffffffffffffffffffffff169063a230c52490602401602060405180830381865afa158015610dba573d6000803e3d6000fd5b505050506040513d601f19601f82011682018060405250810190610dde9190611606565b610e14576040517f5353280000000000000000000000000000000000000000000000000000000000815260040160405180910390fd5b6040517f01ffc9a70000000000000000000000000000000000000000000000000000000081527f25e23e6400000000000000000000000000000000000000000000000000000000600482015273ffffffffffffffffffffffffffffffffffffffff8316906301ffc9a790602401602060405180830381865afa158015610e9e573d6000803e3d6000fd5b505050506040513d601f19601f82011682018060405250810190610ec29190611606565b610f28576040517f216bf93000000000000000000000000000000000000000000000000000000000815260206004820152600a60248201527f49466f7277617264657200000000000000000000000000000000000000000000604482015260640161053e565b50600180547fffffffffffffffffffffffff00000000000000000000000000000000000000001673ffffffffffffffffffffffffffffffffffffffff92909216919091179055565b610f7f61c350620186a0611623565b81565b600080610f8f838061156d565b610fa09060408101906020016114ff565b73ffffffffffffffffffffffffffffffffffffffff167f572b6c0500000000000000000000000000000000000000000000000000000000610fe4602086018661152f565b610ff59060c081019060a0016114ff565b60405173ffffffffffffffffffffffffffffffffffffffff9091166024820152604401604080517fffffffffffffffffffffffffffffffffffffffffffffffffffffffffffffffe08184030181529181526020820180517bffffffffffffffffffffffffffffffffffffffffffffffffffffffff167fffffffff000000000000000000000000000000000000000000000000000000009094169390931790925290516110a19190611662565b600060405180830381855afa9150503d80600081146110dc576040519150601f19603f3d011682016040523d82523d6000602084013e6110e1565b606091505b50915091508161114d576040517f08c379a000000000000000000000000000000000000000000000000000000000815260206004820152601c60248201527f697354727573746564466f727761726465723a20726576657274656400000000604482015260640161053e565b80516020146111b8576040517f08c379a000000000000000000000000000000000000000000000000000000000815260206004820181905260248201527f697354727573746564466f727761726465723a2062616420726573706f6e7365604482015260640161053e565b808060200190518101906111cc9190611606565b611232576040517f08c379a000000000000000000000000000000000000000000000000000000000815260206004820152601f60248201527f696e76616c696420666f7277617264657220666f7220726563697069656e7400604482015260640161053e565b505050565b60008083601f84011261124957600080fd5b50813567ffffffffffffffff81111561126157600080fd5b60208301915083602082850101111561127957600080fd5b9250929050565b6000806000806000806080878903121561129957600080fd5b863567ffffffffffffffff808211156112b157600080fd5b908801906040828b0312156112c557600080fd5b909650602088013590808211156112db57600080fd5b6112e78a838b01611237565b9097509550604089013591508082111561130057600080fd5b5061130d89828a01611237565b979a9699509497949695606090950135949350505050565b60005b83811015611340578181015183820152602001611328565b8381111561134f576000848401525b50505050565b6000815180845261136d816020860160208601611325565b601f017fffffffffffffffffffffffffffffffffffffffffffffffffffffffffffffffe0169290920160200192915050565b6040815260006113b26040830185611355565b905082151560208301529392505050565b6000602082840312156113d557600080fd5b81357fffffffff000000000000000000000000000000000000000000000000000000008116811461140557600080fd5b9392505050565b73ffffffffffffffffffffffffffffffffffffffff8116811461142e57600080fd5b50565b6000806040838503121561144457600080fd5b8235915060208301356114568161140c565b809150509250929050565b801515811461142e57600080fd5b60008060008060006080868803121561148757600080fd5b853567ffffffffffffffff8082111561149f57600080fd5b6114ab89838a01611237565b9097509550602088013591506114c082611461565b90935060408701359250606087013590808211156114dd57600080fd5b50860161010081890312156114f157600080fd5b809150509295509295909350565b60006020828403121561151157600080fd5b81356114058161140c565b6020815260006114056020830184611355565b600082357fffffffffffffffffffffffffffffffffffffffffffffffffffffffffffffff0183360301811261156357600080fd5b9190910192915050565b600082357fffffffffffffffffffffffffffffffffffffffffffffffffffffffffffffff2183360301811261156357600080fd5b60008083357fffffffffffffffffffffffffffffffffffffffffffffffffffffffffffffffe18436030181126115d657600080fd5b83018035915067ffffffffffffffff8211156115f157600080fd5b60200191503681900382131561127957600080fd5b60006020828403121561161857600080fd5b815161140581611461565b6000821982111561165d577f4e487b7100000000000000000000000000000000000000000000000000000000600052601160045260246000fd5b500190565b6000825161156381846020870161132556fe332e302e302d626574612e31302b6f70656e67736e2e746f6b656e7370686572652e697061796d6173746572a2646970667358221220eb2e1e8c47412b71c7da55aa182c8d58943ffb96d3e92f0d0b6fe7d67908c5c264736f6c634300080a0033",
  "devdoc": {
    "kind": "dev",
    "methods": {
      "getGasAndDataLimits()": {
        "returns": {
          "limits": "An instance of the `GasAndDataLimits` struct ##### `acceptanceBudget` If the transactions consumes more than `acceptanceBudget` this Paymaster will be charged for gas no matter what. Transaction that gets rejected after consuming more than `acceptanceBudget` gas is on this Paymaster's expense. Should be set to an amount gas this Paymaster expects to spend deciding whether to accept or reject a request. This includes gas consumed by calculations in the `preRelayedCall`, `Forwarder` and the recipient contract. :warning: **Warning** :warning: As long this value is above `preRelayedCallGasLimit` (see defaults in `BasePaymaster`), the Paymaster is guaranteed it will never pay for rejected transactions. If this value is below `preRelayedCallGasLimit`, it might might make Paymaster open to a \"griefing\" attack. The relayers should prefer lower `acceptanceBudget`, as it improves their chances of being compensated. From a Relay's point of view, this is the highest gas value a bad Paymaster may cost the relay, since the paymaster will pay anything above that value regardless of whether the transaction succeeds or reverts. Specifying value too high might make the call rejected by relayers (see `maxAcceptanceBudget` in server config). ##### `preRelayedCallGasLimit` The max gas usage of preRelayedCall. Any revert of the `preRelayedCall` is a request rejection by the paymaster. As long as `acceptanceBudget` is above `preRelayedCallGasLimit`, any such revert is not payed by the paymaster. ##### `postRelayedCallGasLimit` The max gas usage of postRelayedCall. The Paymaster is not charged for the maximum, only for actually used gas. Note that an OOG will revert the inner transaction, but the paymaster will be charged for it anyway."
        }
      },
      "getRelayHub()": {
        "returns": {
          "_0": "The address of the `RelayHub` that is trusted by this Paymaster to execute the requests."
        }
      },
      "getTrustedForwarder()": {
        "returns": {
          "_0": "The address of the `Forwarder` that is trusted by this Paymaster to execute the requests."
        }
      },
      "postRelayedCall(bytes,bool,uint256,(uint256,uint256,uint256,address,address,address,bytes,uint256))": {
        "params": {
          "context": "The call context, as returned by the preRelayedCall",
          "gasUseWithoutPost": "The actual amount of gas used by the entire transaction, EXCEPT        the gas used by the postRelayedCall itself.",
          "relayData": "The relay params of the request. can be used by relayHub.calculateCharge()",
          "success": "`true` if the relayed call succeeded, false if it reverted"
        }
      },
      "preRelayedCall(((address,address,uint256,uint256,uint256,bytes,uint256),(uint256,uint256,uint256,address,address,address,bytes,uint256)),bytes,bytes,uint256)": {
        "params": {
          "approvalData": "- extra dapp-specific data (e.g. signature from trusted party)",
          "maxPossibleGas": "- based on values returned from `getGasAndDataLimits` the RelayHub will calculate the maximum possible amount of gas the user may be charged for. In order to convert this value to wei, the Paymaster has to call \"relayHub.calculateCharge()\"",
          "relayRequest": "- the full relay request structure",
          "signature": "- user's EIP712-compatible signature of the `relayRequest`. Note that in most cases the paymaster shouldn't try use it at all. It is always checked by the forwarder immediately after preRelayedCall returns."
        },
        "returns": {
          "_0": "A byte array to be passed to postRelayedCall. Can contain any data needed by this Paymaster in any form or be empty if no extra data is needed.",
          "_1": "The flag that allows a Paymaster to \"delegate\" the rejection to the recipient code. It also means the Paymaster trust the recipient to reject fast: both preRelayedCall, forwarder check and recipient checks must fit into the GasLimits.acceptanceBudget, otherwise the TX is paid by the Paymaster. `true` if the Paymaster wants to reject the TX if the recipient reverts. `false` if the Paymaster wants rejects by the recipient to be completed on chain and paid by the Paymaster."
        }
      },
      "setRelayHub(address)": {
        "params": {
          "hub": "The address of the new RelayHub."
        }
      },
      "setTrustedForwarder(address)": {
        "params": {
          "forwarder": "The address of the new Forwarder."
        }
      },
      "supportsInterface(bytes4)": {
        "details": "Returns true if this contract implements the interface defined by `interfaceId`. See the corresponding https://eips.ethereum.org/EIPS/eip-165#how-interfaces-are-identified[EIP section] to learn more about how these ids are created. This function call must use less than 30 000 gas."
      },
      "versionPaymaster()": {
        "returns": {
          "_0": "version The SemVer string of this Paymaster's version."
        }
      },
      "withdrawRelayHubDepositTo(uint256,address)": {
        "params": {
          "amount": "The amount to be subtracted from the sender.",
          "target": "The target to which the amount will be transferred."
        }
      }
    },
    "version": 1
  },
  "userdoc": {
    "kind": "user",
    "methods": {
      "deposit()": {
        "notice": "Deposit Ether/MATIC on behalf of the Paymaster to the RelayHub."
      },
      "getGasAndDataLimits()": {
        "notice": "Return the Gas Limits for Paymaster's functions and maximum msg.data length values for this Paymaster. This function allows different paymasters to have different properties without changes to the RelayHub."
      },
      "getTrustedForwarder()": {
        "notice": ":warning: **Warning** :warning: using incorrect Forwarder may cause the Paymaster to agreeing to pay for invalid transactions."
      },
      "postRelayedCall(bytes,bool,uint256,(uint256,uint256,uint256,address,address,address,bytes,uint256))": {
        "notice": "This method is called after the actual relayed function call. It may be used to record the transaction (e.g. charge the caller by some contract logic) for this call. Revert in this functions causes a revert of the client's relayed call (and preRelayedCall(), but the Paymaster is still committed to pay the relay for the entire transaction."
      },
      "preRelayedCall(((address,address,uint256,uint256,uint256,bytes,uint256),(uint256,uint256,uint256,address,address,address,bytes,uint256)),bytes,bytes,uint256)": {
        "notice": "Called by the Relay in view mode and later by the `RelayHub` on-chain to validate that the Paymaster agrees to pay for this call. The request is considered to be rejected by the Paymaster in one of the following conditions:  - `preRelayedCall()` method reverts  - the `Forwarder` reverts because of nonce or signature error  - the `Paymaster` returned `rejectOnRecipientRevert: true` and the recipient contract reverted    (and all that did not consume more than `acceptanceBudget` gas). In any of the above cases, all Paymaster calls and the recipient call are reverted. In any other case the Paymaster will pay for the gas cost of the transaction. Note that even if `postRelayedCall` is reverted the Paymaster will be charged."
      },
      "setRelayHub(address)": {
        "notice": "The owner of the Paymaster can change the instance of the RelayHub this Paymaster works with.         **Warning** The deposit on the previous RelayHub must be withdrawn first."
      },
      "setTrustedForwarder(address)": {
        "notice": "The owner of the Paymaster can change the instance of the Forwarder this Paymaster works with.         the Recipients must trust this Forwarder as well in order for the configuration to remain functional."
      },
      "withdrawRelayHubDepositTo(uint256,address)": {
        "notice": "Withdraw deposit from the RelayHub."
      }
    },
    "notice": "The top-level Paymaster contract. Note this is an \"unwrapped\" version of `BasePaymaster.sol` from the OpenGSN repo. Original license: GPL-3.0-only.",
    "version": 1
  },
  "storageLayout": {
    "storage": [
      {
        "astId": 13131,
        "contract": "contracts/paymaster/PaymasterTopFacet.sol:PaymasterTopFacet",
        "label": "relayHub",
        "offset": 0,
        "slot": "0",
        "type": "t_contract(IRelayHub)557"
      },
      {
        "astId": 13133,
        "contract": "contracts/paymaster/PaymasterTopFacet.sol:PaymasterTopFacet",
        "label": "trustedForwarder",
        "offset": 0,
        "slot": "1",
        "type": "t_address"
      },
      {
        "astId": 13136,
        "contract": "contracts/paymaster/PaymasterTopFacet.sol:PaymasterTopFacet",
        "label": "useRejectOnRecipientRevert",
        "offset": 20,
        "slot": "1",
        "type": "t_bool"
      }
    ],
    "types": {
      "t_address": {
        "encoding": "inplace",
        "label": "address",
        "numberOfBytes": "20"
      },
      "t_bool": {
        "encoding": "inplace",
        "label": "bool",
        "numberOfBytes": "1"
      },
      "t_contract(IRelayHub)557": {
        "encoding": "inplace",
        "label": "contract IRelayHub",
        "numberOfBytes": "20"
      }
    }
  }
}