{
  "address": "0xC8f0B2401Ef91f652035065Dd613D0C1d82E2689",
  "abi": [
    {
      "anonymous": false,
      "inputs": [
        {
          "indexed": true,
          "internalType": "address",
          "name": "member",
          "type": "address"
        }
      ],
      "name": "MemberActivated",
      "type": "event"
    },
    {
      "anonymous": false,
      "inputs": [
        {
          "indexed": true,
          "internalType": "address",
          "name": "member",
          "type": "address"
        }
      ],
      "name": "MemberAdded",
      "type": "event"
    },
    {
      "anonymous": false,
      "inputs": [
        {
          "indexed": true,
          "internalType": "address",
          "name": "member",
          "type": "address"
        }
      ],
      "name": "MemberDeactivated",
      "type": "event"
    },
    {
      "anonymous": false,
      "inputs": [
        {
          "indexed": true,
          "internalType": "address",
          "name": "member",
          "type": "address"
        }
      ],
      "name": "MemberRemoved",
      "type": "event"
    },
    {
      "inputs": [
        {
          "components": [
            {
              "internalType": "address",
              "name": "spc",
              "type": "address"
            }
          ],
          "internalType": "struct ExchangeInitFacet.InitializerParams",
          "name": "params",
          "type": "tuple"
        }
      ],
      "name": "initialize",
      "outputs": [],
      "stateMutability": "nonpayable",
      "type": "function"
    }
  ],
  "transactionHash": "0x0b7dc138626ed690d7cd58129a188cad8bb5e94f0e28458f5eb2458415c91268",
  "args": [],
  "numDeployments": 1,
  "solcInputHash": "d76831fe40e36e5ba2cbb20807ac3791",
  "bytecode": "0x608060405234801561001057600080fd5b50610758806100206000396000f3fe608060405234801561001057600080fd5b506004361061002b5760003560e01c80638f09926d14610030575b600080fd5b61004a600480360381019061004591906105f5565b61004c565b005b736df2d25d8c6fd680730ee658b530a05a99bb769a73ffffffffffffffffffffffffffffffffffffffff163373ffffffffffffffffffffffffffffffffffffffff16146040518060400160405280600f81526020017f496e7465726e616c206d6574686f64000000000000000000000000000000000081525090610106576040517f08c379a00000000000000000000000000000000000000000000000000000000081526004016100fd9190610657565b60405180910390fd5b50600161ffff1661011561051f565b60000160009054906101000a900461ffff1661ffff16106040518060400160405280601381526020017f416c726561647920696e697469616c697a656400000000000000000000000000815250906101a3576040517f08c379a000000000000000000000000000000000000000000000000000000000815260040161019a9190610657565b60405180910390fd5b5060006101ae610547565b905060018160030160007f01ffc9a7000000000000000000000000000000000000000000000000000000007bffffffffffffffffffffffffffffffffffffffffffffffffffffffff19167bffffffffffffffffffffffffffffffffffffffffffffffffffffffff1916815260200190815260200160002060006101000a81548160ff02191690831515021790555060018160030160007f7f5828d0000000000000000000000000000000000000000000000000000000007bffffffffffffffffffffffffffffffffffffffffffffffffffffffff19167bffffffffffffffffffffffffffffffffffffffffffffffffffffffff1916815260200190815260200160002060006101000a81548160ff02191690831515021790555060018160030160007f1f931c1c000000000000000000000000000000000000000000000000000000007bffffffffffffffffffffffffffffffffffffffffffffffffffffffff19167bffffffffffffffffffffffffffffffffffffffffffffffffffffffff1916815260200190815260200160002060006101000a81548160ff02191690831515021790555060018160030160007f48e2b093000000000000000000000000000000000000000000000000000000007bffffffffffffffffffffffffffffffffffffffffffffffffffffffff19167bffffffffffffffffffffffffffffffffffffffffffffffffffffffff1916815260200190815260200160002060006101000a81548160ff02191690831515021790555060018160030160007fb4bb4f46000000000000000000000000000000000000000000000000000000007bffffffffffffffffffffffffffffffffffffffffffffffffffffffff19167bffffffffffffffffffffffffffffffffffffffffffffffffffffffff1916815260200190815260200160002060006101000a81548160ff021916908315150217905550600061047661051f565b905060018160000160006101000a81548161ffff021916908361ffff1602179055508260000160208101906104ab91906105cc565b8160000160026101000a81548173ffffffffffffffffffffffffffffffffffffffff021916908373ffffffffffffffffffffffffffffffffffffffff16021790555060006104f7610574565b905060018160000160006101000a81548161ffff021916908361ffff16021790555050505050565b60007f58cca9481e011ced58c1d520ef5aad456e5805265d66de8df7c52f680c417394905090565b6000807fc8fcad8db84d3cc18b4c41d551ea0ee66dd599cde068d998e57d5e09332c131c90508091505090565b60007f238f5ead2481aef1ec60acdfe5b3de34c076d0a86bb41e30c913f5f3885d7c47905090565b6000813590506105ab8161070b565b92915050565b6000602082840312156105c357600080fd5b81905092915050565b6000602082840312156105de57600080fd5b60006105ec8482850161059c565b91505092915050565b60006020828403121561060757600080fd5b6000610615848285016105b1565b91505092915050565b600061062982610679565b6106338185610684565b93506106438185602086016106c7565b61064c816106fa565b840191505092915050565b60006020820190508181036000830152610671818461061e565b905092915050565b600081519050919050565b600082825260208201905092915050565b60006106a0826106a7565b9050919050565b600073ffffffffffffffffffffffffffffffffffffffff82169050919050565b60005b838110156106e55780820151818401526020810190506106ca565b838111156106f4576000848401525b50505050565b6000601f19601f8301169050919050565b61071481610695565b811461071f57600080fd5b5056fea2646970667358221220b5c08356f3030ac23130e041fbbded9d18b58c72c0b087194a8a2b4f68a849da64736f6c63430008040033",
  "devdoc": {
    "details": "The Exchange initialization facet.",
    "kind": "dev",
    "methods": {},
    "version": 1
  },
  "userdoc": {
    "kind": "user",
    "methods": {},
    "version": 1
  },
  "storageLayout": {
    "storage": [],
    "types": null
  }
}