{
  "address": "0xe42d89f64c87A9F0b9E0b452B62351C1ef3655Ce",
  "abi": [
    {
      "inputs": [],
      "name": "InternalMethod",
      "type": "error"
    },
    {
      "anonymous": false,
      "inputs": [
        {
          "indexed": true,
          "internalType": "address",
          "name": "owner",
          "type": "address"
        },
        {
          "indexed": true,
          "internalType": "address",
          "name": "spender",
          "type": "address"
        },
        {
          "indexed": false,
          "internalType": "uint256",
          "name": "value",
          "type": "uint256"
        }
      ],
      "name": "Approval",
      "type": "event"
    },
    {
      "anonymous": false,
      "inputs": [
        {
          "indexed": true,
          "internalType": "uint256",
          "name": "amount",
          "type": "uint256"
        },
        {
          "indexed": true,
          "internalType": "string",
          "name": "ref",
          "type": "string"
        }
      ],
      "name": "Burnt",
      "type": "event"
    },
    {
      "anonymous": false,
      "inputs": [
        {
          "indexed": false,
          "internalType": "bool",
          "name": "transfersDisabled",
          "type": "bool"
        },
        {
          "indexed": false,
          "internalType": "uint256",
          "name": "memberCount",
          "type": "uint256"
        },
        {
          "indexed": false,
          "internalType": "uint256",
          "name": "governorCount",
          "type": "uint256"
        },
        {
          "indexed": false,
          "internalType": "uint256",
          "name": "totalSupply",
          "type": "uint256"
        },
        {
          "indexed": false,
          "internalType": "uint256",
          "name": "reserveBalance",
          "type": "uint256"
        },
        {
          "indexed": false,
          "internalType": "uint256",
          "name": "ethBalance",
          "type": "uint256"
        }
      ],
      "name": "DetailsChanged",
      "type": "event"
    },
    {
      "anonymous": false,
      "inputs": [
        {
          "indexed": true,
          "internalType": "address",
          "name": "owner",
          "type": "address"
        },
        {
          "indexed": true,
          "internalType": "address",
          "name": "spender",
          "type": "address"
        },
        {
          "indexed": false,
          "internalType": "uint256",
          "name": "value",
          "type": "uint256"
        }
      ],
      "name": "Disapproval",
      "type": "event"
    },
    {
      "anonymous": false,
      "inputs": [
        {
          "indexed": true,
          "internalType": "address",
          "name": "governor",
          "type": "address"
        }
      ],
      "name": "GovernorAdded",
      "type": "event"
    },
    {
      "anonymous": false,
      "inputs": [
        {
          "indexed": true,
          "internalType": "address",
          "name": "governor",
          "type": "address"
        }
      ],
      "name": "GovernorRemoved",
      "type": "event"
    },
    {
      "anonymous": false,
      "inputs": [
        {
          "indexed": true,
          "internalType": "address",
          "name": "member",
          "type": "address"
        }
      ],
      "name": "MemberAdded",
      "type": "event"
    },
    {
      "anonymous": false,
      "inputs": [
        {
          "indexed": true,
          "internalType": "address",
          "name": "member",
          "type": "address"
        }
      ],
      "name": "MemberRemoved",
      "type": "event"
    },
    {
      "anonymous": false,
      "inputs": [
        {
          "indexed": true,
          "internalType": "uint256",
          "name": "amount",
          "type": "uint256"
        },
        {
          "indexed": true,
          "internalType": "string",
          "name": "ref",
          "type": "string"
        }
      ],
      "name": "Minted",
      "type": "event"
    },
    {
      "anonymous": false,
      "inputs": [
        {
          "indexed": true,
          "internalType": "address",
          "name": "from",
          "type": "address"
        },
        {
          "indexed": true,
          "internalType": "address",
          "name": "to",
          "type": "address"
        },
        {
          "indexed": false,
          "internalType": "uint256",
          "name": "value",
          "type": "uint256"
        }
      ],
      "name": "Transfer",
      "type": "event"
    },
    {
      "inputs": [
        {
          "internalType": "address",
          "name": "governor",
          "type": "address"
        }
      ],
      "name": "detailedGovernor",
      "outputs": [
        {
          "components": [
            {
              "internalType": "address",
              "name": "addr",
              "type": "address"
            },
            {
              "internalType": "uint256",
              "name": "ethBalance",
              "type": "uint256"
            },
            {
              "internalType": "bool",
              "name": "isMember",
              "type": "bool"
            }
          ],
          "internalType": "struct FastFrontendFacet.GovernorDetails",
          "name": "",
          "type": "tuple"
        }
      ],
      "stateMutability": "view",
      "type": "function"
    },
    {
      "inputs": [
        {
          "internalType": "address",
          "name": "member",
          "type": "address"
        }
      ],
      "name": "detailedMember",
      "outputs": [
        {
          "components": [
            {
              "internalType": "address",
              "name": "addr",
              "type": "address"
            },
            {
              "internalType": "uint256",
              "name": "balance",
              "type": "uint256"
            },
            {
              "internalType": "uint256",
              "name": "ethBalance",
              "type": "uint256"
            },
            {
              "internalType": "bool",
              "name": "isGovernor",
              "type": "bool"
            }
          ],
          "internalType": "struct FastFrontendFacet.MemberDetails",
          "name": "",
          "type": "tuple"
        }
      ],
      "stateMutability": "view",
      "type": "function"
    },
    {
      "inputs": [],
      "name": "details",
      "outputs": [
        {
          "components": [
            {
              "internalType": "address",
              "name": "addr",
              "type": "address"
            },
            {
              "internalType": "string",
              "name": "name",
              "type": "string"
            },
            {
              "internalType": "string",
              "name": "symbol",
              "type": "string"
            },
            {
              "internalType": "uint8",
              "name": "decimals",
              "type": "uint8"
            },
            {
              "internalType": "uint256",
              "name": "totalSupply",
              "type": "uint256"
            },
            {
              "internalType": "bool",
              "name": "isSemiPublic",
              "type": "bool"
            },
            {
              "internalType": "bool",
              "name": "hasFixedSupply",
              "type": "bool"
            },
            {
              "internalType": "bool",
              "name": "transfersDisabled",
              "type": "bool"
            },
            {
              "internalType": "uint256",
              "name": "reserveBalance",
              "type": "uint256"
            },
            {
              "internalType": "uint256",
              "name": "ethBalance",
              "type": "uint256"
            },
            {
              "internalType": "uint256",
              "name": "memberCount",
              "type": "uint256"
            },
            {
              "internalType": "uint256",
              "name": "governorCount",
              "type": "uint256"
            }
          ],
          "internalType": "struct FastFrontendFacet.Details",
          "name": "",
          "type": "tuple"
        }
      ],
      "stateMutability": "view",
      "type": "function"
    },
    {
      "inputs": [],
      "name": "emitDetailsChanged",
      "outputs": [],
      "stateMutability": "nonpayable",
      "type": "function"
    },
    {
      "inputs": [
        {
          "internalType": "uint256",
          "name": "index",
          "type": "uint256"
        },
        {
          "internalType": "uint256",
          "name": "perPage",
          "type": "uint256"
        }
      ],
      "name": "paginateDetailedGovernors",
      "outputs": [
        {
          "components": [
            {
              "internalType": "address",
              "name": "addr",
              "type": "address"
            },
            {
              "internalType": "uint256",
              "name": "ethBalance",
              "type": "uint256"
            },
            {
              "internalType": "bool",
              "name": "isMember",
              "type": "bool"
            }
          ],
          "internalType": "struct FastFrontendFacet.GovernorDetails[]",
          "name": "",
          "type": "tuple[]"
        },
        {
          "internalType": "uint256",
          "name": "",
          "type": "uint256"
        }
      ],
      "stateMutability": "view",
      "type": "function"
    },
    {
      "inputs": [
        {
          "internalType": "uint256",
          "name": "index",
          "type": "uint256"
        },
        {
          "internalType": "uint256",
          "name": "perPage",
          "type": "uint256"
        }
      ],
      "name": "paginateDetailedMembers",
      "outputs": [
        {
          "components": [
            {
              "internalType": "address",
              "name": "addr",
              "type": "address"
            },
            {
              "internalType": "uint256",
              "name": "balance",
              "type": "uint256"
            },
            {
              "internalType": "uint256",
              "name": "ethBalance",
              "type": "uint256"
            },
            {
              "internalType": "bool",
              "name": "isGovernor",
              "type": "bool"
            }
          ],
          "internalType": "struct FastFrontendFacet.MemberDetails[]",
          "name": "",
          "type": "tuple[]"
        },
        {
          "internalType": "uint256",
          "name": "",
          "type": "uint256"
        }
      ],
      "stateMutability": "view",
      "type": "function"
    }
  ],
  "transactionHash": "0x25c647d08698c892d4960a6963ef01d5b2fe357b19314b5eafb10b1c067e4252",
  "args": [],
  "numDeployments": 5,
  "solcInputHash": "47776ae11ad8fcc9355c08d2890d1979",
  "bytecode": "0x608060405234801561001057600080fd5b50610fc0806100206000396000f3fe608060405234801561001057600080fd5b50600436106100725760003560e01c806388a915241161005057806388a91524146100bf57806398d55d68146100df5780639f4c440b1461010057600080fd5b80634f2274c014610077578063565974d314610081578063677d9a681461009f575b600080fd5b61007f610121565b005b6100896102ea565b6040516100969190610b84565b60405180910390f35b6100b26100ad366004610c94565b6105f0565b6040516100969190610cd1565b6100d26100cd366004610c94565b61066d565b6040516100969190610d0a565b6100f26100ed366004610d4d565b610740565b604051610096929190610d6f565b61011361010e366004610d4d565b610861565b604051610096929190610def565b33301461015a576040517f12e9ad3300000000000000000000000000000000000000000000000000000000815260040160405180910390fd5b7f80c187ea6f955fd624c41fb7a18011cc87d98c6f4c06d897b59142f65707e706547f87ed8063ac9ead3b2eb7551ed3d89b29fcbf44d6733084b5c82e95d5120ece9e547f87ed8063ac9ead3b2eb7551ed3d89b29fcbf44d6733084b5c82e95d5120ece9c547fb098747b87c5c0e2a32eb9b06725e9bad4263809bcda628ceadc1a686bcb826554600080527fb098747b87c5c0e2a32eb9b06725e9bad4263809bcda628ceadc1a686bcb826760209081527f46c1c84a085e09f9e9a4265c25fbada4be722ba2683afd74e0ddd9e11b58aaa9546040805176010000000000000000000000000000000000000000000090970460ff1615158752918601949094528481019290925260608401526080830191909152303160a0830152517f87ed8063ac9ead3b2eb7551ed3d89b29fcbf44d6733084b5c82e95d5120ece9a917fb098747b87c5c0e2a32eb9b06725e9bad4263809bcda628ceadc1a686bcb8261917f59e5927a7b608a245cdd6689f7334b92ae80e151dcd9a1b08c77bb17aeee20a39160c0908290030190a15050565b61036d604051806101800160405280600073ffffffffffffffffffffffffffffffffffffffff1681526020016060815260200160608152602001600060ff16815260200160008152602001600015158152602001600015158152602001600015158152602001600081526020016000815260200160008152602001600081525090565b6040805161018081019091523081527fb098747b87c5c0e2a32eb9b06725e9bad4263809bcda628ceadc1a686bcb826280547f80c187ea6f955fd624c41fb7a18011cc87d98c6f4c06d897b59142f65707e705927f87ed8063ac9ead3b2eb7551ed3d89b29fcbf44d6733084b5c82e95d5120ece9a927fb098747b87c5c0e2a32eb9b06725e9bad4263809bcda628ceadc1a686bcb82619260208301919061041490610e7a565b80601f016020809104026020016040519081016040528092919081815260200182805461044090610e7a565b801561048d5780601f106104625761010080835404028352916020019161048d565b820191906000526020600020905b81548152906001019060200180831161047057829003601f168201915b505050505081526020018260020180546104a690610e7a565b80601f01602080910402602001604051908101604052809291908181526020018280546104d290610e7a565b801561051f5780601f106104f45761010080835404028352916020019161051f565b820191906000526020600020905b81548152906001019060200180831161050257829003601f168201915b5050509183525050600383015460ff90811660208084019190915260048086015460408086019190915260019890980154750100000000000000000000000000000000000000000081048416151560608601527401000000000000000000000000000000000000000081048416151560808601527601000000000000000000000000000000000000000000009004909216151560a0840152600080805260069095019052949092205460c0830152303160e08301529282015461010082015260029091015461012090910152919050565b604080516060808201835260008083526020808401829052838501919091528351918201845273ffffffffffffffffffffffffffffffffffffffff85168083523190820152909181016106637f87ed8063ac9ead3b2eb7551ed3d89b29fcbf44d6733084b5c82e95d5120ece9d8561097a565b1515905292915050565b60408051608081018252600080825260208201819052918101829052606081019190915260405180608001604052808373ffffffffffffffffffffffffffffffffffffffff1681526020016106df7fb098747b87c5c0e2a32eb9b06725e9bad4263809bcda628ceadc1a686bcb826190565b73ffffffffffffffffffffffffffffffffffffffff851660008181526006929092016020908152604092839020548452903190830152016106637f87ed8063ac9ead3b2eb7551ed3d89b29fcbf44d6733084b5c82e95d5120ece9b8561097a565b6060600080806107717f87ed8063ac9ead3b2eb7551ed3d89b29fcbf44d6733084b5c82e95d5120ece9c87876109f8565b915091506000825167ffffffffffffffff81111561079157610791610ece565b6040519080825280602002602001820160405280156107fa57816020015b60408051606081018252600080825260208083018290529282015282527fffffffffffffffffffffffffffffffffffffffffffffffffffffffffffffffff9092019101816107af5790505b50835190915060005b818110156108525761082d85828151811061082057610820610efd565b60200260200101516105f0565b83828151811061083f5761083f610efd565b6020908102919091010152600101610803565b50909791965090945050505050565b6060600080806108927f87ed8063ac9ead3b2eb7551ed3d89b29fcbf44d6733084b5c82e95d5120ece9e87876109f8565b915091506000825167ffffffffffffffff8111156108b2576108b2610ece565b60405190808252806020026020018201604052801561092257816020015b6040805160808101825260008082526020808301829052928201819052606082015282527fffffffffffffffffffffffffffffffffffffffffffffffffffffffffffffffff9092019101816108d05790505b50835190915060005b818110156108525761095585828151811061094857610948610efd565b602002602001015161066d565b83828151811061096757610967610efd565b602090810291909101015260010161092b565b6001820154600090156109ec5773ffffffffffffffffffffffffffffffffffffffff821660008181526020859052604090205460018501805490919081106109c4576109c4610efd565b60009182526020909120015473ffffffffffffffffffffffffffffffffffffffff16146109ef565b60005b90505b92915050565b6060600080848680549050610a0d9190610f5b565b8411610a195783610a26565b8554610a26908690610f5b565b905060008167ffffffffffffffff811115610a4357610a43610ece565b604051908082528060200260200182016040528015610a6c578160200160208202803683370190505b50905060005b82811015610aff5787610a858289610f72565b81548110610a9557610a95610efd565b9060005260206000200160009054906101000a900473ffffffffffffffffffffffffffffffffffffffff16828281518110610ad257610ad2610efd565b73ffffffffffffffffffffffffffffffffffffffff90921660209283029190910190910152600101610a72565b5080610b0b8388610f72565b935093505050935093915050565b6000815180845260005b81811015610b3f57602081850181015186830182015201610b23565b81811115610b51576000602083870101525b50601f017fffffffffffffffffffffffffffffffffffffffffffffffffffffffffffffffe0169290920160200192915050565b60208152610bab60208201835173ffffffffffffffffffffffffffffffffffffffff169052565b60006020830151610180806040850152610bc96101a0850183610b19565b915060408501517fffffffffffffffffffffffffffffffffffffffffffffffffffffffffffffffe0858403016060860152610c048382610b19565b9250506060850151610c1b608086018260ff169052565b50608085015160a085015260a0850151610c3960c086018215159052565b5060c085015180151560e08601525060e0850151610100610c5d8187018315159052565b8601516101208681019190915286015161014080870191909152860151610160808701919091529095015193019290925250919050565b600060208284031215610ca657600080fd5b813573ffffffffffffffffffffffffffffffffffffffff81168114610cca57600080fd5b9392505050565b815173ffffffffffffffffffffffffffffffffffffffff16815260208083015190820152604080830151151590820152606081016109f2565b815173ffffffffffffffffffffffffffffffffffffffff1681526020808301519082015260408083015190820152606080830151151590820152608081016109f2565b60008060408385031215610d6057600080fd5b50508035926020909101359150565b60408082528351908201819052600090606090818401906020808801855b83811015610ddc57610dcc858351805173ffffffffffffffffffffffffffffffffffffffff168252602080820151908301526040908101511515910152565b9385019390820190600101610d8d565b5050949094019490945250919392505050565b604080825283519082018190526000906020906060840190828701845b82811015610e6b57610e5884835173ffffffffffffffffffffffffffffffffffffffff815116825260208101516020830152604081015160408301526060810151151560608301525050565b6080939093019290840190600101610e0c565b50505092019290925292915050565b600181811c90821680610e8e57607f821691505b60208210811415610ec8577f4e487b7100000000000000000000000000000000000000000000000000000000600052602260045260246000fd5b50919050565b7f4e487b7100000000000000000000000000000000000000000000000000000000600052604160045260246000fd5b7f4e487b7100000000000000000000000000000000000000000000000000000000600052603260045260246000fd5b7f4e487b7100000000000000000000000000000000000000000000000000000000600052601160045260246000fd5b600082821015610f6d57610f6d610f2c565b500390565b60008219821115610f8557610f85610f2c565b50019056fea26469706673582212205d9d1e28306f1c4eff8bdc4e35a805860b6af190ed9aca204f7665b7530f802664736f6c634300080a0033",
  "devdoc": {
    "kind": "dev",
    "methods": {
      "detailedGovernor(address)": {
        "returns": {
          "_0": "GovernorDetails See: `GovernorDetails`."
        }
      },
      "detailedMember(address)": {
        "returns": {
          "_0": "A FAST member's details, see `MemberDetails`."
        }
      },
      "details()": {
        "returns": {
          "_0": "The details for the current FAST, see `Details`."
        }
      }
    },
    "version": 1
  },
  "userdoc": {
    "events": {
      "Approval(address,address,uint256)": {
        "notice": "See `ERC20.Approval`."
      },
      "Burnt(uint256,string)": {
        "notice": "Emited whenever an burning happens in a FAST."
      },
      "DetailsChanged(bool,uint256,uint256,uint256,uint256,uint256)": {
        "notice": "This is an event that is fired whenever any of some of the FAST parameters change, so that the frontend can react to it and refresh the general header for that fast as well as the baseball cards in the FASTs list."
      },
      "Disapproval(address,address,uint256)": {
        "notice": "See `ERC20.Disapproval`."
      },
      "GovernorAdded(address)": {
        "notice": "Emited when a governor is added to the implementing contract."
      },
      "GovernorRemoved(address)": {
        "notice": "Emited when a governor is removed to the implementing contract."
      },
      "MemberAdded(address)": {
        "notice": "Emited when a member is added to the implementing contract."
      },
      "MemberRemoved(address)": {
        "notice": "Emited when a member is removed to the implementing contract."
      },
      "Minted(uint256,string)": {
        "notice": "Emited whenever an issuance happens in a FAST."
      },
      "Transfer(address,address,uint256)": {
        "notice": "See `ERC20.Transfer`."
      }
    },
    "kind": "user",
    "methods": {
      "detailedGovernor(address)": {
        "notice": "Gets detailed governor details."
      },
      "detailedMember(address)": {
        "notice": "Gets detailed member details."
      },
      "details()": {
        "notice": "Gets the details of a FAST."
      },
      "emitDetailsChanged()": {
        "notice": "Called by diamond facets, signals that FAST details may have changed.  Business logic: - Modifiers:   - Requires the caller to be another facet of the diamond. Emits `DetailsChanged`, see `IFastEvents.DetailsChanged`"
      }
    },
    "notice": "A facet dedicated to view / UI only methods. This facet should never hold any method that is not either `pure` or `view`, except to emit events.",
    "version": 1
  },
  "storageLayout": {
    "storage": [],
    "types": null
  }
}