{
  "address": "0xEC8eB2d58B55bC38B42b54a7fB918DE86e6dAE68",
  "abi": [
    {
      "anonymous": false,
      "inputs": [
        {
          "indexed": true,
          "internalType": "address",
          "name": "owner",
          "type": "address"
        },
        {
          "indexed": true,
          "internalType": "address",
          "name": "spender",
          "type": "address"
        },
        {
          "indexed": false,
          "internalType": "uint256",
          "name": "value",
          "type": "uint256"
        }
      ],
      "name": "Approval",
      "type": "event"
    },
    {
      "anonymous": false,
      "inputs": [
        {
          "indexed": true,
          "internalType": "uint256",
          "name": "amount",
          "type": "uint256"
        },
        {
          "indexed": true,
          "internalType": "string",
          "name": "ref",
          "type": "string"
        }
      ],
      "name": "Burnt",
      "type": "event"
    },
    {
      "anonymous": false,
      "inputs": [
        {
          "indexed": false,
          "internalType": "uint256",
          "name": "memberCount",
          "type": "uint256"
        },
        {
          "indexed": false,
          "internalType": "uint256",
          "name": "governorCount",
          "type": "uint256"
        },
        {
          "indexed": false,
          "internalType": "uint256",
          "name": "totalSupply",
          "type": "uint256"
        },
        {
          "indexed": false,
          "internalType": "uint256",
          "name": "transferCredits",
          "type": "uint256"
        },
        {
          "indexed": false,
          "internalType": "uint256",
          "name": "reserveBalance",
          "type": "uint256"
        },
        {
          "indexed": false,
          "internalType": "uint256",
          "name": "ethBalance",
          "type": "uint256"
        }
      ],
      "name": "DetailsChanged",
      "type": "event"
    },
    {
      "anonymous": false,
      "inputs": [
        {
          "indexed": true,
          "internalType": "address",
          "name": "owner",
          "type": "address"
        },
        {
          "indexed": true,
          "internalType": "address",
          "name": "spender",
          "type": "address"
        }
      ],
      "name": "Disapproval",
      "type": "event"
    },
    {
      "anonymous": false,
      "inputs": [
        {
          "indexed": true,
          "internalType": "address",
          "name": "to",
          "type": "address"
        },
        {
          "indexed": false,
          "internalType": "uint256",
          "name": "amount",
          "type": "uint256"
        }
      ],
      "name": "EthDrained",
      "type": "event"
    },
    {
      "anonymous": false,
      "inputs": [
        {
          "indexed": true,
          "internalType": "address",
          "name": "from",
          "type": "address"
        },
        {
          "indexed": false,
          "internalType": "uint256",
          "name": "amount",
          "type": "uint256"
        }
      ],
      "name": "EthReceived",
      "type": "event"
    },
    {
      "anonymous": false,
      "inputs": [
        {
          "indexed": true,
          "internalType": "address",
          "name": "governor",
          "type": "address"
        }
      ],
      "name": "GovernorAdded",
      "type": "event"
    },
    {
      "anonymous": false,
      "inputs": [
        {
          "indexed": true,
          "internalType": "address",
          "name": "governor",
          "type": "address"
        }
      ],
      "name": "GovernorRemoved",
      "type": "event"
    },
    {
      "anonymous": false,
      "inputs": [
        {
          "indexed": true,
          "internalType": "address",
          "name": "member",
          "type": "address"
        }
      ],
      "name": "MemberAdded",
      "type": "event"
    },
    {
      "anonymous": false,
      "inputs": [
        {
          "indexed": true,
          "internalType": "address",
          "name": "member",
          "type": "address"
        }
      ],
      "name": "MemberRemoved",
      "type": "event"
    },
    {
      "anonymous": false,
      "inputs": [
        {
          "indexed": true,
          "internalType": "uint256",
          "name": "amount",
          "type": "uint256"
        },
        {
          "indexed": true,
          "internalType": "string",
          "name": "ref",
          "type": "string"
        }
      ],
      "name": "Minted",
      "type": "event"
    },
    {
      "anonymous": false,
      "inputs": [
        {
          "indexed": true,
          "internalType": "address",
          "name": "from",
          "type": "address"
        },
        {
          "indexed": true,
          "internalType": "address",
          "name": "to",
          "type": "address"
        },
        {
          "indexed": false,
          "internalType": "uint256",
          "name": "value",
          "type": "uint256"
        }
      ],
      "name": "Transfer",
      "type": "event"
    },
    {
      "anonymous": false,
      "inputs": [
        {
          "indexed": true,
          "internalType": "address",
          "name": "spcMember",
          "type": "address"
        },
        {
          "indexed": false,
          "internalType": "uint256",
          "name": "amount",
          "type": "uint256"
        }
      ],
      "name": "TransferCreditsAdded",
      "type": "event"
    },
    {
      "anonymous": false,
      "inputs": [
        {
          "indexed": true,
          "internalType": "address",
          "name": "spcMember",
          "type": "address"
        },
        {
          "indexed": false,
          "internalType": "uint256",
          "name": "amount",
          "type": "uint256"
        }
      ],
      "name": "TransferCreditsDrained",
      "type": "event"
    },
    {
      "inputs": [
        {
          "internalType": "uint256",
          "name": "amount",
          "type": "uint256"
        }
      ],
      "name": "addTransferCredits",
      "outputs": [],
      "stateMutability": "nonpayable",
      "type": "function"
    },
    {
      "inputs": [
        {
          "internalType": "address",
          "name": "owner",
          "type": "address"
        },
        {
          "internalType": "address",
          "name": "spender",
          "type": "address"
        }
      ],
      "name": "allowance",
      "outputs": [
        {
          "internalType": "uint256",
          "name": "",
          "type": "uint256"
        }
      ],
      "stateMutability": "view",
      "type": "function"
    },
    {
      "inputs": [
        {
          "internalType": "address",
          "name": "spender",
          "type": "address"
        },
        {
          "internalType": "uint256",
          "name": "amount",
          "type": "uint256"
        }
      ],
      "name": "approve",
      "outputs": [
        {
          "internalType": "bool",
          "name": "",
          "type": "bool"
        }
      ],
      "stateMutability": "nonpayable",
      "type": "function"
    },
    {
      "inputs": [
        {
          "internalType": "address",
          "name": "owner",
          "type": "address"
        }
      ],
      "name": "balanceOf",
      "outputs": [
        {
          "internalType": "uint256",
          "name": "",
          "type": "uint256"
        }
      ],
      "stateMutability": "view",
      "type": "function"
    },
    {
      "inputs": [
        {
          "internalType": "address",
          "name": "member",
          "type": "address"
        }
      ],
      "name": "beforeRemovingMember",
      "outputs": [],
      "stateMutability": "nonpayable",
      "type": "function"
    },
    {
      "inputs": [
        {
          "internalType": "uint256",
          "name": "amount",
          "type": "uint256"
        },
        {
          "internalType": "string",
          "name": "ref",
          "type": "string"
        }
      ],
      "name": "burn",
      "outputs": [],
      "stateMutability": "nonpayable",
      "type": "function"
    },
    {
      "inputs": [],
      "name": "decimals",
      "outputs": [
        {
          "internalType": "uint256",
          "name": "",
          "type": "uint256"
        }
      ],
      "stateMutability": "view",
      "type": "function"
    },
    {
      "inputs": [
        {
          "internalType": "address",
          "name": "from",
          "type": "address"
        },
        {
          "internalType": "address",
          "name": "to",
          "type": "address"
        },
        {
          "internalType": "uint256",
          "name": "amount",
          "type": "uint256"
        }
      ],
      "name": "detectTransferRestriction",
      "outputs": [
        {
          "internalType": "uint8",
          "name": "",
          "type": "uint8"
        }
      ],
      "stateMutability": "view",
      "type": "function"
    },
    {
      "inputs": [
        {
          "internalType": "address",
          "name": "spender",
          "type": "address"
        }
      ],
      "name": "disapprove",
      "outputs": [],
      "stateMutability": "nonpayable",
      "type": "function"
    },
    {
      "inputs": [],
      "name": "drainTransferCredits",
      "outputs": [],
      "stateMutability": "nonpayable",
      "type": "function"
    },
    {
      "inputs": [
        {
          "internalType": "address",
          "name": "owner",
          "type": "address"
        }
      ],
      "name": "givenAllowanceCount",
      "outputs": [
        {
          "internalType": "uint256",
          "name": "",
          "type": "uint256"
        }
      ],
      "stateMutability": "view",
      "type": "function"
    },
    {
      "inputs": [
        {
          "internalType": "uint8",
          "name": "restrictionCode",
          "type": "uint8"
        }
      ],
      "name": "messageForTransferRestriction",
      "outputs": [
        {
          "internalType": "string",
          "name": "",
          "type": "string"
        }
      ],
      "stateMutability": "pure",
      "type": "function"
    },
    {
      "inputs": [
        {
          "internalType": "uint256",
          "name": "amount",
          "type": "uint256"
        },
        {
          "internalType": "string",
          "name": "ref",
          "type": "string"
        }
      ],
      "name": "mint",
      "outputs": [],
      "stateMutability": "nonpayable",
      "type": "function"
    },
    {
      "inputs": [],
      "name": "name",
      "outputs": [
        {
          "internalType": "string",
          "name": "",
          "type": "string"
        }
      ],
      "stateMutability": "view",
      "type": "function"
    },
    {
      "inputs": [
        {
          "internalType": "address",
          "name": "owner",
          "type": "address"
        },
        {
          "internalType": "uint256",
          "name": "index",
          "type": "uint256"
        },
        {
          "internalType": "uint256",
          "name": "perPage",
          "type": "uint256"
        }
      ],
      "name": "paginateAllowancesByOwner",
      "outputs": [
        {
          "internalType": "address[]",
          "name": "",
          "type": "address[]"
        },
        {
          "internalType": "uint256",
          "name": "",
          "type": "uint256"
        }
      ],
      "stateMutability": "view",
      "type": "function"
    },
    {
      "inputs": [
        {
          "internalType": "address",
          "name": "spender",
          "type": "address"
        },
        {
          "internalType": "uint256",
          "name": "index",
          "type": "uint256"
        },
        {
          "internalType": "uint256",
          "name": "perPage",
          "type": "uint256"
        }
      ],
      "name": "paginateAllowancesBySpender",
      "outputs": [
        {
          "internalType": "address[]",
          "name": "",
          "type": "address[]"
        },
        {
          "internalType": "uint256",
          "name": "",
          "type": "uint256"
        }
      ],
      "stateMutability": "view",
      "type": "function"
    },
    {
      "inputs": [
        {
          "internalType": "address",
          "name": "from",
          "type": "address"
        },
        {
          "internalType": "address",
          "name": "spender",
          "type": "address"
        },
        {
          "internalType": "uint256",
          "name": "amount",
          "type": "uint256"
        }
      ],
      "name": "performApproval",
      "outputs": [],
      "stateMutability": "nonpayable",
      "type": "function"
    },
    {
      "inputs": [
        {
          "internalType": "address",
          "name": "from",
          "type": "address"
        },
        {
          "internalType": "address",
          "name": "spender",
          "type": "address"
        }
      ],
      "name": "performDisapproval",
      "outputs": [],
      "stateMutability": "nonpayable",
      "type": "function"
    },
    {
      "inputs": [
        {
          "components": [
            {
              "internalType": "address",
              "name": "spender",
              "type": "address"
            },
            {
              "internalType": "address",
              "name": "from",
              "type": "address"
            },
            {
              "internalType": "address",
              "name": "to",
              "type": "address"
            },
            {
              "internalType": "uint256",
              "name": "amount",
              "type": "uint256"
            },
            {
              "internalType": "string",
              "name": "ref",
              "type": "string"
            }
          ],
          "internalType": "struct FastTokenFacet.TransferArgs",
          "name": "p",
          "type": "tuple"
        }
      ],
      "name": "performTransfer",
      "outputs": [],
      "stateMutability": "nonpayable",
      "type": "function"
    },
    {
      "inputs": [
        {
          "internalType": "address",
          "name": "spender",
          "type": "address"
        }
      ],
      "name": "receivedAllowanceCount",
      "outputs": [
        {
          "internalType": "uint256",
          "name": "",
          "type": "uint256"
        }
      ],
      "stateMutability": "view",
      "type": "function"
    },
    {
      "inputs": [],
      "name": "symbol",
      "outputs": [
        {
          "internalType": "string",
          "name": "",
          "type": "string"
        }
      ],
      "stateMutability": "view",
      "type": "function"
    },
    {
      "inputs": [],
      "name": "totalSupply",
      "outputs": [
        {
          "internalType": "uint256",
          "name": "",
          "type": "uint256"
        }
      ],
      "stateMutability": "view",
      "type": "function"
    },
    {
      "inputs": [
        {
          "internalType": "address",
          "name": "to",
          "type": "address"
        },
        {
          "internalType": "uint256",
          "name": "amount",
          "type": "uint256"
        }
      ],
      "name": "transfer",
      "outputs": [
        {
          "internalType": "bool",
          "name": "",
          "type": "bool"
        }
      ],
      "stateMutability": "nonpayable",
      "type": "function"
    },
    {
      "inputs": [],
      "name": "transferCredits",
      "outputs": [
        {
          "internalType": "uint256",
          "name": "",
          "type": "uint256"
        }
      ],
      "stateMutability": "view",
      "type": "function"
    },
    {
      "inputs": [
        {
          "internalType": "address",
          "name": "from",
          "type": "address"
        },
        {
          "internalType": "address",
          "name": "to",
          "type": "address"
        },
        {
          "internalType": "uint256",
          "name": "amount",
          "type": "uint256"
        }
      ],
      "name": "transferFrom",
      "outputs": [
        {
          "internalType": "bool",
          "name": "",
          "type": "bool"
        }
      ],
      "stateMutability": "nonpayable",
      "type": "function"
    },
    {
      "inputs": [
        {
          "internalType": "address",
          "name": "from",
          "type": "address"
        },
        {
          "internalType": "address",
          "name": "to",
          "type": "address"
        },
        {
          "internalType": "uint256",
          "name": "amount",
          "type": "uint256"
        },
        {
          "internalType": "string",
          "name": "ref",
          "type": "string"
        }
      ],
      "name": "transferFromWithRef",
      "outputs": [],
      "stateMutability": "nonpayable",
      "type": "function"
    },
    {
      "inputs": [
        {
          "internalType": "address",
          "name": "to",
          "type": "address"
        },
        {
          "internalType": "uint256",
          "name": "amount",
          "type": "uint256"
        },
        {
          "internalType": "string",
          "name": "ref",
          "type": "string"
        }
      ],
      "name": "transferWithRef",
      "outputs": [],
      "stateMutability": "nonpayable",
      "type": "function"
    }
  ],
  "transactionHash": "0x4fee1f556646c32b61ff99573ae393db610d5b8f4a87f48ee913ddb46bf98d33",
  "args": [],
  "numDeployments": 1,
  "solcInputHash": "f4f8b835cacce8dc6ce668efb004d4af",
  "bytecode": "0x608060405234801561001057600080fd5b5061521e806100206000396000f3fe608060405234801561001057600080fd5b50600436106101a95760003560e01c80636ba09c5c116100f95780639c999d9011610097578063d4ce141511610071578063d4ce1415146104f2578063dd62ed3e14610522578063ddee550c14610552578063e8edd0e31461055c576101a9565b80639c999d9014610475578063a9059cbb146104a6578063c485bb96146104d6576101a9565b806377097fc8116100d357806377097fc8146103db5780637f4ab1dd146103f757806381a8f2431461042757806395d89b4114610457576101a9565b80636ba09c5c1461037157806370a082311461038f5780637641e6f3146103bf576101a9565b80631fe02e5311610166578063313ce56711610140578063313ce567146102ff57806344890ae01461031d5780635480699a146103395780635d7b590f14610355576101a9565b80631fe02e531461028257806323b872dd146102b357806330005916146102e3576101a9565b806302ff1049146101ae57806306675ba7146101ca57806306fdde03146101fa578063095ea7b31461021857806315770d991461024857806318160ddd14610264575b600080fd5b6101c860048036038101906101c3919061456d565b610578565b005b6101e460048036038101906101df9190614544565b6107ba565b6040516101f19190614cf9565b60405180910390f35b610202610812565b60405161020f9190614c55565b60405180910390f35b610232600480360381019061022d9190614673565b6108ad565b60405161023f9190614c3a565b60405180910390f35b610262600480360381019061025d9190614544565b610928565b005b61026c610a9b565b6040516102799190614cf9565b60405180910390f35b61029c6004803603810190610297919061471b565b610aae565b6040516102aa929190614c0a565b60405180910390f35b6102cd60048036038101906102c891906145a9565b610b13565b6040516102da9190614c3a565b60405180910390f35b6102fd60048036038101906102f891906147d4565b610b61565b005b610307610d60565b6040516103149190614cf9565b60405180910390f35b61033760048036038101906103329190614793565b610d73565b005b610353600480360381019061034e91906145a9565b611f9d565b005b61036f600480360381019061036a9190614544565b6124e9565b005b610379612845565b6040516103869190614cf9565b60405180910390f35b6103a960048036038101906103a49190614544565b612858565b6040516103b69190614cf9565b60405180910390f35b6103d960048036038101906103d49190614826565b6128aa565b005b6103f560048036038101906103f09190614826565b612cd0565b005b610411600480360381019061040c919061487e565b613115565b60405161041e9190614c55565b60405180910390f35b610441600480360381019061043c9190614544565b6132a1565b60405161044e9190614cf9565b60405180910390f35b61045f6132f9565b60405161046c9190614c55565b60405180910390f35b61048f600480360381019061048a919061471b565b613394565b60405161049d929190614c0a565b60405180910390f35b6104c060048036038101906104bb9190614673565b6133f9565b6040516104cd9190614c3a565b60405180910390f35b6104f060048036038101906104eb91906145f8565b61350d565b005b61050c600480360381019061050791906145a9565b6135e6565b6040516105199190614d46565b60405180910390f35b61053c6004803603810190610537919061456d565b613808565b6040516105499190614cf9565b60405180910390f35b61055a613a1e565b005b610576600480360381019061057191906146af565b613c15565b005b3073ffffffffffffffffffffffffffffffffffffffff163373ffffffffffffffffffffffffffffffffffffffff16146040518060400160405280600f81526020017f496e7465726e616c206d6574686f6400000000000000000000000000000000008152509061061e576040517f08c379a00000000000000000000000000000000000000000000000000000000081526004016106159190614c55565b60405180910390fd5b506000610629613d32565b905060008160070160008573ffffffffffffffffffffffffffffffffffffffff1673ffffffffffffffffffffffffffffffffffffffff16815260200190815260200160002060008473ffffffffffffffffffffffffffffffffffffffff1673ffffffffffffffffffffffffffffffffffffffff168152602001908152602001600020819055506107058260008360080160008773ffffffffffffffffffffffffffffffffffffffff1673ffffffffffffffffffffffffffffffffffffffff168152602001908152602001600020613d5a9092919063ffffffff16565b61075b8360008360090160008673ffffffffffffffffffffffffffffffffffffffff1673ffffffffffffffffffffffffffffffffffffffff168152602001908152602001600020613d5a9092919063ffffffff16565b8173ffffffffffffffffffffffffffffffffffffffff168373ffffffffffffffffffffffffffffffffffffffff167f26b05c87141e7af7338d66d51fdd307c37ba1ddc85c6fb74ce01042ebcc17a7c60405160405180910390a3505050565b60006107c4613d32565b60080160008373ffffffffffffffffffffffffffffffffffffffff1673ffffffffffffffffffffffffffffffffffffffff168152602001908152602001600020600101805490509050919050565b606061081c613d32565b600101805461082a90614fa0565b80601f016020809104026020016040519081016040528092919081815260200182805461085690614fa0565b80156108a35780601f10610878576101008083540402835291602001916108a3565b820191906000526020600020905b81548152906001019060200180831161088657829003601f168201915b5050505050905090565b60003073ffffffffffffffffffffffffffffffffffffffff16635480699a3385856040518463ffffffff1660e01b81526004016108ec93929190614bd3565b600060405180830381600087803b15801561090657600080fd5b505af115801561091a573d6000803e3d6000fd5b505050506001905092915050565b333073ffffffffffffffffffffffffffffffffffffffff1663a230c524826040518263ffffffff1660e01b81526004016109629190614b33565b60206040518083038186803b15801561097a57600080fd5b505afa15801561098e573d6000803e3d6000fd5b505050506040513d601f19601f820116820180604052508101906109b2919061476a565b6040518060400160405280601881526020017f52657175697265732046415354206d656d62657273686970000000000000000081525090610a29576040517f08c379a0000000000000000000000000000000000000000000000000000000008152600401610a209190614c55565b60405180910390fd5b503073ffffffffffffffffffffffffffffffffffffffff166302ff104933846040518363ffffffff1660e01b8152600401610a65929190614b4e565b600060405180830381600087803b158015610a7f57600080fd5b505af1158015610a93573d6000803e3d6000fd5b505050505050565b6000610aa5613d32565b60040154905090565b60606000610b07610abd613d32565b60080160008773ffffffffffffffffffffffffffffffffffffffff1673ffffffffffffffffffffffffffffffffffffffff1681526020019081526020016000206001018585614010565b91509150935093915050565b6000610b568484846040518060400160405280601781526020017f556e737065636966696564202d2076696120455243323000000000000000000081525061350d565b600190509392505050565b610b696141d3565b60000160029054906101000a900473ffffffffffffffffffffffffffffffffffffffff1673ffffffffffffffffffffffffffffffffffffffff1663a230c524336040518263ffffffff1660e01b8152600401610bc59190614b33565b60206040518083038186803b158015610bdd57600080fd5b505afa158015610bf1573d6000803e3d6000fd5b505050506040513d601f19601f82011682018060405250810190610c15919061476a565b6040518060400160405280601781526020017f526571756972657320535043206d656d6265727368697000000000000000000081525090610c8c576040517f08c379a0000000000000000000000000000000000000000000000000000000008152600401610c839190614c55565b60405180910390fd5b5080610c96613d32565b6005016000828254610ca89190614e7f565b925050819055503073ffffffffffffffffffffffffffffffffffffffff16634f2274c06040518163ffffffff1660e01b8152600401600060405180830381600087803b158015610cf757600080fd5b505af1158015610d0b573d6000803e3d6000fd5b505050503373ffffffffffffffffffffffffffffffffffffffff167f7cc75678011427765ae1f965e47e04223c08302df0151ddbf2df44f9e8572c3782604051610d559190614cf9565b60405180910390a250565b6000610d6a613d32565b60030154905090565b3073ffffffffffffffffffffffffffffffffffffffff163373ffffffffffffffffffffffffffffffffffffffff16146040518060400160405280600f81526020017f496e7465726e616c206d6574686f64000000000000000000000000000000000081525090610e19576040517f08c379a0000000000000000000000000000000000000000000000000000000008152600401610e109190614c55565b60405180910390fd5b50806020016020810190610e2d9190614544565b816040016020810190610e409190614544565b8073ffffffffffffffffffffffffffffffffffffffff168273ffffffffffffffffffffffffffffffffffffffff1614156040518060600160405280602781526020016151c26027913990610eca576040517f08c379a0000000000000000000000000000000000000000000000000000000008152600401610ec19190614c55565b60405180910390fd5b50826020016020810190610ede9190614544565b600073ffffffffffffffffffffffffffffffffffffffff168173ffffffffffffffffffffffffffffffffffffffff16146111c9573073ffffffffffffffffffffffffffffffffffffffff166311e549336040518163ffffffff1660e01b815260040160206040518083038186803b158015610f5857600080fd5b505afa158015610f6c573d6000803e3d6000fd5b505050506040513d601f19601f82011682018060405250810190610f90919061476a565b156110c657610f9d6141d3565b60010160009054906101000a900473ffffffffffffffffffffffffffffffffffffffff1673ffffffffffffffffffffffffffffffffffffffff1663a230c524826040518263ffffffff1660e01b8152600401610ff99190614b33565b60206040518083038186803b15801561101157600080fd5b505afa158015611025573d6000803e3d6000fd5b505050506040513d601f19601f82011682018060405250810190611049919061476a565b6040518060400160405280601c81526020017f52657175697265732045786368616e6765206d656d6265727368697000000000815250906110c0576040517f08c379a00000000000000000000000000000000000000000000000000000000081526004016110b79190614c55565b60405180910390fd5b506111c8565b3073ffffffffffffffffffffffffffffffffffffffff1663a230c524826040518263ffffffff1660e01b81526004016110ff9190614b33565b60206040518083038186803b15801561111757600080fd5b505afa15801561112b573d6000803e3d6000fd5b505050506040513d601f19601f8201168201806040525081019061114f919061476a565b6040518060400160405280601881526020017f52657175697265732046415354206d656d626572736869700000000000000000815250906111c6576040517f08c379a00000000000000000000000000000000000000000000000000000000081526004016111bd9190614c55565b60405180910390fd5b505b5b8360200160208101906111dc9190614544565b6111e46141d3565b60010160009054906101000a900473ffffffffffffffffffffffffffffffffffffffff1673ffffffffffffffffffffffffffffffffffffffff166367317647826040518263ffffffff1660e01b81526004016112409190614b33565b60206040518083038186803b15801561125857600080fd5b505afa15801561126c573d6000803e3d6000fd5b505050506040513d601f19601f82011682018060405250810190611290919061476a565b6040518060400160405280601f81526020017f5265717569726573206163746976652045786368616e6765206d656d6265720081525090611307576040517f08c379a00000000000000000000000000000000000000000000000000000000081526004016112fe9190614c55565b60405180910390fd5b5084604001602081019061131b9190614544565b600073ffffffffffffffffffffffffffffffffffffffff168173ffffffffffffffffffffffffffffffffffffffff1614611606573073ffffffffffffffffffffffffffffffffffffffff166311e549336040518163ffffffff1660e01b815260040160206040518083038186803b15801561139557600080fd5b505afa1580156113a9573d6000803e3d6000fd5b505050506040513d601f19601f820116820180604052508101906113cd919061476a565b15611503576113da6141d3565b60010160009054906101000a900473ffffffffffffffffffffffffffffffffffffffff1673ffffffffffffffffffffffffffffffffffffffff1663a230c524826040518263ffffffff1660e01b81526004016114369190614b33565b60206040518083038186803b15801561144e57600080fd5b505afa158015611462573d6000803e3d6000fd5b505050506040513d601f19601f82011682018060405250810190611486919061476a565b6040518060400160405280601c81526020017f52657175697265732045786368616e6765206d656d6265727368697000000000815250906114fd576040517f08c379a00000000000000000000000000000000000000000000000000000000081526004016114f49190614c55565b60405180910390fd5b50611605565b3073ffffffffffffffffffffffffffffffffffffffff1663a230c524826040518263ffffffff1660e01b815260040161153c9190614b33565b60206040518083038186803b15801561155457600080fd5b505afa158015611568573d6000803e3d6000fd5b505050506040513d601f19601f8201168201806040525081019061158c919061476a565b6040518060400160405280601881526020017f52657175697265732046415354206d656d62657273686970000000000000000081525090611603576040517f08c379a00000000000000000000000000000000000000000000000000000000081526004016115fa9190614c55565b60405180910390fd5b505b5b6000611610613d32565b905086606001358160060160008960200160208101906116309190614544565b73ffffffffffffffffffffffffffffffffffffffff1673ffffffffffffffffffffffffffffffffffffffff1681526020019081526020016000205410156040518060400160405280601a81526020017f496e73756666696369656e7420746f6b656e2062616c616e6365000000000000815250906116e4576040517f08c379a00000000000000000000000000000000000000000000000000000000081526004016116db9190614c55565b60405180910390fd5b5060008760600135116040518060400160405280601581526020017f556e737570706f72746564206f7065726174696f6e000000000000000000000081525090611764576040517f08c379a000000000000000000000000000000000000000000000000000000000815260040161175b9190614c55565b60405180910390fd5b508660200160208101906117789190614544565b73ffffffffffffffffffffffffffffffffffffffff168760000160208101906117a19190614544565b73ffffffffffffffffffffffffffffffffffffffff1614611af15786606001353073ffffffffffffffffffffffffffffffffffffffff1663dd62ed3e8960200160208101906117f09190614544565b8a60000160208101906118039190614544565b6040518363ffffffff1660e01b8152600401611820929190614b4e565b60206040518083038186803b15801561183857600080fd5b505afa15801561184c573d6000803e3d6000fd5b505050506040513d601f19601f8201168201806040525081019061187091906147fd565b10156040518060400160405280601681526020017f496e73756666696369656e7420616c6c6f77616e636500000000000000000000815250906118e9576040517f08c379a00000000000000000000000000000000000000000000000000000000081526004016118e09190614c55565b60405180910390fd5b50600073ffffffffffffffffffffffffffffffffffffffff168760200160208101906119159190614544565b73ffffffffffffffffffffffffffffffffffffffff1614611af057600087606001358260070160008a60200160208101906119509190614544565b73ffffffffffffffffffffffffffffffffffffffff1673ffffffffffffffffffffffffffffffffffffffff16815260200190815260200160002060008a600001602081019061199f9190614544565b73ffffffffffffffffffffffffffffffffffffffff1673ffffffffffffffffffffffffffffffffffffffff16815260200190815260200160002060008282546119e89190614ed5565b92505081905590506000811415611aee57611a73886000016020810190611a0f9190614544565b60018460080160008c6020016020810190611a2a9190614544565b73ffffffffffffffffffffffffffffffffffffffff1673ffffffffffffffffffffffffffffffffffffffff168152602001908152602001600020613d5a9092919063ffffffff16565b611aed886020016020810190611a899190614544565b60018460090160008c6000016020810190611aa49190614544565b73ffffffffffffffffffffffffffffffffffffffff1673ffffffffffffffffffffffffffffffffffffffff168152602001908152602001600020613d5a9092919063ffffffff16565b5b505b5b8660600135816006016000896020016020810190611b0f9190614544565b73ffffffffffffffffffffffffffffffffffffffff1673ffffffffffffffffffffffffffffffffffffffff1681526020019081526020016000206000828254611b589190614ed5565b925050819055508660600135816006016000896040016020810190611b7d9190614544565b73ffffffffffffffffffffffffffffffffffffffff1673ffffffffffffffffffffffffffffffffffffffff1681526020019081526020016000206000828254611bc69190614e7f565b92505081905550600073ffffffffffffffffffffffffffffffffffffffff16876020016020810190611bf89190614544565b73ffffffffffffffffffffffffffffffffffffffff1614611cb7578660600135816005015410156040518060400160405280601d81526020017f496e73756666696369656e74207472616e73666572206372656469747300000081525090611c96576040517f08c379a0000000000000000000000000000000000000000000000000000000008152600401611c8d9190614c55565b60405180910390fd5b508660600135816005016000828254611caf9190614ed5565b925050819055505b600073ffffffffffffffffffffffffffffffffffffffff16876040016020810190611ce29190614544565b73ffffffffffffffffffffffffffffffffffffffff161415611d82578660600135816004016000828254611d169190614ed5565b925050819055503073ffffffffffffffffffffffffffffffffffffffff16634f2274c06040518163ffffffff1660e01b8152600401600060405180830381600087803b158015611d6557600080fd5b505af1158015611d79573d6000803e3d6000fd5b50505050611e4a565b600073ffffffffffffffffffffffffffffffffffffffff16876020016020810190611dad9190614544565b73ffffffffffffffffffffffffffffffffffffffff161415611e49578660600135816004016000828254611de19190614e7f565b925050819055503073ffffffffffffffffffffffffffffffffffffffff16634f2274c06040518163ffffffff1660e01b8152600401600060405180830381600087803b158015611e3057600080fd5b505af1158015611e44573d6000803e3d6000fd5b505050505b5b3073ffffffffffffffffffffffffffffffffffffffff1663eee2dcc3886000016020810190611e799190614544565b896020016020810190611e8c9190614544565b8a6040016020810190611e9f9190614544565b8b606001358c8060800190611eb49190614d61565b6040518763ffffffff1660e01b8152600401611ed596959493929190614b77565b600060405180830381600087803b158015611eef57600080fd5b505af1158015611f03573d6000803e3d6000fd5b50505050866040016020810190611f1a9190614544565b73ffffffffffffffffffffffffffffffffffffffff16876020016020810190611f439190614544565b73ffffffffffffffffffffffffffffffffffffffff167fddf252ad1be2c89b69c2b068fc378daa952ba7f163c4a11628f55a4df523b3ef8960600135604051611f8c9190614cf9565b60405180910390a350505050505050565b3073ffffffffffffffffffffffffffffffffffffffff163373ffffffffffffffffffffffffffffffffffffffff16146040518060400160405280600f81526020017f496e7465726e616c206d6574686f64000000000000000000000000000000000081525090612043576040517f08c379a000000000000000000000000000000000000000000000000000000000815260040161203a9190614c55565b60405180910390fd5b5082600073ffffffffffffffffffffffffffffffffffffffff168173ffffffffffffffffffffffffffffffffffffffff1614612330573073ffffffffffffffffffffffffffffffffffffffff166311e549336040518163ffffffff1660e01b815260040160206040518083038186803b1580156120bf57600080fd5b505afa1580156120d3573d6000803e3d6000fd5b505050506040513d601f19601f820116820180604052508101906120f7919061476a565b1561222d576121046141d3565b60010160009054906101000a900473ffffffffffffffffffffffffffffffffffffffff1673ffffffffffffffffffffffffffffffffffffffff1663a230c524826040518263ffffffff1660e01b81526004016121609190614b33565b60206040518083038186803b15801561217857600080fd5b505afa15801561218c573d6000803e3d6000fd5b505050506040513d601f19601f820116820180604052508101906121b0919061476a565b6040518060400160405280601c81526020017f52657175697265732045786368616e6765206d656d626572736869700000000081525090612227576040517f08c379a000000000000000000000000000000000000000000000000000000000815260040161221e9190614c55565b60405180910390fd5b5061232f565b3073ffffffffffffffffffffffffffffffffffffffff1663a230c524826040518263ffffffff1660e01b81526004016122669190614b33565b60206040518083038186803b15801561227e57600080fd5b505afa158015612292573d6000803e3d6000fd5b505050506040513d601f19601f820116820180604052508101906122b6919061476a565b6040518060400160405280601881526020017f52657175697265732046415354206d656d6265727368697000000000000000008152509061232d576040517f08c379a00000000000000000000000000000000000000000000000000000000081526004016123249190614c55565b60405180910390fd5b505b5b600061233a613d32565b9050828160070160008773ffffffffffffffffffffffffffffffffffffffff1673ffffffffffffffffffffffffffffffffffffffff16815260200190815260200160002060008673ffffffffffffffffffffffffffffffffffffffff1673ffffffffffffffffffffffffffffffffffffffff16815260200190815260200160002060008282546123ca9190614e7f565b925050819055506124278460018360080160008973ffffffffffffffffffffffffffffffffffffffff1673ffffffffffffffffffffffffffffffffffffffff1681526020019081526020016000206141fb9092919063ffffffff16565b61247d8560018360090160008873ffffffffffffffffffffffffffffffffffffffff1673ffffffffffffffffffffffffffffffffffffffff1681526020019081526020016000206141fb9092919063ffffffff16565b8373ffffffffffffffffffffffffffffffffffffffff168573ffffffffffffffffffffffffffffffffffffffff167f8c5be1e5ebec7d5bd14f71427d1e84f3dd0314c0f7b2291e5b200ac8c7c3b925856040516124da9190614cf9565b60405180910390a35050505050565b3073ffffffffffffffffffffffffffffffffffffffff163373ffffffffffffffffffffffffffffffffffffffff16146040518060400160405280600f81526020017f496e7465726e616c206d6574686f6400000000000000000000000000000000008152509061258f576040517f08c379a00000000000000000000000000000000000000000000000000000000081526004016125869190614c55565b60405180910390fd5b50600061259b82612858565b146125db576040517f08c379a00000000000000000000000000000000000000000000000000000000081526004016125d290614c77565b60405180910390fd5b60006125e5613d32565b905060008160080160008473ffffffffffffffffffffffffffffffffffffffff1673ffffffffffffffffffffffffffffffffffffffff16815260200190815260200160002060010190505b600081805490501115612713573073ffffffffffffffffffffffffffffffffffffffff166302ff10498483600081548110612694577f4e487b7100000000000000000000000000000000000000000000000000000000600052603260045260246000fd5b9060005260206000200160009054906101000a900473ffffffffffffffffffffffffffffffffffffffff166040518363ffffffff1660e01b81526004016126dc929190614b4e565b600060405180830381600087803b1580156126f657600080fd5b505af115801561270a573d6000803e3d6000fd5b50505050612630565b60008260090160008573ffffffffffffffffffffffffffffffffffffffff1673ffffffffffffffffffffffffffffffffffffffff16815260200190815260200160002060010190505b60008180549050111561283f573073ffffffffffffffffffffffffffffffffffffffff166302ff1049826000815481106127bf577f4e487b7100000000000000000000000000000000000000000000000000000000600052603260045260246000fd5b9060005260206000200160009054906101000a900473ffffffffffffffffffffffffffffffffffffffff16866040518363ffffffff1660e01b8152600401612808929190614b4e565b600060405180830381600087803b15801561282257600080fd5b505af1158015612836573d6000803e3d6000fd5b5050505061275c565b50505050565b600061284f613d32565b60050154905090565b6000612862613d32565b60060160008373ffffffffffffffffffffffffffffffffffffffff1673ffffffffffffffffffffffffffffffffffffffff168152602001908152602001600020549050919050565b6128b26141d3565b60000160029054906101000a900473ffffffffffffffffffffffffffffffffffffffff1673ffffffffffffffffffffffffffffffffffffffff1663a230c524336040518263ffffffff1660e01b815260040161290e9190614b33565b60206040518083038186803b15801561292657600080fd5b505afa15801561293a573d6000803e3d6000fd5b505050506040513d601f19601f8201168201806040525081019061295e919061476a565b6040518060400160405280601781526020017f526571756972657320535043206d656d62657273686970000000000000000000815250906129d5576040517f08c379a00000000000000000000000000000000000000000000000000000000081526004016129cc9190614c55565b60405180910390fd5b5060006129e0613d32565b90503073ffffffffffffffffffffffffffffffffffffffff1663ddb2d22b6040518163ffffffff1660e01b815260040160206040518083038186803b158015612a2857600080fd5b505afa158015612a3c573d6000803e3d6000fd5b505050506040513d601f19601f82011682018060405250810190612a60919061476a565b156040518060400160405280601a81526020017f526571756972657320636f6e74696e756f757320737570706c7900000000000081525090612ad8576040517f08c379a0000000000000000000000000000000000000000000000000000000008152600401612acf9190614c55565b60405180910390fd5b5083612ae46000612858565b10156040518060400160405280601a81526020017f496e73756666696369656e7420746f6b656e2062616c616e636500000000000081525090612b5d576040517f08c379a0000000000000000000000000000000000000000000000000000000008152600401612b549190614c55565b60405180910390fd5b50838160060160008073ffffffffffffffffffffffffffffffffffffffff1673ffffffffffffffffffffffffffffffffffffffff1681526020019081526020016000206000828254612baf9190614ed5565b925050819055503073ffffffffffffffffffffffffffffffffffffffff1663f4c1210c8585856040518463ffffffff1660e01b8152600401612bf393929190614d14565b600060405180830381600087803b158015612c0d57600080fd5b505af1158015612c21573d6000803e3d6000fd5b505050503073ffffffffffffffffffffffffffffffffffffffff16634f2274c06040518163ffffffff1660e01b8152600401600060405180830381600087803b158015612c6d57600080fd5b505af1158015612c81573d6000803e3d6000fd5b505050508282604051612c95929190614b1a565b6040518091039020847f57307d0a4121422158dae7be68e769aa82d8631467b971e4fdfdf3ce9b4c8b7b60405160405180910390a350505050565b612cd86141d3565b60000160029054906101000a900473ffffffffffffffffffffffffffffffffffffffff1673ffffffffffffffffffffffffffffffffffffffff1663a230c524336040518263ffffffff1660e01b8152600401612d349190614b33565b60206040518083038186803b158015612d4c57600080fd5b505afa158015612d60573d6000803e3d6000fd5b505050506040513d601f19601f82011682018060405250810190612d84919061476a565b6040518060400160405280601781526020017f526571756972657320535043206d656d6265727368697000000000000000000081525090612dfb576040517f08c379a0000000000000000000000000000000000000000000000000000000008152600401612df29190614c55565b60405180910390fd5b506000612e06613d32565b90503073ffffffffffffffffffffffffffffffffffffffff1663ddb2d22b6040518163ffffffff1660e01b815260040160206040518083038186803b158015612e4e57600080fd5b505afa158015612e62573d6000803e3d6000fd5b505050506040513d601f19601f82011682018060405250810190612e86919061476a565b1580612f2b575060008160040154148015612f2a575060003073ffffffffffffffffffffffffffffffffffffffff166370a0823160006040518263ffffffff1660e01b8152600401612ed89190614b33565b60206040518083038186803b158015612ef057600080fd5b505afa158015612f04573d6000803e3d6000fd5b505050506040513d601f19601f82011682018060405250810190612f2891906147fd565b145b5b6040518060400160405280601a81526020017f526571756972657320636f6e74696e756f757320737570706c7900000000000081525090612fa2576040517f08c379a0000000000000000000000000000000000000000000000000000000008152600401612f999190614c55565b60405180910390fd5b50838160060160008073ffffffffffffffffffffffffffffffffffffffff1673ffffffffffffffffffffffffffffffffffffffff1681526020019081526020016000206000828254612ff49190614e7f565b925050819055503073ffffffffffffffffffffffffffffffffffffffff1663af2e757b8585856040518463ffffffff1660e01b815260040161303893929190614d14565b600060405180830381600087803b15801561305257600080fd5b505af1158015613066573d6000803e3d6000fd5b505050503073ffffffffffffffffffffffffffffffffffffffff16634f2274c06040518163ffffffff1660e01b8152600401600060405180830381600087803b1580156130b257600080fd5b505af11580156130c6573d6000803e3d6000fd5b5050505082826040516130da929190614b1a565b6040518091039020847fadef11a3979b8ceb0573eb6ef0678134a09c23a0d94e5ea47cd18ac3a9fc019460405160405180910390a350505050565b6060600160ff168260ff161415613163576040518060400160405280601d81526020017f496e73756666696369656e74207472616e736665722063726564697473000000815250905061329c565b600360ff168260ff1614156131af576040518060400160405280601c81526020017f52657175697265732045786368616e6765206d656d6265727368697000000000815250905061329c565b600260ff168260ff1614156131fb576040518060400160405280601881526020017f52657175697265732046415354206d656d626572736869700000000000000000815250905061329c565b600460ff168260ff16141561322a576040518060600160405280602781526020016151c260279139905061329c565b6040518060400160405280601881526020017f556e6b6e6f776e207265737472696374696f6e20636f646500000000000000008152506040517f08c379a00000000000000000000000000000000000000000000000000000000081526004016132939190614c55565b60405180910390fd5b919050565b60006132ab613d32565b60090160008373ffffffffffffffffffffffffffffffffffffffff1673ffffffffffffffffffffffffffffffffffffffff168152602001908152602001600020600101805490509050919050565b6060613303613d32565b600201805461331190614fa0565b80601f016020809104026020016040519081016040528092919081815260200182805461333d90614fa0565b801561338a5780601f1061335f5761010080835404028352916020019161338a565b820191906000526020600020905b81548152906001019060200180831161336d57829003601f168201915b5050505050905090565b606060006133ed6133a3613d32565b60090160008773ffffffffffffffffffffffffffffffffffffffff1673ffffffffffffffffffffffffffffffffffffffff1681526020019081526020016000206001018585614010565b91509150935093915050565b60003073ffffffffffffffffffffffffffffffffffffffff166344890ae06040518060a001604052803373ffffffffffffffffffffffffffffffffffffffff1681526020013373ffffffffffffffffffffffffffffffffffffffff1681526020018673ffffffffffffffffffffffffffffffffffffffff1681526020018581526020016040518060400160405280601781526020017f556e737065636966696564202d207669612045524332300000000000000000008152508152506040518263ffffffff1660e01b81526004016134d19190614cd7565b600060405180830381600087803b1580156134eb57600080fd5b505af11580156134ff573d6000803e3d6000fd5b505050506001905092915050565b3073ffffffffffffffffffffffffffffffffffffffff166344890ae06040518060a001604052803373ffffffffffffffffffffffffffffffffffffffff1681526020018773ffffffffffffffffffffffffffffffffffffffff1681526020018673ffffffffffffffffffffffffffffffffffffffff168152602001858152602001848152506040518263ffffffff1660e01b81526004016135ae9190614cd7565b600060405180830381600087803b1580156135c857600080fd5b505af11580156135dc573d6000803e3d6000fd5b5050505050505050565b6000806135f1613d32565b90508281600501541015613609576001915050613801565b3073ffffffffffffffffffffffffffffffffffffffff1663a230c524866040518263ffffffff1660e01b81526004016136429190614b33565b60206040518083038186803b15801561365a57600080fd5b505afa15801561366e573d6000803e3d6000fd5b505050506040513d601f19601f82011682018060405250810190613692919061476a565b158061372457503073ffffffffffffffffffffffffffffffffffffffff1663a230c524856040518263ffffffff1660e01b81526004016136d29190614b33565b60206040518083038186803b1580156136ea57600080fd5b505afa1580156136fe573d6000803e3d6000fd5b505050506040513d601f19601f82011682018060405250810190613722919061476a565b155b156137bd573073ffffffffffffffffffffffffffffffffffffffff166311e549336040518163ffffffff1660e01b815260040160206040518083038186803b15801561376f57600080fd5b505afa158015613783573d6000803e3d6000fd5b505050506040513d601f19601f820116820180604052508101906137a7919061476a565b6137b25760026137b5565b60035b915050613801565b8373ffffffffffffffffffffffffffffffffffffffff168573ffffffffffffffffffffffffffffffffffffffff1614156137fb576004915050613801565b60009150505b9392505050565b600080613813613d32565b9050600073ffffffffffffffffffffffffffffffffffffffff168473ffffffffffffffffffffffffffffffffffffffff161415613995573073ffffffffffffffffffffffffffffffffffffffff1663e43581b8846040518263ffffffff1660e01b81526004016138839190614b33565b60206040518083038186803b15801561389b57600080fd5b505afa1580156138af573d6000803e3d6000fd5b505050506040513d601f19601f820116820180604052508101906138d3919061476a565b6040518060400160405280601a81526020017f5265717569726573204641535420676f7665726e6f72736869700000000000008152509061394a576040517f08c379a00000000000000000000000000000000000000000000000000000000081526004016139419190614c55565b60405180910390fd5b508060060160008573ffffffffffffffffffffffffffffffffffffffff1673ffffffffffffffffffffffffffffffffffffffff16815260200190815260200160002054915050613a18565b8060070160008573ffffffffffffffffffffffffffffffffffffffff1673ffffffffffffffffffffffffffffffffffffffff16815260200190815260200160002060008473ffffffffffffffffffffffffffffffffffffffff1673ffffffffffffffffffffffffffffffffffffffff168152602001908152602001600020549150505b92915050565b613a266141d3565b60000160029054906101000a900473ffffffffffffffffffffffffffffffffffffffff1673ffffffffffffffffffffffffffffffffffffffff1663a230c524336040518263ffffffff1660e01b8152600401613a829190614b33565b60206040518083038186803b158015613a9a57600080fd5b505afa158015613aae573d6000803e3d6000fd5b505050506040513d601f19601f82011682018060405250810190613ad2919061476a565b6040518060400160405280601781526020017f526571756972657320535043206d656d6265727368697000000000000000000081525090613b49576040517f08c379a0000000000000000000000000000000000000000000000000000000008152600401613b409190614c55565b60405180910390fd5b506000613b54613d32565b90503373ffffffffffffffffffffffffffffffffffffffff167fb5ffee8da10703700415cbf7e501408eb3da0c5dff8eae740afca33b2a2db9688260050154604051613ba09190614cf9565b60405180910390a2600081600501819055503073ffffffffffffffffffffffffffffffffffffffff16634f2274c06040518163ffffffff1660e01b8152600401600060405180830381600087803b158015613bfa57600080fd5b505af1158015613c0e573d6000803e3d6000fd5b5050505050565b3073ffffffffffffffffffffffffffffffffffffffff166344890ae06040518060a001604052803373ffffffffffffffffffffffffffffffffffffffff1681526020013373ffffffffffffffffffffffffffffffffffffffff1681526020018773ffffffffffffffffffffffffffffffffffffffff16815260200186815260200185858080601f016020809104026020016040519081016040528093929190818152602001838380828437600081840152601f19601f820116905080830192505050505050508152506040518263ffffffff1660e01b8152600401613cfa9190614cd7565b600060405180830381600087803b158015613d1457600080fd5b505af1158015613d28573d6000803e3d6000fd5b5050505050505050565b60007fb098747b87c5c0e2a32eb9b06725e9bad4263809bcda628ceadc1a686bcb8261905090565b6000613d668484614318565b9050818015613d73575080155b15613d7e575061400b565b80613dbe576040517f08c379a0000000000000000000000000000000000000000000000000000000008152600401613db590614cb7565b60405180910390fd5b600060018560010180549050613dd49190614ed5565b90506000856001018281548110613e14577f4e487b7100000000000000000000000000000000000000000000000000000000600052603260045260246000fd5b9060005260206000200160009054906101000a900473ffffffffffffffffffffffffffffffffffffffff16905060008660000160008773ffffffffffffffffffffffffffffffffffffffff1673ffffffffffffffffffffffffffffffffffffffff168152602001908152602001600020549050808760000160008473ffffffffffffffffffffffffffffffffffffffff1673ffffffffffffffffffffffffffffffffffffffff1681526020019081526020016000208190555081876001018281548110613f0a577f4e487b7100000000000000000000000000000000000000000000000000000000600052603260045260246000fd5b9060005260206000200160006101000a81548173ffffffffffffffffffffffffffffffffffffffff021916908373ffffffffffffffffffffffffffffffffffffffff1602179055508660000160008773ffffffffffffffffffffffffffffffffffffffff1673ffffffffffffffffffffffffffffffffffffffff1681526020019081526020016000206000905586600101805480613fd1577f4e487b7100000000000000000000000000000000000000000000000000000000600052603160045260246000fd5b6001900381819060005260206000200160006101000a81549073ffffffffffffffffffffffffffffffffffffffff02191690559055505050505b505050565b60606000808486805490506140259190614ed5565b84116140315783614042565b8486805490506140419190614ed5565b5b905060008167ffffffffffffffff811115614086577f4e487b7100000000000000000000000000000000000000000000000000000000600052604160045260246000fd5b6040519080825280602002602001820160405280156140b45781602001602082028036833780820191505090505b50905060005b828110156141b7578781886140cf9190614e7f565b81548110614106577f4e487b7100000000000000000000000000000000000000000000000000000000600052603260045260246000fd5b9060005260206000200160009054906101000a900473ffffffffffffffffffffffffffffffffffffffff1682828151811061416a577f4e487b7100000000000000000000000000000000000000000000000000000000600052603260045260246000fd5b602002602001019073ffffffffffffffffffffffffffffffffffffffff16908173ffffffffffffffffffffffffffffffffffffffff168152505080806141af90615003565b9150506140ba565b508082876141c59190614e7f565b935093505050935093915050565b60007f80c187ea6f955fd624c41fb7a18011cc87d98c6f4c06d897b59142f65707e705905090565b60006142078484614318565b90508180156142135750805b1561421e5750614313565b801561425f576040517f08c379a000000000000000000000000000000000000000000000000000000000815260040161425690614c97565b60405180910390fd5b83600101805490508460000160008573ffffffffffffffffffffffffffffffffffffffff1673ffffffffffffffffffffffffffffffffffffffff1681526020019081526020016000208190555083600101839080600181540180825580915050600190039060005260206000200160009091909190916101000a81548173ffffffffffffffffffffffffffffffffffffffff021916908373ffffffffffffffffffffffffffffffffffffffff160217905550505b505050565b600080836001018054905014614403578173ffffffffffffffffffffffffffffffffffffffff16836001018460000160008573ffffffffffffffffffffffffffffffffffffffff1673ffffffffffffffffffffffffffffffffffffffff16815260200190815260200160002054815481106143bc577f4e487b7100000000000000000000000000000000000000000000000000000000600052603260045260246000fd5b9060005260206000200160009054906101000a900473ffffffffffffffffffffffffffffffffffffffff1673ffffffffffffffffffffffffffffffffffffffff1614614406565b60005b905092915050565b600061442161441c84614ddd565b614db8565b90508281526020810184848401111561443957600080fd5b614444848285614f5e565b509392505050565b60008135905061445b81615165565b92915050565b6000815190506144708161517c565b92915050565b60008083601f84011261448857600080fd5b8235905067ffffffffffffffff8111156144a157600080fd5b6020830191508360018202830111156144b957600080fd5b9250929050565b600082601f8301126144d157600080fd5b81356144e184826020860161440e565b91505092915050565b600060a082840312156144fc57600080fd5b81905092915050565b60008135905061451481615193565b92915050565b60008151905061452981615193565b92915050565b60008135905061453e816151aa565b92915050565b60006020828403121561455657600080fd5b60006145648482850161444c565b91505092915050565b6000806040838503121561458057600080fd5b600061458e8582860161444c565b925050602061459f8582860161444c565b9150509250929050565b6000806000606084860312156145be57600080fd5b60006145cc8682870161444c565b93505060206145dd8682870161444c565b92505060406145ee86828701614505565b9150509250925092565b6000806000806080858703121561460e57600080fd5b600061461c8782880161444c565b945050602061462d8782880161444c565b935050604061463e87828801614505565b925050606085013567ffffffffffffffff81111561465b57600080fd5b614667878288016144c0565b91505092959194509250565b6000806040838503121561468657600080fd5b60006146948582860161444c565b92505060206146a585828601614505565b9150509250929050565b600080600080606085870312156146c557600080fd5b60006146d38782880161444c565b94505060206146e487828801614505565b935050604085013567ffffffffffffffff81111561470157600080fd5b61470d87828801614476565b925092505092959194509250565b60008060006060848603121561473057600080fd5b600061473e8682870161444c565b935050602061474f86828701614505565b925050604061476086828701614505565b9150509250925092565b60006020828403121561477c57600080fd5b600061478a84828501614461565b91505092915050565b6000602082840312156147a557600080fd5b600082013567ffffffffffffffff8111156147bf57600080fd5b6147cb848285016144ea565b91505092915050565b6000602082840312156147e657600080fd5b60006147f484828501614505565b91505092915050565b60006020828403121561480f57600080fd5b600061481d8482850161451a565b91505092915050565b60008060006040848603121561483b57600080fd5b600061484986828701614505565b935050602084013567ffffffffffffffff81111561486657600080fd5b61487286828701614476565b92509250509250925092565b60006020828403121561489057600080fd5b600061489e8482850161452f565b91505092915050565b60006148b383836148bf565b60208301905092915050565b6148c881614f09565b82525050565b6148d781614f09565b82525050565b60006148e882614e1e565b6148f28185614e41565b93506148fd83614e0e565b8060005b8381101561492e57815161491588826148a7565b975061492083614e34565b925050600181019050614901565b5085935050505092915050565b61494481614f1b565b82525050565b60006149568385614e63565b9350614963838584614f5e565b61496c836150d9565b840190509392505050565b60006149838385614e74565b9350614990838584614f5e565b82840190509392505050565b60006149a782614e29565b6149b18185614e52565b93506149c1818560208601614f6d565b6149ca816150d9565b840191505092915050565b60006149e082614e29565b6149ea8185614e63565b93506149fa818560208601614f6d565b614a03816150d9565b840191505092915050565b6000614a1b601383614e63565b9150614a26826150ea565b602082019050919050565b6000614a3e601683614e63565b9150614a4982615113565b602082019050919050565b6000614a61601d83614e63565b9150614a6c8261513c565b602082019050919050565b600060a083016000830151614a8f60008601826148bf565b506020830151614aa260208601826148bf565b506040830151614ab560408601826148bf565b506060830151614ac86060860182614aed565b5060808301518482036080860152614ae0828261499c565b9150508091505092915050565b614af681614f47565b82525050565b614b0581614f47565b82525050565b614b1481614f51565b82525050565b6000614b27828486614977565b91508190509392505050565b6000602082019050614b4860008301846148ce565b92915050565b6000604082019050614b6360008301856148ce565b614b7060208301846148ce565b9392505050565b600060a082019050614b8c60008301896148ce565b614b9960208301886148ce565b614ba660408301876148ce565b614bb36060830186614afc565b8181036080830152614bc681848661494a565b9050979650505050505050565b6000606082019050614be860008301866148ce565b614bf560208301856148ce565b614c026040830184614afc565b949350505050565b60006040820190508181036000830152614c2481856148dd565b9050614c336020830184614afc565b9392505050565b6000602082019050614c4f600083018461493b565b92915050565b60006020820190508181036000830152614c6f81846149d5565b905092915050565b60006020820190508181036000830152614c9081614a0e565b9050919050565b60006020820190508181036000830152614cb081614a31565b9050919050565b60006020820190508181036000830152614cd081614a54565b9050919050565b60006020820190508181036000830152614cf18184614a77565b905092915050565b6000602082019050614d0e6000830184614afc565b92915050565b6000604082019050614d296000830186614afc565b8181036020830152614d3c81848661494a565b9050949350505050565b6000602082019050614d5b6000830184614b0b565b92915050565b60008083356001602003843603038112614d7a57600080fd5b80840192508235915067ffffffffffffffff821115614d9857600080fd5b602083019250600182023603831315614db057600080fd5b509250929050565b6000614dc2614dd3565b9050614dce8282614fd2565b919050565b6000604051905090565b600067ffffffffffffffff821115614df857614df76150aa565b5b614e01826150d9565b9050602081019050919050565b6000819050602082019050919050565b600081519050919050565b600081519050919050565b6000602082019050919050565b600082825260208201905092915050565b600082825260208201905092915050565b600082825260208201905092915050565b600081905092915050565b6000614e8a82614f47565b9150614e9583614f47565b9250827fffffffffffffffffffffffffffffffffffffffffffffffffffffffffffffffff03821115614eca57614ec961504c565b5b828201905092915050565b6000614ee082614f47565b9150614eeb83614f47565b925082821015614efe57614efd61504c565b5b828203905092915050565b6000614f1482614f27565b9050919050565b60008115159050919050565b600073ffffffffffffffffffffffffffffffffffffffff82169050919050565b6000819050919050565b600060ff82169050919050565b82818337600083830152505050565b60005b83811015614f8b578082015181840152602081019050614f70565b83811115614f9a576000848401525b50505050565b60006002820490506001821680614fb857607f821691505b60208210811415614fcc57614fcb61507b565b5b50919050565b614fdb826150d9565b810181811067ffffffffffffffff82111715614ffa57614ff96150aa565b5b80604052505050565b600061500e82614f47565b91507fffffffffffffffffffffffffffffffffffffffffffffffffffffffffffffffff8214156150415761504061504c565b5b600182019050919050565b7f4e487b7100000000000000000000000000000000000000000000000000000000600052601160045260246000fd5b7f4e487b7100000000000000000000000000000000000000000000000000000000600052602260045260246000fd5b7f4e487b7100000000000000000000000000000000000000000000000000000000600052604160045260246000fd5b6000601f19601f8301169050919050565b7f42616c616e636520697320706f73697469766500000000000000000000000000600082015250565b7f4164647265737320616c726561647920696e2073657400000000000000000000600082015250565b7f4164647265737320646f6573206e6f7420657869737420696e20736574000000600082015250565b61516e81614f09565b811461517957600080fd5b50565b61518581614f1b565b811461519057600080fd5b50565b61519c81614f47565b81146151a757600080fd5b50565b6151b381614f51565b81146151be57600080fd5b5056fe526571756972657320646966666572656e742073656e64657220616e6420726563697069656e74a26469706673582212208c648f876debab71005e652fae173d5496aeaa1cdb4b2186cd8a67deb63c5c2564736f6c63430008040033",
  "devdoc": {
    "kind": "dev",
    "methods": {
      "allowance(address,address)": {
        "details": "Returns the remaining number of tokens that `spender` will be allowed to spend on behalf of `owner` through {transferFrom}. This is zero by default. This value changes when {approve} or {transferFrom} are called."
      },
      "approve(address,uint256)": {
        "details": "Sets `amount` as the allowance of `spender` over the caller's tokens. Returns a boolean value indicating whether the operation succeeded. IMPORTANT: Beware that changing an allowance with this method brings the risk that someone may use both the old and the new allowance by unfortunate transaction ordering. One possible solution to mitigate this race condition is to first reduce the spender's allowance to 0 and set the desired value afterwards: https://github.com/ethereum/EIPs/issues/20#issuecomment-263524729 Emits an {Approval} event."
      },
      "totalSupply()": {
        "details": "Returns the amount of tokens in existence."
      }
    },
    "version": 1
  },
  "userdoc": {
    "kind": "user",
    "methods": {},
    "version": 1
  },
  "storageLayout": {
    "storage": [],
    "types": null
  }
}