{
  "address": "0x70756DB961CA1dAdEA7c0c6c2DFf7A3fc7E655b6",
  "abi": [
    {
      "anonymous": false,
      "inputs": [
        {
          "indexed": true,
          "internalType": "address",
          "name": "owner",
          "type": "address"
        },
        {
          "indexed": true,
          "internalType": "address",
          "name": "spender",
          "type": "address"
        },
        {
          "indexed": false,
          "internalType": "uint256",
          "name": "value",
          "type": "uint256"
        }
      ],
      "name": "Approval",
      "type": "event"
    },
    {
      "anonymous": false,
      "inputs": [
        {
          "indexed": true,
          "internalType": "uint256",
          "name": "amount",
          "type": "uint256"
        },
        {
          "indexed": true,
          "internalType": "string",
          "name": "ref",
          "type": "string"
        }
      ],
      "name": "Burnt",
      "type": "event"
    },
    {
      "anonymous": false,
      "inputs": [
        {
          "indexed": false,
          "internalType": "uint256",
          "name": "memberCount",
          "type": "uint256"
        },
        {
          "indexed": false,
          "internalType": "uint256",
          "name": "governorCount",
          "type": "uint256"
        },
        {
          "indexed": false,
          "internalType": "uint256",
          "name": "totalSupply",
          "type": "uint256"
        },
        {
          "indexed": false,
          "internalType": "uint256",
          "name": "transferCredits",
          "type": "uint256"
        },
        {
          "indexed": false,
          "internalType": "uint256",
          "name": "reserveBalance",
          "type": "uint256"
        },
        {
          "indexed": false,
          "internalType": "uint256",
          "name": "ethBalance",
          "type": "uint256"
        }
      ],
      "name": "DetailsChanged",
      "type": "event"
    },
    {
      "anonymous": false,
      "inputs": [
        {
          "indexed": true,
          "internalType": "address",
          "name": "owner",
          "type": "address"
        },
        {
          "indexed": true,
          "internalType": "address",
          "name": "spender",
          "type": "address"
        }
      ],
      "name": "Disapproval",
      "type": "event"
    },
    {
      "anonymous": false,
      "inputs": [
        {
          "indexed": true,
          "internalType": "address",
          "name": "to",
          "type": "address"
        },
        {
          "indexed": false,
          "internalType": "uint256",
          "name": "amount",
          "type": "uint256"
        }
      ],
      "name": "EthDrained",
      "type": "event"
    },
    {
      "anonymous": false,
      "inputs": [
        {
          "indexed": true,
          "internalType": "address",
          "name": "from",
          "type": "address"
        },
        {
          "indexed": false,
          "internalType": "uint256",
          "name": "amount",
          "type": "uint256"
        }
      ],
      "name": "EthReceived",
      "type": "event"
    },
    {
      "anonymous": false,
      "inputs": [
        {
          "indexed": true,
          "internalType": "address",
          "name": "governor",
          "type": "address"
        }
      ],
      "name": "GovernorAdded",
      "type": "event"
    },
    {
      "anonymous": false,
      "inputs": [
        {
          "indexed": true,
          "internalType": "address",
          "name": "governor",
          "type": "address"
        }
      ],
      "name": "GovernorRemoved",
      "type": "event"
    },
    {
      "anonymous": false,
      "inputs": [
        {
          "indexed": true,
          "internalType": "address",
          "name": "member",
          "type": "address"
        }
      ],
      "name": "MemberAdded",
      "type": "event"
    },
    {
      "anonymous": false,
      "inputs": [
        {
          "indexed": true,
          "internalType": "address",
          "name": "member",
          "type": "address"
        }
      ],
      "name": "MemberRemoved",
      "type": "event"
    },
    {
      "anonymous": false,
      "inputs": [
        {
          "indexed": true,
          "internalType": "uint256",
          "name": "amount",
          "type": "uint256"
        },
        {
          "indexed": true,
          "internalType": "string",
          "name": "ref",
          "type": "string"
        }
      ],
      "name": "Minted",
      "type": "event"
    },
    {
      "anonymous": false,
      "inputs": [
        {
          "indexed": true,
          "internalType": "address",
          "name": "from",
          "type": "address"
        },
        {
          "indexed": true,
          "internalType": "address",
          "name": "to",
          "type": "address"
        },
        {
          "indexed": false,
          "internalType": "uint256",
          "name": "value",
          "type": "uint256"
        }
      ],
      "name": "Transfer",
      "type": "event"
    },
    {
      "anonymous": false,
      "inputs": [
        {
          "indexed": true,
          "internalType": "address",
          "name": "spcMember",
          "type": "address"
        },
        {
          "indexed": false,
          "internalType": "uint256",
          "name": "amount",
          "type": "uint256"
        }
      ],
      "name": "TransferCreditsAdded",
      "type": "event"
    },
    {
      "anonymous": false,
      "inputs": [
        {
          "indexed": true,
          "internalType": "address",
          "name": "spcMember",
          "type": "address"
        },
        {
          "indexed": false,
          "internalType": "uint256",
          "name": "amount",
          "type": "uint256"
        }
      ],
      "name": "TransferCreditsDrained",
      "type": "event"
    },
    {
      "inputs": [
        {
          "internalType": "address",
          "name": "member",
          "type": "address"
        }
      ],
      "name": "detailedMember",
      "outputs": [
        {
          "components": [
            {
              "internalType": "address",
              "name": "addr",
              "type": "address"
            },
            {
              "internalType": "uint256",
              "name": "balance",
              "type": "uint256"
            },
            {
              "internalType": "uint256",
              "name": "ethBalance",
              "type": "uint256"
            },
            {
              "internalType": "bool",
              "name": "isGovernor",
              "type": "bool"
            }
          ],
          "internalType": "struct FastFrontendFacet.MemberDetails",
          "name": "",
          "type": "tuple"
        }
      ],
      "stateMutability": "view",
      "type": "function"
    },
    {
      "inputs": [],
      "name": "details",
      "outputs": [
        {
          "components": [
            {
              "internalType": "address",
              "name": "addr",
              "type": "address"
            },
            {
              "internalType": "string",
              "name": "name",
              "type": "string"
            },
            {
              "internalType": "string",
              "name": "symbol",
              "type": "string"
            },
            {
              "internalType": "uint256",
              "name": "decimals",
              "type": "uint256"
            },
            {
              "internalType": "uint256",
              "name": "totalSupply",
              "type": "uint256"
            },
            {
              "internalType": "uint256",
              "name": "transferCredits",
              "type": "uint256"
            },
            {
              "internalType": "bool",
              "name": "isSemiPublic",
              "type": "bool"
            },
            {
              "internalType": "bool",
              "name": "hasFixedSupply",
              "type": "bool"
            },
            {
              "internalType": "uint256",
              "name": "reserveBalance",
              "type": "uint256"
            },
            {
              "internalType": "uint256",
              "name": "ethBalance",
              "type": "uint256"
            },
            {
              "internalType": "uint256",
              "name": "memberCount",
              "type": "uint256"
            },
            {
              "internalType": "uint256",
              "name": "governorCount",
              "type": "uint256"
            }
          ],
          "internalType": "struct FastFrontendFacet.Details",
          "name": "",
          "type": "tuple"
        }
      ],
      "stateMutability": "view",
      "type": "function"
    },
    {
      "inputs": [],
      "name": "emitDetailsChanged",
      "outputs": [],
      "stateMutability": "nonpayable",
      "type": "function"
    },
    {
      "inputs": [
        {
          "internalType": "uint256",
          "name": "index",
          "type": "uint256"
        },
        {
          "internalType": "uint256",
          "name": "perPage",
          "type": "uint256"
        }
      ],
      "name": "paginateDetailedMembers",
      "outputs": [
        {
          "components": [
            {
              "internalType": "address",
              "name": "addr",
              "type": "address"
            },
            {
              "internalType": "uint256",
              "name": "balance",
              "type": "uint256"
            },
            {
              "internalType": "uint256",
              "name": "ethBalance",
              "type": "uint256"
            },
            {
              "internalType": "bool",
              "name": "isGovernor",
              "type": "bool"
            }
          ],
          "internalType": "struct FastFrontendFacet.MemberDetails[]",
          "name": "",
          "type": "tuple[]"
        },
        {
          "internalType": "uint256",
          "name": "",
          "type": "uint256"
        }
      ],
      "stateMutability": "view",
      "type": "function"
    }
  ],
  "transactionHash": "0x0a2f3a93fb0d95371acc20b106985ce1459cd47923dd6dc0b9175d5d12d0a334",
  "args": [],
  "numDeployments": 1,
  "solcInputHash": "d76831fe40e36e5ba2cbb20807ac3791",
  "bytecode": "0x608060405234801561001057600080fd5b506111d2806100206000396000f3fe608060405234801561001057600080fd5b506004361061004c5760003560e01c80634f2274c014610051578063565974d31461005b57806388a91524146100795780639f4c440b146100a9575b600080fd5b6100596100da565b005b610063610252565b6040516100709190610e7b565b60405180910390f35b610093600480360381019061008e9190610aeb565b6104a4565b6040516100a09190610e9d565b60405180910390f35b6100c360048036038101906100be9190610b14565b610573565b6040516100d1929190610e29565b60405180910390f35b3073ffffffffffffffffffffffffffffffffffffffff163373ffffffffffffffffffffffffffffffffffffffff16146040518060400160405280600f81526020017f496e7465726e616c206d6574686f64000000000000000000000000000000000081525090610180576040517f08c379a00000000000000000000000000000000000000000000000000000000081526004016101779190610e59565b60405180910390fd5b50600061018b6106d5565b905060006101976106fd565b90507f3f34e05a7df519b3b9e1ab85fab4e26555d5863f50b821555768b78d8600e4af82600301600101805490508360010160010180549050836004015484600501548560060160008073ffffffffffffffffffffffffffffffffffffffff1673ffffffffffffffffffffffffffffffffffffffff168152602001908152602001600020543073ffffffffffffffffffffffffffffffffffffffff163160405161024696959493929190610eb8565b60405180910390a15050565b61025a610a06565b6000610264610725565b905060006102706106d5565b9050600061027c6106fd565b90506040518061018001604052803073ffffffffffffffffffffffffffffffffffffffff1681526020018260010180546102b590611084565b80601f01602080910402602001604051908101604052809291908181526020018280546102e190611084565b801561032e5780601f106103035761010080835404028352916020019161032e565b820191906000526020600020905b81548152906001019060200180831161031157829003601f168201915b5050505050815260200182600201805461034790611084565b80601f016020809104026020016040519081016040528092919081815260200182805461037390611084565b80156103c05780601f10610395576101008083540402835291602001916103c0565b820191906000526020600020905b8154815290600101906020018083116103a357829003601f168201915b505050505081526020018260030154815260200182600401548152602001826005015481526020018460010160159054906101000a900460ff16151581526020018460010160149054906101000a900460ff16151581526020018260060160008073ffffffffffffffffffffffffffffffffffffffff1673ffffffffffffffffffffffffffffffffffffffff1681526020019081526020016000205481526020013073ffffffffffffffffffffffffffffffffffffffff16318152602001836003016001018054905081526020018360010160010180549050815250935050505090565b6104ac610a81565b60006104b66106fd565b905060006104c26106d5565b905060405180608001604052808573ffffffffffffffffffffffffffffffffffffffff1681526020018360060160008773ffffffffffffffffffffffffffffffffffffffff1673ffffffffffffffffffffffffffffffffffffffff1681526020019081526020016000205481526020018573ffffffffffffffffffffffffffffffffffffffff16318152602001610565868460010161074d90919063ffffffff16565b151581525092505050919050565b60606000806105806106d5565b9050600080610596836003016001018888610843565b915091506000825167ffffffffffffffff8111156105dd577f4e487b7100000000000000000000000000000000000000000000000000000000600052604160045260246000fd5b60405190808252806020026020018201604052801561061657816020015b610603610a81565b8152602001906001900390816105fb5790505b50905060005b83518110156106c35761066e848281518110610661577f4e487b7100000000000000000000000000000000000000000000000000000000600052603260045260246000fd5b60200260200101516104a4565b8282815181106106a7577f4e487b7100000000000000000000000000000000000000000000000000000000600052603260045260246000fd5b6020026020010181905250806106bc906110b6565b905061061c565b50808295509550505050509250929050565b60007f87ed8063ac9ead3b2eb7551ed3d89b29fcbf44d6733084b5c82e95d5120ece9a905090565b60007fb098747b87c5c0e2a32eb9b06725e9bad4263809bcda628ceadc1a686bcb8261905090565b60007f80c187ea6f955fd624c41fb7a18011cc87d98c6f4c06d897b59142f65707e705905090565b600080836001018054905014610838578173ffffffffffffffffffffffffffffffffffffffff16836001018460000160008573ffffffffffffffffffffffffffffffffffffffff1673ffffffffffffffffffffffffffffffffffffffff16815260200190815260200160002054815481106107f1577f4e487b7100000000000000000000000000000000000000000000000000000000600052603260045260246000fd5b9060005260206000200160009054906101000a900473ffffffffffffffffffffffffffffffffffffffff1673ffffffffffffffffffffffffffffffffffffffff161461083b565b60005b905092915050565b60606000808486805490506108589190610fd5565b84116108645783610875565b8486805490506108749190610fd5565b5b905060008167ffffffffffffffff8111156108b9577f4e487b7100000000000000000000000000000000000000000000000000000000600052604160045260246000fd5b6040519080825280602002602001820160405280156108e75781602001602082028036833780820191505090505b50905060005b828110156109ea578781886109029190610f7f565b81548110610939577f4e487b7100000000000000000000000000000000000000000000000000000000600052603260045260246000fd5b9060005260206000200160009054906101000a900473ffffffffffffffffffffffffffffffffffffffff1682828151811061099d577f4e487b7100000000000000000000000000000000000000000000000000000000600052603260045260246000fd5b602002602001019073ffffffffffffffffffffffffffffffffffffffff16908173ffffffffffffffffffffffffffffffffffffffff168152505080806109e2906110b6565b9150506108ed565b508082876109f89190610f7f565b935093505050935093915050565b604051806101800160405280600073ffffffffffffffffffffffffffffffffffffffff1681526020016060815260200160608152602001600081526020016000815260200160008152602001600015158152602001600015158152602001600081526020016000815260200160008152602001600081525090565b6040518060800160405280600073ffffffffffffffffffffffffffffffffffffffff16815260200160008152602001600081526020016000151581525090565b600081359050610ad08161116e565b92915050565b600081359050610ae581611185565b92915050565b600060208284031215610afd57600080fd5b6000610b0b84828501610ac1565b91505092915050565b60008060408385031215610b2757600080fd5b6000610b3585828601610ad6565b9250506020610b4685828601610ad6565b9150509250929050565b6000610b5c8383610d61565b60808301905092915050565b610b7181611009565b82525050565b6000610b8282610f29565b610b8c8185610f4c565b9350610b9783610f19565b8060005b83811015610bc8578151610baf8882610b50565b9750610bba83610f3f565b925050600181019050610b9b565b5085935050505092915050565b610bde8161101b565b82525050565b6000610bef82610f34565b610bf98185610f5d565b9350610c09818560208601611051565b610c128161115d565b840191505092915050565b6000610c2882610f34565b610c328185610f6e565b9350610c42818560208601611051565b610c4b8161115d565b840191505092915050565b600061018083016000830151610c6f6000860182610b68565b5060208301518482036020860152610c878282610be4565b91505060408301518482036040860152610ca18282610be4565b9150506060830151610cb66060860182610e0b565b506080830151610cc96080860182610e0b565b5060a0830151610cdc60a0860182610e0b565b5060c0830151610cef60c0860182610bd5565b5060e0830151610d0260e0860182610bd5565b50610100830151610d17610100860182610e0b565b50610120830151610d2c610120860182610e0b565b50610140830151610d41610140860182610e0b565b50610160830151610d56610160860182610e0b565b508091505092915050565b608082016000820151610d776000850182610b68565b506020820151610d8a6020850182610e0b565b506040820151610d9d6040850182610e0b565b506060820151610db06060850182610bd5565b50505050565b608082016000820151610dcc6000850182610b68565b506020820151610ddf6020850182610e0b565b506040820151610df26040850182610e0b565b506060820151610e056060850182610bd5565b50505050565b610e1481611047565b82525050565b610e2381611047565b82525050565b60006040820190508181036000830152610e438185610b77565b9050610e526020830184610e1a565b9392505050565b60006020820190508181036000830152610e738184610c1d565b905092915050565b60006020820190508181036000830152610e958184610c56565b905092915050565b6000608082019050610eb26000830184610db6565b92915050565b600060c082019050610ecd6000830189610e1a565b610eda6020830188610e1a565b610ee76040830187610e1a565b610ef46060830186610e1a565b610f016080830185610e1a565b610f0e60a0830184610e1a565b979650505050505050565b6000819050602082019050919050565b600081519050919050565b600081519050919050565b6000602082019050919050565b600082825260208201905092915050565b600082825260208201905092915050565b600082825260208201905092915050565b6000610f8a82611047565b9150610f9583611047565b9250827fffffffffffffffffffffffffffffffffffffffffffffffffffffffffffffffff03821115610fca57610fc96110ff565b5b828201905092915050565b6000610fe082611047565b9150610feb83611047565b925082821015610ffe57610ffd6110ff565b5b828203905092915050565b600061101482611027565b9050919050565b60008115159050919050565b600073ffffffffffffffffffffffffffffffffffffffff82169050919050565b6000819050919050565b60005b8381101561106f578082015181840152602081019050611054565b8381111561107e576000848401525b50505050565b6000600282049050600182168061109c57607f821691505b602082108114156110b0576110af61112e565b5b50919050565b60006110c182611047565b91507fffffffffffffffffffffffffffffffffffffffffffffffffffffffffffffffff8214156110f4576110f36110ff565b5b600182019050919050565b7f4e487b7100000000000000000000000000000000000000000000000000000000600052601160045260246000fd5b7f4e487b7100000000000000000000000000000000000000000000000000000000600052602260045260246000fd5b6000601f19601f8301169050919050565b61117781611009565b811461118257600080fd5b50565b61118e81611047565b811461119957600080fd5b5056fea26469706673582212204d01d5d35511653189f7b4bf90a40c0f95c3741a347de20c9e462fb8e4f366e764736f6c63430008040033",
  "devdoc": {
    "kind": "dev",
    "methods": {},
    "version": 1
  },
  "userdoc": {
    "kind": "user",
    "methods": {},
    "version": 1
  },
  "storageLayout": {
    "storage": [],
    "types": null
  }
}