{
  "address": "0x9c6dC91c1A864F501Cb0fC4ca703E078E3705AFc",
  "abi": [
    {
      "inputs": [],
      "name": "InternalMethod",
      "type": "error"
    },
    {
      "anonymous": false,
      "inputs": [
        {
          "indexed": true,
          "internalType": "address",
          "name": "owner",
          "type": "address"
        },
        {
          "indexed": true,
          "internalType": "address",
          "name": "spender",
          "type": "address"
        },
        {
          "indexed": false,
          "internalType": "uint256",
          "name": "value",
          "type": "uint256"
        }
      ],
      "name": "Approval",
      "type": "event"
    },
    {
      "anonymous": false,
      "inputs": [
        {
          "indexed": true,
          "internalType": "uint256",
          "name": "amount",
          "type": "uint256"
        },
        {
          "indexed": false,
          "internalType": "string",
          "name": "ref",
          "type": "string"
        },
        {
          "indexed": true,
          "internalType": "address",
          "name": "who",
          "type": "address"
        }
      ],
      "name": "Burnt",
      "type": "event"
    },
    {
      "anonymous": false,
      "inputs": [
        {
          "indexed": true,
          "internalType": "uint32",
          "name": "basisPointFee",
          "type": "uint32"
        }
      ],
      "name": "CrowdfundDefaultBasisPointFeeSet",
      "type": "event"
    },
    {
      "anonymous": false,
      "inputs": [
        {
          "indexed": true,
          "internalType": "contract Crowdfund",
          "name": "crowdfund",
          "type": "address"
        }
      ],
      "name": "CrowdfundDeployed",
      "type": "event"
    },
    {
      "anonymous": false,
      "inputs": [
        {
          "indexed": true,
          "internalType": "contract Crowdfund",
          "name": "crowdfund",
          "type": "address"
        }
      ],
      "name": "CrowdfundRemoved",
      "type": "event"
    },
    {
      "anonymous": false,
      "inputs": [
        {
          "indexed": false,
          "internalType": "bool",
          "name": "transfersDisabled",
          "type": "bool"
        },
        {
          "indexed": false,
          "internalType": "uint32",
          "name": "crowdfundsDefaultBasisPointsFee",
          "type": "uint32"
        },
        {
          "indexed": false,
          "internalType": "uint256",
          "name": "memberCount",
          "type": "uint256"
        },
        {
          "indexed": false,
          "internalType": "uint256",
          "name": "governorCount",
          "type": "uint256"
        },
        {
          "indexed": false,
          "internalType": "uint256",
          "name": "totalSupply",
          "type": "uint256"
        },
        {
          "indexed": false,
          "internalType": "uint256",
          "name": "reserveBalance",
          "type": "uint256"
        }
      ],
      "name": "DetailsChanged",
      "type": "event"
    },
    {
      "anonymous": false,
      "inputs": [
        {
          "indexed": true,
          "internalType": "address",
          "name": "owner",
          "type": "address"
        },
        {
          "indexed": true,
          "internalType": "address",
          "name": "spender",
          "type": "address"
        },
        {
          "indexed": false,
          "internalType": "uint256",
          "name": "value",
          "type": "uint256"
        }
      ],
      "name": "Disapproval",
      "type": "event"
    },
    {
      "anonymous": false,
      "inputs": [
        {
          "indexed": true,
          "internalType": "contract Distribution",
          "name": "distribution",
          "type": "address"
        }
      ],
      "name": "DistributionDeployed",
      "type": "event"
    },
    {
      "anonymous": false,
      "inputs": [
        {
          "indexed": true,
          "internalType": "contract Distribution",
          "name": "distribution",
          "type": "address"
        }
      ],
      "name": "DistributionRemoved",
      "type": "event"
    },
    {
      "anonymous": false,
      "inputs": [
        {
          "indexed": true,
          "internalType": "address",
          "name": "spender",
          "type": "address"
        },
        {
          "indexed": true,
          "internalType": "address",
          "name": "from",
          "type": "address"
        },
        {
          "indexed": true,
          "internalType": "address",
          "name": "to",
          "type": "address"
        },
        {
          "indexed": false,
          "internalType": "uint256",
          "name": "value",
          "type": "uint256"
        },
        {
          "indexed": false,
          "internalType": "string",
          "name": "ref",
          "type": "string"
        }
      ],
      "name": "FastTransfer",
      "type": "event"
    },
    {
      "anonymous": false,
      "inputs": [
        {
          "indexed": true,
          "internalType": "uint256",
          "name": "amount",
          "type": "uint256"
        },
        {
          "indexed": false,
          "internalType": "string",
          "name": "ref",
          "type": "string"
        },
        {
          "indexed": true,
          "internalType": "address",
          "name": "who",
          "type": "address"
        }
      ],
      "name": "Minted",
      "type": "event"
    },
    {
      "anonymous": false,
      "inputs": [
        {
          "indexed": true,
          "internalType": "address",
          "name": "from",
          "type": "address"
        },
        {
          "indexed": true,
          "internalType": "address",
          "name": "to",
          "type": "address"
        },
        {
          "indexed": false,
          "internalType": "uint256",
          "name": "value",
          "type": "uint256"
        }
      ],
      "name": "Transfer",
      "type": "event"
    },
    {
      "inputs": [
        {
          "internalType": "uint256",
          "name": "amount",
          "type": "uint256"
        },
        {
          "internalType": "string",
          "name": "ref",
          "type": "string"
        }
      ],
      "name": "burnt",
      "outputs": [],
      "stateMutability": "nonpayable",
      "type": "function"
    },
    {
      "inputs": [
        {
          "internalType": "uint256",
          "name": "amount",
          "type": "uint256"
        },
        {
          "internalType": "string",
          "name": "ref",
          "type": "string"
        }
      ],
      "name": "minted",
      "outputs": [],
      "stateMutability": "nonpayable",
      "type": "function"
    },
    {
      "inputs": [
        {
          "internalType": "uint256",
          "name": "cursor",
          "type": "uint256"
        },
        {
          "internalType": "uint256",
          "name": "perPage",
          "type": "uint256"
        }
      ],
      "name": "paginateSupplyProofs",
      "outputs": [
        {
          "components": [
            {
              "internalType": "enum LibFastHistory.SupplyOp",
              "name": "op",
              "type": "uint8"
            },
            {
              "internalType": "uint256",
              "name": "amount",
              "type": "uint256"
            },
            {
              "internalType": "uint256",
              "name": "blockNumber",
              "type": "uint256"
            },
            {
              "internalType": "string",
              "name": "ref",
              "type": "string"
            }
          ],
          "internalType": "struct LibFastHistory.SupplyProof[]",
          "name": "",
          "type": "tuple[]"
        },
        {
          "internalType": "uint256",
          "name": "",
          "type": "uint256"
        }
      ],
      "stateMutability": "view",
      "type": "function"
    },
    {
      "inputs": [
        {
          "internalType": "address",
          "name": "involvee",
          "type": "address"
        },
        {
          "internalType": "uint256",
          "name": "cursor",
          "type": "uint256"
        },
        {
          "internalType": "uint256",
          "name": "perPage",
          "type": "uint256"
        }
      ],
      "name": "paginateTransferProofIndicesByInvolvee",
      "outputs": [
        {
          "internalType": "uint256[]",
          "name": "",
          "type": "uint256[]"
        },
        {
          "internalType": "uint256",
          "name": "",
          "type": "uint256"
        }
      ],
      "stateMutability": "view",
      "type": "function"
    },
    {
      "inputs": [
        {
          "internalType": "uint256",
          "name": "cursor",
          "type": "uint256"
        },
        {
          "internalType": "uint256",
          "name": "perPage",
          "type": "uint256"
        }
      ],
      "name": "paginateTransferProofs",
      "outputs": [
        {
          "components": [
            {
              "internalType": "address",
              "name": "spender",
              "type": "address"
            },
            {
              "internalType": "address",
              "name": "from",
              "type": "address"
            },
            {
              "internalType": "address",
              "name": "to",
              "type": "address"
            },
            {
              "internalType": "uint256",
              "name": "amount",
              "type": "uint256"
            },
            {
              "internalType": "uint256",
              "name": "blockNumber",
              "type": "uint256"
            },
            {
              "internalType": "string",
              "name": "ref",
              "type": "string"
            }
          ],
          "internalType": "struct LibFastHistory.TransferProof[]",
          "name": "",
          "type": "tuple[]"
        },
        {
          "internalType": "uint256",
          "name": "",
          "type": "uint256"
        }
      ],
      "stateMutability": "view",
      "type": "function"
    },
    {
      "inputs": [
        {
          "internalType": "address",
          "name": "involvee",
          "type": "address"
        },
        {
          "internalType": "uint256",
          "name": "cursor",
          "type": "uint256"
        },
        {
          "internalType": "uint256",
          "name": "perPage",
          "type": "uint256"
        }
      ],
      "name": "paginateTransferProofsByInvolvee",
      "outputs": [
        {
          "components": [
            {
              "internalType": "address",
              "name": "spender",
              "type": "address"
            },
            {
              "internalType": "address",
              "name": "from",
              "type": "address"
            },
            {
              "internalType": "address",
              "name": "to",
              "type": "address"
            },
            {
              "internalType": "uint256",
              "name": "amount",
              "type": "uint256"
            },
            {
              "internalType": "uint256",
              "name": "blockNumber",
              "type": "uint256"
            },
            {
              "internalType": "string",
              "name": "ref",
              "type": "string"
            }
          ],
          "internalType": "struct LibFastHistory.TransferProof[]",
          "name": "",
          "type": "tuple[]"
        },
        {
          "internalType": "uint256",
          "name": "",
          "type": "uint256"
        }
      ],
      "stateMutability": "view",
      "type": "function"
    },
    {
      "inputs": [],
      "name": "supplyProofCount",
      "outputs": [
        {
          "internalType": "uint256",
          "name": "",
          "type": "uint256"
        }
      ],
      "stateMutability": "view",
      "type": "function"
    },
    {
      "inputs": [
        {
          "internalType": "address",
          "name": "involvee",
          "type": "address"
        }
      ],
      "name": "transferProofByInvolveeCount",
      "outputs": [
        {
          "internalType": "uint256",
          "name": "",
          "type": "uint256"
        }
      ],
      "stateMutability": "view",
      "type": "function"
    },
    {
      "inputs": [],
      "name": "transferProofCount",
      "outputs": [
        {
          "internalType": "uint256",
          "name": "",
          "type": "uint256"
        }
      ],
      "stateMutability": "view",
      "type": "function"
    },
    {
      "inputs": [
        {
          "internalType": "address",
          "name": "spender",
          "type": "address"
        },
        {
          "internalType": "address",
          "name": "from",
          "type": "address"
        },
        {
          "internalType": "address",
          "name": "to",
          "type": "address"
        },
        {
          "internalType": "uint256",
          "name": "amount",
          "type": "uint256"
        },
        {
          "internalType": "string",
          "name": "ref",
          "type": "string"
        }
      ],
      "name": "transfered",
      "outputs": [],
      "stateMutability": "nonpayable",
      "type": "function"
    }
  ],
  "transactionHash": "0xdf20000d5c09e5de5bb722d7249d3569e66fa31fbb73ac40dc274d23406f3366",
  "args": [],
  "numDeployments": 20,
  "solcInputHash": "ae37b02f403b73e57f2c96f8cb1c4832",
  "bytecode": "0x608060405234801561001057600080fd5b506114eb806100206000396000f3fe608060405234801561001057600080fd5b50600436106100be5760003560e01c8063b74977bb11610076578063f30014d91161005b578063f30014d9146101e3578063f4b54f3314610204578063f4c1210c1461021757600080fd5b8063b74977bb146101af578063eee2dcc3146101d057600080fd5b8063663f898e116100a7578063663f898e1461011e578063a2d14f7014610173578063af2e757b1461019a57600080fd5b8063538be4ac146100c35780635537a67a146100ed575b600080fd5b6100d66100d1366004610f79565b61022a565b6040516100e4929190610fac565b60405180910390f35b7f6bc8b61a9dd5fc049ea98027492a801d74e35fdf4d80d7fecd551a16e88fdbb6545b6040519081526020016100e4565b61011061012c366004610ff4565b73ffffffffffffffffffffffffffffffffffffffff1660009081527f6bc8b61a9dd5fc049ea98027492a801d74e35fdf4d80d7fecd551a16e88fdbb7602052604090205490565b7f6bc8b61a9dd5fc049ea98027492a801d74e35fdf4d80d7fecd551a16e88fdbb554610110565b6101ad6101a8366004611058565b610289565b005b6101c26101bd3660046110a4565b6103cd565b6040516100e4929190611160565b6101ad6101de366004611247565b610408565b6101f66101f1366004610f79565b610624565b6040516100e49291906112c6565b6101f66102123660046110a4565b610909565b6101ad610225366004611058565b610938565b73ffffffffffffffffffffffffffffffffffffffff831660009081527f6bc8b61a9dd5fc049ea98027492a801d74e35fdf4d80d7fecd551a16e88fdbb7602052604081206060919061027d9085856109a6565b91509150935093915050565b3033146102c2576040517f12e9ad3300000000000000000000000000000000000000000000000000000000815260040160405180910390fd5b60408051608081019091527f6bc8b61a9dd5fc049ea98027492a801d74e35fdf4d80d7fecd551a16e88fdbb5908060005b815260200185815260200143815260200184848080601f01602080910402602001604051908101604052809392919081815260200183838082843760009201829052509390945250508354600181810186559482526020909120835160049092020180549394909391925083917fffffffffffffffffffffffffffffffffffffffffffffffffffffffffffffff0016908381811115610394576103946110c6565b0217905550602082810151600183015560408301516002830155606083015180516103c59260038501920190610eb7565b505050505050565b606060006103fc7f6bc8b61a9dd5fc049ea98027492a801d74e35fdf4d80d7fecd551a16e88fdbb58585610a8d565b915091505b9250929050565b303314610441576040517f12e9ad3300000000000000000000000000000000000000000000000000000000815260040160405180910390fd5b73ffffffffffffffffffffffffffffffffffffffff85811660008181527f6bc8b61a9dd5fc049ea98027492a801d74e35fdf4d80d7fecd551a16e88fdbb7602090815260408083207f6bc8b61a9dd5fc049ea98027492a801d74e35fdf4d80d7fecd551a16e88fdbb6805482546001808201855593875285872001558a87168086528386208254815494850182559087529585902090920194909455815160c081018352958c1686528583019490945284810193909352606084018790524360808501528251601f86018290048202810182019093528483527f6bc8b61a9dd5fc049ea98027492a801d74e35fdf4d80d7fecd551a16e88fdbb493919260a083019187908790819084018382808284376000920182905250939094525050835460018082018655948252602091829020845160069092020180547fffffffffffffffffffffffff000000000000000000000000000000000000000090811673ffffffffffffffffffffffffffffffffffffffff9384161782558584015196820180548216978416979097179096556040850151600282018054909716921691909117909455606083015160038501556080830151600485015560a08301518051939493610618935060058501929190910190610eb7565b50505050505050505050565b73ffffffffffffffffffffffffffffffffffffffff831660009081527f6bc8b61a9dd5fc049ea98027492a801d74e35fdf4d80d7fecd551a16e88fdbb7602052604081208054606092917f6bc8b61a9dd5fc049ea98027492a801d74e35fdf4d80d7fecd551a16e88fdbb491839061069d9088906113d4565b86116106a957856106b6565b81546106b69088906113d4565b905060008167ffffffffffffffff8111156106d3576106d36113eb565b60405190808252806020026020018201604052801561077f57816020015b61076c6040518060c00160405280600073ffffffffffffffffffffffffffffffffffffffff168152602001600073ffffffffffffffffffffffffffffffffffffffff168152602001600073ffffffffffffffffffffffffffffffffffffffff1681526020016000815260200160008152602001606081525090565b8152602001906001900390816106f15790505b50905060005b828110156108ed57600285018461079c838c61141a565b815481106107ac576107ac611432565b9060005260206000200154815481106107c7576107c7611432565b60009182526020918290206040805160c0810182526006909302909101805473ffffffffffffffffffffffffffffffffffffffff90811684526001820154811694840194909452600281015490931690820152600382015460608201526004820154608082015260058201805491929160a08401919061084690611461565b80601f016020809104026020016040519081016040528092919081815260200182805461087290611461565b80156108bf5780601f10610894576101008083540402835291602001916108bf565b820191906000526020600020905b8154815290600101906020018083116108a257829003601f168201915b5050505050815250508282815181106108da576108da611432565b6020908102919091010152600101610785565b50806108f9838a61141a565b9550955050505050935093915050565b606060006103fc7f6bc8b61a9dd5fc049ea98027492a801d74e35fdf4d80d7fecd551a16e88fdbb68585610c71565b303314610971576040517f12e9ad3300000000000000000000000000000000000000000000000000000000815260040160405180910390fd5b60408051608081019091527f6bc8b61a9dd5fc049ea98027492a801d74e35fdf4d80d7fecd551a16e88fdbb5908060016102f3565b60606000808486805490506109bb91906113d4565b84116109c757836109d4565b85546109d49086906113d4565b905060008167ffffffffffffffff8111156109f1576109f16113eb565b604051908082528060200260200182016040528015610a1a578160200160208202803683370190505b50905060005b82811015610a735787610a33828961141a565b81548110610a4357610a43611432565b9060005260206000200154828281518110610a6057610a60611432565b6020908102919091010152600101610a20565b5080610a7f838861141a565b935093505050935093915050565b6060600080848680549050610aa291906113d4565b8411610aae5783610abb565b8554610abb9086906113d4565b905060008167ffffffffffffffff811115610ad857610ad86113eb565b604051908082528060200260200182016040528015610b3557816020015b610b22604080516080810190915280600081526020016000815260200160008152602001606081525090565b815260200190600190039081610af65790505b50905060005b82811015610a735787610b4e828961141a565b81548110610b5e57610b5e611432565b6000918252602090912060408051608081019091526004909202018054829060ff166001811115610b9157610b916110c6565b6001811115610ba257610ba26110c6565b81526020016001820154815260200160028201548152602001600382018054610bca90611461565b80601f0160208091040260200160405190810160405280929190818152602001828054610bf690611461565b8015610c435780601f10610c1857610100808354040283529160200191610c43565b820191906000526020600020905b815481529060010190602001808311610c2657829003601f168201915b505050505081525050828281518110610c5e57610c5e611432565b6020908102919091010152600101610b3b565b6060600080848680549050610c8691906113d4565b8411610c925783610c9f565b8554610c9f9086906113d4565b905060008167ffffffffffffffff811115610cbc57610cbc6113eb565b604051908082528060200260200182016040528015610d6857816020015b610d556040518060c00160405280600073ffffffffffffffffffffffffffffffffffffffff168152602001600073ffffffffffffffffffffffffffffffffffffffff168152602001600073ffffffffffffffffffffffffffffffffffffffff1681526020016000815260200160008152602001606081525090565b815260200190600190039081610cda5790505b50905060005b82811015610a735787610d81828961141a565b81548110610d9157610d91611432565b60009182526020918290206040805160c0810182526006909302909101805473ffffffffffffffffffffffffffffffffffffffff90811684526001820154811694840194909452600281015490931690820152600382015460608201526004820154608082015260058201805491929160a084019190610e1090611461565b80601f0160208091040260200160405190810160405280929190818152602001828054610e3c90611461565b8015610e895780601f10610e5e57610100808354040283529160200191610e89565b820191906000526020600020905b815481529060010190602001808311610e6c57829003601f168201915b505050505081525050828281518110610ea457610ea4611432565b6020908102919091010152600101610d6e565b828054610ec390611461565b90600052602060002090601f016020900481019282610ee55760008555610f2b565b82601f10610efe57805160ff1916838001178555610f2b565b82800160010185558215610f2b579182015b82811115610f2b578251825591602001919060010190610f10565b50610f37929150610f3b565b5090565b5b80821115610f375760008155600101610f3c565b803573ffffffffffffffffffffffffffffffffffffffff81168114610f7457600080fd5b919050565b600080600060608486031215610f8e57600080fd5b610f9784610f50565b95602085013595506040909401359392505050565b604080825283519082018190526000906020906060840190828701845b82811015610fe557815184529284019290840190600101610fc9565b50505092019290925292915050565b60006020828403121561100657600080fd5b61100f82610f50565b9392505050565b60008083601f84011261102857600080fd5b50813567ffffffffffffffff81111561104057600080fd5b60208301915083602082850101111561040157600080fd5b60008060006040848603121561106d57600080fd5b83359250602084013567ffffffffffffffff81111561108b57600080fd5b61109786828701611016565b9497909650939450505050565b600080604083850312156110b757600080fd5b50508035926020909101359150565b7f4e487b7100000000000000000000000000000000000000000000000000000000600052602160045260246000fd5b6000815180845260005b8181101561111b576020818501810151868301820152016110ff565b8181111561112d576000602083870101525b50601f017fffffffffffffffffffffffffffffffffffffffffffffffffffffffffffffffe0169290920160200192915050565b60006040808301818452808651808352606092508286019150828160051b8701016020808a016000805b85811015611231577fffffffffffffffffffffffffffffffffffffffffffffffffffffffffffffffa08b8603018752825160808151600281106111f4577f4e487b710000000000000000000000000000000000000000000000000000000085526021600452602485fd5b875281860151868801528a8201518b880152908901518987018290529061121d818801836110f5565b98860198965050509183019160010161118a565b5050509690960196909652509295945050505050565b60008060008060008060a0878903121561126057600080fd5b61126987610f50565b955061127760208801610f50565b945061128560408801610f50565b935060608701359250608087013567ffffffffffffffff8111156112a857600080fd5b6112b489828a01611016565b979a9699509497509295939492505050565b60006040808301818452808651808352606092508286019150828160051b8701016020808a0160005b84811015611390578984037fffffffffffffffffffffffffffffffffffffffffffffffffffffffffffffffa00186528151805173ffffffffffffffffffffffffffffffffffffffff90811686528482015181168587015289820151168986015287810151888601526080808201519086015260a09081015160c09186018290529061137c818701836110f5565b9785019795505050908201906001016112ef565b50509690960196909652509295945050505050565b7f4e487b7100000000000000000000000000000000000000000000000000000000600052601160045260246000fd5b6000828210156113e6576113e66113a5565b500390565b7f4e487b7100000000000000000000000000000000000000000000000000000000600052604160045260246000fd5b6000821982111561142d5761142d6113a5565b500190565b7f4e487b7100000000000000000000000000000000000000000000000000000000600052603260045260246000fd5b600181811c9082168061147557607f821691505b602082108114156114af577f4e487b7100000000000000000000000000000000000000000000000000000000600052602260045260246000fd5b5091905056fea26469706673582212203a79363f4b32f518547b55f368be6de120f36fbe0b506e5699168ad6f0bea7b764736f6c634300080a0033",
  "devdoc": {
    "kind": "dev",
    "methods": {
      "paginateSupplyProofs(uint256,uint256)": {
        "params": {
          "cursor": "is the zero-based index where to start fetching records.",
          "perPage": "is the number of items to return."
        },
        "returns": {
          "_0": "A `(LibFastHistory.SupplyProof[], uint256)` tuple containing a page of data and the cursor to the next page."
        }
      },
      "paginateTransferProofIndicesByInvolvee(address,uint256,uint256)": {
        "details": "This function is reading from an indexing data structure. Each index points to a record in the main transfer proof storage, and can then be found in `transferProofs` at returned indices.",
        "params": {
          "cursor": "is where to start.",
          "involvee": "is the address for which to retrieve a page of data.",
          "perPage": "is how many records at most should be returned."
        }
      },
      "paginateTransferProofs(uint256,uint256)": {
        "params": {
          "cursor": "is the zero-based index where to start fetching records.",
          "perPage": "is the number of items to return."
        },
        "returns": {
          "_0": "A `(LibFastHistory.TransferProof[], uint256)` tuple containing a page of data and the cursor to the next page."
        }
      },
      "paginateTransferProofsByInvolvee(address,uint256,uint256)": {
        "params": {
          "cursor": "is where to start.",
          "involvee": "is the address for which to fetch the data.",
          "perPage": "is how many items at most to return."
        },
        "returns": {
          "_0": "A `(LibFastHistory.TransferProof[], uint256)` tuple containing the results and the cursor to the next page."
        }
      },
      "supplyProofCount()": {
        "returns": {
          "_0": "A `uint256`."
        }
      },
      "transferProofByInvolveeCount(address)": {
        "params": {
          "involvee": "is the address for which to get the transfer proofs."
        }
      },
      "transferProofCount()": {
        "returns": {
          "_0": "A `uint256`."
        }
      }
    },
    "version": 1
  },
  "userdoc": {
    "events": {
      "Approval(address,address,uint256)": {
        "notice": "See `ERC20.Approval`."
      },
      "Burnt(uint256,string,address)": {
        "notice": "Emited whenever an burning happens in a FAST."
      },
      "CrowdfundDeployed(address)": {
        "notice": "Crowdfund related events."
      },
      "DetailsChanged(bool,uint32,uint256,uint256,uint256,uint256)": {
        "notice": "This is an event that is fired whenever any of some of the FAST parameters change, so that the frontend can react to it and refresh the general header for that fast as well as the baseball cards in the FASTs list."
      },
      "Disapproval(address,address,uint256)": {
        "notice": "See `ERC20.Disapproval`."
      },
      "DistributionDeployed(address)": {
        "notice": "Distribution related events."
      },
      "FastTransfer(address,address,address,uint256,string)": {
        "notice": "As we augmented the ERC20 standard with a few concepts, we emit our custom events in addition to the ERC20 ones."
      },
      "Minted(uint256,string,address)": {
        "notice": "Emited whenever an issuance happens in a FAST."
      },
      "Transfer(address,address,uint256)": {
        "notice": "See `ERC20.Transfer`."
      }
    },
    "kind": "user",
    "methods": {
      "burnt(uint256,string)": {
        "notice": "This method is a callback for other facets to signal whenever new tokens are burnt. Business logic: - Requires that the caller must be another facet. - Adds a supply proof item of type `LibFastHistory.SupplyOp.Burn` on top of the stack."
      },
      "minted(uint256,string)": {
        "notice": "This method is a callback for other facets to signal whenever new tokens are minted. Business logic: - Requires that the caller must be another facet. - Adds a supply proof item of type `LibFastHistory.SupplyOp.Mint` on top of the stack."
      },
      "paginateSupplyProofs(uint256,uint256)": {
        "notice": "Returns a page of supply proofs (minting and burning together)."
      },
      "paginateTransferProofIndicesByInvolvee(address,uint256,uint256)": {
        "notice": "Returns pages of indices of past inbound and outbound transfer proofs by involvee."
      },
      "paginateTransferProofs(uint256,uint256)": {
        "notice": "Returns a page of transfer proofs."
      },
      "paginateTransferProofsByInvolvee(address,uint256,uint256)": {
        "notice": "Returns a page of inbound and outbound transfer proofs based on an involvee.#"
      },
      "supplyProofCount()": {
        "notice": "Returns the number of supply proofs (minting and burning together) ever created."
      },
      "transferProofByInvolveeCount(address)": {
        "notice": "Counts all past inbound and outbound transfers involving a given address."
      },
      "transferProofCount()": {
        "notice": "Returns the number of transfer proofs ever created."
      },
      "transfered(address,address,address,uint256,string)": {
        "notice": "This method is a callback for other facets to signal whenever a transfer has completed successfuly. Business logic: - Requires that the caller must be another facet. - Keeps track of the operation in various tracking structures, so that it can be queried later by `sender` and `recipient`. - Pushes a transfer proof to the main transfer proof tracking stack."
      }
    },
    "notice": "Although past events could be scrapped from the chain, we want to the frontend to be capable of listing past transfers and minting / burning events. This facet is in charge of performing archival of these things.",
    "version": 1
  },
  "storageLayout": {
    "storage": [],
    "types": null
  }
}