{
  "address": "0x9C3fF08Fb23D2B5373A7948529E9066e960F0792",
  "abi": [
    {
      "inputs": [],
      "name": "InternalMethod",
      "type": "error"
    },
    {
      "inputs": [],
      "name": "RequiresContinuousSupply",
      "type": "error"
    },
    {
      "inputs": [
        {
          "internalType": "address",
          "name": "a",
          "type": "address"
        }
      ],
      "name": "RequiresDifferentSenderAndRecipient",
      "type": "error"
    },
    {
      "inputs": [
        {
          "internalType": "address",
          "name": "who",
          "type": "address"
        }
      ],
      "name": "RequiresFastGovernorship",
      "type": "error"
    },
    {
      "inputs": [
        {
          "internalType": "address",
          "name": "who",
          "type": "address"
        }
      ],
      "name": "RequiresFastMembership",
      "type": "error"
    },
    {
      "inputs": [
        {
          "internalType": "address",
          "name": "who",
          "type": "address"
        }
      ],
      "name": "RequiresIssuerMembership",
      "type": "error"
    },
    {
      "inputs": [
        {
          "internalType": "address",
          "name": "who",
          "type": "address"
        }
      ],
      "name": "RequiresMarketplaceActiveMember",
      "type": "error"
    },
    {
      "inputs": [
        {
          "internalType": "address",
          "name": "who",
          "type": "address"
        }
      ],
      "name": "RequiresMarketplaceMembership",
      "type": "error"
    },
    {
      "inputs": [
        {
          "internalType": "address",
          "name": "holder",
          "type": "address"
        }
      ],
      "name": "RequiresPositiveBalance",
      "type": "error"
    },
    {
      "inputs": [],
      "name": "UnsupportedOperation",
      "type": "error"
    },
    {
      "anonymous": false,
      "inputs": [
        {
          "indexed": true,
          "internalType": "address",
          "name": "owner",
          "type": "address"
        },
        {
          "indexed": true,
          "internalType": "address",
          "name": "spender",
          "type": "address"
        },
        {
          "indexed": false,
          "internalType": "uint256",
          "name": "value",
          "type": "uint256"
        }
      ],
      "name": "Approval",
      "type": "event"
    },
    {
      "anonymous": false,
      "inputs": [
        {
          "indexed": true,
          "internalType": "uint256",
          "name": "amount",
          "type": "uint256"
        },
        {
          "indexed": true,
          "internalType": "string",
          "name": "ref",
          "type": "string"
        }
      ],
      "name": "Burnt",
      "type": "event"
    },
    {
      "anonymous": false,
      "inputs": [
        {
          "indexed": false,
          "internalType": "uint256",
          "name": "memberCount",
          "type": "uint256"
        },
        {
          "indexed": false,
          "internalType": "uint256",
          "name": "governorCount",
          "type": "uint256"
        },
        {
          "indexed": false,
          "internalType": "uint256",
          "name": "totalSupply",
          "type": "uint256"
        },
        {
          "indexed": false,
          "internalType": "uint256",
          "name": "transferCredits",
          "type": "uint256"
        },
        {
          "indexed": false,
          "internalType": "uint256",
          "name": "reserveBalance",
          "type": "uint256"
        },
        {
          "indexed": false,
          "internalType": "uint256",
          "name": "ethBalance",
          "type": "uint256"
        }
      ],
      "name": "DetailsChanged",
      "type": "event"
    },
    {
      "anonymous": false,
      "inputs": [
        {
          "indexed": true,
          "internalType": "address",
          "name": "owner",
          "type": "address"
        },
        {
          "indexed": true,
          "internalType": "address",
          "name": "spender",
          "type": "address"
        },
        {
          "indexed": false,
          "internalType": "uint256",
          "name": "value",
          "type": "uint256"
        }
      ],
      "name": "Disapproval",
      "type": "event"
    },
    {
      "anonymous": false,
      "inputs": [
        {
          "indexed": true,
          "internalType": "address",
          "name": "governor",
          "type": "address"
        }
      ],
      "name": "GovernorAdded",
      "type": "event"
    },
    {
      "anonymous": false,
      "inputs": [
        {
          "indexed": true,
          "internalType": "address",
          "name": "governor",
          "type": "address"
        }
      ],
      "name": "GovernorRemoved",
      "type": "event"
    },
    {
      "anonymous": false,
      "inputs": [
        {
          "indexed": true,
          "internalType": "address",
          "name": "member",
          "type": "address"
        }
      ],
      "name": "MemberAdded",
      "type": "event"
    },
    {
      "anonymous": false,
      "inputs": [
        {
          "indexed": true,
          "internalType": "address",
          "name": "member",
          "type": "address"
        }
      ],
      "name": "MemberRemoved",
      "type": "event"
    },
    {
      "anonymous": false,
      "inputs": [
        {
          "indexed": true,
          "internalType": "uint256",
          "name": "amount",
          "type": "uint256"
        },
        {
          "indexed": true,
          "internalType": "string",
          "name": "ref",
          "type": "string"
        }
      ],
      "name": "Minted",
      "type": "event"
    },
    {
      "anonymous": false,
      "inputs": [
        {
          "indexed": true,
          "internalType": "address",
          "name": "from",
          "type": "address"
        },
        {
          "indexed": true,
          "internalType": "address",
          "name": "to",
          "type": "address"
        },
        {
          "indexed": false,
          "internalType": "uint256",
          "name": "value",
          "type": "uint256"
        }
      ],
      "name": "Transfer",
      "type": "event"
    },
    {
      "anonymous": false,
      "inputs": [
        {
          "indexed": true,
          "internalType": "address",
          "name": "issuerMember",
          "type": "address"
        },
        {
          "indexed": false,
          "internalType": "uint256",
          "name": "amount",
          "type": "uint256"
        }
      ],
      "name": "TransferCreditsAdded",
      "type": "event"
    },
    {
      "anonymous": false,
      "inputs": [
        {
          "indexed": true,
          "internalType": "address",
          "name": "issuerMember",
          "type": "address"
        },
        {
          "indexed": false,
          "internalType": "uint256",
          "name": "amount",
          "type": "uint256"
        }
      ],
      "name": "TransferCreditsDrained",
      "type": "event"
    },
    {
      "inputs": [
        {
          "internalType": "uint256",
          "name": "amount",
          "type": "uint256"
        }
      ],
      "name": "addTransferCredits",
      "outputs": [],
      "stateMutability": "nonpayable",
      "type": "function"
    },
    {
      "inputs": [
        {
          "internalType": "address",
          "name": "owner",
          "type": "address"
        },
        {
          "internalType": "address",
          "name": "spender",
          "type": "address"
        }
      ],
      "name": "allowance",
      "outputs": [
        {
          "internalType": "uint256",
          "name": "",
          "type": "uint256"
        }
      ],
      "stateMutability": "view",
      "type": "function"
    },
    {
      "inputs": [
        {
          "internalType": "address",
          "name": "spender",
          "type": "address"
        },
        {
          "internalType": "uint256",
          "name": "amount",
          "type": "uint256"
        }
      ],
      "name": "approve",
      "outputs": [
        {
          "internalType": "bool",
          "name": "",
          "type": "bool"
        }
      ],
      "stateMutability": "nonpayable",
      "type": "function"
    },
    {
      "inputs": [
        {
          "internalType": "address",
          "name": "owner",
          "type": "address"
        }
      ],
      "name": "balanceOf",
      "outputs": [
        {
          "internalType": "uint256",
          "name": "",
          "type": "uint256"
        }
      ],
      "stateMutability": "view",
      "type": "function"
    },
    {
      "inputs": [
        {
          "internalType": "address",
          "name": "member",
          "type": "address"
        }
      ],
      "name": "beforeRemovingMember",
      "outputs": [],
      "stateMutability": "nonpayable",
      "type": "function"
    },
    {
      "inputs": [
        {
          "internalType": "uint256",
          "name": "amount",
          "type": "uint256"
        },
        {
          "internalType": "string",
          "name": "ref",
          "type": "string"
        }
      ],
      "name": "burn",
      "outputs": [],
      "stateMutability": "nonpayable",
      "type": "function"
    },
    {
      "inputs": [],
      "name": "decimals",
      "outputs": [
        {
          "internalType": "uint256",
          "name": "",
          "type": "uint256"
        }
      ],
      "stateMutability": "view",
      "type": "function"
    },
    {
      "inputs": [
        {
          "internalType": "address",
          "name": "spender",
          "type": "address"
        },
        {
          "internalType": "uint256",
          "name": "amount",
          "type": "uint256"
        }
      ],
      "name": "disapprove",
      "outputs": [
        {
          "internalType": "bool",
          "name": "",
          "type": "bool"
        }
      ],
      "stateMutability": "nonpayable",
      "type": "function"
    },
    {
      "inputs": [],
      "name": "drainTransferCredits",
      "outputs": [],
      "stateMutability": "nonpayable",
      "type": "function"
    },
    {
      "inputs": [
        {
          "internalType": "address",
          "name": "owner",
          "type": "address"
        }
      ],
      "name": "givenAllowanceCount",
      "outputs": [
        {
          "internalType": "uint256",
          "name": "",
          "type": "uint256"
        }
      ],
      "stateMutability": "view",
      "type": "function"
    },
    {
      "inputs": [],
      "name": "holders",
      "outputs": [
        {
          "internalType": "address[]",
          "name": "",
          "type": "address[]"
        }
      ],
      "stateMutability": "view",
      "type": "function"
    },
    {
      "inputs": [
        {
          "internalType": "uint256",
          "name": "amount",
          "type": "uint256"
        },
        {
          "internalType": "string",
          "name": "ref",
          "type": "string"
        }
      ],
      "name": "mint",
      "outputs": [],
      "stateMutability": "nonpayable",
      "type": "function"
    },
    {
      "inputs": [],
      "name": "name",
      "outputs": [
        {
          "internalType": "string",
          "name": "",
          "type": "string"
        }
      ],
      "stateMutability": "view",
      "type": "function"
    },
    {
      "inputs": [
        {
          "internalType": "address",
          "name": "owner",
          "type": "address"
        },
        {
          "internalType": "uint256",
          "name": "index",
          "type": "uint256"
        },
        {
          "internalType": "uint256",
          "name": "perPage",
          "type": "uint256"
        }
      ],
      "name": "paginateAllowancesByOwner",
      "outputs": [
        {
          "internalType": "address[]",
          "name": "",
          "type": "address[]"
        },
        {
          "internalType": "uint256",
          "name": "",
          "type": "uint256"
        }
      ],
      "stateMutability": "view",
      "type": "function"
    },
    {
      "inputs": [
        {
          "internalType": "address",
          "name": "spender",
          "type": "address"
        },
        {
          "internalType": "uint256",
          "name": "index",
          "type": "uint256"
        },
        {
          "internalType": "uint256",
          "name": "perPage",
          "type": "uint256"
        }
      ],
      "name": "paginateAllowancesBySpender",
      "outputs": [
        {
          "internalType": "address[]",
          "name": "",
          "type": "address[]"
        },
        {
          "internalType": "uint256",
          "name": "",
          "type": "uint256"
        }
      ],
      "stateMutability": "view",
      "type": "function"
    },
    {
      "inputs": [
        {
          "internalType": "address",
          "name": "from",
          "type": "address"
        },
        {
          "internalType": "address",
          "name": "spender",
          "type": "address"
        },
        {
          "internalType": "uint256",
          "name": "amount",
          "type": "uint256"
        }
      ],
      "name": "performApproval",
      "outputs": [],
      "stateMutability": "nonpayable",
      "type": "function"
    },
    {
      "inputs": [
        {
          "internalType": "address",
          "name": "from",
          "type": "address"
        },
        {
          "internalType": "address",
          "name": "spender",
          "type": "address"
        },
        {
          "internalType": "uint256",
          "name": "amount",
          "type": "uint256"
        }
      ],
      "name": "performDisapproval",
      "outputs": [],
      "stateMutability": "nonpayable",
      "type": "function"
    },
    {
      "inputs": [
        {
          "components": [
            {
              "internalType": "address",
              "name": "spender",
              "type": "address"
            },
            {
              "internalType": "address",
              "name": "from",
              "type": "address"
            },
            {
              "internalType": "address",
              "name": "to",
              "type": "address"
            },
            {
              "internalType": "uint256",
              "name": "amount",
              "type": "uint256"
            },
            {
              "internalType": "string",
              "name": "ref",
              "type": "string"
            }
          ],
          "internalType": "struct FastTokenFacet.TransferArgs",
          "name": "p",
          "type": "tuple"
        }
      ],
      "name": "performTransfer",
      "outputs": [],
      "stateMutability": "nonpayable",
      "type": "function"
    },
    {
      "inputs": [
        {
          "internalType": "address",
          "name": "spender",
          "type": "address"
        }
      ],
      "name": "receivedAllowanceCount",
      "outputs": [
        {
          "internalType": "uint256",
          "name": "",
          "type": "uint256"
        }
      ],
      "stateMutability": "view",
      "type": "function"
    },
    {
      "inputs": [
        {
          "internalType": "address",
          "name": "holder",
          "type": "address"
        }
      ],
      "name": "retrieveDeadTokens",
      "outputs": [],
      "stateMutability": "nonpayable",
      "type": "function"
    },
    {
      "inputs": [],
      "name": "symbol",
      "outputs": [
        {
          "internalType": "string",
          "name": "",
          "type": "string"
        }
      ],
      "stateMutability": "view",
      "type": "function"
    },
    {
      "inputs": [],
      "name": "totalSupply",
      "outputs": [
        {
          "internalType": "uint256",
          "name": "",
          "type": "uint256"
        }
      ],
      "stateMutability": "view",
      "type": "function"
    },
    {
      "inputs": [
        {
          "internalType": "address",
          "name": "to",
          "type": "address"
        },
        {
          "internalType": "uint256",
          "name": "amount",
          "type": "uint256"
        }
      ],
      "name": "transfer",
      "outputs": [
        {
          "internalType": "bool",
          "name": "",
          "type": "bool"
        }
      ],
      "stateMutability": "nonpayable",
      "type": "function"
    },
    {
      "inputs": [],
      "name": "transferCredits",
      "outputs": [
        {
          "internalType": "uint256",
          "name": "",
          "type": "uint256"
        }
      ],
      "stateMutability": "view",
      "type": "function"
    },
    {
      "inputs": [
        {
          "internalType": "address",
          "name": "from",
          "type": "address"
        },
        {
          "internalType": "address",
          "name": "to",
          "type": "address"
        },
        {
          "internalType": "uint256",
          "name": "amount",
          "type": "uint256"
        }
      ],
      "name": "transferFrom",
      "outputs": [
        {
          "internalType": "bool",
          "name": "",
          "type": "bool"
        }
      ],
      "stateMutability": "nonpayable",
      "type": "function"
    },
    {
      "inputs": [
        {
          "internalType": "address",
          "name": "from",
          "type": "address"
        },
        {
          "internalType": "address",
          "name": "to",
          "type": "address"
        },
        {
          "internalType": "uint256",
          "name": "amount",
          "type": "uint256"
        },
        {
          "internalType": "string",
          "name": "ref",
          "type": "string"
        }
      ],
      "name": "transferFromWithRef",
      "outputs": [
        {
          "internalType": "bool",
          "name": "",
          "type": "bool"
        }
      ],
      "stateMutability": "nonpayable",
      "type": "function"
    },
    {
      "inputs": [
        {
          "internalType": "address",
          "name": "to",
          "type": "address"
        },
        {
          "internalType": "uint256",
          "name": "amount",
          "type": "uint256"
        },
        {
          "internalType": "string",
          "name": "ref",
          "type": "string"
        }
      ],
      "name": "transferWithRef",
      "outputs": [
        {
          "internalType": "bool",
          "name": "",
          "type": "bool"
        }
      ],
      "stateMutability": "nonpayable",
      "type": "function"
    }
  ],
  "transactionHash": "0xb8e9ccaf791d249530a7972660120d23835a1070158a2c35b015ddcf23e861f9",
  "args": [],
  "numDeployments": 4,
  "solcInputHash": "57fc878374d054c3aeb94e41cf27b966",
  "bytecode": "0x608060405234801561001057600080fd5b50613fe0806100206000396000f3fe608060405234801561001057600080fd5b50600436106101b95760003560e01c80636bd7bd25116100f95780639c999d9011610097578063dd62ed3e11610071578063dd62ed3e146104aa578063ddee550c146104bd578063e8edd0e3146104c5578063fbabdb06146104d857600080fd5b80639c999d9014610471578063a9059cbb14610484578063c485bb961461049757600080fd5b806377097fc8116100d357806377097fc8146103e95780638188f71c146103fc57806381a8f2431461041157806395d89b411461046957600080fd5b80636bd7bd251461036e57806370a08231146103815780637641e6f3146103d657600080fd5b8063300059161161016657806344890ae01161014057806344890ae01461030e5780635480699a146103215780635d7b590f146103345780636ba09c5c1461034757600080fd5b806330005916146102bc578063313ce567146102d15780633a868224146102fb57600080fd5b806318160ddd1161019757806318160ddd146102615780631fe02e531461028857806323b872dd146102a957600080fd5b806306675ba7146101be57806306fdde0314610229578063095ea7b31461023e575b600080fd5b6102166101cc36600461386c565b73ffffffffffffffffffffffffffffffffffffffff1660009081527fb098747b87c5c0e2a32eb9b06725e9bad4263809bcda628ceadc1a686bcb8269602052604090206001015490565b6040519081526020015b60405180910390f35b6102316104eb565b60405161022091906138f2565b61025161024c366004613905565b61059f565b6040519015158152602001610220565b7fb098747b87c5c0e2a32eb9b06725e9bad4263809bcda628ceadc1a686bcb826554610216565b61029b61029636600461392f565b61063a565b6040516102209291906139b3565b6102516102b73660046139d5565b61069c565b6102cf6102ca366004613a11565b6106ea565b005b7fb098747b87c5c0e2a32eb9b06725e9bad4263809bcda628ceadc1a686bcb82645460ff16610216565b6102cf61030936600461386c565b6108b0565b6102cf61031c366004613a2a565b610be2565b6102cf61032f3660046139d5565b611b8b565b6102cf61034236600461386c565b611f9f565b7fb098747b87c5c0e2a32eb9b06725e9bad4263809bcda628ceadc1a686bcb826654610216565b6102cf61037c3660046139d5565b6122c0565b61021661038f36600461386c565b73ffffffffffffffffffffffffffffffffffffffff1660009081527fb098747b87c5c0e2a32eb9b06725e9bad4263809bcda628ceadc1a686bcb8267602052604090205490565b6102cf6103e4366004613aae565b612496565b6102cf6103f7366004613aae565b61278e565b610404612b16565b6040516102209190613afa565b61021661041f36600461386c565b73ffffffffffffffffffffffffffffffffffffffff1660009081527fb098747b87c5c0e2a32eb9b06725e9bad4263809bcda628ceadc1a686bcb826a602052604090206001015490565b610231612ba8565b61029b61047f36600461392f565b612bd9565b610251610492366004613905565b612c2f565b6102516104a5366004613b3c565b612cdc565b6102166104b8366004613c36565b612d93565b6102cf612f1a565b6102516104d3366004613c69565b6130ee565b6102516104e6366004613905565b6131e2565b60607fb098747b87c5c0e2a32eb9b06725e9bad4263809bcda628ceadc1a686bcb8261600101805461051c90613cc3565b80601f016020809104026020016040519081016040528092919081815260200182805461054890613cc3565b80156105955780601f1061056a57610100808354040283529160200191610595565b820191906000526020600020905b81548152906001019060200180831161057857829003601f168201915b5050505050905090565b6040517f5480699a00000000000000000000000000000000000000000000000000000000815233600482015273ffffffffffffffffffffffffffffffffffffffff83166024820152604481018290526000903090635480699a906064015b600060405180830381600087803b15801561061757600080fd5b505af115801561062b573d6000803e3d6000fd5b50505050600190505b92915050565b73ffffffffffffffffffffffffffffffffffffffff831660009081527fb098747b87c5c0e2a32eb9b06725e9bad4263809bcda628ceadc1a686bcb82696020526040812060609190610690906001018585613343565b91509150935093915050565b60006106df8484846040518060400160405280601781526020017f556e737065636966696564202d20766961204552433230000000000000000000815250612cdc565b506001949350505050565b7f80c187ea6f955fd624c41fb7a18011cc87d98c6f4c06d897b59142f65707e705546040517fa230c5240000000000000000000000000000000000000000000000000000000081523360048201526201000090910473ffffffffffffffffffffffffffffffffffffffff169063a230c52490602401602060405180830381865afa15801561077c573d6000803e3d6000fd5b505050506040513d601f19601f820116820180604052508101906107a09190613d17565b6107dd576040517f1dd41c4d0000000000000000000000000000000000000000000000000000000081523360048201526024015b60405180910390fd5b807fb098747b87c5c0e2a32eb9b06725e9bad4263809bcda628ceadc1a686bcb826160050160008282546108119190613d68565b925050819055503073ffffffffffffffffffffffffffffffffffffffff16634f2274c06040518163ffffffff1660e01b8152600401600060405180830381600087803b15801561086057600080fd5b505af1158015610874573d6000803e3d6000fd5b50506040518381523392507f7cc75678011427765ae1f965e47e04223c08302df0151ddbf2df44f9e8572c37915060200160405180910390a250565b7f80c187ea6f955fd624c41fb7a18011cc87d98c6f4c06d897b59142f65707e705546040517fa230c5240000000000000000000000000000000000000000000000000000000081523360048201526201000090910473ffffffffffffffffffffffffffffffffffffffff169063a230c52490602401602060405180830381865afa158015610942573d6000803e3d6000fd5b505050506040513d601f19601f820116820180604052508101906109669190613d17565b61099e576040517f1dd41c4d0000000000000000000000000000000000000000000000000000000081523360048201526024016107d4565b73ffffffffffffffffffffffffffffffffffffffff811660009081527fb098747b87c5c0e2a32eb9b06725e9bad4263809bcda628ceadc1a686bcb826760205260409020547fb098747b87c5c0e2a32eb9b06725e9bad4263809bcda628ceadc1a686bcb82618115610a6b5773ffffffffffffffffffffffffffffffffffffffff8316600090815260068201602052604080822082905581805281208054849290610a4a908490613d68565b9250508190555081816004016000828254610a659190613d80565b90915550505b610a7a600a8201846001613464565b7f80c187ea6f955fd624c41fb7a18011cc87d98c6f4c06d897b59142f65707e705600101546040517fc2a11fb300000000000000000000000000000000000000000000000000000000815273ffffffffffffffffffffffffffffffffffffffff8581166004830152600060248301529091169063c2a11fb390604401600060405180830381600087803b158015610b1057600080fd5b505af1158015610b24573d6000803e3d6000fd5b50506040518481526000925073ffffffffffffffffffffffffffffffffffffffff861691507fddf252ad1be2c89b69c2b068fc378daa952ba7f163c4a11628f55a4df523b3ef9060200160405180910390a38115610bdd573073ffffffffffffffffffffffffffffffffffffffff16634f2274c06040518163ffffffff1660e01b8152600401600060405180830381600087803b158015610bc457600080fd5b505af1158015610bd8573d6000803e3d6000fd5b505050505b505050565b333014610c1b576040517f12e9ad3300000000000000000000000000000000000000000000000000000000815260040160405180910390fd5b610c2b604082016020830161386c565b610c3b606083016040840161386c565b8073ffffffffffffffffffffffffffffffffffffffff168273ffffffffffffffffffffffffffffffffffffffff161415610cb9576040517f6b3dcdc100000000000000000000000000000000000000000000000000000000815273ffffffffffffffffffffffffffffffffffffffff831660048201526024016107d4565b610cc9604084016020850161386c565b73ffffffffffffffffffffffffffffffffffffffff811615610f3e573073ffffffffffffffffffffffffffffffffffffffff166311e549336040518163ffffffff1660e01b8152600401602060405180830381865afa158015610d30573d6000803e3d6000fd5b505050506040513d601f19601f82011682018060405250810190610d549190613d17565b15610e62577f80c187ea6f955fd624c41fb7a18011cc87d98c6f4c06d897b59142f65707e705600101546040517fa230c52400000000000000000000000000000000000000000000000000000000815273ffffffffffffffffffffffffffffffffffffffff83811660048301529091169063a230c52490602401602060405180830381865afa158015610deb573d6000803e3d6000fd5b505050506040513d601f19601f82011682018060405250810190610e0f9190613d17565b610e5d576040517f9ac2720600000000000000000000000000000000000000000000000000000000815273ffffffffffffffffffffffffffffffffffffffff821660048201526024016107d4565b610f3e565b6040517fa230c52400000000000000000000000000000000000000000000000000000000815273ffffffffffffffffffffffffffffffffffffffff82166004820152309063a230c52490602401602060405180830381865afa158015610ecc573d6000803e3d6000fd5b505050506040513d601f19601f82011682018060405250810190610ef09190613d17565b610f3e576040517fb8c6719e00000000000000000000000000000000000000000000000000000000815273ffffffffffffffffffffffffffffffffffffffff821660048201526024016107d4565b610f4e604085016020860161386c565b7f80c187ea6f955fd624c41fb7a18011cc87d98c6f4c06d897b59142f65707e705600101546040517f6731764700000000000000000000000000000000000000000000000000000000815273ffffffffffffffffffffffffffffffffffffffff838116600483015290911690636731764790602401602060405180830381865afa158015610fe0573d6000803e3d6000fd5b505050506040513d601f19601f820116820180604052508101906110049190613d17565b611052576040517fde42669700000000000000000000000000000000000000000000000000000000815273ffffffffffffffffffffffffffffffffffffffff821660048201526024016107d4565b611062606086016040870161386c565b73ffffffffffffffffffffffffffffffffffffffff8116156112d7573073ffffffffffffffffffffffffffffffffffffffff166311e549336040518163ffffffff1660e01b8152600401602060405180830381865afa1580156110c9573d6000803e3d6000fd5b505050506040513d601f19601f820116820180604052508101906110ed9190613d17565b156111fb577f80c187ea6f955fd624c41fb7a18011cc87d98c6f4c06d897b59142f65707e705600101546040517fa230c52400000000000000000000000000000000000000000000000000000000815273ffffffffffffffffffffffffffffffffffffffff83811660048301529091169063a230c52490602401602060405180830381865afa158015611184573d6000803e3d6000fd5b505050506040513d601f19601f820116820180604052508101906111a89190613d17565b6111f6576040517f9ac2720600000000000000000000000000000000000000000000000000000000815273ffffffffffffffffffffffffffffffffffffffff821660048201526024016107d4565b6112d7565b6040517fa230c52400000000000000000000000000000000000000000000000000000000815273ffffffffffffffffffffffffffffffffffffffff82166004820152309063a230c52490602401602060405180830381865afa158015611265573d6000803e3d6000fd5b505050506040513d601f19601f820116820180604052508101906112899190613d17565b6112d7576040517fb8c6719e00000000000000000000000000000000000000000000000000000000815273ffffffffffffffffffffffffffffffffffffffff821660048201526024016107d4565b7fb098747b87c5c0e2a32eb9b06725e9bad4263809bcda628ceadc1a686bcb82616060870135611333576040517f9ba6061b00000000000000000000000000000000000000000000000000000000815260040160405180910390fd5b60006113456040890160208a0161386c565b73ffffffffffffffffffffffffffffffffffffffff1614801561140557503063e43581b861137660208a018a61386c565b6040517fffffffff0000000000000000000000000000000000000000000000000000000060e084901b16815273ffffffffffffffffffffffffffffffffffffffff9091166004820152602401602060405180830381865afa1580156113df573d6000803e3d6000fd5b505050506040513d601f19601f820116820180604052508101906114039190613d17565b155b1561146257611417602088018861386c565b6040517f15e519c000000000000000000000000000000000000000000000000000000000815273ffffffffffffffffffffffffffffffffffffffff90911660048201526024016107d4565b611472604088016020890161386c565b73ffffffffffffffffffffffffffffffffffffffff16611495602089018961386c565b73ffffffffffffffffffffffffffffffffffffffff16146116045760006114c26040890160208a0161386c565b73ffffffffffffffffffffffffffffffffffffffff1614611604576000606088013560078301826114f960408c0160208d0161386c565b73ffffffffffffffffffffffffffffffffffffffff16815260208082019290925260400160009081209161152f908c018c61386c565b73ffffffffffffffffffffffffffffffffffffffff1673ffffffffffffffffffffffffffffffffffffffff16815260200190815260200160002060008282546115789190613d80565b918290555091505080611602576115da61159560208a018a61386c565b60016008850160006115ad60408e0160208f0161386c565b73ffffffffffffffffffffffffffffffffffffffff16815260208101919091526040016000209190613464565b6116026115ed60408a0160208b0161386c565b60016009850160006115ad60208e018e61386c565b505b60006060880135600683018261162060408c0160208d0161386c565b73ffffffffffffffffffffffffffffffffffffffff1673ffffffffffffffffffffffffffffffffffffffff16815260200190815260200160002060008282546116699190613d80565b9250508190559050600088606001358360060160008b6040016020810190611691919061386c565b73ffffffffffffffffffffffffffffffffffffffff1673ffffffffffffffffffffffffffffffffffffffff16815260200190815260200160002060008282546116da9190613d68565b9250508190559050600061170b7f80c187ea6f955fd624c41fb7a18011cc87d98c6f4c06d897b59142f65707e70590565b600181015490915073ffffffffffffffffffffffffffffffffffffffff1663c2a11fb361173e60408d0160208e0161386c565b6040517fffffffff0000000000000000000000000000000000000000000000000000000060e084901b16815273ffffffffffffffffffffffffffffffffffffffff909116600482015260248101869052604401600060405180830381600087803b1580156117ab57600080fd5b505af11580156117bf573d6000803e3d6000fd5b50505050600181015473ffffffffffffffffffffffffffffffffffffffff1663c2a11fb36117f360608d0160408e0161386c565b6040517fffffffff0000000000000000000000000000000000000000000000000000000060e084901b16815273ffffffffffffffffffffffffffffffffffffffff909116600482015260248101859052604401600060405180830381600087803b15801561186057600080fd5b505af1158015611874573d6000803e3d6000fd5b50611893925061188d91505060408c0160208d0161386c565b8461363c565b6118ac6118a660608c0160408d0161386c565b8361363c565b60006118be60408c0160208d0161386c565b73ffffffffffffffffffffffffffffffffffffffff16146118f75789606001358460050160008282546118f19190613d80565b90915550505b600061190960608c0160408d0161386c565b73ffffffffffffffffffffffffffffffffffffffff1614156119a957896060013584600401600082825461193d9190613d80565b925050819055503073ffffffffffffffffffffffffffffffffffffffff16634f2274c06040518163ffffffff1660e01b8152600401600060405180830381600087803b15801561198c57600080fd5b505af11580156119a0573d6000803e3d6000fd5b50505050611a57565b60006119bb60408c0160208d0161386c565b73ffffffffffffffffffffffffffffffffffffffff161415611a575789606001358460040160008282546119ef9190613d68565b925050819055503073ffffffffffffffffffffffffffffffffffffffff16634f2274c06040518163ffffffff1660e01b8152600401600060405180830381600087803b158015611a3e57600080fd5b505af1158015611a52573d6000803e3d6000fd5b505050505b3063eee2dcc3611a6a60208d018d61386c565b611a7a60408e0160208f0161386c565b8d6040016020810190611a8d919061386c565b8e606001358f8060800190611aa29190613d97565b6040518763ffffffff1660e01b8152600401611ac396959493929190613e45565b600060405180830381600087803b158015611add57600080fd5b505af1158015611af1573d6000803e3d6000fd5b50611b069250505060608b0160408c0161386c565b73ffffffffffffffffffffffffffffffffffffffff16611b2c60408c0160208d0161386c565b73ffffffffffffffffffffffffffffffffffffffff167fddf252ad1be2c89b69c2b068fc378daa952ba7f163c4a11628f55a4df523b3ef8c60600135604051611b7791815260200190565b60405180910390a350505050505050505050565b333014611bc4576040517f12e9ad3300000000000000000000000000000000000000000000000000000000815260040160405180910390fd5b8273ffffffffffffffffffffffffffffffffffffffff811615611e3a573073ffffffffffffffffffffffffffffffffffffffff166311e549336040518163ffffffff1660e01b8152600401602060405180830381865afa158015611c2c573d6000803e3d6000fd5b505050506040513d601f19601f82011682018060405250810190611c509190613d17565b15611d5e577f80c187ea6f955fd624c41fb7a18011cc87d98c6f4c06d897b59142f65707e705600101546040517fa230c52400000000000000000000000000000000000000000000000000000000815273ffffffffffffffffffffffffffffffffffffffff83811660048301529091169063a230c52490602401602060405180830381865afa158015611ce7573d6000803e3d6000fd5b505050506040513d601f19601f82011682018060405250810190611d0b9190613d17565b611d59576040517f9ac2720600000000000000000000000000000000000000000000000000000000815273ffffffffffffffffffffffffffffffffffffffff821660048201526024016107d4565b611e3a565b6040517fa230c52400000000000000000000000000000000000000000000000000000000815273ffffffffffffffffffffffffffffffffffffffff82166004820152309063a230c52490602401602060405180830381865afa158015611dc8573d6000803e3d6000fd5b505050506040513d601f19601f82011682018060405250810190611dec9190613d17565b611e3a576040517fb8c6719e00000000000000000000000000000000000000000000000000000000815273ffffffffffffffffffffffffffffffffffffffff821660048201526024016107d4565b8115611f325773ffffffffffffffffffffffffffffffffffffffff84811660009081527fb098747b87c5c0e2a32eb9b06725e9bad4263809bcda628ceadc1a686bcb826860209081526040808320938716835292905290812080547fb098747b87c5c0e2a32eb9b06725e9bad4263809bcda628ceadc1a686bcb826192859291611ec5908490613d68565b909155505073ffffffffffffffffffffffffffffffffffffffff851660009081526008820160205260409020611efd908560016136d3565b73ffffffffffffffffffffffffffffffffffffffff841660009081526009820160205260409020611f30908660016136d3565b505b8273ffffffffffffffffffffffffffffffffffffffff168473ffffffffffffffffffffffffffffffffffffffff167f8c5be1e5ebec7d5bd14f71427d1e84f3dd0314c0f7b2291e5b200ac8c7c3b92584604051611f9191815260200190565b60405180910390a350505050565b333014611fd8576040517f12e9ad3300000000000000000000000000000000000000000000000000000000815260040160405180910390fd5b73ffffffffffffffffffffffffffffffffffffffff811660009081527fb098747b87c5c0e2a32eb9b06725e9bad4263809bcda628ceadc1a686bcb826760205260409020541561206c576040517fd90c787400000000000000000000000000000000000000000000000000000000815273ffffffffffffffffffffffffffffffffffffffff821660048201526024016107d4565b73ffffffffffffffffffffffffffffffffffffffff811660009081527fb098747b87c5c0e2a32eb9b06725e9bad4263809bcda628ceadc1a686bcb8269602052604090207fb098747b87c5c0e2a32eb9b06725e9bad4263809bcda628ceadc1a686bcb8261906001015b8054156121b6576000816000815481106120f2576120f2613e99565b60009182526020808320919091015473ffffffffffffffffffffffffffffffffffffffff87811680855260078801845260408086209290931680865291909352928190205490517f6bd7bd2500000000000000000000000000000000000000000000000000000000815260048101929092526024820183905260448201529091503090636bd7bd2590606401600060405180830381600087803b15801561219857600080fd5b505af11580156121ac573d6000803e3d6000fd5b50505050506120d6565b5073ffffffffffffffffffffffffffffffffffffffff8216600090815260098201602052604090206001015b805415610bdd576000816000815481106121fe576121fe613e99565b60009182526020808320919091015473ffffffffffffffffffffffffffffffffffffffff9081168084526007870183526040808520928916808652929093528284205483517f6bd7bd25000000000000000000000000000000000000000000000000000000008152600481018390526024810193909352604483015291519193503092636bd7bd259260648084019382900301818387803b1580156122a257600080fd5b505af11580156122b6573d6000803e3d6000fd5b50505050506121e2565b3330146122f9576040517f12e9ad3300000000000000000000000000000000000000000000000000000000815260040160405180910390fd5b801561242a5773ffffffffffffffffffffffffffffffffffffffff83811660009081527fb098747b87c5c0e2a32eb9b06725e9bad4263809bcda628ceadc1a686bcb826860209081526040808320938616835292905290812080547fb098747b87c5c0e2a32eb9b06725e9bad4263809bcda628ceadc1a686bcb826192849291612384908490613d80565b909155505073ffffffffffffffffffffffffffffffffffffffff80851660009081526007830160209081526040808320938716835292905220546124285773ffffffffffffffffffffffffffffffffffffffff8416600090815260088201602052604090206123f590846001613464565b73ffffffffffffffffffffffffffffffffffffffff83166000908152600982016020526040902061242890856001613464565b505b8173ffffffffffffffffffffffffffffffffffffffff168373ffffffffffffffffffffffffffffffffffffffff167f94f4f5b45267f5e7454476505db5fe3cbb2ad25868e26303b8fc7c5074ba58908360405161248991815260200190565b60405180910390a3505050565b7f80c187ea6f955fd624c41fb7a18011cc87d98c6f4c06d897b59142f65707e705546040517fa230c5240000000000000000000000000000000000000000000000000000000081523360048201526201000090910473ffffffffffffffffffffffffffffffffffffffff169063a230c52490602401602060405180830381865afa158015612528573d6000803e3d6000fd5b505050506040513d601f19601f8201168201806040525081019061254c9190613d17565b612584576040517f1dd41c4d0000000000000000000000000000000000000000000000000000000081523360048201526024016107d4565b60007fb098747b87c5c0e2a32eb9b06725e9bad4263809bcda628ceadc1a686bcb826190503073ffffffffffffffffffffffffffffffffffffffff1663ddb2d22b6040518163ffffffff1660e01b8152600401602060405180830381865afa1580156125f4573d6000803e3d6000fd5b505050506040513d601f19601f820116820180604052508101906126189190613d17565b1561264f576040517f12aebbbc00000000000000000000000000000000000000000000000000000000815260040160405180910390fd5b60008080526006820160205260408120805486929061266f908490613d80565b90915550506040517ff4c1210c000000000000000000000000000000000000000000000000000000008152309063f4c1210c906126b490879087908790600401613ec8565b600060405180830381600087803b1580156126ce57600080fd5b505af11580156126e2573d6000803e3d6000fd5b505050503073ffffffffffffffffffffffffffffffffffffffff16634f2274c06040518163ffffffff1660e01b8152600401600060405180830381600087803b15801561272e57600080fd5b505af1158015612742573d6000803e3d6000fd5b505050508282604051612756929190613eeb565b6040519081900381209085907f57307d0a4121422158dae7be68e769aa82d8631467b971e4fdfdf3ce9b4c8b7b90600090a350505050565b7f80c187ea6f955fd624c41fb7a18011cc87d98c6f4c06d897b59142f65707e705546040517fa230c5240000000000000000000000000000000000000000000000000000000081523360048201526201000090910473ffffffffffffffffffffffffffffffffffffffff169063a230c52490602401602060405180830381865afa158015612820573d6000803e3d6000fd5b505050506040513d601f19601f820116820180604052508101906128449190613d17565b61287c576040517f1dd41c4d0000000000000000000000000000000000000000000000000000000081523360048201526024016107d4565b60007fb098747b87c5c0e2a32eb9b06725e9bad4263809bcda628ceadc1a686bcb826190503073ffffffffffffffffffffffffffffffffffffffff1663ddb2d22b6040518163ffffffff1660e01b8152600401602060405180830381865afa1580156128ec573d6000803e3d6000fd5b505050506040513d601f19601f820116820180604052508101906129109190613d17565b80156129a0575060048101541515806129a057506040517f70a082310000000000000000000000000000000000000000000000000000000081526000600482015230906370a0823190602401602060405180830381865afa158015612979573d6000803e3d6000fd5b505050506040513d601f19601f8201168201806040525081019061299d9190613efb565b15155b156129d7576040517f12aebbbc00000000000000000000000000000000000000000000000000000000815260040160405180910390fd5b6000808052600682016020526040812080548692906129f7908490613d68565b90915550506040517faf2e757b000000000000000000000000000000000000000000000000000000008152309063af2e757b90612a3c90879087908790600401613ec8565b600060405180830381600087803b158015612a5657600080fd5b505af1158015612a6a573d6000803e3d6000fd5b505050503073ffffffffffffffffffffffffffffffffffffffff16634f2274c06040518163ffffffff1660e01b8152600401600060405180830381600087803b158015612ab657600080fd5b505af1158015612aca573d6000803e3d6000fd5b505050508282604051612ade929190613eeb565b6040519081900381209085907fadef11a3979b8ceb0573eb6ef0678134a09c23a0d94e5ea47cd18ac3a9fc019490600090a350505050565b606060007fb098747b87c5c0e2a32eb9b06725e9bad4263809bcda628ceadc1a686bcb8261600b8101805460408051602080840282018101909252828152939450830182828015612b9d57602002820191906000526020600020905b815473ffffffffffffffffffffffffffffffffffffffff168152600190910190602001808311612b72575b505050505091505090565b60607fb098747b87c5c0e2a32eb9b06725e9bad4263809bcda628ceadc1a686bcb8261600201805461051c90613cc3565b73ffffffffffffffffffffffffffffffffffffffff831660009081527fb098747b87c5c0e2a32eb9b06725e9bad4263809bcda628ceadc1a686bcb826a6020526040812060609190610690906001018585613343565b6040805160a0810182523380825260208083019190915273ffffffffffffffffffffffffffffffffffffffff8516828401526060820184905282518084018452601781527f556e737065636966696564202d2076696120455243323000000000000000000091810191909152608082015290517f44890ae000000000000000000000000000000000000000000000000000000000815260009130916344890ae0916105fd91600401613f14565b6040805160a08101825233815273ffffffffffffffffffffffffffffffffffffffff8681166020830152851681830152606081018490526080810183905290517f44890ae000000000000000000000000000000000000000000000000000000000815260009130916344890ae091612d5691600401613f14565b600060405180830381600087803b158015612d7057600080fd5b505af1158015612d84573d6000803e3d6000fd5b50600198975050505050505050565b60007fb098747b87c5c0e2a32eb9b06725e9bad4263809bcda628ceadc1a686bcb826173ffffffffffffffffffffffffffffffffffffffff8416612edd576040517fe43581b800000000000000000000000000000000000000000000000000000000815273ffffffffffffffffffffffffffffffffffffffff84166004820152309063e43581b890602401602060405180830381865afa158015612e3b573d6000803e3d6000fd5b505050506040513d601f19601f82011682018060405250810190612e5f9190613d17565b612ead576040517f15e519c000000000000000000000000000000000000000000000000000000000815273ffffffffffffffffffffffffffffffffffffffff841660048201526024016107d4565b73ffffffffffffffffffffffffffffffffffffffff84166000908152600690910160205260409020549050610634565b73ffffffffffffffffffffffffffffffffffffffff9384166000908152600791909101602090815260408083209490951682529290925250205490565b7f80c187ea6f955fd624c41fb7a18011cc87d98c6f4c06d897b59142f65707e705546040517fa230c5240000000000000000000000000000000000000000000000000000000081523360048201526201000090910473ffffffffffffffffffffffffffffffffffffffff169063a230c52490602401602060405180830381865afa158015612fac573d6000803e3d6000fd5b505050506040513d601f19601f82011682018060405250810190612fd09190613d17565b613008576040517f1dd41c4d0000000000000000000000000000000000000000000000000000000081523360048201526024016107d4565b7fb098747b87c5c0e2a32eb9b06725e9bad4263809bcda628ceadc1a686bcb8266546040519081527fb098747b87c5c0e2a32eb9b06725e9bad4263809bcda628ceadc1a686bcb82619033907fb5ffee8da10703700415cbf7e501408eb3da0c5dff8eae740afca33b2a2db9689060200160405180910390a2600081600501819055503073ffffffffffffffffffffffffffffffffffffffff16634f2274c06040518163ffffffff1660e01b8152600401600060405180830381600087803b1580156130d357600080fd5b505af11580156130e7573d6000803e3d6000fd5b5050505050565b60003073ffffffffffffffffffffffffffffffffffffffff166344890ae06040518060a001604052803373ffffffffffffffffffffffffffffffffffffffff1681526020013373ffffffffffffffffffffffffffffffffffffffff1681526020018873ffffffffffffffffffffffffffffffffffffffff16815260200187815260200186868080601f01602080910402602001604051908101604052809392919081815260200183838082843760009201919091525050509152506040517fffffffff0000000000000000000000000000000000000000000000000000000060e084901b168152612d569190600401613f14565b6040517fa230c5240000000000000000000000000000000000000000000000000000000081523360048201819052600091309063a230c52490602401602060405180830381865afa15801561323b573d6000803e3d6000fd5b505050506040513d601f19601f8201168201806040525081019061325f9190613d17565b6132ad576040517fb8c6719e00000000000000000000000000000000000000000000000000000000815273ffffffffffffffffffffffffffffffffffffffff821660048201526024016107d4565b6040517f6bd7bd2500000000000000000000000000000000000000000000000000000000815233600482015273ffffffffffffffffffffffffffffffffffffffff85166024820152604481018490523090636bd7bd2590606401600060405180830381600087803b15801561332157600080fd5b505af1158015613335573d6000803e3d6000fd5b506001979650505050505050565b60606000808486805490506133589190613d80565b84116133645783613371565b8554613371908690613d80565b905060008167ffffffffffffffff81111561338e5761338e613b0d565b6040519080825280602002602001820160405280156133b7578160200160208202803683370190505b50905060005b8281101561344a57876133d08289613d68565b815481106133e0576133e0613e99565b9060005260206000200160009054906101000a900473ffffffffffffffffffffffffffffffffffffffff1682828151811061341d5761341d613e99565b73ffffffffffffffffffffffffffffffffffffffff909216602092830291909101909101526001016133bd565b50806134568388613d68565b935093505050935093915050565b600061347084846137c7565b905081801561347d575080155b156134885750505050565b806134ef576040517f08c379a000000000000000000000000000000000000000000000000000000000815260206004820152601d60248201527f4164647265737320646f6573206e6f7420657869737420696e2073657400000060448201526064016107d4565b6001808501805460009261350291613d80565b8154811061351257613512613e99565b600091825260208083209091015473ffffffffffffffffffffffffffffffffffffffff87811684529188905260408084205492909116808452922081905560018701805492935090918391908390811061356e5761356e613e99565b600091825260208083209190910180547fffffffffffffffffffffffff00000000000000000000000000000000000000001673ffffffffffffffffffffffffffffffffffffffff9485161790559187168152908790526040812055600186018054806135dc576135dc613f7b565b60008281526020902081017fffffffffffffffffffffffffffffffffffffffffffffffffffffffffffffffff90810180547fffffffffffffffffffffffff0000000000000000000000000000000000000000169055019055505050505050565b73ffffffffffffffffffffffffffffffffffffffff821661365b575050565b7fb098747b87c5c0e2a32eb9b06725e9bad4263809bcda628ceadc1a686bcb826181158015906136955750613693600a8201846137c7565b155b156136a957610bdd600a82018460006136d3565b811580156136bf57506136bf600a8201846137c7565b15610bdd57610bdd600a8201846000613464565b60006136df84846137c7565b90508180156136eb5750805b156136f65750505050565b801561375e576040517f08c379a000000000000000000000000000000000000000000000000000000000815260206004820152601660248201527f4164647265737320616c726561647920696e207365740000000000000000000060448201526064016107d4565b50506001808301805473ffffffffffffffffffffffffffffffffffffffff909316600081815260209586526040812085905592840182559082529290200180547fffffffffffffffffffffffff0000000000000000000000000000000000000000169091179055565b6001820154600090156138395773ffffffffffffffffffffffffffffffffffffffff8216600081815260208590526040902054600185018054909190811061381157613811613e99565b60009182526020909120015473ffffffffffffffffffffffffffffffffffffffff161461383c565b60005b9392505050565b803573ffffffffffffffffffffffffffffffffffffffff8116811461386757600080fd5b919050565b60006020828403121561387e57600080fd5b61383c82613843565b6000815180845260005b818110156138ad57602081850181015186830182015201613891565b818111156138bf576000602083870101525b50601f017fffffffffffffffffffffffffffffffffffffffffffffffffffffffffffffffe0169290920160200192915050565b60208152600061383c6020830184613887565b6000806040838503121561391857600080fd5b61392183613843565b946020939093013593505050565b60008060006060848603121561394457600080fd5b61394d84613843565b95602085013595506040909401359392505050565b600081518084526020808501945080840160005b838110156139a857815173ffffffffffffffffffffffffffffffffffffffff1687529582019590820190600101613976565b509495945050505050565b6040815260006139c66040830185613962565b90508260208301529392505050565b6000806000606084860312156139ea57600080fd5b6139f384613843565b9250613a0160208501613843565b9150604084013590509250925092565b600060208284031215613a2357600080fd5b5035919050565b600060208284031215613a3c57600080fd5b813567ffffffffffffffff811115613a5357600080fd5b820160a0818503121561383c57600080fd5b60008083601f840112613a7757600080fd5b50813567ffffffffffffffff811115613a8f57600080fd5b602083019150836020828501011115613aa757600080fd5b9250929050565b600080600060408486031215613ac357600080fd5b83359250602084013567ffffffffffffffff811115613ae157600080fd5b613aed86828701613a65565b9497909650939450505050565b60208152600061383c6020830184613962565b7f4e487b7100000000000000000000000000000000000000000000000000000000600052604160045260246000fd5b60008060008060808587031215613b5257600080fd5b613b5b85613843565b9350613b6960208601613843565b925060408501359150606085013567ffffffffffffffff80821115613b8d57600080fd5b818701915087601f830112613ba157600080fd5b813581811115613bb357613bb3613b0d565b604051601f82017fffffffffffffffffffffffffffffffffffffffffffffffffffffffffffffffe0908116603f01168101908382118183101715613bf957613bf9613b0d565b816040528281528a6020848701011115613c1257600080fd5b82602086016020830137600060208483010152809550505050505092959194509250565b60008060408385031215613c4957600080fd5b613c5283613843565b9150613c6060208401613843565b90509250929050565b60008060008060608587031215613c7f57600080fd5b613c8885613843565b935060208501359250604085013567ffffffffffffffff811115613cab57600080fd5b613cb787828801613a65565b95989497509550505050565b600181811c90821680613cd757607f821691505b60208210811415613d11577f4e487b7100000000000000000000000000000000000000000000000000000000600052602260045260246000fd5b50919050565b600060208284031215613d2957600080fd5b8151801515811461383c57600080fd5b7f4e487b7100000000000000000000000000000000000000000000000000000000600052601160045260246000fd5b60008219821115613d7b57613d7b613d39565b500190565b600082821015613d9257613d92613d39565b500390565b60008083357fffffffffffffffffffffffffffffffffffffffffffffffffffffffffffffffe1843603018112613dcc57600080fd5b83018035915067ffffffffffffffff821115613de757600080fd5b602001915036819003821315613aa757600080fd5b8183528181602085013750600060208284010152600060207fffffffffffffffffffffffffffffffffffffffffffffffffffffffffffffffe0601f840116840101905092915050565b600073ffffffffffffffffffffffffffffffffffffffff8089168352808816602084015280871660408401525084606083015260a06080830152613e8d60a083018486613dfc565b98975050505050505050565b7f4e487b7100000000000000000000000000000000000000000000000000000000600052603260045260246000fd5b838152604060208201526000613ee2604083018486613dfc565b95945050505050565b8183823760009101908152919050565b600060208284031215613f0d57600080fd5b5051919050565b60208152600073ffffffffffffffffffffffffffffffffffffffff8084511660208401528060208501511660408401528060408501511660608401525060608301516080830152608083015160a080840152613f7360c0840182613887565b949350505050565b7f4e487b7100000000000000000000000000000000000000000000000000000000600052603160045260246000fdfea26469706673582212204cb63a0cab713fe3f581fde4df48fba1ed8d6df0e451893d61fa2b189e31ef4f64736f6c634300080a0033",
  "devdoc": {
    "kind": "dev",
    "methods": {
      "allowance(address,address)": {
        "details": "This value changes when `approve`, `disapprove` and `transferFrom` / `transferFromWithRef` are called.",
        "params": {
          "owner": "is the owner of the funds.",
          "spender": "is the address for which the allowance should be queried."
        },
        "returns": {
          "_0": "A `uint256` representing the remaining allowance of `spender` over `owner`'s funds."
        }
      },
      "approve(address,uint256)": {
        "params": {
          "amount": "is how much to **increase** the allowance.",
          "spender": "is the address to allow spending from the caller's wallet."
        }
      },
      "balanceOf(address)": {
        "params": {
          "owner": "The owners address to get the balance of."
        },
        "returns": {
          "_0": "uint256 The current balance of this owner's account."
        }
      },
      "burn(uint256,string)": {
        "params": {
          "amount": "The number of FAST tokens to mint.",
          "ref": "A reference for this minting operation."
        }
      },
      "decimals()": {
        "returns": {
          "_0": "uint256 Number of decimals the FAST has."
        }
      },
      "disapprove(address,uint256)": {
        "params": {
          "amount": "is how much to **decrease** the allowance.",
          "spender": "is the address to disallow spending from the caller's wallet."
        }
      },
      "mint(uint256,string)": {
        "params": {
          "amount": "The number of FAST tokens to mint.",
          "ref": "A reference for this minting operation."
        }
      },
      "name()": {
        "returns": {
          "_0": "string Name of the FAST."
        }
      },
      "performApproval(address,address,uint256)": {
        "params": {
          "amount": "is how much to **increase** the current allowance by.  Note: This function runs when amount is zero, and will emit.",
          "from": "is the wallet from which to give the allowance.",
          "spender": "is the receiver of the allowance."
        }
      },
      "retrieveDeadTokens(address)": {
        "params": {
          "holder": "is the address for which to move the tokens from."
        }
      },
      "symbol()": {
        "returns": {
          "_0": "string Symbol of the FAST."
        }
      },
      "totalSupply()": {
        "returns": {
          "_0": "uint256 Total supply of the FAST."
        }
      },
      "transferCredits()": {
        "returns": {
          "_0": "Number of transfer credits remaining."
        }
      }
    },
    "version": 1
  },
  "userdoc": {
    "events": {
      "Approval(address,address,uint256)": {
        "notice": "See `ERC20.Approval`."
      },
      "Burnt(uint256,string)": {
        "notice": "Emited whenever an burning happens in a FAST."
      },
      "DetailsChanged(uint256,uint256,uint256,uint256,uint256,uint256)": {
        "notice": "This is an event that is fired whenever any of some of the FAST parameters change, so that the frontend can react to it and refresh the general header for that fast as well as the baseball cards in the FASTs list."
      },
      "Disapproval(address,address,uint256)": {
        "notice": "See `ERC20.Disapproval`."
      },
      "GovernorAdded(address)": {
        "notice": "Emited when a governor is added to the implementing contract."
      },
      "GovernorRemoved(address)": {
        "notice": "Emited when a governor is removed to the implementing contract."
      },
      "MemberAdded(address)": {
        "notice": "Emited when a member is added to the implementing contract."
      },
      "MemberRemoved(address)": {
        "notice": "Emited when a member is removed to the implementing contract."
      },
      "Minted(uint256,string)": {
        "notice": "Emited whenever an issuance happens in a FAST."
      },
      "Transfer(address,address,uint256)": {
        "notice": "See `ERC20.Transfer`."
      },
      "TransferCreditsAdded(address,uint256)": {
        "notice": "Emited whenever transfer credits increase inside a FAST."
      },
      "TransferCreditsDrained(address,uint256)": {
        "notice": "Emited whenever transfer credits are drained inside a FAST."
      }
    },
    "kind": "user",
    "methods": {
      "addTransferCredits(uint256)": {
        "notice": "Adds `amount` of transfer credits to this FAST."
      },
      "allowance(address,address)": {
        "notice": "Returns the remaining number of tokens that `spender` will be allowed to spend on behalf of `owner` through `transferFrom`. This is zero by default."
      },
      "approve(address,uint256)": {
        "notice": "This method directly calls `performApproval`, setting its `from` paramter to the sender of the transaction."
      },
      "balanceOf(address)": {
        "notice": "The balance of the passed owner (ERC20 standard)."
      },
      "burn(uint256,string)": {
        "notice": "Burns an amount of FAST tokens.  A reference can be passed to identify why this happened for example. Business logic. - Modifiers:   - Requires the caller to be a member of the Issuer contract. - Requires that the token has continuous supply. - Requires that there are enough funds in the reserve to cover for `amount` being burnt. - Decreases the reserve balance by `amount`. - Calls `FastHistoryFacet.burnt(amount, ref)`. - Calls `FastFrontendFacet.emitDetailsChanged`. - Emits a `Burnt(amount, ref)`."
      },
      "decimals()": {
        "notice": "The `decimals` of this FAST (ERC20 standard)."
      },
      "disapprove(address,uint256)": {
        "notice": "This method directly calls `performDisapproval`, setting its `from` parameter to the sender of the transaction."
      },
      "drainTransferCredits()": {
        "notice": "Drains the transfer credits from this FAST. Business logic: - Modifiers:   - Requires the caller to be a member of the Issuer contract. - Emits a `TransferCreditsDrained(caller, previousTransferCredits)`. - Sets transfer credits to zero. - Calls `FastFrontendFacet.emitDetailsChanged`"
      },
      "mint(uint256,string)": {
        "notice": "Mints an amount of FAST tokens.  A reference can be passed to identify why this happened for example. Business logic: - Modifiers:   - Requires the caller to be a member of the Issuer contract. - Requires that either the token has continuous supply, or that no tokens have been minted yet. - Increases the reserve balance by `amount`. - Calls `FastHistoryFacet.minted`. - Calls `FastFrontendFacet.emitDetailsChanged`. - Emits a `Minted(amount, ref)` event."
      },
      "name()": {
        "notice": "The name of this FAST (ERC20 standard)."
      },
      "performApproval(address,address,uint256)": {
        "notice": "Increases the allowance given by `from` to `spender` by `amount`. Note that this function should run and emit even if the amount passed is zero. Business logic: - Modifiers:   - Only facets of the current diamond should be able to call this.   - Requires that `onlyTokenHolder` passes for the `from` address. - Requires that the `amount` is positive number. - Increases the allowance given by `from` to `spender` by `amount`. - Update the allowance lookup tables in both directions. - Emits an `Approval(from, spender, amount)`."
      },
      "performDisapproval(address,address,uint256)": {
        "notice": "Decreases allowance given by `from` to `spender` by `amount`. Business logic: - Modifiers:   - Only facets of the current diamond should be able to call this. - The allowance given by `from` to `spender` is decreased by `amount`. - Whether the allowance reached zero, stop tracking it by owner and by spender. - Emit a `Disapproval(from, spender, amount)` event.  Note: This function runs when amount is zero, and will emit."
      },
      "performTransfer((address,address,address,uint256,string))": {
        "notice": "This is the internal method that gets called whenever a transfer is initiated. Both `transfer`, `transferWithRef`, and their variants internally call this function. Business logic: - Modifiers:   - Only facets of the current diamond should be able to call this.   - Requires that `from` and `to` addresses are different.   - Requires that `onlyTokenHolder` passes for the `from` address.   - Requires that the `from` address is an active Marketplace contract member.   - Requires that `onlyTokenHolder` passes for the `to` address. - Requires that the `from` address has enough funds to cover for `amount`. - Requires that the amount is a positive value. - If the transfer is an allowance - e.g. the `spender` is not the same as the `from` address,   - The allowance given by the `from` address to the `spender` covers for the `amount`.     - If we are **not** transfering **from** the reserve,       - Decreases the allowance given by `from` to `spender`.         - If the new allowance reaches zero,           - Stop tracking the allowance in the allowance lookup tables for both spending and receiving directions. - Decreases the balance of the `owner` address. - Increases the balance of the `to` address by `amount`. - If we are **not** transfering **from** the reserve,   - Requires that there are enough transfer credits to cover for `amount`.   - Decreases the transfer credits by `amount`. - If the `to` address is the reserve,   - Decreases the total supply by `amount`.   - Calls `FastFrontendFacet.emitDetailsChanged`. - Else, if the `from` address is the reserve,   - Increases the total supply by `amount`.   - Calls `FastFrontendFacet.emitDetailsChanged`. - Calls `FastHistoryFacet.transfered`. - Emits a `Transfer(from, to, amount)` event."
      },
      "retrieveDeadTokens(address)": {
        "notice": "Allows an Issuer member to move an arbitrary account's holdings back to the reserve, as per regulatory requirements. Business logic: - Modifiers:   - Requires that the caller is a member of the Issuer contract. - If the amount held by `holder` is not zero   - The balance of `holder` should be set to zero.   - The reserve's balance should be increased by how much was on the holder's account.   - Total supply should be decreased by that amount too. - The `holder`'s address should not be tracked as a token holder in this FAST anymore. - The `holder`'s address should not be tracked as a token holder in the Marketplace anymore. - A `Transfer(holder, reserve, amount)` event should be emited. - If the amount previously held by `holder` was not zero,   - Since the reserve balance and total supply have changed, the `FastFrontendFacet.emitDetailsChanged()` function should be called."
      },
      "symbol()": {
        "notice": "The symbol of this FAST (ERC20 standard)."
      },
      "totalSupply()": {
        "notice": "The total supply of the FAST (ERC20 standard)."
      },
      "transfer(address,uint256)": {
        "notice": "See `performTransfer`, the spender will be equal to the `owner`, and the `ref` will be defauted. "
      },
      "transferCredits()": {
        "notice": "Get the current `transferCredits` for this FAST."
      },
      "transferFrom(address,address,uint256)": {
        "notice": "See `performTransfer`, the `ref` will be defaulted."
      },
      "transferFromWithRef(address,address,uint256,string)": {
        "notice": "See `performTransfer`."
      },
      "transferWithRef(address,uint256,string)": {
        "notice": "See `performTransfer`, the spender will be equal to the `owner`. "
      }
    },
    "version": 1
  },
  "storageLayout": {
    "storage": [],
    "types": null
  }
}