{
  "address": "0xC40Bf7f497eA426B8AcA883488Ad5a255a11F8D2",
  "abi": [
    {
      "inputs": [
        {
          "internalType": "address",
          "name": "who",
          "type": "address"
        }
      ],
      "name": "RequiresAutomatonsManager",
      "type": "error"
    },
    {
      "anonymous": false,
      "inputs": [
        {
          "indexed": true,
          "internalType": "address",
          "name": "owner",
          "type": "address"
        },
        {
          "indexed": true,
          "internalType": "address",
          "name": "spender",
          "type": "address"
        },
        {
          "indexed": false,
          "internalType": "uint256",
          "name": "value",
          "type": "uint256"
        }
      ],
      "name": "Approval",
      "type": "event"
    },
    {
      "anonymous": false,
      "inputs": [
        {
          "indexed": true,
          "internalType": "address",
          "name": "automaton",
          "type": "address"
        },
        {
          "indexed": true,
          "internalType": "uint32",
          "name": "privileges",
          "type": "uint32"
        }
      ],
      "name": "AutomatonPrivilegesSet",
      "type": "event"
    },
    {
      "anonymous": false,
      "inputs": [
        {
          "indexed": true,
          "internalType": "address",
          "name": "automaton",
          "type": "address"
        }
      ],
      "name": "AutomatonRemoved",
      "type": "event"
    },
    {
      "anonymous": false,
      "inputs": [
        {
          "indexed": true,
          "internalType": "uint256",
          "name": "amount",
          "type": "uint256"
        },
        {
          "indexed": false,
          "internalType": "string",
          "name": "ref",
          "type": "string"
        },
        {
          "indexed": true,
          "internalType": "address",
          "name": "who",
          "type": "address"
        }
      ],
      "name": "Burnt",
      "type": "event"
    },
    {
      "anonymous": false,
      "inputs": [
        {
          "indexed": true,
          "internalType": "contract Crowdfund",
          "name": "crowdfund",
          "type": "address"
        }
      ],
      "name": "CrowdfundDeployed",
      "type": "event"
    },
    {
      "anonymous": false,
      "inputs": [
        {
          "indexed": true,
          "internalType": "contract Crowdfund",
          "name": "crowdfund",
          "type": "address"
        }
      ],
      "name": "CrowdfundRemoved",
      "type": "event"
    },
    {
      "anonymous": false,
      "inputs": [
        {
          "indexed": false,
          "internalType": "bool",
          "name": "transfersDisabled",
          "type": "bool"
        },
        {
          "indexed": false,
          "internalType": "uint256",
          "name": "memberCount",
          "type": "uint256"
        },
        {
          "indexed": false,
          "internalType": "uint256",
          "name": "governorCount",
          "type": "uint256"
        },
        {
          "indexed": false,
          "internalType": "uint256",
          "name": "totalSupply",
          "type": "uint256"
        },
        {
          "indexed": false,
          "internalType": "uint256",
          "name": "reserveBalance",
          "type": "uint256"
        }
      ],
      "name": "DetailsChanged",
      "type": "event"
    },
    {
      "anonymous": false,
      "inputs": [
        {
          "indexed": true,
          "internalType": "address",
          "name": "owner",
          "type": "address"
        },
        {
          "indexed": true,
          "internalType": "address",
          "name": "spender",
          "type": "address"
        },
        {
          "indexed": false,
          "internalType": "uint256",
          "name": "value",
          "type": "uint256"
        }
      ],
      "name": "Disapproval",
      "type": "event"
    },
    {
      "anonymous": false,
      "inputs": [
        {
          "indexed": true,
          "internalType": "contract Distribution",
          "name": "distribution",
          "type": "address"
        }
      ],
      "name": "DistributionDeployed",
      "type": "event"
    },
    {
      "anonymous": false,
      "inputs": [
        {
          "indexed": true,
          "internalType": "contract Distribution",
          "name": "distribution",
          "type": "address"
        }
      ],
      "name": "DistributionRemoved",
      "type": "event"
    },
    {
      "anonymous": false,
      "inputs": [
        {
          "indexed": true,
          "internalType": "address",
          "name": "spender",
          "type": "address"
        },
        {
          "indexed": true,
          "internalType": "address",
          "name": "from",
          "type": "address"
        },
        {
          "indexed": true,
          "internalType": "address",
          "name": "to",
          "type": "address"
        },
        {
          "indexed": false,
          "internalType": "uint256",
          "name": "value",
          "type": "uint256"
        },
        {
          "indexed": false,
          "internalType": "string",
          "name": "ref",
          "type": "string"
        }
      ],
      "name": "FastTransfer",
      "type": "event"
    },
    {
      "anonymous": false,
      "inputs": [
        {
          "indexed": true,
          "internalType": "uint256",
          "name": "amount",
          "type": "uint256"
        },
        {
          "indexed": false,
          "internalType": "string",
          "name": "ref",
          "type": "string"
        },
        {
          "indexed": true,
          "internalType": "address",
          "name": "who",
          "type": "address"
        }
      ],
      "name": "Minted",
      "type": "event"
    },
    {
      "anonymous": false,
      "inputs": [
        {
          "indexed": true,
          "internalType": "address",
          "name": "from",
          "type": "address"
        },
        {
          "indexed": true,
          "internalType": "address",
          "name": "to",
          "type": "address"
        },
        {
          "indexed": false,
          "internalType": "uint256",
          "name": "value",
          "type": "uint256"
        }
      ],
      "name": "Transfer",
      "type": "event"
    },
    {
      "inputs": [
        {
          "internalType": "address",
          "name": "automaton",
          "type": "address"
        },
        {
          "internalType": "uint32",
          "name": "privilege",
          "type": "uint32"
        }
      ],
      "name": "automatonCan",
      "outputs": [
        {
          "internalType": "bool",
          "name": "",
          "type": "bool"
        }
      ],
      "stateMutability": "view",
      "type": "function"
    },
    {
      "inputs": [],
      "name": "automatonCount",
      "outputs": [
        {
          "internalType": "uint256",
          "name": "",
          "type": "uint256"
        }
      ],
      "stateMutability": "view",
      "type": "function"
    },
    {
      "inputs": [
        {
          "internalType": "address",
          "name": "automaton",
          "type": "address"
        }
      ],
      "name": "automatonPrivileges",
      "outputs": [
        {
          "internalType": "uint32",
          "name": "",
          "type": "uint32"
        }
      ],
      "stateMutability": "view",
      "type": "function"
    },
    {
      "inputs": [
        {
          "internalType": "address",
          "name": "candidate",
          "type": "address"
        }
      ],
      "name": "isAutomaton",
      "outputs": [
        {
          "internalType": "bool",
          "name": "",
          "type": "bool"
        }
      ],
      "stateMutability": "view",
      "type": "function"
    },
    {
      "inputs": [
        {
          "internalType": "uint256",
          "name": "cursor",
          "type": "uint256"
        },
        {
          "internalType": "uint256",
          "name": "perPage",
          "type": "uint256"
        }
      ],
      "name": "paginateAutomatons",
      "outputs": [
        {
          "internalType": "address[]",
          "name": "",
          "type": "address[]"
        },
        {
          "internalType": "uint256",
          "name": "",
          "type": "uint256"
        }
      ],
      "stateMutability": "view",
      "type": "function"
    },
    {
      "inputs": [
        {
          "internalType": "address",
          "name": "candidate",
          "type": "address"
        }
      ],
      "name": "removeAutomaton",
      "outputs": [],
      "stateMutability": "nonpayable",
      "type": "function"
    },
    {
      "inputs": [
        {
          "internalType": "address",
          "name": "candidate",
          "type": "address"
        },
        {
          "internalType": "uint32",
          "name": "privileges",
          "type": "uint32"
        }
      ],
      "name": "setAutomatonPrivileges",
      "outputs": [],
      "stateMutability": "nonpayable",
      "type": "function"
    }
  ],
  "transactionHash": "0x0dd36be71a7263a4c050e073a29672d8baaf85c2c66a59d05dccee67142d92c4",
  "args": [],
  "numDeployments": 10,
  "solcInputHash": "7961a9f4ab75b2fc4f5f852ba4e9b044",
  "bytecode": "0x608060405234801561001057600080fd5b50610df3806100206000396000f3fe608060405234801561001057600080fd5b506004361061007d5760003560e01c8063911a56cc1161005b578063911a56cc146100e0578063b70cc72a146100f3578063b87c747514610106578063ccf90c741461017657600080fd5b80633e39e4cf14610082578063617b0b9d1461009757806376a7383d146100bf575b600080fd5b610095610090366004610b5a565b6101a6565b005b6100aa6100a5366004610b5a565b6102d7565b60405190151581526020015b60405180910390f35b6100d26100cd366004610b9a565b6103c2565b6040516100b6929190610bbc565b6100956100ee366004610c1a565b6103fc565b6100aa610101366004610c1a565b610519565b610161610114366004610c1a565b73ffffffffffffffffffffffffffffffffffffffff1660009081527f3dfe1f2f995ddddfe9572dcdd01e4fb472ed2fb10a125c3b0156e94d073b9186602052604090205463ffffffff1690565b60405163ffffffff90911681526020016100b6565b7f3dfe1f2f995ddddfe9572dcdd01e4fb472ed2fb10a125c3b0156e94d073b9185546040519081526020016100b6565b336101b08161054b565b610203576040517f972aa5a900000000000000000000000000000000000000000000000000000000815273ffffffffffffffffffffffffffffffffffffffff821660048201526024015b60405180910390fd5b7f3dfe1f2f995ddddfe9572dcdd01e4fb472ed2fb10a125c3b0156e94d073b91836102507f3dfe1f2f995ddddfe9572dcdd01e4fb472ed2fb10a125c3b0156e94d073b9184856001610556565b73ffffffffffffffffffffffffffffffffffffffff8416600081815260038301602052604080822080547fffffffffffffffffffffffffffffffffffffffffffffffffffffffff000000001663ffffffff881690811790915590519092917f5fd56a5aab6279a81e4acca954bf23ce5ffea9c6351189f4faf647731c38dffa91a350505050565b600061036e6040518060400160405280600581526020017f50524956530000000000000000000000000000000000000000000000000000008152506103397f3dfe1f2f995ddddfe9572dcdd01e4fb472ed2fb10a125c3b0156e94d073b918390565b73ffffffffffffffffffffffffffffffffffffffff86166000908152600391909101602052604090205463ffffffff1661064a565b5073ffffffffffffffffffffffffffffffffffffffff9190911660009081527f3dfe1f2f995ddddfe9572dcdd01e4fb472ed2fb10a125c3b0156e94d073b918660205260409020541663ffffffff16151590565b606060006103f17f3dfe1f2f995ddddfe9572dcdd01e4fb472ed2fb10a125c3b0156e94d073b918585856106df565b915091509250929050565b336104068161054b565b610454576040517f972aa5a900000000000000000000000000000000000000000000000000000000815273ffffffffffffffffffffffffffffffffffffffff821660048201526024016101fa565b7f3dfe1f2f995ddddfe9572dcdd01e4fb472ed2fb10a125c3b0156e94d073b91836104a17f3dfe1f2f995ddddfe9572dcdd01e4fb472ed2fb10a125c3b0156e94d073b9184846000610800565b73ffffffffffffffffffffffffffffffffffffffff8316600081815260038301602052604080822080547fffffffffffffffffffffffffffffffffffffffffffffffffffffffff00000000169055517f4592667aee797226527dbacd5953afb6e4fd4263ffc6f671efc0441b45b098d49190a2505050565b60006105457f3dfe1f2f995ddddfe9572dcdd01e4fb472ed2fb10a125c3b0156e94d073b9184836109d8565b92915050565b600061054582610a54565b600061056284846109d8565b905081801561056e5750805b156105795750505050565b80156105e1576040517f08c379a000000000000000000000000000000000000000000000000000000000815260206004820152601660248201527f4164647265737320616c726561647920696e207365740000000000000000000060448201526064016101fa565b50506001808301805473ffffffffffffffffffffffffffffffffffffffff909316600081815260209586526040812085905592840182559082529290200180547fffffffffffffffffffffffff0000000000000000000000000000000000000000169091179055565b6106db8282604051602401610660929190610c35565b604080517fffffffffffffffffffffffffffffffffffffffffffffffffffffffffffffffe08184030181529190526020810180517bffffffffffffffffffffffffffffffffffffffffffffffffffffffff167fb60e72cc00000000000000000000000000000000000000000000000000000000179052610b10565b5050565b60606000808486805490506106f49190610cdf565b8411610700578361070d565b855461070d908690610cdf565b905060008167ffffffffffffffff81111561072a5761072a610cf6565b604051908082528060200260200182016040528015610753578160200160208202803683370190505b50905060005b828110156107e6578761076c8289610d25565b8154811061077c5761077c610d3d565b9060005260206000200160009054906101000a900473ffffffffffffffffffffffffffffffffffffffff168282815181106107b9576107b9610d3d565b73ffffffffffffffffffffffffffffffffffffffff90921660209283029190910190910152600101610759565b50806107f28388610d25565b935093505050935093915050565b600061080c84846109d8565b9050818015610819575080155b156108245750505050565b8061088b576040517f08c379a000000000000000000000000000000000000000000000000000000000815260206004820152601d60248201527f4164647265737320646f6573206e6f7420657869737420696e2073657400000060448201526064016101fa565b6001808501805460009261089e91610cdf565b815481106108ae576108ae610d3d565b600091825260208083209091015473ffffffffffffffffffffffffffffffffffffffff87811684529188905260408084205492909116808452922081905560018701805492935090918391908390811061090a5761090a610d3d565b600091825260208083209190910180547fffffffffffffffffffffffff00000000000000000000000000000000000000001673ffffffffffffffffffffffffffffffffffffffff94851617905591871681529087905260408120556001860180548061097857610978610d6c565b60008281526020902081017fffffffffffffffffffffffffffffffffffffffffffffffffffffffffffffffff90810180547fffffffffffffffffffffffff0000000000000000000000000000000000000000169055019055505050505050565b600182015460009015610a4a5773ffffffffffffffffffffffffffffffffffffffff82166000818152602085905260409020546001850180549091908110610a2257610a22610d3d565b60009182526020909120015473ffffffffffffffffffffffffffffffffffffffff1614610a4d565b60005b9392505050565b60007f80c187ea6f955fd624c41fb7a18011cc87d98c6f4c06d897b59142f65707e705546040517fa230c52400000000000000000000000000000000000000000000000000000000815273ffffffffffffffffffffffffffffffffffffffff8481166004830152620100009092049091169063a230c52490602401602060405180830381865afa158015610aec573d6000803e3d6000fd5b505050506040513d601f19601f820116820180604052508101906105459190610d9b565b80516a636f6e736f6c652e6c6f67602083016000808483855afa5050505050565b803573ffffffffffffffffffffffffffffffffffffffff81168114610b5557600080fd5b919050565b60008060408385031215610b6d57600080fd5b610b7683610b31565b9150602083013563ffffffff81168114610b8f57600080fd5b809150509250929050565b60008060408385031215610bad57600080fd5b50508035926020909101359150565b604080825283519082018190526000906020906060840190828701845b82811015610c0b57815173ffffffffffffffffffffffffffffffffffffffff1684529284019290840190600101610bd9565b50505092019290925292915050565b600060208284031215610c2c57600080fd5b610a4d82610b31565b604081526000835180604084015260005b81811015610c635760208187018101516060868401015201610c46565b81811115610c75576000606083860101525b50602083019390935250601f919091017fffffffffffffffffffffffffffffffffffffffffffffffffffffffffffffffe01601606001919050565b7f4e487b7100000000000000000000000000000000000000000000000000000000600052601160045260246000fd5b600082821015610cf157610cf1610cb0565b500390565b7f4e487b7100000000000000000000000000000000000000000000000000000000600052604160045260246000fd5b60008219821115610d3857610d38610cb0565b500190565b7f4e487b7100000000000000000000000000000000000000000000000000000000600052603260045260246000fd5b7f4e487b7100000000000000000000000000000000000000000000000000000000600052603160045260246000fd5b600060208284031215610dad57600080fd5b81518015158114610a4d57600080fdfea26469706673582212201d7b6a4354757f9d7333881e807e704ba9d3ac659fa3c4715f01b4a80d09112864736f6c634300080a0033",
  "devdoc": {
    "kind": "dev",
    "methods": {
      "automatonCount()": {
        "returns": {
          "_0": "The number of automatons in this marketplace."
        }
      },
      "automatonPrivileges(address)": {
        "params": {
          "automaton": "is the address to test."
        },
        "returns": {
          "_0": "An `uint256` bitfield."
        }
      },
      "isAutomaton(address)": {
        "params": {
          "candidate": "is the address to test."
        },
        "returns": {
          "_0": "A `boolean` flag."
        }
      },
      "paginateAutomatons(uint256,uint256)": {
        "params": {
          "cursor": "is the index at which to start.",
          "perPage": "is how many records should be returned at most."
        },
        "returns": {
          "_0": "A `address[]` list of values at most `perPage` big.",
          "_1": "A `uint256` index to the next page."
        }
      },
      "removeAutomaton(address)": {
        "params": {
          "candidate": "is the automaton to remove."
        }
      },
      "setAutomatonPrivileges(address,uint32)": {
        "params": {
          "candidate": "is the automaton address to which the privileges should be assigned.",
          "privileges": "is a bitfield of privileges to apply."
        }
      }
    },
    "title": "The Fast Smart Contract.",
    "version": 1
  },
  "userdoc": {
    "errors": {
      "RequiresAutomatonsManager(address)": [
        {
          "notice": "Errors."
        }
      ]
    },
    "events": {
      "Approval(address,address,uint256)": {
        "notice": "See `ERC20.Approval`."
      },
      "AutomatonPrivilegesSet(address,uint32)": {
        "notice": "Emited when an automaton is added or changed."
      },
      "AutomatonRemoved(address)": {
        "notice": "Emited when an automaton is removed."
      },
      "Burnt(uint256,string,address)": {
        "notice": "Emited whenever an burning happens in a FAST."
      },
      "CrowdfundDeployed(address)": {
        "notice": "Crowdfund related events."
      },
      "DetailsChanged(bool,uint256,uint256,uint256,uint256)": {
        "notice": "This is an event that is fired whenever any of some of the FAST parameters change, so that the frontend can react to it and refresh the general header for that fast as well as the baseball cards in the FASTs list."
      },
      "Disapproval(address,address,uint256)": {
        "notice": "See `ERC20.Disapproval`."
      },
      "DistributionDeployed(address)": {
        "notice": "Distribution related events."
      },
      "FastTransfer(address,address,address,uint256,string)": {
        "notice": "As we augmented the ERC20 standard with a few concepts, we emit our custom events in addition to the ERC20 ones."
      },
      "Minted(uint256,string,address)": {
        "notice": "Emited whenever an issuance happens in a FAST."
      },
      "Transfer(address,address,uint256)": {
        "notice": "See `ERC20.Transfer`."
      }
    },
    "kind": "user",
    "methods": {
      "automatonCount()": {
        "notice": "Counts the numbers of automatons present in this Fast."
      },
      "automatonPrivileges(address)": {
        "notice": "Returns the privileges for a given automaton address, or zero if no privileges exist."
      },
      "isAutomaton(address)": {
        "notice": "Queries whether a given address is an automaton for this Fast or not."
      },
      "paginateAutomatons(uint256,uint256)": {
        "notice": "Paginates the automatons of this Fast based on a starting cursor and a number of records per page."
      },
      "removeAutomaton(address)": {
        "notice": "Removes an automaton completely."
      },
      "setAutomatonPrivileges(address,uint32)": {
        "notice": "Sets privileges for a given automaton address."
      }
    },
    "notice": "The Fast Automatons facet is in charge of keeping track of automaton accounts.",
    "version": 1
  },
  "storageLayout": {
    "storage": [],
    "types": null
  }
}