{
  "address": "0x6DEf6cE6adeEAeeEa67fecdC3f32DC0CCf587F79",
  "abi": [
    {
      "anonymous": false,
      "inputs": [
        {
          "indexed": true,
          "internalType": "address",
          "name": "fast",
          "type": "address"
        },
        {
          "indexed": true,
          "internalType": "string",
          "name": "oldGroup",
          "type": "string"
        },
        {
          "indexed": true,
          "internalType": "string",
          "name": "newGroup",
          "type": "string"
        }
      ],
      "name": "FastGroupChanged",
      "type": "event"
    },
    {
      "anonymous": false,
      "inputs": [
        {
          "indexed": true,
          "internalType": "address",
          "name": "fast",
          "type": "address"
        }
      ],
      "name": "FastRegistered",
      "type": "event"
    },
    {
      "anonymous": false,
      "inputs": [
        {
          "indexed": true,
          "internalType": "address",
          "name": "fast",
          "type": "address"
        }
      ],
      "name": "FastUnregistered",
      "type": "event"
    },
    {
      "anonymous": false,
      "inputs": [
        {
          "indexed": true,
          "internalType": "address",
          "name": "fast",
          "type": "address"
        },
        {
          "indexed": true,
          "internalType": "address",
          "name": "governor",
          "type": "address"
        }
      ],
      "name": "GovernorshipAdded",
      "type": "event"
    },
    {
      "anonymous": false,
      "inputs": [
        {
          "indexed": true,
          "internalType": "address",
          "name": "fast",
          "type": "address"
        },
        {
          "indexed": true,
          "internalType": "address",
          "name": "governor",
          "type": "address"
        }
      ],
      "name": "GovernorshipRemoved",
      "type": "event"
    },
    {
      "inputs": [
        {
          "internalType": "uint256",
          "name": "cursor",
          "type": "uint256"
        },
        {
          "internalType": "uint256",
          "name": "perPage",
          "type": "uint256"
        }
      ],
      "name": "paginateDetailedFasts",
      "outputs": [
        {
          "components": [
            {
              "internalType": "address",
              "name": "addr",
              "type": "address"
            },
            {
              "internalType": "string",
              "name": "name",
              "type": "string"
            },
            {
              "internalType": "string",
              "name": "symbol",
              "type": "string"
            },
            {
              "internalType": "uint8",
              "name": "decimals",
              "type": "uint8"
            },
            {
              "internalType": "uint256",
              "name": "totalSupply",
              "type": "uint256"
            },
            {
              "internalType": "bool",
              "name": "isSemiPublic",
              "type": "bool"
            },
            {
              "internalType": "bool",
              "name": "hasFixedSupply",
              "type": "bool"
            },
            {
              "internalType": "bool",
              "name": "transfersDisabled",
              "type": "bool"
            },
            {
              "internalType": "uint256",
              "name": "reserveBalance",
              "type": "uint256"
            },
            {
              "internalType": "uint256",
              "name": "memberCount",
              "type": "uint256"
            },
            {
              "internalType": "uint256",
              "name": "governorCount",
              "type": "uint256"
            }
          ],
          "internalType": "struct FastFrontendFacet.Details[]",
          "name": "",
          "type": "tuple[]"
        },
        {
          "internalType": "uint256",
          "name": "",
          "type": "uint256"
        }
      ],
      "stateMutability": "view",
      "type": "function"
    },
    {
      "inputs": [
        {
          "internalType": "string",
          "name": "group",
          "type": "string"
        },
        {
          "internalType": "uint256",
          "name": "cursor",
          "type": "uint256"
        },
        {
          "internalType": "uint256",
          "name": "perPage",
          "type": "uint256"
        }
      ],
      "name": "paginateDetailedFastsInGroup",
      "outputs": [
        {
          "components": [
            {
              "internalType": "address",
              "name": "addr",
              "type": "address"
            },
            {
              "internalType": "string",
              "name": "name",
              "type": "string"
            },
            {
              "internalType": "string",
              "name": "symbol",
              "type": "string"
            },
            {
              "internalType": "uint8",
              "name": "decimals",
              "type": "uint8"
            },
            {
              "internalType": "uint256",
              "name": "totalSupply",
              "type": "uint256"
            },
            {
              "internalType": "bool",
              "name": "isSemiPublic",
              "type": "bool"
            },
            {
              "internalType": "bool",
              "name": "hasFixedSupply",
              "type": "bool"
            },
            {
              "internalType": "bool",
              "name": "transfersDisabled",
              "type": "bool"
            },
            {
              "internalType": "uint256",
              "name": "reserveBalance",
              "type": "uint256"
            },
            {
              "internalType": "uint256",
              "name": "memberCount",
              "type": "uint256"
            },
            {
              "internalType": "uint256",
              "name": "governorCount",
              "type": "uint256"
            }
          ],
          "internalType": "struct FastFrontendFacet.Details[]",
          "name": "",
          "type": "tuple[]"
        },
        {
          "internalType": "uint256",
          "name": "",
          "type": "uint256"
        }
      ],
      "stateMutability": "view",
      "type": "function"
    }
  ],
  "transactionHash": "0xeba1a608cb36b8bb8537f8f87399e02bef95053a1c8d712d8a5d435037c1a850",
  "args": [],
  "numDeployments": 12,
  "solcInputHash": "0c5edcaf3b980b5b02d418a4da87d6ed",
  "bytecode": "0x608060405234801561001057600080fd5b50610b13806100206000396000f3fe608060405234801561001057600080fd5b50600436106100365760003560e01c80639c4e13ea1461003b578063c631108b14610065575b600080fd5b61004e610049366004610599565b610078565b60405161005c929190610692565b60405180910390f35b61004e6100733660046107c1565b61028b565b6060600080806100cd7fd681d5f1de7bc4b7442c088939dc202585e09699e92a94c9717ace8d0f4fcaa560040189896040516100b59291906107e3565b90815260200160405180910390206001018787610478565b915091506000825167ffffffffffffffff8111156100ed576100ed6107f3565b60405190808252806020026020018201604052801561019a57816020015b610187604051806101600160405280600073ffffffffffffffffffffffffffffffffffffffff1681526020016060815260200160608152602001600060ff168152602001600081526020016000151581526020016000151581526020016000151581526020016000815260200160008152602001600081525090565b81526020019060019003908161010b5790505b50835190915060005b8181101561027a578481815181106101bd576101bd610822565b602002602001015173ffffffffffffffffffffffffffffffffffffffff1663565974d36040518163ffffffff1660e01b8152600401600060405180830381865afa15801561020f573d6000803e3d6000fd5b505050506040513d6000823e601f3d9081017fffffffffffffffffffffffffffffffffffffffffffffffffffffffffffffffe0168201604052610255919081019061096b565b83828151811061026757610267610822565b60209081029190910101526001016101a3565b509099919850909650505050505050565b6060600080806102bc7fd681d5f1de7bc4b7442c088939dc202585e09699e92a94c9717ace8d0f4fcaa78787610478565b915091506000825167ffffffffffffffff8111156102dc576102dc6107f3565b60405190808252806020026020018201604052801561038957816020015b610376604051806101600160405280600073ffffffffffffffffffffffffffffffffffffffff1681526020016060815260200160608152602001600060ff168152602001600081526020016000151581526020016000151581526020016000151581526020016000815260200160008152602001600081525090565b8152602001906001900390816102fa5790505b50835190915060005b81811015610469578481815181106103ac576103ac610822565b602002602001015173ffffffffffffffffffffffffffffffffffffffff1663565974d36040518163ffffffff1660e01b8152600401600060405180830381865afa1580156103fe573d6000803e3d6000fd5b505050506040513d6000823e601f3d9081017fffffffffffffffffffffffffffffffffffffffffffffffffffffffffffffffe0168201604052610444919081019061096b565b83828151811061045657610456610822565b6020908102919091010152600101610392565b50909791965090945050505050565b606060008084868054905061048d9190610aae565b841161049957836104a6565b85546104a6908690610aae565b905060008167ffffffffffffffff8111156104c3576104c36107f3565b6040519080825280602002602001820160405280156104ec578160200160208202803683370190505b50905060005b8281101561057f57876105058289610ac5565b8154811061051557610515610822565b9060005260206000200160009054906101000a900473ffffffffffffffffffffffffffffffffffffffff1682828151811061055257610552610822565b73ffffffffffffffffffffffffffffffffffffffff909216602092830291909101909101526001016104f2565b508061058b8388610ac5565b935093505050935093915050565b600080600080606085870312156105af57600080fd5b843567ffffffffffffffff808211156105c757600080fd5b818701915087601f8301126105db57600080fd5b8135818111156105ea57600080fd5b8860208285010111156105fc57600080fd5b6020928301999098509187013596604001359550909350505050565b60005b8381101561063357818101518382015260200161061b565b83811115610642576000848401525b50505050565b60008151808452610660816020860160208601610618565b601f017fffffffffffffffffffffffffffffffffffffffffffffffffffffffffffffffe0169290920160200192915050565b60006040808301818452808651808352606092508286019150828160051b8701016020808a0160005b848110156107ac578984037fffffffffffffffffffffffffffffffffffffffffffffffffffffffffffffffa00186528151805173ffffffffffffffffffffffffffffffffffffffff16855261016084820151818688015261071e82880182610648565b915050898201518682038b8801526107368282610648565b9150508882015161074b8a88018260ff169052565b506080828101519087015260a08083015115159087015260c08083015115159087015260e0808301511515908701526101008083015190870152610120808301519087015261014091820151919095015294820194908201906001016106bb565b50509690960196909652509295945050505050565b600080604083850312156107d457600080fd5b50508035926020909101359150565b8183823760009101908152919050565b7f4e487b7100000000000000000000000000000000000000000000000000000000600052604160045260246000fd5b7f4e487b7100000000000000000000000000000000000000000000000000000000600052603260045260246000fd5b604051610160810167ffffffffffffffff81118282101715610875576108756107f3565b60405290565b805173ffffffffffffffffffffffffffffffffffffffff8116811461089f57600080fd5b919050565b600082601f8301126108b557600080fd5b815167ffffffffffffffff808211156108d0576108d06107f3565b604051601f83017fffffffffffffffffffffffffffffffffffffffffffffffffffffffffffffffe0908116603f01168101908282118183101715610916576109166107f3565b8160405283815286602085880101111561092f57600080fd5b610940846020830160208901610618565b9695505050505050565b805160ff8116811461089f57600080fd5b8051801515811461089f57600080fd5b60006020828403121561097d57600080fd5b815167ffffffffffffffff8082111561099557600080fd5b9083019061016082860312156109aa57600080fd5b6109b2610851565b6109bb8361087b565b81526020830151828111156109cf57600080fd5b6109db878286016108a4565b6020830152506040830151828111156109f357600080fd5b6109ff878286016108a4565b604083015250610a116060840161094a565b606082015260808301516080820152610a2c60a0840161095b565b60a0820152610a3d60c0840161095b565b60c0820152610a4e60e0840161095b565b60e0820152610100838101519082015261012080840151908201526101409283015192810192909252509392505050565b7f4e487b7100000000000000000000000000000000000000000000000000000000600052601160045260246000fd5b600082821015610ac057610ac0610a7f565b500390565b60008219821115610ad857610ad8610a7f565b50019056fea26469706673582212209df42817c75d47fb443311f1ccefb5145a9f3c138176c047d005e210761b60ea64736f6c634300080a0033",
  "devdoc": {
    "kind": "dev",
    "methods": {
      "paginateDetailedFasts(uint256,uint256)": {
        "params": {
          "cursor": "The index at which to start.",
          "perPage": "How many records should be returned at most."
        },
        "returns": {
          "_0": "A `address[]` list of values at most `perPage` big.",
          "_1": "A `uint256` index to the next page."
        }
      },
      "paginateDetailedFastsInGroup(string,uint256,uint256)": {
        "params": {
          "cursor": "The index at which to start.",
          "group": "The group to paginate.",
          "perPage": "How many records should be returned at most."
        },
        "returns": {
          "_0": "A `address[]` list of values at most `perPage` big.",
          "_1": "A `uint256` index to the next page."
        }
      }
    },
    "version": 1
  },
  "userdoc": {
    "events": {
      "FastGroupChanged(address,string,string)": {
        "notice": "FAST groupping events."
      },
      "FastRegistered(address)": {
        "notice": "Emited when a new FAST is registered."
      },
      "FastUnregistered(address)": {
        "notice": "Emited when a FAST is removed from the Issuer contract."
      },
      "GovernorshipRemoved(address,address)": {
        "notice": "Governors."
      }
    },
    "kind": "user",
    "methods": {
      "paginateDetailedFasts(uint256,uint256)": {
        "notice": "Paginates the FAST diamonds registered with this Issuer based on a starting cursor and        a number of records per page. It returns rich details for each FAST diamond."
      },
      "paginateDetailedFastsInGroup(string,uint256,uint256)": {
        "notice": "Paginates the FAST diamonds registered with this Issuer based on a group, starting cursor and a        number of records per page. It returns rich details for each FAST diamond."
      }
    },
    "version": 1
  },
  "storageLayout": {
    "storage": [],
    "types": null
  }
}