{
  "address": "0x3384B1E21aCD557B38beb68Eb3555502468F4682",
  "abi": [
    {
      "inputs": [],
      "name": "AlreadyInitialized",
      "type": "error"
    },
    {
      "inputs": [],
      "name": "InternalMethod",
      "type": "error"
    },
    {
      "anonymous": false,
      "inputs": [
        {
          "indexed": true,
          "internalType": "address",
          "name": "member",
          "type": "address"
        }
      ],
      "name": "MemberActivated",
      "type": "event"
    },
    {
      "anonymous": false,
      "inputs": [
        {
          "indexed": true,
          "internalType": "address",
          "name": "member",
          "type": "address"
        }
      ],
      "name": "MemberDeactivated",
      "type": "event"
    },
    {
      "inputs": [
        {
          "components": [
            {
              "internalType": "address",
              "name": "issuer",
              "type": "address"
            }
          ],
          "internalType": "struct MarketplaceInitFacet.InitializerParams",
          "name": "params",
          "type": "tuple"
        }
      ],
      "name": "initialize",
      "outputs": [],
      "stateMutability": "nonpayable",
      "type": "function"
    }
  ],
  "transactionHash": "0xa2bf485249e33812977865fee403bf9cae8d11c5616d2024f5acf13446bf7b47",
  "args": [],
  "numDeployments": 1,
  "solcInputHash": "460d132bdc74a397c8378bb93419ce79",
  "bytecode": "0x608060405234801561001057600080fd5b5061042c806100206000396000f3fe608060405234801561001057600080fd5b506004361061002b5760003560e01c80638f09926d14610030575b600080fd5b61004361003e3660046103a1565b610045565b005b736df2d25d8c6fd680730ee658b530a05a99bb769a3314610092576040517f12e9ad3300000000000000000000000000000000000000000000000000000000815260040160405180910390fd5b60017fb59ec141376cee83f618e10e881bbb4789cdeee27e0d441a8c37ead3cb8b93c15461ffff16106100f1576040517f0dc149f000000000000000000000000000000000000000000000000000000000815260040160405180910390fd5b7fc8fcad8db84d3cc18b4c41d551ea0ee66dd599cde068d998e57d5e09332c131f60209081527f699d9daa71b280d05a152715774afa0a81a312594b2d731d6b0b2552b7d6f69f805460017fffffffffffffffffffffffffffffffffffffffffffffffffffffffffffffff0091821681179092557f5622121b47b8cd0120c4efe45dd5483242f54a3d49bd7679be565d47694918c380548216831790557ff97e938d8af42f52387bb74b8b526fda8f184cc2aa534340a8d75a88fbecc77580548216831790557f48e2b093000000000000000000000000000000000000000000000000000000006000527f65d510a5d8f7ef134ec444f7f34ee808c8eeb5177cdfd16be0c40fe1ab4336958054909116821790557fb59ec141376cee83f618e10e881bbb4789cdeee27e0d441a8c37ead3cb8b93c180547fffffffffffffffffffffffffffffffffffffffffffffffffffffffffffff00001690911781557fc8fcad8db84d3cc18b4c41d551ea0ee66dd599cde068d998e57d5e09332c131c9161027d908401846103b9565b815473ffffffffffffffffffffffffffffffffffffffff9190911662010000027fffffffffffffffffffff0000000000000000000000000000000000000000ffff90911617815560016102ed7fecb992c7a1185ca18ac50bc1672192fb67e7c3e74465887a8fcaab265dab37bd90565b805461ffff929092167fffffffffffffffffffffffffffffffffffffffffffffffffffffffffffff00009283161790557fecf50453542504034bd40d376fb1408ada3025f2fe86ca1b9b4b1440b8d4a2f48054821660019081179091557fd56529bfa3ed57257eed4751494e1d0c0f212cfe38768380e006e3bee06ffb9180548316821790557f3dfe1f2f995ddddfe9572dcdd01e4fb472ed2fb10a125c3b0156e94d073b91838054909216179055505050565b6000602082840312156103b357600080fd5b50919050565b6000602082840312156103cb57600080fd5b813573ffffffffffffffffffffffffffffffffffffffff811681146103ef57600080fd5b939250505056fea2646970667358221220b60bb3aa1d1bdbb9157280b3ae7ae664f023834f37492f5adef0d7bfa81eceaa64736f6c634300080a0033",
  "devdoc": {
    "kind": "dev",
    "methods": {},
    "version": 1
  },
  "userdoc": {
    "kind": "user",
    "methods": {},
    "notice": "The Marketplace initialization facet.",
    "version": 1
  },
  "storageLayout": {
    "storage": [],
    "types": null
  }
}