{
  "address": "0xBa65E7994D7f3Ca1f92D37A7415b654b5d030097",
  "abi": [
    {
      "inputs": [
        {
          "internalType": "address",
          "name": "who",
          "type": "address"
        }
      ],
      "name": "RequiresIssuerMembership",
      "type": "error"
    },
    {
      "anonymous": false,
      "inputs": [
        {
          "indexed": true,
          "internalType": "address",
          "name": "automaton",
          "type": "address"
        },
        {
          "indexed": true,
          "internalType": "uint256",
          "name": "privileges",
          "type": "uint256"
        }
      ],
      "name": "AutomatonPrivilegesSet",
      "type": "event"
    },
    {
      "anonymous": false,
      "inputs": [
        {
          "indexed": true,
          "internalType": "address",
          "name": "automaton",
          "type": "address"
        }
      ],
      "name": "AutomatonRemoved",
      "type": "event"
    },
    {
      "anonymous": false,
      "inputs": [
        {
          "indexed": true,
          "internalType": "address",
          "name": "member",
          "type": "address"
        }
      ],
      "name": "MemberActivated",
      "type": "event"
    },
    {
      "anonymous": false,
      "inputs": [
        {
          "indexed": true,
          "internalType": "address",
          "name": "member",
          "type": "address"
        }
      ],
      "name": "MemberAdded",
      "type": "event"
    },
    {
      "anonymous": false,
      "inputs": [
        {
          "indexed": true,
          "internalType": "address",
          "name": "member",
          "type": "address"
        }
      ],
      "name": "MemberDeactivated",
      "type": "event"
    },
    {
      "anonymous": false,
      "inputs": [
        {
          "indexed": true,
          "internalType": "address",
          "name": "member",
          "type": "address"
        }
      ],
      "name": "MemberRemoved",
      "type": "event"
    },
    {
      "inputs": [],
      "name": "automatonCount",
      "outputs": [
        {
          "internalType": "uint256",
          "name": "",
          "type": "uint256"
        }
      ],
      "stateMutability": "view",
      "type": "function"
    },
    {
      "inputs": [
        {
          "internalType": "address",
          "name": "automaton",
          "type": "address"
        }
      ],
      "name": "automatonPrivileges",
      "outputs": [
        {
          "internalType": "uint256",
          "name": "",
          "type": "uint256"
        }
      ],
      "stateMutability": "view",
      "type": "function"
    },
    {
      "inputs": [
        {
          "internalType": "address",
          "name": "automaton",
          "type": "address"
        }
      ],
      "name": "automatonPrivilegesStruct",
      "outputs": [
        {
          "components": [
            {
              "internalType": "bool",
              "name": "canAddMember",
              "type": "bool"
            },
            {
              "internalType": "bool",
              "name": "canRemoveMember",
              "type": "bool"
            },
            {
              "internalType": "bool",
              "name": "canActivateMember",
              "type": "bool"
            },
            {
              "internalType": "bool",
              "name": "canDeactivateMember",
              "type": "bool"
            }
          ],
          "internalType": "struct LibMarketplaceAutomatons.Privileges",
          "name": "",
          "type": "tuple"
        }
      ],
      "stateMutability": "view",
      "type": "function"
    },
    {
      "inputs": [
        {
          "internalType": "address",
          "name": "candidate",
          "type": "address"
        }
      ],
      "name": "isAutomaton",
      "outputs": [
        {
          "internalType": "bool",
          "name": "",
          "type": "bool"
        }
      ],
      "stateMutability": "view",
      "type": "function"
    },
    {
      "inputs": [
        {
          "internalType": "uint256",
          "name": "cursor",
          "type": "uint256"
        },
        {
          "internalType": "uint256",
          "name": "perPage",
          "type": "uint256"
        }
      ],
      "name": "paginateAutomatons",
      "outputs": [
        {
          "internalType": "address[]",
          "name": "",
          "type": "address[]"
        },
        {
          "internalType": "uint256",
          "name": "",
          "type": "uint256"
        }
      ],
      "stateMutability": "view",
      "type": "function"
    },
    {
      "inputs": [
        {
          "internalType": "address",
          "name": "candidate",
          "type": "address"
        }
      ],
      "name": "removeAutomaton",
      "outputs": [],
      "stateMutability": "nonpayable",
      "type": "function"
    },
    {
      "inputs": [
        {
          "internalType": "address",
          "name": "candidate",
          "type": "address"
        },
        {
          "internalType": "uint256",
          "name": "privileges",
          "type": "uint256"
        }
      ],
      "name": "setAutomatonPrivileges",
      "outputs": [],
      "stateMutability": "nonpayable",
      "type": "function"
    }
  ],
  "transactionHash": "0x6b698fba6bf5c4d1316ff1b91271dab06816e911262c00ebe0c8d0fde70cea84",
  "args": [],
  "numDeployments": 2,
  "solcInputHash": "42c0432ae93016791b9d8cc43d363710",
  "bytecode": "0x608060405234801561001057600080fd5b50610c98806100206000396000f3fe608060405234801561001057600080fd5b506004361061007d5760003560e01c8063b70cc72a1161005b578063b70cc72a146100d4578063b87c7475146100f7578063ccf90c741461015a578063eadfdf2c1461018157600080fd5b80635a9b210c1461008257806376a7383d14610097578063911a56cc146100c1575b600080fd5b610095610090366004610a90565b61026c565b005b6100aa6100a5366004610aba565b610403565b6040516100b8929190610adc565b60405180910390f35b6100956100cf366004610b3a565b61043d565b6100e76100e2366004610b3a565b6105cc565b60405190151581526020016100b8565b61014c610105366004610b3a565b73ffffffffffffffffffffffffffffffffffffffff1660009081527f3e5f2d0a4b37e30e18cfb9f02b5d58c14e633cc6134b80816aaa63374222d848602052604090205490565b6040519081526020016100b8565b7f3e5f2d0a4b37e30e18cfb9f02b5d58c14e633cc6134b80816aaa63374222d8475461014c565b61023161018f366004610b3a565b604080516080808201835260008083526020808401829052838501829052606093840182905273ffffffffffffffffffffffffffffffffffffffff9590951681527f3e5f2d0a4b37e30e18cfb9f02b5d58c14e633cc6134b80816aaa63374222d8488552839020548351918201845260018116151582526002811615159482019490945260048416151592810192909252600890921615159181019190915290565b6040516100b8919081511515815260208083015115159082015260408083015115159082015260609182015115159181019190915260800190565b7fb59ec141376cee83f618e10e881bbb4789cdeee27e0d441a8c37ead3cb8b93c1546040517fa230c5240000000000000000000000000000000000000000000000000000000081523360048201526201000090910473ffffffffffffffffffffffffffffffffffffffff169063a230c52490602401602060405180830381865afa1580156102fe573d6000803e3d6000fd5b505050506040513d601f19601f820116820180604052508101906103229190610b55565b61035f576040517f1dd41c4d0000000000000000000000000000000000000000000000000000000081523360048201526024015b60405180910390fd5b7f3e5f2d0a4b37e30e18cfb9f02b5d58c14e633cc6134b80816aaa63374222d8456103ac7f3e5f2d0a4b37e30e18cfb9f02b5d58c14e633cc6134b80816aaa63374222d8468460016105fe565b73ffffffffffffffffffffffffffffffffffffffff83166000818152600383016020526040808220859055518492917f2aebbf146c31d63a7afeedc43d101e489e2d30af481acc58ec11d58d3a0c3bbf91a3505050565b606060006104327f3e5f2d0a4b37e30e18cfb9f02b5d58c14e633cc6134b80816aaa63374222d84785856106f2565b915091509250929050565b7fb59ec141376cee83f618e10e881bbb4789cdeee27e0d441a8c37ead3cb8b93c1546040517fa230c5240000000000000000000000000000000000000000000000000000000081523360048201526201000090910473ffffffffffffffffffffffffffffffffffffffff169063a230c52490602401602060405180830381865afa1580156104cf573d6000803e3d6000fd5b505050506040513d601f19601f820116820180604052508101906104f39190610b55565b61052b576040517f1dd41c4d000000000000000000000000000000000000000000000000000000008152336004820152602401610356565b7f3e5f2d0a4b37e30e18cfb9f02b5d58c14e633cc6134b80816aaa63374222d8456105787f3e5f2d0a4b37e30e18cfb9f02b5d58c14e633cc6134b80816aaa63374222d846836000610813565b73ffffffffffffffffffffffffffffffffffffffff82166000818152600383016020526040808220829055517f4592667aee797226527dbacd5953afb6e4fd4263ffc6f671efc0441b45b098d49190a25050565b60006105f87f3e5f2d0a4b37e30e18cfb9f02b5d58c14e633cc6134b80816aaa63374222d846836109eb565b92915050565b600061060a84846109eb565b90508180156106165750805b156106215750505050565b8015610689576040517f08c379a000000000000000000000000000000000000000000000000000000000815260206004820152601660248201527f4164647265737320616c726561647920696e20736574000000000000000000006044820152606401610356565b50506001808301805473ffffffffffffffffffffffffffffffffffffffff909316600081815260209586526040812085905592840182559082529290200180547fffffffffffffffffffffffff0000000000000000000000000000000000000000169091179055565b60606000808486805490506107079190610ba6565b84116107135783610720565b8554610720908690610ba6565b905060008167ffffffffffffffff81111561073d5761073d610bbd565b604051908082528060200260200182016040528015610766578160200160208202803683370190505b50905060005b828110156107f9578761077f8289610bec565b8154811061078f5761078f610c04565b9060005260206000200160009054906101000a900473ffffffffffffffffffffffffffffffffffffffff168282815181106107cc576107cc610c04565b73ffffffffffffffffffffffffffffffffffffffff9092166020928302919091019091015260010161076c565b50806108058388610bec565b935093505050935093915050565b600061081f84846109eb565b905081801561082c575080155b156108375750505050565b8061089e576040517f08c379a000000000000000000000000000000000000000000000000000000000815260206004820152601d60248201527f4164647265737320646f6573206e6f7420657869737420696e207365740000006044820152606401610356565b600180850180546000926108b191610ba6565b815481106108c1576108c1610c04565b600091825260208083209091015473ffffffffffffffffffffffffffffffffffffffff87811684529188905260408084205492909116808452922081905560018701805492935090918391908390811061091d5761091d610c04565b600091825260208083209190910180547fffffffffffffffffffffffff00000000000000000000000000000000000000001673ffffffffffffffffffffffffffffffffffffffff94851617905591871681529087905260408120556001860180548061098b5761098b610c33565b60008281526020902081017fffffffffffffffffffffffffffffffffffffffffffffffffffffffffffffffff90810180547fffffffffffffffffffffffff0000000000000000000000000000000000000000169055019055505050505050565b600182015460009015610a5d5773ffffffffffffffffffffffffffffffffffffffff82166000818152602085905260409020546001850180549091908110610a3557610a35610c04565b60009182526020909120015473ffffffffffffffffffffffffffffffffffffffff1614610a60565b60005b9392505050565b803573ffffffffffffffffffffffffffffffffffffffff81168114610a8b57600080fd5b919050565b60008060408385031215610aa357600080fd5b610aac83610a67565b946020939093013593505050565b60008060408385031215610acd57600080fd5b50508035926020909101359150565b604080825283519082018190526000906020906060840190828701845b82811015610b2b57815173ffffffffffffffffffffffffffffffffffffffff1684529284019290840190600101610af9565b50505092019290925292915050565b600060208284031215610b4c57600080fd5b610a6082610a67565b600060208284031215610b6757600080fd5b81518015158114610a6057600080fd5b7f4e487b7100000000000000000000000000000000000000000000000000000000600052601160045260246000fd5b600082821015610bb857610bb8610b77565b500390565b7f4e487b7100000000000000000000000000000000000000000000000000000000600052604160045260246000fd5b60008219821115610bff57610bff610b77565b500190565b7f4e487b7100000000000000000000000000000000000000000000000000000000600052603260045260246000fd5b7f4e487b7100000000000000000000000000000000000000000000000000000000600052603160045260246000fdfea2646970667358221220cd81265871dd0b2f77d2c9b2fc23f08bd3755be8dd955015e45959d5b146c06764736f6c634300080a0033",
  "devdoc": {
    "kind": "dev",
    "methods": {
      "automatonCount()": {
        "returns": {
          "_0": "The number of automatons in this marketplace."
        }
      },
      "automatonPrivileges(address)": {
        "params": {
          "automaton": "is the address to test."
        },
        "returns": {
          "_0": "An `uint256` bitfield."
        }
      },
      "automatonPrivilegesStruct(address)": {
        "params": {
          "automaton": "is the address to check."
        },
        "returns": {
          "_0": "A `LibMarketplaceAutomatons.Privileges` struct populated with privileges bits."
        }
      },
      "isAutomaton(address)": {
        "params": {
          "candidate": "is the address to test."
        },
        "returns": {
          "_0": "A `boolean` flag."
        }
      },
      "paginateAutomatons(uint256,uint256)": {
        "params": {
          "cursor": "is the index at which to start.",
          "perPage": "is how many records should be returned at most."
        },
        "returns": {
          "_0": "A `address[]` list of values at most `perPage` big.",
          "_1": "A `uint256` index to the next page."
        }
      },
      "removeAutomaton(address)": {
        "params": {
          "candidate": "is the automaton to remove."
        }
      },
      "setAutomatonPrivileges(address,uint256)": {
        "params": {
          "candidate": "is the automaton address to which the privileges should be assigned.",
          "privileges": "is a bitfield of privileges to apply."
        }
      }
    },
    "title": "The Marketplace Smart Contract.",
    "version": 1
  },
  "userdoc": {
    "kind": "user",
    "methods": {
      "automatonCount()": {
        "notice": "Counts the numbers of automatons present in this Marketplace."
      },
      "automatonPrivileges(address)": {
        "notice": "Returns the privileges for a given automaton address, or zero if no privileges exist."
      },
      "automatonPrivilegesStruct(address)": {
        "notice": "Returns the privileges given to an automaton address in struct form."
      },
      "isAutomaton(address)": {
        "notice": "Queries whether a given address is an automaton for this Marketplace or not."
      },
      "paginateAutomatons(uint256,uint256)": {
        "notice": "Paginates the automatons of this Marketplace based on a starting cursor and a number of records per page."
      },
      "removeAutomaton(address)": {
        "notice": "Removes an automaton completely."
      },
      "setAutomatonPrivileges(address,uint256)": {
        "notice": "Sets privileges for a given automaton address."
      }
    },
    "notice": "The Marketplace Automatons facet is in charge of keeping track of automaton accounts.",
    "version": 1
  },
  "storageLayout": {
    "storage": [],
    "types": null
  }
}