{
  "address": "0x32001C8a82Fb06a1E176e42bb416cefC6E404Ea9",
  "abi": [
    {
      "anonymous": false,
      "inputs": [
        {
          "indexed": false,
          "internalType": "uint256",
          "name": "memberCount",
          "type": "uint256"
        },
        {
          "indexed": false,
          "internalType": "uint256",
          "name": "governorCount",
          "type": "uint256"
        },
        {
          "indexed": false,
          "internalType": "uint256",
          "name": "totalSupply",
          "type": "uint256"
        },
        {
          "indexed": false,
          "internalType": "uint256",
          "name": "transferCredits",
          "type": "uint256"
        },
        {
          "indexed": false,
          "internalType": "uint256",
          "name": "reserveBalance",
          "type": "uint256"
        },
        {
          "indexed": false,
          "internalType": "uint256",
          "name": "ethBalance",
          "type": "uint256"
        }
      ],
      "name": "DetailsChanged",
      "type": "event"
    },
    {
      "inputs": [
        {
          "internalType": "address",
          "name": "member",
          "type": "address"
        }
      ],
      "name": "detailedMember",
      "outputs": [
        {
          "components": [
            {
              "internalType": "address",
              "name": "addr",
              "type": "address"
            },
            {
              "internalType": "uint256",
              "name": "balance",
              "type": "uint256"
            },
            {
              "internalType": "uint256",
              "name": "ethBalance",
              "type": "uint256"
            },
            {
              "internalType": "bool",
              "name": "isGovernor",
              "type": "bool"
            }
          ],
          "internalType": "struct FastFrontendFacet.MemberDetails",
          "name": "",
          "type": "tuple"
        }
      ],
      "stateMutability": "view",
      "type": "function"
    },
    {
      "inputs": [],
      "name": "details",
      "outputs": [
        {
          "components": [
            {
              "internalType": "address",
              "name": "addr",
              "type": "address"
            },
            {
              "internalType": "string",
              "name": "name",
              "type": "string"
            },
            {
              "internalType": "string",
              "name": "symbol",
              "type": "string"
            },
            {
              "internalType": "uint256",
              "name": "decimals",
              "type": "uint256"
            },
            {
              "internalType": "uint256",
              "name": "totalSupply",
              "type": "uint256"
            },
            {
              "internalType": "uint256",
              "name": "transferCredits",
              "type": "uint256"
            },
            {
              "internalType": "bool",
              "name": "isSemiPublic",
              "type": "bool"
            },
            {
              "internalType": "bool",
              "name": "hasFixedSupply",
              "type": "bool"
            },
            {
              "internalType": "uint256",
              "name": "reserveBalance",
              "type": "uint256"
            },
            {
              "internalType": "uint256",
              "name": "memberCount",
              "type": "uint256"
            },
            {
              "internalType": "uint256",
              "name": "governorCount",
              "type": "uint256"
            }
          ],
          "internalType": "struct FastFrontendFacet.Details",
          "name": "",
          "type": "tuple"
        }
      ],
      "stateMutability": "view",
      "type": "function"
    },
    {
      "inputs": [],
      "name": "emitDetailsChanged",
      "outputs": [],
      "stateMutability": "nonpayable",
      "type": "function"
    },
    {
      "inputs": [
        {
          "internalType": "uint256",
          "name": "index",
          "type": "uint256"
        },
        {
          "internalType": "uint256",
          "name": "perPage",
          "type": "uint256"
        }
      ],
      "name": "paginateDetailedMembers",
      "outputs": [
        {
          "components": [
            {
              "internalType": "address",
              "name": "addr",
              "type": "address"
            },
            {
              "internalType": "uint256",
              "name": "balance",
              "type": "uint256"
            },
            {
              "internalType": "uint256",
              "name": "ethBalance",
              "type": "uint256"
            },
            {
              "internalType": "bool",
              "name": "isGovernor",
              "type": "bool"
            }
          ],
          "internalType": "struct FastFrontendFacet.MemberDetails[]",
          "name": "",
          "type": "tuple[]"
        },
        {
          "internalType": "uint256",
          "name": "",
          "type": "uint256"
        }
      ],
      "stateMutability": "view",
      "type": "function"
    }
  ],
  "transactionHash": "0x7d17881747c0a09e71f5aafb150c8d004c6b8a082bdc6744b3d4e56a16834f1f",
  "args": [],
  "numDeployments": 1,
  "solcInputHash": "fd2c1b70eb30f59fcde03d0960e64f71",
  "bytecode": "0x608060405234801561001057600080fd5b50611199806100206000396000f3fe608060405234801561001057600080fd5b506004361061004c5760003560e01c80634f2274c014610051578063565974d31461005b57806388a91524146100795780639f4c440b146100a9575b600080fd5b6100596100da565b005b610063610252565b6040516100709190610e42565b60405180910390f35b610093600480360381019061008e9190610ac7565b610487565b6040516100a09190610e64565b60405180910390f35b6100c360048036038101906100be9190610af0565b610556565b6040516100d1929190610df0565b60405180910390f35b3073ffffffffffffffffffffffffffffffffffffffff163373ffffffffffffffffffffffffffffffffffffffff16146040518060400160405280600f81526020017f496e7465726e616c206d6574686f64000000000000000000000000000000000081525090610180576040517f08c379a00000000000000000000000000000000000000000000000000000000081526004016101779190610e20565b60405180910390fd5b50600061018b6106b8565b905060006101976106e0565b90507f3f34e05a7df519b3b9e1ab85fab4e26555d5863f50b821555768b78d8600e4af82600301600101805490508360010160010180549050836004015484600501548560060160008073ffffffffffffffffffffffffffffffffffffffff1673ffffffffffffffffffffffffffffffffffffffff168152602001908152602001600020543073ffffffffffffffffffffffffffffffffffffffff163160405161024696959493929190610e7f565b60405180910390a15050565b61025a6109e9565b6000610264610708565b905060006102706106b8565b9050600061027c6106e0565b90506040518061016001604052803073ffffffffffffffffffffffffffffffffffffffff1681526020018260010180546102b59061104b565b80601f01602080910402602001604051908101604052809291908181526020018280546102e19061104b565b801561032e5780601f106103035761010080835404028352916020019161032e565b820191906000526020600020905b81548152906001019060200180831161031157829003601f168201915b505050505081526020018260020180546103479061104b565b80601f01602080910402602001604051908101604052809291908181526020018280546103739061104b565b80156103c05780601f10610395576101008083540402835291602001916103c0565b820191906000526020600020905b8154815290600101906020018083116103a357829003601f168201915b505050505081526020018260030154815260200182600401548152602001826005015481526020018460010160159054906101000a900460ff16151581526020018460010160149054906101000a900460ff16151581526020018260060160008073ffffffffffffffffffffffffffffffffffffffff1673ffffffffffffffffffffffffffffffffffffffff168152602001908152602001600020548152602001836003016001018054905081526020018360010160010180549050815250935050505090565b61048f610a5d565b60006104996106e0565b905060006104a56106b8565b905060405180608001604052808573ffffffffffffffffffffffffffffffffffffffff1681526020018360060160008773ffffffffffffffffffffffffffffffffffffffff1673ffffffffffffffffffffffffffffffffffffffff1681526020019081526020016000205481526020018573ffffffffffffffffffffffffffffffffffffffff16318152602001610548868460010161073090919063ffffffff16565b151581525092505050919050565b60606000806105636106b8565b9050600080610579836003016001018888610826565b915091506000825167ffffffffffffffff8111156105c0577f4e487b7100000000000000000000000000000000000000000000000000000000600052604160045260246000fd5b6040519080825280602002602001820160405280156105f957816020015b6105e6610a5d565b8152602001906001900390816105de5790505b50905060005b83518110156106a657610651848281518110610644577f4e487b7100000000000000000000000000000000000000000000000000000000600052603260045260246000fd5b6020026020010151610487565b82828151811061068a577f4e487b7100000000000000000000000000000000000000000000000000000000600052603260045260246000fd5b60200260200101819052508061069f9061107d565b90506105ff565b50808295509550505050509250929050565b60007f87ed8063ac9ead3b2eb7551ed3d89b29fcbf44d6733084b5c82e95d5120ece9a905090565b60007fb098747b87c5c0e2a32eb9b06725e9bad4263809bcda628ceadc1a686bcb8261905090565b60007f80c187ea6f955fd624c41fb7a18011cc87d98c6f4c06d897b59142f65707e705905090565b60008083600101805490501461081b578173ffffffffffffffffffffffffffffffffffffffff16836001018460000160008573ffffffffffffffffffffffffffffffffffffffff1673ffffffffffffffffffffffffffffffffffffffff16815260200190815260200160002054815481106107d4577f4e487b7100000000000000000000000000000000000000000000000000000000600052603260045260246000fd5b9060005260206000200160009054906101000a900473ffffffffffffffffffffffffffffffffffffffff1673ffffffffffffffffffffffffffffffffffffffff161461081e565b60005b905092915050565b606060008084868054905061083b9190610f9c565b84116108475783610858565b8486805490506108579190610f9c565b5b905060008167ffffffffffffffff81111561089c577f4e487b7100000000000000000000000000000000000000000000000000000000600052604160045260246000fd5b6040519080825280602002602001820160405280156108ca5781602001602082028036833780820191505090505b50905060005b828110156109cd578781886108e59190610f46565b8154811061091c577f4e487b7100000000000000000000000000000000000000000000000000000000600052603260045260246000fd5b9060005260206000200160009054906101000a900473ffffffffffffffffffffffffffffffffffffffff16828281518110610980577f4e487b7100000000000000000000000000000000000000000000000000000000600052603260045260246000fd5b602002602001019073ffffffffffffffffffffffffffffffffffffffff16908173ffffffffffffffffffffffffffffffffffffffff168152505080806109c59061107d565b9150506108d0565b508082876109db9190610f46565b935093505050935093915050565b604051806101600160405280600073ffffffffffffffffffffffffffffffffffffffff16815260200160608152602001606081526020016000815260200160008152602001600081526020016000151581526020016000151581526020016000815260200160008152602001600081525090565b6040518060800160405280600073ffffffffffffffffffffffffffffffffffffffff16815260200160008152602001600081526020016000151581525090565b600081359050610aac81611135565b92915050565b600081359050610ac18161114c565b92915050565b600060208284031215610ad957600080fd5b6000610ae784828501610a9d565b91505092915050565b60008060408385031215610b0357600080fd5b6000610b1185828601610ab2565b9250506020610b2285828601610ab2565b9150509250929050565b6000610b388383610d28565b60808301905092915050565b610b4d81610fd0565b82525050565b6000610b5e82610ef0565b610b688185610f13565b9350610b7383610ee0565b8060005b83811015610ba4578151610b8b8882610b2c565b9750610b9683610f06565b925050600181019050610b77565b5085935050505092915050565b610bba81610fe2565b82525050565b6000610bcb82610efb565b610bd58185610f24565b9350610be5818560208601611018565b610bee81611124565b840191505092915050565b6000610c0482610efb565b610c0e8185610f35565b9350610c1e818560208601611018565b610c2781611124565b840191505092915050565b600061016083016000830151610c4b6000860182610b44565b5060208301518482036020860152610c638282610bc0565b91505060408301518482036040860152610c7d8282610bc0565b9150506060830151610c926060860182610dd2565b506080830151610ca56080860182610dd2565b5060a0830151610cb860a0860182610dd2565b5060c0830151610ccb60c0860182610bb1565b5060e0830151610cde60e0860182610bb1565b50610100830151610cf3610100860182610dd2565b50610120830151610d08610120860182610dd2565b50610140830151610d1d610140860182610dd2565b508091505092915050565b608082016000820151610d3e6000850182610b44565b506020820151610d516020850182610dd2565b506040820151610d646040850182610dd2565b506060820151610d776060850182610bb1565b50505050565b608082016000820151610d936000850182610b44565b506020820151610da66020850182610dd2565b506040820151610db96040850182610dd2565b506060820151610dcc6060850182610bb1565b50505050565b610ddb8161100e565b82525050565b610dea8161100e565b82525050565b60006040820190508181036000830152610e0a8185610b53565b9050610e196020830184610de1565b9392505050565b60006020820190508181036000830152610e3a8184610bf9565b905092915050565b60006020820190508181036000830152610e5c8184610c32565b905092915050565b6000608082019050610e796000830184610d7d565b92915050565b600060c082019050610e946000830189610de1565b610ea16020830188610de1565b610eae6040830187610de1565b610ebb6060830186610de1565b610ec86080830185610de1565b610ed560a0830184610de1565b979650505050505050565b6000819050602082019050919050565b600081519050919050565b600081519050919050565b6000602082019050919050565b600082825260208201905092915050565b600082825260208201905092915050565b600082825260208201905092915050565b6000610f518261100e565b9150610f5c8361100e565b9250827fffffffffffffffffffffffffffffffffffffffffffffffffffffffffffffffff03821115610f9157610f906110c6565b5b828201905092915050565b6000610fa78261100e565b9150610fb28361100e565b925082821015610fc557610fc46110c6565b5b828203905092915050565b6000610fdb82610fee565b9050919050565b60008115159050919050565b600073ffffffffffffffffffffffffffffffffffffffff82169050919050565b6000819050919050565b60005b8381101561103657808201518184015260208101905061101b565b83811115611045576000848401525b50505050565b6000600282049050600182168061106357607f821691505b60208210811415611077576110766110f5565b5b50919050565b60006110888261100e565b91507fffffffffffffffffffffffffffffffffffffffffffffffffffffffffffffffff8214156110bb576110ba6110c6565b5b600182019050919050565b7f4e487b7100000000000000000000000000000000000000000000000000000000600052601160045260246000fd5b7f4e487b7100000000000000000000000000000000000000000000000000000000600052602260045260246000fd5b6000601f19601f8301169050919050565b61113e81610fd0565b811461114957600080fd5b50565b6111558161100e565b811461116057600080fd5b5056fea2646970667358221220ab012ae15e6aa10241671fea226584cfbde93fea7f80ad9da53a2f0c9f440ab664736f6c63430008040033",
  "devdoc": {
    "details": "The SPC contract is the central place for top-level governorship. It requires that a        first member address is passed at construction time.",
    "kind": "dev",
    "methods": {},
    "title": "The SPC Smart Contract.",
    "version": 1
  },
  "userdoc": {
    "kind": "user",
    "methods": {},
    "version": 1
  },
  "storageLayout": {
    "storage": [],
    "types": null
  }
}