{
  "address": "0xeb4B8cBd66BAe11c0C74135E12A0709101455d44",
  "abi": [
    {
      "anonymous": false,
      "inputs": [
        {
          "indexed": true,
          "internalType": "address",
          "name": "to",
          "type": "address"
        },
        {
          "indexed": false,
          "internalType": "uint256",
          "name": "amount",
          "type": "uint256"
        }
      ],
      "name": "EthDrained",
      "type": "event"
    },
    {
      "anonymous": false,
      "inputs": [
        {
          "indexed": true,
          "internalType": "address",
          "name": "from",
          "type": "address"
        },
        {
          "indexed": false,
          "internalType": "uint256",
          "name": "amount",
          "type": "uint256"
        }
      ],
      "name": "EthReceived",
      "type": "event"
    },
    {
      "anonymous": false,
      "inputs": [
        {
          "indexed": true,
          "internalType": "address",
          "name": "fast",
          "type": "address"
        }
      ],
      "name": "FastRegistered",
      "type": "event"
    },
    {
      "inputs": [],
      "name": "drainEth",
      "outputs": [],
      "stateMutability": "nonpayable",
      "type": "function"
    },
    {
      "inputs": [
        {
          "internalType": "string",
          "name": "symbol",
          "type": "string"
        }
      ],
      "name": "fastBySymbol",
      "outputs": [
        {
          "internalType": "address",
          "name": "",
          "type": "address"
        }
      ],
      "stateMutability": "view",
      "type": "function"
    },
    {
      "inputs": [],
      "name": "fastCount",
      "outputs": [
        {
          "internalType": "uint256",
          "name": "",
          "type": "uint256"
        }
      ],
      "stateMutability": "view",
      "type": "function"
    },
    {
      "inputs": [
        {
          "internalType": "address",
          "name": "fast",
          "type": "address"
        }
      ],
      "name": "isFastRegistered",
      "outputs": [
        {
          "internalType": "bool",
          "name": "",
          "type": "bool"
        }
      ],
      "stateMutability": "view",
      "type": "function"
    },
    {
      "inputs": [
        {
          "internalType": "uint256",
          "name": "cursor",
          "type": "uint256"
        },
        {
          "internalType": "uint256",
          "name": "perPage",
          "type": "uint256"
        }
      ],
      "name": "paginateFasts",
      "outputs": [
        {
          "internalType": "address[]",
          "name": "",
          "type": "address[]"
        },
        {
          "internalType": "uint256",
          "name": "",
          "type": "uint256"
        }
      ],
      "stateMutability": "view",
      "type": "function"
    },
    {
      "inputs": [],
      "name": "provisionWithEth",
      "outputs": [],
      "stateMutability": "payable",
      "type": "function"
    },
    {
      "inputs": [
        {
          "internalType": "address",
          "name": "fast",
          "type": "address"
        }
      ],
      "name": "registerFast",
      "outputs": [],
      "stateMutability": "nonpayable",
      "type": "function"
    }
  ],
  "transactionHash": "0x7dfae5f107a1cd1392a1a05c37958bb93e788c9effa36e55e2842e67f06d8dda",
  "args": [],
  "numDeployments": 1,
  "solcInputHash": "c4586ac12f594900f43c4b002a96518d",
  "bytecode": "0x608060405234801561001057600080fd5b506113bc806100206000396000f3fe6080604052600436106100705760003560e01c80633eca424b1161004e5780633eca424b146100f457806341d7c02d146100fe578063654eebcb1461013b5780638201d2061461016457610070565b80630baac66f14610075578063112b24c91461008c578063164f8e6a146100b7575b600080fd5b34801561008157600080fd5b5061008a6101a2565b005b34801561009857600080fd5b506100a16102ed565b6040516100ae9190611061565b60405180910390f35b3480156100c357600080fd5b506100de60048036038101906100d99190610d63565b610306565b6040516100eb9190610fb9565b60405180910390f35b6100fc61035a565b005b34801561010a57600080fd5b5061012560048036038101906101209190610d3a565b610426565b6040516101329190611004565b60405180910390f35b34801561014757600080fd5b50610162600480360381019061015d9190610d3a565b61044c565b005b34801561017057600080fd5b5061018b60048036038101906101869190610de9565b6107a1565b604051610199929190610fd4565b60405180910390f35b336101c0816101af6107c8565b6001016107f090919063ffffffff16565b6040518060400160405280601781526020017f526571756972657320535043206d656d6265727368697000000000000000000081525090610237576040517f08c379a000000000000000000000000000000000000000000000000000000000815260040161022e919061101f565b60405180910390fd5b5060003073ffffffffffffffffffffffffffffffffffffffff163190503373ffffffffffffffffffffffffffffffffffffffff166108fc829081150290604051600060405180830381858888f1935050505015801561029a573d6000803e3d6000fd5b503373ffffffffffffffffffffffffffffffffffffffff167fd5a7a0257eadbfea7ac4432ca8fe62ac277d64736ab6ef67f11abf238a1e0f1a826040516102e19190611061565b60405180910390a25050565b60006102f76108e6565b60010160010180549050905090565b60006103106108e6565b6003018383604051610323929190610f89565b908152602001604051809103902060009054906101000a900473ffffffffffffffffffffffffffffffffffffffff16905092915050565b600034116040518060400160405280601481526020017f4d697373696e6720617474616368656420455448000000000000000000000000815250906103d5576040517f08c379a00000000000000000000000000000000000000000000000000000000081526004016103cc919061101f565b60405180910390fd5b503373ffffffffffffffffffffffffffffffffffffffff167f85177f287940f2f05425a4029951af0e047a7f9c4eaa9a6e6917bcd869f866953460405161041c9190611061565b60405180910390a2565b6000610445826104346108e6565b6001016107f090919063ffffffff16565b9050919050565b3361046a816104596107c8565b6001016107f090919063ffffffff16565b6040518060400160405280601781526020017f526571756972657320535043206d656d62657273686970000000000000000000815250906104e1576040517f08c379a00000000000000000000000000000000000000000000000000000000081526004016104d8919061101f565b60405180910390fd5b5060006104ec6108e6565b905060008373ffffffffffffffffffffffffffffffffffffffff166395d89b416040518163ffffffff1660e01b815260040160006040518083038186803b15801561053657600080fd5b505afa15801561054a573d6000803e3d6000fd5b505050506040513d6000823e3d601f19601f820116820180604052508101906105739190610da8565b9050600073ffffffffffffffffffffffffffffffffffffffff16826003018260405161059f9190610fa2565b908152602001604051809103902060009054906101000a900473ffffffffffffffffffffffffffffffffffffffff1673ffffffffffffffffffffffffffffffffffffffff16146040518060400160405280600f81526020017f4475706c696361746520656e74727900000000000000000000000000000000008152509061065c576040517f08c379a0000000000000000000000000000000000000000000000000000000008152600401610653919061101f565b60405180910390fd5b506106768460008460010161090e9092919063ffffffff16565b8382600301826040516106899190610fa2565b908152602001604051809103902060006101000a81548173ffffffffffffffffffffffffffffffffffffffff021916908373ffffffffffffffffffffffffffffffffffffffff16021790555060006106ea85680d8d726b7177a80000610a2b565b90506000811115610757578473ffffffffffffffffffffffffffffffffffffffff16633eca424b826040518263ffffffff1660e01b81526004016000604051808303818588803b15801561073d57600080fd5b505af1158015610751573d6000803e3d6000fd5b50505050505b8473ffffffffffffffffffffffffffffffffffffffff167fa393070be795669766b8f40ecaab0724def57650be5914b232c8fb18ca507f3660405160405180910390a25050505050565b606060006107bd6107b06108e6565b6001016001018585610a9b565b915091509250929050565b60007fe275f58a6a7f532ee3fa7fff24450c253df494fca407d91f5c35e83236f64d7c905090565b6000808360010180549050146108db578173ffffffffffffffffffffffffffffffffffffffff16836001018460000160008573ffffffffffffffffffffffffffffffffffffffff1673ffffffffffffffffffffffffffffffffffffffff1681526020019081526020016000205481548110610894577f4e487b7100000000000000000000000000000000000000000000000000000000600052603260045260246000fd5b9060005260206000200160009054906101000a900473ffffffffffffffffffffffffffffffffffffffff1673ffffffffffffffffffffffffffffffffffffffff16146108de565b60005b905092915050565b60007f89a652f66ca129ef71cab44916bb070742a08af428e08a99df145c8006c94285905090565b600061091a84846107f0565b90508180156109265750805b156109315750610a26565b8015610972576040517f08c379a000000000000000000000000000000000000000000000000000000000815260040161096990611041565b60405180910390fd5b83600101805490508460000160008573ffffffffffffffffffffffffffffffffffffffff1673ffffffffffffffffffffffffffffffffffffffff1681526020019081526020016000208190555083600101839080600181540180825580915050600190039060005260206000200160009091909190916101000a81548173ffffffffffffffffffffffffffffffffffffffff021916908373ffffffffffffffffffffffffffffffffffffffff160217905550505b505050565b6000808373ffffffffffffffffffffffffffffffffffffffff16319050828110610a59576000915050610a95565b8083610a659190611188565b925060003073ffffffffffffffffffffffffffffffffffffffff1631905083811015610a8f578093505b83925050505b92915050565b6060600080848680549050610ab09190611188565b8411610abc5783610acd565b848680549050610acc9190611188565b5b905060008167ffffffffffffffff811115610b11577f4e487b7100000000000000000000000000000000000000000000000000000000600052604160045260246000fd5b604051908082528060200260200182016040528015610b3f5781602001602082028036833780820191505090505b50905060005b82811015610c4257878188610b5a9190611132565b81548110610b91577f4e487b7100000000000000000000000000000000000000000000000000000000600052603260045260246000fd5b9060005260206000200160009054906101000a900473ffffffffffffffffffffffffffffffffffffffff16828281518110610bf5577f4e487b7100000000000000000000000000000000000000000000000000000000600052603260045260246000fd5b602002602001019073ffffffffffffffffffffffffffffffffffffffff16908173ffffffffffffffffffffffffffffffffffffffff16815250508080610c3a90611277565b915050610b45565b50808287610c509190611132565b935093505050935093915050565b6000610c71610c6c846110a1565b61107c565b905082815260208101848484011115610c8957600080fd5b610c94848285611213565b509392505050565b600081359050610cab81611358565b92915050565b60008083601f840112610cc357600080fd5b8235905067ffffffffffffffff811115610cdc57600080fd5b602083019150836001820283011115610cf457600080fd5b9250929050565b600082601f830112610d0c57600080fd5b8151610d1c848260208601610c5e565b91505092915050565b600081359050610d348161136f565b92915050565b600060208284031215610d4c57600080fd5b6000610d5a84828501610c9c565b91505092915050565b60008060208385031215610d7657600080fd5b600083013567ffffffffffffffff811115610d9057600080fd5b610d9c85828601610cb1565b92509250509250929050565b600060208284031215610dba57600080fd5b600082015167ffffffffffffffff811115610dd457600080fd5b610de084828501610cfb565b91505092915050565b60008060408385031215610dfc57600080fd5b6000610e0a85828601610d25565b9250506020610e1b85828601610d25565b9150509250929050565b6000610e318383610e3d565b60208301905092915050565b610e46816111bc565b82525050565b610e55816111bc565b82525050565b6000610e66826110e2565b610e708185611105565b9350610e7b836110d2565b8060005b83811015610eac578151610e938882610e25565b9750610e9e836110f8565b925050600181019050610e7f565b5085935050505092915050565b610ec2816111ce565b82525050565b6000610ed48385611127565b9350610ee1838584611204565b82840190509392505050565b6000610ef8826110ed565b610f028185611116565b9350610f12818560208601611213565b610f1b8161131e565b840191505092915050565b6000610f31826110ed565b610f3b8185611127565b9350610f4b818560208601611213565b80840191505092915050565b6000610f64601683611116565b9150610f6f8261132f565b602082019050919050565b610f83816111fa565b82525050565b6000610f96828486610ec8565b91508190509392505050565b6000610fae8284610f26565b915081905092915050565b6000602082019050610fce6000830184610e4c565b92915050565b60006040820190508181036000830152610fee8185610e5b565b9050610ffd6020830184610f7a565b9392505050565b60006020820190506110196000830184610eb9565b92915050565b600060208201905081810360008301526110398184610eed565b905092915050565b6000602082019050818103600083015261105a81610f57565b9050919050565b60006020820190506110766000830184610f7a565b92915050565b6000611086611097565b90506110928282611246565b919050565b6000604051905090565b600067ffffffffffffffff8211156110bc576110bb6112ef565b5b6110c58261131e565b9050602081019050919050565b6000819050602082019050919050565b600081519050919050565b600081519050919050565b6000602082019050919050565b600082825260208201905092915050565b600082825260208201905092915050565b600081905092915050565b600061113d826111fa565b9150611148836111fa565b9250827fffffffffffffffffffffffffffffffffffffffffffffffffffffffffffffffff0382111561117d5761117c6112c0565b5b828201905092915050565b6000611193826111fa565b915061119e836111fa565b9250828210156111b1576111b06112c0565b5b828203905092915050565b60006111c7826111da565b9050919050565b60008115159050919050565b600073ffffffffffffffffffffffffffffffffffffffff82169050919050565b6000819050919050565b82818337600083830152505050565b60005b83811015611231578082015181840152602081019050611216565b83811115611240576000848401525b50505050565b61124f8261131e565b810181811067ffffffffffffffff8211171561126e5761126d6112ef565b5b80604052505050565b6000611282826111fa565b91507fffffffffffffffffffffffffffffffffffffffffffffffffffffffffffffffff8214156112b5576112b46112c0565b5b600182019050919050565b7f4e487b7100000000000000000000000000000000000000000000000000000000600052601160045260246000fd5b7f4e487b7100000000000000000000000000000000000000000000000000000000600052604160045260246000fd5b6000601f19601f8301169050919050565b7f4164647265737320616c726561647920696e2073657400000000000000000000600082015250565b611361816111bc565b811461136c57600080fd5b50565b611378816111fa565b811461138357600080fd5b5056fea2646970667358221220a45c7684231dc16f19d9dcafb93ef8a802fa80d7795e0a5511fe9f7528707c4a64736f6c63430008040033",
  "devdoc": {
    "details": "The SPC contract is the central place for top-level governorship. It requires that a        first member address is passed at construction time.",
    "events": {
      "EthDrained(address,uint256)": {
        "details": "Emited when Eth is drained from this SPC.",
        "params": {
          "amount": "The quantity of Eth that was drained, expressed in Wei.",
          "to": "The caller and recipient of the drained Eth."
        }
      },
      "EthReceived(address,uint256)": {
        "details": "Emited when someone provisions this SPC with Eth.",
        "params": {
          "amount": "The quantity of Eth, expressed in Wei.",
          "from": "The sender of the Eth."
        }
      },
      "FastRegistered(address)": {
        "details": "Emited when a new FAST is registered.",
        "params": {
          "fast": "The address of the newly registered FAST diamond."
        }
      }
    },
    "kind": "dev",
    "methods": {
      "drainEth()": {
        "details": "A function that alllows draining this SPC from its Eth."
      },
      "fastBySymbol(string)": {
        "details": "Allows to retrieve the address of a FAST diamond given its symbol.",
        "params": {
          "symbol": "The symbol of the FAST diamond to get the address of."
        },
        "returns": {
          "_0": "The address of the corresponding FAST diamond, or the Zero Address if not found."
        }
      },
      "fastCount()": {
        "details": "Counts the number of FAST diamonds registered with this SPC.",
        "returns": {
          "_0": "The number of FAST diamonds registered with this SPC."
        }
      },
      "isFastRegistered(address)": {
        "details": "Queries whether a given address is a known and registered FAST contract.",
        "params": {
          "fast": "The address of the contract to check."
        },
        "returns": {
          "_0": "A boolean."
        }
      },
      "paginateFasts(uint256,uint256)": {
        "details": "Paginates the FAST diamonds registered with this SPC based on a starting cursor and a number of records per page.",
        "params": {
          "cursor": "The index at which to start.",
          "perPage": "How many records should be returned at most."
        },
        "returns": {
          "_0": "A `address[]` list of values at most `perPage` big.",
          "_1": "A `uint256` index to the next page."
        }
      },
      "provisionWithEth()": {
        "details": "A function that alllows provisioning this SPC with Eth."
      },
      "registerFast(address)": {
        "details": "Allows the registration of a given FAST diamond with this SPC.",
        "params": {
          "fast": "The address of the FAST diamond to be registered."
        }
      }
    },
    "title": "The SPC Smart Contract.",
    "version": 1
  },
  "userdoc": {
    "kind": "user",
    "methods": {
      "drainEth()": {
        "notice": "Requires that the caller is a member of this SPC.Emits a `EthDrained` event."
      },
      "provisionWithEth()": {
        "notice": "Emits a `EthReceived` event."
      },
      "registerFast(address)": {
        "notice": "Requires that the caller is a member of this SPC.Emits a `FastRegistered` event."
      }
    },
    "version": 1
  },
  "storageLayout": {
    "storage": [],
    "types": null
  }
}