{
  "address": "0x6ada6fc10D53c96d738ef4D645Cde0889A43540c",
  "abi": [
    {
      "anonymous": false,
      "inputs": [
        {
          "indexed": true,
          "internalType": "address",
          "name": "to",
          "type": "address"
        },
        {
          "indexed": false,
          "internalType": "uint256",
          "name": "amount",
          "type": "uint256"
        }
      ],
      "name": "EthDrained",
      "type": "event"
    },
    {
      "anonymous": false,
      "inputs": [
        {
          "indexed": true,
          "internalType": "address",
          "name": "from",
          "type": "address"
        },
        {
          "indexed": false,
          "internalType": "uint256",
          "name": "amount",
          "type": "uint256"
        }
      ],
      "name": "EthReceived",
      "type": "event"
    },
    {
      "anonymous": false,
      "inputs": [
        {
          "indexed": true,
          "internalType": "address",
          "name": "fast",
          "type": "address"
        }
      ],
      "name": "FastRegistered",
      "type": "event"
    },
    {
      "anonymous": false,
      "inputs": [
        {
          "indexed": true,
          "internalType": "address",
          "name": "member",
          "type": "address"
        }
      ],
      "name": "MemberAdded",
      "type": "event"
    },
    {
      "anonymous": false,
      "inputs": [
        {
          "indexed": true,
          "internalType": "address",
          "name": "member",
          "type": "address"
        }
      ],
      "name": "MemberRemoved",
      "type": "event"
    },
    {
      "inputs": [
        {
          "internalType": "address payable",
          "name": "member",
          "type": "address"
        }
      ],
      "name": "addMember",
      "outputs": [],
      "stateMutability": "nonpayable",
      "type": "function"
    },
    {
      "inputs": [],
      "name": "drainEth",
      "outputs": [],
      "stateMutability": "nonpayable",
      "type": "function"
    },
    {
      "inputs": [
        {
          "internalType": "string",
          "name": "symbol",
          "type": "string"
        }
      ],
      "name": "fastBySymbol",
      "outputs": [
        {
          "internalType": "address",
          "name": "",
          "type": "address"
        }
      ],
      "stateMutability": "view",
      "type": "function"
    },
    {
      "inputs": [],
      "name": "fastCount",
      "outputs": [
        {
          "internalType": "uint256",
          "name": "",
          "type": "uint256"
        }
      ],
      "stateMutability": "view",
      "type": "function"
    },
    {
      "inputs": [
        {
          "internalType": "address",
          "name": "fast",
          "type": "address"
        }
      ],
      "name": "isFastRegistered",
      "outputs": [
        {
          "internalType": "bool",
          "name": "",
          "type": "bool"
        }
      ],
      "stateMutability": "view",
      "type": "function"
    },
    {
      "inputs": [
        {
          "internalType": "address",
          "name": "candidate",
          "type": "address"
        }
      ],
      "name": "isMember",
      "outputs": [
        {
          "internalType": "bool",
          "name": "",
          "type": "bool"
        }
      ],
      "stateMutability": "view",
      "type": "function"
    },
    {
      "inputs": [],
      "name": "memberCount",
      "outputs": [
        {
          "internalType": "uint256",
          "name": "",
          "type": "uint256"
        }
      ],
      "stateMutability": "view",
      "type": "function"
    },
    {
      "inputs": [
        {
          "internalType": "uint256",
          "name": "cursor",
          "type": "uint256"
        },
        {
          "internalType": "uint256",
          "name": "perPage",
          "type": "uint256"
        }
      ],
      "name": "paginateFasts",
      "outputs": [
        {
          "internalType": "address[]",
          "name": "",
          "type": "address[]"
        },
        {
          "internalType": "uint256",
          "name": "",
          "type": "uint256"
        }
      ],
      "stateMutability": "view",
      "type": "function"
    },
    {
      "inputs": [
        {
          "internalType": "uint256",
          "name": "cursor",
          "type": "uint256"
        },
        {
          "internalType": "uint256",
          "name": "perPage",
          "type": "uint256"
        }
      ],
      "name": "paginateMembers",
      "outputs": [
        {
          "internalType": "address[]",
          "name": "",
          "type": "address[]"
        },
        {
          "internalType": "uint256",
          "name": "",
          "type": "uint256"
        }
      ],
      "stateMutability": "view",
      "type": "function"
    },
    {
      "inputs": [],
      "name": "provisionWithEth",
      "outputs": [],
      "stateMutability": "payable",
      "type": "function"
    },
    {
      "inputs": [
        {
          "internalType": "address",
          "name": "fast",
          "type": "address"
        }
      ],
      "name": "registerFast",
      "outputs": [],
      "stateMutability": "nonpayable",
      "type": "function"
    },
    {
      "inputs": [
        {
          "internalType": "address",
          "name": "member",
          "type": "address"
        }
      ],
      "name": "removeMember",
      "outputs": [],
      "stateMutability": "nonpayable",
      "type": "function"
    }
  ],
  "transactionHash": "0x6693092f3db7bc80c58a08c0e6f7bb02dcfa98889c8836d11f708cdb3fa8c933",
  "args": [],
  "numDeployments": 1,
  "solcInputHash": "ff01faa9007aa585a44363003101a726",
  "bytecode": "0x608060405234801561001057600080fd5b50611bee806100206000396000f3fe6080604052600436106100a75760003560e01c806341d7c02d1161006457806341d7c02d14610189578063654eebcb146101c65780638201d206146101ef578063a230c5241461022d578063c6549ba41461026a578063ca6d56dc146102a8576100a7565b80630b1ca49a146100ac5780630baac66f146100d5578063112b24c9146100ec57806311aee38014610117578063164f8e6a146101425780633eca424b1461017f575b600080fd5b3480156100b857600080fd5b506100d360048036038101906100ce9190611442565b6102d1565b005b3480156100e157600080fd5b506100ea61043d565b005b3480156100f857600080fd5b50610101610588565b60405161010e9190611818565b60405180910390f35b34801561012357600080fd5b5061012c6105a1565b6040516101399190611818565b60405180910390f35b34801561014e57600080fd5b5061016960048036038101906101649190611494565b6105ba565b6040516101769190611730565b60405180910390f35b61018761060e565b005b34801561019557600080fd5b506101b060048036038101906101ab9190611442565b6106da565b6040516101bd919061177b565b60405180910390f35b3480156101d257600080fd5b506101ed60048036038101906101e89190611442565b610700565b005b3480156101fb57600080fd5b506102166004803603810190610211919061151a565b610a55565b60405161022492919061174b565b60405180910390f35b34801561023957600080fd5b50610254600480360381019061024f9190611442565b610a7c565b604051610261919061177b565b60405180910390f35b34801561027657600080fd5b50610291600480360381019061028c919061151a565b610aa2565b60405161029f92919061174b565b60405180910390f35b3480156102b457600080fd5b506102cf60048036038101906102ca919061146b565b610ac9565b005b336102ef816102de610c2d565b600101610c5590919063ffffffff16565b6040518060400160405280601781526020017f526571756972657320535043206d656d6265727368697000000000000000000081525090610366576040517f08c379a000000000000000000000000000000000000000000000000000000000815260040161035d9190611796565b60405180910390fd5b508173ffffffffffffffffffffffffffffffffffffffff163373ffffffffffffffffffffffffffffffffffffffff1614156103d6576040517f08c379a00000000000000000000000000000000000000000000000000000000081526004016103cd906117b8565b60405180910390fd5b6103f68260006103e4610c2d565b600101610d4b9092919063ffffffff16565b8173ffffffffffffffffffffffffffffffffffffffff167f6e76fb4c77256006d9c38ec7d82b45a8c8f3c27b1d6766fffc42dfb8de68449260405160405180910390a25050565b3361045b8161044a610c2d565b600101610c5590919063ffffffff16565b6040518060400160405280601781526020017f526571756972657320535043206d656d62657273686970000000000000000000815250906104d2576040517f08c379a00000000000000000000000000000000000000000000000000000000081526004016104c99190611796565b60405180910390fd5b5060003073ffffffffffffffffffffffffffffffffffffffff163190503373ffffffffffffffffffffffffffffffffffffffff166108fc829081150290604051600060405180830381858888f19350505050158015610535573d6000803e3d6000fd5b503373ffffffffffffffffffffffffffffffffffffffff167fd5a7a0257eadbfea7ac4432ca8fe62ac277d64736ab6ef67f11abf238a1e0f1a8260405161057c9190611818565b60405180910390a25050565b6000610592610c2d565b60030160010180549050905090565b60006105ab610c2d565b60010160010180549050905090565b60006105c4610c2d565b60050183836040516105d7929190611700565b908152602001604051809103902060009054906101000a900473ffffffffffffffffffffffffffffffffffffffff16905092915050565b600034116040518060400160405280601481526020017f4d697373696e672061747461636865642045544800000000000000000000000081525090610689576040517f08c379a00000000000000000000000000000000000000000000000000000000081526004016106809190611796565b60405180910390fd5b503373ffffffffffffffffffffffffffffffffffffffff167f85177f287940f2f05425a4029951af0e047a7f9c4eaa9a6e6917bcd869f86695346040516106d09190611818565b60405180910390a2565b60006106f9826106e8610c2d565b600301610c5590919063ffffffff16565b9050919050565b3361071e8161070d610c2d565b600101610c5590919063ffffffff16565b6040518060400160405280601781526020017f526571756972657320535043206d656d6265727368697000000000000000000081525090610795576040517f08c379a000000000000000000000000000000000000000000000000000000000815260040161078c9190611796565b60405180910390fd5b5060006107a0610c2d565b905060008373ffffffffffffffffffffffffffffffffffffffff166395d89b416040518163ffffffff1660e01b815260040160006040518083038186803b1580156107ea57600080fd5b505afa1580156107fe573d6000803e3d6000fd5b505050506040513d6000823e3d601f19601f8201168201806040525081019061082791906114d9565b9050600073ffffffffffffffffffffffffffffffffffffffff1682600501826040516108539190611719565b908152602001604051809103902060009054906101000a900473ffffffffffffffffffffffffffffffffffffffff1673ffffffffffffffffffffffffffffffffffffffff16146040518060400160405280600f81526020017f4475706c696361746520656e747279000000000000000000000000000000000081525090610910576040517f08c379a00000000000000000000000000000000000000000000000000000000081526004016109079190611796565b60405180910390fd5b5061092a846000846003016110019092919063ffffffff16565b83826005018260405161093d9190611719565b908152602001604051809103902060006101000a81548173ffffffffffffffffffffffffffffffffffffffff021916908373ffffffffffffffffffffffffffffffffffffffff160217905550600061099e85680d8d726b7177a8000061111e565b90506000811115610a0b578473ffffffffffffffffffffffffffffffffffffffff16633eca424b826040518263ffffffff1660e01b81526004016000604051808303818588803b1580156109f157600080fd5b505af1158015610a05573d6000803e3d6000fd5b50505050505b8473ffffffffffffffffffffffffffffffffffffffff167fa393070be795669766b8f40ecaab0724def57650be5914b232c8fb18ca507f3660405160405180910390a25050505050565b60606000610a71610a64610c2d565b600301600101858561118e565b915091509250929050565b6000610a9b82610a8a610c2d565b600101610c5590919063ffffffff16565b9050919050565b60606000610abe610ab1610c2d565b600101600101858561118e565b915091509250929050565b33610ae781610ad6610c2d565b600101610c5590919063ffffffff16565b6040518060400160405280601781526020017f526571756972657320535043206d656d6265727368697000000000000000000081525090610b5e576040517f08c379a0000000000000000000000000000000000000000000000000000000008152600401610b559190611796565b60405180910390fd5b50610b7f826000610b6d610c2d565b6001016110019092919063ffffffff16565b6000610b9383678ac7230489e8000061111e565b905060008114610be5578273ffffffffffffffffffffffffffffffffffffffff166108fc829081150290604051600060405180830381858888f19350505050158015610be3573d6000803e3d6000fd5b505b8273ffffffffffffffffffffffffffffffffffffffff167fb251eb052afc73ffd02ffe85ad79990a8b3fed60d76dbc2fa2fdd7123dffd91460405160405180910390a2505050565b60007f89a652f66ca129ef71cab44916bb070742a08af428e08a99df145c8006c94285905090565b600080836001018054905014610d40578173ffffffffffffffffffffffffffffffffffffffff16836001018460000160008573ffffffffffffffffffffffffffffffffffffffff1673ffffffffffffffffffffffffffffffffffffffff1681526020019081526020016000205481548110610cf9577f4e487b7100000000000000000000000000000000000000000000000000000000600052603260045260246000fd5b9060005260206000200160009054906101000a900473ffffffffffffffffffffffffffffffffffffffff1673ffffffffffffffffffffffffffffffffffffffff1614610d43565b60005b905092915050565b6000610d578484610c55565b9050818015610d64575080155b15610d6f5750610ffc565b80610daf576040517f08c379a0000000000000000000000000000000000000000000000000000000008152600401610da6906117f8565b60405180910390fd5b600060018560010180549050610dc5919061193f565b90506000856001018281548110610e05577f4e487b7100000000000000000000000000000000000000000000000000000000600052603260045260246000fd5b9060005260206000200160009054906101000a900473ffffffffffffffffffffffffffffffffffffffff16905060008660000160008773ffffffffffffffffffffffffffffffffffffffff1673ffffffffffffffffffffffffffffffffffffffff168152602001908152602001600020549050808760000160008473ffffffffffffffffffffffffffffffffffffffff1673ffffffffffffffffffffffffffffffffffffffff1681526020019081526020016000208190555081876001018281548110610efb577f4e487b7100000000000000000000000000000000000000000000000000000000600052603260045260246000fd5b9060005260206000200160006101000a81548173ffffffffffffffffffffffffffffffffffffffff021916908373ffffffffffffffffffffffffffffffffffffffff1602179055508660000160008773ffffffffffffffffffffffffffffffffffffffff1673ffffffffffffffffffffffffffffffffffffffff1681526020019081526020016000206000905586600101805480610fc2577f4e487b7100000000000000000000000000000000000000000000000000000000600052603160045260246000fd5b6001900381819060005260206000200160006101000a81549073ffffffffffffffffffffffffffffffffffffffff02191690559055505050505b505050565b600061100d8484610c55565b90508180156110195750805b156110245750611119565b8015611065576040517f08c379a000000000000000000000000000000000000000000000000000000000815260040161105c906117d8565b60405180910390fd5b83600101805490508460000160008573ffffffffffffffffffffffffffffffffffffffff1673ffffffffffffffffffffffffffffffffffffffff1681526020019081526020016000208190555083600101839080600181540180825580915050600190039060005260206000200160009091909190916101000a81548173ffffffffffffffffffffffffffffffffffffffff021916908373ffffffffffffffffffffffffffffffffffffffff160217905550505b505050565b6000808373ffffffffffffffffffffffffffffffffffffffff1631905082811061114c576000915050611188565b8083611158919061193f565b925060003073ffffffffffffffffffffffffffffffffffffffff1631905083811015611182578093505b83925050505b92915050565b60606000808486805490506111a3919061193f565b84116111af57836111c0565b8486805490506111bf919061193f565b5b905060008167ffffffffffffffff811115611204577f4e487b7100000000000000000000000000000000000000000000000000000000600052604160045260246000fd5b6040519080825280602002602001820160405280156112325781602001602082028036833780820191505090505b50905060005b828110156113355787818861124d91906118e9565b81548110611284577f4e487b7100000000000000000000000000000000000000000000000000000000600052603260045260246000fd5b9060005260206000200160009054906101000a900473ffffffffffffffffffffffffffffffffffffffff168282815181106112e8577f4e487b7100000000000000000000000000000000000000000000000000000000600052603260045260246000fd5b602002602001019073ffffffffffffffffffffffffffffffffffffffff16908173ffffffffffffffffffffffffffffffffffffffff1681525050808061132d90611a40565b915050611238565b5080828761134391906118e9565b935093505050935093915050565b600061136461135f84611858565b611833565b90508281526020810184848401111561137c57600080fd5b6113878482856119dc565b509392505050565b60008135905061139e81611b73565b92915050565b6000813590506113b381611b8a565b92915050565b60008083601f8401126113cb57600080fd5b8235905067ffffffffffffffff8111156113e457600080fd5b6020830191508360018202830111156113fc57600080fd5b9250929050565b600082601f83011261141457600080fd5b8151611424848260208601611351565b91505092915050565b60008135905061143c81611ba1565b92915050565b60006020828403121561145457600080fd5b60006114628482850161138f565b91505092915050565b60006020828403121561147d57600080fd5b600061148b848285016113a4565b91505092915050565b600080602083850312156114a757600080fd5b600083013567ffffffffffffffff8111156114c157600080fd5b6114cd858286016113b9565b92509250509250929050565b6000602082840312156114eb57600080fd5b600082015167ffffffffffffffff81111561150557600080fd5b61151184828501611403565b91505092915050565b6000806040838503121561152d57600080fd5b600061153b8582860161142d565b925050602061154c8582860161142d565b9150509250929050565b6000611562838361156e565b60208301905092915050565b61157781611973565b82525050565b61158681611973565b82525050565b600061159782611899565b6115a181856118bc565b93506115ac83611889565b8060005b838110156115dd5781516115c48882611556565b97506115cf836118af565b9250506001810190506115b0565b5085935050505092915050565b6115f381611997565b82525050565b600061160583856118de565b93506116128385846119cd565b82840190509392505050565b6000611629826118a4565b61163381856118cd565b93506116438185602086016119dc565b61164c81611ae7565b840191505092915050565b6000611662826118a4565b61166c81856118de565b935061167c8185602086016119dc565b80840191505092915050565b60006116956012836118cd565b91506116a082611af8565b602082019050919050565b60006116b86016836118cd565b91506116c382611b21565b602082019050919050565b60006116db601d836118cd565b91506116e682611b4a565b602082019050919050565b6116fa816119c3565b82525050565b600061170d8284866115f9565b91508190509392505050565b60006117258284611657565b915081905092915050565b6000602082019050611745600083018461157d565b92915050565b60006040820190508181036000830152611765818561158c565b905061177460208301846116f1565b9392505050565b600060208201905061179060008301846115ea565b92915050565b600060208201905081810360008301526117b0818461161e565b905092915050565b600060208201905081810360008301526117d181611688565b9050919050565b600060208201905081810360008301526117f1816116ab565b9050919050565b60006020820190508181036000830152611811816116ce565b9050919050565b600060208201905061182d60008301846116f1565b92915050565b600061183d61184e565b90506118498282611a0f565b919050565b6000604051905090565b600067ffffffffffffffff82111561187357611872611ab8565b5b61187c82611ae7565b9050602081019050919050565b6000819050602082019050919050565b600081519050919050565b600081519050919050565b6000602082019050919050565b600082825260208201905092915050565b600082825260208201905092915050565b600081905092915050565b60006118f4826119c3565b91506118ff836119c3565b9250827fffffffffffffffffffffffffffffffffffffffffffffffffffffffffffffffff0382111561193457611933611a89565b5b828201905092915050565b600061194a826119c3565b9150611955836119c3565b92508282101561196857611967611a89565b5b828203905092915050565b600061197e826119a3565b9050919050565b6000611990826119a3565b9050919050565b60008115159050919050565b600073ffffffffffffffffffffffffffffffffffffffff82169050919050565b6000819050919050565b82818337600083830152505050565b60005b838110156119fa5780820151818401526020810190506119df565b83811115611a09576000848401525b50505050565b611a1882611ae7565b810181811067ffffffffffffffff82111715611a3757611a36611ab8565b5b80604052505050565b6000611a4b826119c3565b91507fffffffffffffffffffffffffffffffffffffffffffffffffffffffffffffffff821415611a7e57611a7d611a89565b5b600182019050919050565b7f4e487b7100000000000000000000000000000000000000000000000000000000600052601160045260246000fd5b7f4e487b7100000000000000000000000000000000000000000000000000000000600052604160045260246000fd5b6000601f19601f8301169050919050565b7f43616e6e6f742072656d6f76652073656c660000000000000000000000000000600082015250565b7f4164647265737320616c726561647920696e2073657400000000000000000000600082015250565b7f4164647265737320646f6573206e6f7420657869737420696e20736574000000600082015250565b611b7c81611973565b8114611b8757600080fd5b50565b611b9381611985565b8114611b9e57600080fd5b50565b611baa816119c3565b8114611bb557600080fd5b5056fea2646970667358221220cb76ad3e56645ba6c7fda77ede312043ae4cf431107f64b2e6e642a10164149b64736f6c63430008040033",
  "devdoc": {
    "details": "The SPC contract is the central place for top-level governorship. It requires that a        first member address is passed at construction time.",
    "events": {
      "EthDrained(address,uint256)": {
        "details": "Emited when Eth is drained from this SPC.",
        "params": {
          "amount": "The quantity of Eth that was drained, expressed in Wei.",
          "to": "The caller and recipient of the drained Eth."
        }
      },
      "EthReceived(address,uint256)": {
        "details": "Emited when someone provisions this SPC with Eth.",
        "params": {
          "amount": "The quantity of Eth, expressed in Wei.",
          "from": "The sender of the Eth."
        }
      },
      "FastRegistered(address)": {
        "details": "Emited when a new FAST is registered.",
        "params": {
          "fast": "The address of the newly registered FAST diamond."
        }
      }
    },
    "kind": "dev",
    "methods": {
      "addMember(address)": {
        "details": "Adds a member to this SPC member list.",
        "params": {
          "member": "The address of the member to be added."
        }
      },
      "drainEth()": {
        "details": "A function that alllows draining this SPC from its Eth."
      },
      "fastBySymbol(string)": {
        "details": "Allows to retrieve the address of a FAST diamond given its symbol.",
        "params": {
          "symbol": "The symbol of the FAST diamond to get the address of."
        },
        "returns": {
          "_0": "The address of the corresponding FAST diamond, or the Zero Address if not found."
        }
      },
      "fastCount()": {
        "details": "Counts the number of FAST diamonds registered with this SPC.",
        "returns": {
          "_0": "The number of FAST diamonds registered with this SPC."
        }
      },
      "isFastRegistered(address)": {
        "details": "Queries whether a given address is a known and registered FAST contract.",
        "params": {
          "fast": "The address of the contract to check."
        },
        "returns": {
          "_0": "A boolean."
        }
      },
      "isMember(address)": {
        "details": "Queries whether a given address is a member of this SPC or not.",
        "params": {
          "candidate": "The address to test."
        },
        "returns": {
          "_0": "A `boolean` flag."
        }
      },
      "memberCount()": {
        "details": "Counts the numbers of members present in this SPC.",
        "returns": {
          "_0": "The number of members in this SPC."
        }
      },
      "paginateFasts(uint256,uint256)": {
        "details": "Paginates the FAST diamonds registered with this SPC based on a starting cursor and a number of records per page.",
        "params": {
          "cursor": "The index at which to start.",
          "perPage": "How many records should be returned at most."
        },
        "returns": {
          "_0": "A `address[]` list of values at most `perPage` big.",
          "_1": "A `uint256` index to the next page."
        }
      },
      "paginateMembers(uint256,uint256)": {
        "details": "Paginates the members of this SPC based on a starting cursor and a number of records per page.",
        "params": {
          "cursor": "The index at which to start.",
          "perPage": "How many records should be returned at most."
        },
        "returns": {
          "_0": "A `address[]` list of values at most `perPage` big.",
          "_1": "A `uint256` index to the next page."
        }
      },
      "provisionWithEth()": {
        "details": "A function that alllows provisioning this SPC with Eth."
      },
      "registerFast(address)": {
        "details": "Allows the registration of a given FAST diamond with this SPC.",
        "params": {
          "fast": "The address of the FAST diamond to be registered."
        }
      },
      "removeMember(address)": {
        "details": "Removes a member from this SPC.",
        "params": {
          "member": "The address of the member to be removed."
        }
      }
    },
    "title": "The SPC Smart Contract.",
    "version": 1
  },
  "userdoc": {
    "kind": "user",
    "methods": {
      "addMember(address)": {
        "notice": "Requires that the caller is a member of this SPC.Emits a `IHasMembers.MemberAdded` event."
      },
      "drainEth()": {
        "notice": "Requires that the caller is a member of this SPC.Emits a `EthDrained` event."
      },
      "provisionWithEth()": {
        "notice": "Emits a `EthReceived` event."
      },
      "registerFast(address)": {
        "notice": "Requires that the caller is a member of this SPC.Emits a `FastRegistered` event."
      },
      "removeMember(address)": {
        "notice": "Requires that the caller is a member of this SPC.Emits a `IHasMembers.MemberRemoved` event."
      }
    },
    "version": 1
  },
  "storageLayout": {
    "storage": [],
    "types": null
  }
}