{
  "_format": "hh-sol-artifact-1",
  "contractName": "Crowdfund",
  "sourceName": "contracts/fast/Crowdfund.sol",
  "abi": [
    {
      "inputs": [
        {
          "components": [
            {
              "internalType": "address",
              "name": "owner",
              "type": "address"
            },
            {
              "internalType": "address",
              "name": "issuer",
              "type": "address"
            },
            {
              "internalType": "address",
              "name": "fast",
              "type": "address"
            },
            {
              "internalType": "address",
              "name": "beneficiary",
              "type": "address"
            },
            {
              "internalType": "contract IERC20",
              "name": "token",
              "type": "address"
            },
            {
              "internalType": "string",
              "name": "ref",
              "type": "string"
            }
          ],
          "internalType": "struct Crowdfund.Params",
          "name": "p",
          "type": "tuple"
        }
      ],
      "stateMutability": "nonpayable",
      "type": "constructor"
    },
    {
      "inputs": [],
      "name": "DuplicateEntry",
      "type": "error"
    },
    {
      "inputs": [
        {
          "internalType": "string",
          "name": "param",
          "type": "string"
        }
      ],
      "name": "InconsistentParameter",
      "type": "error"
    },
    {
      "inputs": [
        {
          "internalType": "uint256",
          "name": "amount",
          "type": "uint256"
        }
      ],
      "name": "InsufficientFunds",
      "type": "error"
    },
    {
      "inputs": [],
      "name": "InvalidPhase",
      "type": "error"
    },
    {
      "inputs": [
        {
          "internalType": "address",
          "name": "who",
          "type": "address"
        }
      ],
      "name": "RequiresFastGovernorship",
      "type": "error"
    },
    {
      "inputs": [],
      "name": "RequiresFastMemberCaller",
      "type": "error"
    },
    {
      "inputs": [
        {
          "internalType": "address",
          "name": "who",
          "type": "address"
        }
      ],
      "name": "RequiresFastMembership",
      "type": "error"
    },
    {
      "inputs": [],
      "name": "RequiresIssuerMemberCaller",
      "type": "error"
    },
    {
      "inputs": [],
      "name": "TokenContractError",
      "type": "error"
    },
    {
      "inputs": [
        {
          "internalType": "address",
          "name": "who",
          "type": "address"
        }
      ],
      "name": "UnknownPledger",
      "type": "error"
    },
    {
      "anonymous": false,
      "inputs": [
        {
          "indexed": false,
          "internalType": "enum Crowdfund.Phase",
          "name": "phase",
          "type": "uint8"
        }
      ],
      "name": "Advance",
      "type": "event"
    },
    {
      "anonymous": false,
      "inputs": [
        {
          "indexed": true,
          "internalType": "address",
          "name": "pledger",
          "type": "address"
        },
        {
          "indexed": false,
          "internalType": "uint256",
          "name": "amount",
          "type": "uint256"
        }
      ],
      "name": "Pledge",
      "type": "event"
    },
    {
      "anonymous": false,
      "inputs": [
        {
          "indexed": true,
          "internalType": "bool",
          "name": "success",
          "type": "bool"
        }
      ],
      "name": "Terminated",
      "type": "event"
    },
    {
      "inputs": [],
      "name": "VERSION",
      "outputs": [
        {
          "internalType": "uint16",
          "name": "",
          "type": "uint16"
        }
      ],
      "stateMutability": "view",
      "type": "function"
    },
    {
      "inputs": [
        {
          "internalType": "uint256",
          "name": "_basisPointsFee",
          "type": "uint256"
        }
      ],
      "name": "advanceToFunding",
      "outputs": [],
      "stateMutability": "nonpayable",
      "type": "function"
    },
    {
      "inputs": [],
      "name": "basisPointsFee",
      "outputs": [
        {
          "internalType": "uint256",
          "name": "",
          "type": "uint256"
        }
      ],
      "stateMutability": "view",
      "type": "function"
    },
    {
      "inputs": [],
      "name": "collected",
      "outputs": [
        {
          "internalType": "uint256",
          "name": "",
          "type": "uint256"
        }
      ],
      "stateMutability": "view",
      "type": "function"
    },
    {
      "inputs": [],
      "name": "creationBlock",
      "outputs": [
        {
          "internalType": "uint256",
          "name": "",
          "type": "uint256"
        }
      ],
      "stateMutability": "view",
      "type": "function"
    },
    {
      "inputs": [],
      "name": "feeAmount",
      "outputs": [
        {
          "internalType": "uint256",
          "name": "",
          "type": "uint256"
        }
      ],
      "stateMutability": "view",
      "type": "function"
    },
    {
      "inputs": [
        {
          "internalType": "uint256",
          "name": "index",
          "type": "uint256"
        },
        {
          "internalType": "uint256",
          "name": "perPage",
          "type": "uint256"
        }
      ],
      "name": "paginatePledgers",
      "outputs": [
        {
          "internalType": "address[]",
          "name": "",
          "type": "address[]"
        },
        {
          "internalType": "uint256",
          "name": "",
          "type": "uint256"
        }
      ],
      "stateMutability": "view",
      "type": "function"
    },
    {
      "inputs": [],
      "name": "params",
      "outputs": [
        {
          "internalType": "address",
          "name": "owner",
          "type": "address"
        },
        {
          "internalType": "address",
          "name": "issuer",
          "type": "address"
        },
        {
          "internalType": "address",
          "name": "fast",
          "type": "address"
        },
        {
          "internalType": "address",
          "name": "beneficiary",
          "type": "address"
        },
        {
          "internalType": "contract IERC20",
          "name": "token",
          "type": "address"
        },
        {
          "internalType": "string",
          "name": "ref",
          "type": "string"
        }
      ],
      "stateMutability": "view",
      "type": "function"
    },
    {
      "inputs": [],
      "name": "phase",
      "outputs": [
        {
          "internalType": "enum Crowdfund.Phase",
          "name": "",
          "type": "uint8"
        }
      ],
      "stateMutability": "view",
      "type": "function"
    },
    {
      "inputs": [
        {
          "internalType": "uint256",
          "name": "amount",
          "type": "uint256"
        }
      ],
      "name": "pledge",
      "outputs": [],
      "stateMutability": "nonpayable",
      "type": "function"
    },
    {
      "inputs": [],
      "name": "pledgerCount",
      "outputs": [
        {
          "internalType": "uint256",
          "name": "",
          "type": "uint256"
        }
      ],
      "stateMutability": "view",
      "type": "function"
    },
    {
      "inputs": [
        {
          "internalType": "address",
          "name": "",
          "type": "address"
        }
      ],
      "name": "pledges",
      "outputs": [
        {
          "internalType": "uint256",
          "name": "",
          "type": "uint256"
        }
      ],
      "stateMutability": "view",
      "type": "function"
    },
    {
      "inputs": [
        {
          "internalType": "address",
          "name": "pledger",
          "type": "address"
        }
      ],
      "name": "refund",
      "outputs": [],
      "stateMutability": "nonpayable",
      "type": "function"
    },
    {
      "inputs": [
        {
          "internalType": "address",
          "name": "",
          "type": "address"
        }
      ],
      "name": "refunded",
      "outputs": [
        {
          "internalType": "bool",
          "name": "",
          "type": "bool"
        }
      ],
      "stateMutability": "view",
      "type": "function"
    },
    {
      "inputs": [
        {
          "internalType": "bool",
          "name": "success",
          "type": "bool"
        }
      ],
      "name": "terminate",
      "outputs": [],
      "stateMutability": "nonpayable",
      "type": "function"
    }
  ],
  "bytecode": "0x60806040523480156200001157600080fd5b5060405162001bc038038062001bc08339810160408190526200003491620003d1565b8051600080546001600160a01b03199081166001600160a01b0393841617825560208085015160018054841691861691909117905560408501516002805484169186169190911790556060850151600380548416918616919091179055608085015160048054909316941693909317905560a083015180518493620000bf92600592910190620001f7565b50508151620000cf91506200014a565b620000ff5780516040516257946760e61b81526001600160a01b0390911660048201526024015b60405180910390fd5b60608101516200010f90620001c3565b6200013f576060810151604051635c6338cf60e11b81526001600160a01b039091166004820152602401620000f6565b504360075562000512565b600254604051631c86b03760e31b81526001600160a01b038381166004830152600092169063e43581b8906024015b602060405180830381865afa15801562000197573d6000803e3d6000fd5b505050506040513d601f19601f82011682018060405250810190620001bd9190620004aa565b92915050565b60025460405163288c314960e21b81526001600160a01b038381166004830152600092169063a230c5249060240162000179565b8280546200020590620004d5565b90600052602060002090601f01602090048101928262000229576000855562000274565b82601f106200024457805160ff191683800117855562000274565b8280016001018555821562000274579182015b828111156200027457825182559160200191906001019062000257565b506200028292915062000286565b5090565b5b8082111562000282576000815560010162000287565b634e487b7160e01b600052604160045260246000fd5b60405160c081016001600160401b0381118282101715620002d857620002d86200029d565b60405290565b604051601f8201601f191681016001600160401b03811182821017156200030957620003096200029d565b604052919050565b6001600160a01b03811681146200032757600080fd5b50565b8051620003378162000311565b919050565b600082601f8301126200034e57600080fd5b81516001600160401b038111156200036a576200036a6200029d565b602062000380601f8301601f19168201620002de565b82815285828487010111156200039557600080fd5b60005b83811015620003b557858101830151828201840152820162000398565b83811115620003c75760008385840101525b5095945050505050565b600060208284031215620003e457600080fd5b81516001600160401b0380821115620003fc57600080fd5b9083019060c082860312156200041157600080fd5b6200041b620002b3565b8251620004288162000311565b815260208301516200043a8162000311565b602082015260408301516200044f8162000311565b604082015262000462606084016200032a565b606082015262000475608084016200032a565b608082015260a0830151828111156200048d57600080fd5b6200049b878286016200033c565b60a08301525095945050505050565b600060208284031215620004bd57600080fd5b81518015158114620004ce57600080fd5b9392505050565b600181811c90821680620004ea57607f821691505b602082108114156200050c57634e487b7160e01b600052602260045260246000fd5b50919050565b61169e80620005226000396000f3fe608060405234801561001057600080fd5b50600436106100f55760003560e01c80638af42bd211610097578063c033a49011610066578063c033a490146101ce578063cff0ab9614610201578063fa89401a1461021b578063ffa1ad741461022e57600080fd5b80638af42bd21461017757806392d61fe31461018a578063b1c9fe6e146101ab578063b44ac7c9146101c557600080fd5b8063343576f5116100d3578063343576f51461013357806369e15404146101535780637326c9c01461015b57806384bcefd41461016e57600080fd5b806312e9a92a146100fa578063176345141461010f57806320fe99fe1461012b575b600080fd5b61010d6101083660046112ce565b610249565b005b61011860075481565b6040519081526020015b60405180910390f35b600b54610118565b6101186101413660046112e7565b600c6020526000908152604090205481565b610118610452565b61010d6101693660046112ce565b61046c565b61011860095481565b61010d61018536600461132e565b6107b8565b61019d61019836600461134b565b610b5b565b60405161012292919061136d565b6006546101b89060ff1681565b60405161012291906113fa565b61011860085481565b6101f16101dc3660046112e7565b600d6020526000908152604090205460ff1681565b6040519015158152602001610122565b610209610b76565b6040516101229695949392919061143b565b61010d6102293660046112e7565b610c40565b610236600181565b60405161ffff9091168152602001610122565b60065460009060ff166003811115610263576102636113cb565b816003811115610275576102756113cb565b146102ac576040517f9a36fd9c00000000000000000000000000000000000000000000000000000000815260040160405180910390fd5b6001546040517fa230c52400000000000000000000000000000000000000000000000000000000815233600482015273ffffffffffffffffffffffffffffffffffffffff9091169063a230c52490602401602060405180830381865afa15801561031a573d6000803e3d6000fd5b505050506040513d601f19601f8201168201806040525081019061033e91906114f3565b610374576040517f5353280000000000000000000000000000000000000000000000000000000000815260040160405180910390fd5b6127108211156103e5576040517f19cbe44b00000000000000000000000000000000000000000000000000000000815260206004820152600e60248201527f6261736973506f696e747346656500000000000000000000000000000000000060448201526064015b60405180910390fd5b6008829055600680547fffffffffffffffffffffffffffffffffffffffffffffffffffffffffffffff001660019081179091556040517f55bc76655fa95a7bc9068ab071cd51430123d180c791be8584b21c98e33c8aa591610446916113fa565b60405180910390a15050565b60006104676009546008546127106001610e78565b905090565b60065460019060ff166003811115610486576104866113cb565b816003811115610498576104986113cb565b146104cf576040517f9a36fd9c00000000000000000000000000000000000000000000000000000000815260040160405180910390fd5b6104d833610ed5565b61050e576040517f46b83e9600000000000000000000000000000000000000000000000000000000815260040160405180910390fd5b81610575576040517f19cbe44b00000000000000000000000000000000000000000000000000000000815260206004820152600660248201527f616d6f756e74000000000000000000000000000000000000000000000000000060448201526064016103dc565b600480546040517fdd62ed3e000000000000000000000000000000000000000000000000000000008152339281019290925230602483015260009173ffffffffffffffffffffffffffffffffffffffff9091169063dd62ed3e90604401602060405180830381865afa1580156105ef573d6000803e3d6000fd5b505050506040513d601f19601f820116820180604052508101906106139190611510565b90508281101561065c576106278184611558565b6040517fcb78cce20000000000000000000000000000000000000000000000000000000081526004016103dc91815260200190565b610669600a336001610f70565b336000908152600c60205260408120805485929061068890849061156f565b9250508190555082600960008282546106a1919061156f565b9091555050600480546040517f23b872dd00000000000000000000000000000000000000000000000000000000815233928101929092523060248301526044820185905273ffffffffffffffffffffffffffffffffffffffff16906323b872dd906064016020604051808303816000875af1158015610724573d6000803e3d6000fd5b505050506040513d601f19601f8201168201806040525081019061074891906114f3565b61077e576040517f65edbc9100000000000000000000000000000000000000000000000000000000815260040160405180910390fd5b60405183815233907f5e91ea8ea1c46300eb761859be01d7b16d44389ef91e03a163a87413cbf55b959060200160405180910390a2505050565b6001546040517fa230c52400000000000000000000000000000000000000000000000000000000815233600482015273ffffffffffffffffffffffffffffffffffffffff9091169063a230c52490602401602060405180830381865afa158015610826573d6000803e3d6000fd5b505050506040513d601f19601f8201168201806040525081019061084a91906114f3565b610880576040517f5353280000000000000000000000000000000000000000000000000000000000815260040160405180910390fd5b8015610ad5576000610890610452565b9050801561096f57600480546001546040517fa9059cbb00000000000000000000000000000000000000000000000000000000815273ffffffffffffffffffffffffffffffffffffffff9182169381019390935260248301849052169063a9059cbb906044016020604051808303816000875af1158015610915573d6000803e3d6000fd5b505050506040513d601f19601f8201168201806040525081019061093991906114f3565b61096f576040517f65edbc9100000000000000000000000000000000000000000000000000000000815260040160405180910390fd5b60008160095461097f9190611558565b90508015610ad2576003546109a99073ffffffffffffffffffffffffffffffffffffffff16610ed5565b6109fb576003546040517fb8c6719e00000000000000000000000000000000000000000000000000000000815273ffffffffffffffffffffffffffffffffffffffff90911660048201526024016103dc565b600480546003546040517fa9059cbb00000000000000000000000000000000000000000000000000000000815273ffffffffffffffffffffffffffffffffffffffff9182169381019390935260248301849052169063a9059cbb906044016020604051808303816000875af1158015610a78573d6000803e3d6000fd5b505050506040513d601f19601f82011682018060405250810190610a9c91906114f3565b610ad2576040517f65edbc9100000000000000000000000000000000000000000000000000000000815260040160405180910390fd5b50505b7f55bc76655fa95a7bc9068ab071cd51430123d180c791be8584b21c98e33c8aa581610b02576003610b05565b60025b600680547fffffffffffffffffffffffffffffffffffffffffffffffffffffffffffffff00166001836003811115610b3f57610b3f6113cb565b02179055604051610b5091906113fa565b60405180910390a150565b60606000610b6b600b8585611064565b915091509250929050565b600080546001546002546003546004546005805473ffffffffffffffffffffffffffffffffffffffff968716979587169694851695938516949092169291610bbd90611587565b80601f0160208091040260200160405190810160405280929190818152602001828054610be990611587565b8015610c365780601f10610c0b57610100808354040283529160200191610c36565b820191906000526020600020905b815481529060010190602001808311610c1957829003601f168201915b5050505050905086565b60065460039060ff1681811115610c5957610c596113cb565b816003811115610c6b57610c6b6113cb565b14610ca2576040517f9a36fd9c00000000000000000000000000000000000000000000000000000000815260040160405180910390fd5b610cad600a83611185565b610cfb576040517f7dfd2ced00000000000000000000000000000000000000000000000000000000815273ffffffffffffffffffffffffffffffffffffffff831660048201526024016103dc565b73ffffffffffffffffffffffffffffffffffffffff82166000908152600d602052604090205460ff1615610d5b576040517f357d0cc400000000000000000000000000000000000000000000000000000000815260040160405180910390fd5b73ffffffffffffffffffffffffffffffffffffffff8281166000818152600d6020908152604080832080547fffffffffffffffffffffffffffffffffffffffffffffffffffffffffffffff0016600117905560048054600c909352928190205490517fa9059cbb00000000000000000000000000000000000000000000000000000000815292830193909352602482019290925291169063a9059cbb906044016020604051808303816000875af1158015610e1a573d6000803e3d6000fd5b505050506040513d601f19601f82011682018060405250810190610e3e91906114f3565b610e74576040517f65edbc9100000000000000000000000000000000000000000000000000000000815260040160405180910390fd5b5050565b600080610e86868686611201565b90506001836002811115610e9c57610e9c6113cb565b148015610eb9575060008480610eb457610eb46115db565b868809115b15610ecc57610ec960018261156f565b90505b95945050505050565b6002546040517fa230c52400000000000000000000000000000000000000000000000000000000815273ffffffffffffffffffffffffffffffffffffffff8381166004830152600092169063a230c52490602401602060405180830381865afa158015610f46573d6000803e3d6000fd5b505050506040513d601f19601f82011682018060405250810190610f6a91906114f3565b92915050565b6000610f7c8484611185565b9050818015610f885750805b15610f935750505050565b8015610ffb576040517f08c379a000000000000000000000000000000000000000000000000000000000815260206004820152601660248201527f4164647265737320616c726561647920696e207365740000000000000000000060448201526064016103dc565b50506001808301805473ffffffffffffffffffffffffffffffffffffffff909316600081815260209586526040812085905592840182559082529290200180547fffffffffffffffffffffffff0000000000000000000000000000000000000000169091179055565b60606000808486805490506110799190611558565b84116110855783611092565b8554611092908690611558565b905060008167ffffffffffffffff8111156110af576110af61160a565b6040519080825280602002602001820160405280156110d8578160200160208202803683370190505b50905060005b8281101561116b57876110f1828961156f565b8154811061110157611101611639565b9060005260206000200160009054906101000a900473ffffffffffffffffffffffffffffffffffffffff1682828151811061113e5761113e611639565b73ffffffffffffffffffffffffffffffffffffffff909216602092830291909101909101526001016110de565b5080611177838861156f565b935093505050935093915050565b6001820154600090156111f75773ffffffffffffffffffffffffffffffffffffffff821660008181526020859052604090205460018501805490919081106111cf576111cf611639565b60009182526020909120015473ffffffffffffffffffffffffffffffffffffffff16146111fa565b60005b9392505050565b600080807fffffffffffffffffffffffffffffffffffffffffffffffffffffffffffffffff858709858702925082811083820303915050806000141561125a57838281611250576112506115db565b04925050506111fa565b80841161126657600080fd5b600084868809600260036001881981018916988990049182028318808302840302808302840302808302840302808302840302808302840302918202909203026000889003889004909101858311909403939093029303949094049190911702949350505050565b6000602082840312156112e057600080fd5b5035919050565b6000602082840312156112f957600080fd5b813573ffffffffffffffffffffffffffffffffffffffff811681146111fa57600080fd5b801515811461132b57600080fd5b50565b60006020828403121561134057600080fd5b81356111fa8161131d565b6000806040838503121561135e57600080fd5b50508035926020909101359150565b604080825283519082018190526000906020906060840190828701845b828110156113bc57815173ffffffffffffffffffffffffffffffffffffffff168452928401929084019060010161138a565b50505092019290925292915050565b7f4e487b7100000000000000000000000000000000000000000000000000000000600052602160045260246000fd5b6020810160048310611435577f4e487b7100000000000000000000000000000000000000000000000000000000600052602160045260246000fd5b91905290565b600073ffffffffffffffffffffffffffffffffffffffff808916835260208189168185015281881660408501528187166060850152818616608085015260c060a0850152845191508160c085015260005b828110156114a85785810182015185820160e00152810161148c565b828111156114ba57600060e084870101525b5050601f017fffffffffffffffffffffffffffffffffffffffffffffffffffffffffffffffe0169190910160e001979650505050505050565b60006020828403121561150557600080fd5b81516111fa8161131d565b60006020828403121561152257600080fd5b5051919050565b7f4e487b7100000000000000000000000000000000000000000000000000000000600052601160045260246000fd5b60008282101561156a5761156a611529565b500390565b6000821982111561158257611582611529565b500190565b600181811c9082168061159b57607f821691505b602082108114156115d5577f4e487b7100000000000000000000000000000000000000000000000000000000600052602260045260246000fd5b50919050565b7f4e487b7100000000000000000000000000000000000000000000000000000000600052601260045260246000fd5b7f4e487b7100000000000000000000000000000000000000000000000000000000600052604160045260246000fd5b7f4e487b7100000000000000000000000000000000000000000000000000000000600052603260045260246000fdfea2646970667358221220a7325e887d88a99dfa532ae4d1865e557153760cb078cabc451f96c0859866a864736f6c634300080a0033",
  "linkReferences": {},
  "deployedLinkReferences": {}
}