{
  "_format": "hh-sol-artifact-1",
  "contractName": "ERC20",
  "sourceName": "contracts/dummy/ERC20.sol",
  "abi": [
    {
      "inputs": [
        {
          "internalType": "string",
          "name": "_name",
          "type": "string"
        },
        {
          "internalType": "string",
          "name": "_symbol",
          "type": "string"
        }
      ],
      "stateMutability": "nonpayable",
      "type": "constructor"
    },
    {
      "inputs": [
        {
          "internalType": "address",
          "name": "owner",
          "type": "address"
        },
        {
          "internalType": "address",
          "name": "spender",
          "type": "address"
        }
      ],
      "name": "allowance",
      "outputs": [
        {
          "internalType": "uint256",
          "name": "",
          "type": "uint256"
        }
      ],
      "stateMutability": "view",
      "type": "function"
    },
    {
      "inputs": [
        {
          "internalType": "address",
          "name": "spender",
          "type": "address"
        },
        {
          "internalType": "uint256",
          "name": "amount",
          "type": "uint256"
        }
      ],
      "name": "approve",
      "outputs": [
        {
          "internalType": "bool",
          "name": "",
          "type": "bool"
        }
      ],
      "stateMutability": "nonpayable",
      "type": "function"
    },
    {
      "inputs": [
        {
          "internalType": "address",
          "name": "account",
          "type": "address"
        }
      ],
      "name": "balanceOf",
      "outputs": [
        {
          "internalType": "uint256",
          "name": "",
          "type": "uint256"
        }
      ],
      "stateMutability": "view",
      "type": "function"
    },
    {
      "inputs": [
        {
          "internalType": "address",
          "name": "account",
          "type": "address"
        },
        {
          "internalType": "uint256",
          "name": "amount",
          "type": "uint256"
        }
      ],
      "name": "burn",
      "outputs": [],
      "stateMutability": "nonpayable",
      "type": "function"
    },
    {
      "inputs": [],
      "name": "decimals",
      "outputs": [
        {
          "internalType": "uint8",
          "name": "",
          "type": "uint8"
        }
      ],
      "stateMutability": "pure",
      "type": "function"
    },
    {
      "inputs": [
        {
          "internalType": "address",
          "name": "account",
          "type": "address"
        },
        {
          "internalType": "uint256",
          "name": "amount",
          "type": "uint256"
        }
      ],
      "name": "mint",
      "outputs": [],
      "stateMutability": "nonpayable",
      "type": "function"
    },
    {
      "inputs": [],
      "name": "name",
      "outputs": [
        {
          "internalType": "string",
          "name": "",
          "type": "string"
        }
      ],
      "stateMutability": "view",
      "type": "function"
    },
    {
      "inputs": [],
      "name": "symbol",
      "outputs": [
        {
          "internalType": "string",
          "name": "",
          "type": "string"
        }
      ],
      "stateMutability": "view",
      "type": "function"
    },
    {
      "inputs": [],
      "name": "totalSupply",
      "outputs": [
        {
          "internalType": "uint256",
          "name": "",
          "type": "uint256"
        }
      ],
      "stateMutability": "view",
      "type": "function"
    },
    {
      "inputs": [
        {
          "internalType": "address",
          "name": "recipient",
          "type": "address"
        },
        {
          "internalType": "uint256",
          "name": "amount",
          "type": "uint256"
        }
      ],
      "name": "transfer",
      "outputs": [
        {
          "internalType": "bool",
          "name": "",
          "type": "bool"
        }
      ],
      "stateMutability": "nonpayable",
      "type": "function"
    },
    {
      "inputs": [
        {
          "internalType": "address",
          "name": "sender",
          "type": "address"
        },
        {
          "internalType": "address",
          "name": "recipient",
          "type": "address"
        },
        {
          "internalType": "uint256",
          "name": "amount",
          "type": "uint256"
        }
      ],
      "name": "transferFrom",
      "outputs": [
        {
          "internalType": "bool",
          "name": "",
          "type": "bool"
        }
      ],
      "stateMutability": "nonpayable",
      "type": "function"
    }
  ],
  "bytecode": "0x60806040523480156200001157600080fd5b5060405162000ed438038062000ed48339810160408190526200003491620001db565b81516200004990600390602085019062000068565b5080516200005f90600490602084019062000068565b50505062000282565b828054620000769062000245565b90600052602060002090601f0160209004810192826200009a5760008555620000e5565b82601f10620000b557805160ff1916838001178555620000e5565b82800160010185558215620000e5579182015b82811115620000e5578251825591602001919060010190620000c8565b50620000f3929150620000f7565b5090565b5b80821115620000f35760008155600101620000f8565b634e487b7160e01b600052604160045260246000fd5b600082601f8301126200013657600080fd5b81516001600160401b03808211156200015357620001536200010e565b604051601f8301601f19908116603f011681019082821181831017156200017e576200017e6200010e565b816040528381526020925086838588010111156200019b57600080fd5b600091505b83821015620001bf5785820183015181830184015290820190620001a0565b83821115620001d15760008385830101525b9695505050505050565b60008060408385031215620001ef57600080fd5b82516001600160401b03808211156200020757600080fd5b620002158683870162000124565b935060208501519150808211156200022c57600080fd5b506200023b8582860162000124565b9150509250929050565b600181811c908216806200025a57607f821691505b602082108114156200027c57634e487b7160e01b600052602260045260246000fd5b50919050565b610c4280620002926000396000f3fe608060405234801561001057600080fd5b50600436106100c95760003560e01c806340c10f19116100815780639dc29fac1161005b5780639dc29fac1461019b578063a9059cbb146101ae578063dd62ed3e146101c157600080fd5b806340c10f191461014857806370a082311461015d57806395d89b411461019357600080fd5b806318160ddd116100b257806318160ddd1461010f57806323b872dd14610126578063313ce5671461013957600080fd5b806306fdde03146100ce578063095ea7b3146100ec575b600080fd5b6100d6610207565b6040516100e39190610a03565b60405180910390f35b6100ff6100fa366004610a9f565b610295565b60405190151581526020016100e3565b61011860025481565b6040519081526020016100e3565b6100ff610134366004610ac9565b6102ab565b604051601281526020016100e3565b61015b610156366004610a9f565b61039d565b005b61011861016b366004610b05565b73ffffffffffffffffffffffffffffffffffffffff1660009081526020819052604090205490565b6100d661046f565b61015b6101a9366004610a9f565b61047c565b6100ff6101bc366004610a9f565b610624565b6101186101cf366004610b27565b73ffffffffffffffffffffffffffffffffffffffff918216600090815260016020908152604080832093909416825291909152205490565b6003805461021490610b5a565b80601f016020809104026020016040519081016040528092919081815260200182805461024090610b5a565b801561028d5780601f106102625761010080835404028352916020019161028d565b820191906000526020600020905b81548152906001019060200180831161027057829003601f168201915b505050505081565b60006102a2338484610631565b50600192915050565b60006102b88484846107af565b73ffffffffffffffffffffffffffffffffffffffff841660009081526001602090815260408083203384529091529020548281101561037e576040517f08c379a000000000000000000000000000000000000000000000000000000000815260206004820152602860248201527f45524332303a207472616e7366657220616d6f756e742065786365656473206160448201527f6c6c6f77616e636500000000000000000000000000000000000000000000000060648201526084015b60405180910390fd5b610392853361038d8685610bdd565b610631565b506001949350505050565b73ffffffffffffffffffffffffffffffffffffffff821661041a576040517f08c379a000000000000000000000000000000000000000000000000000000000815260206004820152601f60248201527f45524332303a206d696e7420746f20746865207a65726f2061646472657373006044820152606401610375565b806002600082825461042c9190610bf4565b909155505073ffffffffffffffffffffffffffffffffffffffff821660009081526020819052604081208054839290610466908490610bf4565b90915550505050565b6004805461021490610b5a565b73ffffffffffffffffffffffffffffffffffffffff821661051f576040517f08c379a000000000000000000000000000000000000000000000000000000000815260206004820152602160248201527f45524332303a206275726e2066726f6d20746865207a65726f2061646472657360448201527f73000000000000000000000000000000000000000000000000000000000000006064820152608401610375565b73ffffffffffffffffffffffffffffffffffffffff8216600090815260208190526040902054818110156105d5576040517f08c379a000000000000000000000000000000000000000000000000000000000815260206004820152602260248201527f45524332303a206275726e20616d6f756e7420657863656564732062616c616e60448201527f63650000000000000000000000000000000000000000000000000000000000006064820152608401610375565b6105df8282610bdd565b73ffffffffffffffffffffffffffffffffffffffff84166000908152602081905260408120919091556002805484929061061a908490610bdd565b9091555050505050565b60006102a23384846107af565b73ffffffffffffffffffffffffffffffffffffffff83166106d3576040517f08c379a0000000000000000000000000000000000000000000000000000000008152602060048201526024808201527f45524332303a20617070726f76652066726f6d20746865207a65726f2061646460448201527f72657373000000000000000000000000000000000000000000000000000000006064820152608401610375565b73ffffffffffffffffffffffffffffffffffffffff8216610776576040517f08c379a000000000000000000000000000000000000000000000000000000000815260206004820152602260248201527f45524332303a20617070726f766520746f20746865207a65726f20616464726560448201527f73730000000000000000000000000000000000000000000000000000000000006064820152608401610375565b73ffffffffffffffffffffffffffffffffffffffff92831660009081526001602090815260408083209490951682529290925291902055565b73ffffffffffffffffffffffffffffffffffffffff8316610852576040517f08c379a000000000000000000000000000000000000000000000000000000000815260206004820152602560248201527f45524332303a207472616e736665722066726f6d20746865207a65726f20616460448201527f64726573730000000000000000000000000000000000000000000000000000006064820152608401610375565b73ffffffffffffffffffffffffffffffffffffffff82166108f5576040517f08c379a000000000000000000000000000000000000000000000000000000000815260206004820152602360248201527f45524332303a207472616e7366657220746f20746865207a65726f206164647260448201527f65737300000000000000000000000000000000000000000000000000000000006064820152608401610375565b73ffffffffffffffffffffffffffffffffffffffff8316600090815260208190526040902054818110156109ab576040517f08c379a000000000000000000000000000000000000000000000000000000000815260206004820152602660248201527f45524332303a207472616e7366657220616d6f756e742065786365656473206260448201527f616c616e636500000000000000000000000000000000000000000000000000006064820152608401610375565b6109b58282610bdd565b73ffffffffffffffffffffffffffffffffffffffff80861660009081526020819052604080822093909355908516815290812080548492906109f8908490610bf4565b909155505050505050565b600060208083528351808285015260005b81811015610a3057858101830151858201604001528201610a14565b81811115610a42576000604083870101525b50601f017fffffffffffffffffffffffffffffffffffffffffffffffffffffffffffffffe016929092016040019392505050565b803573ffffffffffffffffffffffffffffffffffffffff81168114610a9a57600080fd5b919050565b60008060408385031215610ab257600080fd5b610abb83610a76565b946020939093013593505050565b600080600060608486031215610ade57600080fd5b610ae784610a76565b9250610af560208501610a76565b9150604084013590509250925092565b600060208284031215610b1757600080fd5b610b2082610a76565b9392505050565b60008060408385031215610b3a57600080fd5b610b4383610a76565b9150610b5160208401610a76565b90509250929050565b600181811c90821680610b6e57607f821691505b60208210811415610ba8577f4e487b7100000000000000000000000000000000000000000000000000000000600052602260045260246000fd5b50919050565b7f4e487b7100000000000000000000000000000000000000000000000000000000600052601160045260246000fd5b600082821015610bef57610bef610bae565b500390565b60008219821115610c0757610c07610bae565b50019056fea2646970667358221220a016c130e32a24ba54871c2d13887f2dfa998cee1188d86b5952410e21ba1dde64736f6c634300080a0033",
  "linkReferences": {},
  "deployedLinkReferences": {}
}