{
  "_format": "hh-sol-artifact-1",
  "contractName": "FastDistributionsFacet",
  "sourceName": "contracts/fast/FastDistributionsFacet.sol",
  "abi": [
    {
      "inputs": [
        {
          "internalType": "uint256",
          "name": "amount",
          "type": "uint256"
        }
      ],
      "name": "InsufficientFunds",
      "type": "error"
    },
    {
      "inputs": [
        {
          "internalType": "address",
          "name": "who",
          "type": "address"
        }
      ],
      "name": "RequiresFastMembership",
      "type": "error"
    },
    {
      "inputs": [
        {
          "internalType": "address",
          "name": "who",
          "type": "address"
        }
      ],
      "name": "RequiresIssuerMembership",
      "type": "error"
    },
    {
      "inputs": [],
      "name": "TokenContractError",
      "type": "error"
    },
    {
      "anonymous": false,
      "inputs": [
        {
          "indexed": true,
          "internalType": "address",
          "name": "owner",
          "type": "address"
        },
        {
          "indexed": true,
          "internalType": "address",
          "name": "spender",
          "type": "address"
        },
        {
          "indexed": false,
          "internalType": "uint256",
          "name": "value",
          "type": "uint256"
        }
      ],
      "name": "Approval",
      "type": "event"
    },
    {
      "anonymous": false,
      "inputs": [
        {
          "indexed": true,
          "internalType": "uint256",
          "name": "amount",
          "type": "uint256"
        },
        {
          "indexed": true,
          "internalType": "string",
          "name": "ref",
          "type": "string"
        },
        {
          "indexed": true,
          "internalType": "address",
          "name": "who",
          "type": "address"
        }
      ],
      "name": "Burnt",
      "type": "event"
    },
    {
      "anonymous": false,
      "inputs": [
        {
          "indexed": true,
          "internalType": "contract Crowdfund",
          "name": "crowdfund",
          "type": "address"
        }
      ],
      "name": "CrowdfundDeployed",
      "type": "event"
    },
    {
      "anonymous": false,
      "inputs": [
        {
          "indexed": true,
          "internalType": "contract Crowdfund",
          "name": "crowdfund",
          "type": "address"
        }
      ],
      "name": "CrowdfundRemoved",
      "type": "event"
    },
    {
      "anonymous": false,
      "inputs": [
        {
          "indexed": false,
          "internalType": "bool",
          "name": "transfersDisabled",
          "type": "bool"
        },
        {
          "indexed": false,
          "internalType": "uint256",
          "name": "memberCount",
          "type": "uint256"
        },
        {
          "indexed": false,
          "internalType": "uint256",
          "name": "governorCount",
          "type": "uint256"
        },
        {
          "indexed": false,
          "internalType": "uint256",
          "name": "totalSupply",
          "type": "uint256"
        },
        {
          "indexed": false,
          "internalType": "uint256",
          "name": "reserveBalance",
          "type": "uint256"
        }
      ],
      "name": "DetailsChanged",
      "type": "event"
    },
    {
      "anonymous": false,
      "inputs": [
        {
          "indexed": true,
          "internalType": "address",
          "name": "owner",
          "type": "address"
        },
        {
          "indexed": true,
          "internalType": "address",
          "name": "spender",
          "type": "address"
        },
        {
          "indexed": false,
          "internalType": "uint256",
          "name": "value",
          "type": "uint256"
        }
      ],
      "name": "Disapproval",
      "type": "event"
    },
    {
      "anonymous": false,
      "inputs": [
        {
          "indexed": true,
          "internalType": "contract Distribution",
          "name": "distribution",
          "type": "address"
        }
      ],
      "name": "DistributionDeployed",
      "type": "event"
    },
    {
      "anonymous": false,
      "inputs": [
        {
          "indexed": true,
          "internalType": "contract Distribution",
          "name": "distribution",
          "type": "address"
        }
      ],
      "name": "DistributionRemoved",
      "type": "event"
    },
    {
      "anonymous": false,
      "inputs": [
        {
          "indexed": true,
          "internalType": "address",
          "name": "spender",
          "type": "address"
        },
        {
          "indexed": true,
          "internalType": "address",
          "name": "from",
          "type": "address"
        },
        {
          "indexed": true,
          "internalType": "address",
          "name": "to",
          "type": "address"
        },
        {
          "indexed": false,
          "internalType": "uint256",
          "name": "value",
          "type": "uint256"
        },
        {
          "indexed": false,
          "internalType": "string",
          "name": "ref",
          "type": "string"
        }
      ],
      "name": "FastTransfer",
      "type": "event"
    },
    {
      "anonymous": false,
      "inputs": [
        {
          "indexed": true,
          "internalType": "uint256",
          "name": "amount",
          "type": "uint256"
        },
        {
          "indexed": true,
          "internalType": "string",
          "name": "ref",
          "type": "string"
        },
        {
          "indexed": true,
          "internalType": "address",
          "name": "who",
          "type": "address"
        }
      ],
      "name": "Minted",
      "type": "event"
    },
    {
      "anonymous": false,
      "inputs": [
        {
          "indexed": true,
          "internalType": "address",
          "name": "from",
          "type": "address"
        },
        {
          "indexed": true,
          "internalType": "address",
          "name": "to",
          "type": "address"
        },
        {
          "indexed": false,
          "internalType": "uint256",
          "name": "value",
          "type": "uint256"
        }
      ],
      "name": "Transfer",
      "type": "event"
    },
    {
      "inputs": [
        {
          "internalType": "contract IERC20",
          "name": "token",
          "type": "address"
        },
        {
          "internalType": "uint256",
          "name": "total",
          "type": "uint256"
        },
        {
          "internalType": "uint256",
          "name": "blockLatch",
          "type": "uint256"
        },
        {
          "internalType": "string",
          "name": "ref",
          "type": "string"
        }
      ],
      "name": "createDistribution",
      "outputs": [],
      "stateMutability": "nonpayable",
      "type": "function"
    },
    {
      "inputs": [],
      "name": "distributionCount",
      "outputs": [
        {
          "internalType": "uint256",
          "name": "",
          "type": "uint256"
        }
      ],
      "stateMutability": "view",
      "type": "function"
    },
    {
      "inputs": [
        {
          "internalType": "uint256",
          "name": "index",
          "type": "uint256"
        },
        {
          "internalType": "uint256",
          "name": "perPage",
          "type": "uint256"
        }
      ],
      "name": "paginateDistributions",
      "outputs": [
        {
          "internalType": "address[]",
          "name": "",
          "type": "address[]"
        },
        {
          "internalType": "uint256",
          "name": "",
          "type": "uint256"
        }
      ],
      "stateMutability": "view",
      "type": "function"
    },
    {
      "inputs": [
        {
          "internalType": "contract Distribution",
          "name": "distribution",
          "type": "address"
        }
      ],
      "name": "removeDistribution",
      "outputs": [],
      "stateMutability": "nonpayable",
      "type": "function"
    }
  ],
  "bytecode": "0x608060405234801561001057600080fd5b506135fe806100206000396000f3fe60806040523480156200001157600080fd5b5060043610620000525760003560e01c806308ff3efd1462000057578063525d5ebf1462000070578063bd470cf914620000a0578063c65c3d9514620000b7575b600080fd5b6200006e6200006836600462000c13565b620000e8565b005b620000876200008136600462000c33565b620001a3565b6040516200009792919062000c56565b60405180910390f35b6200006e620000b136600462000ce5565b620001df565b7fe865e85b076245a187a9d3cc15c47264cd0b46df4afd899817bd2e16523485af5460405190815260200162000097565b620000f3336200067f565b62000131576040517f1dd41c4d0000000000000000000000000000000000000000000000000000000081523360048201526024015b60405180910390fd5b6200015f7fe865e85b076245a187a9d3cc15c47264cd0b46df4afd899817bd2e16523485ae82600062000744565b60405173ffffffffffffffffffffffffffffffffffffffff8216907f28317433899949685555e66b241abf2af0c690877feb08f51efa20604c5e443490600090a250565b60606000620001d47fe865e85b076245a187a9d3cc15c47264cd0b46df4afd899817bd2e16523485af85856200092d565b915091509250929050565b6040517fa230c524000000000000000000000000000000000000000000000000000000008152336004820181905290309063a230c52490602401602060405180830381865afa15801562000237573d6000803e3d6000fd5b505050506040513d601f19601f820116820180604052508101906200025d919062000de6565b620002ad576040517fb8c6719e00000000000000000000000000000000000000000000000000000000815273ffffffffffffffffffffffffffffffffffffffff8216600482015260240162000128565b6040517fdd62ed3e00000000000000000000000000000000000000000000000000000000815233600482015230602482015260009073ffffffffffffffffffffffffffffffffffffffff87169063dd62ed3e90604401602060405180830381865afa15801562000321573d6000803e3d6000fd5b505050506040513d601f19601f8201168201806040525081019062000347919062000e0a565b90508481101562000394576200035e818662000e53565b6040517fcb78cce20000000000000000000000000000000000000000000000000000000081526004016200012891815260200190565b60006040518060e001604052803373ffffffffffffffffffffffffffffffffffffffff1681526020013073ffffffffffffffffffffffffffffffffffffffff1663a63234e06040518163ffffffff1660e01b8152600401602060405180830381865afa15801562000409573d6000803e3d6000fd5b505050506040513d601f19601f820116820180604052508101906200042f919062000e6d565b73ffffffffffffffffffffffffffffffffffffffff1681526020013073ffffffffffffffffffffffffffffffffffffffff1681526020018873ffffffffffffffffffffffffffffffffffffffff16815260200186815260200187815260200185815250604051620004a09062000bdf565b620004ac919062000e8d565b604051809103906000f080158015620004c9573d6000803e3d6000fd5b509050620004fa7fe865e85b076245a187a9d3cc15c47264cd0b46df4afd899817bd2e16523485ae82600062000a64565b6040517f23b872dd00000000000000000000000000000000000000000000000000000000815233600482015273ffffffffffffffffffffffffffffffffffffffff8281166024830152604482018890528816906323b872dd906064016020604051808303816000875af115801562000576573d6000803e3d6000fd5b505050506040513d601f19601f820116820180604052508101906200059c919062000de6565b620005d3576040517f65edbc9100000000000000000000000000000000000000000000000000000000815260040160405180910390fd5b8073ffffffffffffffffffffffffffffffffffffffff166340ea2c986040518163ffffffff1660e01b8152600401600060405180830381600087803b1580156200061c57600080fd5b505af115801562000631573d6000803e3d6000fd5b505060405173ffffffffffffffffffffffffffffffffffffffff841692507f15b37087a94256af50a718155a21819a86e5c016f741e06074455fbc02fb54269150600090a250505050505050565b60007f80c187ea6f955fd624c41fb7a18011cc87d98c6f4c06d897b59142f65707e705546040517fa230c52400000000000000000000000000000000000000000000000000000000815273ffffffffffffffffffffffffffffffffffffffff8481166004830152620100009092049091169063a230c52490602401602060405180830381865afa15801562000718573d6000803e3d6000fd5b505050506040513d601f19601f820116820180604052508101906200073e919062000de6565b92915050565b600062000752848462000b5e565b905081801562000760575080155b156200076c5750505050565b80620007d5576040517f08c379a000000000000000000000000000000000000000000000000000000000815260206004820152601d60248201527f4164647265737320646f6573206e6f7420657869737420696e20736574000000604482015260640162000128565b60018085018054600092620007ea9162000e53565b81548110620007fd57620007fd62000f69565b600091825260208083209091015473ffffffffffffffffffffffffffffffffffffffff8781168452918890526040808420549290911680845292208190556001870180549293509091839190839081106200085c576200085c62000f69565b600091825260208083209190910180547fffffffffffffffffffffffff00000000000000000000000000000000000000001673ffffffffffffffffffffffffffffffffffffffff948516179055918716815290879052604081205560018601805480620008cd57620008cd62000f98565b60008281526020902081017fffffffffffffffffffffffffffffffffffffffffffffffffffffffffffffffff90810180547fffffffffffffffffffffffff0000000000000000000000000000000000000000169055019055505050505050565b606060008084868054905062000944919062000e53565b841162000952578362000961565b85546200096190869062000e53565b905060008167ffffffffffffffff81111562000981576200098162000cb6565b604051908082528060200260200182016040528015620009ab578160200160208202803683370190505b50905060005b8281101562000a485787620009c7828962000fc7565b81548110620009da57620009da62000f69565b9060005260206000200160009054906101000a900473ffffffffffffffffffffffffffffffffffffffff1682828151811062000a1a5762000a1a62000f69565b73ffffffffffffffffffffffffffffffffffffffff90921660209283029190910190910152600101620009b1565b508062000a56838862000fc7565b935093505050935093915050565b600062000a72848462000b5e565b905081801562000a7f5750805b1562000a8b5750505050565b801562000af5576040517f08c379a000000000000000000000000000000000000000000000000000000000815260206004820152601660248201527f4164647265737320616c726561647920696e2073657400000000000000000000604482015260640162000128565b50506001808301805473ffffffffffffffffffffffffffffffffffffffff909316600081815260209586526040812085905592840182559082529290200180547fffffffffffffffffffffffff0000000000000000000000000000000000000000169091179055565b60018201546000901562000bd55773ffffffffffffffffffffffffffffffffffffffff8216600081815260208590526040902054600185018054909190811062000bac5762000bac62000f69565b60009182526020909120015473ffffffffffffffffffffffffffffffffffffffff161462000bd8565b60005b9392505050565b6125e68062000fe383390190565b73ffffffffffffffffffffffffffffffffffffffff8116811462000c1057600080fd5b50565b60006020828403121562000c2657600080fd5b813562000bd88162000bed565b6000806040838503121562000c4757600080fd5b50508035926020909101359150565b604080825283519082018190526000906020906060840190828701845b8281101562000ca757815173ffffffffffffffffffffffffffffffffffffffff168452928401929084019060010162000c73565b50505092019290925292915050565b7f4e487b7100000000000000000000000000000000000000000000000000000000600052604160045260246000fd5b6000806000806080858703121562000cfc57600080fd5b843562000d098162000bed565b93506020850135925060408501359150606085013567ffffffffffffffff8082111562000d3557600080fd5b818701915087601f83011262000d4a57600080fd5b81358181111562000d5f5762000d5f62000cb6565b604051601f82017fffffffffffffffffffffffffffffffffffffffffffffffffffffffffffffffe0908116603f0116810190838211818310171562000da85762000da862000cb6565b816040528281528a602084870101111562000dc257600080fd5b82602086016020830137600060208483010152809550505050505092959194509250565b60006020828403121562000df957600080fd5b8151801515811462000bd857600080fd5b60006020828403121562000e1d57600080fd5b5051919050565b7f4e487b7100000000000000000000000000000000000000000000000000000000600052601160045260246000fd5b60008282101562000e685762000e6862000e24565b500390565b60006020828403121562000e8057600080fd5b815162000bd88162000bed565b6000602080835273ffffffffffffffffffffffffffffffffffffffff8085511682850152808286015116604085015280604086015116606085015280606086015116608085015250608084015160a084015260a084015160c084015260c084015160e08085015280518061010086015260005b8181101562000f1f578281018401518682016101200152830162000f00565b8181111562000f3357600061012083880101525b50601f017fffffffffffffffffffffffffffffffffffffffffffffffffffffffffffffffe0169390930161012001949350505050565b7f4e487b7100000000000000000000000000000000000000000000000000000000600052603260045260246000fd5b7f4e487b7100000000000000000000000000000000000000000000000000000000600052603160045260246000fd5b6000821982111562000fdd5762000fdd62000e24565b50019056fe60806040526007805460ff191690553480156200001b57600080fd5b50604051620025e6380380620025e68339810160408190526200003e91620002eb565b4381608001511062000084576040516319cbe44b60e01b815260206004820152600a6024820152690c4d8dec6d698c2e8c6d60b31b604482015260640160405180910390fd5b8051600080546001600160a01b03199081166001600160a01b0393841617825560208085015160018054841691861691909117905560408501516002805484169186169190911790556060850151600380549093169416939093179055608083015160045560a083015160055560c0830151805184936200010b926006929101906200011f565b50505060a00151600a5543600855620003fc565b8280546200012d90620003bf565b90600052602060002090601f0160209004810192826200015157600085556200019c565b82601f106200016c57805160ff19168380011785556200019c565b828001600101855582156200019c579182015b828111156200019c5782518255916020019190600101906200017f565b50620001aa929150620001ae565b5090565b5b80821115620001aa5760008155600101620001af565b634e487b7160e01b600052604160045260246000fd5b60405160e081016001600160401b0381118282101715620002005762000200620001c5565b60405290565b604051601f8201601f191681016001600160401b0381118282101715620002315762000231620001c5565b604052919050565b80516001600160a01b03811681146200025157600080fd5b919050565b600082601f8301126200026857600080fd5b81516001600160401b03811115620002845762000284620001c5565b60206200029a601f8301601f1916820162000206565b8281528582848701011115620002af57600080fd5b60005b83811015620002cf578581018301518282018401528201620002b2565b83811115620002e15760008385840101525b5095945050505050565b600060208284031215620002fe57600080fd5b81516001600160401b03808211156200031657600080fd5b9083019060e082860312156200032b57600080fd5b62000335620001db565b620003408362000239565b8152620003506020840162000239565b6020820152620003636040840162000239565b6040820152620003766060840162000239565b60608201526080830151608082015260a083015160a082015260c083015182811115620003a257600080fd5b620003b08782860162000256565b60c08301525095945050505050565b600181811c90821680620003d457607f821691505b60208210811415620003f657634e487b7160e01b600052602260045260246000fd5b50919050565b6121da806200040c6000396000f3fe608060405234801561001057600080fd5b506004361061011a5760003560e01c8063a9610655116100b2578063ddca3f4311610081578063fb67537d11610066578063fb67537d14610235578063ffa1ad7414610255578063ffa1cead1461027057600080fd5b8063ddca3f4314610224578063e91a3a1b1461022d57600080fd5b8063a9610655146101c9578063b1c9fe6e146101dc578063c76a890c146101f6578063cff0ab961461020957600080fd5b806348a0d754116100ee57806348a0d7541461017257806351cff8d91461017b5780636ef610921461018e578063734b2a7c146101c157600080fd5b80622bda361461011f5780630c08bf8814610149578063176345141461015357806340ea2c981461016a575b600080fd5b61013261012d366004611c89565b610283565b604051610140929190611cab565b60405180910390f35b61015161029f565b005b61015c60085481565b604051908152602001610140565b61015161060f565b61015c600a5481565b610151610189366004611d32565b610834565b6101b161019c366004611d32565b600e6020526000908152604090205460ff1681565b6040519015158152602001610140565b600c5461015c565b6101516101d7366004611d92565b610aba565b6007546101e99060ff1681565b6040516101409190611e2d565b610151610204366004611e9d565b610f18565b6102116111c2565b6040516101409796959493929190611f80565b61015c60095481565b61015161128f565b61015c610243366004611d32565b600d6020526000908152604090205481565b61025d600381565b60405161ffff9091168152602001610140565b61015161027e366004612040565b6115de565b60606000610293600c8585611820565b915091505b9250929050565b6001546040517fa230c52400000000000000000000000000000000000000000000000000000000815233600482015273ffffffffffffffffffffffffffffffffffffffff9091169063a230c52490602401602060405180830381865afa15801561030d573d6000803e3d6000fd5b505050506040513d601f19601f820116820180604052508101906103319190612059565b1580156103d45750600280546040517f617b0b9d000000000000000000000000000000000000000000000000000000008152336004820152602481019290925273ffffffffffffffffffffffffffffffffffffffff169063617b0b9d90604401602060405180830381865afa1580156103ae573d6000803e3d6000fd5b505050506040513d601f19601f820116820180604052508101906103d29190612059565b155b1561040b576040517f69cd62ef00000000000000000000000000000000000000000000000000000000815260040160405180910390fd5b60075460049060ff168181111561042457610424611dfe565b81600481111561043657610436611dfe565b141561046e576040517f9a36fd9c00000000000000000000000000000000000000000000000000000000815260040160405180910390fd5b600780547fffffffffffffffffffffffffffffffffffffffffffffffffffffffffffffff001660049081179091556040517f55bc76655fa95a7bc9068ab071cd51430123d180c791be8584b21c98e33c8aa5916104ca91611e2d565b60405180910390a16000600a81905560035490546040517f70a0823100000000000000000000000000000000000000000000000000000000815230600482015273ffffffffffffffffffffffffffffffffffffffff9283169263a9059cbb92169083906370a0823190602401602060405180830381865afa158015610553573d6000803e3d6000fd5b505050506040513d601f19601f82011682018060405250810190610577919061207b565b6040517fffffffff0000000000000000000000000000000000000000000000000000000060e085901b16815273ffffffffffffffffffffffffffffffffffffffff909216600483015260248201526044016020604051808303816000875af11580156105e7573d6000803e3d6000fd5b505050506040513d601f19601f8201168201806040525081019061060b9190612059565b5050565b60075460009060ff16600481111561062957610629611dfe565b81600481111561063b5761063b611dfe565b14610672576040517f9a36fd9c00000000000000000000000000000000000000000000000000000000815260040160405180910390fd5b60025473ffffffffffffffffffffffffffffffffffffffff1633146106c3576040517f739e0d5700000000000000000000000000000000000000000000000000000000815260040160405180910390fd5b6003546040517f70a0823100000000000000000000000000000000000000000000000000000000815230600482015260009173ffffffffffffffffffffffffffffffffffffffff16906370a0823190602401602060405180830381865afa158015610732573d6000803e3d6000fd5b505050506040513d601f19601f82011682018060405250810190610756919061207b565b60055490915081146107c9576040517f19cbe44b00000000000000000000000000000000000000000000000000000000815260206004820152600760248201527f62616c616e63650000000000000000000000000000000000000000000000000060448201526064015b60405180910390fd5b600780547f55bc76655fa95a7bc9068ab071cd51430123d180c791be8584b21c98e33c8aa5916001917fffffffffffffffffffffffffffffffffffffffffffffffffffffffffffffff001682805b021790556040516108289190611e2d565b60405180910390a15050565b60075460039060ff16600481111561084e5761084e611dfe565b81600481111561086057610860611dfe565b14610897576040517f9a36fd9c00000000000000000000000000000000000000000000000000000000815260040160405180910390fd5b6108a2600b83611941565b6108f0576040517ffce398aa00000000000000000000000000000000000000000000000000000000815273ffffffffffffffffffffffffffffffffffffffff831660048201526024016107c0565b73ffffffffffffffffffffffffffffffffffffffff82166000908152600e602052604090205460ff1615610950576040517f357d0cc400000000000000000000000000000000000000000000000000000000815260040160405180910390fd5b73ffffffffffffffffffffffffffffffffffffffff8281166000818152600d6020908152604080832054600e9092529182902080547fffffffffffffffffffffffffffffffffffffffffffffffffffffffffffffff0016600117905560035491517fa9059cbb00000000000000000000000000000000000000000000000000000000815260048101939093526024830181905292169063a9059cbb906044016020604051808303816000875af1158015610a0e573d6000803e3d6000fd5b505050506040513d601f19601f82011682018060405250810190610a329190612059565b610a68576040517f65edbc9100000000000000000000000000000000000000000000000000000000815260040160405180910390fd5b60405181815273ffffffffffffffffffffffffffffffffffffffff84169033907f2717ead6b9200dd235aad468c9809ea400fe33ac69b5bfaa6d3e90fc922b63989060200160405180910390a3505050565b60075460029060ff166004811115610ad457610ad4611dfe565b816004811115610ae657610ae6611dfe565b14610b1d576040517f9a36fd9c00000000000000000000000000000000000000000000000000000000815260040160405180910390fd5b6001546040517fa230c52400000000000000000000000000000000000000000000000000000000815233600482015273ffffffffffffffffffffffffffffffffffffffff9091169063a230c52490602401602060405180830381865afa158015610b8b573d6000803e3d6000fd5b505050506040513d601f19601f82011682018060405250810190610baf9190612059565b158015610c525750600280546040517f617b0b9d000000000000000000000000000000000000000000000000000000008152336004820152602481019290925273ffffffffffffffffffffffffffffffffffffffff169063617b0b9d90604401602060405180830381865afa158015610c2c573d6000803e3d6000fd5b505050506040513d601f19601f82011682018060405250810190610c509190612059565b155b15610c89576040517f69cd62ef00000000000000000000000000000000000000000000000000000000815260040160405180910390fd5b838214610cf2576040517f19cbe44b00000000000000000000000000000000000000000000000000000000815260206004820152600760248201527f6c656e677468730000000000000000000000000000000000000000000000000060448201526064016107c0565b6000805b85811015610eba576000878783818110610d1257610d12612094565b9050602002016020810190610d279190611d32565b90506000868684818110610d3d57610d3d612094565b6002546040517fa230c52400000000000000000000000000000000000000000000000000000000815273ffffffffffffffffffffffffffffffffffffffff878116600483015260209390930294909401359450169163a230c5249150602401602060405180830381865afa158015610db9573d6000803e3d6000fd5b505050506040513d601f19601f82011682018060405250810190610ddd9190612059565b610e2b576040517fb8c6719e00000000000000000000000000000000000000000000000000000000815273ffffffffffffffffffffffffffffffffffffffff831660048201526024016107c0565b610e38600b8360006119bd565b73ffffffffffffffffffffffffffffffffffffffff82166000908152600d60205260409020819055610e6a81856120f2565b9350808273ffffffffffffffffffffffffffffffffffffffff167fe6b83177f11971ba30369bb38b914ffba97d5969a3c857b286fa8fdbb150b3ba60405160405180910390a35050600101610cf6565b5080600a541015610f0757600a54610ed2908261210a565b6040517fcb78cce20000000000000000000000000000000000000000000000000000000081526004016107c091815260200190565b600a80549190910390555050505050565b60075460029060ff166004811115610f3257610f32611dfe565b816004811115610f4457610f44611dfe565b14610f7b576040517f9a36fd9c00000000000000000000000000000000000000000000000000000000815260040160405180910390fd5b6001546040517fa230c52400000000000000000000000000000000000000000000000000000000815233600482015273ffffffffffffffffffffffffffffffffffffffff9091169063a230c52490602401602060405180830381865afa158015610fe9573d6000803e3d6000fd5b505050506040513d601f19601f8201168201806040525081019061100d9190612059565b1580156110b05750600280546040517f617b0b9d000000000000000000000000000000000000000000000000000000008152336004820152602481019290925273ffffffffffffffffffffffffffffffffffffffff169063617b0b9d90604401602060405180830381865afa15801561108a573d6000803e3d6000fd5b505050506040513d601f19601f820116820180604052508101906110ae9190612059565b155b156110e7576040517f69cd62ef00000000000000000000000000000000000000000000000000000000815260040160405180910390fd5b60005b82518110156111bd57600083828151811061110757611107612094565b60200260200101519050611128816000600b611ab19092919063ffffffff16565b73ffffffffffffffffffffffffffffffffffffffff81166000908152600d6020526040812054600a8054919290916111619084906120f2565b909155505073ffffffffffffffffffffffffffffffffffffffff81166000818152600d6020526040808220829055517f72977dad29432f655f11c2f0e72ef5124bb9ade7a512fb7a43a9f504df2234289190a2506001016110ea565b505050565b600080546001546002546003546004546005546006805473ffffffffffffffffffffffffffffffffffffffff97881698968816979586169694909516949293919261120c90612121565b80601f016020809104026020016040519081016040528092919081815260200182805461123890612121565b80156112855780601f1061125a57610100808354040283529160200191611285565b820191906000526020600020905b81548152906001019060200180831161126857829003601f168201915b5050505050905087565b60075460029060ff1660048111156112a9576112a9611dfe565b8160048111156112bb576112bb611dfe565b146112f2576040517f9a36fd9c00000000000000000000000000000000000000000000000000000000815260040160405180910390fd5b6001546040517fa230c52400000000000000000000000000000000000000000000000000000000815233600482015273ffffffffffffffffffffffffffffffffffffffff9091169063a230c52490602401602060405180830381865afa158015611360573d6000803e3d6000fd5b505050506040513d601f19601f820116820180604052508101906113849190612059565b1580156114275750600280546040517f617b0b9d000000000000000000000000000000000000000000000000000000008152336004820152602481019290925273ffffffffffffffffffffffffffffffffffffffff169063617b0b9d90604401602060405180830381865afa158015611401573d6000803e3d6000fd5b505050506040513d601f19601f820116820180604052508101906114259190612059565b155b1561145e576040517f69cd62ef00000000000000000000000000000000000000000000000000000000815260040160405180910390fd5b600a541561149e57600a546040517f7a1b34be0000000000000000000000000000000000000000000000000000000081526004016107c091815260200190565b6003546001546009546040517fa9059cbb00000000000000000000000000000000000000000000000000000000815273ffffffffffffffffffffffffffffffffffffffff9283166004820152602481019190915291169063a9059cbb906044016020604051808303816000875af115801561151d573d6000803e3d6000fd5b505050506040513d601f19601f820116820180604052508101906115419190612059565b611577576040517f65edbc9100000000000000000000000000000000000000000000000000000000815260040160405180910390fd5b600780547fffffffffffffffffffffffffffffffffffffffffffffffffffffffffffffff001660039081179091556040517f55bc76655fa95a7bc9068ab071cd51430123d180c791be8584b21c98e33c8aa5916115d391611e2d565b60405180910390a150565b60075460019060ff1660048111156115f8576115f8611dfe565b81600481111561160a5761160a611dfe565b14611641576040517f9a36fd9c00000000000000000000000000000000000000000000000000000000815260040160405180910390fd5b6001546040517fa230c52400000000000000000000000000000000000000000000000000000000815233600482015273ffffffffffffffffffffffffffffffffffffffff9091169063a230c52490602401602060405180830381865afa1580156116af573d6000803e3d6000fd5b505050506040513d601f19601f820116820180604052508101906116d39190612059565b1580156117765750600280546040517f617b0b9d000000000000000000000000000000000000000000000000000000008152336004820152602481019290925273ffffffffffffffffffffffffffffffffffffffff169063617b0b9d90604401602060405180830381865afa158015611750573d6000803e3d6000fd5b505050506040513d601f19601f820116820180604052508101906117749190612059565b155b156117ad576040517f69cd62ef00000000000000000000000000000000000000000000000000000000815260040160405180910390fd5b81600981905550600954600a60008282546117c8919061210a565b9091555050600780547f55bc76655fa95a7bc9068ab071cd51430123d180c791be8584b21c98e33c8aa5916002917fffffffffffffffffffffffffffffffffffffffffffffffffffffffffffffff0016600183610817565b6060600080848680549050611835919061210a565b8411611841578361184e565b855461184e90869061210a565b905060008167ffffffffffffffff81111561186b5761186b611e6e565b604051908082528060200260200182016040528015611894578160200160208202803683370190505b50905060005b8281101561192757876118ad82896120f2565b815481106118bd576118bd612094565b9060005260206000200160009054906101000a900473ffffffffffffffffffffffffffffffffffffffff168282815181106118fa576118fa612094565b73ffffffffffffffffffffffffffffffffffffffff9092166020928302919091019091015260010161189a565b508061193383886120f2565b935093505050935093915050565b6001820154600090156119b35773ffffffffffffffffffffffffffffffffffffffff8216600081815260208590526040902054600185018054909190811061198b5761198b612094565b60009182526020909120015473ffffffffffffffffffffffffffffffffffffffff16146119b6565b60005b9392505050565b60006119c98484611941565b90508180156119d55750805b156119e05750505050565b8015611a48576040517f08c379a000000000000000000000000000000000000000000000000000000000815260206004820152601660248201527f4164647265737320616c726561647920696e207365740000000000000000000060448201526064016107c0565b50506001808301805473ffffffffffffffffffffffffffffffffffffffff909316600081815260209586526040812085905592840182559082529290200180547fffffffffffffffffffffffff0000000000000000000000000000000000000000169091179055565b6000611abd8484611941565b9050818015611aca575080155b15611ad55750505050565b80611b3c576040517f08c379a000000000000000000000000000000000000000000000000000000000815260206004820152601d60248201527f4164647265737320646f6573206e6f7420657869737420696e2073657400000060448201526064016107c0565b60018085018054600092611b4f9161210a565b81548110611b5f57611b5f612094565b600091825260208083209091015473ffffffffffffffffffffffffffffffffffffffff878116845291889052604080842054929091168084529220819055600187018054929350909183919083908110611bbb57611bbb612094565b600091825260208083209190910180547fffffffffffffffffffffffff00000000000000000000000000000000000000001673ffffffffffffffffffffffffffffffffffffffff948516179055918716815290879052604081205560018601805480611c2957611c29612175565b60008281526020902081017fffffffffffffffffffffffffffffffffffffffffffffffffffffffffffffffff90810180547fffffffffffffffffffffffff0000000000000000000000000000000000000000169055019055505050505050565b60008060408385031215611c9c57600080fd5b50508035926020909101359150565b604080825283519082018190526000906020906060840190828701845b82811015611cfa57815173ffffffffffffffffffffffffffffffffffffffff1684529284019290840190600101611cc8565b50505092019290925292915050565b803573ffffffffffffffffffffffffffffffffffffffff81168114611d2d57600080fd5b919050565b600060208284031215611d4457600080fd5b6119b682611d09565b60008083601f840112611d5f57600080fd5b50813567ffffffffffffffff811115611d7757600080fd5b6020830191508360208260051b850101111561029857600080fd5b60008060008060408587031215611da857600080fd5b843567ffffffffffffffff80821115611dc057600080fd5b611dcc88838901611d4d565b90965094506020870135915080821115611de557600080fd5b50611df287828801611d4d565b95989497509550505050565b7f4e487b7100000000000000000000000000000000000000000000000000000000600052602160045260246000fd5b6020810160058310611e68577f4e487b7100000000000000000000000000000000000000000000000000000000600052602160045260246000fd5b91905290565b7f4e487b7100000000000000000000000000000000000000000000000000000000600052604160045260246000fd5b60006020808385031215611eb057600080fd5b823567ffffffffffffffff80821115611ec857600080fd5b818501915085601f830112611edc57600080fd5b813581811115611eee57611eee611e6e565b8060051b6040517fffffffffffffffffffffffffffffffffffffffffffffffffffffffffffffffe0603f83011681018181108582111715611f3157611f31611e6e565b604052918252848201925083810185019188831115611f4f57600080fd5b938501935b82851015611f7457611f6585611d09565b84529385019392850192611f54565b98975050505050505050565b600073ffffffffffffffffffffffffffffffffffffffff808a1683526020818a1681850152818916604085015281881660608501528660808501528560a085015260e060c0850152845191508160e085015260005b82811015611ff25785810182015185820161010001528101611fd5565b8281111561200557600061010084870101525b5050601f017fffffffffffffffffffffffffffffffffffffffffffffffffffffffffffffffe016919091016101000198975050505050505050565b60006020828403121561205257600080fd5b5035919050565b60006020828403121561206b57600080fd5b815180151581146119b657600080fd5b60006020828403121561208d57600080fd5b5051919050565b7f4e487b7100000000000000000000000000000000000000000000000000000000600052603260045260246000fd5b7f4e487b7100000000000000000000000000000000000000000000000000000000600052601160045260246000fd5b60008219821115612105576121056120c3565b500190565b60008282101561211c5761211c6120c3565b500390565b600181811c9082168061213557607f821691505b6020821081141561216f577f4e487b7100000000000000000000000000000000000000000000000000000000600052602260045260246000fd5b50919050565b7f4e487b7100000000000000000000000000000000000000000000000000000000600052603160045260246000fdfea26469706673582212207c6c94b14f307484e55a9595c5234131cc776cc4ed87861c19ecd44e3dc7ce2f64736f6c634300080a0033a2646970667358221220c9642e43d3ec739480f87af2eb07254edac911eab5dc2fdc37d157ab133605bd64736f6c634300080a0033",
  "linkReferences": {},
  "deployedLinkReferences": {}
}