{
  "_format": "hh-sol-artifact-1",
  "contractName": "FastToken",
  "sourceName": "contracts/FastToken.sol",
  "abi": [
    {
      "anonymous": false,
      "inputs": [
        {
          "indexed": true,
          "internalType": "address",
          "name": "owner",
          "type": "address"
        },
        {
          "indexed": true,
          "internalType": "address",
          "name": "spender",
          "type": "address"
        },
        {
          "indexed": false,
          "internalType": "uint256",
          "name": "value",
          "type": "uint256"
        }
      ],
      "name": "Approval",
      "type": "event"
    },
    {
      "anonymous": false,
      "inputs": [
        {
          "indexed": false,
          "internalType": "uint8",
          "name": "version",
          "type": "uint8"
        }
      ],
      "name": "Initialized",
      "type": "event"
    },
    {
      "anonymous": false,
      "inputs": [
        {
          "indexed": true,
          "internalType": "address",
          "name": "from",
          "type": "address"
        },
        {
          "indexed": true,
          "internalType": "address",
          "name": "to",
          "type": "address"
        },
        {
          "indexed": false,
          "internalType": "uint256",
          "name": "value",
          "type": "uint256"
        }
      ],
      "name": "Transfer",
      "type": "event"
    },
    {
      "inputs": [
        {
          "internalType": "uint256",
          "name": "_amount",
          "type": "uint256"
        }
      ],
      "name": "addTransferCredits",
      "outputs": [
        {
          "internalType": "bool",
          "name": "",
          "type": "bool"
        }
      ],
      "stateMutability": "nonpayable",
      "type": "function"
    },
    {
      "inputs": [
        {
          "internalType": "address",
          "name": "owner",
          "type": "address"
        },
        {
          "internalType": "address",
          "name": "spender",
          "type": "address"
        }
      ],
      "name": "allowance",
      "outputs": [
        {
          "internalType": "uint256",
          "name": "",
          "type": "uint256"
        }
      ],
      "stateMutability": "view",
      "type": "function"
    },
    {
      "inputs": [
        {
          "internalType": "address",
          "name": "",
          "type": "address"
        },
        {
          "internalType": "address",
          "name": "",
          "type": "address"
        }
      ],
      "name": "allowances",
      "outputs": [
        {
          "internalType": "uint256",
          "name": "",
          "type": "uint256"
        }
      ],
      "stateMutability": "view",
      "type": "function"
    },
    {
      "inputs": [
        {
          "internalType": "address",
          "name": "spender",
          "type": "address"
        },
        {
          "internalType": "uint256",
          "name": "amount",
          "type": "uint256"
        }
      ],
      "name": "approve",
      "outputs": [
        {
          "internalType": "bool",
          "name": "",
          "type": "bool"
        }
      ],
      "stateMutability": "nonpayable",
      "type": "function"
    },
    {
      "inputs": [
        {
          "internalType": "address",
          "name": "owner",
          "type": "address"
        }
      ],
      "name": "balanceOf",
      "outputs": [
        {
          "internalType": "uint256",
          "name": "",
          "type": "uint256"
        }
      ],
      "stateMutability": "view",
      "type": "function"
    },
    {
      "inputs": [
        {
          "internalType": "address",
          "name": "",
          "type": "address"
        }
      ],
      "name": "balances",
      "outputs": [
        {
          "internalType": "uint256",
          "name": "",
          "type": "uint256"
        }
      ],
      "stateMutability": "view",
      "type": "function"
    },
    {
      "inputs": [],
      "name": "decimals",
      "outputs": [
        {
          "internalType": "uint256",
          "name": "",
          "type": "uint256"
        }
      ],
      "stateMutability": "view",
      "type": "function"
    },
    {
      "inputs": [
        {
          "internalType": "address",
          "name": "from",
          "type": "address"
        },
        {
          "internalType": "address",
          "name": "to",
          "type": "address"
        },
        {
          "internalType": "uint256",
          "name": "amount",
          "type": "uint256"
        }
      ],
      "name": "detectTransferRestriction",
      "outputs": [
        {
          "internalType": "uint8",
          "name": "",
          "type": "uint8"
        }
      ],
      "stateMutability": "view",
      "type": "function"
    },
    {
      "inputs": [],
      "name": "drainTransferCredits",
      "outputs": [
        {
          "internalType": "bool",
          "name": "",
          "type": "bool"
        }
      ],
      "stateMutability": "nonpayable",
      "type": "function"
    },
    {
      "inputs": [],
      "name": "hasFixedSupply",
      "outputs": [
        {
          "internalType": "bool",
          "name": "",
          "type": "bool"
        }
      ],
      "stateMutability": "view",
      "type": "function"
    },
    {
      "inputs": [
        {
          "internalType": "contract FastRegistry",
          "name": "_reg",
          "type": "address"
        },
        {
          "internalType": "string",
          "name": "_name",
          "type": "string"
        },
        {
          "internalType": "string",
          "name": "_symbol",
          "type": "string"
        },
        {
          "internalType": "uint256",
          "name": "_decimals",
          "type": "uint256"
        },
        {
          "internalType": "bool",
          "name": "_hasFixedSupply",
          "type": "bool"
        }
      ],
      "name": "initialize",
      "outputs": [],
      "stateMutability": "nonpayable",
      "type": "function"
    },
    {
      "inputs": [
        {
          "internalType": "uint8",
          "name": "restrictionCode",
          "type": "uint8"
        }
      ],
      "name": "messageForTransferRestriction",
      "outputs": [
        {
          "internalType": "string",
          "name": "",
          "type": "string"
        }
      ],
      "stateMutability": "pure",
      "type": "function"
    },
    {
      "inputs": [
        {
          "internalType": "uint256",
          "name": "amount",
          "type": "uint256"
        },
        {
          "internalType": "string",
          "name": "ref",
          "type": "string"
        }
      ],
      "name": "mint",
      "outputs": [
        {
          "internalType": "bool",
          "name": "",
          "type": "bool"
        }
      ],
      "stateMutability": "nonpayable",
      "type": "function"
    },
    {
      "inputs": [],
      "name": "name",
      "outputs": [
        {
          "internalType": "string",
          "name": "",
          "type": "string"
        }
      ],
      "stateMutability": "view",
      "type": "function"
    },
    {
      "inputs": [],
      "name": "reg",
      "outputs": [
        {
          "internalType": "contract FastRegistry",
          "name": "",
          "type": "address"
        }
      ],
      "stateMutability": "view",
      "type": "function"
    },
    {
      "inputs": [
        {
          "internalType": "bool",
          "name": "_hasFixedSupply",
          "type": "bool"
        }
      ],
      "name": "setHasFixedSupply",
      "outputs": [
        {
          "internalType": "bool",
          "name": "",
          "type": "bool"
        }
      ],
      "stateMutability": "nonpayable",
      "type": "function"
    },
    {
      "inputs": [],
      "name": "symbol",
      "outputs": [
        {
          "internalType": "string",
          "name": "",
          "type": "string"
        }
      ],
      "stateMutability": "view",
      "type": "function"
    },
    {
      "inputs": [],
      "name": "totalSupply",
      "outputs": [
        {
          "internalType": "uint256",
          "name": "",
          "type": "uint256"
        }
      ],
      "stateMutability": "view",
      "type": "function"
    },
    {
      "inputs": [
        {
          "internalType": "address",
          "name": "to",
          "type": "address"
        },
        {
          "internalType": "uint256",
          "name": "amount",
          "type": "uint256"
        }
      ],
      "name": "transfer",
      "outputs": [
        {
          "internalType": "bool",
          "name": "",
          "type": "bool"
        }
      ],
      "stateMutability": "nonpayable",
      "type": "function"
    },
    {
      "inputs": [],
      "name": "transferCredits",
      "outputs": [
        {
          "internalType": "uint256",
          "name": "",
          "type": "uint256"
        }
      ],
      "stateMutability": "view",
      "type": "function"
    },
    {
      "inputs": [
        {
          "internalType": "address",
          "name": "from",
          "type": "address"
        },
        {
          "internalType": "address",
          "name": "to",
          "type": "address"
        },
        {
          "internalType": "uint256",
          "name": "amount",
          "type": "uint256"
        }
      ],
      "name": "transferFrom",
      "outputs": [
        {
          "internalType": "bool",
          "name": "",
          "type": "bool"
        }
      ],
      "stateMutability": "nonpayable",
      "type": "function"
    },
    {
      "inputs": [
        {
          "internalType": "address",
          "name": "from",
          "type": "address"
        },
        {
          "internalType": "address",
          "name": "to",
          "type": "address"
        },
        {
          "internalType": "uint256",
          "name": "amount",
          "type": "uint256"
        },
        {
          "internalType": "string",
          "name": "ref",
          "type": "string"
        }
      ],
      "name": "transferFromWithRef",
      "outputs": [
        {
          "internalType": "bool",
          "name": "",
          "type": "bool"
        }
      ],
      "stateMutability": "nonpayable",
      "type": "function"
    },
    {
      "inputs": [
        {
          "internalType": "address",
          "name": "to",
          "type": "address"
        },
        {
          "internalType": "uint256",
          "name": "amount",
          "type": "uint256"
        },
        {
          "internalType": "string",
          "name": "ref",
          "type": "string"
        }
      ],
      "name": "transferWithRef",
      "outputs": [
        {
          "internalType": "bool",
          "name": "",
          "type": "bool"
        }
      ],
      "stateMutability": "nonpayable",
      "type": "function"
    }
  ],
  "bytecode": "0x608060405234801561001057600080fd5b50613784806100206000396000f3fe608060405234801561001057600080fd5b506004361061014d5760003560e01c806370a08231116100c3578063c485bb961161007c578063c485bb9614610402578063d4ce141514610432578063dd62ed3e14610462578063ddb2d22b14610492578063ddee550c146104b0578063e8edd0e3146104ce5761014d565b806370a0823114610306578063738fdd1a1461033657806377097fc8146103545780637f4ab1dd1461038457806395d89b41146103b4578063a9059cbb146103d25761014d565b8063296a24f111610115578063296a24f11461021e578063300059161461023a578063313ce5671461026a57806344ce66da1461028857806355b6ed5c146102b85780636ba09c5c146102e85761014d565b806306fdde0314610152578063095ea7b31461017057806318160ddd146101a057806323b872dd146101be57806327e235e3146101ee575b600080fd5b61015a6104fe565b604051610167919061309f565b60405180910390f35b61018a60048036038101906101859190612b94565b61058c565b604051610197919061304e565b60405180910390f35b6101a8610857565b6040516101b591906131a1565b60405180910390f35b6101d860048036038101906101d39190612aca565b61085d565b6040516101e5919061304e565b60405180910390f35b61020860048036038101906102039190612a65565b6108a9565b60405161021591906131a1565b60405180910390f35b61023860048036038101906102339190612c89565b6108c1565b005b610254600480360381019061024f9190612dab565b610a10565b604051610261919061304e565b60405180910390f35b610272610b9d565b60405161027f91906131a1565b60405180910390f35b6102a2600480360381019061029d9190612c37565b610ba3565b6040516102af919061304e565b60405180910390f35b6102d260048036038101906102cd9190612a8e565b610d31565b6040516102df91906131a1565b60405180910390f35b6102f0610d56565b6040516102fd91906131a1565b60405180910390f35b610320600480360381019061031b9190612a65565b610d5c565b60405161032d91906131a1565b60405180910390f35b61033e610da5565b60405161034b9190613069565b60405180910390f35b61036e60048036038101906103699190612dd4565b610dcb565b60405161037b919061304e565b60405180910390f35b61039e60048036038101906103999190612e28565b611118565b6040516103ab919061309f565b60405180910390f35b6103bc61127d565b6040516103c9919061309f565b60405180910390f35b6103ec60048036038101906103e79190612b94565b61130b565b6040516103f9919061304e565b60405180910390f35b61041c60048036038101906104179190612b19565b611357565b604051610429919061304e565b60405180910390f35b61044c60048036038101906104479190612aca565b611a5f565b60405161045991906131ec565b60405180910390f35b61047c60048036038101906104779190612a8e565b611cea565b60405161048991906131a1565b60405180910390f35b61049a611f1d565b6040516104a7919061304e565b60405180910390f35b6104b8611f30565b6040516104c5919061304e565b60405180910390f35b6104e860048036038101906104e39190612bd0565b6120aa565b6040516104f5919061304e565b60405180910390f35b6001805461050b9061342a565b80601f01602080910402602001604051908101604052809291908181526020018280546105379061342a565b80156105845780601f1061055957610100808354040283529160200191610584565b820191906000526020600020905b81548152906001019060200180831161056757829003601f168201915b505050505081565b600033600060029054906101000a900473ffffffffffffffffffffffffffffffffffffffff1673ffffffffffffffffffffffffffffffffffffffff166371907f176040518163ffffffff1660e01b815260040160206040518083038186803b1580156105f757600080fd5b505afa15801561060b573d6000803e3d6000fd5b505050506040513d601f19601f8201168201806040525081019061062f9190612d30565b73ffffffffffffffffffffffffffffffffffffffff1663a230c524826040518263ffffffff1660e01b81526004016106679190612fd9565b60206040518083038186803b15801561067f57600080fd5b505afa158015610693573d6000803e3d6000fd5b505050506040513d601f19601f820116820180604052508101906106b79190612c60565b806106ee5750600073ffffffffffffffffffffffffffffffffffffffff168173ffffffffffffffffffffffffffffffffffffffff16145b6040518060400160405280601981526020017f4d697373696e672073656e646572206d656d626572736869700000000000000081525090610765576040517f08c379a000000000000000000000000000000000000000000000000000000000815260040161075c919061309f565b60405180910390fd5b5082600860003373ffffffffffffffffffffffffffffffffffffffff1673ffffffffffffffffffffffffffffffffffffffff16815260200190815260200160002060008673ffffffffffffffffffffffffffffffffffffffff1673ffffffffffffffffffffffffffffffffffffffff168152602001908152602001600020819055508373ffffffffffffffffffffffffffffffffffffffff163373ffffffffffffffffffffffffffffffffffffffff167f8c5be1e5ebec7d5bd14f71427d1e84f3dd0314c0f7b2291e5b200ac8c7c3b9258560405161084491906131a1565b60405180910390a3600191505092915050565b60045481565b60006108a08484846040518060400160405280601781526020017f556e737065636966696564202d20766961204552433230000000000000000000815250611357565b90509392505050565b60076020528060005260406000206000915090505481565b60006108cd60016120c2565b905080156108f1576001600060016101000a81548160ff0219169083151502179055505b85600060026101000a81548173ffffffffffffffffffffffffffffffffffffffff021916908373ffffffffffffffffffffffffffffffffffffffff1602179055508484846000600160006002600060036000600460008891905055879190505586919050908051906020019061096892919061289d565b5085919050908051906020019061098092919061289d565b505050505060008260056000600660008491906101000a81548160ff021916908315150217905550839190505550508015610a085760008060016101000a81548160ff0219169083151502179055507f7f26b83ff96e1f2b6a682f133852f6798a09c465da95921460cefb384740249860016040516109ff9190613084565b60405180910390a15b505050505050565b600033600060029054906101000a900473ffffffffffffffffffffffffffffffffffffffff1673ffffffffffffffffffffffffffffffffffffffff166385acb0cc6040518163ffffffff1660e01b815260040160206040518083038186803b158015610a7b57600080fd5b505afa158015610a8f573d6000803e3d6000fd5b505050506040513d601f19601f82011682018060405250810190610ab39190612d82565b73ffffffffffffffffffffffffffffffffffffffff1663a230c524826040518263ffffffff1660e01b8152600401610aeb9190612fd9565b60206040518083038186803b158015610b0357600080fd5b505afa158015610b17573d6000803e3d6000fd5b505050506040513d601f19601f82011682018060405250810190610b3b9190612c60565b610b7a576040517f08c379a0000000000000000000000000000000000000000000000000000000008152600401610b7190613121565b60405180910390fd5b8260056000828254610b8c9190613279565b925050819055506001915050919050565b60035481565b600033600060029054906101000a900473ffffffffffffffffffffffffffffffffffffffff1673ffffffffffffffffffffffffffffffffffffffff166385acb0cc6040518163ffffffff1660e01b815260040160206040518083038186803b158015610c0e57600080fd5b505afa158015610c22573d6000803e3d6000fd5b505050506040513d601f19601f82011682018060405250810190610c469190612d82565b73ffffffffffffffffffffffffffffffffffffffff1663a230c524826040518263ffffffff1660e01b8152600401610c7e9190612fd9565b60206040518083038186803b158015610c9657600080fd5b505afa158015610caa573d6000803e3d6000fd5b505050506040513d601f19601f82011682018060405250810190610cce9190612c60565b610d0d576040517f08c379a0000000000000000000000000000000000000000000000000000000008152600401610d0490613121565b60405180910390fd5b82600660006101000a81548160ff0219169083151502179055506001915050919050565b6008602052816000526040600020602052806000526040600020600091509150505481565b60055481565b6000600760008373ffffffffffffffffffffffffffffffffffffffff1673ffffffffffffffffffffffffffffffffffffffff168152602001908152602001600020549050919050565b600060029054906101000a900473ffffffffffffffffffffffffffffffffffffffff1681565b600033600060029054906101000a900473ffffffffffffffffffffffffffffffffffffffff1673ffffffffffffffffffffffffffffffffffffffff166385acb0cc6040518163ffffffff1660e01b815260040160206040518083038186803b158015610e3657600080fd5b505afa158015610e4a573d6000803e3d6000fd5b505050506040513d601f19601f82011682018060405250810190610e6e9190612d82565b73ffffffffffffffffffffffffffffffffffffffff1663a230c524826040518263ffffffff1660e01b8152600401610ea69190612fd9565b60206040518083038186803b158015610ebe57600080fd5b505afa158015610ed2573d6000803e3d6000fd5b505050506040513d601f19601f82011682018060405250810190610ef69190612c60565b610f35576040517f08c379a0000000000000000000000000000000000000000000000000000000008152600401610f2c90613121565b60405180910390fd5b600660009054906101000a900460ff161580610f5357506000600454145b610f92576040517f08c379a0000000000000000000000000000000000000000000000000000000008152600401610f8990613161565b60405180910390fd5b83600760008073ffffffffffffffffffffffffffffffffffffffff1673ffffffffffffffffffffffffffffffffffffffff1681526020019081526020016000206000828254610fe19190613279565b925050819055508360046000828254610ffa9190613279565b92505081905550600060029054906101000a900473ffffffffffffffffffffffffffffffffffffffff1673ffffffffffffffffffffffffffffffffffffffff166398daac836040518163ffffffff1660e01b815260040160206040518083038186803b15801561106957600080fd5b505afa15801561107d573d6000803e3d6000fd5b505050506040513d601f19601f820116820180604052508101906110a19190612d59565b73ffffffffffffffffffffffffffffffffffffffff1663843d00e685856040518363ffffffff1660e01b81526004016110db9291906131bc565b600060405180830381600087803b1580156110f557600080fd5b505af1158015611109573d6000803e3d6000fd5b50505050600191505092915050565b6060600160ff168260ff161415611166576040518060400160405280601c81526020017f496e737566696369656e74207472616e736665722063726564697473000000008152509050611278565b600260ff168260ff1614156111b2576040518060400160405280601981526020017f4d697373696e672073656e646572206d656d62657273686970000000000000008152509050611278565b600360ff168260ff1614156111fe576040518060400160405280601c81526020017f4d697373696e6720726563697069656e74206d656d62657273686970000000008152509050611278565b600061123f576040517f08c379a0000000000000000000000000000000000000000000000000000000008152600401611236906130e1565b60405180910390fd5b6040518060400160405280601981526020017f556e6b6e6f776e207265737472696374696f6e20636f64652e0000000000000081525090505b919050565b6002805461128a9061342a565b80601f01602080910402602001604051908101604052809291908181526020018280546112b69061342a565b80156113035780601f106112d857610100808354040283529160200191611303565b820191906000526020600020905b8154815290600101906020018083116112e657829003601f168201915b505050505081565b600061134f333385856040518060400160405280601781526020017f556e737065636966696564202d207669612045524332300000000000000000008152506121b2565b905092915050565b6000828060055410156040518060400160405280601c81526020017f496e737566696369656e74207472616e73666572206372656469747300000000815250906113d7576040517f08c379a00000000000000000000000000000000000000000000000000000000081526004016113ce919061309f565b60405180910390fd5b5085600060029054906101000a900473ffffffffffffffffffffffffffffffffffffffff1673ffffffffffffffffffffffffffffffffffffffff166371907f176040518163ffffffff1660e01b815260040160206040518083038186803b15801561144157600080fd5b505afa158015611455573d6000803e3d6000fd5b505050506040513d601f19601f820116820180604052508101906114799190612d30565b73ffffffffffffffffffffffffffffffffffffffff1663a230c524826040518263ffffffff1660e01b81526004016114b19190612fd9565b60206040518083038186803b1580156114c957600080fd5b505afa1580156114dd573d6000803e3d6000fd5b505050506040513d601f19601f820116820180604052508101906115019190612c60565b806115385750600073ffffffffffffffffffffffffffffffffffffffff168173ffffffffffffffffffffffffffffffffffffffff16145b6040518060400160405280601981526020017f4d697373696e672073656e646572206d656d6265727368697000000000000000815250906115af576040517f08c379a00000000000000000000000000000000000000000000000000000000081526004016115a6919061309f565b60405180910390fd5b5085600060029054906101000a900473ffffffffffffffffffffffffffffffffffffffff1673ffffffffffffffffffffffffffffffffffffffff166371907f176040518163ffffffff1660e01b815260040160206040518083038186803b15801561161957600080fd5b505afa15801561162d573d6000803e3d6000fd5b505050506040513d601f19601f820116820180604052508101906116519190612d30565b73ffffffffffffffffffffffffffffffffffffffff1663a230c524826040518263ffffffff1660e01b81526004016116899190612fd9565b60206040518083038186803b1580156116a157600080fd5b505afa1580156116b5573d6000803e3d6000fd5b505050506040513d601f19601f820116820180604052508101906116d99190612c60565b6040518060400160405280601c81526020017f4d697373696e6720726563697069656e74206d656d626572736869700000000081525090611750576040517f08c379a0000000000000000000000000000000000000000000000000000000008152600401611747919061309f565b60405180910390fd5b50600073ffffffffffffffffffffffffffffffffffffffff168873ffffffffffffffffffffffffffffffffffffffff1614156118f257600060029054906101000a900473ffffffffffffffffffffffffffffffffffffffff1673ffffffffffffffffffffffffffffffffffffffff166371907f176040518163ffffffff1660e01b815260040160206040518083038186803b1580156117ee57600080fd5b505afa158015611802573d6000803e3d6000fd5b505050506040513d601f19601f820116820180604052508101906118269190612d30565b73ffffffffffffffffffffffffffffffffffffffff1663e43581b8336040518263ffffffff1660e01b815260040161185e9190612fd9565b60206040518083038186803b15801561187657600080fd5b505afa15801561188a573d6000803e3d6000fd5b505050506040513d601f19601f820116820180604052508101906118ae9190612c60565b6118ed576040517f08c379a00000000000000000000000000000000000000000000000000000000081526004016118e490613181565b60405180910390fd5b611a45565b85600860008a73ffffffffffffffffffffffffffffffffffffffff1673ffffffffffffffffffffffffffffffffffffffff16815260200190815260200160002060003373ffffffffffffffffffffffffffffffffffffffff1673ffffffffffffffffffffffffffffffffffffffff1681526020019081526020016000205410156119b1576040517f08c379a00000000000000000000000000000000000000000000000000000000081526004016119a8906130c1565b60405180910390fd5b85600860008a73ffffffffffffffffffffffffffffffffffffffff1673ffffffffffffffffffffffffffffffffffffffff16815260200190815260200160002060003373ffffffffffffffffffffffffffffffffffffffff1673ffffffffffffffffffffffffffffffffffffffff1681526020019081526020016000206000828254611a3d91906132cf565b925050819055505b611a5233898989896121b2565b9350505050949350505050565b6000816005541015611a745760019050611ce3565b600060029054906101000a900473ffffffffffffffffffffffffffffffffffffffff1673ffffffffffffffffffffffffffffffffffffffff166371907f176040518163ffffffff1660e01b815260040160206040518083038186803b158015611adc57600080fd5b505afa158015611af0573d6000803e3d6000fd5b505050506040513d601f19601f82011682018060405250810190611b149190612d30565b73ffffffffffffffffffffffffffffffffffffffff1663a230c524856040518263ffffffff1660e01b8152600401611b4c9190612fd9565b60206040518083038186803b158015611b6457600080fd5b505afa158015611b78573d6000803e3d6000fd5b505050506040513d601f19601f82011682018060405250810190611b9c9190612c60565b611ba95760029050611ce3565b600060029054906101000a900473ffffffffffffffffffffffffffffffffffffffff1673ffffffffffffffffffffffffffffffffffffffff166371907f176040518163ffffffff1660e01b815260040160206040518083038186803b158015611c1157600080fd5b505afa158015611c25573d6000803e3d6000fd5b505050506040513d601f19601f82011682018060405250810190611c499190612d30565b73ffffffffffffffffffffffffffffffffffffffff1663a230c524846040518263ffffffff1660e01b8152600401611c819190612fd9565b60206040518083038186803b158015611c9957600080fd5b505afa158015611cad573d6000803e3d6000fd5b505050506040513d601f19601f82011682018060405250810190611cd19190612c60565b611cde5760039050611ce3565b600090505b9392505050565b60008073ffffffffffffffffffffffffffffffffffffffff168373ffffffffffffffffffffffffffffffffffffffff16148015611e4b5750600060029054906101000a900473ffffffffffffffffffffffffffffffffffffffff1673ffffffffffffffffffffffffffffffffffffffff166371907f176040518163ffffffff1660e01b815260040160206040518083038186803b158015611d8a57600080fd5b505afa158015611d9e573d6000803e3d6000fd5b505050506040513d601f19601f82011682018060405250810190611dc29190612d30565b73ffffffffffffffffffffffffffffffffffffffff1663e43581b8836040518263ffffffff1660e01b8152600401611dfa9190612fd9565b60206040518083038186803b158015611e1257600080fd5b505afa158015611e26573d6000803e3d6000fd5b505050506040513d601f19601f82011682018060405250810190611e4a9190612c60565b5b15611e9757600760008073ffffffffffffffffffffffffffffffffffffffff1673ffffffffffffffffffffffffffffffffffffffff168152602001908152602001600020549050611f17565b600860008473ffffffffffffffffffffffffffffffffffffffff1673ffffffffffffffffffffffffffffffffffffffff16815260200190815260200160002060008373ffffffffffffffffffffffffffffffffffffffff1673ffffffffffffffffffffffffffffffffffffffff1681526020019081526020016000205490505b92915050565b600660009054906101000a900460ff1681565b600033600060029054906101000a900473ffffffffffffffffffffffffffffffffffffffff1673ffffffffffffffffffffffffffffffffffffffff166385acb0cc6040518163ffffffff1660e01b815260040160206040518083038186803b158015611f9b57600080fd5b505afa158015611faf573d6000803e3d6000fd5b505050506040513d601f19601f82011682018060405250810190611fd39190612d82565b73ffffffffffffffffffffffffffffffffffffffff1663a230c524826040518263ffffffff1660e01b815260040161200b9190612fd9565b60206040518083038186803b15801561202357600080fd5b505afa158015612037573d6000803e3d6000fd5b505050506040513d601f19601f8201168201806040525081019061205b9190612c60565b61209a576040517f08c379a000000000000000000000000000000000000000000000000000000000815260040161209190613121565b60405180910390fd5b6000600581905550600191505090565b60006120b933338686866121b2565b90509392505050565b60008060019054906101000a900460ff16156121395760018260ff161480156120f157506120ef3061287a565b155b612130576040517f08c379a000000000000000000000000000000000000000000000000000000000815260040161212790613101565b60405180910390fd5b600090506121ad565b8160ff1660008054906101000a900460ff1660ff161061218e576040517f08c379a000000000000000000000000000000000000000000000000000000000815260040161218590613101565b60405180910390fd5b816000806101000a81548160ff021916908360ff160217905550600190505b919050565b6000828060055410156040518060400160405280601c81526020017f496e737566696369656e74207472616e7366657220637265646974730000000081525090612232576040517f08c379a0000000000000000000000000000000000000000000000000000000008152600401612229919061309f565b60405180910390fd5b5085600060029054906101000a900473ffffffffffffffffffffffffffffffffffffffff1673ffffffffffffffffffffffffffffffffffffffff166371907f176040518163ffffffff1660e01b815260040160206040518083038186803b15801561229c57600080fd5b505afa1580156122b0573d6000803e3d6000fd5b505050506040513d601f19601f820116820180604052508101906122d49190612d30565b73ffffffffffffffffffffffffffffffffffffffff1663a230c524826040518263ffffffff1660e01b815260040161230c9190612fd9565b60206040518083038186803b15801561232457600080fd5b505afa158015612338573d6000803e3d6000fd5b505050506040513d601f19601f8201168201806040525081019061235c9190612c60565b806123935750600073ffffffffffffffffffffffffffffffffffffffff168173ffffffffffffffffffffffffffffffffffffffff16145b6040518060400160405280601981526020017f4d697373696e672073656e646572206d656d62657273686970000000000000008152509061240a576040517f08c379a0000000000000000000000000000000000000000000000000000000008152600401612401919061309f565b60405180910390fd5b5085600060029054906101000a900473ffffffffffffffffffffffffffffffffffffffff1673ffffffffffffffffffffffffffffffffffffffff166371907f176040518163ffffffff1660e01b815260040160206040518083038186803b15801561247457600080fd5b505afa158015612488573d6000803e3d6000fd5b505050506040513d601f19601f820116820180604052508101906124ac9190612d30565b73ffffffffffffffffffffffffffffffffffffffff1663a230c524826040518263ffffffff1660e01b81526004016124e49190612fd9565b60206040518083038186803b1580156124fc57600080fd5b505afa158015612510573d6000803e3d6000fd5b505050506040513d601f19601f820116820180604052508101906125349190612c60565b6040518060400160405280601c81526020017f4d697373696e6720726563697069656e74206d656d6265727368697000000000815250906125ab576040517f08c379a00000000000000000000000000000000000000000000000000000000081526004016125a2919061309f565b60405180910390fd5b5085600760008a73ffffffffffffffffffffffffffffffffffffffff1673ffffffffffffffffffffffffffffffffffffffff16815260200190815260200160002054101561262e576040517f08c379a000000000000000000000000000000000000000000000000000000000815260040161262590613141565b60405180910390fd5b600060029054906101000a900473ffffffffffffffffffffffffffffffffffffffff1673ffffffffffffffffffffffffffffffffffffffff166398daac836040518163ffffffff1660e01b815260040160206040518083038186803b15801561269657600080fd5b505afa1580156126aa573d6000803e3d6000fd5b505050506040513d601f19601f820116820180604052508101906126ce9190612d59565b73ffffffffffffffffffffffffffffffffffffffff1663ee6710838a8a8a8a8a6040518663ffffffff1660e01b815260040161270e959493929190612ff4565b600060405180830381600087803b15801561272857600080fd5b505af115801561273c573d6000803e3d6000fd5b50505050856005600082825461275291906132cf565b9250508190555085600760008a73ffffffffffffffffffffffffffffffffffffffff1673ffffffffffffffffffffffffffffffffffffffff16815260200190815260200160002060008282546127a891906132cf565b9250508190555085600760008973ffffffffffffffffffffffffffffffffffffffff1673ffffffffffffffffffffffffffffffffffffffff16815260200190815260200160002060008282546127fe9190613279565b925050819055508673ffffffffffffffffffffffffffffffffffffffff168873ffffffffffffffffffffffffffffffffffffffff167fddf252ad1be2c89b69c2b068fc378daa952ba7f163c4a11628f55a4df523b3ef8860405161286291906131a1565b60405180910390a36001935050505095945050505050565b6000808273ffffffffffffffffffffffffffffffffffffffff163b119050919050565b8280546128a99061342a565b90600052602060002090601f0160209004810192826128cb5760008555612912565b82601f106128e457805160ff1916838001178555612912565b82800160010185558215612912579182015b828111156129115782518255916020019190600101906128f6565b5b50905061291f9190612923565b5090565b5b8082111561293c576000816000905550600101612924565b5090565b600061295361294e8461322c565b613207565b90508281526020810184848401111561296b57600080fd5b6129768482856133e8565b509392505050565b60008135905061298d81613696565b92915050565b6000813590506129a2816136ad565b92915050565b6000815190506129b7816136ad565b92915050565b6000813590506129cc816136c4565b92915050565b6000815190506129e1816136db565b92915050565b6000815190506129f6816136f2565b92915050565b600081519050612a0b81613709565b92915050565b600082601f830112612a2257600080fd5b8135612a32848260208601612940565b91505092915050565b600081359050612a4a81613720565b92915050565b600081359050612a5f81613737565b92915050565b600060208284031215612a7757600080fd5b6000612a858482850161297e565b91505092915050565b60008060408385031215612aa157600080fd5b6000612aaf8582860161297e565b9250506020612ac08582860161297e565b9150509250929050565b600080600060608486031215612adf57600080fd5b6000612aed8682870161297e565b9350506020612afe8682870161297e565b9250506040612b0f86828701612a3b565b9150509250925092565b60008060008060808587031215612b2f57600080fd5b6000612b3d8782880161297e565b9450506020612b4e8782880161297e565b9350506040612b5f87828801612a3b565b925050606085013567ffffffffffffffff811115612b7c57600080fd5b612b8887828801612a11565b91505092959194509250565b60008060408385031215612ba757600080fd5b6000612bb58582860161297e565b9250506020612bc685828601612a3b565b9150509250929050565b600080600060608486031215612be557600080fd5b6000612bf38682870161297e565b9350506020612c0486828701612a3b565b925050604084013567ffffffffffffffff811115612c2157600080fd5b612c2d86828701612a11565b9150509250925092565b600060208284031215612c4957600080fd5b6000612c5784828501612993565b91505092915050565b600060208284031215612c7257600080fd5b6000612c80848285016129a8565b91505092915050565b600080600080600060a08688031215612ca157600080fd5b6000612caf888289016129bd565b955050602086013567ffffffffffffffff811115612ccc57600080fd5b612cd888828901612a11565b945050604086013567ffffffffffffffff811115612cf557600080fd5b612d0188828901612a11565b9350506060612d1288828901612a3b565b9250506080612d2388828901612993565b9150509295509295909350565b600060208284031215612d4257600080fd5b6000612d50848285016129d2565b91505092915050565b600060208284031215612d6b57600080fd5b6000612d79848285016129e7565b91505092915050565b600060208284031215612d9457600080fd5b6000612da2848285016129fc565b91505092915050565b600060208284031215612dbd57600080fd5b6000612dcb84828501612a3b565b91505092915050565b60008060408385031215612de757600080fd5b6000612df585828601612a3b565b925050602083013567ffffffffffffffff811115612e1257600080fd5b612e1e85828601612a11565b9150509250929050565b600060208284031215612e3a57600080fd5b6000612e4884828501612a50565b91505092915050565b612e5a81613303565b82525050565b612e6981613327565b82525050565b612e78816133b2565b82525050565b612e87816133d6565b82525050565b6000612e988261325d565b612ea28185613268565b9350612eb28185602086016133f7565b612ebb8161351a565b840191505092915050565b6000612ed3601583613268565b9150612ede8261352b565b602082019050919050565b6000612ef6601883613268565b9150612f0182613554565b602082019050919050565b6000612f19602e83613268565b9150612f248261357d565b604082019050919050565b6000612f3c601683613268565b9150612f47826135cc565b602082019050919050565b6000612f5f601183613268565b9150612f6a826135f5565b602082019050919050565b6000612f82602183613268565b9150612f8d8261361e565b604082019050919050565b6000612fa5601483613268565b9150612fb08261366d565b602082019050919050565b612fc48161339b565b82525050565b612fd3816133a5565b82525050565b6000602082019050612fee6000830184612e51565b92915050565b600060a0820190506130096000830188612e51565b6130166020830187612e51565b6130236040830186612e51565b6130306060830185612fbb565b81810360808301526130428184612e8d565b90509695505050505050565b60006020820190506130636000830184612e60565b92915050565b600060208201905061307e6000830184612e6f565b92915050565b60006020820190506130996000830184612e7e565b92915050565b600060208201905081810360008301526130b98184612e8d565b905092915050565b600060208201905081810360008301526130da81612ec6565b9050919050565b600060208201905081810360008301526130fa81612ee9565b9050919050565b6000602082019050818103600083015261311a81612f0c565b9050919050565b6000602082019050818103600083015261313a81612f2f565b9050919050565b6000602082019050818103600083015261315a81612f52565b9050919050565b6000602082019050818103600083015261317a81612f75565b9050919050565b6000602082019050818103600083015261319a81612f98565b9050919050565b60006020820190506131b66000830184612fbb565b92915050565b60006040820190506131d16000830185612fbb565b81810360208301526131e38184612e8d565b90509392505050565b60006020820190506132016000830184612fca565b92915050565b6000613211613222565b905061321d828261345c565b919050565b6000604051905090565b600067ffffffffffffffff821115613247576132466134eb565b5b6132508261351a565b9050602081019050919050565b600081519050919050565b600082825260208201905092915050565b60006132848261339b565b915061328f8361339b565b9250827fffffffffffffffffffffffffffffffffffffffffffffffffffffffffffffffff038211156132c4576132c361348d565b5b828201905092915050565b60006132da8261339b565b91506132e58361339b565b9250828210156132f8576132f761348d565b5b828203905092915050565b600061330e8261337b565b9050919050565b60006133208261337b565b9050919050565b60008115159050919050565b600061333e82613315565b9050919050565b600061335082613303565b9050919050565b600061336282613303565b9050919050565b600061337482613303565b9050919050565b600073ffffffffffffffffffffffffffffffffffffffff82169050919050565b6000819050919050565b600060ff82169050919050565b60006133bd826133c4565b9050919050565b60006133cf8261337b565b9050919050565b60006133e1826133a5565b9050919050565b82818337600083830152505050565b60005b838110156134155780820151818401526020810190506133fa565b83811115613424576000848401525b50505050565b6000600282049050600182168061344257607f821691505b60208210811415613456576134556134bc565b5b50919050565b6134658261351a565b810181811067ffffffffffffffff82111715613484576134836134eb565b5b80604052505050565b7f4e487b7100000000000000000000000000000000000000000000000000000000600052601160045260246000fd5b7f4e487b7100000000000000000000000000000000000000000000000000000000600052602260045260246000fd5b7f4e487b7100000000000000000000000000000000000000000000000000000000600052604160045260246000fd5b6000601f19601f8301169050919050565b7f496e737566696369656e7420616c6c6f77616e63650000000000000000000000600082015250565b7f556e6b6e6f776e207265737472696374696f6e20636f64650000000000000000600082015250565b7f496e697469616c697a61626c653a20636f6e747261637420697320616c72656160008201527f647920696e697469616c697a6564000000000000000000000000000000000000602082015250565b7f4d697373696e6720535043206d656d6265727368697000000000000000000000600082015250565b7f496e737566696369656e742066756e6473000000000000000000000000000000600082015250565b7f4d696e74696e67206e6f7420706f737369626c6520617420746869732074696d60008201527f6500000000000000000000000000000000000000000000000000000000000000602082015250565b7f4d697373696e6720676f7665726e6f7273686970000000000000000000000000600082015250565b61369f81613303565b81146136aa57600080fd5b50565b6136b681613327565b81146136c157600080fd5b50565b6136cd81613333565b81146136d857600080fd5b50565b6136e481613345565b81146136ef57600080fd5b50565b6136fb81613357565b811461370657600080fd5b50565b61371281613369565b811461371d57600080fd5b50565b6137298161339b565b811461373457600080fd5b50565b613740816133a5565b811461374b57600080fd5b5056fea26469706673582212208c144936059b8b02fe30057c6ce799b775a8f1a664975d197b117d78303c16a864736f6c63430008040033",
  "linkReferences": {},
  "deployedLinkReferences": {}
}