{
  "_format": "hh-sol-artifact-1",
  "contractName": "FastHistory",
  "sourceName": "contracts/FastHistory.sol",
  "abi": [
    {
      "anonymous": false,
      "inputs": [
        {
          "indexed": false,
          "internalType": "uint8",
          "name": "version",
          "type": "uint8"
        }
      ],
      "name": "Initialized",
      "type": "event"
    },
    {
      "inputs": [
        {
          "internalType": "uint256",
          "name": "amount",
          "type": "uint256"
        },
        {
          "internalType": "string",
          "name": "ref",
          "type": "string"
        }
      ],
      "name": "addMintingProof",
      "outputs": [],
      "stateMutability": "nonpayable",
      "type": "function"
    },
    {
      "inputs": [
        {
          "internalType": "address",
          "name": "spender",
          "type": "address"
        },
        {
          "internalType": "address",
          "name": "from",
          "type": "address"
        },
        {
          "internalType": "address",
          "name": "to",
          "type": "address"
        },
        {
          "internalType": "uint256",
          "name": "amount",
          "type": "uint256"
        },
        {
          "internalType": "string",
          "name": "ref",
          "type": "string"
        }
      ],
      "name": "addTransferProof",
      "outputs": [],
      "stateMutability": "nonpayable",
      "type": "function"
    },
    {
      "inputs": [
        {
          "internalType": "contract FastRegistry",
          "name": "_reg",
          "type": "address"
        }
      ],
      "name": "initialize",
      "outputs": [],
      "stateMutability": "nonpayable",
      "type": "function"
    },
    {
      "inputs": [],
      "name": "mintingProofCount",
      "outputs": [
        {
          "internalType": "uint256",
          "name": "",
          "type": "uint256"
        }
      ],
      "stateMutability": "view",
      "type": "function"
    },
    {
      "inputs": [
        {
          "internalType": "uint256",
          "name": "cursor",
          "type": "uint256"
        },
        {
          "internalType": "uint256",
          "name": "perPage",
          "type": "uint256"
        }
      ],
      "name": "paginateMintingProofs",
      "outputs": [
        {
          "components": [
            {
              "internalType": "uint256",
              "name": "amount",
              "type": "uint256"
            },
            {
              "internalType": "uint256",
              "name": "blockNumber",
              "type": "uint256"
            },
            {
              "internalType": "string",
              "name": "ref",
              "type": "string"
            }
          ],
          "internalType": "struct IFastHistory.MintingProof[]",
          "name": "",
          "type": "tuple[]"
        },
        {
          "internalType": "uint256",
          "name": "",
          "type": "uint256"
        }
      ],
      "stateMutability": "view",
      "type": "function"
    },
    {
      "inputs": [
        {
          "internalType": "uint256",
          "name": "cursor",
          "type": "uint256"
        },
        {
          "internalType": "uint256",
          "name": "perPage",
          "type": "uint256"
        }
      ],
      "name": "paginateTransferProofs",
      "outputs": [
        {
          "components": [
            {
              "internalType": "address",
              "name": "from",
              "type": "address"
            },
            {
              "internalType": "address",
              "name": "spender",
              "type": "address"
            },
            {
              "internalType": "address",
              "name": "to",
              "type": "address"
            },
            {
              "internalType": "uint256",
              "name": "amount",
              "type": "uint256"
            },
            {
              "internalType": "uint256",
              "name": "blockNumber",
              "type": "uint256"
            },
            {
              "internalType": "string",
              "name": "ref",
              "type": "string"
            }
          ],
          "internalType": "struct IFastHistory.TransferProof[]",
          "name": "",
          "type": "tuple[]"
        },
        {
          "internalType": "uint256",
          "name": "",
          "type": "uint256"
        }
      ],
      "stateMutability": "view",
      "type": "function"
    },
    {
      "inputs": [
        {
          "internalType": "address",
          "name": "involvee",
          "type": "address"
        },
        {
          "internalType": "uint256",
          "name": "cursor",
          "type": "uint256"
        },
        {
          "internalType": "uint256",
          "name": "perPage",
          "type": "uint256"
        }
      ],
      "name": "paginateTransferProofsByInvolvee",
      "outputs": [
        {
          "internalType": "uint256[]",
          "name": "",
          "type": "uint256[]"
        },
        {
          "internalType": "uint256",
          "name": "",
          "type": "uint256"
        }
      ],
      "stateMutability": "view",
      "type": "function"
    },
    {
      "inputs": [],
      "name": "reg",
      "outputs": [
        {
          "internalType": "contract FastRegistry",
          "name": "",
          "type": "address"
        }
      ],
      "stateMutability": "view",
      "type": "function"
    },
    {
      "inputs": [],
      "name": "transferProofCount",
      "outputs": [
        {
          "internalType": "uint256",
          "name": "",
          "type": "uint256"
        }
      ],
      "stateMutability": "view",
      "type": "function"
    },
    {
      "inputs": [
        {
          "internalType": "address",
          "name": "",
          "type": "address"
        },
        {
          "internalType": "uint256",
          "name": "",
          "type": "uint256"
        }
      ],
      "name": "transferProofInvolvements",
      "outputs": [
        {
          "internalType": "uint256",
          "name": "",
          "type": "uint256"
        }
      ],
      "stateMutability": "view",
      "type": "function"
    }
  ],
  "bytecode": "0x608060405234801561001057600080fd5b506121f4806100206000396000f3fe608060405234801561001057600080fd5b506004361061009e5760003560e01c8063c4d66de811610066578063c4d66de814610149578063d03a70d714610165578063ee67108314610196578063f30014d9146101b2578063f4b54f33146101e35761009e565b80635537a67a146100a3578063606db954146100c1578063738fdd1a146100df578063801efae2146100fd578063843d00e61461012d575b600080fd5b6100ab610214565b6040516100b89190611bf6565b60405180910390f35b6100c9610221565b6040516100d69190611bf6565b60405180910390f35b6100e761022e565b6040516100f49190611b80565b60405180910390f35b61011760048036038101906101129190611140565b610254565b6040516101249190611bf6565b60405180910390f35b61014760048036038101906101429190611319565b610285565b005b610163600480360381019061015e91906112c7565b610411565b005b61017f600480360381019061017a919061136d565b6104df565b60405161018d929190611a36565b60405180910390f35b6101b060048036038101906101ab91906110b1565b61057f565b005b6101cc60048036038101906101c7919061117c565b61090d565b6040516101da929190611b12565b60405180910390f35b6101fd60048036038101906101f8919061136d565b6109eb565b60405161020b929190611aa4565b60405180910390f35b6000600280549050905090565b6000600180549050905090565b600060029054906101000a900473ffffffffffffffffffffffffffffffffffffffff1681565b6003602052816000526040600020818154811061027057600080fd5b90600052602060002001600091509150505481565b33600060029054906101000a900473ffffffffffffffffffffffffffffffffffffffff1673ffffffffffffffffffffffffffffffffffffffff1663fc0c546a6040518163ffffffff1660e01b815260040160206040518083038186803b1580156102ee57600080fd5b505afa158015610302573d6000803e3d6000fd5b505050506040513d601f19601f8201168201806040525081019061032691906112f0565b73ffffffffffffffffffffffffffffffffffffffff168173ffffffffffffffffffffffffffffffffffffffff1614610393576040517f08c379a000000000000000000000000000000000000000000000000000000000815260040161038a90611bb6565b60405180910390fd5b6001604051806060016040528085815260200143815260200184815250908060018154018082558091505060019003906000526020600020906003020160009091909190915060008201518160000155602082015181600101556040820151816002019080519060200190610409929190610b9e565b505050505050565b600061041d6001610a8b565b90508015610441576001600060016101000a81548160ff0219169083151502179055505b81600060026101000a81548173ffffffffffffffffffffffffffffffffffffffff021916908373ffffffffffffffffffffffffffffffffffffffff16021790555080156104db5760008060016101000a81548160ff0219169083151502179055507f7f26b83ff96e1f2b6a682f133852f6798a09c465da95921460cefb384740249860016040516104d29190611b9b565b60405180910390a15b5050565b6060600073__$487a23fac22966c883114cdd4da3fa5461$__63bd33e7e6600186866040518463ffffffff1660e01b815260040161051f93929190611a66565b60006040518083038186803b15801561053757600080fd5b505af415801561054b573d6000803e3d6000fd5b505050506040513d6000823e3d601f19601f8201168201806040525081019061057491906111cb565b915091509250929050565b33600060029054906101000a900473ffffffffffffffffffffffffffffffffffffffff1673ffffffffffffffffffffffffffffffffffffffff1663fc0c546a6040518163ffffffff1660e01b815260040160206040518083038186803b1580156105e857600080fd5b505afa1580156105fc573d6000803e3d6000fd5b505050506040513d601f19601f8201168201806040525081019061062091906112f0565b73ffffffffffffffffffffffffffffffffffffffff168173ffffffffffffffffffffffffffffffffffffffff161461068d576040517f08c379a000000000000000000000000000000000000000000000000000000000815260040161068490611bb6565b60405180910390fd5b600360008673ffffffffffffffffffffffffffffffffffffffff1673ffffffffffffffffffffffffffffffffffffffff1681526020019081526020016000206002805490509080600181540180825580915050600190039060005260206000200160009091909190915055600360008573ffffffffffffffffffffffffffffffffffffffff1673ffffffffffffffffffffffffffffffffffffffff168152602001908152602001600020600280549050908060018154018082558091505060019003906000526020600020016000909190919091505560026040518060c001604052808773ffffffffffffffffffffffffffffffffffffffff1681526020018873ffffffffffffffffffffffffffffffffffffffff1681526020018673ffffffffffffffffffffffffffffffffffffffff16815260200185815260200143815260200184815250908060018154018082558091505060019003906000526020600020906006020160009091909190915060008201518160000160006101000a81548173ffffffffffffffffffffffffffffffffffffffff021916908373ffffffffffffffffffffffffffffffffffffffff16021790555060208201518160010160006101000a81548173ffffffffffffffffffffffffffffffffffffffff021916908373ffffffffffffffffffffffffffffffffffffffff16021790555060408201518160020160006101000a81548173ffffffffffffffffffffffffffffffffffffffff021916908373ffffffffffffffffffffffffffffffffffffffff160217905550606082015181600301556080820151816004015560a0820151816005019080519060200190610902929190610b9e565b505050505050505050565b6060600073__$487a23fac22966c883114cdd4da3fa5461$__6320027aba600360008873ffffffffffffffffffffffffffffffffffffffff1673ffffffffffffffffffffffffffffffffffffffff16815260200190815260200160002086866040518463ffffffff1660e01b815260040161098a93929190611b42565b60006040518083038186803b1580156109a257600080fd5b505af41580156109b6573d6000803e3d6000fd5b505050506040513d6000823e3d601f19601f820116820180604052508101906109df9190611273565b91509150935093915050565b6060600073__$487a23fac22966c883114cdd4da3fa5461$__633152ca34600286866040518463ffffffff1660e01b8152600401610a2b93929190611ad4565b60006040518083038186803b158015610a4357600080fd5b505af4158015610a57573d6000803e3d6000fd5b505050506040513d6000823e3d601f19601f82011682018060405250810190610a80919061121f565b915091509250929050565b60008060019054906101000a900460ff1615610b025760018260ff16148015610aba5750610ab830610b7b565b155b610af9576040517f08c379a0000000000000000000000000000000000000000000000000000000008152600401610af090611bd6565b60405180910390fd5b60009050610b76565b8160ff1660008054906101000a900460ff1660ff1610610b57576040517f08c379a0000000000000000000000000000000000000000000000000000000008152600401610b4e90611bd6565b60405180910390fd5b816000806101000a81548160ff021916908360ff160217905550600190505b919050565b6000808273ffffffffffffffffffffffffffffffffffffffff163b119050919050565b828054610baa90611fc4565b90600052602060002090601f016020900481019282610bcc5760008555610c13565b82601f10610be557805160ff1916838001178555610c13565b82800160010185558215610c13579182015b82811115610c12578251825591602001919060010190610bf7565b5b509050610c209190610c24565b5090565b5b80821115610c3d576000816000905550600101610c25565b5090565b6000610c54610c4f84611c36565b611c11565b90508083825260208201905082856020860282011115610c7357600080fd5b60005b85811015610cbd57815167ffffffffffffffff811115610c9557600080fd5b808601610ca28982610f5b565b85526020850194506020840193505050600181019050610c76565b5050509392505050565b6000610cda610cd584611c62565b611c11565b90508083825260208201905082856020860282011115610cf957600080fd5b60005b85811015610d4357815167ffffffffffffffff811115610d1b57600080fd5b808601610d288982610fd3565b85526020850194506020840193505050600181019050610cfc565b5050509392505050565b6000610d60610d5b84611c8e565b611c11565b90508083825260208201905082856020860282011115610d7f57600080fd5b60005b85811015610daf5781610d95888261109c565b845260208401935060208301925050600181019050610d82565b5050509392505050565b6000610dcc610dc784611cba565b611c11565b905082815260208101848484011115610de457600080fd5b610def848285611f82565b509392505050565b6000610e0a610e0584611cba565b611c11565b905082815260208101848484011115610e2257600080fd5b610e2d848285611f91565b509392505050565b600081359050610e4481612162565b92915050565b600081519050610e5981612162565b92915050565b600082601f830112610e7057600080fd5b8151610e80848260208601610c41565b91505092915050565b600082601f830112610e9a57600080fd5b8151610eaa848260208601610cc7565b91505092915050565b600082601f830112610ec457600080fd5b8151610ed4848260208601610d4d565b91505092915050565b600081359050610eec81612179565b92915050565b600081519050610f0181612190565b92915050565b600082601f830112610f1857600080fd5b8135610f28848260208601610db9565b91505092915050565b600082601f830112610f4257600080fd5b8151610f52848260208601610df7565b91505092915050565b600060608284031215610f6d57600080fd5b610f776060611c11565b90506000610f878482850161109c565b6000830152506020610f9b8482850161109c565b602083015250604082015167ffffffffffffffff811115610fbb57600080fd5b610fc784828501610f31565b60408301525092915050565b600060c08284031215610fe557600080fd5b610fef60c0611c11565b90506000610fff84828501610e4a565b600083015250602061101384828501610e4a565b602083015250604061102784828501610e4a565b604083015250606061103b8482850161109c565b606083015250608061104f8482850161109c565b60808301525060a082015167ffffffffffffffff81111561106f57600080fd5b61107b84828501610f31565b60a08301525092915050565b600081359050611096816121a7565b92915050565b6000815190506110ab816121a7565b92915050565b600080600080600060a086880312156110c957600080fd5b60006110d788828901610e35565b95505060206110e888828901610e35565b94505060406110f988828901610e35565b935050606061110a88828901611087565b925050608086013567ffffffffffffffff81111561112757600080fd5b61113388828901610f07565b9150509295509295909350565b6000806040838503121561115357600080fd5b600061116185828601610e35565b925050602061117285828601611087565b9150509250929050565b60008060006060848603121561119157600080fd5b600061119f86828701610e35565b93505060206111b086828701611087565b92505060406111c186828701611087565b9150509250925092565b600080604083850312156111de57600080fd5b600083015167ffffffffffffffff8111156111f857600080fd5b61120485828601610e5f565b92505060206112158582860161109c565b9150509250929050565b6000806040838503121561123257600080fd5b600083015167ffffffffffffffff81111561124c57600080fd5b61125885828601610e89565b92505060206112698582860161109c565b9150509250929050565b6000806040838503121561128657600080fd5b600083015167ffffffffffffffff8111156112a057600080fd5b6112ac85828601610eb3565b92505060206112bd8582860161109c565b9150509250929050565b6000602082840312156112d957600080fd5b60006112e784828501610edd565b91505092915050565b60006020828403121561130257600080fd5b600061131084828501610ef2565b91505092915050565b6000806040838503121561132c57600080fd5b600061133a85828601611087565b925050602083013567ffffffffffffffff81111561135757600080fd5b61136385828601610f07565b9150509250929050565b6000806040838503121561138057600080fd5b600061138e85828601611087565b925050602061139f85828601611087565b9150509250929050565b60006113b583836117f9565b905092915050565b60006113c98383611849565b905092915050565b60006113dd83836118b0565b905092915050565b60006113f18383611939565b905092915050565b600061140583836119fa565b60208301905092915050565b600061141d8383611a27565b60208301905092915050565b61143281611ecd565b82525050565b61144181611ecd565b82525050565b600061145282611d6f565b61145c8185611e0a565b93508360208202850161146e85611ceb565b8060005b858110156114aa578484038952815161148b85826113a9565b945061149683611dbc565b925060208a01995050600181019050611472565b50829750879550505050505092915050565b60006114c782611d7a565b6114d18185611e1b565b9350836020820285016114e385611cfb565b8060005b8581101561151e578484038952816114ff85826113bd565b945061150a83611dc9565b925060208a019950506001810190506114e7565b50829750879550505050505092915050565b600061153b82611d85565b6115458185611e2c565b93508360208202850161155785611d10565b8060005b85811015611593578484038952815161157485826113d1565b945061157f83611dd6565b925060208a0199505060018101905061155b565b50829750879550505050505092915050565b60006115b082611d90565b6115ba8185611e3d565b9350836020820285016115cc85611d20565b8060005b85811015611607578484038952816115e885826113e5565b94506115f383611de3565b925060208a019950506001810190506115d0565b50829750879550505050505092915050565b600061162482611d9b565b61162e8185611e4e565b935061163983611d35565b8060005b8381101561166a57815161165188826113f9565b975061165c83611df0565b92505060018101905061163d565b5085935050505092915050565b600061168282611da6565b61168c8185611e5f565b935061169783611d45565b8060005b838110156116cf576116ac826120b9565b6116b68882611411565b97506116c183611dfd565b92505060018101905061169b565b5085935050505092915050565b6116e581611f4c565b82525050565b6116f481611f70565b82525050565b600061170582611db1565b61170f8185611e70565b935061171f818560208601611f91565b611728816120cc565b840191505092915050565b6000815461174081611fc4565b61174a8186611e92565b945060018216600081146117655760018114611777576117aa565b60ff19831686526020860193506117aa565b61178085611d5a565b60005b838110156117a257815481890152600182019150602081019050611783565b808801955050505b50505092915050565b60006117c0601983611e81565b91506117cb826120ea565b602082019050919050565b60006117e3602e83611e81565b91506117ee82612113565b604082019050919050565b600060608301600083015161181160008601826119fa565b50602083015161182460208601826119fa565b506040830151848203604086015261183c82826116fa565b9150508091505092915050565b600060608301600080840154905061186081612010565b61186d6000870182611a27565b506001840154905061187e81612010565b61188b6020870182611a27565b506002840185830360408701526118a28382611733565b925050819250505092915050565b600060c0830160008301516118c86000860182611429565b5060208301516118db6020860182611429565b5060408301516118ee6040860182611429565b50606083015161190160608601826119fa565b50608083015161191460808601826119fa565b5060a083015184820360a086015261192c82826116fa565b9150508091505092915050565b600060c08301600080840154905061195081611ff6565b61195d6000870182611438565b506001840154905061196e81611ff6565b61197b6020870182611438565b506002840154905061198c81611ff6565b6119996040870182611438565b50600384015490506119aa81612010565b6119b76060870182611a27565b50600484015490506119c881612010565b6119d56080870182611a27565b506005840185830360a08701526119ec8382611733565b925050819250505092915050565b611a0381611f35565b82525050565b611a1281611f35565b82525050565b611a2181611f35565b82525050565b611a3081611f35565b82525050565b60006040820190508181036000830152611a508185611447565b9050611a5f6020830184611a09565b9392505050565b60006060820190508181036000830152611a8081866114bc565b9050611a8f6020830185611a18565b611a9c6040830184611a18565b949350505050565b60006040820190508181036000830152611abe8185611530565b9050611acd6020830184611a09565b9392505050565b60006060820190508181036000830152611aee81866115a5565b9050611afd6020830185611a18565b611b0a6040830184611a18565b949350505050565b60006040820190508181036000830152611b2c8185611619565b9050611b3b6020830184611a09565b9392505050565b60006060820190508181036000830152611b5c8186611677565b9050611b6b6020830185611a18565b611b786040830184611a18565b949350505050565b6000602082019050611b9560008301846116dc565b92915050565b6000602082019050611bb060008301846116eb565b92915050565b60006020820190508181036000830152611bcf816117b3565b9050919050565b60006020820190508181036000830152611bef816117d6565b9050919050565b6000602082019050611c0b6000830184611a09565b92915050565b6000611c1b611c2c565b9050611c27828261202a565b919050565b6000604051905090565b600067ffffffffffffffff821115611c5157611c5061208a565b5b602082029050602081019050919050565b600067ffffffffffffffff821115611c7d57611c7c61208a565b5b602082029050602081019050919050565b600067ffffffffffffffff821115611ca957611ca861208a565b5b602082029050602081019050919050565b600067ffffffffffffffff821115611cd557611cd461208a565b5b611cde826120cc565b9050602081019050919050565b6000819050602082019050919050565b60008190508160005260206000209050919050565b6000819050602082019050919050565b60008190508160005260206000209050919050565b6000819050602082019050919050565b60008190508160005260206000209050919050565b60008190508160005260206000209050919050565b600081519050919050565b600081549050919050565b600081519050919050565b600081549050919050565b600081519050919050565b600081549050919050565b600081519050919050565b6000602082019050919050565b6000600382019050919050565b6000602082019050919050565b6000600682019050919050565b6000602082019050919050565b6000600182019050919050565b600082825260208201905092915050565b600082825260208201905092915050565b600082825260208201905092915050565b600082825260208201905092915050565b600082825260208201905092915050565b600082825260208201905092915050565b600082825260208201905092915050565b600082825260208201905092915050565b600082825260208201905092915050565b600073ffffffffffffffffffffffffffffffffffffffff82169050919050565b6000819050919050565b6000611ed882611f15565b9050919050565b6000611eea82611f15565b9050919050565b6000611efc82611edf565b9050919050565b6000611f0e82611ecd565b9050919050565b600073ffffffffffffffffffffffffffffffffffffffff82169050919050565b6000819050919050565b600060ff82169050919050565b6000611f5782611f5e565b9050919050565b6000611f6982611f15565b9050919050565b6000611f7b82611f3f565b9050919050565b82818337600083830152505050565b60005b83811015611faf578082015181840152602081019050611f94565b83811115611fbe576000848401525b50505050565b60006002820490506001821680611fdc57607f821691505b60208210811415611ff057611fef61205b565b5b50919050565b6000612009612004836120dd565b611ea3565b9050919050565b600061202361201e836120dd565b611ec3565b9050919050565b612033826120cc565b810181811067ffffffffffffffff821117156120525761205161208a565b5b80604052505050565b7f4e487b7100000000000000000000000000000000000000000000000000000000600052602260045260246000fd5b7f4e487b7100000000000000000000000000000000000000000000000000000000600052604160045260246000fd5b60006120c58254612010565b9050919050565b6000601f19601f8301169050919050565b60008160001c9050919050565b7f43616e6e6f742062652063616c6c6564206469726563746c7900000000000000600082015250565b7f496e697469616c697a61626c653a20636f6e747261637420697320616c72656160008201527f647920696e697469616c697a6564000000000000000000000000000000000000602082015250565b61216b81611ecd565b811461217657600080fd5b50565b61218281611ef1565b811461218d57600080fd5b50565b61219981611f03565b81146121a457600080fd5b50565b6121b081611f35565b81146121bb57600080fd5b5056fea264697066735822122070aad864764f5e6055ebc3f3feef066a7d6eac716a13716a4f809ed53d37884664736f6c63430008040033",
  "linkReferences": {
    "contracts/lib/PaginationLib.sol": {
      "PaginationLib": [
        {
          "length": 20,
          "start": 1285
        },
        {
          "length": 20,
          "start": 2355
        },
        {
          "length": 20,
          "start": 2577
        }
      ]
    }
  },
  "deployedLinkReferences": {
    "contracts/lib/PaginationLib.sol": {
      "PaginationLib": [
        {
          "length": 20,
          "start": 1253
        },
        {
          "length": 20,
          "start": 2323
        },
        {
          "length": 20,
          "start": 2545
        }
      ]
    }
  }
}