{
  "_format": "hh-sol-artifact-1",
  "contractName": "FastCrowdfundsFacet",
  "sourceName": "contracts/fast/FastCrowdfundsFacet.sol",
  "abi": [
    {
      "anonymous": false,
      "inputs": [
        {
          "indexed": true,
          "internalType": "address",
          "name": "owner",
          "type": "address"
        },
        {
          "indexed": true,
          "internalType": "address",
          "name": "spender",
          "type": "address"
        },
        {
          "indexed": false,
          "internalType": "uint256",
          "name": "value",
          "type": "uint256"
        }
      ],
      "name": "Approval",
      "type": "event"
    },
    {
      "anonymous": false,
      "inputs": [
        {
          "indexed": true,
          "internalType": "uint256",
          "name": "amount",
          "type": "uint256"
        },
        {
          "indexed": true,
          "internalType": "string",
          "name": "ref",
          "type": "string"
        },
        {
          "indexed": true,
          "internalType": "address",
          "name": "who",
          "type": "address"
        }
      ],
      "name": "Burnt",
      "type": "event"
    },
    {
      "anonymous": false,
      "inputs": [
        {
          "indexed": true,
          "internalType": "contract Crowdfund",
          "name": "crowdfund",
          "type": "address"
        }
      ],
      "name": "CrowdfundDeployed",
      "type": "event"
    },
    {
      "anonymous": false,
      "inputs": [
        {
          "indexed": false,
          "internalType": "bool",
          "name": "transfersDisabled",
          "type": "bool"
        },
        {
          "indexed": false,
          "internalType": "uint256",
          "name": "memberCount",
          "type": "uint256"
        },
        {
          "indexed": false,
          "internalType": "uint256",
          "name": "governorCount",
          "type": "uint256"
        },
        {
          "indexed": false,
          "internalType": "uint256",
          "name": "totalSupply",
          "type": "uint256"
        },
        {
          "indexed": false,
          "internalType": "uint256",
          "name": "reserveBalance",
          "type": "uint256"
        }
      ],
      "name": "DetailsChanged",
      "type": "event"
    },
    {
      "anonymous": false,
      "inputs": [
        {
          "indexed": true,
          "internalType": "address",
          "name": "owner",
          "type": "address"
        },
        {
          "indexed": true,
          "internalType": "address",
          "name": "spender",
          "type": "address"
        },
        {
          "indexed": false,
          "internalType": "uint256",
          "name": "value",
          "type": "uint256"
        }
      ],
      "name": "Disapproval",
      "type": "event"
    },
    {
      "anonymous": false,
      "inputs": [
        {
          "indexed": true,
          "internalType": "contract Distribution",
          "name": "distribution",
          "type": "address"
        }
      ],
      "name": "DistributionDeployed",
      "type": "event"
    },
    {
      "anonymous": false,
      "inputs": [
        {
          "indexed": true,
          "internalType": "address",
          "name": "spender",
          "type": "address"
        },
        {
          "indexed": true,
          "internalType": "address",
          "name": "from",
          "type": "address"
        },
        {
          "indexed": true,
          "internalType": "address",
          "name": "to",
          "type": "address"
        },
        {
          "indexed": false,
          "internalType": "uint256",
          "name": "value",
          "type": "uint256"
        },
        {
          "indexed": false,
          "internalType": "string",
          "name": "ref",
          "type": "string"
        }
      ],
      "name": "FastTransfer",
      "type": "event"
    },
    {
      "anonymous": false,
      "inputs": [
        {
          "indexed": true,
          "internalType": "uint256",
          "name": "amount",
          "type": "uint256"
        },
        {
          "indexed": true,
          "internalType": "string",
          "name": "ref",
          "type": "string"
        },
        {
          "indexed": true,
          "internalType": "address",
          "name": "who",
          "type": "address"
        }
      ],
      "name": "Minted",
      "type": "event"
    },
    {
      "anonymous": false,
      "inputs": [
        {
          "indexed": true,
          "internalType": "address",
          "name": "from",
          "type": "address"
        },
        {
          "indexed": true,
          "internalType": "address",
          "name": "to",
          "type": "address"
        },
        {
          "indexed": false,
          "internalType": "uint256",
          "name": "value",
          "type": "uint256"
        }
      ],
      "name": "Transfer",
      "type": "event"
    },
    {
      "inputs": [
        {
          "internalType": "contract IERC20",
          "name": "token",
          "type": "address"
        },
        {
          "internalType": "address",
          "name": "beneficiary",
          "type": "address"
        }
      ],
      "name": "createCrowdfund",
      "outputs": [],
      "stateMutability": "nonpayable",
      "type": "function"
    },
    {
      "inputs": [],
      "name": "crowdfundCount",
      "outputs": [
        {
          "internalType": "uint256",
          "name": "",
          "type": "uint256"
        }
      ],
      "stateMutability": "view",
      "type": "function"
    },
    {
      "inputs": [
        {
          "internalType": "uint256",
          "name": "index",
          "type": "uint256"
        },
        {
          "internalType": "uint256",
          "name": "perPage",
          "type": "uint256"
        }
      ],
      "name": "paginateCrowdfunds",
      "outputs": [
        {
          "internalType": "address[]",
          "name": "",
          "type": "address[]"
        },
        {
          "internalType": "uint256",
          "name": "",
          "type": "uint256"
        }
      ],
      "stateMutability": "view",
      "type": "function"
    }
  ],
  "bytecode": "0x608060405234801561001057600080fd5b50611f89806100206000396000f3fe608060405234801561001057600080fd5b50600436106100415760003560e01c80630d9816251461004657806343498b0d14610070578063fb29eac814610085575b600080fd5b610059610054366004610584565b6100b5565b6040516100679291906105a6565b60405180910390f35b61008361007e366004610629565b6100ef565b005b7fc843fbb8f0f5694376d391c1687b800112a6eed97820d8e7a2b82618dd1b69ef54604051908152602001610067565b606060006100e47fc843fbb8f0f5694376d391c1687b800112a6eed97820d8e7a2b82618dd1b69ef85856102e2565b915091509250929050565b60006040518060a001604052803373ffffffffffffffffffffffffffffffffffffffff1681526020013073ffffffffffffffffffffffffffffffffffffffff1663a63234e06040518163ffffffff1660e01b8152600401602060405180830381865afa158015610163573d6000803e3d6000fd5b505050506040513d601f19601f820116820180604052508101906101879190610662565b73ffffffffffffffffffffffffffffffffffffffff1681526020013073ffffffffffffffffffffffffffffffffffffffff1681526020018373ffffffffffffffffffffffffffffffffffffffff1681526020018473ffffffffffffffffffffffffffffffffffffffff1681525060405161020090610577565b815173ffffffffffffffffffffffffffffffffffffffff9081168252602080840151821690830152604080840151821690830152606080840151821690830152608092830151169181019190915260a001604051809103906000f08015801561026d573d6000803e3d6000fd5b50905061029c7fc843fbb8f0f5694376d391c1687b800112a6eed97820d8e7a2b82618dd1b69ee826000610403565b60405173ffffffffffffffffffffffffffffffffffffffff8216907faf771b446004a47fb6dd19309b3cd213acf99ed0cb64bdb5011d00e8234c6a5a90600090a2505050565b60606000808486805490506102f791906106ae565b84116103035783610310565b85546103109086906106ae565b905060008167ffffffffffffffff81111561032d5761032d6106c5565b604051908082528060200260200182016040528015610356578160200160208202803683370190505b50905060005b828110156103e9578761036f82896106f4565b8154811061037f5761037f61070c565b9060005260206000200160009054906101000a900473ffffffffffffffffffffffffffffffffffffffff168282815181106103bc576103bc61070c565b73ffffffffffffffffffffffffffffffffffffffff9092166020928302919091019091015260010161035c565b50806103f583886106f4565b935093505050935093915050565b600061040f84846104fb565b905081801561041b5750805b156104265750505050565b8015610492576040517f08c379a000000000000000000000000000000000000000000000000000000000815260206004820152601660248201527f4164647265737320616c726561647920696e2073657400000000000000000000604482015260640160405180910390fd5b50506001808301805473ffffffffffffffffffffffffffffffffffffffff909316600081815260209586526040812085905592840182559082529290200180547fffffffffffffffffffffffff0000000000000000000000000000000000000000169091179055565b60018201546000901561056d5773ffffffffffffffffffffffffffffffffffffffff821660008181526020859052604090205460018501805490919081106105455761054561070c565b60009182526020909120015473ffffffffffffffffffffffffffffffffffffffff1614610570565b60005b9392505050565b6118188061073c83390190565b6000806040838503121561059757600080fd5b50508035926020909101359150565b604080825283519082018190526000906020906060840190828701845b828110156105f557815173ffffffffffffffffffffffffffffffffffffffff16845292840192908401906001016105c3565b50505092019290925292915050565b73ffffffffffffffffffffffffffffffffffffffff8116811461062657600080fd5b50565b6000806040838503121561063c57600080fd5b823561064781610604565b9150602083013561065781610604565b809150509250929050565b60006020828403121561067457600080fd5b815161057081610604565b7f4e487b7100000000000000000000000000000000000000000000000000000000600052601160045260246000fd5b6000828210156106c0576106c061067f565b500390565b7f4e487b7100000000000000000000000000000000000000000000000000000000600052604160045260246000fd5b600082198211156107075761070761067f565b500190565b7f4e487b7100000000000000000000000000000000000000000000000000000000600052603260045260246000fdfe60806040523480156200001157600080fd5b506040516200181838038062001818833981016040819052620000349162000204565b8051600080546001600160a01b038084166001600160a01b031992831617909255602084015160018054918416918316919091179055604084015160028054918416918316919091179055606084015160038054918416918316919091179055608084015160048054919093169116179055620000b1906200012c565b620000e15780516040516257946760e61b81526001600160a01b0390911660048201526024015b60405180910390fd5b6060810151620000f190620001a5565b62000121576060810151604051635c6338cf60e11b81526001600160a01b039091166004820152602401620000d8565b5043600655620002da565b600254604051631c86b03760e31b81526001600160a01b038381166004830152600092169063e43581b8906024015b602060405180830381865afa15801562000179573d6000803e3d6000fd5b505050506040513d601f19601f820116820180604052508101906200019f9190620002af565b92915050565b60025460405163288c314960e21b81526001600160a01b038381166004830152600092169063a230c524906024016200015b565b6001600160a01b0381168114620001ef57600080fd5b50565b8051620001ff81620001d9565b919050565b600060a082840312156200021757600080fd5b60405160a081016001600160401b03811182821017156200024857634e487b7160e01b600052604160045260246000fd5b60405282516200025881620001d9565b815260208301516200026a81620001d9565b60208201526200027d60408401620001f2565b60408201526200029060608401620001f2565b6060820152620002a360808401620001f2565b60808201529392505050565b600060208284031215620002c257600080fd5b81518015158114620002d357600080fd5b9392505050565b61152e80620002ea6000396000f3fe608060405234801561001057600080fd5b50600436106100f55760003560e01c80638af42bd211610097578063c033a49011610066578063c033a490146101ce578063cff0ab9614610201578063fa89401a14610281578063ffa1ad741461029457600080fd5b80638af42bd21461017757806392d61fe31461018a578063b1c9fe6e146101ab578063b44ac7c9146101c557600080fd5b8063343576f5116100d3578063343576f51461013357806369e15404146101535780637326c9c01461015b57806384bcefd41461016e57600080fd5b806312e9a92a146100fa578063176345141461010f57806320fe99fe1461012b575b600080fd5b61010d61010836600461126a565b6102af565b005b61011860065481565b6040519081526020015b60405180910390f35b600a54610118565b610118610141366004611283565b600b6020526000908152604090205481565b6101186104b8565b61010d61016936600461126a565b6104d2565b61011860085481565b61010d6101853660046112ca565b61081e565b61019d6101983660046112e7565b610bc1565b604051610122929190611309565b6005546101b89060ff1681565b6040516101229190611396565b61011860075481565b6101f16101dc366004611283565b600c6020526000908152604090205460ff1681565b6040519015158152602001610122565b60005460015460025460035460045461023a9473ffffffffffffffffffffffffffffffffffffffff908116948116938116928116911685565b6040805173ffffffffffffffffffffffffffffffffffffffff968716815294861660208601529285169284019290925283166060830152909116608082015260a001610122565b61010d61028f366004611283565b610bdc565b61029c600181565b60405161ffff9091168152602001610122565b60055460009060ff1660038111156102c9576102c9611367565b8160038111156102db576102db611367565b14610312576040517f9a36fd9c00000000000000000000000000000000000000000000000000000000815260040160405180910390fd5b6001546040517fa230c52400000000000000000000000000000000000000000000000000000000815233600482015273ffffffffffffffffffffffffffffffffffffffff9091169063a230c52490602401602060405180830381865afa158015610380573d6000803e3d6000fd5b505050506040513d601f19601f820116820180604052508101906103a491906113d7565b6103da576040517f5353280000000000000000000000000000000000000000000000000000000000815260040160405180910390fd5b61271082111561044b576040517f19cbe44b00000000000000000000000000000000000000000000000000000000815260206004820152600e60248201527f6261736973506f696e747346656500000000000000000000000000000000000060448201526064015b60405180910390fd5b6007829055600580547fffffffffffffffffffffffffffffffffffffffffffffffffffffffffffffff001660019081179091556040517f55bc76655fa95a7bc9068ab071cd51430123d180c791be8584b21c98e33c8aa5916104ac91611396565b60405180910390a15050565b60006104cd6008546007546127106001610e14565b905090565b60055460019060ff1660038111156104ec576104ec611367565b8160038111156104fe576104fe611367565b14610535576040517f9a36fd9c00000000000000000000000000000000000000000000000000000000815260040160405180910390fd5b61053e33610e71565b610574576040517f46b83e9600000000000000000000000000000000000000000000000000000000815260040160405180910390fd5b816105db576040517f19cbe44b00000000000000000000000000000000000000000000000000000000815260206004820152600660248201527f616d6f756e7400000000000000000000000000000000000000000000000000006044820152606401610442565b600480546040517fdd62ed3e000000000000000000000000000000000000000000000000000000008152339281019290925230602483015260009173ffffffffffffffffffffffffffffffffffffffff9091169063dd62ed3e90604401602060405180830381865afa158015610655573d6000803e3d6000fd5b505050506040513d601f19601f8201168201806040525081019061067991906113f4565b9050828110156106c25761068d818461143c565b6040517fcb78cce200000000000000000000000000000000000000000000000000000000815260040161044291815260200190565b6106cf6009336001610f0c565b336000908152600b6020526040812080548592906106ee908490611453565b9250508190555082600860008282546107079190611453565b9091555050600480546040517f23b872dd00000000000000000000000000000000000000000000000000000000815233928101929092523060248301526044820185905273ffffffffffffffffffffffffffffffffffffffff16906323b872dd906064016020604051808303816000875af115801561078a573d6000803e3d6000fd5b505050506040513d601f19601f820116820180604052508101906107ae91906113d7565b6107e4576040517f65edbc9100000000000000000000000000000000000000000000000000000000815260040160405180910390fd5b60405183815233907f5e91ea8ea1c46300eb761859be01d7b16d44389ef91e03a163a87413cbf55b959060200160405180910390a2505050565b6001546040517fa230c52400000000000000000000000000000000000000000000000000000000815233600482015273ffffffffffffffffffffffffffffffffffffffff9091169063a230c52490602401602060405180830381865afa15801561088c573d6000803e3d6000fd5b505050506040513d601f19601f820116820180604052508101906108b091906113d7565b6108e6576040517f5353280000000000000000000000000000000000000000000000000000000000815260040160405180910390fd5b8015610b3b5760006108f66104b8565b905080156109d557600480546001546040517fa9059cbb00000000000000000000000000000000000000000000000000000000815273ffffffffffffffffffffffffffffffffffffffff9182169381019390935260248301849052169063a9059cbb906044016020604051808303816000875af115801561097b573d6000803e3d6000fd5b505050506040513d601f19601f8201168201806040525081019061099f91906113d7565b6109d5576040517f65edbc9100000000000000000000000000000000000000000000000000000000815260040160405180910390fd5b6000816008546109e5919061143c565b90508015610b3857600354610a0f9073ffffffffffffffffffffffffffffffffffffffff16610e71565b610a61576003546040517fb8c6719e00000000000000000000000000000000000000000000000000000000815273ffffffffffffffffffffffffffffffffffffffff9091166004820152602401610442565b600480546003546040517fa9059cbb00000000000000000000000000000000000000000000000000000000815273ffffffffffffffffffffffffffffffffffffffff9182169381019390935260248301849052169063a9059cbb906044016020604051808303816000875af1158015610ade573d6000803e3d6000fd5b505050506040513d601f19601f82011682018060405250810190610b0291906113d7565b610b38576040517f65edbc9100000000000000000000000000000000000000000000000000000000815260040160405180910390fd5b50505b7f55bc76655fa95a7bc9068ab071cd51430123d180c791be8584b21c98e33c8aa581610b68576003610b6b565b60025b600580547fffffffffffffffffffffffffffffffffffffffffffffffffffffffffffffff00166001836003811115610ba557610ba5611367565b02179055604051610bb69190611396565b60405180910390a150565b60606000610bd1600a8585611000565b915091509250929050565b60055460039060ff1681811115610bf557610bf5611367565b816003811115610c0757610c07611367565b14610c3e576040517f9a36fd9c00000000000000000000000000000000000000000000000000000000815260040160405180910390fd5b610c49600983611121565b610c97576040517f7dfd2ced00000000000000000000000000000000000000000000000000000000815273ffffffffffffffffffffffffffffffffffffffff83166004820152602401610442565b73ffffffffffffffffffffffffffffffffffffffff82166000908152600c602052604090205460ff1615610cf7576040517f357d0cc400000000000000000000000000000000000000000000000000000000815260040160405180910390fd5b73ffffffffffffffffffffffffffffffffffffffff8281166000818152600c6020908152604080832080547fffffffffffffffffffffffffffffffffffffffffffffffffffffffffffffff0016600117905560048054600b909352928190205490517fa9059cbb00000000000000000000000000000000000000000000000000000000815292830193909352602482019290925291169063a9059cbb906044016020604051808303816000875af1158015610db6573d6000803e3d6000fd5b505050506040513d601f19601f82011682018060405250810190610dda91906113d7565b610e10576040517f65edbc9100000000000000000000000000000000000000000000000000000000815260040160405180910390fd5b5050565b600080610e2286868661119d565b90506001836002811115610e3857610e38611367565b148015610e55575060008480610e5057610e5061146b565b868809115b15610e6857610e65600182611453565b90505b95945050505050565b6002546040517fa230c52400000000000000000000000000000000000000000000000000000000815273ffffffffffffffffffffffffffffffffffffffff8381166004830152600092169063a230c52490602401602060405180830381865afa158015610ee2573d6000803e3d6000fd5b505050506040513d601f19601f82011682018060405250810190610f0691906113d7565b92915050565b6000610f188484611121565b9050818015610f245750805b15610f2f5750505050565b8015610f97576040517f08c379a000000000000000000000000000000000000000000000000000000000815260206004820152601660248201527f4164647265737320616c726561647920696e20736574000000000000000000006044820152606401610442565b50506001808301805473ffffffffffffffffffffffffffffffffffffffff909316600081815260209586526040812085905592840182559082529290200180547fffffffffffffffffffffffff0000000000000000000000000000000000000000169091179055565b6060600080848680549050611015919061143c565b8411611021578361102e565b855461102e90869061143c565b905060008167ffffffffffffffff81111561104b5761104b61149a565b604051908082528060200260200182016040528015611074578160200160208202803683370190505b50905060005b82811015611107578761108d8289611453565b8154811061109d5761109d6114c9565b9060005260206000200160009054906101000a900473ffffffffffffffffffffffffffffffffffffffff168282815181106110da576110da6114c9565b73ffffffffffffffffffffffffffffffffffffffff9092166020928302919091019091015260010161107a565b50806111138388611453565b935093505050935093915050565b6001820154600090156111935773ffffffffffffffffffffffffffffffffffffffff8216600081815260208590526040902054600185018054909190811061116b5761116b6114c9565b60009182526020909120015473ffffffffffffffffffffffffffffffffffffffff1614611196565b60005b9392505050565b600080807fffffffffffffffffffffffffffffffffffffffffffffffffffffffffffffffff85870985870292508281108382030391505080600014156111f6578382816111ec576111ec61146b565b0492505050611196565b80841161120257600080fd5b600084868809600260036001881981018916988990049182028318808302840302808302840302808302840302808302840302808302840302918202909203026000889003889004909101858311909403939093029303949094049190911702949350505050565b60006020828403121561127c57600080fd5b5035919050565b60006020828403121561129557600080fd5b813573ffffffffffffffffffffffffffffffffffffffff8116811461119657600080fd5b80151581146112c757600080fd5b50565b6000602082840312156112dc57600080fd5b8135611196816112b9565b600080604083850312156112fa57600080fd5b50508035926020909101359150565b604080825283519082018190526000906020906060840190828701845b8281101561135857815173ffffffffffffffffffffffffffffffffffffffff1684529284019290840190600101611326565b50505092019290925292915050565b7f4e487b7100000000000000000000000000000000000000000000000000000000600052602160045260246000fd5b60208101600483106113d1577f4e487b7100000000000000000000000000000000000000000000000000000000600052602160045260246000fd5b91905290565b6000602082840312156113e957600080fd5b8151611196816112b9565b60006020828403121561140657600080fd5b5051919050565b7f4e487b7100000000000000000000000000000000000000000000000000000000600052601160045260246000fd5b60008282101561144e5761144e61140d565b500390565b600082198211156114665761146661140d565b500190565b7f4e487b7100000000000000000000000000000000000000000000000000000000600052601260045260246000fd5b7f4e487b7100000000000000000000000000000000000000000000000000000000600052604160045260246000fd5b7f4e487b7100000000000000000000000000000000000000000000000000000000600052603260045260246000fdfea264697066735822122029fd83be5cf8533bc245d0d50576d5b197b596bc131f3624db9617983235bb2b64736f6c634300080a0033a2646970667358221220ffc54b65aaa40f74580f84bad4cb2668e9d0c8fcfab6c52054dfde4e1de3d48064736f6c634300080a0033",
  "linkReferences": {},
  "deployedLinkReferences": {}
}