{
  "_format": "hh-sol-artifact-1",
  "contractName": "FastDistributionsFacet",
  "sourceName": "contracts/fast/FastDistributionsFacet.sol",
  "abi": [
    {
      "inputs": [
        {
          "internalType": "uint256",
          "name": "amount",
          "type": "uint256"
        }
      ],
      "name": "InsufficientFunds",
      "type": "error"
    },
    {
      "inputs": [
        {
          "internalType": "address",
          "name": "who",
          "type": "address"
        }
      ],
      "name": "RequiresFastMembership",
      "type": "error"
    },
    {
      "inputs": [],
      "name": "TokenContractError",
      "type": "error"
    },
    {
      "anonymous": false,
      "inputs": [
        {
          "indexed": true,
          "internalType": "address",
          "name": "owner",
          "type": "address"
        },
        {
          "indexed": true,
          "internalType": "address",
          "name": "spender",
          "type": "address"
        },
        {
          "indexed": false,
          "internalType": "uint256",
          "name": "value",
          "type": "uint256"
        }
      ],
      "name": "Approval",
      "type": "event"
    },
    {
      "anonymous": false,
      "inputs": [
        {
          "indexed": true,
          "internalType": "uint256",
          "name": "amount",
          "type": "uint256"
        },
        {
          "indexed": true,
          "internalType": "string",
          "name": "ref",
          "type": "string"
        },
        {
          "indexed": true,
          "internalType": "address",
          "name": "who",
          "type": "address"
        }
      ],
      "name": "Burnt",
      "type": "event"
    },
    {
      "anonymous": false,
      "inputs": [
        {
          "indexed": true,
          "internalType": "contract Crowdfund",
          "name": "crowdfund",
          "type": "address"
        }
      ],
      "name": "CrowdfundDeployed",
      "type": "event"
    },
    {
      "anonymous": false,
      "inputs": [
        {
          "indexed": false,
          "internalType": "bool",
          "name": "transfersDisabled",
          "type": "bool"
        },
        {
          "indexed": false,
          "internalType": "uint256",
          "name": "memberCount",
          "type": "uint256"
        },
        {
          "indexed": false,
          "internalType": "uint256",
          "name": "governorCount",
          "type": "uint256"
        },
        {
          "indexed": false,
          "internalType": "uint256",
          "name": "totalSupply",
          "type": "uint256"
        },
        {
          "indexed": false,
          "internalType": "uint256",
          "name": "reserveBalance",
          "type": "uint256"
        }
      ],
      "name": "DetailsChanged",
      "type": "event"
    },
    {
      "anonymous": false,
      "inputs": [
        {
          "indexed": true,
          "internalType": "address",
          "name": "owner",
          "type": "address"
        },
        {
          "indexed": true,
          "internalType": "address",
          "name": "spender",
          "type": "address"
        },
        {
          "indexed": false,
          "internalType": "uint256",
          "name": "value",
          "type": "uint256"
        }
      ],
      "name": "Disapproval",
      "type": "event"
    },
    {
      "anonymous": false,
      "inputs": [
        {
          "indexed": true,
          "internalType": "contract Distribution",
          "name": "distribution",
          "type": "address"
        }
      ],
      "name": "DistributionDeployed",
      "type": "event"
    },
    {
      "anonymous": false,
      "inputs": [
        {
          "indexed": true,
          "internalType": "address",
          "name": "spender",
          "type": "address"
        },
        {
          "indexed": true,
          "internalType": "address",
          "name": "from",
          "type": "address"
        },
        {
          "indexed": true,
          "internalType": "address",
          "name": "to",
          "type": "address"
        },
        {
          "indexed": false,
          "internalType": "uint256",
          "name": "value",
          "type": "uint256"
        },
        {
          "indexed": false,
          "internalType": "string",
          "name": "ref",
          "type": "string"
        }
      ],
      "name": "FastTransfer",
      "type": "event"
    },
    {
      "anonymous": false,
      "inputs": [
        {
          "indexed": true,
          "internalType": "uint256",
          "name": "amount",
          "type": "uint256"
        },
        {
          "indexed": true,
          "internalType": "string",
          "name": "ref",
          "type": "string"
        },
        {
          "indexed": true,
          "internalType": "address",
          "name": "who",
          "type": "address"
        }
      ],
      "name": "Minted",
      "type": "event"
    },
    {
      "anonymous": false,
      "inputs": [
        {
          "indexed": true,
          "internalType": "address",
          "name": "from",
          "type": "address"
        },
        {
          "indexed": true,
          "internalType": "address",
          "name": "to",
          "type": "address"
        },
        {
          "indexed": false,
          "internalType": "uint256",
          "name": "value",
          "type": "uint256"
        }
      ],
      "name": "Transfer",
      "type": "event"
    },
    {
      "inputs": [
        {
          "internalType": "contract IERC20",
          "name": "token",
          "type": "address"
        },
        {
          "internalType": "uint256",
          "name": "total",
          "type": "uint256"
        },
        {
          "internalType": "uint256",
          "name": "blockLatch",
          "type": "uint256"
        }
      ],
      "name": "createDistribution",
      "outputs": [],
      "stateMutability": "nonpayable",
      "type": "function"
    },
    {
      "inputs": [],
      "name": "distributionCount",
      "outputs": [
        {
          "internalType": "uint256",
          "name": "",
          "type": "uint256"
        }
      ],
      "stateMutability": "view",
      "type": "function"
    },
    {
      "inputs": [
        {
          "internalType": "uint256",
          "name": "index",
          "type": "uint256"
        },
        {
          "internalType": "uint256",
          "name": "perPage",
          "type": "uint256"
        }
      ],
      "name": "paginateDistributions",
      "outputs": [
        {
          "internalType": "address[]",
          "name": "",
          "type": "address[]"
        },
        {
          "internalType": "uint256",
          "name": "",
          "type": "uint256"
        }
      ],
      "stateMutability": "view",
      "type": "function"
    }
  ],
  "bytecode": "0x608060405234801561001057600080fd5b50612c5f806100206000396000f3fe608060405234801561001057600080fd5b50600436106100415760003560e01c806335f86a3614610046578063525d5ebf1461005b578063c65c3d9514610085575b600080fd5b610059610054366004610885565b6100b5565b005b61006e6100693660046108ba565b610588565b60405161007c9291906108dc565b60405180910390f35b7fe865e85b076245a187a9d3cc15c47264cd0b46df4afd899817bd2e16523485af5460405190815260200161007c565b6040517fa230c524000000000000000000000000000000000000000000000000000000008152336004820181905290309063a230c52490602401602060405180830381865afa15801561010c573d6000803e3d6000fd5b505050506040513d601f19601f82011682018060405250810190610130919061093a565b610183576040517fb8c6719e00000000000000000000000000000000000000000000000000000000815273ffffffffffffffffffffffffffffffffffffffff821660048201526024015b60405180910390fd5b6040517fdd62ed3e00000000000000000000000000000000000000000000000000000000815233600482015230602482015260009073ffffffffffffffffffffffffffffffffffffffff86169063dd62ed3e90604401602060405180830381865afa1580156101f6573d6000803e3d6000fd5b505050506040513d601f19601f8201168201806040525081019061021a919061095c565b9050838110156102635761022e81856109a4565b6040517fcb78cce200000000000000000000000000000000000000000000000000000000815260040161017a91815260200190565b60006040518060c001604052803373ffffffffffffffffffffffffffffffffffffffff1681526020013073ffffffffffffffffffffffffffffffffffffffff1663a63234e06040518163ffffffff1660e01b8152600401602060405180830381865afa1580156102d7573d6000803e3d6000fd5b505050506040513d601f19601f820116820180604052508101906102fb91906109bb565b73ffffffffffffffffffffffffffffffffffffffff1681526020013073ffffffffffffffffffffffffffffffffffffffff1681526020018773ffffffffffffffffffffffffffffffffffffffff1681526020018581526020018681525060405161036490610853565b815173ffffffffffffffffffffffffffffffffffffffff9081168252602080840151821690830152604080840151821690830152606080840151909116908201526080808301519082015260a0918201519181019190915260c001604051809103906000f0801580156103db573d6000803e3d6000fd5b50905061040a7fe865e85b076245a187a9d3cc15c47264cd0b46df4afd899817bd2e16523485ae8260006105c2565b6040517f23b872dd00000000000000000000000000000000000000000000000000000000815233600482015273ffffffffffffffffffffffffffffffffffffffff8281166024830152604482018790528716906323b872dd906064016020604051808303816000875af1158015610485573d6000803e3d6000fd5b505050506040513d601f19601f820116820180604052508101906104a9919061093a565b6104df576040517f65edbc9100000000000000000000000000000000000000000000000000000000815260040160405180910390fd5b8073ffffffffffffffffffffffffffffffffffffffff166340ea2c986040518163ffffffff1660e01b8152600401600060405180830381600087803b15801561052757600080fd5b505af115801561053b573d6000803e3d6000fd5b505060405173ffffffffffffffffffffffffffffffffffffffff841692507f15b37087a94256af50a718155a21819a86e5c016f741e06074455fbc02fb54269150600090a2505050505050565b606060006105b77fe865e85b076245a187a9d3cc15c47264cd0b46df4afd899817bd2e16523485af85856106b6565b915091509250929050565b60006105ce84846107d7565b90508180156105da5750805b156105e55750505050565b801561064d576040517f08c379a000000000000000000000000000000000000000000000000000000000815260206004820152601660248201527f4164647265737320616c726561647920696e2073657400000000000000000000604482015260640161017a565b50506001808301805473ffffffffffffffffffffffffffffffffffffffff909316600081815260209586526040812085905592840182559082529290200180547fffffffffffffffffffffffff0000000000000000000000000000000000000000169091179055565b60606000808486805490506106cb91906109a4565b84116106d757836106e4565b85546106e49086906109a4565b905060008167ffffffffffffffff811115610701576107016109d8565b60405190808252806020026020018201604052801561072a578160200160208202803683370190505b50905060005b828110156107bd57876107438289610a07565b8154811061075357610753610a1f565b9060005260206000200160009054906101000a900473ffffffffffffffffffffffffffffffffffffffff1682828151811061079057610790610a1f565b73ffffffffffffffffffffffffffffffffffffffff90921660209283029190910190910152600101610730565b50806107c98388610a07565b935093505050935093915050565b6001820154600090156108495773ffffffffffffffffffffffffffffffffffffffff8216600081815260208590526040902054600185018054909190811061082157610821610a1f565b60009182526020909120015473ffffffffffffffffffffffffffffffffffffffff161461084c565b60005b9392505050565b6121db80610a4f83390190565b73ffffffffffffffffffffffffffffffffffffffff8116811461088257600080fd5b50565b60008060006060848603121561089a57600080fd5b83356108a581610860565b95602085013595506040909401359392505050565b600080604083850312156108cd57600080fd5b50508035926020909101359150565b604080825283519082018190526000906020906060840190828701845b8281101561092b57815173ffffffffffffffffffffffffffffffffffffffff16845292840192908401906001016108f9565b50505092019290925292915050565b60006020828403121561094c57600080fd5b8151801515811461084c57600080fd5b60006020828403121561096e57600080fd5b5051919050565b7f4e487b7100000000000000000000000000000000000000000000000000000000600052601160045260246000fd5b6000828210156109b6576109b6610975565b500390565b6000602082840312156109cd57600080fd5b815161084c81610860565b7f4e487b7100000000000000000000000000000000000000000000000000000000600052604160045260246000fd5b60008219821115610a1a57610a1a610975565b500190565b7f4e487b7100000000000000000000000000000000000000000000000000000000600052603260045260246000fdfe60806040526006805460ff191690553480156200001b57600080fd5b50604051620021db380380620021db8339810160408190526200003e916200011c565b4381608001511062000084576040516319cbe44b60e01b815260206004820152600a6024820152690c4d8dec6d698c2e8c6d60b31b604482015260640160405180910390fd5b8051600080546001600160a01b039283166001600160a01b031991821617909155602083015160018054918416918316919091179055604083015160028054918416918316919091179055606083015160038054919093169116179055608081015160045560a00151600581905560095543600755620001c7565b80516001600160a01b03811681146200011757600080fd5b919050565b600060c082840312156200012f57600080fd5b60405160c081016001600160401b03811182821017156200016057634e487b7160e01b600052604160045260246000fd5b6040526200016e83620000ff565b81526200017e60208401620000ff565b60208201526200019160408401620000ff565b6040820152620001a460608401620000ff565b60608201526080830151608082015260a083015160a08201528091505092915050565b61200480620001d76000396000f3fe608060405234801561001057600080fd5b506004361061011a5760003560e01c8063a9610655116100b2578063ddca3f4311610081578063fb67537d11610066578063fb67537d146102a4578063ffa1ad74146102c4578063ffa1cead146102df57600080fd5b8063ddca3f4314610293578063e91a3a1b1461029c57600080fd5b8063a9610655146101c9578063b1c9fe6e146101dc578063c76a890c146101f6578063cff0ab961461020957600080fd5b806348a0d754116100ee57806348a0d7541461017257806351cff8d91461017b5780636ef610921461018e578063734b2a7c146101c157600080fd5b80622bda361461011f5780630c08bf8814610149578063176345141461015357806340ea2c981461016a575b600080fd5b61013261012d366004611bc7565b6102f2565b604051610140929190611be9565b60405180910390f35b61015161030e565b005b61015c60075481565b604051908152602001610140565b61015161061a565b61015c60095481565b610151610189366004611c70565b61083f565b6101b161019c366004611c70565b600d6020526000908152604090205460ff1681565b6040519015158152602001610140565b600b5461015c565b6101516101d7366004611cd0565b610ac5565b6006546101e99060ff1681565b6040516101409190611d6b565b610151610204366004611ddb565b610f23565b6000546001546002546003546004546005546102449573ffffffffffffffffffffffffffffffffffffffff9081169581169481169316919086565b6040805173ffffffffffffffffffffffffffffffffffffffff978816815295871660208701529386169385019390935293166060830152608082019290925260a081019190915260c001610140565b61015c60085481565b6101516111cd565b61015c6102b2366004611c70565b600c6020526000908152604090205481565b6102cc600281565b60405161ffff9091168152602001610140565b6101516102ed366004611ebe565b61151c565b60606000610302600b858561175e565b915091505b9250929050565b6001546040517fa230c52400000000000000000000000000000000000000000000000000000000815233600482015273ffffffffffffffffffffffffffffffffffffffff9091169063a230c52490602401602060405180830381865afa15801561037c573d6000803e3d6000fd5b505050506040513d601f19601f820116820180604052508101906103a09190611ed7565b1580156104435750600280546040517f617b0b9d000000000000000000000000000000000000000000000000000000008152336004820152602481019290925273ffffffffffffffffffffffffffffffffffffffff169063617b0b9d90604401602060405180830381865afa15801561041d573d6000803e3d6000fd5b505050506040513d601f19601f820116820180604052508101906104419190611ed7565b155b1561047a576040517f69cd62ef00000000000000000000000000000000000000000000000000000000815260040160405180910390fd5b600680547fffffffffffffffffffffffffffffffffffffffffffffffffffffffffffffff001660049081179091556040517f55bc76655fa95a7bc9068ab071cd51430123d180c791be8584b21c98e33c8aa5916104d691611d6b565b60405180910390a16000600981905560035490546040517f70a0823100000000000000000000000000000000000000000000000000000000815230600482015273ffffffffffffffffffffffffffffffffffffffff9283169263a9059cbb92169083906370a0823190602401602060405180830381865afa15801561055f573d6000803e3d6000fd5b505050506040513d601f19601f820116820180604052508101906105839190611ef9565b6040517fffffffff0000000000000000000000000000000000000000000000000000000060e085901b16815273ffffffffffffffffffffffffffffffffffffffff909216600483015260248201526044016020604051808303816000875af11580156105f3573d6000803e3d6000fd5b505050506040513d601f19601f820116820180604052508101906106179190611ed7565b50565b60065460009060ff16600481111561063457610634611d3c565b81600481111561064657610646611d3c565b1461067d576040517f9a36fd9c00000000000000000000000000000000000000000000000000000000815260040160405180910390fd5b60025473ffffffffffffffffffffffffffffffffffffffff1633146106ce576040517f739e0d5700000000000000000000000000000000000000000000000000000000815260040160405180910390fd5b6003546040517f70a0823100000000000000000000000000000000000000000000000000000000815230600482015260009173ffffffffffffffffffffffffffffffffffffffff16906370a0823190602401602060405180830381865afa15801561073d573d6000803e3d6000fd5b505050506040513d601f19601f820116820180604052508101906107619190611ef9565b60055490915081146107d4576040517f19cbe44b00000000000000000000000000000000000000000000000000000000815260206004820152600760248201527f62616c616e63650000000000000000000000000000000000000000000000000060448201526064015b60405180910390fd5b600680547f55bc76655fa95a7bc9068ab071cd51430123d180c791be8584b21c98e33c8aa5916001917fffffffffffffffffffffffffffffffffffffffffffffffffffffffffffffff001682805b021790556040516108339190611d6b565b60405180910390a15050565b60065460039060ff16600481111561085957610859611d3c565b81600481111561086b5761086b611d3c565b146108a2576040517f9a36fd9c00000000000000000000000000000000000000000000000000000000815260040160405180910390fd5b6108ad600a8361187f565b6108fb576040517ffce398aa00000000000000000000000000000000000000000000000000000000815273ffffffffffffffffffffffffffffffffffffffff831660048201526024016107cb565b73ffffffffffffffffffffffffffffffffffffffff82166000908152600d602052604090205460ff161561095b576040517f357d0cc400000000000000000000000000000000000000000000000000000000815260040160405180910390fd5b73ffffffffffffffffffffffffffffffffffffffff8281166000818152600c6020908152604080832054600d9092529182902080547fffffffffffffffffffffffffffffffffffffffffffffffffffffffffffffff0016600117905560035491517fa9059cbb00000000000000000000000000000000000000000000000000000000815260048101939093526024830181905292169063a9059cbb906044016020604051808303816000875af1158015610a19573d6000803e3d6000fd5b505050506040513d601f19601f82011682018060405250810190610a3d9190611ed7565b610a73576040517f65edbc9100000000000000000000000000000000000000000000000000000000815260040160405180910390fd5b60405181815273ffffffffffffffffffffffffffffffffffffffff84169033907f2717ead6b9200dd235aad468c9809ea400fe33ac69b5bfaa6d3e90fc922b63989060200160405180910390a3505050565b60065460029060ff166004811115610adf57610adf611d3c565b816004811115610af157610af1611d3c565b14610b28576040517f9a36fd9c00000000000000000000000000000000000000000000000000000000815260040160405180910390fd5b6001546040517fa230c52400000000000000000000000000000000000000000000000000000000815233600482015273ffffffffffffffffffffffffffffffffffffffff9091169063a230c52490602401602060405180830381865afa158015610b96573d6000803e3d6000fd5b505050506040513d601f19601f82011682018060405250810190610bba9190611ed7565b158015610c5d5750600280546040517f617b0b9d000000000000000000000000000000000000000000000000000000008152336004820152602481019290925273ffffffffffffffffffffffffffffffffffffffff169063617b0b9d90604401602060405180830381865afa158015610c37573d6000803e3d6000fd5b505050506040513d601f19601f82011682018060405250810190610c5b9190611ed7565b155b15610c94576040517f69cd62ef00000000000000000000000000000000000000000000000000000000815260040160405180910390fd5b838214610cfd576040517f19cbe44b00000000000000000000000000000000000000000000000000000000815260206004820152600760248201527f6c656e677468730000000000000000000000000000000000000000000000000060448201526064016107cb565b6000805b85811015610ec5576000878783818110610d1d57610d1d611f12565b9050602002016020810190610d329190611c70565b90506000868684818110610d4857610d48611f12565b6002546040517fa230c52400000000000000000000000000000000000000000000000000000000815273ffffffffffffffffffffffffffffffffffffffff878116600483015260209390930294909401359450169163a230c5249150602401602060405180830381865afa158015610dc4573d6000803e3d6000fd5b505050506040513d601f19601f82011682018060405250810190610de89190611ed7565b610e36576040517fb8c6719e00000000000000000000000000000000000000000000000000000000815273ffffffffffffffffffffffffffffffffffffffff831660048201526024016107cb565b610e43600a8360006118fb565b73ffffffffffffffffffffffffffffffffffffffff82166000908152600c60205260409020819055610e758185611f70565b9350808273ffffffffffffffffffffffffffffffffffffffff167fe6b83177f11971ba30369bb38b914ffba97d5969a3c857b286fa8fdbb150b3ba60405160405180910390a35050600101610d01565b50806009541015610f1257600954610edd9082611f88565b6040517fcb78cce20000000000000000000000000000000000000000000000000000000081526004016107cb91815260200190565b600980549190910390555050505050565b60065460029060ff166004811115610f3d57610f3d611d3c565b816004811115610f4f57610f4f611d3c565b14610f86576040517f9a36fd9c00000000000000000000000000000000000000000000000000000000815260040160405180910390fd5b6001546040517fa230c52400000000000000000000000000000000000000000000000000000000815233600482015273ffffffffffffffffffffffffffffffffffffffff9091169063a230c52490602401602060405180830381865afa158015610ff4573d6000803e3d6000fd5b505050506040513d601f19601f820116820180604052508101906110189190611ed7565b1580156110bb5750600280546040517f617b0b9d000000000000000000000000000000000000000000000000000000008152336004820152602481019290925273ffffffffffffffffffffffffffffffffffffffff169063617b0b9d90604401602060405180830381865afa158015611095573d6000803e3d6000fd5b505050506040513d601f19601f820116820180604052508101906110b99190611ed7565b155b156110f2576040517f69cd62ef00000000000000000000000000000000000000000000000000000000815260040160405180910390fd5b60005b82518110156111c857600083828151811061111257611112611f12565b60200260200101519050611133816000600a6119ef9092919063ffffffff16565b73ffffffffffffffffffffffffffffffffffffffff81166000908152600c6020526040812054600980549192909161116c908490611f70565b909155505073ffffffffffffffffffffffffffffffffffffffff81166000818152600c6020526040808220829055517f72977dad29432f655f11c2f0e72ef5124bb9ade7a512fb7a43a9f504df2234289190a2506001016110f5565b505050565b60065460029060ff1660048111156111e7576111e7611d3c565b8160048111156111f9576111f9611d3c565b14611230576040517f9a36fd9c00000000000000000000000000000000000000000000000000000000815260040160405180910390fd5b6001546040517fa230c52400000000000000000000000000000000000000000000000000000000815233600482015273ffffffffffffffffffffffffffffffffffffffff9091169063a230c52490602401602060405180830381865afa15801561129e573d6000803e3d6000fd5b505050506040513d601f19601f820116820180604052508101906112c29190611ed7565b1580156113655750600280546040517f617b0b9d000000000000000000000000000000000000000000000000000000008152336004820152602481019290925273ffffffffffffffffffffffffffffffffffffffff169063617b0b9d90604401602060405180830381865afa15801561133f573d6000803e3d6000fd5b505050506040513d601f19601f820116820180604052508101906113639190611ed7565b155b1561139c576040517f69cd62ef00000000000000000000000000000000000000000000000000000000815260040160405180910390fd5b600954156113dc576009546040517f7a1b34be0000000000000000000000000000000000000000000000000000000081526004016107cb91815260200190565b6003546001546008546040517fa9059cbb00000000000000000000000000000000000000000000000000000000815273ffffffffffffffffffffffffffffffffffffffff9283166004820152602481019190915291169063a9059cbb906044016020604051808303816000875af115801561145b573d6000803e3d6000fd5b505050506040513d601f19601f8201168201806040525081019061147f9190611ed7565b6114b5576040517f65edbc9100000000000000000000000000000000000000000000000000000000815260040160405180910390fd5b600680547fffffffffffffffffffffffffffffffffffffffffffffffffffffffffffffff001660039081179091556040517f55bc76655fa95a7bc9068ab071cd51430123d180c791be8584b21c98e33c8aa59161151191611d6b565b60405180910390a150565b60065460019060ff16600481111561153657611536611d3c565b81600481111561154857611548611d3c565b1461157f576040517f9a36fd9c00000000000000000000000000000000000000000000000000000000815260040160405180910390fd5b6001546040517fa230c52400000000000000000000000000000000000000000000000000000000815233600482015273ffffffffffffffffffffffffffffffffffffffff9091169063a230c52490602401602060405180830381865afa1580156115ed573d6000803e3d6000fd5b505050506040513d601f19601f820116820180604052508101906116119190611ed7565b1580156116b45750600280546040517f617b0b9d000000000000000000000000000000000000000000000000000000008152336004820152602481019290925273ffffffffffffffffffffffffffffffffffffffff169063617b0b9d90604401602060405180830381865afa15801561168e573d6000803e3d6000fd5b505050506040513d601f19601f820116820180604052508101906116b29190611ed7565b155b156116eb576040517f69cd62ef00000000000000000000000000000000000000000000000000000000815260040160405180910390fd5b81600881905550600854600960008282546117069190611f88565b9091555050600680547f55bc76655fa95a7bc9068ab071cd51430123d180c791be8584b21c98e33c8aa5916002917fffffffffffffffffffffffffffffffffffffffffffffffffffffffffffffff0016600183610822565b60606000808486805490506117739190611f88565b841161177f578361178c565b855461178c908690611f88565b905060008167ffffffffffffffff8111156117a9576117a9611dac565b6040519080825280602002602001820160405280156117d2578160200160208202803683370190505b50905060005b8281101561186557876117eb8289611f70565b815481106117fb576117fb611f12565b9060005260206000200160009054906101000a900473ffffffffffffffffffffffffffffffffffffffff1682828151811061183857611838611f12565b73ffffffffffffffffffffffffffffffffffffffff909216602092830291909101909101526001016117d8565b50806118718388611f70565b935093505050935093915050565b6001820154600090156118f15773ffffffffffffffffffffffffffffffffffffffff821660008181526020859052604090205460018501805490919081106118c9576118c9611f12565b60009182526020909120015473ffffffffffffffffffffffffffffffffffffffff16146118f4565b60005b9392505050565b6000611907848461187f565b90508180156119135750805b1561191e5750505050565b8015611986576040517f08c379a000000000000000000000000000000000000000000000000000000000815260206004820152601660248201527f4164647265737320616c726561647920696e207365740000000000000000000060448201526064016107cb565b50506001808301805473ffffffffffffffffffffffffffffffffffffffff909316600081815260209586526040812085905592840182559082529290200180547fffffffffffffffffffffffff0000000000000000000000000000000000000000169091179055565b60006119fb848461187f565b9050818015611a08575080155b15611a135750505050565b80611a7a576040517f08c379a000000000000000000000000000000000000000000000000000000000815260206004820152601d60248201527f4164647265737320646f6573206e6f7420657869737420696e2073657400000060448201526064016107cb565b60018085018054600092611a8d91611f88565b81548110611a9d57611a9d611f12565b600091825260208083209091015473ffffffffffffffffffffffffffffffffffffffff878116845291889052604080842054929091168084529220819055600187018054929350909183919083908110611af957611af9611f12565b600091825260208083209190910180547fffffffffffffffffffffffff00000000000000000000000000000000000000001673ffffffffffffffffffffffffffffffffffffffff948516179055918716815290879052604081205560018601805480611b6757611b67611f9f565b60008281526020902081017fffffffffffffffffffffffffffffffffffffffffffffffffffffffffffffffff90810180547fffffffffffffffffffffffff0000000000000000000000000000000000000000169055019055505050505050565b60008060408385031215611bda57600080fd5b50508035926020909101359150565b604080825283519082018190526000906020906060840190828701845b82811015611c3857815173ffffffffffffffffffffffffffffffffffffffff1684529284019290840190600101611c06565b50505092019290925292915050565b803573ffffffffffffffffffffffffffffffffffffffff81168114611c6b57600080fd5b919050565b600060208284031215611c8257600080fd5b6118f482611c47565b60008083601f840112611c9d57600080fd5b50813567ffffffffffffffff811115611cb557600080fd5b6020830191508360208260051b850101111561030757600080fd5b60008060008060408587031215611ce657600080fd5b843567ffffffffffffffff80821115611cfe57600080fd5b611d0a88838901611c8b565b90965094506020870135915080821115611d2357600080fd5b50611d3087828801611c8b565b95989497509550505050565b7f4e487b7100000000000000000000000000000000000000000000000000000000600052602160045260246000fd5b6020810160058310611da6577f4e487b7100000000000000000000000000000000000000000000000000000000600052602160045260246000fd5b91905290565b7f4e487b7100000000000000000000000000000000000000000000000000000000600052604160045260246000fd5b60006020808385031215611dee57600080fd5b823567ffffffffffffffff80821115611e0657600080fd5b818501915085601f830112611e1a57600080fd5b813581811115611e2c57611e2c611dac565b8060051b6040517fffffffffffffffffffffffffffffffffffffffffffffffffffffffffffffffe0603f83011681018181108582111715611e6f57611e6f611dac565b604052918252848201925083810185019188831115611e8d57600080fd5b938501935b82851015611eb257611ea385611c47565b84529385019392850192611e92565b98975050505050505050565b600060208284031215611ed057600080fd5b5035919050565b600060208284031215611ee957600080fd5b815180151581146118f457600080fd5b600060208284031215611f0b57600080fd5b5051919050565b7f4e487b7100000000000000000000000000000000000000000000000000000000600052603260045260246000fd5b7f4e487b7100000000000000000000000000000000000000000000000000000000600052601160045260246000fd5b60008219821115611f8357611f83611f41565b500190565b600082821015611f9a57611f9a611f41565b500390565b7f4e487b7100000000000000000000000000000000000000000000000000000000600052603160045260246000fdfea264697066735822122046c4a74b0a35c9b14440dfd10ffcbc1ead335ca2c7a54f05ff0041c615f6036a64736f6c634300080a0033a2646970667358221220b6c7b27493c7b06a1ebda167c328bacc1002016b90b986e3421b889c9dfd333a64736f6c634300080a0033",
  "linkReferences": {},
  "deployedLinkReferences": {}
}