{
  "_format": "hh-sol-artifact-1",
  "contractName": "FastTokenFacet",
  "sourceName": "contracts/fast/FastTokenFacet.sol",
  "abi": [
    {
      "inputs": [],
      "name": "InternalMethod",
      "type": "error"
    },
    {
      "inputs": [],
      "name": "RequiresContinuousSupply",
      "type": "error"
    },
    {
      "inputs": [
        {
          "internalType": "address",
          "name": "a",
          "type": "address"
        }
      ],
      "name": "RequiresDifferentSenderAndRecipient",
      "type": "error"
    },
    {
      "inputs": [
        {
          "internalType": "address",
          "name": "who",
          "type": "address"
        }
      ],
      "name": "RequiresFastMembership",
      "type": "error"
    },
    {
      "inputs": [
        {
          "internalType": "address",
          "name": "who",
          "type": "address"
        }
      ],
      "name": "RequiresIssuerMembership",
      "type": "error"
    },
    {
      "inputs": [
        {
          "internalType": "address",
          "name": "who",
          "type": "address"
        }
      ],
      "name": "RequiresMarketplaceActiveMembership",
      "type": "error"
    },
    {
      "inputs": [
        {
          "internalType": "address",
          "name": "holder",
          "type": "address"
        }
      ],
      "name": "RequiresPositiveBalance",
      "type": "error"
    },
    {
      "inputs": [],
      "name": "RequiresTransfersEnabled",
      "type": "error"
    },
    {
      "inputs": [
        {
          "internalType": "address",
          "name": "who",
          "type": "address"
        }
      ],
      "name": "RequiresValidTokenHolder",
      "type": "error"
    },
    {
      "inputs": [],
      "name": "UnsupportedOperation",
      "type": "error"
    },
    {
      "anonymous": false,
      "inputs": [
        {
          "indexed": true,
          "internalType": "address",
          "name": "owner",
          "type": "address"
        },
        {
          "indexed": true,
          "internalType": "address",
          "name": "spender",
          "type": "address"
        },
        {
          "indexed": false,
          "internalType": "uint256",
          "name": "value",
          "type": "uint256"
        }
      ],
      "name": "Approval",
      "type": "event"
    },
    {
      "anonymous": false,
      "inputs": [
        {
          "indexed": true,
          "internalType": "uint256",
          "name": "amount",
          "type": "uint256"
        },
        {
          "indexed": true,
          "internalType": "string",
          "name": "ref",
          "type": "string"
        },
        {
          "indexed": true,
          "internalType": "address",
          "name": "who",
          "type": "address"
        }
      ],
      "name": "Burnt",
      "type": "event"
    },
    {
      "anonymous": false,
      "inputs": [
        {
          "indexed": true,
          "internalType": "contract Crowdfund",
          "name": "crowdfund",
          "type": "address"
        }
      ],
      "name": "CrowdfundDeployed",
      "type": "event"
    },
    {
      "anonymous": false,
      "inputs": [
        {
          "indexed": true,
          "internalType": "contract Crowdfund",
          "name": "crowdfund",
          "type": "address"
        }
      ],
      "name": "CrowdfundRemoved",
      "type": "event"
    },
    {
      "anonymous": false,
      "inputs": [
        {
          "indexed": false,
          "internalType": "bool",
          "name": "transfersDisabled",
          "type": "bool"
        },
        {
          "indexed": false,
          "internalType": "uint256",
          "name": "memberCount",
          "type": "uint256"
        },
        {
          "indexed": false,
          "internalType": "uint256",
          "name": "governorCount",
          "type": "uint256"
        },
        {
          "indexed": false,
          "internalType": "uint256",
          "name": "totalSupply",
          "type": "uint256"
        },
        {
          "indexed": false,
          "internalType": "uint256",
          "name": "reserveBalance",
          "type": "uint256"
        }
      ],
      "name": "DetailsChanged",
      "type": "event"
    },
    {
      "anonymous": false,
      "inputs": [
        {
          "indexed": true,
          "internalType": "address",
          "name": "owner",
          "type": "address"
        },
        {
          "indexed": true,
          "internalType": "address",
          "name": "spender",
          "type": "address"
        },
        {
          "indexed": false,
          "internalType": "uint256",
          "name": "value",
          "type": "uint256"
        }
      ],
      "name": "Disapproval",
      "type": "event"
    },
    {
      "anonymous": false,
      "inputs": [
        {
          "indexed": true,
          "internalType": "contract Distribution",
          "name": "distribution",
          "type": "address"
        }
      ],
      "name": "DistributionDeployed",
      "type": "event"
    },
    {
      "anonymous": false,
      "inputs": [
        {
          "indexed": true,
          "internalType": "contract Distribution",
          "name": "distribution",
          "type": "address"
        }
      ],
      "name": "DistributionRemoved",
      "type": "event"
    },
    {
      "anonymous": false,
      "inputs": [
        {
          "indexed": true,
          "internalType": "address",
          "name": "spender",
          "type": "address"
        },
        {
          "indexed": true,
          "internalType": "address",
          "name": "from",
          "type": "address"
        },
        {
          "indexed": true,
          "internalType": "address",
          "name": "to",
          "type": "address"
        },
        {
          "indexed": false,
          "internalType": "uint256",
          "name": "value",
          "type": "uint256"
        },
        {
          "indexed": false,
          "internalType": "string",
          "name": "ref",
          "type": "string"
        }
      ],
      "name": "FastTransfer",
      "type": "event"
    },
    {
      "anonymous": false,
      "inputs": [
        {
          "indexed": true,
          "internalType": "uint256",
          "name": "amount",
          "type": "uint256"
        },
        {
          "indexed": true,
          "internalType": "string",
          "name": "ref",
          "type": "string"
        },
        {
          "indexed": true,
          "internalType": "address",
          "name": "who",
          "type": "address"
        }
      ],
      "name": "Minted",
      "type": "event"
    },
    {
      "anonymous": false,
      "inputs": [
        {
          "indexed": true,
          "internalType": "address",
          "name": "from",
          "type": "address"
        },
        {
          "indexed": true,
          "internalType": "address",
          "name": "to",
          "type": "address"
        },
        {
          "indexed": false,
          "internalType": "uint256",
          "name": "value",
          "type": "uint256"
        }
      ],
      "name": "Transfer",
      "type": "event"
    },
    {
      "inputs": [
        {
          "internalType": "address",
          "name": "owner",
          "type": "address"
        },
        {
          "internalType": "address",
          "name": "spender",
          "type": "address"
        }
      ],
      "name": "allowance",
      "outputs": [
        {
          "internalType": "uint256",
          "name": "",
          "type": "uint256"
        }
      ],
      "stateMutability": "view",
      "type": "function"
    },
    {
      "inputs": [
        {
          "internalType": "address",
          "name": "spender",
          "type": "address"
        },
        {
          "internalType": "uint256",
          "name": "amount",
          "type": "uint256"
        }
      ],
      "name": "approve",
      "outputs": [
        {
          "internalType": "bool",
          "name": "",
          "type": "bool"
        }
      ],
      "stateMutability": "nonpayable",
      "type": "function"
    },
    {
      "inputs": [
        {
          "internalType": "address",
          "name": "owner",
          "type": "address"
        }
      ],
      "name": "balanceOf",
      "outputs": [
        {
          "internalType": "uint256",
          "name": "",
          "type": "uint256"
        }
      ],
      "stateMutability": "view",
      "type": "function"
    },
    {
      "inputs": [
        {
          "internalType": "address",
          "name": "member",
          "type": "address"
        }
      ],
      "name": "beforeRemovingMember",
      "outputs": [],
      "stateMutability": "nonpayable",
      "type": "function"
    },
    {
      "inputs": [
        {
          "internalType": "uint256",
          "name": "amount",
          "type": "uint256"
        },
        {
          "internalType": "string",
          "name": "ref",
          "type": "string"
        }
      ],
      "name": "burn",
      "outputs": [],
      "stateMutability": "nonpayable",
      "type": "function"
    },
    {
      "inputs": [],
      "name": "decimals",
      "outputs": [
        {
          "internalType": "uint256",
          "name": "",
          "type": "uint256"
        }
      ],
      "stateMutability": "view",
      "type": "function"
    },
    {
      "inputs": [
        {
          "internalType": "address",
          "name": "spender",
          "type": "address"
        },
        {
          "internalType": "uint256",
          "name": "amount",
          "type": "uint256"
        }
      ],
      "name": "disapprove",
      "outputs": [
        {
          "internalType": "bool",
          "name": "",
          "type": "bool"
        }
      ],
      "stateMutability": "nonpayable",
      "type": "function"
    },
    {
      "inputs": [
        {
          "internalType": "address",
          "name": "owner",
          "type": "address"
        }
      ],
      "name": "givenAllowanceCount",
      "outputs": [
        {
          "internalType": "uint256",
          "name": "",
          "type": "uint256"
        }
      ],
      "stateMutability": "view",
      "type": "function"
    },
    {
      "inputs": [],
      "name": "holders",
      "outputs": [
        {
          "internalType": "address[]",
          "name": "",
          "type": "address[]"
        }
      ],
      "stateMutability": "view",
      "type": "function"
    },
    {
      "inputs": [
        {
          "internalType": "uint256",
          "name": "amount",
          "type": "uint256"
        },
        {
          "internalType": "string",
          "name": "ref",
          "type": "string"
        }
      ],
      "name": "mint",
      "outputs": [],
      "stateMutability": "nonpayable",
      "type": "function"
    },
    {
      "inputs": [],
      "name": "name",
      "outputs": [
        {
          "internalType": "string",
          "name": "",
          "type": "string"
        }
      ],
      "stateMutability": "view",
      "type": "function"
    },
    {
      "inputs": [
        {
          "internalType": "address",
          "name": "owner",
          "type": "address"
        },
        {
          "internalType": "uint256",
          "name": "index",
          "type": "uint256"
        },
        {
          "internalType": "uint256",
          "name": "perPage",
          "type": "uint256"
        }
      ],
      "name": "paginateAllowancesByOwner",
      "outputs": [
        {
          "internalType": "address[]",
          "name": "",
          "type": "address[]"
        },
        {
          "internalType": "uint256",
          "name": "",
          "type": "uint256"
        }
      ],
      "stateMutability": "view",
      "type": "function"
    },
    {
      "inputs": [
        {
          "internalType": "address",
          "name": "spender",
          "type": "address"
        },
        {
          "internalType": "uint256",
          "name": "index",
          "type": "uint256"
        },
        {
          "internalType": "uint256",
          "name": "perPage",
          "type": "uint256"
        }
      ],
      "name": "paginateAllowancesBySpender",
      "outputs": [
        {
          "internalType": "address[]",
          "name": "",
          "type": "address[]"
        },
        {
          "internalType": "uint256",
          "name": "",
          "type": "uint256"
        }
      ],
      "stateMutability": "view",
      "type": "function"
    },
    {
      "inputs": [
        {
          "internalType": "address",
          "name": "from",
          "type": "address"
        },
        {
          "internalType": "address",
          "name": "spender",
          "type": "address"
        },
        {
          "internalType": "uint256",
          "name": "amount",
          "type": "uint256"
        }
      ],
      "name": "performApproval",
      "outputs": [],
      "stateMutability": "nonpayable",
      "type": "function"
    },
    {
      "inputs": [
        {
          "internalType": "address",
          "name": "from",
          "type": "address"
        },
        {
          "internalType": "address",
          "name": "spender",
          "type": "address"
        },
        {
          "internalType": "uint256",
          "name": "amount",
          "type": "uint256"
        }
      ],
      "name": "performDisapproval",
      "outputs": [],
      "stateMutability": "nonpayable",
      "type": "function"
    },
    {
      "inputs": [
        {
          "components": [
            {
              "internalType": "address",
              "name": "spender",
              "type": "address"
            },
            {
              "internalType": "address",
              "name": "from",
              "type": "address"
            },
            {
              "internalType": "address",
              "name": "to",
              "type": "address"
            },
            {
              "internalType": "uint256",
              "name": "amount",
              "type": "uint256"
            },
            {
              "internalType": "string",
              "name": "ref",
              "type": "string"
            }
          ],
          "internalType": "struct FastTokenFacet.TransferArgs",
          "name": "p",
          "type": "tuple"
        }
      ],
      "name": "performTransfer",
      "outputs": [],
      "stateMutability": "nonpayable",
      "type": "function"
    },
    {
      "inputs": [
        {
          "internalType": "address",
          "name": "spender",
          "type": "address"
        }
      ],
      "name": "receivedAllowanceCount",
      "outputs": [
        {
          "internalType": "uint256",
          "name": "",
          "type": "uint256"
        }
      ],
      "stateMutability": "view",
      "type": "function"
    },
    {
      "inputs": [
        {
          "internalType": "address",
          "name": "holder",
          "type": "address"
        }
      ],
      "name": "retrieveDeadTokens",
      "outputs": [],
      "stateMutability": "nonpayable",
      "type": "function"
    },
    {
      "inputs": [],
      "name": "symbol",
      "outputs": [
        {
          "internalType": "string",
          "name": "",
          "type": "string"
        }
      ],
      "stateMutability": "view",
      "type": "function"
    },
    {
      "inputs": [],
      "name": "totalSupply",
      "outputs": [
        {
          "internalType": "uint256",
          "name": "",
          "type": "uint256"
        }
      ],
      "stateMutability": "view",
      "type": "function"
    },
    {
      "inputs": [
        {
          "internalType": "address",
          "name": "to",
          "type": "address"
        },
        {
          "internalType": "uint256",
          "name": "amount",
          "type": "uint256"
        }
      ],
      "name": "transfer",
      "outputs": [
        {
          "internalType": "bool",
          "name": "",
          "type": "bool"
        }
      ],
      "stateMutability": "nonpayable",
      "type": "function"
    },
    {
      "inputs": [
        {
          "internalType": "address",
          "name": "from",
          "type": "address"
        },
        {
          "internalType": "address",
          "name": "to",
          "type": "address"
        },
        {
          "internalType": "uint256",
          "name": "amount",
          "type": "uint256"
        }
      ],
      "name": "transferFrom",
      "outputs": [
        {
          "internalType": "bool",
          "name": "",
          "type": "bool"
        }
      ],
      "stateMutability": "nonpayable",
      "type": "function"
    },
    {
      "inputs": [
        {
          "internalType": "address",
          "name": "from",
          "type": "address"
        },
        {
          "internalType": "address",
          "name": "to",
          "type": "address"
        },
        {
          "internalType": "uint256",
          "name": "amount",
          "type": "uint256"
        },
        {
          "internalType": "string",
          "name": "ref",
          "type": "string"
        }
      ],
      "name": "transferFromWithRef",
      "outputs": [
        {
          "internalType": "bool",
          "name": "",
          "type": "bool"
        }
      ],
      "stateMutability": "nonpayable",
      "type": "function"
    },
    {
      "inputs": [
        {
          "internalType": "address",
          "name": "to",
          "type": "address"
        },
        {
          "internalType": "uint256",
          "name": "amount",
          "type": "uint256"
        },
        {
          "internalType": "string",
          "name": "ref",
          "type": "string"
        }
      ],
      "name": "transferWithRef",
      "outputs": [
        {
          "internalType": "bool",
          "name": "",
          "type": "bool"
        }
      ],
      "stateMutability": "nonpayable",
      "type": "function"
    }
  ],
  "bytecode": "0x608060405234801561001057600080fd5b50613882806100206000396000f3fe608060405234801561001057600080fd5b50600436106101985760003560e01c806370a08231116100e35780639c999d901161008c578063dd62ed3e11610066578063dd62ed3e1461044f578063e8edd0e314610462578063fbabdb061461047557600080fd5b80639c999d9014610416578063a9059cbb14610429578063c485bb961461043c57600080fd5b80638188f71c116100bd5780638188f71c146103a157806381a8f243146103b657806395d89b411461040e57600080fd5b806370a08231146103265780637641e6f31461037b57806377097fc81461038e57600080fd5b8063313ce567116101455780635480699a1161011f5780635480699a146102ed5780635d7b590f146103005780636bd7bd251461031357600080fd5b8063313ce5671461029b5780633a868224146102c557806344890ae0146102da57600080fd5b806318160ddd1161017657806318160ddd146102405780631fe02e531461026757806323b872dd1461028857600080fd5b806306675ba71461019d57806306fdde0314610208578063095ea7b31461021d575b600080fd5b6101f56101ab3660046130bc565b73ffffffffffffffffffffffffffffffffffffffff1660009081527fb098747b87c5c0e2a32eb9b06725e9bad4263809bcda628ceadc1a686bcb8269602052604090206001015490565b6040519081526020015b60405180910390f35b610210610488565b6040516101ff9190613142565b61023061022b366004613155565b61053c565b60405190151581526020016101ff565b7fb098747b87c5c0e2a32eb9b06725e9bad4263809bcda628ceadc1a686bcb8265546101f5565b61027a61027536600461317f565b6105d7565b6040516101ff929190613203565b610230610296366004613225565b610639565b7fb098747b87c5c0e2a32eb9b06725e9bad4263809bcda628ceadc1a686bcb82645460ff166101f5565b6102d86102d33660046130bc565b610687565b005b6102d86102e8366004613261565b610a40565b6102d86102fb366004613225565b6116dd565b6102d861030e3660046130bc565b61191e565b6102d8610321366004613225565b611c3f565b6101f56103343660046130bc565b73ffffffffffffffffffffffffffffffffffffffff1660009081527fb098747b87c5c0e2a32eb9b06725e9bad4263809bcda628ceadc1a686bcb8267602052604090205490565b6102d86103893660046132e5565b611e08565b6102d861039c3660046132e5565b612055565b6103a9612332565b6040516101ff9190613331565b6101f56103c43660046130bc565b73ffffffffffffffffffffffffffffffffffffffff1660009081527fb098747b87c5c0e2a32eb9b06725e9bad4263809bcda628ceadc1a686bcb826a602052604090206001015490565b6102106123c4565b61027a61042436600461317f565b6123f5565b610230610437366004613155565b61244b565b61023061044a366004613373565b6124f8565b6101f561045d36600461346d565b6125af565b6102306104703660046134a0565b612721565b610230610483366004613155565b612815565b60607fb098747b87c5c0e2a32eb9b06725e9bad4263809bcda628ceadc1a686bcb826160010180546104b9906134fa565b80601f01602080910402602001604051908101604052809291908181526020018280546104e5906134fa565b80156105325780601f1061050757610100808354040283529160200191610532565b820191906000526020600020905b81548152906001019060200180831161051557829003601f168201915b5050505050905090565b6040517f5480699a00000000000000000000000000000000000000000000000000000000815233600482015273ffffffffffffffffffffffffffffffffffffffff83166024820152604481018290526000903090635480699a906064015b600060405180830381600087803b1580156105b457600080fd5b505af11580156105c8573d6000803e3d6000fd5b50505050600190505b92915050565b73ffffffffffffffffffffffffffffffffffffffff831660009081527fb098747b87c5c0e2a32eb9b06725e9bad4263809bcda628ceadc1a686bcb8269602052604081206060919061062d906001018585612976565b91509150935093915050565b600061067c8484846040518060400160405280601781526020017f556e737065636966696564202d207669612045524332300000000000000000008152506124f8565b506001949350505050565b61069033612a97565b6106cd576040517f1dd41c4d0000000000000000000000000000000000000000000000000000000081523360048201526024015b60405180910390fd5b73ffffffffffffffffffffffffffffffffffffffff811660009081527fb098747b87c5c0e2a32eb9b06725e9bad4263809bcda628ceadc1a686bcb826760205260409020547fb098747b87c5c0e2a32eb9b06725e9bad4263809bcda628ceadc1a686bcb8261811561079a5773ffffffffffffffffffffffffffffffffffffffff831660009081526006820160205260408082208290558180528120805484929061077990849061357d565b92505081905550818160040160008282546107949190613595565b90915550505b6107a9600a8201846001612b52565b7f80c187ea6f955fd624c41fb7a18011cc87d98c6f4c06d897b59142f65707e705600101546040517fc2a11fb300000000000000000000000000000000000000000000000000000000815273ffffffffffffffffffffffffffffffffffffffff8581166004830152600060248301529091169063c2a11fb390604401600060405180830381600087803b15801561083f57600080fd5b505af1158015610853573d6000803e3d6000fd5b5050604080518082018252601581527f4465616420746f6b656e732072657472696576616c0000000000000000000000602082015290517feee2dcc300000000000000000000000000000000000000000000000000000000815230935063eee2dcc392506108cd91339188916000918991906004016135ac565b600060405180830381600087803b1580156108e757600080fd5b505af11580156108fb573d6000803e3d6000fd5b5050604080518082018252601581527f4465616420746f6b656e732072657472696576616c0000000000000000000000602082015290516000935073ffffffffffffffffffffffffffffffffffffffff8716925033917fd890e39fdd8907232d28ae76e6ece0a56e47c6ef82d597baf26787fef211d8d59161097e9188916135fe565b60405180910390a460405182815260009073ffffffffffffffffffffffffffffffffffffffff8516907fddf252ad1be2c89b69c2b068fc378daa952ba7f163c4a11628f55a4df523b3ef9060200160405180910390a38115610a3b573073ffffffffffffffffffffffffffffffffffffffff16634f2274c06040518163ffffffff1660e01b8152600401600060405180830381600087803b158015610a2257600080fd5b505af1158015610a36573d6000803e3d6000fd5b505050505b505050565b303314610a79576040517f12e9ad3300000000000000000000000000000000000000000000000000000000815260040160405180910390fd5b60007f80c187ea6f955fd624c41fb7a18011cc87d98c6f4c06d897b59142f65707e70590503073ffffffffffffffffffffffffffffffffffffffff1663034cd7256040518163ffffffff1660e01b8152600401602060405180830381865afa158015610ae9573d6000803e3d6000fd5b505050506040513d601f19601f82011682018060405250810190610b0d919061361f565b15610b44576040517f5bcaa04c00000000000000000000000000000000000000000000000000000000815260040160405180910390fd5b610b5460608301604084016130bc565b73ffffffffffffffffffffffffffffffffffffffff16610b7a60408401602085016130bc565b73ffffffffffffffffffffffffffffffffffffffff161415610bf157610ba660408301602084016130bc565b6040517f6b3dcdc100000000000000000000000000000000000000000000000000000000815273ffffffffffffffffffffffffffffffffffffffff90911660048201526024016106c4565b6000610c0360408401602085016130bc565b73ffffffffffffffffffffffffffffffffffffffff16148015610ce05750805462010000900473ffffffffffffffffffffffffffffffffffffffff1663a230c524610c5160208501856130bc565b6040517fffffffff0000000000000000000000000000000000000000000000000000000060e084901b16815273ffffffffffffffffffffffffffffffffffffffff9091166004820152602401602060405180830381865afa158015610cba573d6000803e3d6000fd5b505050506040513d601f19601f82011682018060405250810190610cde919061361f565b155b15610d3d57610cf260208301836130bc565b6040517f1dd41c4d00000000000000000000000000000000000000000000000000000000815273ffffffffffffffffffffffffffffffffffffffff90911660048201526024016106c4565b610d55610d5060408401602085016130bc565b612d2a565b610db457610d6960408301602084016130bc565b6040517fe4104ebc00000000000000000000000000000000000000000000000000000000815273ffffffffffffffffffffffffffffffffffffffff90911660048201526024016106c4565b6000610dc660408401602085016130bc565b73ffffffffffffffffffffffffffffffffffffffff1614158015610ec157507f80c187ea6f955fd624c41fb7a18011cc87d98c6f4c06d897b59142f65707e7065473ffffffffffffffffffffffffffffffffffffffff166345ecd02f610e3260408501602086016130bc565b6040517fffffffff0000000000000000000000000000000000000000000000000000000060e084901b16815273ffffffffffffffffffffffffffffffffffffffff9091166004820152602401602060405180830381865afa158015610e9b573d6000803e3d6000fd5b505050506040513d601f19601f82011682018060405250810190610ebf919061361f565b155b15610f2157610ed660408301602084016130bc565b6040517f14c469d300000000000000000000000000000000000000000000000000000000815273ffffffffffffffffffffffffffffffffffffffff90911660048201526024016106c4565b610f34610d5060608401604085016130bc565b610f4857610d6960608301604084016130bc565b6060820135156114fe577fb098747b87c5c0e2a32eb9b06725e9bad4263809bcda628ceadc1a686bcb8261610f8360408401602085016130bc565b73ffffffffffffffffffffffffffffffffffffffff16610fa660208501856130bc565b73ffffffffffffffffffffffffffffffffffffffff1614158015610ff057506000610fd760408501602086016130bc565b73ffffffffffffffffffffffffffffffffffffffff1614155b1561111c5760006060840135600783018261101160408801602089016130bc565b73ffffffffffffffffffffffffffffffffffffffff168152602080820192909252604001600090812091611047908801886130bc565b73ffffffffffffffffffffffffffffffffffffffff1673ffffffffffffffffffffffffffffffffffffffff16815260200190815260200160002060008282546110909190613595565b91829055509150508061111a576110f26110ad60208601866130bc565b60016008850160006110c560408a0160208b016130bc565b73ffffffffffffffffffffffffffffffffffffffff16815260208101919091526040016000209190612b52565b61111a61110560408601602087016130bc565b60016009850160006110c560208a018a6130bc565b505b60006060840135600683018261113860408801602089016130bc565b73ffffffffffffffffffffffffffffffffffffffff1673ffffffffffffffffffffffffffffffffffffffff16815260200190815260200160002060008282546111819190613595565b9250508190559050600084606001358360060160008760400160208101906111a991906130bc565b73ffffffffffffffffffffffffffffffffffffffff1673ffffffffffffffffffffffffffffffffffffffff16815260200190815260200160002060008282546111f2919061357d565b9182905550600186015490925073ffffffffffffffffffffffffffffffffffffffff16905063c2a11fb361122c60408801602089016130bc565b6040517fffffffff0000000000000000000000000000000000000000000000000000000060e084901b16815273ffffffffffffffffffffffffffffffffffffffff909116600482015260248101859052604401600060405180830381600087803b15801561129957600080fd5b505af11580156112ad573d6000803e3d6000fd5b50505050600184015473ffffffffffffffffffffffffffffffffffffffff1663c2a11fb36112e160608801604089016130bc565b6040517fffffffff0000000000000000000000000000000000000000000000000000000060e084901b16815273ffffffffffffffffffffffffffffffffffffffff909116600482015260248101849052604401600060405180830381600087803b15801561134e57600080fd5b505af1158015611362573d6000803e3d6000fd5b50611381925061137b91505060408701602088016130bc565b83612e91565b61139a61139460608701604088016130bc565b82612e91565b60006113ac60608701604088016130bc565b73ffffffffffffffffffffffffffffffffffffffff16141561144c5784606001358360040160008282546113e09190613595565b925050819055503073ffffffffffffffffffffffffffffffffffffffff16634f2274c06040518163ffffffff1660e01b8152600401600060405180830381600087803b15801561142f57600080fd5b505af1158015611443573d6000803e3d6000fd5b505050506114fa565b600061145e60408701602088016130bc565b73ffffffffffffffffffffffffffffffffffffffff1614156114fa578460600135836004016000828254611492919061357d565b925050819055503073ffffffffffffffffffffffffffffffffffffffff16634f2274c06040518163ffffffff1660e01b8152600401600060405180830381600087803b1580156114e157600080fd5b505af11580156114f5573d6000803e3d6000fd5b505050505b5050505b3063eee2dcc361151160208501856130bc565b61152160408601602087016130bc565b61153160608701604088016130bc565b60608701356115436080890189613641565b6040518763ffffffff1660e01b8152600401611564969594939291906136ef565b600060405180830381600087803b15801561157e57600080fd5b505af1158015611592573d6000803e3d6000fd5b506115a79250505060608301604084016130bc565b73ffffffffffffffffffffffffffffffffffffffff166115cd60408401602085016130bc565b73ffffffffffffffffffffffffffffffffffffffff166115f060208501856130bc565b73ffffffffffffffffffffffffffffffffffffffff167fd890e39fdd8907232d28ae76e6ece0a56e47c6ef82d597baf26787fef211d8d560608601356116396080880188613641565b60405161164893929190613743565b60405180910390a461166060608301604084016130bc565b73ffffffffffffffffffffffffffffffffffffffff1661168660408401602085016130bc565b73ffffffffffffffffffffffffffffffffffffffff167fddf252ad1be2c89b69c2b068fc378daa952ba7f163c4a11628f55a4df523b3ef84606001356040516116d191815260200190565b60405180910390a35050565b303314611716576040517f12e9ad3300000000000000000000000000000000000000000000000000000000815260040160405180910390fd5b73ffffffffffffffffffffffffffffffffffffffff8316611763576040517f9ba6061b00000000000000000000000000000000000000000000000000000000815260040160405180910390fd5b61176c83612d2a565b6117ba576040517fe4104ebc00000000000000000000000000000000000000000000000000000000815273ffffffffffffffffffffffffffffffffffffffff841660048201526024016106c4565b80156118b25773ffffffffffffffffffffffffffffffffffffffff83811660009081527fb098747b87c5c0e2a32eb9b06725e9bad4263809bcda628ceadc1a686bcb826860209081526040808320938616835292905290812080547fb098747b87c5c0e2a32eb9b06725e9bad4263809bcda628ceadc1a686bcb82619284929161184590849061357d565b909155505073ffffffffffffffffffffffffffffffffffffffff84166000908152600882016020526040902061187d90846001612f28565b73ffffffffffffffffffffffffffffffffffffffff8316600090815260098201602052604090206118b090856001612f28565b505b8173ffffffffffffffffffffffffffffffffffffffff168373ffffffffffffffffffffffffffffffffffffffff167f8c5be1e5ebec7d5bd14f71427d1e84f3dd0314c0f7b2291e5b200ac8c7c3b9258360405161191191815260200190565b60405180910390a3505050565b303314611957576040517f12e9ad3300000000000000000000000000000000000000000000000000000000815260040160405180910390fd5b73ffffffffffffffffffffffffffffffffffffffff811660009081527fb098747b87c5c0e2a32eb9b06725e9bad4263809bcda628ceadc1a686bcb82676020526040902054156119eb576040517fd90c787400000000000000000000000000000000000000000000000000000000815273ffffffffffffffffffffffffffffffffffffffff821660048201526024016106c4565b73ffffffffffffffffffffffffffffffffffffffff811660009081527fb098747b87c5c0e2a32eb9b06725e9bad4263809bcda628ceadc1a686bcb8269602052604090207fb098747b87c5c0e2a32eb9b06725e9bad4263809bcda628ceadc1a686bcb8261906001015b805415611b3557600081600081548110611a7157611a71613766565b60009182526020808320919091015473ffffffffffffffffffffffffffffffffffffffff87811680855260078801845260408086209290931680865291909352928190205490517f6bd7bd2500000000000000000000000000000000000000000000000000000000815260048101929092526024820183905260448201529091503090636bd7bd2590606401600060405180830381600087803b158015611b1757600080fd5b505af1158015611b2b573d6000803e3d6000fd5b5050505050611a55565b5073ffffffffffffffffffffffffffffffffffffffff8216600090815260098201602052604090206001015b805415610a3b57600081600081548110611b7d57611b7d613766565b60009182526020808320919091015473ffffffffffffffffffffffffffffffffffffffff9081168084526007870183526040808520928916808652929093528284205483517f6bd7bd25000000000000000000000000000000000000000000000000000000008152600481018390526024810193909352604483015291519193503092636bd7bd259260648084019382900301818387803b158015611c2157600080fd5b505af1158015611c35573d6000803e3d6000fd5b5050505050611b61565b303314611c78576040517f12e9ad3300000000000000000000000000000000000000000000000000000000815260040160405180910390fd5b8015611da95773ffffffffffffffffffffffffffffffffffffffff83811660009081527fb098747b87c5c0e2a32eb9b06725e9bad4263809bcda628ceadc1a686bcb826860209081526040808320938616835292905290812080547fb098747b87c5c0e2a32eb9b06725e9bad4263809bcda628ceadc1a686bcb826192849291611d03908490613595565b909155505073ffffffffffffffffffffffffffffffffffffffff8085166000908152600783016020908152604080832093871683529290522054611da75773ffffffffffffffffffffffffffffffffffffffff841660009081526008820160205260409020611d7490846001612b52565b73ffffffffffffffffffffffffffffffffffffffff831660009081526009820160205260409020611da790856001612b52565b505b8173ffffffffffffffffffffffffffffffffffffffff168373ffffffffffffffffffffffffffffffffffffffff167f94f4f5b45267f5e7454476505db5fe3cbb2ad25868e26303b8fc7c5074ba58908360405161191191815260200190565b611e1133612a97565b611e49576040517f1dd41c4d0000000000000000000000000000000000000000000000000000000081523360048201526024016106c4565b60007fb098747b87c5c0e2a32eb9b06725e9bad4263809bcda628ceadc1a686bcb826190503073ffffffffffffffffffffffffffffffffffffffff1663ddb2d22b6040518163ffffffff1660e01b8152600401602060405180830381865afa158015611eb9573d6000803e3d6000fd5b505050506040513d601f19601f82011682018060405250810190611edd919061361f565b15611f14576040517f12aebbbc00000000000000000000000000000000000000000000000000000000815260040160405180910390fd5b600080805260068201602052604081208054869290611f34908490613595565b90915550506040517ff4c1210c000000000000000000000000000000000000000000000000000000008152309063f4c1210c90611f7990879087908790600401613743565b600060405180830381600087803b158015611f9357600080fd5b505af1158015611fa7573d6000803e3d6000fd5b505050503073ffffffffffffffffffffffffffffffffffffffff16634f2274c06040518163ffffffff1660e01b8152600401600060405180830381600087803b158015611ff357600080fd5b505af1158015612007573d6000803e3d6000fd5b505060405133925061201d915085908590613795565b6040519081900381209086907f5ff47d76c9322f177ff7059963be58d30339f275e98dc74e464d2070a8138acd90600090a450505050565b61205e33612a97565b612096576040517f1dd41c4d0000000000000000000000000000000000000000000000000000000081523360048201526024016106c4565b60007fb098747b87c5c0e2a32eb9b06725e9bad4263809bcda628ceadc1a686bcb826190503073ffffffffffffffffffffffffffffffffffffffff1663ddb2d22b6040518163ffffffff1660e01b8152600401602060405180830381865afa158015612106573d6000803e3d6000fd5b505050506040513d601f19601f8201168201806040525081019061212a919061361f565b80156121ba575060048101541515806121ba57506040517f70a082310000000000000000000000000000000000000000000000000000000081526000600482015230906370a0823190602401602060405180830381865afa158015612193573d6000803e3d6000fd5b505050506040513d601f19601f820116820180604052508101906121b791906137a5565b15155b156121f1576040517f12aebbbc00000000000000000000000000000000000000000000000000000000815260040160405180910390fd5b60008080526006820160205260408120805486929061221190849061357d565b90915550506040517faf2e757b000000000000000000000000000000000000000000000000000000008152309063af2e757b9061225690879087908790600401613743565b600060405180830381600087803b15801561227057600080fd5b505af1158015612284573d6000803e3d6000fd5b505050503073ffffffffffffffffffffffffffffffffffffffff16634f2274c06040518163ffffffff1660e01b8152600401600060405180830381600087803b1580156122d057600080fd5b505af11580156122e4573d6000803e3d6000fd5b50506040513392506122fa915085908590613795565b6040519081900381209086907fc1177815a22ab58cdf6e40a80dfe322e9d00b7977bd78634869752fed8082f5690600090a450505050565b606060007fb098747b87c5c0e2a32eb9b06725e9bad4263809bcda628ceadc1a686bcb8261600b81018054604080516020808402820181019092528281529394508301828280156123b957602002820191906000526020600020905b815473ffffffffffffffffffffffffffffffffffffffff16815260019091019060200180831161238e575b505050505091505090565b60607fb098747b87c5c0e2a32eb9b06725e9bad4263809bcda628ceadc1a686bcb826160020180546104b9906134fa565b73ffffffffffffffffffffffffffffffffffffffff831660009081527fb098747b87c5c0e2a32eb9b06725e9bad4263809bcda628ceadc1a686bcb826a602052604081206060919061062d906001018585612976565b6040805160a0810182523380825260208083019190915273ffffffffffffffffffffffffffffffffffffffff8516828401526060820184905282518084018452601781527f556e737065636966696564202d2076696120455243323000000000000000000091810191909152608082015290517f44890ae000000000000000000000000000000000000000000000000000000000815260009130916344890ae09161059a916004016137be565b6040805160a08101825233815273ffffffffffffffffffffffffffffffffffffffff8681166020830152851681830152606081018490526080810183905290517f44890ae000000000000000000000000000000000000000000000000000000000815260009130916344890ae091612572916004016137be565b600060405180830381600087803b15801561258c57600080fd5b505af11580156125a0573d6000803e3d6000fd5b50600198975050505050505050565b60007fb098747b87c5c0e2a32eb9b06725e9bad4263809bcda628ceadc1a686bcb826173ffffffffffffffffffffffffffffffffffffffff84166126e3577f80c187ea6f955fd624c41fb7a18011cc87d98c6f4c06d897b59142f65707e705546040517fa230c52400000000000000000000000000000000000000000000000000000000815273ffffffffffffffffffffffffffffffffffffffff8581166004830152620100009092049091169063a230c52490602401602060405180830381865afa158015612683573d6000803e3d6000fd5b505050506040513d601f19601f820116820180604052508101906126a7919061361f565b6126b25760006126db565b73ffffffffffffffffffffffffffffffffffffffff841660009081526006820160205260409020545b9150506105d1565b73ffffffffffffffffffffffffffffffffffffffff8085166000908152600790920160209081526040808420928616845291905290205490506105d1565b60003073ffffffffffffffffffffffffffffffffffffffff166344890ae06040518060a001604052803373ffffffffffffffffffffffffffffffffffffffff1681526020013373ffffffffffffffffffffffffffffffffffffffff1681526020018873ffffffffffffffffffffffffffffffffffffffff16815260200187815260200186868080601f01602080910402602001604051908101604052809392919081815260200183838082843760009201919091525050509152506040517fffffffff0000000000000000000000000000000000000000000000000000000060e084901b16815261257291906004016137be565b6040517fa230c5240000000000000000000000000000000000000000000000000000000081523360048201819052600091309063a230c52490602401602060405180830381865afa15801561286e573d6000803e3d6000fd5b505050506040513d601f19601f82011682018060405250810190612892919061361f565b6128e0576040517fb8c6719e00000000000000000000000000000000000000000000000000000000815273ffffffffffffffffffffffffffffffffffffffff821660048201526024016106c4565b6040517f6bd7bd2500000000000000000000000000000000000000000000000000000000815233600482015273ffffffffffffffffffffffffffffffffffffffff85166024820152604481018490523090636bd7bd2590606401600060405180830381600087803b15801561295457600080fd5b505af1158015612968573d6000803e3d6000fd5b506001979650505050505050565b606060008084868054905061298b9190613595565b841161299757836129a4565b85546129a4908690613595565b905060008167ffffffffffffffff8111156129c1576129c1613344565b6040519080825280602002602001820160405280156129ea578160200160208202803683370190505b50905060005b82811015612a7d5787612a03828961357d565b81548110612a1357612a13613766565b9060005260206000200160009054906101000a900473ffffffffffffffffffffffffffffffffffffffff16828281518110612a5057612a50613766565b73ffffffffffffffffffffffffffffffffffffffff909216602092830291909101909101526001016129f0565b5080612a89838861357d565b935093505050935093915050565b7f80c187ea6f955fd624c41fb7a18011cc87d98c6f4c06d897b59142f65707e705546040517fa230c52400000000000000000000000000000000000000000000000000000000815273ffffffffffffffffffffffffffffffffffffffff8381166004830152600092620100009004169063a230c524906024015b602060405180830381865afa158015612b2e573d6000803e3d6000fd5b505050506040513d601f19601f820116820180604052508101906105d1919061361f565b6000612b5e848461301c565b9050818015612b6b575080155b15612b765750505050565b80612bdd576040517f08c379a000000000000000000000000000000000000000000000000000000000815260206004820152601d60248201527f4164647265737320646f6573206e6f7420657869737420696e2073657400000060448201526064016106c4565b60018085018054600092612bf091613595565b81548110612c0057612c00613766565b600091825260208083209091015473ffffffffffffffffffffffffffffffffffffffff878116845291889052604080842054929091168084529220819055600187018054929350909183919083908110612c5c57612c5c613766565b600091825260208083209190910180547fffffffffffffffffffffffff00000000000000000000000000000000000000001673ffffffffffffffffffffffffffffffffffffffff948516179055918716815290879052604081205560018601805480612cca57612cca61381d565b60008281526020902081017fffffffffffffffffffffffffffffffffffffffffffffffffffffffffffffffff90810180547fffffffffffffffffffffffff0000000000000000000000000000000000000000169055019055505050505050565b600073ffffffffffffffffffffffffffffffffffffffff8216612d4f57506001919050565b3073ffffffffffffffffffffffffffffffffffffffff166311e549336040518163ffffffff1660e01b8152600401602060405180830381865afa158015612d9a573d6000803e3d6000fd5b505050506040513d601f19601f82011682018060405250810190612dbe919061361f565b15612e3a577f80c187ea6f955fd624c41fb7a18011cc87d98c6f4c06d897b59142f65707e706546040517fa230c52400000000000000000000000000000000000000000000000000000000815273ffffffffffffffffffffffffffffffffffffffff84811660048301529091169063a230c52490602401612b11565b6040517fa230c52400000000000000000000000000000000000000000000000000000000815273ffffffffffffffffffffffffffffffffffffffff83166004820152309063a230c52490602401612b11565b919050565b73ffffffffffffffffffffffffffffffffffffffff8216612eb0575050565b7fb098747b87c5c0e2a32eb9b06725e9bad4263809bcda628ceadc1a686bcb82618115801590612eea5750612ee8600a82018461301c565b155b15612efe57610a3b600a8201846000612f28565b81158015612f145750612f14600a82018461301c565b15610a3b57610a3b600a8201846000612b52565b6000612f34848461301c565b9050818015612f405750805b15612f4b5750505050565b8015612fb3576040517f08c379a000000000000000000000000000000000000000000000000000000000815260206004820152601660248201527f4164647265737320616c726561647920696e207365740000000000000000000060448201526064016106c4565b50506001808301805473ffffffffffffffffffffffffffffffffffffffff909316600081815260209586526040812085905592840182559082529290200180547fffffffffffffffffffffffff0000000000000000000000000000000000000000169091179055565b60018201546000901561308e5773ffffffffffffffffffffffffffffffffffffffff8216600081815260208590526040902054600185018054909190811061306657613066613766565b60009182526020909120015473ffffffffffffffffffffffffffffffffffffffff1614613091565b60005b9392505050565b803573ffffffffffffffffffffffffffffffffffffffff81168114612e8c57600080fd5b6000602082840312156130ce57600080fd5b61309182613098565b6000815180845260005b818110156130fd576020818501810151868301820152016130e1565b8181111561310f576000602083870101525b50601f017fffffffffffffffffffffffffffffffffffffffffffffffffffffffffffffffe0169290920160200192915050565b60208152600061309160208301846130d7565b6000806040838503121561316857600080fd5b61317183613098565b946020939093013593505050565b60008060006060848603121561319457600080fd5b61319d84613098565b95602085013595506040909401359392505050565b600081518084526020808501945080840160005b838110156131f857815173ffffffffffffffffffffffffffffffffffffffff16875295820195908201906001016131c6565b509495945050505050565b60408152600061321660408301856131b2565b90508260208301529392505050565b60008060006060848603121561323a57600080fd5b61324384613098565b925061325160208501613098565b9150604084013590509250925092565b60006020828403121561327357600080fd5b813567ffffffffffffffff81111561328a57600080fd5b820160a0818503121561309157600080fd5b60008083601f8401126132ae57600080fd5b50813567ffffffffffffffff8111156132c657600080fd5b6020830191508360208285010111156132de57600080fd5b9250929050565b6000806000604084860312156132fa57600080fd5b83359250602084013567ffffffffffffffff81111561331857600080fd5b6133248682870161329c565b9497909650939450505050565b60208152600061309160208301846131b2565b7f4e487b7100000000000000000000000000000000000000000000000000000000600052604160045260246000fd5b6000806000806080858703121561338957600080fd5b61339285613098565b93506133a060208601613098565b925060408501359150606085013567ffffffffffffffff808211156133c457600080fd5b818701915087601f8301126133d857600080fd5b8135818111156133ea576133ea613344565b604051601f82017fffffffffffffffffffffffffffffffffffffffffffffffffffffffffffffffe0908116603f0116810190838211818310171561343057613430613344565b816040528281528a602084870101111561344957600080fd5b82602086016020830137600060208483010152809550505050505092959194509250565b6000806040838503121561348057600080fd5b61348983613098565b915061349760208401613098565b90509250929050565b600080600080606085870312156134b657600080fd5b6134bf85613098565b935060208501359250604085013567ffffffffffffffff8111156134e257600080fd5b6134ee8782880161329c565b95989497509550505050565b600181811c9082168061350e57607f821691505b60208210811415613548577f4e487b7100000000000000000000000000000000000000000000000000000000600052602260045260246000fd5b50919050565b7f4e487b7100000000000000000000000000000000000000000000000000000000600052601160045260246000fd5b600082198211156135905761359061354e565b500190565b6000828210156135a7576135a761354e565b500390565b600073ffffffffffffffffffffffffffffffffffffffff8088168352808716602084015280861660408401525083606083015260a060808301526135f360a08301846130d7565b979650505050505050565b82815260406020820152600061361760408301846130d7565b949350505050565b60006020828403121561363157600080fd5b8151801515811461309157600080fd5b60008083357fffffffffffffffffffffffffffffffffffffffffffffffffffffffffffffffe184360301811261367657600080fd5b83018035915067ffffffffffffffff82111561369157600080fd5b6020019150368190038213156132de57600080fd5b8183528181602085013750600060208284010152600060207fffffffffffffffffffffffffffffffffffffffffffffffffffffffffffffffe0601f840116840101905092915050565b600073ffffffffffffffffffffffffffffffffffffffff8089168352808816602084015280871660408401525084606083015260a0608083015261373760a0830184866136a6565b98975050505050505050565b83815260406020820152600061375d6040830184866136a6565b95945050505050565b7f4e487b7100000000000000000000000000000000000000000000000000000000600052603260045260246000fd5b8183823760009101908152919050565b6000602082840312156137b757600080fd5b5051919050565b60208152600073ffffffffffffffffffffffffffffffffffffffff8084511660208401528060208501511660408401528060408501511660608401525060608301516080830152608083015160a08084015261361760c08401826130d7565b7f4e487b7100000000000000000000000000000000000000000000000000000000600052603160045260246000fdfea2646970667358221220b51d75ac699438d3b63cfd02225db292013f447a1499cd23daed02acf205e2dc64736f6c634300080a0033",
  "linkReferences": {},
  "deployedLinkReferences": {}
}