{
  "_format": "hh-sol-artifact-1",
  "contractName": "FastAccessFacet",
  "sourceName": "contracts/fast/FastAccessFacet.sol",
  "abi": [
    {
      "inputs": [
        {
          "internalType": "address",
          "name": "who",
          "type": "address"
        }
      ],
      "name": "RequiresGovernorsManager",
      "type": "error"
    },
    {
      "inputs": [
        {
          "internalType": "address",
          "name": "who",
          "type": "address"
        }
      ],
      "name": "RequiresMembersManager",
      "type": "error"
    },
    {
      "inputs": [
        {
          "internalType": "address",
          "name": "who",
          "type": "address"
        }
      ],
      "name": "RequiresValidGovernor",
      "type": "error"
    },
    {
      "inputs": [
        {
          "internalType": "address",
          "name": "who",
          "type": "address"
        }
      ],
      "name": "RequiresValidMember",
      "type": "error"
    },
    {
      "anonymous": false,
      "inputs": [
        {
          "indexed": true,
          "internalType": "address",
          "name": "owner",
          "type": "address"
        },
        {
          "indexed": true,
          "internalType": "address",
          "name": "spender",
          "type": "address"
        },
        {
          "indexed": false,
          "internalType": "uint256",
          "name": "value",
          "type": "uint256"
        }
      ],
      "name": "Approval",
      "type": "event"
    },
    {
      "anonymous": false,
      "inputs": [
        {
          "indexed": true,
          "internalType": "uint256",
          "name": "amount",
          "type": "uint256"
        },
        {
          "indexed": true,
          "internalType": "string",
          "name": "ref",
          "type": "string"
        },
        {
          "indexed": true,
          "internalType": "address",
          "name": "who",
          "type": "address"
        }
      ],
      "name": "Burnt",
      "type": "event"
    },
    {
      "anonymous": false,
      "inputs": [
        {
          "indexed": true,
          "internalType": "contract Crowdfund",
          "name": "crowdfund",
          "type": "address"
        }
      ],
      "name": "CrowdfundDeployed",
      "type": "event"
    },
    {
      "anonymous": false,
      "inputs": [
        {
          "indexed": true,
          "internalType": "contract Crowdfund",
          "name": "crowdfund",
          "type": "address"
        }
      ],
      "name": "CrowdfundRemoved",
      "type": "event"
    },
    {
      "anonymous": false,
      "inputs": [
        {
          "indexed": false,
          "internalType": "bool",
          "name": "transfersDisabled",
          "type": "bool"
        },
        {
          "indexed": false,
          "internalType": "uint256",
          "name": "memberCount",
          "type": "uint256"
        },
        {
          "indexed": false,
          "internalType": "uint256",
          "name": "governorCount",
          "type": "uint256"
        },
        {
          "indexed": false,
          "internalType": "uint256",
          "name": "totalSupply",
          "type": "uint256"
        },
        {
          "indexed": false,
          "internalType": "uint256",
          "name": "reserveBalance",
          "type": "uint256"
        }
      ],
      "name": "DetailsChanged",
      "type": "event"
    },
    {
      "anonymous": false,
      "inputs": [
        {
          "indexed": true,
          "internalType": "address",
          "name": "owner",
          "type": "address"
        },
        {
          "indexed": true,
          "internalType": "address",
          "name": "spender",
          "type": "address"
        },
        {
          "indexed": false,
          "internalType": "uint256",
          "name": "value",
          "type": "uint256"
        }
      ],
      "name": "Disapproval",
      "type": "event"
    },
    {
      "anonymous": false,
      "inputs": [
        {
          "indexed": true,
          "internalType": "contract Distribution",
          "name": "distribution",
          "type": "address"
        }
      ],
      "name": "DistributionDeployed",
      "type": "event"
    },
    {
      "anonymous": false,
      "inputs": [
        {
          "indexed": true,
          "internalType": "contract Distribution",
          "name": "distribution",
          "type": "address"
        }
      ],
      "name": "DistributionRemoved",
      "type": "event"
    },
    {
      "anonymous": false,
      "inputs": [
        {
          "indexed": true,
          "internalType": "address",
          "name": "spender",
          "type": "address"
        },
        {
          "indexed": true,
          "internalType": "address",
          "name": "from",
          "type": "address"
        },
        {
          "indexed": true,
          "internalType": "address",
          "name": "to",
          "type": "address"
        },
        {
          "indexed": false,
          "internalType": "uint256",
          "name": "value",
          "type": "uint256"
        },
        {
          "indexed": false,
          "internalType": "string",
          "name": "ref",
          "type": "string"
        }
      ],
      "name": "FastTransfer",
      "type": "event"
    },
    {
      "anonymous": false,
      "inputs": [
        {
          "indexed": true,
          "internalType": "address",
          "name": "governor",
          "type": "address"
        }
      ],
      "name": "GovernorAdded",
      "type": "event"
    },
    {
      "anonymous": false,
      "inputs": [
        {
          "indexed": true,
          "internalType": "address",
          "name": "governor",
          "type": "address"
        }
      ],
      "name": "GovernorRemoved",
      "type": "event"
    },
    {
      "anonymous": false,
      "inputs": [
        {
          "indexed": true,
          "internalType": "address",
          "name": "member",
          "type": "address"
        }
      ],
      "name": "MemberAdded",
      "type": "event"
    },
    {
      "anonymous": false,
      "inputs": [
        {
          "indexed": true,
          "internalType": "address",
          "name": "member",
          "type": "address"
        }
      ],
      "name": "MemberRemoved",
      "type": "event"
    },
    {
      "anonymous": false,
      "inputs": [
        {
          "indexed": true,
          "internalType": "uint256",
          "name": "amount",
          "type": "uint256"
        },
        {
          "indexed": true,
          "internalType": "string",
          "name": "ref",
          "type": "string"
        },
        {
          "indexed": true,
          "internalType": "address",
          "name": "who",
          "type": "address"
        }
      ],
      "name": "Minted",
      "type": "event"
    },
    {
      "anonymous": false,
      "inputs": [
        {
          "indexed": true,
          "internalType": "address",
          "name": "from",
          "type": "address"
        },
        {
          "indexed": true,
          "internalType": "address",
          "name": "to",
          "type": "address"
        },
        {
          "indexed": false,
          "internalType": "uint256",
          "name": "value",
          "type": "uint256"
        }
      ],
      "name": "Transfer",
      "type": "event"
    },
    {
      "inputs": [
        {
          "internalType": "address payable",
          "name": "who",
          "type": "address"
        }
      ],
      "name": "addGovernor",
      "outputs": [],
      "stateMutability": "nonpayable",
      "type": "function"
    },
    {
      "inputs": [
        {
          "internalType": "address payable",
          "name": "who",
          "type": "address"
        }
      ],
      "name": "addMember",
      "outputs": [],
      "stateMutability": "nonpayable",
      "type": "function"
    },
    {
      "inputs": [
        {
          "internalType": "address",
          "name": "a",
          "type": "address"
        }
      ],
      "name": "flags",
      "outputs": [
        {
          "components": [
            {
              "internalType": "bool",
              "name": "isGovernor",
              "type": "bool"
            },
            {
              "internalType": "bool",
              "name": "isMember",
              "type": "bool"
            }
          ],
          "internalType": "struct FastAccessFacet.Flags",
          "name": "",
          "type": "tuple"
        }
      ],
      "stateMutability": "view",
      "type": "function"
    },
    {
      "inputs": [],
      "name": "governorCount",
      "outputs": [
        {
          "internalType": "uint256",
          "name": "",
          "type": "uint256"
        }
      ],
      "stateMutability": "view",
      "type": "function"
    },
    {
      "inputs": [
        {
          "internalType": "address",
          "name": "who",
          "type": "address"
        }
      ],
      "name": "isGovernor",
      "outputs": [
        {
          "internalType": "bool",
          "name": "",
          "type": "bool"
        }
      ],
      "stateMutability": "view",
      "type": "function"
    },
    {
      "inputs": [
        {
          "internalType": "address",
          "name": "who",
          "type": "address"
        }
      ],
      "name": "isMember",
      "outputs": [
        {
          "internalType": "bool",
          "name": "",
          "type": "bool"
        }
      ],
      "stateMutability": "view",
      "type": "function"
    },
    {
      "inputs": [],
      "name": "memberCount",
      "outputs": [
        {
          "internalType": "uint256",
          "name": "",
          "type": "uint256"
        }
      ],
      "stateMutability": "view",
      "type": "function"
    },
    {
      "inputs": [
        {
          "internalType": "uint256",
          "name": "index",
          "type": "uint256"
        },
        {
          "internalType": "uint256",
          "name": "perPage",
          "type": "uint256"
        }
      ],
      "name": "paginateGovernors",
      "outputs": [
        {
          "internalType": "address[]",
          "name": "",
          "type": "address[]"
        },
        {
          "internalType": "uint256",
          "name": "",
          "type": "uint256"
        }
      ],
      "stateMutability": "view",
      "type": "function"
    },
    {
      "inputs": [
        {
          "internalType": "uint256",
          "name": "index",
          "type": "uint256"
        },
        {
          "internalType": "uint256",
          "name": "perPage",
          "type": "uint256"
        }
      ],
      "name": "paginateMembers",
      "outputs": [
        {
          "internalType": "address[]",
          "name": "",
          "type": "address[]"
        },
        {
          "internalType": "uint256",
          "name": "",
          "type": "uint256"
        }
      ],
      "stateMutability": "view",
      "type": "function"
    },
    {
      "inputs": [
        {
          "internalType": "address",
          "name": "governor",
          "type": "address"
        }
      ],
      "name": "removeGovernor",
      "outputs": [],
      "stateMutability": "nonpayable",
      "type": "function"
    },
    {
      "inputs": [
        {
          "internalType": "address",
          "name": "member",
          "type": "address"
        }
      ],
      "name": "removeMember",
      "outputs": [],
      "stateMutability": "nonpayable",
      "type": "function"
    }
  ],
  "bytecode": "0x608060405234801561001057600080fd5b50611462806100206000396000f3fe608060405234801561001057600080fd5b50600436106100c95760003560e01c8063a230c52411610081578063e43581b81161005b578063e43581b8146101ad578063e8c9fd45146101c0578063eecdac88146101c857600080fd5b8063a230c52414610164578063c6549ba414610187578063ca6d56dc1461019a57600080fd5b80633c4a25d0116100b25780633c4a25d0146100fe5780635a4c75d5146101115780639fef0c011461013257600080fd5b80630b1ca49a146100ce57806311aee380146100e3575b600080fd5b6100e16100dc366004611282565b6101db565b005b6100eb6102b8565b6040519081526020015b60405180910390f35b6100e161010c366004611282565b6102e5565b61012461011f36600461129f565b610416565b6040516100f59291906112c1565b610145610140366004611282565b610454565b60408051825115158152602092830151151592810192909252016100f5565b610177610172366004611282565b61059f565b60405190151581526020016100f5565b61012461019536600461129f565b6105d6565b6100e16101a8366004611282565b610603565b6101776101bb366004611282565b61072e565b6100eb61075a565b6100e16101d6366004611282565b610782565b336101e581610854565b610238576040517f8574fa9100000000000000000000000000000000000000000000000000000000815273ffffffffffffffffffffffffffffffffffffffff821660048201526024015b60405180910390fd5b61024182610981565b6102738260007fd56529bfa3ed57257eed4751494e1d0c0f212cfe38768380e006e3bee06ffb915b6001019190610b11565b60405173ffffffffffffffffffffffffffffffffffffffff8316907f6e76fb4c77256006d9c38ec7d82b45a8c8f3c27b1d6766fffc42dfb8de68449290600090a25050565b60007fd56529bfa3ed57257eed4751494e1d0c0f212cfe38768380e006e3bee06ffb915b60020154919050565b336102ef81610ce9565b61033d576040517f2021add900000000000000000000000000000000000000000000000000000000815273ffffffffffffffffffffffffffffffffffffffff8216600482015260240161022f565b8161034781610cf4565b610395576040517f6170384e00000000000000000000000000000000000000000000000000000000815273ffffffffffffffffffffffffffffffffffffffff8216600482015260240161022f565b6103c78360007fdac4df64cf6992e5f0fa766abc48a6698b638db4d8eeee68133c41fdd48629755b6001019190610d58565b6103d083610e4c565b60405173ffffffffffffffffffffffffffffffffffffffff8416907fdc5a48d79e2e147530ff63ecdbed5a5a66adb9d5cf339384d5d076da197c40b590600090a2505050565b606060006104497fdac4df64cf6992e5f0fa766abc48a6698b638db4d8eeee68133c41fdd48629755b6002018585610eca565b915091509250929050565b604080518082018252600080825260208201528151808301928390527fe43581b80000000000000000000000000000000000000000000000000000000090925273ffffffffffffffffffffffffffffffffffffffff8316604483015290803063e43581b860648301602060405180830381865afa1580156104d9573d6000803e3d6000fd5b505050506040513d601f19601f820116820180604052508101906104fd919061131f565b151581526040517fa230c52400000000000000000000000000000000000000000000000000000000815273ffffffffffffffffffffffffffffffffffffffff85166004820152602090910190309063a230c52490602401602060405180830381865afa158015610571573d6000803e3d6000fd5b505050506040513d601f19601f82011682018060405250810190610595919061131f565b1515905292915050565b60006105d0827fd56529bfa3ed57257eed4751494e1d0c0f212cfe38768380e006e3bee06ffb915b60010190610feb565b92915050565b606060006104497fd56529bfa3ed57257eed4751494e1d0c0f212cfe38768380e006e3bee06ffb9161043f565b3361060d81610854565b61065b576040517f8574fa9100000000000000000000000000000000000000000000000000000000815273ffffffffffffffffffffffffffffffffffffffff8216600482015260240161022f565b8161066581611067565b6106b3576040517f06a0278c00000000000000000000000000000000000000000000000000000000815273ffffffffffffffffffffffffffffffffffffffff8216600482015260240161022f565b6106df8360007fd56529bfa3ed57257eed4751494e1d0c0f212cfe38768380e006e3bee06ffb916103bd565b6106e883611072565b60405173ffffffffffffffffffffffffffffffffffffffff8416907fb251eb052afc73ffd02ffe85ad79990a8b3fed60d76dbc2fa2fdd7123dffd91490600090a2505050565b60006105d0827fdac4df64cf6992e5f0fa766abc48a6698b638db4d8eeee68133c41fdd48629756105c7565b60007fdac4df64cf6992e5f0fa766abc48a6698b638db4d8eeee68133c41fdd48629756102dc565b3361078c81610ce9565b6107da576040517f2021add900000000000000000000000000000000000000000000000000000000815273ffffffffffffffffffffffffffffffffffffffff8216600482015260240161022f565b6107e3826110e9565b61080f8260007fdac4df64cf6992e5f0fa766abc48a6698b638db4d8eeee68133c41fdd4862975610269565b60405173ffffffffffffffffffffffffffffffffffffffff8316907f1ebe834e73d60a5fec822c1e1727d34bc79f2ad977ed504581cc1822fe20fb5b90600090a25050565b6040517fe43581b800000000000000000000000000000000000000000000000000000000815273ffffffffffffffffffffffffffffffffffffffff82166004820152600090309063e43581b890602401602060405180830381865afa1580156108c1573d6000803e3d6000fd5b505050506040513d601f19601f820116820180604052508101906108e5919061131f565b806105d057506040517f617b0b9d00000000000000000000000000000000000000000000000000000000815273ffffffffffffffffffffffffffffffffffffffff8316600482015260016024820152309063617b0b9d906044015b602060405180830381865afa15801561095d573d6000803e3d6000fd5b505050506040513d601f19601f820116820180604052508101906105d0919061131f565b6040517f5d7b590f00000000000000000000000000000000000000000000000000000000815273ffffffffffffffffffffffffffffffffffffffff821660048201523090635d7b590f90602401600060405180830381600087803b1580156109e857600080fd5b505af11580156109fc573d6000803e3d6000fd5b50505050610a277f80c187ea6f955fd624c41fb7a18011cc87d98c6f4c06d897b59142f65707e70590565b600101546040517f1b09a28100000000000000000000000000000000000000000000000000000000815273ffffffffffffffffffffffffffffffffffffffff838116600483015290911690631b09a281906024015b600060405180830381600087803b158015610a9657600080fd5b505af1158015610aaa573d6000803e3d6000fd5b505050503073ffffffffffffffffffffffffffffffffffffffff16634f2274c06040518163ffffffff1660e01b8152600401600060405180830381600087803b158015610af657600080fd5b505af1158015610b0a573d6000803e3d6000fd5b5050505050565b6000610b1d8484610feb565b9050818015610b2a575080155b15610b355750505050565b80610b9c576040517f08c379a000000000000000000000000000000000000000000000000000000000815260206004820152601d60248201527f4164647265737320646f6573206e6f7420657869737420696e20736574000000604482015260640161022f565b60018085018054600092610baf91611370565b81548110610bbf57610bbf611387565b600091825260208083209091015473ffffffffffffffffffffffffffffffffffffffff878116845291889052604080842054929091168084529220819055600187018054929350909183919083908110610c1b57610c1b611387565b600091825260208083209190910180547fffffffffffffffffffffffff00000000000000000000000000000000000000001673ffffffffffffffffffffffffffffffffffffffff948516179055918716815290879052604081205560018601805480610c8957610c896113b6565b60008281526020902081017fffffffffffffffffffffffffffffffffffffffffffffffffffffffffffffffff90810180547fffffffffffffffffffffffff0000000000000000000000000000000000000000169055019055505050505050565b60006105d082611167565b6000610cff826111e5565b80156105d057506040517fa230c52400000000000000000000000000000000000000000000000000000000815273ffffffffffffffffffffffffffffffffffffffff83166004820152309063a230c52490602401610940565b6000610d648484610feb565b9050818015610d705750805b15610d7b5750505050565b8015610de3576040517f08c379a000000000000000000000000000000000000000000000000000000000815260206004820152601660248201527f4164647265737320616c726561647920696e2073657400000000000000000000604482015260640161022f565b50506001808301805473ffffffffffffffffffffffffffffffffffffffff909316600081815260209586526040812085905592840182559082529290200180547fffffffffffffffffffffffff0000000000000000000000000000000000000000169091179055565b7f80c187ea6f955fd624c41fb7a18011cc87d98c6f4c06d897b59142f65707e705546040517f1543455e00000000000000000000000000000000000000000000000000000000815273ffffffffffffffffffffffffffffffffffffffff83811660048301526201000090920490911690631543455e90602401610a7c565b6060600080848680549050610edf9190611370565b8411610eeb5783610ef8565b8554610ef8908690611370565b905060008167ffffffffffffffff811115610f1557610f156113e5565b604051908082528060200260200182016040528015610f3e578160200160208202803683370190505b50905060005b82811015610fd15787610f578289611414565b81548110610f6757610f67611387565b9060005260206000200160009054906101000a900473ffffffffffffffffffffffffffffffffffffffff16828281518110610fa457610fa4611387565b73ffffffffffffffffffffffffffffffffffffffff90921660209283029190910190910152600101610f44565b5080610fdd8388611414565b935093505050935093915050565b60018201546000901561105d5773ffffffffffffffffffffffffffffffffffffffff8216600081815260208590526040902054600185018054909190811061103557611035611387565b60009182526020909120015473ffffffffffffffffffffffffffffffffffffffff1614611060565b60005b9392505050565b60006105d0826111e5565b7f80c187ea6f955fd624c41fb7a18011cc87d98c6f4c06d897b59142f65707e706546040517faf827ff700000000000000000000000000000000000000000000000000000000815273ffffffffffffffffffffffffffffffffffffffff83811660048301529091169063af827ff790602401610a7c565b7f80c187ea6f955fd624c41fb7a18011cc87d98c6f4c06d897b59142f65707e705546040517f15190dcd00000000000000000000000000000000000000000000000000000000815273ffffffffffffffffffffffffffffffffffffffff838116600483015262010000909204909116906315190dcd90602401610a7c565b7f80c187ea6f955fd624c41fb7a18011cc87d98c6f4c06d897b59142f65707e705546040517fa230c52400000000000000000000000000000000000000000000000000000000815273ffffffffffffffffffffffffffffffffffffffff8381166004830152600092620100009004169063a230c52490602401610940565b7f80c187ea6f955fd624c41fb7a18011cc87d98c6f4c06d897b59142f65707e706546040517fa230c52400000000000000000000000000000000000000000000000000000000815273ffffffffffffffffffffffffffffffffffffffff8381166004830152600092169063a230c52490602401610940565b73ffffffffffffffffffffffffffffffffffffffff8116811461127f57600080fd5b50565b60006020828403121561129457600080fd5b81356110608161125d565b600080604083850312156112b257600080fd5b50508035926020909101359150565b604080825283519082018190526000906020906060840190828701845b8281101561131057815173ffffffffffffffffffffffffffffffffffffffff16845292840192908401906001016112de565b50505092019290925292915050565b60006020828403121561133157600080fd5b8151801515811461106057600080fd5b7f4e487b7100000000000000000000000000000000000000000000000000000000600052601160045260246000fd5b60008282101561138257611382611341565b500390565b7f4e487b7100000000000000000000000000000000000000000000000000000000600052603260045260246000fd5b7f4e487b7100000000000000000000000000000000000000000000000000000000600052603160045260246000fd5b7f4e487b7100000000000000000000000000000000000000000000000000000000600052604160045260246000fd5b6000821982111561142757611427611341565b50019056fea26469706673582212204cf4bff510074ab403ac7664c31bb2832fb50c766f04bfef5edb7f3ef091afae64736f6c634300080a0033",
  "linkReferences": {},
  "deployedLinkReferences": {}
}