{
  "_format": "hh-sol-artifact-1",
  "contractName": "IssuerAccessFacet",
  "sourceName": "contracts/issuer/IssuerAccessFacet.sol",
  "abi": [
    {
      "inputs": [],
      "name": "RequiresFastContractCaller",
      "type": "error"
    },
    {
      "inputs": [
        {
          "internalType": "address",
          "name": "who",
          "type": "address"
        }
      ],
      "name": "RequiresMembersManager",
      "type": "error"
    },
    {
      "inputs": [
        {
          "internalType": "address",
          "name": "who",
          "type": "address"
        }
      ],
      "name": "RequiresValidMember",
      "type": "error"
    },
    {
      "anonymous": false,
      "inputs": [
        {
          "indexed": true,
          "internalType": "address",
          "name": "fast",
          "type": "address"
        }
      ],
      "name": "FastRegistered",
      "type": "event"
    },
    {
      "anonymous": false,
      "inputs": [
        {
          "indexed": true,
          "internalType": "address",
          "name": "fast",
          "type": "address"
        }
      ],
      "name": "FastUnregistered",
      "type": "event"
    },
    {
      "anonymous": false,
      "inputs": [
        {
          "indexed": true,
          "internalType": "address",
          "name": "fast",
          "type": "address"
        },
        {
          "indexed": true,
          "internalType": "address",
          "name": "governor",
          "type": "address"
        }
      ],
      "name": "GovernorshipAdded",
      "type": "event"
    },
    {
      "anonymous": false,
      "inputs": [
        {
          "indexed": true,
          "internalType": "address",
          "name": "fast",
          "type": "address"
        },
        {
          "indexed": true,
          "internalType": "address",
          "name": "governor",
          "type": "address"
        }
      ],
      "name": "GovernorshipRemoved",
      "type": "event"
    },
    {
      "anonymous": false,
      "inputs": [
        {
          "indexed": true,
          "internalType": "address",
          "name": "member",
          "type": "address"
        }
      ],
      "name": "MemberAdded",
      "type": "event"
    },
    {
      "anonymous": false,
      "inputs": [
        {
          "indexed": true,
          "internalType": "address",
          "name": "member",
          "type": "address"
        }
      ],
      "name": "MemberRemoved",
      "type": "event"
    },
    {
      "inputs": [
        {
          "internalType": "address payable",
          "name": "who",
          "type": "address"
        }
      ],
      "name": "addMember",
      "outputs": [],
      "stateMutability": "nonpayable",
      "type": "function"
    },
    {
      "inputs": [
        {
          "internalType": "address",
          "name": "governor",
          "type": "address"
        }
      ],
      "name": "governorAddedToFast",
      "outputs": [],
      "stateMutability": "nonpayable",
      "type": "function"
    },
    {
      "inputs": [
        {
          "internalType": "address",
          "name": "governor",
          "type": "address"
        }
      ],
      "name": "governorRemovedFromFast",
      "outputs": [],
      "stateMutability": "nonpayable",
      "type": "function"
    },
    {
      "inputs": [
        {
          "internalType": "address",
          "name": "who",
          "type": "address"
        }
      ],
      "name": "isMember",
      "outputs": [
        {
          "internalType": "bool",
          "name": "",
          "type": "bool"
        }
      ],
      "stateMutability": "view",
      "type": "function"
    },
    {
      "inputs": [],
      "name": "memberCount",
      "outputs": [
        {
          "internalType": "uint256",
          "name": "",
          "type": "uint256"
        }
      ],
      "stateMutability": "view",
      "type": "function"
    },
    {
      "inputs": [
        {
          "internalType": "address",
          "name": "governor",
          "type": "address"
        },
        {
          "internalType": "uint256",
          "name": "cursor",
          "type": "uint256"
        },
        {
          "internalType": "uint256",
          "name": "perPage",
          "type": "uint256"
        }
      ],
      "name": "paginateGovernorships",
      "outputs": [
        {
          "internalType": "address[]",
          "name": "",
          "type": "address[]"
        },
        {
          "internalType": "uint256",
          "name": "",
          "type": "uint256"
        }
      ],
      "stateMutability": "view",
      "type": "function"
    },
    {
      "inputs": [
        {
          "internalType": "uint256",
          "name": "index",
          "type": "uint256"
        },
        {
          "internalType": "uint256",
          "name": "perPage",
          "type": "uint256"
        }
      ],
      "name": "paginateMembers",
      "outputs": [
        {
          "internalType": "address[]",
          "name": "",
          "type": "address[]"
        },
        {
          "internalType": "uint256",
          "name": "",
          "type": "uint256"
        }
      ],
      "stateMutability": "view",
      "type": "function"
    },
    {
      "inputs": [
        {
          "internalType": "address",
          "name": "member",
          "type": "address"
        }
      ],
      "name": "removeMember",
      "outputs": [],
      "stateMutability": "nonpayable",
      "type": "function"
    }
  ],
  "bytecode": "0x608060405234801561001057600080fd5b50610ded806100206000396000f3fe608060405234801561001057600080fd5b50600436106100885760003560e01c80639ca26d041161005b5780639ca26d04146100fd578063a230c5241461011e578063c6549ba414610141578063ca6d56dc1461015457600080fd5b80630b1ca49a1461008d57806311aee380146100a257806315190dcd146100d75780631543455e146100ea575b600080fd5b6100a061009b366004610bd8565b610167565b005b7fd56529bfa3ed57257eed4751494e1d0c0f212cfe38768380e006e3bee06ffb93546040519081526020015b60405180910390f35b6100a06100e5366004610bd8565b610235565b6100a06100f8366004610bd8565b610378565b61011061010b366004610bf5565b6104bb565b6040516100ce929190610c2a565b61013161012c366004610bd8565b61051d565b60405190151581526020016100ce565b61011061014f366004610c88565b61054f565b6100a0610162366004610bd8565b610589565b33610171816106b9565b6101c4576040517f8574fa9100000000000000000000000000000000000000000000000000000000815273ffffffffffffffffffffffffffffffffffffffff821660048201526024015b60405180910390fd5b6101f07fd56529bfa3ed57257eed4751494e1d0c0f212cfe38768380e006e3bee06ffb9283600061074d565b60405173ffffffffffffffffffffffffffffffffffffffff8316907f6e76fb4c77256006d9c38ec7d82b45a8c8f3c27b1d6766fffc42dfb8de68449290600090a25050565b6040517f41d7c02d00000000000000000000000000000000000000000000000000000000815233600482015230906341d7c02d90602401602060405180830381865afa158015610289573d6000803e3d6000fd5b505050506040513d601f19601f820116820180604052508101906102ad9190610caa565b6102e3576040517f05d0349500000000000000000000000000000000000000000000000000000000815260040160405180910390fd5b73ffffffffffffffffffffffffffffffffffffffff811660009081527f3ceaa4d5edf9c96fbd56140abe6389d65a87143d4f11819874ff2fe0ae9574dc6020526040812061033291339061074d565b60405173ffffffffffffffffffffffffffffffffffffffff82169033907f10c6eb83692dfae8d47b2512188c60ed52af29a5eed489161f455b5655fdef8790600090a350565b6040517f41d7c02d00000000000000000000000000000000000000000000000000000000815233600482015230906341d7c02d90602401602060405180830381865afa1580156103cc573d6000803e3d6000fd5b505050506040513d601f19601f820116820180604052508101906103f09190610caa565b610426576040517f05d0349500000000000000000000000000000000000000000000000000000000815260040160405180910390fd5b73ffffffffffffffffffffffffffffffffffffffff811660009081527f3ceaa4d5edf9c96fbd56140abe6389d65a87143d4f11819874ff2fe0ae9574dc60205260408120610475913390610925565b60405173ffffffffffffffffffffffffffffffffffffffff82169033907f9b91f8e4de17457489ea0c518c31ae2c30a6ee2dffc5ad684842ddc83b7327ce90600090a350565b73ffffffffffffffffffffffffffffffffffffffff831660009081527f3ceaa4d5edf9c96fbd56140abe6389d65a87143d4f11819874ff2fe0ae9574dc6020526040812060609190610511906001018585610a19565b91509150935093915050565b60006105497fd56529bfa3ed57257eed4751494e1d0c0f212cfe38768380e006e3bee06ffb9283610b3a565b92915050565b6060600061057e7fd56529bfa3ed57257eed4751494e1d0c0f212cfe38768380e006e3bee06ffb938585610a19565b915091509250929050565b33610593816106b9565b6105e1576040517f8574fa9100000000000000000000000000000000000000000000000000000000815273ffffffffffffffffffffffffffffffffffffffff821660048201526024016101bb565b8173ffffffffffffffffffffffffffffffffffffffff8116610647576040517f06a0278c00000000000000000000000000000000000000000000000000000000815273ffffffffffffffffffffffffffffffffffffffff821660048201526024016101bb565b6106737fd56529bfa3ed57257eed4751494e1d0c0f212cfe38768380e006e3bee06ffb92846000610925565b60405173ffffffffffffffffffffffffffffffffffffffff8416907fb251eb052afc73ffd02ffe85ad79990a8b3fed60d76dbc2fa2fdd7123dffd91490600090a2505050565b6040517fa230c52400000000000000000000000000000000000000000000000000000000815273ffffffffffffffffffffffffffffffffffffffff82166004820152600090309063a230c52490602401602060405180830381865afa158015610726573d6000803e3d6000fd5b505050506040513d601f19601f820116820180604052508101906105499190610caa565b50565b60006107598484610b3a565b9050818015610766575080155b156107715750505050565b806107d8576040517f08c379a000000000000000000000000000000000000000000000000000000000815260206004820152601d60248201527f4164647265737320646f6573206e6f7420657869737420696e2073657400000060448201526064016101bb565b600180850180546000926107eb91610cfb565b815481106107fb576107fb610d12565b600091825260208083209091015473ffffffffffffffffffffffffffffffffffffffff87811684529188905260408084205492909116808452922081905560018701805492935090918391908390811061085757610857610d12565b600091825260208083209190910180547fffffffffffffffffffffffff00000000000000000000000000000000000000001673ffffffffffffffffffffffffffffffffffffffff9485161790559187168152908790526040812055600186018054806108c5576108c5610d41565b60008281526020902081017fffffffffffffffffffffffffffffffffffffffffffffffffffffffffffffffff90810180547fffffffffffffffffffffffff0000000000000000000000000000000000000000169055019055505050505050565b60006109318484610b3a565b905081801561093d5750805b156109485750505050565b80156109b0576040517f08c379a000000000000000000000000000000000000000000000000000000000815260206004820152601660248201527f4164647265737320616c726561647920696e207365740000000000000000000060448201526064016101bb565b50506001808301805473ffffffffffffffffffffffffffffffffffffffff909316600081815260209586526040812085905592840182559082529290200180547fffffffffffffffffffffffff0000000000000000000000000000000000000000169091179055565b6060600080848680549050610a2e9190610cfb565b8411610a3a5783610a47565b8554610a47908690610cfb565b905060008167ffffffffffffffff811115610a6457610a64610d70565b604051908082528060200260200182016040528015610a8d578160200160208202803683370190505b50905060005b82811015610b205787610aa68289610d9f565b81548110610ab657610ab6610d12565b9060005260206000200160009054906101000a900473ffffffffffffffffffffffffffffffffffffffff16828281518110610af357610af3610d12565b73ffffffffffffffffffffffffffffffffffffffff90921660209283029190910190910152600101610a93565b5080610b2c8388610d9f565b935093505050935093915050565b600182015460009015610bac5773ffffffffffffffffffffffffffffffffffffffff82166000818152602085905260409020546001850180549091908110610b8457610b84610d12565b60009182526020909120015473ffffffffffffffffffffffffffffffffffffffff1614610baf565b60005b9392505050565b73ffffffffffffffffffffffffffffffffffffffff8116811461074a57600080fd5b600060208284031215610bea57600080fd5b8135610baf81610bb6565b600080600060608486031215610c0a57600080fd5b8335610c1581610bb6565b95602085013595506040909401359392505050565b604080825283519082018190526000906020906060840190828701845b82811015610c7957815173ffffffffffffffffffffffffffffffffffffffff1684529284019290840190600101610c47565b50505092019290925292915050565b60008060408385031215610c9b57600080fd5b50508035926020909101359150565b600060208284031215610cbc57600080fd5b81518015158114610baf57600080fd5b7f4e487b7100000000000000000000000000000000000000000000000000000000600052601160045260246000fd5b600082821015610d0d57610d0d610ccc565b500390565b7f4e487b7100000000000000000000000000000000000000000000000000000000600052603260045260246000fd5b7f4e487b7100000000000000000000000000000000000000000000000000000000600052603160045260246000fd5b7f4e487b7100000000000000000000000000000000000000000000000000000000600052604160045260246000fd5b60008219821115610db257610db2610ccc565b50019056fea264697066735822122087717e9b3741d3806a84c6b6cecaa718a0ef9affd89048fd4767a559fe83b5f864736f6c634300080a0033",
  "linkReferences": {},
  "deployedLinkReferences": {}
}