{
  "_format": "hh-sol-artifact-1",
  "contractName": "IssuerAutomatonsFacet",
  "sourceName": "contracts/issuer/IssuerAutomatonsFacet.sol",
  "abi": [
    {
      "inputs": [
        {
          "internalType": "address",
          "name": "who",
          "type": "address"
        }
      ],
      "name": "RequiresAutomatonsManager",
      "type": "error"
    },
    {
      "anonymous": false,
      "inputs": [
        {
          "indexed": true,
          "internalType": "address",
          "name": "automaton",
          "type": "address"
        },
        {
          "indexed": true,
          "internalType": "uint32",
          "name": "privileges",
          "type": "uint32"
        }
      ],
      "name": "AutomatonPrivilegesSet",
      "type": "event"
    },
    {
      "anonymous": false,
      "inputs": [
        {
          "indexed": true,
          "internalType": "address",
          "name": "automaton",
          "type": "address"
        }
      ],
      "name": "AutomatonRemoved",
      "type": "event"
    },
    {
      "anonymous": false,
      "inputs": [
        {
          "indexed": true,
          "internalType": "address",
          "name": "fast",
          "type": "address"
        }
      ],
      "name": "FastRegistered",
      "type": "event"
    },
    {
      "anonymous": false,
      "inputs": [
        {
          "indexed": true,
          "internalType": "address",
          "name": "fast",
          "type": "address"
        }
      ],
      "name": "FastUnregistered",
      "type": "event"
    },
    {
      "anonymous": false,
      "inputs": [
        {
          "indexed": true,
          "internalType": "address",
          "name": "fast",
          "type": "address"
        },
        {
          "indexed": true,
          "internalType": "address",
          "name": "governor",
          "type": "address"
        }
      ],
      "name": "GovernorshipAdded",
      "type": "event"
    },
    {
      "anonymous": false,
      "inputs": [
        {
          "indexed": true,
          "internalType": "address",
          "name": "fast",
          "type": "address"
        },
        {
          "indexed": true,
          "internalType": "address",
          "name": "governor",
          "type": "address"
        }
      ],
      "name": "GovernorshipRemoved",
      "type": "event"
    },
    {
      "inputs": [
        {
          "internalType": "address",
          "name": "automaton",
          "type": "address"
        },
        {
          "internalType": "uint32",
          "name": "privilege",
          "type": "uint32"
        }
      ],
      "name": "automatonCan",
      "outputs": [
        {
          "internalType": "bool",
          "name": "",
          "type": "bool"
        }
      ],
      "stateMutability": "view",
      "type": "function"
    },
    {
      "inputs": [],
      "name": "automatonCount",
      "outputs": [
        {
          "internalType": "uint256",
          "name": "",
          "type": "uint256"
        }
      ],
      "stateMutability": "view",
      "type": "function"
    },
    {
      "inputs": [
        {
          "internalType": "address",
          "name": "automaton",
          "type": "address"
        }
      ],
      "name": "automatonPrivileges",
      "outputs": [
        {
          "internalType": "uint32",
          "name": "",
          "type": "uint32"
        }
      ],
      "stateMutability": "view",
      "type": "function"
    },
    {
      "inputs": [
        {
          "internalType": "address",
          "name": "candidate",
          "type": "address"
        }
      ],
      "name": "isAutomaton",
      "outputs": [
        {
          "internalType": "bool",
          "name": "",
          "type": "bool"
        }
      ],
      "stateMutability": "view",
      "type": "function"
    },
    {
      "inputs": [
        {
          "internalType": "uint256",
          "name": "cursor",
          "type": "uint256"
        },
        {
          "internalType": "uint256",
          "name": "perPage",
          "type": "uint256"
        }
      ],
      "name": "paginateAutomatons",
      "outputs": [
        {
          "internalType": "address[]",
          "name": "",
          "type": "address[]"
        },
        {
          "internalType": "uint256",
          "name": "",
          "type": "uint256"
        }
      ],
      "stateMutability": "view",
      "type": "function"
    },
    {
      "inputs": [
        {
          "internalType": "address",
          "name": "candidate",
          "type": "address"
        }
      ],
      "name": "removeAutomaton",
      "outputs": [],
      "stateMutability": "nonpayable",
      "type": "function"
    },
    {
      "inputs": [
        {
          "internalType": "address",
          "name": "candidate",
          "type": "address"
        },
        {
          "internalType": "uint32",
          "name": "privileges",
          "type": "uint32"
        }
      ],
      "name": "setAutomatonPrivileges",
      "outputs": [],
      "stateMutability": "nonpayable",
      "type": "function"
    }
  ],
  "bytecode": "0x608060405234801561001057600080fd5b50610bef806100206000396000f3fe608060405234801561001057600080fd5b506004361061007d5760003560e01c8063911a56cc1161005b578063911a56cc1461012e578063b70cc72a14610141578063b87c747514610154578063ccf90c74146101c457600080fd5b80633e39e4cf14610082578063617b0b9d1461009757806376a7383d1461010d575b600080fd5b6100956100903660046109d1565b6101f4565b005b6100f86100a53660046109d1565b73ffffffffffffffffffffffffffffffffffffffff9190911660009081527f3dfe1f2f995ddddfe9572dcdd01e4fb472ed2fb10a125c3b0156e94d073b918660205260409020541663ffffffff16151590565b60405190151581526020015b60405180910390f35b61012061011b366004610a11565b610325565b604051610104929190610a33565b61009561013c366004610a91565b61035f565b6100f861014f366004610a91565b61047c565b6101af610162366004610a91565b73ffffffffffffffffffffffffffffffffffffffff1660009081527f3dfe1f2f995ddddfe9572dcdd01e4fb472ed2fb10a125c3b0156e94d073b9186602052604090205463ffffffff1690565b60405163ffffffff9091168152602001610104565b7f3dfe1f2f995ddddfe9572dcdd01e4fb472ed2fb10a125c3b0156e94d073b918554604051908152602001610104565b336101fe816104ae565b610251576040517f972aa5a900000000000000000000000000000000000000000000000000000000815273ffffffffffffffffffffffffffffffffffffffff821660048201526024015b60405180910390fd5b7f3dfe1f2f995ddddfe9572dcdd01e4fb472ed2fb10a125c3b0156e94d073b918361029e7f3dfe1f2f995ddddfe9572dcdd01e4fb472ed2fb10a125c3b0156e94d073b918485600161053f565b73ffffffffffffffffffffffffffffffffffffffff8416600081815260038301602052604080822080547fffffffffffffffffffffffffffffffffffffffffffffffffffffffff000000001663ffffffff881690811790915590519092917f5fd56a5aab6279a81e4acca954bf23ce5ffea9c6351189f4faf647731c38dffa91a350505050565b606060006103547f3dfe1f2f995ddddfe9572dcdd01e4fb472ed2fb10a125c3b0156e94d073b91858585610633565b915091509250929050565b33610369816104ae565b6103b7576040517f972aa5a900000000000000000000000000000000000000000000000000000000815273ffffffffffffffffffffffffffffffffffffffff82166004820152602401610248565b7f3dfe1f2f995ddddfe9572dcdd01e4fb472ed2fb10a125c3b0156e94d073b91836104047f3dfe1f2f995ddddfe9572dcdd01e4fb472ed2fb10a125c3b0156e94d073b9184846000610754565b73ffffffffffffffffffffffffffffffffffffffff8316600081815260038301602052604080822080547fffffffffffffffffffffffffffffffffffffffffffffffffffffffff00000000169055517f4592667aee797226527dbacd5953afb6e4fd4263ffc6f671efc0441b45b098d49190a2505050565b60006104a87f3dfe1f2f995ddddfe9572dcdd01e4fb472ed2fb10a125c3b0156e94d073b91848361092c565b92915050565b6040517fa230c52400000000000000000000000000000000000000000000000000000000815273ffffffffffffffffffffffffffffffffffffffff82166004820152600090309063a230c52490602401602060405180830381865afa15801561051b573d6000803e3d6000fd5b505050506040513d601f19601f820116820180604052508101906104a89190610aac565b600061054b848461092c565b90508180156105575750805b156105625750505050565b80156105ca576040517f08c379a000000000000000000000000000000000000000000000000000000000815260206004820152601660248201527f4164647265737320616c726561647920696e20736574000000000000000000006044820152606401610248565b50506001808301805473ffffffffffffffffffffffffffffffffffffffff909316600081815260209586526040812085905592840182559082529290200180547fffffffffffffffffffffffff0000000000000000000000000000000000000000169091179055565b60606000808486805490506106489190610afd565b84116106545783610661565b8554610661908690610afd565b905060008167ffffffffffffffff81111561067e5761067e610b14565b6040519080825280602002602001820160405280156106a7578160200160208202803683370190505b50905060005b8281101561073a57876106c08289610b43565b815481106106d0576106d0610b5b565b9060005260206000200160009054906101000a900473ffffffffffffffffffffffffffffffffffffffff1682828151811061070d5761070d610b5b565b73ffffffffffffffffffffffffffffffffffffffff909216602092830291909101909101526001016106ad565b50806107468388610b43565b935093505050935093915050565b6000610760848461092c565b905081801561076d575080155b156107785750505050565b806107df576040517f08c379a000000000000000000000000000000000000000000000000000000000815260206004820152601d60248201527f4164647265737320646f6573206e6f7420657869737420696e207365740000006044820152606401610248565b600180850180546000926107f291610afd565b8154811061080257610802610b5b565b600091825260208083209091015473ffffffffffffffffffffffffffffffffffffffff87811684529188905260408084205492909116808452922081905560018701805492935090918391908390811061085e5761085e610b5b565b600091825260208083209190910180547fffffffffffffffffffffffff00000000000000000000000000000000000000001673ffffffffffffffffffffffffffffffffffffffff9485161790559187168152908790526040812055600186018054806108cc576108cc610b8a565b60008281526020902081017fffffffffffffffffffffffffffffffffffffffffffffffffffffffffffffffff90810180547fffffffffffffffffffffffff0000000000000000000000000000000000000000169055019055505050505050565b60018201546000901561099e5773ffffffffffffffffffffffffffffffffffffffff8216600081815260208590526040902054600185018054909190811061097657610976610b5b565b60009182526020909120015473ffffffffffffffffffffffffffffffffffffffff16146109a1565b60005b9392505050565b803573ffffffffffffffffffffffffffffffffffffffff811681146109cc57600080fd5b919050565b600080604083850312156109e457600080fd5b6109ed836109a8565b9150602083013563ffffffff81168114610a0657600080fd5b809150509250929050565b60008060408385031215610a2457600080fd5b50508035926020909101359150565b604080825283519082018190526000906020906060840190828701845b82811015610a8257815173ffffffffffffffffffffffffffffffffffffffff1684529284019290840190600101610a50565b50505092019290925292915050565b600060208284031215610aa357600080fd5b6109a1826109a8565b600060208284031215610abe57600080fd5b815180151581146109a157600080fd5b7f4e487b7100000000000000000000000000000000000000000000000000000000600052601160045260246000fd5b600082821015610b0f57610b0f610ace565b500390565b7f4e487b7100000000000000000000000000000000000000000000000000000000600052604160045260246000fd5b60008219821115610b5657610b56610ace565b500190565b7f4e487b7100000000000000000000000000000000000000000000000000000000600052603260045260246000fd5b7f4e487b7100000000000000000000000000000000000000000000000000000000600052603160045260246000fdfea264697066735822122023a2e21bb7d8fb32948956e754db26bf36729dde4a4a8a53d7c43640dfd1cfde64736f6c634300080a0033",
  "linkReferences": {},
  "deployedLinkReferences": {}
}