{
  "_format": "hh-sol-artifact-1",
  "contractName": "IssuerTopFacet",
  "sourceName": "contracts/issuer/IssuerTopFacet.sol",
  "abi": [
    {
      "inputs": [],
      "name": "DuplicateEntry",
      "type": "error"
    },
    {
      "inputs": [
        {
          "internalType": "address",
          "name": "who",
          "type": "address"
        }
      ],
      "name": "RequiresIssuerMembership",
      "type": "error"
    },
    {
      "anonymous": false,
      "inputs": [
        {
          "indexed": true,
          "internalType": "address",
          "name": "fast",
          "type": "address"
        }
      ],
      "name": "FastRegistered",
      "type": "event"
    },
    {
      "anonymous": false,
      "inputs": [
        {
          "indexed": true,
          "internalType": "address",
          "name": "fast",
          "type": "address"
        }
      ],
      "name": "FastUnregistered",
      "type": "event"
    },
    {
      "anonymous": false,
      "inputs": [
        {
          "indexed": true,
          "internalType": "address",
          "name": "fast",
          "type": "address"
        },
        {
          "indexed": true,
          "internalType": "address",
          "name": "governor",
          "type": "address"
        }
      ],
      "name": "GovernorshipAdded",
      "type": "event"
    },
    {
      "anonymous": false,
      "inputs": [
        {
          "indexed": true,
          "internalType": "address",
          "name": "fast",
          "type": "address"
        },
        {
          "indexed": true,
          "internalType": "address",
          "name": "governor",
          "type": "address"
        }
      ],
      "name": "GovernorshipRemoved",
      "type": "event"
    },
    {
      "inputs": [
        {
          "internalType": "string",
          "name": "symbol",
          "type": "string"
        }
      ],
      "name": "fastBySymbol",
      "outputs": [
        {
          "internalType": "address",
          "name": "",
          "type": "address"
        }
      ],
      "stateMutability": "view",
      "type": "function"
    },
    {
      "inputs": [],
      "name": "fastCount",
      "outputs": [
        {
          "internalType": "uint256",
          "name": "",
          "type": "uint256"
        }
      ],
      "stateMutability": "view",
      "type": "function"
    },
    {
      "inputs": [
        {
          "internalType": "address",
          "name": "fast",
          "type": "address"
        }
      ],
      "name": "isFastRegistered",
      "outputs": [
        {
          "internalType": "bool",
          "name": "",
          "type": "bool"
        }
      ],
      "stateMutability": "view",
      "type": "function"
    },
    {
      "inputs": [
        {
          "internalType": "uint256",
          "name": "cursor",
          "type": "uint256"
        },
        {
          "internalType": "uint256",
          "name": "perPage",
          "type": "uint256"
        }
      ],
      "name": "paginateFasts",
      "outputs": [
        {
          "internalType": "address[]",
          "name": "",
          "type": "address[]"
        },
        {
          "internalType": "uint256",
          "name": "",
          "type": "uint256"
        }
      ],
      "stateMutability": "view",
      "type": "function"
    },
    {
      "inputs": [
        {
          "internalType": "address",
          "name": "fast",
          "type": "address"
        }
      ],
      "name": "registerFast",
      "outputs": [],
      "stateMutability": "nonpayable",
      "type": "function"
    },
    {
      "inputs": [
        {
          "internalType": "contract IERC20",
          "name": "token",
          "type": "address"
        },
        {
          "internalType": "uint256",
          "name": "amount",
          "type": "uint256"
        },
        {
          "internalType": "address",
          "name": "to",
          "type": "address"
        }
      ],
      "name": "transferERC20Tokens",
      "outputs": [],
      "stateMutability": "nonpayable",
      "type": "function"
    },
    {
      "inputs": [
        {
          "internalType": "address",
          "name": "fast",
          "type": "address"
        }
      ],
      "name": "unregisterFast",
      "outputs": [],
      "stateMutability": "nonpayable",
      "type": "function"
    }
  ],
  "bytecode": "0x608060405234801561001057600080fd5b50611144806100206000396000f3fe608060405234801561001057600080fd5b506004361061007d5760003560e01c8063654eebcb1161005b578063654eebcb146101125780638201d2061461012757806388d8710e14610148578063a039f9641461015b57600080fd5b8063112b24c914610082578063164f8e6a146100b757806341d7c02d146100ef575b600080fd5b7fd681d5f1de7bc4b7442c088939dc202585e09699e92a94c9717ace8d0f4fcaa7546040519081526020015b60405180910390f35b6100ca6100c5366004610d68565b61016e565b60405173ffffffffffffffffffffffffffffffffffffffff90911681526020016100ae565b6101026100fd366004610dff565b6101d2565b60405190151581526020016100ae565b610125610120366004610dff565b610204565b005b61013a610135366004610e1c565b6104b5565b6040516100ae929190610e3e565b610125610156366004610e9c565b6104ef565b610125610169366004610dff565b610660565b60007fd681d5f1de7bc4b7442c088939dc202585e09699e92a94c9717ace8d0f4fcaa560030183836040516101a4929190610ede565b9081526040519081900360200190205473ffffffffffffffffffffffffffffffffffffffff16905092915050565b60006101fe7fd681d5f1de7bc4b7442c088939dc202585e09699e92a94c9717ace8d0f4fcaa6836108ff565b92915050565b6040517fa230c524000000000000000000000000000000000000000000000000000000008152336004820181905290309063a230c52490602401602060405180830381865afa15801561025b573d6000803e3d6000fd5b505050506040513d601f19601f8201168201806040525081019061027f9190610eee565b6102d2576040517f1dd41c4d00000000000000000000000000000000000000000000000000000000815273ffffffffffffffffffffffffffffffffffffffff821660048201526024015b60405180910390fd5b60007fd681d5f1de7bc4b7442c088939dc202585e09699e92a94c9717ace8d0f4fcaa5905060008373ffffffffffffffffffffffffffffffffffffffff166395d89b416040518163ffffffff1660e01b8152600401600060405180830381865afa158015610344573d6000803e3d6000fd5b505050506040513d6000823e601f3d9081017fffffffffffffffffffffffffffffffffffffffffffffffffffffffffffffffe016820160405261038a9190810190610f6b565b9050600073ffffffffffffffffffffffffffffffffffffffff1682600301826040516103b69190611036565b9081526040519081900360200190205473ffffffffffffffffffffffffffffffffffffffff1614610413576040517f357d0cc400000000000000000000000000000000000000000000000000000000815260040160405180910390fd5b6104226001830185600061097b565b8382600301826040516104359190611036565b908152604051908190036020018120805473ffffffffffffffffffffffffffffffffffffffff9384167fffffffffffffffffffffffff0000000000000000000000000000000000000000909116179055908516907fa393070be795669766b8f40ecaab0724def57650be5914b232c8fb18ca507f3690600090a250505050565b606060006104e47fd681d5f1de7bc4b7442c088939dc202585e09699e92a94c9717ace8d0f4fcaa78585610a6f565b915091509250929050565b6040517fa230c524000000000000000000000000000000000000000000000000000000008152336004820181905290309063a230c52490602401602060405180830381865afa158015610546573d6000803e3d6000fd5b505050506040513d601f19601f8201168201806040525081019061056a9190610eee565b6105b8576040517f1dd41c4d00000000000000000000000000000000000000000000000000000000815273ffffffffffffffffffffffffffffffffffffffff821660048201526024016102c9565b6040517fa9059cbb00000000000000000000000000000000000000000000000000000000815273ffffffffffffffffffffffffffffffffffffffff83811660048301526024820185905285169063a9059cbb906044016020604051808303816000875af115801561062d573d6000803e3d6000fd5b505050506040513d601f19601f820116820180604052508101906106519190610eee565b61065a57600080fd5b50505050565b6040517fa230c524000000000000000000000000000000000000000000000000000000008152336004820181905290309063a230c52490602401602060405180830381865afa1580156106b7573d6000803e3d6000fd5b505050506040513d601f19601f820116820180604052508101906106db9190610eee565b610729576040517f1dd41c4d00000000000000000000000000000000000000000000000000000000815273ffffffffffffffffffffffffffffffffffffffff821660048201526024016102c9565b60007fd681d5f1de7bc4b7442c088939dc202585e09699e92a94c9717ace8d0f4fcaa5905060008373ffffffffffffffffffffffffffffffffffffffff166395d89b416040518163ffffffff1660e01b8152600401600060405180830381865afa15801561079b573d6000803e3d6000fd5b505050506040513d6000823e601f3d9081017fffffffffffffffffffffffffffffffffffffffffffffffffffffffffffffffe01682016040526107e19190810190610f6b565b6040517f8762d38e0000000000000000000000000000000000000000000000000000000081526001600482015290915073ffffffffffffffffffffffffffffffffffffffff851690638762d38e90602401600060405180830381600087803b15801561084c57600080fd5b505af1158015610860573d6000803e3d6000fd5b506108749250505060018301856000610b90565b81600301816040516108869190611036565b90815260405190819003602001812080547fffffffffffffffffffffffff000000000000000000000000000000000000000016905573ffffffffffffffffffffffffffffffffffffffff8516907fa93b3040b50218f24c9d54170f419c51d5c6998047be7d5a4f70023b8abc197790600090a250505050565b6001820154600090156109715773ffffffffffffffffffffffffffffffffffffffff8216600081815260208590526040902054600185018054909190811061094957610949611052565b60009182526020909120015473ffffffffffffffffffffffffffffffffffffffff1614610974565b60005b9392505050565b600061098784846108ff565b90508180156109935750805b1561099e5750505050565b8015610a06576040517f08c379a000000000000000000000000000000000000000000000000000000000815260206004820152601660248201527f4164647265737320616c726561647920696e207365740000000000000000000060448201526064016102c9565b50506001808301805473ffffffffffffffffffffffffffffffffffffffff909316600081815260209586526040812085905592840182559082529290200180547fffffffffffffffffffffffff0000000000000000000000000000000000000000169091179055565b6060600080848680549050610a8491906110b0565b8411610a905783610a9d565b8554610a9d9086906110b0565b905060008167ffffffffffffffff811115610aba57610aba610f10565b604051908082528060200260200182016040528015610ae3578160200160208202803683370190505b50905060005b82811015610b765787610afc82896110c7565b81548110610b0c57610b0c611052565b9060005260206000200160009054906101000a900473ffffffffffffffffffffffffffffffffffffffff16828281518110610b4957610b49611052565b73ffffffffffffffffffffffffffffffffffffffff90921660209283029190910190910152600101610ae9565b5080610b8283886110c7565b935093505050935093915050565b6000610b9c84846108ff565b9050818015610ba9575080155b15610bb45750505050565b80610c1b576040517f08c379a000000000000000000000000000000000000000000000000000000000815260206004820152601d60248201527f4164647265737320646f6573206e6f7420657869737420696e2073657400000060448201526064016102c9565b60018085018054600092610c2e916110b0565b81548110610c3e57610c3e611052565b600091825260208083209091015473ffffffffffffffffffffffffffffffffffffffff878116845291889052604080842054929091168084529220819055600187018054929350909183919083908110610c9a57610c9a611052565b600091825260208083209190910180547fffffffffffffffffffffffff00000000000000000000000000000000000000001673ffffffffffffffffffffffffffffffffffffffff948516179055918716815290879052604081205560018601805480610d0857610d086110df565b60008281526020902081017fffffffffffffffffffffffffffffffffffffffffffffffffffffffffffffffff90810180547fffffffffffffffffffffffff0000000000000000000000000000000000000000169055019055505050505050565b60008060208385031215610d7b57600080fd5b823567ffffffffffffffff80821115610d9357600080fd5b818501915085601f830112610da757600080fd5b813581811115610db657600080fd5b866020828501011115610dc857600080fd5b60209290920196919550909350505050565b73ffffffffffffffffffffffffffffffffffffffff81168114610dfc57600080fd5b50565b600060208284031215610e1157600080fd5b813561097481610dda565b60008060408385031215610e2f57600080fd5b50508035926020909101359150565b604080825283519082018190526000906020906060840190828701845b82811015610e8d57815173ffffffffffffffffffffffffffffffffffffffff1684529284019290840190600101610e5b565b50505092019290925292915050565b600080600060608486031215610eb157600080fd5b8335610ebc81610dda565b9250602084013591506040840135610ed381610dda565b809150509250925092565b8183823760009101908152919050565b600060208284031215610f0057600080fd5b8151801515811461097457600080fd5b7f4e487b7100000000000000000000000000000000000000000000000000000000600052604160045260246000fd5b60005b83811015610f5a578181015183820152602001610f42565b8381111561065a5750506000910152565b600060208284031215610f7d57600080fd5b815167ffffffffffffffff80821115610f9557600080fd5b818401915084601f830112610fa957600080fd5b815181811115610fbb57610fbb610f10565b604051601f82017fffffffffffffffffffffffffffffffffffffffffffffffffffffffffffffffe0908116603f0116810190838211818310171561100157611001610f10565b8160405282815287602084870101111561101a57600080fd5b61102b836020830160208801610f3f565b979650505050505050565b60008251611048818460208701610f3f565b9190910192915050565b7f4e487b7100000000000000000000000000000000000000000000000000000000600052603260045260246000fd5b7f4e487b7100000000000000000000000000000000000000000000000000000000600052601160045260246000fd5b6000828210156110c2576110c2611081565b500390565b600082198211156110da576110da611081565b500190565b7f4e487b7100000000000000000000000000000000000000000000000000000000600052603160045260246000fdfea2646970667358221220cc90324e8a76e3521351c515bcc069a5b389de01635379ddc9dd2f42597001dd64736f6c634300080a0033",
  "linkReferences": {},
  "deployedLinkReferences": {}
}