{
  "_format": "hh-sol-artifact-1",
  "contractName": "MarketplaceAccessFacet",
  "sourceName": "contracts/marketplace/MarketplaceAccessFacet.sol",
  "abi": [
    {
      "inputs": [],
      "name": "RequiresFastContractCaller",
      "type": "error"
    },
    {
      "inputs": [
        {
          "internalType": "address",
          "name": "who",
          "type": "address"
        }
      ],
      "name": "RequiresIssuerMembership",
      "type": "error"
    },
    {
      "inputs": [
        {
          "internalType": "address",
          "name": "who",
          "type": "address"
        }
      ],
      "name": "RequiresMarketplaceActiveMembership",
      "type": "error"
    },
    {
      "inputs": [
        {
          "internalType": "address",
          "name": "who",
          "type": "address"
        }
      ],
      "name": "RequiresMarketplaceDeactivatedMember",
      "type": "error"
    },
    {
      "inputs": [
        {
          "internalType": "address",
          "name": "who",
          "type": "address"
        }
      ],
      "name": "RequiresMarketplaceMembership",
      "type": "error"
    },
    {
      "inputs": [
        {
          "internalType": "address",
          "name": "who",
          "type": "address"
        }
      ],
      "name": "RequiresMembersManager",
      "type": "error"
    },
    {
      "inputs": [
        {
          "internalType": "address",
          "name": "who",
          "type": "address"
        }
      ],
      "name": "RequiresNoFastMemberships",
      "type": "error"
    },
    {
      "inputs": [
        {
          "internalType": "address",
          "name": "who",
          "type": "address"
        }
      ],
      "name": "RequiresValidMember",
      "type": "error"
    },
    {
      "anonymous": false,
      "inputs": [
        {
          "indexed": true,
          "internalType": "address",
          "name": "member",
          "type": "address"
        }
      ],
      "name": "MemberActivated",
      "type": "event"
    },
    {
      "anonymous": false,
      "inputs": [
        {
          "indexed": true,
          "internalType": "address",
          "name": "member",
          "type": "address"
        }
      ],
      "name": "MemberAdded",
      "type": "event"
    },
    {
      "anonymous": false,
      "inputs": [
        {
          "indexed": true,
          "internalType": "address",
          "name": "member",
          "type": "address"
        }
      ],
      "name": "MemberDeactivated",
      "type": "event"
    },
    {
      "anonymous": false,
      "inputs": [
        {
          "indexed": true,
          "internalType": "address",
          "name": "member",
          "type": "address"
        }
      ],
      "name": "MemberRemoved",
      "type": "event"
    },
    {
      "inputs": [
        {
          "internalType": "address",
          "name": "member",
          "type": "address"
        }
      ],
      "name": "activateMember",
      "outputs": [],
      "stateMutability": "nonpayable",
      "type": "function"
    },
    {
      "inputs": [
        {
          "internalType": "address payable",
          "name": "who",
          "type": "address"
        }
      ],
      "name": "addMember",
      "outputs": [],
      "stateMutability": "nonpayable",
      "type": "function"
    },
    {
      "inputs": [
        {
          "internalType": "address payable",
          "name": "member",
          "type": "address"
        }
      ],
      "name": "deactivateMember",
      "outputs": [],
      "stateMutability": "nonpayable",
      "type": "function"
    },
    {
      "inputs": [
        {
          "internalType": "address",
          "name": "member",
          "type": "address"
        },
        {
          "internalType": "uint256",
          "name": "cursor",
          "type": "uint256"
        },
        {
          "internalType": "uint256",
          "name": "perPage",
          "type": "uint256"
        }
      ],
      "name": "fastMemberships",
      "outputs": [
        {
          "internalType": "address[]",
          "name": "",
          "type": "address[]"
        },
        {
          "internalType": "uint256",
          "name": "",
          "type": "uint256"
        }
      ],
      "stateMutability": "view",
      "type": "function"
    },
    {
      "inputs": [
        {
          "internalType": "address",
          "name": "candidate",
          "type": "address"
        }
      ],
      "name": "isActiveMember",
      "outputs": [
        {
          "internalType": "bool",
          "name": "",
          "type": "bool"
        }
      ],
      "stateMutability": "view",
      "type": "function"
    },
    {
      "inputs": [
        {
          "internalType": "address",
          "name": "who",
          "type": "address"
        }
      ],
      "name": "isMember",
      "outputs": [
        {
          "internalType": "bool",
          "name": "",
          "type": "bool"
        }
      ],
      "stateMutability": "view",
      "type": "function"
    },
    {
      "inputs": [
        {
          "internalType": "address",
          "name": "member",
          "type": "address"
        }
      ],
      "name": "memberAddedToFast",
      "outputs": [],
      "stateMutability": "nonpayable",
      "type": "function"
    },
    {
      "inputs": [],
      "name": "memberCount",
      "outputs": [
        {
          "internalType": "uint256",
          "name": "",
          "type": "uint256"
        }
      ],
      "stateMutability": "view",
      "type": "function"
    },
    {
      "inputs": [
        {
          "internalType": "address",
          "name": "member",
          "type": "address"
        }
      ],
      "name": "memberRemovedFromFast",
      "outputs": [],
      "stateMutability": "nonpayable",
      "type": "function"
    },
    {
      "inputs": [
        {
          "internalType": "uint256",
          "name": "index",
          "type": "uint256"
        },
        {
          "internalType": "uint256",
          "name": "perPage",
          "type": "uint256"
        }
      ],
      "name": "paginateMembers",
      "outputs": [
        {
          "internalType": "address[]",
          "name": "",
          "type": "address[]"
        },
        {
          "internalType": "uint256",
          "name": "",
          "type": "uint256"
        }
      ],
      "stateMutability": "view",
      "type": "function"
    },
    {
      "inputs": [
        {
          "internalType": "address",
          "name": "member",
          "type": "address"
        }
      ],
      "name": "removeMember",
      "outputs": [],
      "stateMutability": "nonpayable",
      "type": "function"
    }
  ],
  "bytecode": "0x608060405234801561001057600080fd5b5061154e806100206000396000f3fe608060405234801561001057600080fd5b50600436106100c95760003560e01c80638f7fba5b11610081578063c6549ba41161005b578063c6549ba4146101a8578063ca6d56dc146101bb578063d4f3476d146101ce57600080fd5b80638f7fba5b14610161578063a230c52414610182578063af827ff71461019557600080fd5b80631b09a281116100b25780631b09a2811461011857806345ecd02f1461012b57806378ab262e1461014e57600080fd5b80630b1ca49a146100ce57806311aee380146100e3575b600080fd5b6100e16100dc366004611339565b6101e1565b005b7fd56529bfa3ed57257eed4751494e1d0c0f212cfe38768380e006e3bee06ffb93546040519081526020015b60405180910390f35b6100e1610126366004611339565b6102b8565b61013e610139366004611339565b6103f6565b604051901515815260200161010f565b6100e161015c366004611339565b6104c0565b61017461016f366004611356565b61072d565b60405161010f92919061138b565b61013e610190366004611339565b61078f565b6100e16101a3366004611339565b6107bb565b6101746101b63660046113e9565b6108f6565b6100e16101c9366004611339565b610930565b6100e16101dc366004611339565b610a60565b336101eb81610ccc565b61023e576040517f8574fa9100000000000000000000000000000000000000000000000000000000815273ffffffffffffffffffffffffffffffffffffffff821660048201526024015b60405180910390fd5b61024782610d73565b6102737fd56529bfa3ed57257eed4751494e1d0c0f212cfe38768380e006e3bee06ffb92836000610e30565b60405173ffffffffffffffffffffffffffffffffffffffff8316907f6e76fb4c77256006d9c38ec7d82b45a8c8f3c27b1d6766fffc42dfb8de68449290600090a25050565b7fb59ec141376cee83f618e10e881bbb4789cdeee27e0d441a8c37ead3cb8b93c1546040517f41d7c02d0000000000000000000000000000000000000000000000000000000081523360048201526201000090910473ffffffffffffffffffffffffffffffffffffffff16906341d7c02d90602401602060405180830381865afa15801561034a573d6000803e3d6000fd5b505050506040513d601f19601f8201168201806040525081019061036e919061140b565b6103a4576040517f05d0349500000000000000000000000000000000000000000000000000000000815260040160405180910390fd5b73ffffffffffffffffffffffffffffffffffffffff811660009081527fecb992c7a1185ca18ac50bc1672192fb67e7c3e74465887a8fcaab265dab37be602052604081206103f3913390610e30565b50565b6040517fa230c52400000000000000000000000000000000000000000000000000000000815273ffffffffffffffffffffffffffffffffffffffff82166004820152600090309063a230c52490602401602060405180830381865afa158015610463573d6000803e3d6000fd5b505050506040513d601f19601f82011682018060405250810190610487919061140b565b80156104ba57506104b87fecb992c7a1185ca18ac50bc1672192fb67e7c3e74465887a8fcaab265dab37bf83611008565b155b92915050565b6104c933611084565b610501576040517f1dd41c4d000000000000000000000000000000000000000000000000000000008152336004820152602401610235565b6040517fa230c52400000000000000000000000000000000000000000000000000000000815273ffffffffffffffffffffffffffffffffffffffff821660048201528190309063a230c52490602401602060405180830381865afa15801561056d573d6000803e3d6000fd5b505050506040513d601f19601f82011682018060405250810190610591919061140b565b6105df576040517f9ac2720600000000000000000000000000000000000000000000000000000000815273ffffffffffffffffffffffffffffffffffffffff82166004820152602401610235565b6040517f45ecd02f00000000000000000000000000000000000000000000000000000000815273ffffffffffffffffffffffffffffffffffffffff8316600482015230906345ecd02f90602401602060405180830381865afa158015610649573d6000803e3d6000fd5b505050506040513d601f19601f8201168201806040525081019061066d919061140b565b156106bc576040517fe9bff2d300000000000000000000000000000000000000000000000000000000815273ffffffffffffffffffffffffffffffffffffffff83166004820152602401610235565b6106e87fecb992c7a1185ca18ac50bc1672192fb67e7c3e74465887a8fcaab265dab37bf836000610e30565b60405173ffffffffffffffffffffffffffffffffffffffff8316907f9b0dfddc7b811f70aa2c63314554f36c3be80f3a490db1ee566c6ae5b9e0497090600090a25050565b73ffffffffffffffffffffffffffffffffffffffff831660009081527fecb992c7a1185ca18ac50bc1672192fb67e7c3e74465887a8fcaab265dab37be6020526040812060609190610783906001018585611102565b91509150935093915050565b60006104ba7fd56529bfa3ed57257eed4751494e1d0c0f212cfe38768380e006e3bee06ffb9283611008565b7fb59ec141376cee83f618e10e881bbb4789cdeee27e0d441a8c37ead3cb8b93c1546040517f41d7c02d0000000000000000000000000000000000000000000000000000000081523360048201526201000090910473ffffffffffffffffffffffffffffffffffffffff16906341d7c02d90602401602060405180830381865afa15801561084d573d6000803e3d6000fd5b505050506040513d601f19601f82011682018060405250810190610871919061140b565b6108a7576040517f05d0349500000000000000000000000000000000000000000000000000000000815260040160405180910390fd5b73ffffffffffffffffffffffffffffffffffffffff811660009081527fecb992c7a1185ca18ac50bc1672192fb67e7c3e74465887a8fcaab265dab37be602052604081206103f3913390611223565b606060006109257fd56529bfa3ed57257eed4751494e1d0c0f212cfe38768380e006e3bee06ffb938585611102565b915091509250929050565b3361093a81610ccc565b610988576040517f8574fa9100000000000000000000000000000000000000000000000000000000815273ffffffffffffffffffffffffffffffffffffffff82166004820152602401610235565b8173ffffffffffffffffffffffffffffffffffffffff81166109ee576040517f06a0278c00000000000000000000000000000000000000000000000000000000815273ffffffffffffffffffffffffffffffffffffffff82166004820152602401610235565b610a1a7fd56529bfa3ed57257eed4751494e1d0c0f212cfe38768380e006e3bee06ffb92846000611223565b60405173ffffffffffffffffffffffffffffffffffffffff8416907fb251eb052afc73ffd02ffe85ad79990a8b3fed60d76dbc2fa2fdd7123dffd91490600090a2505050565b610a6933611084565b610aa1576040517f1dd41c4d000000000000000000000000000000000000000000000000000000008152336004820152602401610235565b6040517fa230c52400000000000000000000000000000000000000000000000000000000815273ffffffffffffffffffffffffffffffffffffffff821660048201528190309063a230c52490602401602060405180830381865afa158015610b0d573d6000803e3d6000fd5b505050506040513d601f19601f82011682018060405250810190610b31919061140b565b610b7f576040517f9ac2720600000000000000000000000000000000000000000000000000000000815273ffffffffffffffffffffffffffffffffffffffff82166004820152602401610235565b6040517f45ecd02f00000000000000000000000000000000000000000000000000000000815273ffffffffffffffffffffffffffffffffffffffff8316600482015230906345ecd02f90602401602060405180830381865afa158015610be9573d6000803e3d6000fd5b505050506040513d601f19601f82011682018060405250810190610c0d919061140b565b610c5b576040517f14c469d300000000000000000000000000000000000000000000000000000000815273ffffffffffffffffffffffffffffffffffffffff83166004820152602401610235565b610c877fecb992c7a1185ca18ac50bc1672192fb67e7c3e74465887a8fcaab265dab37bf836000611223565b60405173ffffffffffffffffffffffffffffffffffffffff8316907fd09c98686577f18c498d909faf17eff8fa165d9f4e25dce055e78cf7fb95cc1d90600090a25050565b6000610cd782611084565b806104ba57506040517f617b0b9d00000000000000000000000000000000000000000000000000000000815273ffffffffffffffffffffffffffffffffffffffff8316600482015260016024820152309063617b0b9d906044015b602060405180830381865afa158015610d4f573d6000803e3d6000fd5b505050506040513d601f19601f820116820180604052508101906104ba919061140b565b73ffffffffffffffffffffffffffffffffffffffff811660009081527fecb992c7a1185ca18ac50bc1672192fb67e7c3e74465887a8fcaab265dab37be60205260409020600101547fecb992c7a1185ca18ac50bc1672192fb67e7c3e74465887a8fcaab265dab37bd9015610e2c576040517f3ca6753d00000000000000000000000000000000000000000000000000000000815273ffffffffffffffffffffffffffffffffffffffff83166004820152602401610235565b5050565b6000610e3c8484611008565b9050818015610e49575080155b15610e545750505050565b80610ebb576040517f08c379a000000000000000000000000000000000000000000000000000000000815260206004820152601d60248201527f4164647265737320646f6573206e6f7420657869737420696e207365740000006044820152606401610235565b60018085018054600092610ece9161145c565b81548110610ede57610ede611473565b600091825260208083209091015473ffffffffffffffffffffffffffffffffffffffff878116845291889052604080842054929091168084529220819055600187018054929350909183919083908110610f3a57610f3a611473565b600091825260208083209190910180547fffffffffffffffffffffffff00000000000000000000000000000000000000001673ffffffffffffffffffffffffffffffffffffffff948516179055918716815290879052604081205560018601805480610fa857610fa86114a2565b60008281526020902081017fffffffffffffffffffffffffffffffffffffffffffffffffffffffffffffffff90810180547fffffffffffffffffffffffff0000000000000000000000000000000000000000169055019055505050505050565b60018201546000901561107a5773ffffffffffffffffffffffffffffffffffffffff8216600081815260208590526040902054600185018054909190811061105257611052611473565b60009182526020909120015473ffffffffffffffffffffffffffffffffffffffff161461107d565b60005b9392505050565b7fb59ec141376cee83f618e10e881bbb4789cdeee27e0d441a8c37ead3cb8b93c1546040517fa230c52400000000000000000000000000000000000000000000000000000000815273ffffffffffffffffffffffffffffffffffffffff8381166004830152600092620100009004169063a230c52490602401610d32565b6060600080848680549050611117919061145c565b84116111235783611130565b855461113090869061145c565b905060008167ffffffffffffffff81111561114d5761114d6114d1565b604051908082528060200260200182016040528015611176578160200160208202803683370190505b50905060005b82811015611209578761118f8289611500565b8154811061119f5761119f611473565b9060005260206000200160009054906101000a900473ffffffffffffffffffffffffffffffffffffffff168282815181106111dc576111dc611473565b73ffffffffffffffffffffffffffffffffffffffff9092166020928302919091019091015260010161117c565b50806112158388611500565b935093505050935093915050565b600061122f8484611008565b905081801561123b5750805b156112465750505050565b80156112ae576040517f08c379a000000000000000000000000000000000000000000000000000000000815260206004820152601660248201527f4164647265737320616c726561647920696e20736574000000000000000000006044820152606401610235565b50506001808301805473ffffffffffffffffffffffffffffffffffffffff909316600081815260209586526040812085905592840182559082529290200180547fffffffffffffffffffffffff0000000000000000000000000000000000000000169091179055565b73ffffffffffffffffffffffffffffffffffffffff811681146103f357600080fd5b60006020828403121561134b57600080fd5b813561107d81611317565b60008060006060848603121561136b57600080fd5b833561137681611317565b95602085013595506040909401359392505050565b604080825283519082018190526000906020906060840190828701845b828110156113da57815173ffffffffffffffffffffffffffffffffffffffff16845292840192908401906001016113a8565b50505092019290925292915050565b600080604083850312156113fc57600080fd5b50508035926020909101359150565b60006020828403121561141d57600080fd5b8151801515811461107d57600080fd5b7f4e487b7100000000000000000000000000000000000000000000000000000000600052601160045260246000fd5b60008282101561146e5761146e61142d565b500390565b7f4e487b7100000000000000000000000000000000000000000000000000000000600052603260045260246000fd5b7f4e487b7100000000000000000000000000000000000000000000000000000000600052603160045260246000fd5b7f4e487b7100000000000000000000000000000000000000000000000000000000600052604160045260246000fd5b600082198211156115135761151361142d565b50019056fea26469706673582212209181b0700c5a29532d5d7302a7f8b1e6865b28d0dc0106fd761fc51ec44bd02d64736f6c634300080a0033",
  "linkReferences": {},
  "deployedLinkReferences": {}
}