{
  "_format": "hh-sol-artifact-1",
  "contractName": "PaginationLib",
  "sourceName": "contracts/lib/PaginationLib.sol",
  "abi": [
    {
      "inputs": [
        {
          "components": [
            {
              "internalType": "uint256",
              "name": "amount",
              "type": "uint256"
            },
            {
              "internalType": "uint256",
              "name": "blockNumber",
              "type": "uint256"
            },
            {
              "internalType": "string",
              "name": "ref",
              "type": "string"
            }
          ],
          "internalType": "struct IFastHistory.MintingProof[]",
          "name": "collection",
          "type": "tuple[]"
        },
        {
          "internalType": "uint256",
          "name": "cursor",
          "type": "uint256"
        },
        {
          "internalType": "uint256",
          "name": "perPage",
          "type": "uint256"
        }
      ],
      "name": "mintingProofs",
      "outputs": [
        {
          "components": [
            {
              "internalType": "uint256",
              "name": "amount",
              "type": "uint256"
            },
            {
              "internalType": "uint256",
              "name": "blockNumber",
              "type": "uint256"
            },
            {
              "internalType": "string",
              "name": "ref",
              "type": "string"
            }
          ],
          "internalType": "struct IFastHistory.MintingProof[]",
          "name": "",
          "type": "tuple[]"
        },
        {
          "internalType": "uint256",
          "name": "",
          "type": "uint256"
        }
      ],
      "stateMutability": "pure",
      "type": "function"
    },
    {
      "inputs": [
        {
          "components": [
            {
              "internalType": "address",
              "name": "from",
              "type": "address"
            },
            {
              "internalType": "address",
              "name": "spender",
              "type": "address"
            },
            {
              "internalType": "address",
              "name": "to",
              "type": "address"
            },
            {
              "internalType": "uint256",
              "name": "amount",
              "type": "uint256"
            },
            {
              "internalType": "uint256",
              "name": "blockNumber",
              "type": "uint256"
            },
            {
              "internalType": "string",
              "name": "ref",
              "type": "string"
            }
          ],
          "internalType": "struct IFastHistory.TransferProof[]",
          "name": "collection",
          "type": "tuple[]"
        },
        {
          "internalType": "uint256",
          "name": "cursor",
          "type": "uint256"
        },
        {
          "internalType": "uint256",
          "name": "perPage",
          "type": "uint256"
        }
      ],
      "name": "transferProofs",
      "outputs": [
        {
          "components": [
            {
              "internalType": "address",
              "name": "from",
              "type": "address"
            },
            {
              "internalType": "address",
              "name": "spender",
              "type": "address"
            },
            {
              "internalType": "address",
              "name": "to",
              "type": "address"
            },
            {
              "internalType": "uint256",
              "name": "amount",
              "type": "uint256"
            },
            {
              "internalType": "uint256",
              "name": "blockNumber",
              "type": "uint256"
            },
            {
              "internalType": "string",
              "name": "ref",
              "type": "string"
            }
          ],
          "internalType": "struct IFastHistory.TransferProof[]",
          "name": "",
          "type": "tuple[]"
        },
        {
          "internalType": "uint256",
          "name": "",
          "type": "uint256"
        }
      ],
      "stateMutability": "pure",
      "type": "function"
    },
    {
      "inputs": [
        {
          "internalType": "uint256[]",
          "name": "collection",
          "type": "uint256[]"
        },
        {
          "internalType": "uint256",
          "name": "cursor",
          "type": "uint256"
        },
        {
          "internalType": "uint256",
          "name": "perPage",
          "type": "uint256"
        }
      ],
      "name": "uint256s",
      "outputs": [
        {
          "internalType": "uint256[]",
          "name": "",
          "type": "uint256[]"
        },
        {
          "internalType": "uint256",
          "name": "",
          "type": "uint256"
        }
      ],
      "stateMutability": "pure",
      "type": "function"
    }
  ],
  "bytecode": "0x61157e610053600b82828239805160001a607314610046577f4e487b7100000000000000000000000000000000000000000000000000000000600052600060045260246000fd5b30600052607381538281f3fe73000000000000000000000000000000000000000030146080604052600436106100565760003560e01c806320027aba1461005b5780632479d0651461008c5780633152ca34146100bd578063bd33e7e6146100ee575b600080fd5b61007560048036038101906100709190610cca565b61011f565b6040516100839291906110fe565b60405180910390f35b6100a660048036038101906100a19190610bad565b610290565b6040516100b492919061106e565b60405180910390f35b6100d760048036038101906100d29190610c63565b610455565b6040516100e59291906110ce565b60405180910390f35b61010860048036038101906101039190610bfc565b6105d0565b60405161011692919061109e565b60405180910390f35b60606000808551905060008582610136919061135e565b8511610142578461014f565b858261014e919061135e565b5b905060008167ffffffffffffffff811115610193577f4e487b7100000000000000000000000000000000000000000000000000000000600052604160045260246000fd5b6040519080825280602002602001820160405280156101c15781602001602082028036833780820191505090505b50905060005b82811015610273578881896101dc9190611308565b81518110610213577f4e487b7100000000000000000000000000000000000000000000000000000000600052603260045260246000fd5b6020026020010151828281518110610254577f4e487b7100000000000000000000000000000000000000000000000000000000600052603260045260246000fd5b602002602001018181525050808061026b9061144b565b9150506101c7565b508082886102819190611308565b94509450505050935093915050565b606060008085805490509050600085826102aa919061135e565b85116102b657846102c3565b85826102c2919061135e565b5b905060008167ffffffffffffffff811115610307577f4e487b7100000000000000000000000000000000000000000000000000000000600052604160045260246000fd5b6040519080825280602002602001820160405280156103355781602001602082028036833780820191505090505b50905060005b82811015610438578881896103509190611308565b81548110610387577f4e487b7100000000000000000000000000000000000000000000000000000000600052603260045260246000fd5b9060005260206000200160009054906101000a900473ffffffffffffffffffffffffffffffffffffffff168282815181106103eb577f4e487b7100000000000000000000000000000000000000000000000000000000600052603260045260246000fd5b602002602001019073ffffffffffffffffffffffffffffffffffffffff16908173ffffffffffffffffffffffffffffffffffffffff168152505080806104309061144b565b91505061033b565b508082886104469190611308565b94509450505050935093915050565b6060600080855190506000858261046c919061135e565b85116104785784610485565b8582610484919061135e565b5b905060008167ffffffffffffffff8111156104c9577f4e487b7100000000000000000000000000000000000000000000000000000000600052604160045260246000fd5b60405190808252806020026020018201604052801561050257816020015b6104ef61074b565b8152602001906001900390816104e75790505b50905060005b828110156105b35788818961051d9190611308565b81518110610554577f4e487b7100000000000000000000000000000000000000000000000000000000600052603260045260246000fd5b6020026020010151828281518110610595577f4e487b7100000000000000000000000000000000000000000000000000000000600052603260045260246000fd5b602002602001018190525080806105ab9061144b565b915050610508565b508082886105c19190611308565b94509450505050935093915050565b606060008085519050600085826105e7919061135e565b85116105f35784610600565b85826105ff919061135e565b5b905060008167ffffffffffffffff811115610644577f4e487b7100000000000000000000000000000000000000000000000000000000600052604160045260246000fd5b60405190808252806020026020018201604052801561067d57816020015b61066a6107c3565b8152602001906001900390816106625790505b50905060005b8281101561072e578881896106989190611308565b815181106106cf577f4e487b7100000000000000000000000000000000000000000000000000000000600052603260045260246000fd5b6020026020010151828281518110610710577f4e487b7100000000000000000000000000000000000000000000000000000000600052603260045260246000fd5b602002602001018190525080806107269061144b565b915050610683565b5080828861073c9190611308565b94509450505050935093915050565b6040518060c00160405280600073ffffffffffffffffffffffffffffffffffffffff168152602001600073ffffffffffffffffffffffffffffffffffffffff168152602001600073ffffffffffffffffffffffffffffffffffffffff1681526020016000815260200160008152602001606081525090565b60405180606001604052806000815260200160008152602001606081525090565b60006107f76107f284611153565b61112e565b9050808382526020820190508285602086028201111561081657600080fd5b60005b8581101561086057813567ffffffffffffffff81111561083857600080fd5b8086016108458982610a6c565b85526020850194506020840193505050600181019050610819565b5050509392505050565b600061087d6108788461117f565b61112e565b9050808382526020820190508285602086028201111561089c57600080fd5b60005b858110156108e657813567ffffffffffffffff8111156108be57600080fd5b8086016108cb8982610ae4565b8552602085019450602084019350505060018101905061089f565b5050509392505050565b60006109036108fe846111ab565b61112e565b9050808382526020820190508285602086028201111561092257600080fd5b60005b8581101561095257816109388882610b98565b845260208401935060208301925050600181019050610925565b5050509392505050565b600061096f61096a846111d7565b61112e565b90508281526020810184848401111561098757600080fd5b6109928482856113d8565b509392505050565b6000813590506109a981611503565b92915050565b6000813590506109be8161151a565b92915050565b600082601f8301126109d557600080fd5b81356109e58482602086016107e4565b91505092915050565b600082601f8301126109ff57600080fd5b8135610a0f84826020860161086a565b91505092915050565b600082601f830112610a2957600080fd5b8135610a398482602086016108f0565b91505092915050565b600082601f830112610a5357600080fd5b8135610a6384826020860161095c565b91505092915050565b600060608284031215610a7e57600080fd5b610a88606061112e565b90506000610a9884828501610b98565b6000830152506020610aac84828501610b98565b602083015250604082013567ffffffffffffffff811115610acc57600080fd5b610ad884828501610a42565b60408301525092915050565b600060c08284031215610af657600080fd5b610b0060c061112e565b90506000610b108482850161099a565b6000830152506020610b248482850161099a565b6020830152506040610b388482850161099a565b6040830152506060610b4c84828501610b98565b6060830152506080610b6084828501610b98565b60808301525060a082013567ffffffffffffffff811115610b8057600080fd5b610b8c84828501610a42565b60a08301525092915050565b600081359050610ba781611531565b92915050565b600080600060608486031215610bc257600080fd5b6000610bd0868287016109af565b9350506020610be186828701610b98565b9250506040610bf286828701610b98565b9150509250925092565b600080600060608486031215610c1157600080fd5b600084013567ffffffffffffffff811115610c2b57600080fd5b610c37868287016109c4565b9350506020610c4886828701610b98565b9250506040610c5986828701610b98565b9150509250925092565b600080600060608486031215610c7857600080fd5b600084013567ffffffffffffffff811115610c9257600080fd5b610c9e868287016109ee565b9350506020610caf86828701610b98565b9250506040610cc086828701610b98565b9150509250925092565b600080600060608486031215610cdf57600080fd5b600084013567ffffffffffffffff811115610cf957600080fd5b610d0586828701610a18565b9350506020610d1686828701610b98565b9250506040610d2786828701610b98565b9150509250925092565b6000610d3d8383610d89565b60208301905092915050565b6000610d558383610f77565b905092915050565b6000610d698383610fc7565b905092915050565b6000610d7d838361105f565b60208301905092915050565b610d9281611392565b82525050565b6000610da382611248565b610dad81856112b3565b9350610db883611208565b8060005b83811015610de9578151610dd08882610d31565b9750610ddb8361127f565b925050600181019050610dbc565b5085935050505092915050565b6000610e0182611253565b610e0b81856112c4565b935083602082028501610e1d85611218565b8060005b85811015610e595784840389528151610e3a8582610d49565b9450610e458361128c565b925060208a01995050600181019050610e21565b50829750879550505050505092915050565b6000610e768261125e565b610e8081856112d5565b935083602082028501610e9285611228565b8060005b85811015610ece5784840389528151610eaf8582610d5d565b9450610eba83611299565b925060208a01995050600181019050610e96565b50829750879550505050505092915050565b6000610eeb82611269565b610ef581856112e6565b9350610f0083611238565b8060005b83811015610f31578151610f188882610d71565b9750610f23836112a6565b925050600181019050610f04565b5085935050505092915050565b6000610f4982611274565b610f5381856112f7565b9350610f638185602086016113e7565b610f6c816114f2565b840191505092915050565b6000606083016000830151610f8f600086018261105f565b506020830151610fa2602086018261105f565b5060408301518482036040860152610fba8282610f3e565b9150508091505092915050565b600060c083016000830151610fdf6000860182610d89565b506020830151610ff26020860182610d89565b5060408301516110056040860182610d89565b506060830151611018606086018261105f565b50608083015161102b608086018261105f565b5060a083015184820360a08601526110438282610f3e565b9150508091505092915050565b611059816113ce565b82525050565b611068816113ce565b82525050565b600060408201905081810360008301526110888185610d98565b90506110976020830184611050565b9392505050565b600060408201905081810360008301526110b88185610df6565b90506110c76020830184611050565b9392505050565b600060408201905081810360008301526110e88185610e6b565b90506110f76020830184611050565b9392505050565b600060408201905081810360008301526111188185610ee0565b90506111276020830184611050565b9392505050565b6000611138611149565b9050611144828261141a565b919050565b6000604051905090565b600067ffffffffffffffff82111561116e5761116d6114c3565b5b602082029050602081019050919050565b600067ffffffffffffffff82111561119a576111996114c3565b5b602082029050602081019050919050565b600067ffffffffffffffff8211156111c6576111c56114c3565b5b602082029050602081019050919050565b600067ffffffffffffffff8211156111f2576111f16114c3565b5b6111fb826114f2565b9050602081019050919050565b6000819050602082019050919050565b6000819050602082019050919050565b6000819050602082019050919050565b6000819050602082019050919050565b600081519050919050565b600081519050919050565b600081519050919050565b600081519050919050565b600081519050919050565b6000602082019050919050565b6000602082019050919050565b6000602082019050919050565b6000602082019050919050565b600082825260208201905092915050565b600082825260208201905092915050565b600082825260208201905092915050565b600082825260208201905092915050565b600082825260208201905092915050565b6000611313826113ce565b915061131e836113ce565b9250827fffffffffffffffffffffffffffffffffffffffffffffffffffffffffffffffff0382111561135357611352611494565b5b828201905092915050565b6000611369826113ce565b9150611374836113ce565b92508282101561138757611386611494565b5b828203905092915050565b600061139d826113ae565b9050919050565b6000819050919050565b600073ffffffffffffffffffffffffffffffffffffffff82169050919050565b6000819050919050565b82818337600083830152505050565b60005b838110156114055780820151818401526020810190506113ea565b83811115611414576000848401525b50505050565b611423826114f2565b810181811067ffffffffffffffff82111715611442576114416114c3565b5b80604052505050565b6000611456826113ce565b91507fffffffffffffffffffffffffffffffffffffffffffffffffffffffffffffffff82141561148957611488611494565b5b600182019050919050565b7f4e487b7100000000000000000000000000000000000000000000000000000000600052601160045260246000fd5b7f4e487b7100000000000000000000000000000000000000000000000000000000600052604160045260246000fd5b6000601f19601f8301169050919050565b61150c81611392565b811461151757600080fd5b50565b611523816113a4565b811461152e57600080fd5b50565b61153a816113ce565b811461154557600080fd5b5056fea2646970667358221220d75e95b567d92a39c1719770e2bc1ea7e6144032e53636d0c478cb0ed29e818564736f6c63430008040033",
  "linkReferences": {},
  "deployedLinkReferences": {}
}