{
  "_format": "hh-sol-artifact-1",
  "contractName": "Spc",
  "sourceName": "contracts/Spc.sol",
  "abi": [
    {
      "anonymous": false,
      "inputs": [
        {
          "indexed": true,
          "internalType": "address",
          "name": "to",
          "type": "address"
        },
        {
          "indexed": false,
          "internalType": "uint256",
          "name": "amount",
          "type": "uint256"
        }
      ],
      "name": "EthDrained",
      "type": "event"
    },
    {
      "anonymous": false,
      "inputs": [
        {
          "indexed": true,
          "internalType": "address",
          "name": "from",
          "type": "address"
        },
        {
          "indexed": false,
          "internalType": "uint256",
          "name": "amount",
          "type": "uint256"
        }
      ],
      "name": "EthReceived",
      "type": "event"
    },
    {
      "anonymous": false,
      "inputs": [
        {
          "indexed": true,
          "internalType": "contract FastRegistry",
          "name": "reg",
          "type": "address"
        }
      ],
      "name": "FastRegistered",
      "type": "event"
    },
    {
      "anonymous": false,
      "inputs": [
        {
          "indexed": false,
          "internalType": "uint8",
          "name": "version",
          "type": "uint8"
        }
      ],
      "name": "Initialized",
      "type": "event"
    },
    {
      "anonymous": false,
      "inputs": [
        {
          "indexed": true,
          "internalType": "address",
          "name": "member",
          "type": "address"
        }
      ],
      "name": "MemberAdded",
      "type": "event"
    },
    {
      "anonymous": false,
      "inputs": [
        {
          "indexed": true,
          "internalType": "address",
          "name": "member",
          "type": "address"
        }
      ],
      "name": "MemberRemoved",
      "type": "event"
    },
    {
      "inputs": [
        {
          "internalType": "address payable",
          "name": "member",
          "type": "address"
        }
      ],
      "name": "addMember",
      "outputs": [],
      "stateMutability": "nonpayable",
      "type": "function"
    },
    {
      "inputs": [
        {
          "internalType": "string",
          "name": "symbol",
          "type": "string"
        }
      ],
      "name": "checkSymbolAvailability",
      "outputs": [
        {
          "internalType": "bool",
          "name": "",
          "type": "bool"
        }
      ],
      "stateMutability": "view",
      "type": "function"
    },
    {
      "inputs": [],
      "name": "drainEth",
      "outputs": [],
      "stateMutability": "nonpayable",
      "type": "function"
    },
    {
      "inputs": [],
      "name": "fastRegistryCount",
      "outputs": [
        {
          "internalType": "uint256",
          "name": "",
          "type": "uint256"
        }
      ],
      "stateMutability": "view",
      "type": "function"
    },
    {
      "inputs": [
        {
          "internalType": "address",
          "name": "_member",
          "type": "address"
        }
      ],
      "name": "initialize",
      "outputs": [],
      "stateMutability": "payable",
      "type": "function"
    },
    {
      "inputs": [
        {
          "internalType": "address",
          "name": "candidate",
          "type": "address"
        }
      ],
      "name": "isMember",
      "outputs": [
        {
          "internalType": "bool",
          "name": "",
          "type": "bool"
        }
      ],
      "stateMutability": "view",
      "type": "function"
    },
    {
      "inputs": [],
      "name": "memberCount",
      "outputs": [
        {
          "internalType": "uint256",
          "name": "",
          "type": "uint256"
        }
      ],
      "stateMutability": "view",
      "type": "function"
    },
    {
      "inputs": [
        {
          "internalType": "uint256",
          "name": "cursor",
          "type": "uint256"
        },
        {
          "internalType": "uint256",
          "name": "perPage",
          "type": "uint256"
        }
      ],
      "name": "paginateFastRegistries",
      "outputs": [
        {
          "internalType": "address[]",
          "name": "",
          "type": "address[]"
        },
        {
          "internalType": "uint256",
          "name": "",
          "type": "uint256"
        }
      ],
      "stateMutability": "view",
      "type": "function"
    },
    {
      "inputs": [
        {
          "internalType": "uint256",
          "name": "cursor",
          "type": "uint256"
        },
        {
          "internalType": "uint256",
          "name": "perPage",
          "type": "uint256"
        }
      ],
      "name": "paginateMembers",
      "outputs": [
        {
          "internalType": "address[]",
          "name": "",
          "type": "address[]"
        },
        {
          "internalType": "uint256",
          "name": "",
          "type": "uint256"
        }
      ],
      "stateMutability": "view",
      "type": "function"
    },
    {
      "inputs": [],
      "name": "provisionWithEth",
      "outputs": [],
      "stateMutability": "payable",
      "type": "function"
    },
    {
      "inputs": [
        {
          "internalType": "contract FastRegistry",
          "name": "reg",
          "type": "address"
        }
      ],
      "name": "registerFastRegistry",
      "outputs": [],
      "stateMutability": "nonpayable",
      "type": "function"
    },
    {
      "inputs": [
        {
          "internalType": "address",
          "name": "member",
          "type": "address"
        }
      ],
      "name": "removeMember",
      "outputs": [],
      "stateMutability": "nonpayable",
      "type": "function"
    }
  ],
  "bytecode": "0x608060405234801561001057600080fd5b50612047806100206000396000f3fe6080604052600436106100a75760003560e01c80636f5afbf6116100645780636f5afbf614610175578063a230c524146101b2578063c4d66de8146101ef578063c6549ba41461020b578063ca6d56dc14610249578063cf4c57f214610272576100a7565b80630b1ca49a146100ac5780630baac66f146100d557806311aee380146100ec5780632daa1f91146101175780633756bd28146101425780633eca424b1461016b575b600080fd5b3480156100b857600080fd5b506100d360048036038101906100ce919061165e565b6102b0565b005b3480156100e157600080fd5b506100ea6103d7565b005b3480156100f857600080fd5b50610101610541565b60405161010e9190611bbb565b60405180910390f35b34801561012357600080fd5b5061012c610550565b6040516101399190611bbb565b60405180910390f35b34801561014e57600080fd5b506101696004803603810190610164919061172d565b61055d565b005b61017361094e565b005b34801561018157600080fd5b5061019c6004803603810190610197919061177f565b6109e1565b6040516101a99190611a9c565b60405180910390f35b3480156101be57600080fd5b506101d960048036038101906101d4919061165e565b610a57565b6040516101e69190611a9c565b60405180910390f35b6102096004803603810190610204919061165e565b610aec565b005b34801561021757600080fd5b50610232600480360381019061022d9190611801565b610b8d565b604051610240929190611a35565b60405180910390f35b34801561025557600080fd5b50610270600480360381019061026b9190611687565b610c2f565b005b34801561027e57600080fd5b5061029960048036038101906102949190611801565b610d68565b6040516102a7929190611a35565b60405180910390f35b33600173__$e466c31e3961a8766d3d15b47ab000296d$__6308b40aef9091836040518363ffffffff1660e01b81526004016102ed929190611b92565b60206040518083038186803b15801561030557600080fd5b505af4158015610319573d6000803e3d6000fd5b505050506040513d601f19601f8201168201806040525081019061033d9190611704565b61037c576040517f08c379a000000000000000000000000000000000000000000000000000000000815260040161037390611b52565b60405180910390fd5b610390826001610e0890919063ffffffff16565b8173ffffffffffffffffffffffffffffffffffffffff167f6e76fb4c77256006d9c38ec7d82b45a8c8f3c27b1d6766fffc42dfb8de68449260405160405180910390a25050565b33600173__$e466c31e3961a8766d3d15b47ab000296d$__6308b40aef9091836040518363ffffffff1660e01b8152600401610414929190611b92565b60206040518083038186803b15801561042c57600080fd5b505af4158015610440573d6000803e3d6000fd5b505050506040513d601f19601f820116820180604052508101906104649190611704565b6104a3576040517f08c379a000000000000000000000000000000000000000000000000000000000815260040161049a90611b52565b60405180910390fd5b60004790503373ffffffffffffffffffffffffffffffffffffffff166108fc829081150290604051600060405180830381858888f193505050501580156104ee573d6000803e3d6000fd5b503373ffffffffffffffffffffffffffffffffffffffff167fd5a7a0257eadbfea7ac4432ca8fe62ac277d64736ab6ef67f11abf238a1e0f1a826040516105359190611bbb565b60405180910390a25050565b60006001800180549050905090565b6000600380549050905090565b33600173__$e466c31e3961a8766d3d15b47ab000296d$__6308b40aef9091836040518363ffffffff1660e01b815260040161059a929190611b92565b60206040518083038186803b1580156105b257600080fd5b505af41580156105c6573d6000803e3d6000fd5b505050506040513d601f19601f820116820180604052508101906105ea9190611704565b610629576040517f08c379a000000000000000000000000000000000000000000000000000000000815260040161062090611b52565b60405180910390fd5b60008273ffffffffffffffffffffffffffffffffffffffff1663fc0c546a6040518163ffffffff1660e01b815260040160206040518083038186803b15801561067157600080fd5b505afa158015610685573d6000803e3d6000fd5b505050506040513d601f19601f820116820180604052508101906106a99190611756565b73ffffffffffffffffffffffffffffffffffffffff166395d89b416040518163ffffffff1660e01b8152600401600060405180830381600087803b1580156106f057600080fd5b505af1158015610704573d6000803e3d6000fd5b505050506040513d6000823e3d601f19601f8201168201806040525081019061072d91906117c0565b9050600073ffffffffffffffffffffffffffffffffffffffff166004826040516107579190611a1e565b908152602001604051809103902060009054906101000a900473ffffffffffffffffffffffffffffffffffffffff1673ffffffffffffffffffffffffffffffffffffffff16146107dc576040517f08c379a00000000000000000000000000000000000000000000000000000000081526004016107d390611b32565b60405180910390fd5b6003839080600181540180825580915050600190039060005260206000200160009091909190916101000a81548173ffffffffffffffffffffffffffffffffffffffff021916908373ffffffffffffffffffffffffffffffffffffffff160217905550826004826040516108509190611a1e565b908152602001604051809103902060006101000a81548173ffffffffffffffffffffffffffffffffffffffff021916908373ffffffffffffffffffffffffffffffffffffffff1602179055508273ffffffffffffffffffffffffffffffffffffffff16633eca424b68056bc75e2d631000006040518263ffffffff1660e01b81526004016000604051808303818588803b1580156108ed57600080fd5b505af1158015610901573d6000803e3d6000fd5b50505050508273ffffffffffffffffffffffffffffffffffffffff167fa393070be795669766b8f40ecaab0724def57650be5914b232c8fb18ca507f3660405160405180910390a2505050565b60003411610991576040517f08c379a000000000000000000000000000000000000000000000000000000000815260040161098890611ad2565b60405180910390fd5b3373ffffffffffffffffffffffffffffffffffffffff167f85177f287940f2f05425a4029951af0e047a7f9c4eaa9a6e6917bcd869f86695346040516109d79190611bbb565b60405180910390a2565b60008073ffffffffffffffffffffffffffffffffffffffff16600483604051610a0a9190611a1e565b908152602001604051809103902060009054906101000a900473ffffffffffffffffffffffffffffffffffffffff1673ffffffffffffffffffffffffffffffffffffffff16149050919050565b6000600173__$e466c31e3961a8766d3d15b47ab000296d$__6308b40aef9091846040518363ffffffff1660e01b8152600401610a95929190611b92565b60206040518083038186803b158015610aad57600080fd5b505af4158015610ac1573d6000803e3d6000fd5b505050506040513d601f19601f82011682018060405250810190610ae59190611704565b9050919050565b6000610af860016110a0565b90508015610b1c576001600060016101000a81548160ff0219169083151502179055505b610b3082600161119090919063ffffffff16565b8015610b895760008060016101000a81548160ff0219169083151502179055507f7f26b83ff96e1f2b6a682f133852f6798a09c465da95921460cefb38474024986001604051610b809190611ab7565b60405180910390a15b5050565b6060600073__$487a23fac22966c883114cdd4da3fa5461$__632479d0656001800186866040518463ffffffff1660e01b8152600401610bcf93929190611a65565b60006040518083038186803b158015610be757600080fd5b505af4158015610bfb573d6000803e3d6000fd5b505050506040513d6000823e3d601f19601f82011682018060405250810190610c2491906116b0565b915091509250929050565b33600173__$e466c31e3961a8766d3d15b47ab000296d$__6308b40aef9091836040518363ffffffff1660e01b8152600401610c6c929190611b92565b60206040518083038186803b158015610c8457600080fd5b505af4158015610c98573d6000803e3d6000fd5b505050506040513d601f19601f82011682018060405250810190610cbc9190611704565b610cfb576040517f08c379a0000000000000000000000000000000000000000000000000000000008152600401610cf290611b52565b60405180910390fd5b610d0f82600161119090919063ffffffff16565b610d2182678ac7230489e80000611290565b8173ffffffffffffffffffffffffffffffffffffffff167fb251eb052afc73ffd02ffe85ad79990a8b3fed60d76dbc2fa2fdd7123dffd91460405160405180910390a25050565b6060600073__$487a23fac22966c883114cdd4da3fa5461$__632479d065600386866040518463ffffffff1660e01b8152600401610da893929190611a65565b60006040518083038186803b158015610dc057600080fd5b505af4158015610dd4573d6000803e3d6000fd5b505050506040513d6000823e3d601f19601f82011682018060405250810190610dfd91906116b0565b915091509250929050565b610e128282611337565b610e51576040517f08c379a0000000000000000000000000000000000000000000000000000000008152600401610e4890611b72565b60405180910390fd5b600060018360010180549050610e679190611cb8565b90506000836001018281548110610ea7577f4e487b7100000000000000000000000000000000000000000000000000000000600052603260045260246000fd5b9060005260206000200160009054906101000a900473ffffffffffffffffffffffffffffffffffffffff16905060008460000160008573ffffffffffffffffffffffffffffffffffffffff1673ffffffffffffffffffffffffffffffffffffffff168152602001908152602001600020549050808560000160008473ffffffffffffffffffffffffffffffffffffffff1673ffffffffffffffffffffffffffffffffffffffff1681526020019081526020016000208190555081856001018281548110610f9d577f4e487b7100000000000000000000000000000000000000000000000000000000600052603260045260246000fd5b9060005260206000200160006101000a81548173ffffffffffffffffffffffffffffffffffffffff021916908373ffffffffffffffffffffffffffffffffffffffff1602179055508460000160008573ffffffffffffffffffffffffffffffffffffffff1673ffffffffffffffffffffffffffffffffffffffff1681526020019081526020016000206000905584600101805480611064577f4e487b7100000000000000000000000000000000000000000000000000000000600052603160045260246000fd5b6001900381819060005260206000200160006101000a81549073ffffffffffffffffffffffffffffffffffffffff021916905590555050505050565b60008060019054906101000a900460ff16156111175760018260ff161480156110cf57506110cd3061142d565b155b61110e576040517f08c379a000000000000000000000000000000000000000000000000000000000815260040161110590611af2565b60405180910390fd5b6000905061118b565b8160ff1660008054906101000a900460ff1660ff161061116c576040517f08c379a000000000000000000000000000000000000000000000000000000000815260040161116390611af2565b60405180910390fd5b816000806101000a81548160ff021916908360ff160217905550600190505b919050565b61119a8282611337565b156111da576040517f08c379a00000000000000000000000000000000000000000000000000000000081526004016111d190611b12565b60405180910390fd5b81600101805490508260000160008373ffffffffffffffffffffffffffffffffffffffff1673ffffffffffffffffffffffffffffffffffffffff1681526020019081526020016000208190555081600101819080600181540180825580915050600190039060005260206000200160009091909190916101000a81548173ffffffffffffffffffffffffffffffffffffffff021916908373ffffffffffffffffffffffffffffffffffffffff1602179055505050565b6000479050808211156112a1578091505b818373ffffffffffffffffffffffffffffffffffffffff1631106112c55750611333565b8273ffffffffffffffffffffffffffffffffffffffff1631826112e89190611cb8565b91508273ffffffffffffffffffffffffffffffffffffffff166108fc839081150290604051600060405180830381858888f19350505050158015611330573d6000803e3d6000fd5b50505b5050565b600080836001018054905014611422578173ffffffffffffffffffffffffffffffffffffffff16836001018460000160008573ffffffffffffffffffffffffffffffffffffffff1673ffffffffffffffffffffffffffffffffffffffff16815260200190815260200160002054815481106113db577f4e487b7100000000000000000000000000000000000000000000000000000000600052603260045260246000fd5b9060005260206000200160009054906101000a900473ffffffffffffffffffffffffffffffffffffffff1673ffffffffffffffffffffffffffffffffffffffff1614611425565b60005b905092915050565b6000808273ffffffffffffffffffffffffffffffffffffffff163b119050919050565b600061146361145e84611bfb565b611bd6565b9050808382526020820190508285602086028201111561148257600080fd5b60005b858110156114b25781611498888261154d565b845260208401935060208301925050600181019050611485565b5050509392505050565b60006114cf6114ca84611c27565b611bd6565b9050828152602081018484840111156114e757600080fd5b6114f2848285611d89565b509392505050565b600061150d61150884611c27565b611bd6565b90508281526020810184848401111561152557600080fd5b611530848285611d98565b509392505050565b60008135905061154781611f87565b92915050565b60008151905061155c81611f87565b92915050565b60008135905061157181611f9e565b92915050565b600082601f83011261158857600080fd5b8151611598848260208601611450565b91505092915050565b6000815190506115b081611fb5565b92915050565b6000813590506115c581611fcc565b92915050565b6000815190506115da81611fe3565b92915050565b600082601f8301126115f157600080fd5b81356116018482602086016114bc565b91505092915050565b600082601f83011261161b57600080fd5b815161162b8482602086016114fa565b91505092915050565b60008135905061164381611ffa565b92915050565b60008151905061165881611ffa565b92915050565b60006020828403121561167057600080fd5b600061167e84828501611538565b91505092915050565b60006020828403121561169957600080fd5b60006116a784828501611562565b91505092915050565b600080604083850312156116c357600080fd5b600083015167ffffffffffffffff8111156116dd57600080fd5b6116e985828601611577565b92505060206116fa85828601611649565b9150509250929050565b60006020828403121561171657600080fd5b6000611724848285016115a1565b91505092915050565b60006020828403121561173f57600080fd5b600061174d848285016115b6565b91505092915050565b60006020828403121561176857600080fd5b6000611776848285016115cb565b91505092915050565b60006020828403121561179157600080fd5b600082013567ffffffffffffffff8111156117ab57600080fd5b6117b7848285016115e0565b91505092915050565b6000602082840312156117d257600080fd5b600082015167ffffffffffffffff8111156117ec57600080fd5b6117f88482850161160a565b91505092915050565b6000806040838503121561181457600080fd5b600061182285828601611634565b925050602061183385828601611634565b9150509250929050565b60006118498383611855565b60208301905092915050565b61185e81611cec565b82525050565b61186d81611cec565b82525050565b600061187e82611c68565b6118888185611c8b565b935061189383611c58565b8060005b838110156118c45781516118ab888261183d565b97506118b683611c7e565b925050600181019050611897565b5085935050505092915050565b8082525050565b6118e181611d10565b82525050565b6118f081611d77565b82525050565b600061190182611c73565b61190b8185611cad565b935061191b818560208601611d98565b80840191505092915050565b6000611934601483611c9c565b915061193f82611e6b565b602082019050919050565b6000611957602e83611c9c565b915061196282611e94565b604082019050919050565b600061197a601683611c9c565b915061198582611ee3565b602082019050919050565b600061199d601483611c9c565b91506119a882611f0c565b602082019050919050565b60006119c0601683611c9c565b91506119cb82611f35565b602082019050919050565b60006119e3601d83611c9c565b91506119ee82611f5e565b602082019050919050565b8082525050565b611a0981611d60565b82525050565b611a1881611d60565b82525050565b6000611a2a82846118f6565b915081905092915050565b60006040820190508181036000830152611a4f8185611873565b9050611a5e6020830184611a00565b9392505050565b6000606082019050611a7a60008301866118d1565b611a876020830185611a0f565b611a946040830184611a0f565b949350505050565b6000602082019050611ab160008301846118d8565b92915050565b6000602082019050611acc60008301846118e7565b92915050565b60006020820190508181036000830152611aeb81611927565b9050919050565b60006020820190508181036000830152611b0b8161194a565b9050919050565b60006020820190508181036000830152611b2b8161196d565b9050919050565b60006020820190508181036000830152611b4b81611990565b9050919050565b60006020820190508181036000830152611b6b816119b3565b9050919050565b60006020820190508181036000830152611b8b816119d6565b9050919050565b6000604082019050611ba760008301856119f9565b611bb46020830184611864565b9392505050565b6000602082019050611bd06000830184611a00565b92915050565b6000611be0611bf1565b9050611bec8282611dcb565b919050565b6000604051905090565b600067ffffffffffffffff821115611c1657611c15611e2b565b5b602082029050602081019050919050565b600067ffffffffffffffff821115611c4257611c41611e2b565b5b611c4b82611e5a565b9050602081019050919050565b6000819050602082019050919050565b600081519050919050565b600081519050919050565b6000602082019050919050565b600082825260208201905092915050565b600082825260208201905092915050565b600081905092915050565b6000611cc382611d60565b9150611cce83611d60565b925082821015611ce157611ce0611dfc565b5b828203905092915050565b6000611cf782611d40565b9050919050565b6000611d0982611d40565b9050919050565b60008115159050919050565b6000611d2782611cec565b9050919050565b6000611d3982611cec565b9050919050565b600073ffffffffffffffffffffffffffffffffffffffff82169050919050565b6000819050919050565b600060ff82169050919050565b6000611d8282611d6a565b9050919050565b82818337600083830152505050565b60005b83811015611db6578082015181840152602081019050611d9b565b83811115611dc5576000848401525b50505050565b611dd482611e5a565b810181811067ffffffffffffffff82111715611df357611df2611e2b565b5b80604052505050565b7f4e487b7100000000000000000000000000000000000000000000000000000000600052601160045260246000fd5b7f4e487b7100000000000000000000000000000000000000000000000000000000600052604160045260246000fd5b6000601f19601f8301169050919050565b7f4d697373696e6720617474616368656420455448000000000000000000000000600082015250565b7f496e697469616c697a61626c653a20636f6e747261637420697320616c72656160008201527f647920696e697469616c697a6564000000000000000000000000000000000000602082015250565b7f4164647265737320616c726561647920696e2073657400000000000000000000600082015250565b7f53796d626f6c20616c72656164792074616b656e000000000000000000000000600082015250565b7f4d697373696e6720535043206d656d6265727368697000000000000000000000600082015250565b7f4164647265737320646f6573206e6f7420657869737420696e20736574000000600082015250565b611f9081611cec565b8114611f9b57600080fd5b50565b611fa781611cfe565b8114611fb257600080fd5b50565b611fbe81611d10565b8114611fc957600080fd5b50565b611fd581611d1c565b8114611fe057600080fd5b50565b611fec81611d2e565b8114611ff757600080fd5b50565b61200381611d60565b811461200e57600080fd5b5056fea2646970667358221220a52bb79c90839924fd705fe642a60557c63788f257e82528a48897e264a4a0b064736f6c63430008040033",
  "linkReferences": {
    "contracts/lib/AddressSetLib.sol": {
      "AddressSetLib": [
        {
          "length": 20,
          "start": 725
        },
        {
          "length": 20,
          "start": 1020
        },
        {
          "length": 20,
          "start": 1410
        },
        {
          "length": 20,
          "start": 2685
        },
        {
          "length": 20,
          "start": 3156
        }
      ]
    },
    "contracts/lib/PaginationLib.sol": {
      "PaginationLib": [
        {
          "length": 20,
          "start": 2995
        },
        {
          "length": 20,
          "start": 3470
        }
      ]
    }
  },
  "deployedLinkReferences": {
    "contracts/lib/AddressSetLib.sol": {
      "AddressSetLib": [
        {
          "length": 20,
          "start": 693
        },
        {
          "length": 20,
          "start": 988
        },
        {
          "length": 20,
          "start": 1378
        },
        {
          "length": 20,
          "start": 2653
        },
        {
          "length": 20,
          "start": 3124
        }
      ]
    },
    "contracts/lib/PaginationLib.sol": {
      "PaginationLib": [
        {
          "length": 20,
          "start": 2963
        },
        {
          "length": 20,
          "start": 3438
        }
      ]
    }
  }
}