{
  "_format": "hh-sol-artifact-1",
  "contractName": "Spc",
  "sourceName": "contracts/Spc.sol",
  "abi": [
    {
      "anonymous": false,
      "inputs": [
        {
          "indexed": true,
          "internalType": "address",
          "name": "to",
          "type": "address"
        },
        {
          "indexed": false,
          "internalType": "uint256",
          "name": "amount",
          "type": "uint256"
        }
      ],
      "name": "EthDrained",
      "type": "event"
    },
    {
      "anonymous": false,
      "inputs": [
        {
          "indexed": true,
          "internalType": "address",
          "name": "from",
          "type": "address"
        },
        {
          "indexed": false,
          "internalType": "uint256",
          "name": "amount",
          "type": "uint256"
        }
      ],
      "name": "EthReceived",
      "type": "event"
    },
    {
      "anonymous": false,
      "inputs": [
        {
          "indexed": true,
          "internalType": "contract FastRegistry",
          "name": "registry",
          "type": "address"
        }
      ],
      "name": "FastRegistered",
      "type": "event"
    },
    {
      "anonymous": false,
      "inputs": [
        {
          "indexed": false,
          "internalType": "uint8",
          "name": "version",
          "type": "uint8"
        }
      ],
      "name": "Initialized",
      "type": "event"
    },
    {
      "anonymous": false,
      "inputs": [
        {
          "indexed": true,
          "internalType": "address",
          "name": "member",
          "type": "address"
        }
      ],
      "name": "MemberAdded",
      "type": "event"
    },
    {
      "anonymous": false,
      "inputs": [
        {
          "indexed": true,
          "internalType": "address",
          "name": "member",
          "type": "address"
        }
      ],
      "name": "MemberRemoved",
      "type": "event"
    },
    {
      "inputs": [
        {
          "internalType": "address payable",
          "name": "member",
          "type": "address"
        }
      ],
      "name": "addMember",
      "outputs": [],
      "stateMutability": "nonpayable",
      "type": "function"
    },
    {
      "inputs": [],
      "name": "drainEth",
      "outputs": [],
      "stateMutability": "nonpayable",
      "type": "function"
    },
    {
      "inputs": [],
      "name": "fastTokenCount",
      "outputs": [
        {
          "internalType": "uint256",
          "name": "",
          "type": "uint256"
        }
      ],
      "stateMutability": "view",
      "type": "function"
    },
    {
      "inputs": [
        {
          "internalType": "address",
          "name": "_member",
          "type": "address"
        }
      ],
      "name": "initialize",
      "outputs": [],
      "stateMutability": "nonpayable",
      "type": "function"
    },
    {
      "inputs": [
        {
          "internalType": "address",
          "name": "candidate",
          "type": "address"
        }
      ],
      "name": "isMember",
      "outputs": [
        {
          "internalType": "bool",
          "name": "",
          "type": "bool"
        }
      ],
      "stateMutability": "view",
      "type": "function"
    },
    {
      "inputs": [],
      "name": "memberCount",
      "outputs": [
        {
          "internalType": "uint256",
          "name": "",
          "type": "uint256"
        }
      ],
      "stateMutability": "view",
      "type": "function"
    },
    {
      "inputs": [
        {
          "internalType": "uint256",
          "name": "cursor",
          "type": "uint256"
        },
        {
          "internalType": "uint256",
          "name": "perPage",
          "type": "uint256"
        }
      ],
      "name": "paginateFastTokens",
      "outputs": [
        {
          "internalType": "address[]",
          "name": "",
          "type": "address[]"
        },
        {
          "internalType": "uint256",
          "name": "",
          "type": "uint256"
        }
      ],
      "stateMutability": "view",
      "type": "function"
    },
    {
      "inputs": [
        {
          "internalType": "uint256",
          "name": "cursor",
          "type": "uint256"
        },
        {
          "internalType": "uint256",
          "name": "perPage",
          "type": "uint256"
        }
      ],
      "name": "paginateMembers",
      "outputs": [
        {
          "internalType": "address[]",
          "name": "",
          "type": "address[]"
        },
        {
          "internalType": "uint256",
          "name": "",
          "type": "uint256"
        }
      ],
      "stateMutability": "view",
      "type": "function"
    },
    {
      "inputs": [],
      "name": "provisionWithEth",
      "outputs": [],
      "stateMutability": "payable",
      "type": "function"
    },
    {
      "inputs": [
        {
          "internalType": "contract FastRegistry",
          "name": "registry",
          "type": "address"
        }
      ],
      "name": "registerFastRegistry",
      "outputs": [],
      "stateMutability": "nonpayable",
      "type": "function"
    },
    {
      "inputs": [
        {
          "internalType": "address",
          "name": "member",
          "type": "address"
        }
      ],
      "name": "removeMember",
      "outputs": [],
      "stateMutability": "nonpayable",
      "type": "function"
    }
  ],
  "bytecode": "0x608060405234801561001057600080fd5b50611c0f806100206000396000f3fe60806040526004361061009c5760003560e01c806391197a5c1161006457806391197a5c1461013f57806396d0d8811461017d578063a230c524146101a8578063c4d66de8146101e5578063c6549ba41461020e578063ca6d56dc1461024c5761009c565b80630b1ca49a146100a15780630baac66f146100ca57806311aee380146100e15780633756bd281461010c5780633eca424b14610135575b600080fd5b3480156100ad57600080fd5b506100c860048036038101906100c3919061139e565b610275565b005b3480156100d657600080fd5b506100df61039c565b005b3480156100ed57600080fd5b506100f6610506565b6040516101039190611820565b60405180910390f35b34801561011857600080fd5b50610133600480360381019061012e919061146d565b610515565b005b61013d61069e565b005b34801561014b57600080fd5b5061016660048036038101906101619190611496565b610731565b604051610174929190611698565b60405180910390f35b34801561018957600080fd5b506101926107d1565b60405161019f9190611820565b60405180910390f35b3480156101b457600080fd5b506101cf60048036038101906101ca919061139e565b6107de565b6040516101dc91906116ff565b60405180910390f35b3480156101f157600080fd5b5061020c6004803603810190610207919061139e565b610873565b005b34801561021a57600080fd5b5061023560048036038101906102309190611496565b610952565b604051610243929190611698565b60405180910390f35b34801561025857600080fd5b50610273600480360381019061026e91906113c7565b6109f4565b005b33600173__$e466c31e3961a8766d3d15b47ab000296d$__6308b40aef9091836040518363ffffffff1660e01b81526004016102b29291906117f7565b60206040518083038186803b1580156102ca57600080fd5b505af41580156102de573d6000803e3d6000fd5b505050506040513d601f19601f820116820180604052508101906103029190611444565b610341576040517f08c379a0000000000000000000000000000000000000000000000000000000008152600401610338906117b7565b60405180910390fd5b610355826001610b2d90919063ffffffff16565b8173ffffffffffffffffffffffffffffffffffffffff167f6e76fb4c77256006d9c38ec7d82b45a8c8f3c27b1d6766fffc42dfb8de68449260405160405180910390a25050565b33600173__$e466c31e3961a8766d3d15b47ab000296d$__6308b40aef9091836040518363ffffffff1660e01b81526004016103d99291906117f7565b60206040518083038186803b1580156103f157600080fd5b505af4158015610405573d6000803e3d6000fd5b505050506040513d601f19601f820116820180604052508101906104299190611444565b610468576040517f08c379a000000000000000000000000000000000000000000000000000000000815260040161045f906117b7565b60405180910390fd5b60004790503373ffffffffffffffffffffffffffffffffffffffff166108fc829081150290604051600060405180830381858888f193505050501580156104b3573d6000803e3d6000fd5b503373ffffffffffffffffffffffffffffffffffffffff167fd5a7a0257eadbfea7ac4432ca8fe62ac277d64736ab6ef67f11abf238a1e0f1a826040516104fa9190611820565b60405180910390a25050565b60006001800180549050905090565b33600173__$e466c31e3961a8766d3d15b47ab000296d$__6308b40aef9091836040518363ffffffff1660e01b81526004016105529291906117f7565b60206040518083038186803b15801561056a57600080fd5b505af415801561057e573d6000803e3d6000fd5b505050506040513d601f19601f820116820180604052508101906105a29190611444565b6105e1576040517f08c379a00000000000000000000000000000000000000000000000000000000081526004016105d8906117b7565b60405180910390fd5b6003829080600181540180825580915050600190039060005260206000200160009091909190916101000a81548173ffffffffffffffffffffffffffffffffffffffff021916908373ffffffffffffffffffffffffffffffffffffffff1602179055506106578268056bc75e2d63100000610dc5565b8173ffffffffffffffffffffffffffffffffffffffff167fa393070be795669766b8f40ecaab0724def57650be5914b232c8fb18ca507f3660405160405180910390a25050565b600034116106e1576040517f08c379a00000000000000000000000000000000000000000000000000000000081526004016106d890611757565b60405180910390fd5b3373ffffffffffffffffffffffffffffffffffffffff167f85177f287940f2f05425a4029951af0e047a7f9c4eaa9a6e6917bcd869f86695346040516107279190611820565b60405180910390a2565b6060600073__$487a23fac22966c883114cdd4da3fa5461$__632479d065600386866040518463ffffffff1660e01b8152600401610771939291906116c8565b60006040518083038186803b15801561078957600080fd5b505af415801561079d573d6000803e3d6000fd5b505050506040513d6000823e3d601f19601f820116820180604052508101906107c691906113f0565b915091509250929050565b6000600380549050905090565b6000600173__$e466c31e3961a8766d3d15b47ab000296d$__6308b40aef9091846040518363ffffffff1660e01b815260040161081c9291906117f7565b60206040518083038186803b15801561083457600080fd5b505af4158015610848573d6000803e3d6000fd5b505050506040513d601f19601f8201168201806040525081019061086c9190611444565b9050919050565b600061087f6001610eaa565b905080156108a3576001600060016101000a81548160ff0219169083151502179055505b6108e16040518060400160405280600a81526020017f696e697469616c697a6500000000000000000000000000000000000000000000815250610f9a565b6108f582600161103390919063ffffffff16565b801561094e5760008060016101000a81548160ff0219169083151502179055507f7f26b83ff96e1f2b6a682f133852f6798a09c465da95921460cefb38474024986001604051610945919061171a565b60405180910390a15b5050565b6060600073__$487a23fac22966c883114cdd4da3fa5461$__632479d0656001800186866040518463ffffffff1660e01b8152600401610994939291906116c8565b60006040518083038186803b1580156109ac57600080fd5b505af41580156109c0573d6000803e3d6000fd5b505050506040513d6000823e3d601f19601f820116820180604052508101906109e991906113f0565b915091509250929050565b33600173__$e466c31e3961a8766d3d15b47ab000296d$__6308b40aef9091836040518363ffffffff1660e01b8152600401610a319291906117f7565b60206040518083038186803b158015610a4957600080fd5b505af4158015610a5d573d6000803e3d6000fd5b505050506040513d601f19601f82011682018060405250810190610a819190611444565b610ac0576040517f08c379a0000000000000000000000000000000000000000000000000000000008152600401610ab7906117b7565b60405180910390fd5b610ad482600161103390919063ffffffff16565b610ae682678ac7230489e80000610dc5565b8173ffffffffffffffffffffffffffffffffffffffff167fb251eb052afc73ffd02ffe85ad79990a8b3fed60d76dbc2fa2fdd7123dffd91460405160405180910390a25050565b610b378282611133565b610b76576040517f08c379a0000000000000000000000000000000000000000000000000000000008152600401610b6d906117d7565b60405180910390fd5b600060018360010180549050610b8c91906118e1565b90506000836001018281548110610bcc577f4e487b7100000000000000000000000000000000000000000000000000000000600052603260045260246000fd5b9060005260206000200160009054906101000a900473ffffffffffffffffffffffffffffffffffffffff16905060008460000160008573ffffffffffffffffffffffffffffffffffffffff1673ffffffffffffffffffffffffffffffffffffffff168152602001908152602001600020549050808560000160008473ffffffffffffffffffffffffffffffffffffffff1673ffffffffffffffffffffffffffffffffffffffff1681526020019081526020016000208190555081856001018281548110610cc2577f4e487b7100000000000000000000000000000000000000000000000000000000600052603260045260246000fd5b9060005260206000200160006101000a81548173ffffffffffffffffffffffffffffffffffffffff021916908373ffffffffffffffffffffffffffffffffffffffff1602179055508460000160008573ffffffffffffffffffffffffffffffffffffffff1673ffffffffffffffffffffffffffffffffffffffff1681526020019081526020016000206000905584600101805480610d89577f4e487b7100000000000000000000000000000000000000000000000000000000600052603160045260246000fd5b6001900381819060005260206000200160006101000a81549073ffffffffffffffffffffffffffffffffffffffff021916905590555050505050565b600047905080821115610dd6578091505b818373ffffffffffffffffffffffffffffffffffffffff163110610dfa5750610ea6565b8273ffffffffffffffffffffffffffffffffffffffff163182610e1d91906118e1565b91508273ffffffffffffffffffffffffffffffffffffffff166108fc839081150290604051600060405180830381858888f19350505050158015610e65573d6000803e3d6000fd5b50610ea46040518060400160405280600581526020017f446f6e6521000000000000000000000000000000000000000000000000000000815250610f9a565b505b5050565b60008060019054906101000a900460ff1615610f215760018260ff16148015610ed95750610ed730611229565b155b610f18576040517f08c379a0000000000000000000000000000000000000000000000000000000008152600401610f0f90611777565b60405180910390fd5b60009050610f95565b8160ff1660008054906101000a900460ff1660ff1610610f76576040517f08c379a0000000000000000000000000000000000000000000000000000000008152600401610f6d90611777565b60405180910390fd5b816000806101000a81548160ff021916908360ff160217905550600190505b919050565b61103081604051602401610fae9190611735565b6040516020818303038152906040527f41304fac000000000000000000000000000000000000000000000000000000007bffffffffffffffffffffffffffffffffffffffffffffffffffffffff19166020820180517bffffffffffffffffffffffffffffffffffffffffffffffffffffffff838183161783525050505061124c565b50565b61103d8282611133565b1561107d576040517f08c379a000000000000000000000000000000000000000000000000000000000815260040161107490611797565b60405180910390fd5b81600101805490508260000160008373ffffffffffffffffffffffffffffffffffffffff1673ffffffffffffffffffffffffffffffffffffffff1681526020019081526020016000208190555081600101819080600181540180825580915050600190039060005260206000200160009091909190916101000a81548173ffffffffffffffffffffffffffffffffffffffff021916908373ffffffffffffffffffffffffffffffffffffffff1602179055505050565b60008083600101805490501461121e578173ffffffffffffffffffffffffffffffffffffffff16836001018460000160008573ffffffffffffffffffffffffffffffffffffffff1673ffffffffffffffffffffffffffffffffffffffff16815260200190815260200160002054815481106111d7577f4e487b7100000000000000000000000000000000000000000000000000000000600052603260045260246000fd5b9060005260206000200160009054906101000a900473ffffffffffffffffffffffffffffffffffffffff1673ffffffffffffffffffffffffffffffffffffffff1614611221565b60005b905092915050565b6000808273ffffffffffffffffffffffffffffffffffffffff163b119050919050565b60008151905060006a636f6e736f6c652e6c6f679050602083016000808483855afa5050505050565b600061128861128384611860565b61183b565b905080838252602082019050828560208602820111156112a757600080fd5b60005b858110156112d757816112bd88826112f6565b8452602084019350602083019250506001810190506112aa565b5050509392505050565b6000813590506112f081611b66565b92915050565b60008151905061130581611b66565b92915050565b60008135905061131a81611b7d565b92915050565b600082601f83011261133157600080fd5b8151611341848260208601611275565b91505092915050565b60008151905061135981611b94565b92915050565b60008135905061136e81611bab565b92915050565b60008135905061138381611bc2565b92915050565b60008151905061139881611bc2565b92915050565b6000602082840312156113b057600080fd5b60006113be848285016112e1565b91505092915050565b6000602082840312156113d957600080fd5b60006113e78482850161130b565b91505092915050565b6000806040838503121561140357600080fd5b600083015167ffffffffffffffff81111561141d57600080fd5b61142985828601611320565b925050602061143a85828601611389565b9150509250929050565b60006020828403121561145657600080fd5b60006114648482850161134a565b91505092915050565b60006020828403121561147f57600080fd5b600061148d8482850161135f565b91505092915050565b600080604083850312156114a957600080fd5b60006114b785828601611374565b92505060206114c885828601611374565b9150509250929050565b60006114de83836114ea565b60208301905092915050565b6114f381611915565b82525050565b61150281611915565b82525050565b60006115138261189c565b61151d81856118bf565b93506115288361188c565b8060005b8381101561155957815161154088826114d2565b975061154b836118b2565b92505060018101905061152c565b5085935050505092915050565b8082525050565b61157681611939565b82525050565b6115858161198e565b82525050565b6000611596826118a7565b6115a081856118d0565b93506115b08185602086016119a0565b6115b981611a62565b840191505092915050565b60006115d16014836118d0565b91506115dc82611a73565b602082019050919050565b60006115f4602e836118d0565b91506115ff82611a9c565b604082019050919050565b60006116176016836118d0565b915061162282611aeb565b602082019050919050565b600061163a6016836118d0565b915061164582611b14565b602082019050919050565b600061165d601d836118d0565b915061166882611b3d565b602082019050919050565b8082525050565b61168381611977565b82525050565b61169281611977565b82525050565b600060408201905081810360008301526116b28185611508565b90506116c1602083018461167a565b9392505050565b60006060820190506116dd6000830186611566565b6116ea6020830185611689565b6116f76040830184611689565b949350505050565b6000602082019050611714600083018461156d565b92915050565b600060208201905061172f600083018461157c565b92915050565b6000602082019050818103600083015261174f818461158b565b905092915050565b60006020820190508181036000830152611770816115c4565b9050919050565b60006020820190508181036000830152611790816115e7565b9050919050565b600060208201905081810360008301526117b08161160a565b9050919050565b600060208201905081810360008301526117d08161162d565b9050919050565b600060208201905081810360008301526117f081611650565b9050919050565b600060408201905061180c6000830185611673565b61181960208301846114f9565b9392505050565b6000602082019050611835600083018461167a565b92915050565b6000611845611856565b905061185182826119d3565b919050565b6000604051905090565b600067ffffffffffffffff82111561187b5761187a611a33565b5b602082029050602081019050919050565b6000819050602082019050919050565b600081519050919050565b600081519050919050565b6000602082019050919050565b600082825260208201905092915050565b600082825260208201905092915050565b60006118ec82611977565b91506118f783611977565b92508282101561190a57611909611a04565b5b828203905092915050565b600061192082611957565b9050919050565b600061193282611957565b9050919050565b60008115159050919050565b600061195082611927565b9050919050565b600073ffffffffffffffffffffffffffffffffffffffff82169050919050565b6000819050919050565b600060ff82169050919050565b600061199982611981565b9050919050565b60005b838110156119be5780820151818401526020810190506119a3565b838111156119cd576000848401525b50505050565b6119dc82611a62565b810181811067ffffffffffffffff821117156119fb576119fa611a33565b5b80604052505050565b7f4e487b7100000000000000000000000000000000000000000000000000000000600052601160045260246000fd5b7f4e487b7100000000000000000000000000000000000000000000000000000000600052604160045260246000fd5b6000601f19601f8301169050919050565b7f4d697373696e6720617474616368656420455448000000000000000000000000600082015250565b7f496e697469616c697a61626c653a20636f6e747261637420697320616c72656160008201527f647920696e697469616c697a6564000000000000000000000000000000000000602082015250565b7f4164647265737320616c726561647920696e2073657400000000000000000000600082015250565b7f4d697373696e6720535043206d656d6265727368697000000000000000000000600082015250565b7f4164647265737320646f6573206e6f7420657869737420696e20736574000000600082015250565b611b6f81611915565b8114611b7a57600080fd5b50565b611b8681611927565b8114611b9157600080fd5b50565b611b9d81611939565b8114611ba857600080fd5b50565b611bb481611945565b8114611bbf57600080fd5b50565b611bcb81611977565b8114611bd657600080fd5b5056fea264697066735822122086b018c227a1c9618848020ce326e4ef32b866685b4d1b74a05762a121766f6164736f6c63430008040033",
  "linkReferences": {
    "contracts/lib/AddressSetLib.sol": {
      "AddressSetLib": [
        {
          "length": 20,
          "start": 666
        },
        {
          "length": 20,
          "start": 961
        },
        {
          "length": 20,
          "start": 1338
        },
        {
          "length": 20,
          "start": 2052
        },
        {
          "length": 20,
          "start": 2585
        }
      ]
    },
    "contracts/lib/PaginationLib.sol": {
      "PaginationLib": [
        {
          "length": 20,
          "start": 1879
        },
        {
          "length": 20,
          "start": 2424
        }
      ]
    }
  },
  "deployedLinkReferences": {
    "contracts/lib/AddressSetLib.sol": {
      "AddressSetLib": [
        {
          "length": 20,
          "start": 634
        },
        {
          "length": 20,
          "start": 929
        },
        {
          "length": 20,
          "start": 1306
        },
        {
          "length": 20,
          "start": 2020
        },
        {
          "length": 20,
          "start": 2553
        }
      ]
    },
    "contracts/lib/PaginationLib.sol": {
      "PaginationLib": [
        {
          "length": 20,
          "start": 1847
        },
        {
          "length": 20,
          "start": 2392
        }
      ]
    }
  }
}